{
  "contractName": "TwoPhaseCommitCrossChain",
  "abi": [
    {
      "inputs": [
        {
          "internalType": "string",
          "name": "_chainName",
          "type": "string"
        }
      ],
      "stateMutability": "nonpayable",
      "type": "constructor"
    },
    {
      "anonymous": false,
      "inputs": [
        {
          "indexed": true,
          "internalType": "address",
          "name": "previousOwner",
          "type": "address"
        },
        {
          "indexed": true,
          "internalType": "address",
          "name": "newOwner",
          "type": "address"
        }
      ],
      "name": "OwnershipTransferred",
      "type": "event"
    },
    {
      "inputs": [
        {
          "internalType": "string",
          "name": "_fromChain",
          "type": "string"
        },
        {
          "internalType": "uint256",
          "name": "_id",
          "type": "uint256"
        },
        {
          "internalType": "uint256",
          "name": "_errorCode",
          "type": "uint256"
        }
      ],
      "name": "abandonMessage",
      "outputs": [],
      "stateMutability": "nonpayable",
      "type": "function"
    },
    {
      "inputs": [
        {
          "internalType": "string",
          "name": "",
          "type": "string"
        }
      ],
      "name": "availableReceivedMessageIndexTable",
      "outputs": [
        {
          "internalType": "uint256",
          "name": "",
          "type": "uint256"
        }
      ],
      "stateMutability": "view",
      "type": "function",
      "constant": true
    },
    {
      "inputs": [],
      "name": "chainName",
      "outputs": [
        {
          "internalType": "string",
          "name": "",
          "type": "string"
        }
      ],
      "stateMutability": "view",
      "type": "function",
      "constant": true
    },
    {
      "inputs": [
        {
          "internalType": "address[]",
          "name": "_porters",
          "type": "address[]"
        },
        {
          "internalType": "uint256",
          "name": "_requirement",
          "type": "uint256"
        }
      ],
      "name": "changePortersAndRequirement",
      "outputs": [],
      "stateMutability": "nonpayable",
      "type": "function"
    },
    {
      "inputs": [
        {
          "internalType": "string",
          "name": "_toChain",
          "type": "string"
        }
      ],
      "name": "clearCrossChainMessage",
      "outputs": [],
      "stateMutability": "nonpayable",
      "type": "function"
    },
    {
      "inputs": [],
      "name": "currentSimplifiedMessage",
      "outputs": [
        {
          "internalType": "uint256",
          "name": "id",
          "type": "uint256"
        },
        {
          "internalType": "string",
          "name": "fromChain",
          "type": "string"
        },
        {
          "internalType": "string",
          "name": "sender",
          "type": "string"
        },
        {
          "internalType": "string",
          "name": "signer",
          "type": "string"
        },
        {
          "components": [
            {
              "internalType": "uint8",
              "name": "reveal",
              "type": "uint8"
            }
          ],
          "internalType": "struct SQOS",
          "name": "sqos",
          "type": "tuple"
        },
        {
          "internalType": "address",
          "name": "contractAddress",
          "type": "address"
        },
        {
          "internalType": "string",
          "name": "action",
          "type": "string"
        },
        {
          "components": [
            {
              "internalType": "uint8",
              "name": "resType",
              "type": "uint8"
            },
            {
              "internalType": "uint256",
              "name": "id",
              "type": "uint256"
            }
          ],
          "internalType": "struct Session",
          "name": "session",
          "type": "tuple"
        }
      ],
      "stateMutability": "view",
      "type": "function",
      "constant": true
    },
    {
      "inputs": [
        {
          "internalType": "string",
          "name": "_chainName",
          "type": "string"
        },
        {
          "internalType": "uint256",
          "name": "_id",
          "type": "uint256"
        }
      ],
      "name": "executeMessage",
      "outputs": [],
      "stateMutability": "nonpayable",
      "type": "function"
    },
    {
      "inputs": [],
      "name": "getCurrentMessage",
      "outputs": [
        {
          "components": [
            {
              "internalType": "uint256",
              "name": "id",
              "type": "uint256"
            },
            {
              "internalType": "string",
              "name": "fromChain",
              "type": "string"
            },
            {
              "internalType": "string",
              "name": "sender",
              "type": "string"
            },
            {
              "internalType": "string",
              "name": "signer",
              "type": "string"
            },
            {
              "components": [
                {
                  "internalType": "uint8",
                  "name": "reveal",
                  "type": "uint8"
                }
              ],
              "internalType": "struct SQOS",
              "name": "sqos",
              "type": "tuple"
            },
            {
              "internalType": "address",
              "name": "contractAddress",
              "type": "address"
            },
            {
              "internalType": "string",
              "name": "action",
              "type": "string"
            },
            {
              "components": [
                {
                  "internalType": "uint8",
                  "name": "resType",
                  "type": "uint8"
                },
                {
                  "internalType": "uint256",
                  "name": "id",
                  "type": "uint256"
                }
              ],
              "internalType": "struct Session",
              "name": "session",
              "type": "tuple"
            }
          ],
          "internalType": "struct SimplifiedMessage",
          "name": "",
          "type": "tuple"
        }
      ],
      "stateMutability": "view",
      "type": "function",
      "constant": true
    },
    {
      "inputs": [
        {
          "internalType": "string[]",
          "name": "_chainNames",
          "type": "string[]"
        }
      ],
      "name": "getExecutableMessages",
      "outputs": [
        {
          "components": [
            {
              "internalType": "uint256",
              "name": "id",
              "type": "uint256"
            },
            {
              "internalType": "string",
              "name": "fromChain",
              "type": "string"
            },
            {
              "internalType": "string",
              "name": "sender",
              "type": "string"
            },
            {
              "internalType": "string",
              "name": "signer",
              "type": "string"
            },
            {
              "components": [
                {
                  "internalType": "uint8",
                  "name": "reveal",
                  "type": "uint8"
                }
              ],
              "internalType": "struct SQOS",
              "name": "sqos",
              "type": "tuple"
            },
            {
              "internalType": "address",
              "name": "contractAddress",
              "type": "address"
            },
            {
              "internalType": "string",
              "name": "action",
              "type": "string"
            },
            {
              "internalType": "bytes",
              "name": "data",
              "type": "bytes"
            },
            {
              "components": [
                {
                  "internalType": "uint8",
                  "name": "resType",
                  "type": "uint8"
                },
                {
                  "internalType": "uint256",
                  "name": "id",
                  "type": "uint256"
                }
              ],
              "internalType": "struct Session",
              "name": "session",
              "type": "tuple"
            },
            {
              "internalType": "bool",
              "name": "executed",
              "type": "bool"
            },
            {
              "internalType": "uint256",
              "name": "errorCode",
              "type": "uint256"
            }
          ],
          "internalType": "struct ReceivedMessage[]",
          "name": "",
          "type": "tuple[]"
        }
      ],
      "stateMutability": "view",
      "type": "function",
      "constant": true
    },
    {
      "inputs": [
        {
          "internalType": "string",
          "name": "_chainName",
          "type": "string"
        }
      ],
      "name": "getMsgPortingTask",
      "outputs": [
        {
          "internalType": "uint256",
          "name": "",
          "type": "uint256"
        }
      ],
      "stateMutability": "view",
      "type": "function",
      "constant": true
    },
    {
      "inputs": [
        {
          "internalType": "string",
          "name": "_chainName",
          "type": "string"
        },
        {
          "internalType": "uint256",
          "name": "_id",
          "type": "uint256"
        }
      ],
      "name": "getReceivedMessage",
      "outputs": [
        {
          "components": [
            {
              "internalType": "uint256",
              "name": "id",
              "type": "uint256"
            },
            {
              "internalType": "string",
              "name": "fromChain",
              "type": "string"
            },
            {
              "internalType": "string",
              "name": "sender",
              "type": "string"
            },
            {
              "internalType": "string",
              "name": "signer",
              "type": "string"
            },
            {
              "components": [
                {
                  "internalType": "uint8",
                  "name": "reveal",
                  "type": "uint8"
                }
              ],
              "internalType": "struct SQOS",
              "name": "sqos",
              "type": "tuple"
            },
            {
              "internalType": "address",
              "name": "contractAddress",
              "type": "address"
            },
            {
              "internalType": "string",
              "name": "action",
              "type": "string"
            },
            {
              "internalType": "bytes",
              "name": "data",
              "type": "bytes"
            },
            {
              "components": [
                {
                  "internalType": "uint8",
                  "name": "resType",
                  "type": "uint8"
                },
                {
                  "internalType": "uint256",
                  "name": "id",
                  "type": "uint256"
                }
              ],
              "internalType": "struct Session",
              "name": "session",
              "type": "tuple"
            },
            {
              "internalType": "bool",
              "name": "executed",
              "type": "bool"
            },
            {
              "internalType": "uint256",
              "name": "errorCode",
              "type": "uint256"
            }
          ],
          "internalType": "struct ReceivedMessage",
          "name": "",
          "type": "tuple"
        }
      ],
      "stateMutability": "view",
      "type": "function",
      "constant": true
    },
    {
      "inputs": [
        {
          "internalType": "string",
          "name": "_chainName",
          "type": "string"
        }
      ],
      "name": "getReceivedMessageNumber",
      "outputs": [
        {
          "internalType": "uint256",
          "name": "",
          "type": "uint256"
        }
      ],
      "stateMutability": "view",
      "type": "function",
      "constant": true
    },
    {
      "inputs": [
        {
          "internalType": "string",
          "name": "_chainName",
          "type": "string"
        },
        {
          "internalType": "uint256",
          "name": "_id",
          "type": "uint256"
        }
      ],
      "name": "getSentMessage",
      "outputs": [
        {
          "components": [
            {
              "internalType": "uint256",
              "name": "id",
              "type": "uint256"
            },
            {
              "internalType": "string",
              "name": "fromChain",
              "type": "string"
            },
            {
              "internalType": "string",
              "name": "toChain",
              "type": "string"
            },
            {
              "internalType": "address",
              "name": "sender",
              "type": "address"
            },
            {
              "internalType": "address",
              "name": "signer",
              "type": "address"
            },
            {
              "components": [
                {
                  "internalType": "uint8",
                  "name": "reveal",
                  "type": "uint8"
                }
              ],
              "internalType": "struct SQOS",
              "name": "sqos",
              "type": "tuple"
            },
            {
              "components": [
                {
                  "internalType": "string",
                  "name": "contractAddress",
                  "type": "string"
                },
                {
                  "internalType": "string",
                  "name": "action",
                  "type": "string"
                },
                {
                  "components": [
                    {
                      "internalType": "bytes",
                      "name": "arguments",
                      "type": "bytes"
                    }
                  ],
                  "internalType": "struct Data",
                  "name": "data",
                  "type": "tuple"
                }
              ],
              "internalType": "struct Content",
              "name": "content",
              "type": "tuple"
            },
            {
              "components": [
                {
                  "internalType": "uint8",
                  "name": "resType",
                  "type": "uint8"
                },
                {
                  "internalType": "uint256",
                  "name": "id",
                  "type": "uint256"
                }
              ],
              "internalType": "struct Session",
              "name": "session",
              "type": "tuple"
            }
          ],
          "internalType": "struct SentMessage",
          "name": "",
          "type": "tuple"
        }
      ],
      "stateMutability": "view",
      "type": "function",
      "constant": true
    },
    {
      "inputs": [
        {
          "internalType": "string",
          "name": "_chainName",
          "type": "string"
        }
      ],
      "name": "getSentMessageNumber",
      "outputs": [
        {
          "internalType": "uint256",
          "name": "",
          "type": "uint256"
        }
      ],
      "stateMutability": "view",
      "type": "function",
      "constant": true
    },
    {
      "inputs": [
        {
          "internalType": "address",
          "name": "",
          "type": "address"
        },
        {
          "internalType": "string",
          "name": "",
          "type": "string"
        }
      ],
      "name": "interfaces",
      "outputs": [
        {
          "internalType": "string",
          "name": "",
          "type": "string"
        }
      ],
      "stateMutability": "view",
      "type": "function",
      "constant": true
    },
    {
      "inputs": [
        {
          "internalType": "address",
          "name": "",
          "type": "address"
        }
      ],
      "name": "isPorter",
      "outputs": [
        {
          "internalType": "bool",
          "name": "",
          "type": "bool"
        }
      ],
      "stateMutability": "view",
      "type": "function",
      "constant": true
    },
    {
      "inputs": [],
      "name": "owner",
      "outputs": [
        {
          "internalType": "address",
          "name": "",
          "type": "address"
        }
      ],
      "stateMutability": "view",
      "type": "function",
      "constant": true
    },
    {
      "inputs": [
        {
          "internalType": "uint256",
          "name": "",
          "type": "uint256"
        }
      ],
      "name": "porters",
      "outputs": [
        {
          "internalType": "address",
          "name": "",
          "type": "address"
        }
      ],
      "stateMutability": "view",
      "type": "function",
      "constant": true
    },
    {
      "inputs": [
        {
          "internalType": "string",
          "name": "_funcName",
          "type": "string"
        },
        {
          "internalType": "string",
          "name": "_interface",
          "type": "string"
        }
      ],
      "name": "registerInterface",
      "outputs": [],
      "stateMutability": "nonpayable",
      "type": "function"
    },
    {
      "inputs": [],
      "name": "renounceOwnership",
      "outputs": [],
      "stateMutability": "nonpayable",
      "type": "function"
    },
    {
      "inputs": [],
      "name": "required",
      "outputs": [
        {
          "internalType": "uint256",
          "name": "",
          "type": "uint256"
        }
      ],
      "stateMutability": "view",
      "type": "function",
      "constant": true
    },
    {
      "inputs": [
        {
          "internalType": "string",
          "name": "_toChain",
          "type": "string"
        },
        {
          "internalType": "string",
          "name": "_contractAddress",
          "type": "string"
        },
        {
          "internalType": "string",
          "name": "_methodName",
          "type": "string"
        },
        {
          "components": [
            {
              "internalType": "uint8",
              "name": "reveal",
              "type": "uint8"
            }
          ],
          "internalType": "struct SQOS",
          "name": "_sqos",
          "type": "tuple"
        },
        {
          "internalType": "bytes",
          "name": "_data",
          "type": "bytes"
        },
        {
          "components": [
            {
              "internalType": "uint8",
              "name": "resType",
              "type": "uint8"
            },
            {
              "internalType": "uint256",
              "name": "id",
              "type": "uint256"
            }
          ],
          "internalType": "struct Session",
          "name": "_session",
          "type": "tuple"
        }
      ],
      "name": "sendMessage",
      "outputs": [
        {
          "internalType": "uint256",
          "name": "",
          "type": "uint256"
        }
      ],
      "stateMutability": "nonpayable",
      "type": "function"
    },
    {
      "inputs": [
        {
          "internalType": "address",
          "name": "_address",
          "type": "address"
        }
      ],
      "name": "setTokenContract",
      "outputs": [],
      "stateMutability": "nonpayable",
      "type": "function"
    },
    {
      "inputs": [
        {
          "internalType": "address",
          "name": "_address",
          "type": "address"
        }
      ],
      "name": "setVerifyContract",
      "outputs": [],
      "stateMutability": "nonpayable",
      "type": "function"
    },
    {
      "inputs": [],
      "name": "tokenContract",
      "outputs": [
        {
          "internalType": "contract DanteToken",
          "name": "",
          "type": "address"
        }
      ],
      "stateMutability": "view",
      "type": "function",
      "constant": true
    },
    {
      "inputs": [
        {
          "internalType": "address",
          "name": "newOwner",
          "type": "address"
        }
      ],
      "name": "transferOwnership",
      "outputs": [],
      "stateMutability": "nonpayable",
      "type": "function"
    },
    {
      "inputs": [],
      "name": "verifyContract",
      "outputs": [
        {
          "internalType": "contract MessageVerify",
          "name": "",
          "type": "address"
        }
      ],
      "stateMutability": "view",
      "type": "function",
      "constant": true
    },
    {
      "inputs": [
        {
          "internalType": "string",
          "name": "_fromChain",
          "type": "string"
        },
        {
          "internalType": "uint256",
          "name": "_id",
          "type": "uint256"
        },
        {
          "internalType": "bytes32",
          "name": "_hash",
          "type": "bytes32"
        }
      ],
      "name": "receiveHiddenMessage",
      "outputs": [],
      "stateMutability": "nonpayable",
      "type": "function"
    },
    {
      "inputs": [
        {
          "internalType": "string",
          "name": "_fromChain",
          "type": "string"
        },
        {
          "internalType": "uint256",
          "name": "_id",
          "type": "uint256"
        },
        {
          "internalType": "string",
          "name": "_sender",
          "type": "string"
        },
        {
          "internalType": "string",
          "name": "_signer",
          "type": "string"
        },
        {
          "internalType": "address",
          "name": "_to",
          "type": "address"
        },
        {
          "components": [
            {
              "internalType": "uint8",
              "name": "reveal",
              "type": "uint8"
            }
          ],
          "internalType": "struct SQOS",
          "name": "_sqos",
          "type": "tuple"
        },
        {
          "internalType": "string",
          "name": "_action",
          "type": "string"
        },
        {
          "internalType": "bytes",
          "name": "_data",
          "type": "bytes"
        },
        {
          "components": [
            {
              "internalType": "uint8",
              "name": "resType",
              "type": "uint8"
            },
            {
              "internalType": "uint256",
              "name": "id",
              "type": "uint256"
            }
          ],
          "internalType": "struct Session",
          "name": "_session",
          "type": "tuple"
        }
      ],
      "name": "revealMessage",
      "outputs": [],
      "stateMutability": "nonpayable",
      "type": "function"
    },
    {
      "inputs": [
        {
          "internalType": "string",
          "name": "_fromChain",
          "type": "string"
        },
        {
          "internalType": "uint256",
          "name": "_id",
          "type": "uint256"
        },
        {
          "internalType": "string",
          "name": "_sender",
          "type": "string"
        },
        {
          "internalType": "string",
          "name": "_signer",
          "type": "string"
        },
        {
          "internalType": "address",
          "name": "_to",
          "type": "address"
        },
        {
          "components": [
            {
              "internalType": "uint8",
              "name": "reveal",
              "type": "uint8"
            }
          ],
          "internalType": "struct SQOS",
          "name": "_sqos",
          "type": "tuple"
        },
        {
          "internalType": "string",
          "name": "_action",
          "type": "string"
        },
        {
          "internalType": "bytes",
          "name": "_data",
          "type": "bytes"
        },
        {
          "components": [
            {
              "internalType": "uint8",
              "name": "resType",
              "type": "uint8"
            },
            {
              "internalType": "uint256",
              "name": "id",
              "type": "uint256"
            }
          ],
          "internalType": "struct Session",
          "name": "_session",
          "type": "tuple"
        }
      ],
      "name": "receiveMessage",
      "outputs": [],
      "stateMutability": "nonpayable",
      "type": "function"
    },
    {
      "inputs": [
        {
          "internalType": "string",
          "name": "_fromChain",
          "type": "string"
        },
        {
          "internalType": "uint256",
          "name": "_id",
          "type": "uint256"
        }
      ],
      "name": "getFirstStageMessage",
      "outputs": [
        {
          "components": [
            {
              "components": [
                {
                  "internalType": "uint256",
                  "name": "id",
                  "type": "uint256"
                },
                {
                  "internalType": "string",
                  "name": "fromChain",
                  "type": "string"
                },
                {
                  "internalType": "bytes32",
                  "name": "hashData",
                  "type": "bytes32"
                },
                {
                  "internalType": "address",
                  "name": "porter",
                  "type": "address"
                }
              ],
              "internalType": "struct TwoPhaseCommitCrossChain.HiddenMessage[]",
              "name": "messages",
              "type": "tuple[]"
            },
            {
              "internalType": "enum TwoPhaseCommitCrossChain.StageStatus",
              "name": "stage",
              "type": "uint8"
            }
          ],
          "internalType": "struct TwoPhaseCommitCrossChain.FirstStageMessage",
          "name": "",
          "type": "tuple"
        }
      ],
      "stateMutability": "view",
      "type": "function",
      "constant": true
    }
  ],
  "bytecode": "0x60806040523480156200001157600080fd5b50604051620056673803806200566783398101604081905262000034916200016c565b8080620000413362000060565b805162000056906001906020840190620000b0565b5050505062000285565b600080546001600160a01b038381166001600160a01b0319831681178455604051919092169283917f8be0079c531659141344cd1fd0a4f28419497f9722a3daafe3b4186f6b6457e09190a35050565b828054620000be9062000248565b90600052602060002090601f016020900481019282620000e257600085556200012d565b82601f10620000fd57805160ff19168380011785556200012d565b828001600101855582156200012d579182015b828111156200012d57825182559160200191906001019062000110565b506200013b9291506200013f565b5090565b5b808211156200013b576000815560010162000140565b634e487b7160e01b600052604160045260246000fd5b600060208083850312156200018057600080fd5b82516001600160401b03808211156200019857600080fd5b818501915085601f830112620001ad57600080fd5b815181811115620001c257620001c262000156565b604051601f8201601f19908116603f01168101908382118183101715620001ed57620001ed62000156565b8160405282815288868487010111156200020657600080fd5b600093505b828410156200022a57848401860151818501870152928501926200020b565b828411156200023c5760008684830101525b98975050505050505050565b600181811c908216806200025d57607f821691505b602082108114156200027f57634e487b7160e01b600052602260045260246000fd5b50919050565b6153d280620002956000396000f3fe608060405234801561001057600080fd5b50600436106101e55760003560e01c80639af7a48c1161010f578063bbcd5bbe116100a2578063debcd46e11610071578063debcd46e14610471578063f2fde38b14610484578063fe2c9c1914610497578063ff38c0b9146104aa57600080fd5b8063bbcd5bbe14610422578063c383221414610435578063ce700e8014610455578063dc8452cd1461046857600080fd5b8063a6806f65116100de578063a6806f65146103be578063a8e76bdd146103d1578063b244244b146103e4578063b46ca24c1461040f57600080fd5b80639af7a48c146103505780639da9ef33146103655780639ebc33e414610378578063a0d948ea146103ab57600080fd5b806344a79d49116101875780637d8641f2116101565780637d8641f2146102ec5780638da5cb5b146102ff5780638e3db31314610310578063909b26471461033057600080fd5b806344a79d49146102935780634c2be98f146102a657806355a373d6146102d1578063715018a6146102e457600080fd5b80631c93b03a116101c35780631c93b03a146102505780632eb4358c14610258578063320befc81461026d5780634380aa3a1461028057600080fd5b8063086615c2146101ea5780630bdac6f4146102105780631585f9d014610230575b600080fd5b6101fd6101f8366004613d0b565b6104c6565b6040519081526020015b60405180910390f35b61022361021e366004613d4c565b6104f4565b6040516102079190613e2b565b61024361023e36600461402e565b61067c565b604051610207919061407d565b610243610732565b61026b610266366004614090565b61073f565b005b61026b61027b366004613d0b565b610951565b61026b61028e3660046140e0565b610a03565b61026b6102a13660046141c4565b610a4b565b6102b96102b43660046142d3565b610ca4565b6040516001600160a01b039091168152602001610207565b6003546102b9906001600160a01b031681565b61026b610cce565b6101fd6102fa366004614316565b610d04565b6000546001600160a01b03166102b9565b61032361031e366004613d4c565b610edc565b604051610207919061445b565b61034361033e366004614571565b6112ba565b60405161020791906146b0565b61035861184a565b6040516102079190614712565b61026b6103733660046147c0565b611b06565b61039b6103863660046147f7565b60116020526000908152604090205460ff1681565b6040519015158152602001610207565b6014546102b9906001600160a01b031681565b61026b6103cc3660046147f7565b611cd6565b61026b6103df366004614814565b611d22565b6101fd6103f2366004614932565b805160208183018101805160068252928201919093012091525481565b61026b61041d366004614090565b611e9a565b61026b6104303660046147f7565b612242565b610448610443366004613d4c565b61228e565b604051610207919061496e565b61026b610463366004613d4c565b61264c565b6101fd60105481565b6101fd61047f366004613d0b565b612bd9565b61026b6104923660046147f7565b612bee565b6101fd6104a5366004613d0b565b612c89565b6104b2612d04565b604051610207989796959493929190614981565b600080600484846040516104db929190614a1b565b9081526040519081900360200190205491505092915050565b6104fc6135d1565b6015848460405161050e929190614a1b565b908152604080519182900360209081018320600086815290825282812080546060938102860184018552938501848152909385939192859285015b8282101561063a57838290600052602060002090600402016040518060800160405290816000820154815260200160018201805461058690614a2b565b80601f01602080910402602001604051908101604052809291908181526020018280546105b290614a2b565b80156105ff5780601f106105d4576101008083540402835291602001916105ff565b820191906000526020600020905b8154815290600101906020018083116105e257829003601f168201915b505050918352505060028201546020808301919091526003909201546001600160a01b03166040909101529082526001929092019101610549565b50505090825250600182015460209091019060ff16600381111561066057610660613df3565b600381111561067157610671613df3565b905250949350505050565b60026020908152600092835260409092208151808301840180519281529084019290930191909120915280546106b190614a2b565b80601f01602080910402602001604051908101604052809291908181526020018280546106dd90614a2b565b801561072a5780601f106106ff5761010080835404028352916020019161072a565b820191906000526020600020905b81548152906001019060200180831161070d57829003601f168201915b505050505081565b600180546106b190614a2b565b3360009081526011602052604090205460ff166107775760405162461bcd60e51b815260040161076e90614a60565b60405180910390fd5b60006013858560405161078b929190614a1b565b90815260405190819003602001902080549091506107aa906001614ab9565b8311156107c95760405162461bcd60e51b815260040161076e90614ad1565b6000600586866040516107dd929190614a1b565b90815260405190819003602001902080549091506107fc906001614ab9565b84101561081b5760405162461bcd60e51b815260040161076e90614b14565b815460009061082b906001614ab9565b85141561084a5750815460018101835560008381526020902001610873565b82610856600187614b71565b8154811061086657610866614b88565b9060005260206000200190505b60005b81548110156108e857336001600160a01b031682828154811061089b5761089b614b88565b60009182526020909120600c600d9092020101546001600160a01b031614156108d65760405162461bcd60e51b815260040161076e90614b9e565b806108e081614be5565b915050610876565b50805460018181018355600083815260209020600d9092029091018681559061091490820189896135eb565b50600b8101859055600c810180546001600160a01b03191633179055601054825414156109475761094786898988612f93565b5050505050505050565b6000546001600160a01b0316331461097b5760405162461bcd60e51b815260040161076e90614c00565b6004828260405161098d929190614a1b565b908152602001604051809103902060006109a7919061366f565b600582826040516109b9929190614a1b565b908152602001604051809103902060006109d39190613690565b601382826040516109e5929190614a1b565b908152602001604051809103902060006109ff91906136b1565b5050565b33600090815260026020526040908190209051839083908390610a299089908990614a1b565b908152604051908190036020019020610a439290916135eb565b505050505050565b600060158a604051610a5d9190614c35565b908152604080516020928190038301902060008c81529252902090506002600182015460ff166003811115610a9457610a94613df3565b14610ae15760405162461bcd60e51b815260206004820152601a60248201527f4974206973206e6f7420746865207365636f6e64207374616765000000000000604482015260640161076e565b60008082600001600081548110610afa57610afa614b88565b9060005260206000209060040201905060005b8354811015610b8b5783543390859083908110610b2c57610b2c614b88565b60009182526020909120600360049092020101546001600160a01b03161415610b7957836000018181548110610b6457610b64614b88565b90600052602060002090600402019150600192505b80610b8381614be5565b915050610b0d565b5081610be75760405162461bcd60e51b815260206004820152602560248201527f506f7274657220646964206e6f742066696e6973682074686520666972737420604482015264737461676560d81b606482015260840161076e565b60008a8a898b8a8a33604051602001610c069796959493929190614c51565b6040516020818303038152906040528051906020012090508160020154811415610c3b57610c3b8d8d8d8d8d8d8d8d8d613048565b600060058e604051610c4d9190614c35565b908152602001604051809103902090508c60058f604051610c6e9190614c35565b908152604051908190036020019020541415610c945760018501805460ff191660031790555b5050505050505050505050505050565b60128181548110610cb457600080fd5b6000918252602090912001546001600160a01b0316905081565b6000546001600160a01b03163314610cf85760405162461bcd60e51b815260040161076e90614c00565b610d026000613416565b565b60008060048c8c604051610d19929190614a1b565b9081526040805191829003602090810183208054600181018083556000838152849020600b9092029091019081556080601f8f0184900490930285018301909352606084018d815290945091929182918e908e9081908501838280828437600092019190915250505090825250604080516020601f8d018190048102820181019092528b815291810191908c908c9081908401838280828437600092019190915250505090825250604080516020601f8a0181900481028201830183528181018a815293019290918291908b908b908190850183828082843760009201919091525050509152509052805180516006840191610e1a918391602001906136cf565b506020828101518051610e3392600185019201906136cf565b506040820151805180516002840191610e51918391602001906136cf565b505050905050600181600101908054610e6990614a2b565b610e74929190613743565b50610e83600282018e8e6135eb565b506003810180546001600160a01b03199081163317909155600482018054909116321790558660058201610eb78282614cd1565b5084905060098201610ec98282614cee565b5050549c9b505050505050505050505050565b610ee46137be565b600060048585604051610ef8929190614a1b565b908152604051908190036020019020905080610f15600185614b71565b81548110610f2557610f25614b88565b90600052602060002090600b02016040518061010001604052908160008201548152602001600182018054610f5990614a2b565b80601f0160208091040260200160405190810160405280929190818152602001828054610f8590614a2b565b8015610fd25780601f10610fa757610100808354040283529160200191610fd2565b820191906000526020600020905b815481529060010190602001808311610fb557829003601f168201915b50505050508152602001600282018054610feb90614a2b565b80601f016020809104026020016040519081016040528092919081815260200182805461101790614a2b565b80156110645780601f1061103957610100808354040283529160200191611064565b820191906000526020600020905b81548152906001019060200180831161104757829003601f168201915b505050918352505060038201546001600160a01b03908116602080840191909152600484015490911660408084019190915280519182018152600584015460ff16825260608084019290925280519182019052600683018054608090930192829082906110d090614a2b565b80601f01602080910402602001604051908101604052809291908181526020018280546110fc90614a2b565b80156111495780601f1061111e57610100808354040283529160200191611149565b820191906000526020600020905b81548152906001019060200180831161112c57829003601f168201915b5050505050815260200160018201805461116290614a2b565b80601f016020809104026020016040519081016040528092919081815260200182805461118e90614a2b565b80156111db5780601f106111b0576101008083540402835291602001916111db565b820191906000526020600020905b8154815290600101906020018083116111be57829003601f168201915b505050505081526020016002820160405180602001604052908160008201805461120490614a2b565b80601f016020809104026020016040519081016040528092919081815260200182805461123090614a2b565b801561127d5780601f106112525761010080835404028352916020019161127d565b820191906000526020600020905b81548152906001019060200180831161126057829003601f168201915b50505091909252505050905250815260408051808201909152600983015460ff168152600a90920154602080840191909152015295945050505050565b60606000805b8381101561139257600060058686848181106112de576112de614b88565b90506020028101906112f09190614d15565b6040516112fe929190614a1b565b9081526020016040518091039020905060005b815481101561137d57600082828154811061132e5761132e614b88565b90600052602060002090600c0201905080600b015460001480156113575750600a81015460ff16155b1561136a578461136681614be5565b9550505b508061137581614be5565b915050611311565b5050808061138a90614be5565b9150506112c0565b506000816001600160401b038111156113ad576113ad613efe565b6040519080825280602002602001820160405280156113e657816020015b6113d361384a565b8152602001906001900390816113cb5790505b5090506000915060005b84811015611841576000600587878481811061140e5761140e614b88565b90506020028101906114209190614d15565b60405161142e929190614a1b565b9081526020016040518091039020905060005b815481101561182c57600082828154811061145e5761145e614b88565b90600052602060002090600c0201905080600b015460001480156114875750600a81015460ff16155b15611819578060405180610160016040529081600082015481526020016001820180546114b390614a2b565b80601f01602080910402602001604051908101604052809291908181526020018280546114df90614a2b565b801561152c5780601f106115015761010080835404028352916020019161152c565b820191906000526020600020905b81548152906001019060200180831161150f57829003601f168201915b5050505050815260200160028201805461154590614a2b565b80601f016020809104026020016040519081016040528092919081815260200182805461157190614a2b565b80156115be5780601f10611593576101008083540402835291602001916115be565b820191906000526020600020905b8154815290600101906020018083116115a157829003601f168201915b505050505081526020016003820180546115d790614a2b565b80601f016020809104026020016040519081016040528092919081815260200182805461160390614a2b565b80156116505780601f1061162557610100808354040283529160200191611650565b820191906000526020600020905b81548152906001019060200180831161163357829003601f168201915b50505091835250506040805160208181018352600485015460ff16825283015260058301546001600160a01b03169082015260068201805460609092019161169790614a2b565b80601f01602080910402602001604051908101604052809291908181526020018280546116c390614a2b565b80156117105780601f106116e557610100808354040283529160200191611710565b820191906000526020600020905b8154815290600101906020018083116116f357829003601f168201915b5050505050815260200160078201805461172990614a2b565b80601f016020809104026020016040519081016040528092919081815260200182805461175590614a2b565b80156117a25780601f10611777576101008083540402835291602001916117a2565b820191906000526020600020905b81548152906001019060200180831161178557829003601f168201915b5050509183525050604080518082018252600884015460ff90811682526009850154602083810191909152840191909152600a84015416151590820152600b9091015460609091015285518690889081106117ff576117ff614b88565b6020026020010181905250858061181590614be5565b9650505b508061182481614be5565b915050611441565b5050808061183990614be5565b9150506113f0565b50949350505050565b6118526138e2565b6040805161010081019091526007805482526008805460208401919061187790614a2b565b80601f01602080910402602001604051908101604052809291908181526020018280546118a390614a2b565b80156118f05780601f106118c5576101008083540402835291602001916118f0565b820191906000526020600020905b8154815290600101906020018083116118d357829003601f168201915b5050505050815260200160028201805461190990614a2b565b80601f016020809104026020016040519081016040528092919081815260200182805461193590614a2b565b80156119825780601f1061195757610100808354040283529160200191611982565b820191906000526020600020905b81548152906001019060200180831161196557829003601f168201915b5050505050815260200160038201805461199b90614a2b565b80601f01602080910402602001604051908101604052809291908181526020018280546119c790614a2b565b8015611a145780601f106119e957610100808354040283529160200191611a14565b820191906000526020600020905b8154815290600101906020018083116119f757829003601f168201915b50505091835250506040805160208181018352600485015460ff16825283015260058301546001600160a01b031690820152600682018054606090920191611a5b90614a2b565b80601f0160208091040260200160405190810160405280929190818152602001828054611a8790614a2b565b8015611ad45780601f10611aa957610100808354040283529160200191611ad4565b820191906000526020600020905b815481529060010190602001808311611ab757829003601f168201915b505050918352505060408051808201909152600783015460ff1681526008909201546020838101919091520152919050565b6000546001600160a01b03163314611b305760405162461bcd60e51b815260040161076e90614c00565b60005b601254811015611b9c5760006011600060128481548110611b5657611b56614b88565b6000918252602080832091909101546001600160a01b031683528201929092526040019020805460ff191691151591909117905580611b9481614be5565b915050611b33565b50601254821015611c1157601254600090611bb8908490614b71565b905060005b81811015611c0a576012805480611bd657611bd6614d5b565b600082815260209020810160001990810180546001600160a01b031916905501905580611c0281614be5565b915050611bbd565b5050611c4f565b601254600090611c219084614b71565b905060005b81811015611c4c5760128054600101815560005280611c4481614be5565b915050611c26565b50505b60005b82811015611cc157600160116000868685818110611c7257611c72614b88565b9050602002016020810190611c8791906147f7565b6001600160a01b031681526020810191909152604001600020805460ff191691151591909117905580611cb981614be5565b915050611c52565b50611cce6012848461395f565b506010555050565b6000546001600160a01b03163314611d005760405162461bcd60e51b815260040161076e90614c00565b601480546001600160a01b0319166001600160a01b0392909216919091179055565b3360009081526011602052604090205460ff16611d515760405162461bcd60e51b815260040161076e90614a60565b600060158c604051611d639190614c35565b908152604080516020928190038301902060008e81529281905291209091506002600182015460ff166003811115611d9d57611d9d613df3565b1415611de45760405162461bcd60e51b8152602060048201526016602482015275497420697320746865207365636f6e6420737461676560501b604482015260640161076e565b611e8b8d8d8d8d8d611dfb368f90038f018f614d71565b8d8d8080601f016020809104026020016040519081016040528093929190818152602001838380828437600081840152601f19601f820116905080830192505050505050508c8c8080601f016020809104026020016040519081016040528093929190818152602001838380828437600092019190915250611e8692505050368d90038d018d614d8d565b613048565b50505050505050505050505050565b3360009081526011602052604090205460ff16611ec95760405162461bcd60e51b815260040161076e90614a60565b600060138585604051611edd929190614a1b565b9081526040519081900360200190208054909150611efc906001614ab9565b831115611f5a5760405162461bcd60e51b815260206004820152602660248201527f54776f5068617365436f6d6d697443726f7373436861696e3a206964206e6f74604482015265040dac2e8c6d60d31b606482015260840161076e565b600060058686604051611f6e929190614a1b565b9081526040519081900360200190208054909150611f8d906001614ab9565b841015612004576040805162461bcd60e51b81526020600482015260248101919091527f54776f5068617365436f6d6d697443726f7373436861696e3a206d657373616760448201527f65206f66207468697320696420686173206265656e2061676772656761746564606482015260840161076e565b600060158787604051612018929190614a1b565b908152604080516020928190038301902060008881529281905290822090925090600182015460ff16600381111561205257612052613df3565b1415612069576001818101805460ff191690911790555b60018082015460ff16600381111561208357612083613df3565b146120d05760405162461bcd60e51b815260206004820152601960248201527f4974206973206e6f742074686520666972737420737461676500000000000000604482015260640161076e565b60005b815481101561218257815433908390839081106120f2576120f2614b88565b60009182526020909120600360049092020101546001600160a01b031614156121705760405162461bcd60e51b815260206004820152602a60248201527f54776f5068617365436f6d6d697443726f7373436861696e3a206475706c6963604482015269185d194818dbdb5b5a5d60b21b606482015260840161076e565b8061217a81614be5565b9150506120d3565b508054600181810183556000838152602090206004909202909101878155906121ae9082018a8a6135eb565b50600281018690556003810180546001600160a01b0319163317905560105482541415612237576001828101805460ff1916600217905585546000916121f49190614ab9565b8810156122355783600061220960018b614b71565b81526020019081526020016000206000808201600061222891906139b2565b50600101805460ff191690555b505b505050505050505050565b6000546001600160a01b0316331461226c5760405162461bcd60e51b815260040161076e90614c00565b600380546001600160a01b0319166001600160a01b0392909216919091179055565b61229661384a565b6000600585856040516122aa929190614a1b565b9081526040519081900360200190209050806122c7600185614b71565b815481106122d7576122d7614b88565b90600052602060002090600c0201604051806101600160405290816000820154815260200160018201805461230b90614a2b565b80601f016020809104026020016040519081016040528092919081815260200182805461233790614a2b565b80156123845780601f1061235957610100808354040283529160200191612384565b820191906000526020600020905b81548152906001019060200180831161236757829003601f168201915b5050505050815260200160028201805461239d90614a2b565b80601f01602080910402602001604051908101604052809291908181526020018280546123c990614a2b565b80156124165780601f106123eb57610100808354040283529160200191612416565b820191906000526020600020905b8154815290600101906020018083116123f957829003601f168201915b5050505050815260200160038201805461242f90614a2b565b80601f016020809104026020016040519081016040528092919081815260200182805461245b90614a2b565b80156124a85780601f1061247d576101008083540402835291602001916124a8565b820191906000526020600020905b81548152906001019060200180831161248b57829003601f168201915b50505091835250506040805160208181018352600485015460ff16825283015260058301546001600160a01b0316908201526006820180546060909201916124ef90614a2b565b80601f016020809104026020016040519081016040528092919081815260200182805461251b90614a2b565b80156125685780601f1061253d57610100808354040283529160200191612568565b820191906000526020600020905b81548152906001019060200180831161254b57829003601f168201915b5050505050815260200160078201805461258190614a2b565b80601f01602080910402602001604051908101604052809291908181526020018280546125ad90614a2b565b80156125fa5780601f106125cf576101008083540402835291602001916125fa565b820191906000526020600020905b8154815290600101906020018083116125dd57829003601f168201915b5050509183525050604080518082018252600884015460ff90811682526009850154602080840191909152840191909152600a84015416151590820152600b9091015460609091015295945050505050565b600060058484604051612660929190614a1b565b908152604051908190036020019020905060008161267f600185614b71565b8154811061268f5761268f614b88565b60009182526020909120600c90910201600a81015490915060ff16156126f75760405162461bcd60e51b815260206004820152601d60248201527f546865206d65737361676520686173206265656e206578656375746564000000604482015260640161076e565b600a8101805460ff19166001179055604051600090612726908790879060068601906002870190602401614e49565b60408051601f198184030181529181526020820180516001600160e01b031660016269dab560e01b0319179052600584015490519192506000916001600160a01b0390911690612777908490614c35565b6000604051808303816000865af19150503d80600081146127b4576040519150601f19603f3d011682016040523d82523d6000602084013e6127b9565b606091505b50509050806127cb5750505050505050565b604051806101000160405280846000015481526020018460010180546127f090614a2b565b80601f016020809104026020016040519081016040528092919081815260200182805461281c90614a2b565b80156128695780601f1061283e57610100808354040283529160200191612869565b820191906000526020600020905b81548152906001019060200180831161284c57829003601f168201915b5050505050815260200184600201805461288290614a2b565b80601f01602080910402602001604051908101604052809291908181526020018280546128ae90614a2b565b80156128fb5780601f106128d0576101008083540402835291602001916128fb565b820191906000526020600020905b8154815290600101906020018083116128de57829003601f168201915b5050505050815260200184600301805461291490614a2b565b80601f016020809104026020016040519081016040528092919081815260200182805461294090614a2b565b801561298d5780601f106129625761010080835404028352916020019161298d565b820191906000526020600020905b81548152906001019060200180831161297057829003601f168201915b50505091835250506040805160208181018352600488015460ff16825283015260058601546001600160a01b0316908201526006850180546060909201916129d490614a2b565b80601f0160208091040260200160405190810160405280929190818152602001828054612a0090614a2b565b8015612a4d5780601f10612a2257610100808354040283529160200191612a4d565b820191906000526020600020905b815481529060010190602001808311612a3057829003601f168201915b50505091835250506040805180820190915260088087015460ff168252600987015460208381019190915292830191909152825160079081558383015180519193612a9b93929101906136cf565b5060408201518051612ab79160028401916020909101906136cf565b5060608201518051612ad39160038401916020909101906136cf565b5060808201515160048201805460ff191660ff90921691909117905560a08201516005820180546001600160a01b0319166001600160a01b0390921691909117905560c08201518051612b309160068401916020909101906136cf565b5060e0919091015180516007808401805460ff191660ff9093169290921790915560209091015160089092019190915560058401546040516000926001600160a01b0390921691612b849190870190614e8e565b6000604051808303816000865af19150503d8060008114612bc1576040519150601f19603f3d011682016040523d82523d6000602084013e612bc6565b606091505b5050905080610947575050505050505050565b600080600584846040516104db929190614a1b565b6000546001600160a01b03163314612c185760405162461bcd60e51b815260040161076e90614c00565b6001600160a01b038116612c7d5760405162461bcd60e51b815260206004820152602660248201527f4f776e61626c653a206e6577206f776e657220697320746865207a65726f206160448201526564647265737360d01b606482015260840161076e565b612c8681613416565b50565b604051636f5e6a3760e11b8152600090309063debcd46e90612cb19086908690600401614f00565b602060405180830381865afa158015612cce573d6000803e3d6000fd5b505050506040513d601f19601f82011682018060405250810190612cf29190614f14565b612cfd906001614ab9565b9392505050565b6007805460088054919291612d1890614a2b565b80601f0160208091040260200160405190810160405280929190818152602001828054612d4490614a2b565b8015612d915780601f10612d6657610100808354040283529160200191612d91565b820191906000526020600020905b815481529060010190602001808311612d7457829003601f168201915b505050505090806002018054612da690614a2b565b80601f0160208091040260200160405190810160405280929190818152602001828054612dd290614a2b565b8015612e1f5780601f10612df457610100808354040283529160200191612e1f565b820191906000526020600020905b815481529060010190602001808311612e0257829003601f168201915b505050505090806003018054612e3490614a2b565b80601f0160208091040260200160405190810160405280929190818152602001828054612e6090614a2b565b8015612ead5780601f10612e8257610100808354040283529160200191612ead565b820191906000526020600020905b815481529060010190602001808311612e9057829003601f168201915b50506040805160208101909152600486015460ff1681526005860154600687018054969792966001600160a01b039092169550919350909150612eef90614a2b565b80601f0160208091040260200160405190810160405280929190818152602001828054612f1b90614a2b565b8015612f685780601f10612f3d57610100808354040283529160200191612f68565b820191906000526020600020905b815481529060010190602001808311612f4b57829003601f168201915b505060408051808201909152600786015460ff16815260089095015460208601525091929150899050565b600060058484604051612fa7929190614a1b565b9081526040519081900360200190208054909150612fc6906001614ab9565b851461300f5760405162461bcd60e51b8152602060048201526018602482015277086e4dee6e686d0c2d2dc7440d2c840dcdee840dac2e8c6d60431b604482015260640161076e565b805460018181018355600083815260209020600c9092029091018681559061303a90820186866135eb565b50600b019190915550505050565b600060138a60405161305a9190614c35565b9081526040519081900360200190208054909150613079906001614ab9565b8911156130985760405162461bcd60e51b815260040161076e90614ad1565b600060058b6040516130aa9190614c35565b90815260405190819003602001902080549091506130c9906001614ab9565b8a10156130e85760405162461bcd60e51b815260040161076e90614b14565b81546000906130f8906001614ab9565b8b14156131175750815460018101835560008381526020902001613140565b8261312360018d614b71565b8154811061313357613133614b88565b9060005260206000200190505b60005b81548110156131b557336001600160a01b031682828154811061316857613168614b88565b60009182526020909120600c600d9092020101546001600160a01b031614156131a35760405162461bcd60e51b815260040161076e90614b9e565b806131ad81614be5565b915050613143565b506000816001816001815401808255809150500390600052602060002090600d020190508b81600001600001819055508c8160000160010190805190602001906132009291906136cf565b508a5161321690600283019060208e01906136cf565b50895161322c90600383019060208d01906136cf565b506005810180546001600160a01b0319166001600160a01b038b16179055875160048201805460ff191660ff909216919091179055865161327690600683019060208a01906136cf565b50855161328c90600783019060208901906136cf565b50845160088201805460ff90921660ff1990921691909117905560208501516009820155600c810180546001600160a01b0319163317905560105482541415611e8b576014546001600160a01b03166133275760405162461bcd60e51b815260206004820152601760248201527f56657269667920436f6e7472616374206e6f7420736574000000000000000000604482015260640161076e565b60145460405163f23df6b760e01b81526000916001600160a01b03169063f23df6b79061335b908690606490600401614f2d565b6000604051808303816000875af115801561337a573d6000803e3d6000fd5b505050506040513d6000823e601f3d908101601f191682016040526133a29190810190615159565b805190915015610c94576000816000815181106133c1576133c1614b88565b602002602001015160000151905061340581600001518260200151836040015184606001518560a0015186608001518760c001518860e00151896101000151613466565b505050505050505050505050505050565b600080546001600160a01b038381166001600160a01b0319831681178455604051919092169283917f8be0079c531659141344cd1fd0a4f28419497f9722a3daafe3b4186f6b6457e09190a35050565b60006005896040516134789190614c35565b9081526040519081900360200190208054909150613497906001614ab9565b8a146134e05760405162461bcd60e51b8152602060048201526018602482015277086e4dee6e686d0c2d2dc7440d2c840dcdee840dac2e8c6d60431b604482015260640161076e565b8054600181810183556000838152602090819020600c9093029092018c81558b51909261351392840191908d01906136cf565b50885161352990600283019060208c01906136cf565b50875161353f90600383019060208b01906136cf565b50855160048201805460ff191660ff9092169190911790556005810180546001600160a01b0319166001600160a01b038916179055845161358990600683019060208801906136cf565b50835161359f90600783019060208701906136cf565b50825160088201805460ff191660ff909216919091179055602090920151600990920191909155505050505050505050565b60408051808201909152606081526020810160005b905290565b8280546135f790614a2b565b90600052602060002090601f016020900481019282613619576000855561365f565b82601f106136325782800160ff1982351617855561365f565b8280016001018555821561365f579182015b8281111561365f578235825591602001919060010190613644565b5061366b9291506139d3565b5090565b50805460008255600b0290600052602060002090810190612c8691906139e8565b50805460008255600c0290600052602060002090810190612c869190613a8a565b5080546000825590600052602060002090810190612c869190613b2c565b8280546136db90614a2b565b90600052602060002090601f0160209004810192826136fd576000855561365f565b82601f1061371657805160ff191683800117855561365f565b8280016001018555821561365f579182015b8281111561365f578251825591602001919060010190613728565b82805461374f90614a2b565b90600052602060002090601f016020900481019282613771576000855561365f565b82601f10613782578054855561365f565b8280016001018555821561365f57600052602060002091601f016020900482015b8281111561365f5782548255916001019190600101906137a3565b60405180610100016040528060008152602001606081526020016060815260200160006001600160a01b0316815260200160006001600160a01b031681526020016138186040518060200160405280600060ff1681525090565b8152602001613825613b49565b81526020016135e66040518060400160405280600060ff168152602001600081525090565b6040518061016001604052806000815260200160608152602001606081526020016060815260200161388b6040518060200160405280600060ff1681525090565b815260200160006001600160a01b0316815260200160608152602001606081526020016138ce6040518060400160405280600060ff168152602001600081525090565b815260006020820181905260409091015290565b604051806101000160405280600081526020016060815260200160608152602001606081526020016139236040518060200160405280600060ff1681525090565b815260200160006001600160a01b03168152602001606081526020016135e66040518060400160405280600060ff168152602001600081525090565b82805482825590600052602060002090810192821561365f579160200282015b8281111561365f5781546001600160a01b0319166001600160a01b0384351617825560209092019160019091019061397f565b5080546000825560040290600052602060002090810190612c869190613b78565b5b8082111561366b57600081556001016139d4565b8082111561366b576000808255613a026001830182613bb4565b613a10600283016000613bb4565b6003820180546001600160a01b0319908116909155600483018054909116905560058201805460ff19169055600682016000613a4c8282613bb4565b613a5a600183016000613bb4565b600282016000613a6a8282613bb4565b5050505060098201805460ff19169055506000600a820155600b016139e8565b8082111561366b576000808255613aa46001830182613bb4565b613ab2600283016000613bb4565b613ac0600383016000613bb4565b60048201805460ff191690556005820180546001600160a01b0319169055613aec600683016000613bb4565b613afa600783016000613bb4565b5060088101805460ff19908116909155600060098301819055600a83018054909216909155600b820155600c01613a8a565b8082111561366b576000613b408282613bee565b50600101613b2c565b604051806060016040528060608152602001606081526020016135e66040518060200160405280606081525090565b8082111561366b576000808255613b926001830182613bb4565b50600060028201556003810180546001600160a01b0319169055600401613b78565b508054613bc090614a2b565b6000825580601f10613bd0575050565b601f016020900490600052602060002090810190612c8691906139d3565b50805460008255600d0290600052602060002090810190612c8691905b8082111561366b5760008082558181613c276001830182613bb4565b613c35600283016000613bb4565b613c43600383016000613bb4565b60048201805460ff191690556005820180546001600160a01b0319169055613c6f600683016000613bb4565b613c7d600783016000613bb4565b5060088101805460ff19908116909155600060098301819055600a83018054909216909155600b9091015550600c810180546001600160a01b0319169055600d01613c0b565b60008083601f840112613cd557600080fd5b5081356001600160401b03811115613cec57600080fd5b602083019150836020828501011115613d0457600080fd5b9250929050565b60008060208385031215613d1e57600080fd5b82356001600160401b03811115613d3457600080fd5b613d4085828601613cc3565b90969095509350505050565b600080600060408486031215613d6157600080fd5b83356001600160401b03811115613d7757600080fd5b613d8386828701613cc3565b909790965060209590950135949350505050565b60005b83811015613db2578181015183820152602001613d9a565b83811115613dc1576000848401525b50505050565b60008151808452613ddf816020860160208601613d97565b601f01601f19169290920160200192915050565b634e487b7160e01b600052602160045260246000fd5b60048110613e2757634e487b7160e01b600052602160045260246000fd5b9052565b600060208083526060808401855160408085880152828251808552608094508489019150848160051b8a0101878501945060005b82811015613eb957607f198b830301845285518051835289810151888b850152613e8b89850182613dc7565b8288015185890152918a01516001600160a01b0316938a019390935295890195938901939150600101613e5f565b50968a015196613ecb8a850189613e09565b9a9950505050505050505050565b6001600160a01b0381168114612c8657600080fd5b8035613ef981613ed9565b919050565b634e487b7160e01b600052604160045260246000fd5b604051602081016001600160401b0381118282101715613f3657613f36613efe565b60405290565b604080519081016001600160401b0381118282101715613f3657613f36613efe565b60405161016081016001600160401b0381118282101715613f3657613f36613efe565b604051601f8201601f191681016001600160401b0381118282101715613fa957613fa9613efe565b604052919050565b60006001600160401b03821115613fca57613fca613efe565b50601f01601f191660200190565b600082601f830112613fe957600080fd5b8135613ffc613ff782613fb1565b613f81565b81815284602083860101111561401157600080fd5b816020850160208301376000918101602001919091529392505050565b6000806040838503121561404157600080fd5b823561404c81613ed9565b915060208301356001600160401b0381111561406757600080fd5b61407385828601613fd8565b9150509250929050565b602081526000612cfd6020830184613dc7565b600080600080606085870312156140a657600080fd5b84356001600160401b038111156140bc57600080fd5b6140c887828801613cc3565b90989097506020870135966040013595509350505050565b600080600080604085870312156140f657600080fd5b84356001600160401b038082111561410d57600080fd5b61411988838901613cc3565b9096509450602087013591508082111561413257600080fd5b5061413f87828801613cc3565b95989497509550505050565b60ff81168114612c8657600080fd5b60006020828403121561416c57600080fd5b614174613f14565b905081356141818161414b565b815292915050565b60006040828403121561419b57600080fd5b6141a3613f3c565b905081356141b08161414b565b808252506020820135602082015292915050565b60008060008060008060008060006101408a8c0312156141e357600080fd5b89356001600160401b03808211156141fa57600080fd5b6142068d838e01613fd8565b9a5060208c0135995060408c013591508082111561422357600080fd5b61422f8d838e01613fd8565b985060608c013591508082111561424557600080fd5b6142518d838e01613fd8565b975061425f60808d01613eee565b965061426e8d60a08e0161415a565b955060c08c013591508082111561428457600080fd5b6142908d838e01613fd8565b945060e08c01359150808211156142a657600080fd5b506142b38c828d01613fd8565b9250506142c48b6101008c01614189565b90509295985092959850929598565b6000602082840312156142e557600080fd5b5035919050565b6000602082840312156142fe57600080fd5b50919050565b6000604082840312156142fe57600080fd5b60008060008060008060008060008060e08b8d03121561433557600080fd5b8a356001600160401b038082111561434c57600080fd5b6143588e838f01613cc3565b909c509a5060208d013591508082111561437157600080fd5b61437d8e838f01613cc3565b909a50985060408d013591508082111561439657600080fd5b6143a28e838f01613cc3565b90985096508691506143b78e60608f016142ec565b955060808d01359150808211156143cd57600080fd5b506143da8d828e01613cc3565b90945092506143ee90508c60a08d01614304565b90509295989b9194979a5092959850565b60008151606084526144146060850182613dc7565b90506020830151848203602086015261442d8282613dc7565b9150506040830151848203604086015280519050602082526144526020830182613dc7565b95945050505050565b6020815281516020820152600060208301516101206040840152614483610140840182613dc7565b90506040840151601f19808584030160608601526144a18383613dc7565b9250606086015191506144bf60808601836001600160a01b03169052565b60808601516001600160a01b03811660a0870152915060a0860151805160ff1660c0870152915060c08601519150808584030160e08601525061450282826143ff565b91505060e0840151614525610100850182805160ff168252602090810151910152565b509392505050565b60008083601f84011261453f57600080fd5b5081356001600160401b0381111561455657600080fd5b6020830191508360208260051b8501011115613d0457600080fd5b6000806020838503121561458457600080fd5b82356001600160401b0381111561459a57600080fd5b613d408582860161452d565b60006101808251845260208301518160208601526145c682860182613dc7565b915050604083015184820360408601526145e08282613dc7565b915050606083015184820360608601526145fa8282613dc7565b915050608083015161461260808601825160ff169052565b5060a083015161462d60a08601826001600160a01b03169052565b5060c083015184820360c08601526146458282613dc7565b91505060e083015184820360e086015261465f8282613dc7565b9150506101008084015161468282870182805160ff168252602090810151910152565b505061012083015161014061469a8187018315159052565b8085015161016087015250508091505092915050565b6000602080830181845280855180835260408601915060408160051b870101925083870160005b8281101561470557603f198886030184526146f38583516145a6565b945092850192908501906001016146d7565b5092979650505050505050565b602081528151602082015260006020830151610120604084015261473a610140840182613dc7565b90506040840151601f19808584030160608601526147588383613dc7565b925060608601519150808584030160808601526147758383613dc7565b92506080860151915061478e60a08601835160ff169052565b60a08601516001600160a01b03811660c0870152915060c08601519150808584030160e0860152506145028282613dc7565b6000806000604084860312156147d557600080fd5b83356001600160401b038111156147eb57600080fd5b613d838682870161452d565b60006020828403121561480957600080fd5b8135612cfd81613ed9565b60008060008060008060008060008060006101408c8e03121561483657600080fd5b6001600160401b03808d35111561484c57600080fd5b6148598e8e358f01613fd8565b9b5060208d01359a508060408e0135111561487357600080fd5b6148838e60408f01358f01613fd8565b99508060608e0135111561489657600080fd5b6148a68e60608f01358f01613fd8565b98506148b460808e01613eee565b97506148c38e60a08f016142ec565b96508060c08e013511156148d657600080fd5b6148e68e60c08f01358f01613cc3565b909650945060e08d01358110156148fc57600080fd5b5061490d8d60e08e01358e01613cc3565b90935091506149208d6101008e01614304565b90509295989b509295989b9093969950565b60006020828403121561494457600080fd5b81356001600160401b0381111561495a57600080fd5b61496684828501613fd8565b949350505050565b602081526000612cfd60208301846145a6565b60006101208a835280602084015261499b8184018b613dc7565b905082810360408401526149af818a613dc7565b905082810360608401526149c38189613dc7565b875160ff1660808501526001600160a01b03871660a085015283810360c085015290506149f08186613dc7565b845160ff1660e085015260208501516101008501529150614a0e9050565b9998505050505050505050565b8183823760009101908152919050565b600181811c90821680614a3f57607f821691505b602082108114156142fe57634e487b7160e01b600052602260045260246000fd5b60208082526023908201527f4d756c7469506f72746572733a20706f72746572206e6f7420726567697374656040820152621c995960ea1b606082015260800190565b634e487b7160e01b600052601160045260246000fd5b60008219821115614acc57614acc614aa3565b500190565b60208082526023908201527f4d756c7469506f7274657243726f7373436861696e3a206964206e6f74206d616040820152620e8c6d60eb1b606082015260800190565b6020808252603d908201527f4d756c7469506f7274657243726f7373436861696e3a206d657373616765206f60408201527f66207468697320696420686173206265656e2061676772656761746564000000606082015260800190565b600082821015614b8357614b83614aa3565b500390565b634e487b7160e01b600052603260045260246000fd5b60208082526027908201527f4d756c7469506f7274657243726f7373436861696e3a206475706c69636174656040820152660818dbdb5b5a5d60ca1b606082015260800190565b6000600019821415614bf957614bf9614aa3565b5060010190565b6020808252818101527f4f776e61626c653a2063616c6c6572206973206e6f7420746865206f776e6572604082015260600190565b60008251614c47818460208701613d97565b9190910192915050565b60e081526000614c6460e083018a613dc7565b8281036020840152614c76818a613dc7565b885160ff1660408501526001600160a01b0388811660608601528482036080860152909150614ca58288613dc7565b915083820360a0850152614cb98287613dc7565b925080851660c0850152505098975050505050505050565b8135614cdc8161414b565b815460ff191660ff8216178255505050565b8135614cf98161414b565b815460ff191660ff821617825550602082013560018201555050565b6000808335601e19843603018112614d2c57600080fd5b8301803591506001600160401b03821115614d4657600080fd5b602001915036819003821315613d0457600080fd5b634e487b7160e01b600052603160045260246000fd5b600060208284031215614d8357600080fd5b612cfd838361415a565b600060408284031215614d9f57600080fd5b612cfd8383614189565b81835281816020850137506000828201602090810191909152601f909101601f19169091010190565b60008154614ddf81614a2b565b808552602060018381168015614dfc5760018114614e1057614e3e565b60ff19851688840152604088019550614e3e565b866000528260002060005b85811015614e365781548a8201860152908301908401614e1b565b890184019650505b505050505092915050565b606081526000614e5d606083018688614da9565b8281036020840152614e6f8186614dd2565b90508281036040840152614e838185614dd2565b979650505050505050565b6000808354614e9c81614a2b565b60018281168015614eb45760018114614ec557614ef4565b60ff19841687528287019450614ef4565b8760005260208060002060005b85811015614eeb5781548a820152908401908201614ed2565b50505082870194505b50929695505050505050565b602081526000614966602083018486614da9565b600060208284031215614f2657600080fd5b5051919050565b6000604080830181845280865480835260609250828601915060058382821b8801018960005260208060002060005b8581101561507357605f198b85030187528884528154898501526101808089860152614f8f6101c0860160018501614dd2565b603f1980878303016080880152614fa98260028701614dd2565b9150808783030160a0880152614fc28260038701614dd2565b600486015460ff1660c0890152888601546001600160a01b031660e089015287810382016101008901529150614ffb8260068701614dd2565b91508087830301610120880152506150168160078601614dd2565b600885015460ff9081166101408901526009860154610160890152600a8601541615159287019290925250600b8301546101a0860152600c8301546001600160a01b03169484019490945295820195600d90910190600101614f5c565b5050819750615089818a018b63ffffffff169052565b505050505050509392505050565b600082601f8301126150a857600080fd5b81516150b6613ff782613fb1565b8181528460208386010111156150cb57600080fd5b614966826020830160208701613d97565b6000602082840312156150ee57600080fd5b6150f6613f14565b905081516141818161414b565b8051613ef981613ed9565b60006040828403121561512057600080fd5b615128613f3c565b905081516151358161414b565b808252506020820151602082015292915050565b80518015158114613ef957600080fd5b60006020828403121561516b57600080fd5b81516001600160401b038082111561518257600080fd5b818401915084601f83011261519657600080fd5b8151818111156151a8576151a8613efe565b6151b760208260051b01613f81565b8082825260208201915060208360051b8601019250878311156151d957600080fd5b602085015b83811015615390578051858111156151f557600080fd5b8601601f196040828c038201121561520c57600080fd5b615214613f3c565b60208301518881111561522657600080fd5b8301610180818e038401121561523b57600080fd5b615243613f5e565b92506020810151835260408101518981111561525e57600080fd5b61526d8e602083850101615097565b60208501525060608101518981111561528557600080fd5b6152948e602083850101615097565b6040850152506080810151898111156152ac57600080fd5b6152bb8e602083850101615097565b6060850152506152ce8d60a083016150dc565b60808401526152df60c08201615103565b60a084015260e0810151898111156152f657600080fd5b6153058e602083850101615097565b60c0850152506101008101518981111561531e57600080fd5b61532d8e602083850101615097565b60e0850152506153418d610120830161510e565b6101008401526153546101608201615149565b610120840152610180015161014083015281815261537460408401615103565b60208201528086525050506020830192506020810190506151de565b5097965050505050505056fea2646970667358221220ac398959e81386f59208d0f33fbfee08bd1c661457aa57d43396affe3450315d64736f6c634300080a0033",
  "immutableReferences": {},
  "source": "// SPDX-License-Identifier: MIT\npragma solidity >=0.8.0 <0.9.0;\n\nimport \"./MultiPorterCrossChain.sol\";\nimport \"../interfaces/ITwoPhaseCommitCrossChain.sol\";\n\ncontract TwoPhaseCommitCrossChain is ITwoPhaseCommitCrossChain, MultiPorterCrossChain {\n    enum StageStatus {\n        None,\n        First,\n        Second,\n        Done\n    }\n\n    struct HiddenMessage {\n        uint256 id;\n        string fromChain;\n        bytes32 hashData;\n        address porter;\n    }\n\n    struct FirstStageMessage {\n        HiddenMessage[] messages;\n        StageStatus stage;\n    }\n\n    mapping(string => mapping(uint256 => FirstStageMessage)) internal hiddenMessageTable;\n\n    constructor(string memory _chainName) MultiPorterCrossChain(_chainName) {\n    }\n\n    function receiveHiddenMessage(string calldata _fromChain, uint _id, bytes32 _hash) override external onlyPorter {\n        cachedReceivedMessage[][] storage cachedChainMessage = cachedReceivedMessageTable[_fromChain];\n        require(_id <= cachedChainMessage.length + 1, \"TwoPhaseCommitCrossChain: id not match\");\n\n        ReceivedMessage[] storage receivedChainMessage = receivedMessageTable[_fromChain];\n        require(_id >= receivedChainMessage.length + 1, \"TwoPhaseCommitCrossChain: message of this id has been aggregated\");\n        \n        mapping(uint256 => FirstStageMessage) storage chainMessage = hiddenMessageTable[_fromChain];\n        FirstStageMessage storage firstStageMessage = chainMessage[_id];\n\n        if (firstStageMessage.stage == StageStatus.None) {\n            firstStageMessage.stage = StageStatus.First;\n        }\n        require(firstStageMessage.stage == StageStatus.First, \"It is not the first stage\");\n\n        // check duplicate commit\n        for (uint i = 0; i < firstStageMessage.messages.length; i++) {\n            if (firstStageMessage.messages[i].porter == msg.sender) {\n                revert(\"TwoPhaseCommitCrossChain: duplicate commit\");\n            }\n        }\n        // add message\n        HiddenMessage storage m = firstStageMessage.messages.push();\n        m.id = _id;\n        m.fromChain = _fromChain;\n        m.hashData = _hash;\n        m.porter = msg.sender;\n\n        // check if trigger second stage commit\n        if (firstStageMessage.messages.length == required) {\n            firstStageMessage.stage = StageStatus.Second;\n            // clear received messages, currently not punish\n            cachedReceivedMessage[] storage cachedMessages;\n            if (_id < cachedChainMessage.length + 1) {\n                delete chainMessage[_id - 1];\n            }\n        }\n    }\n\n    function revealMessage(string memory _fromChain, uint256 _id, string memory _sender, string memory _signer,\n        address _to, SQOS memory _sqos, string memory _action, bytes memory _data, Session memory _session) override external {\n        FirstStageMessage storage firstStageMessage = hiddenMessageTable[_fromChain][_id];\n        require(firstStageMessage.stage == StageStatus.Second, \"It is not the second stage\");\n\n        // if sender finish the first stage\n        bool finished = false;\n        HiddenMessage storage m = firstStageMessage.messages[0];\n        for (uint i = 0; i < firstStageMessage.messages.length; i++) {\n            if (firstStageMessage.messages[i].porter == msg.sender) {\n                m = firstStageMessage.messages[i];\n                finished = true;\n            }\n        }\n        require(finished, \"Porter did not finish the first stage\");\n\n        // hash verify\n        bytes32 h = keccak256(abi.encode(_sender, _signer, _sqos, _to, _action, _data, msg.sender));\n        \n        if (h == m.hashData) {\n            // verify successfully\n            _receivePorterMessage(_fromChain, _id, _sender, _signer, _to, _sqos, _action, _data, _session);\n        }\n\n        ReceivedMessage[] storage receivedChainMessage = receivedMessageTable[_fromChain];\n        if (receivedMessageTable[_fromChain].length == _id) {\n            // aggregated\n            firstStageMessage.stage = StageStatus.Done;\n        }\n    }\n\n    function receiveMessage(string memory _fromChain, uint256 _id, string memory _sender, string memory _signer, address _to,\n            SQOS calldata _sqos, string calldata _action, bytes calldata _data, Session calldata _session) virtual override external onlyPorter {\n        mapping(uint256 => FirstStageMessage) storage chainMessage = hiddenMessageTable[_fromChain];\n        FirstStageMessage storage firstStageMessage = chainMessage[_id];\n        require(firstStageMessage.stage != StageStatus.Second, \"It is the second stage\");\n        _receivePorterMessage(_fromChain, _id, _sender, _signer, _to, _sqos, _action, _data, _session);\n    }\n\n    function getFirstStageMessage(string calldata _fromChain, uint256 _id) view external returns (FirstStageMessage memory) {\n        return hiddenMessageTable[_fromChain][_id];\n    }\n}",
  "sourcePath": "/home/george/program/dante/dante-cross-chain/avalanche/contracts/crossChain/TwoPhaseCommitCrossChain.sol",
  "compiler": {
    "name": "solc",
    "version": "0.8.10+commit.fc410830.Emscripten.clang"
  },
  "schemaVersion": "3.4.6",
  "updatedAt": "2022-06-21T06:13:21.418Z",
  "networkType": "ethereum",
  "devdoc": {
    "kind": "dev",
    "methods": {
      "abandonMessage(string,uint256,uint256)": {
        "details": "See ICrossChain."
      },
      "changePortersAndRequirement(address[],uint256)": {
        "details": "Changes porters and requirement."
      },
      "executeMessage(string,uint256)": {
        "details": "See ICrossChain."
      },
      "getCurrentMessage()": {
        "details": "See ICrossChain."
      },
      "getReceivedMessage(string,uint256)": {
        "details": "See ICrossChain."
      },
      "getReceivedMessageNumber(string)": {
        "details": "See ICrossChain."
      },
      "getSentMessage(string,uint256)": {
        "details": "See ICrossChain."
      },
      "getSentMessageNumber(string)": {
        "details": "See ICrossChain."
      },
      "owner()": {
        "details": "Returns the address of the current owner."
      },
      "receiveMessage(string,uint256,string,string,address,(uint8),string,bytes,(uint8,uint256))": {
        "details": "See ICrossChain."
      },
      "registerInterface(string,string)": {
        "details": "Registers external callable interface information."
      },
      "renounceOwnership()": {
        "details": "Leaves the contract without owner. It will not be possible to call `onlyOwner` functions anymore. Can only be called by the current owner. NOTE: Renouncing ownership will leave the contract without an owner, thereby removing any functionality that is only available to the owner."
      },
      "sendMessage(string,string,string,(uint8),bytes,(uint8,uint256))": {
        "details": "See ICrossChain."
      },
      "setTokenContract(address)": {
        "details": "See ICrossChain."
      },
      "setVerifyContract(address)": {
        "details": "Sets address of MessageVerify contract."
      },
      "transferOwnership(address)": {
        "details": "Transfers ownership of the contract to a new account (`newOwner`). Can only be called by the current owner."
      }
    },
    "version": 1
  },
  "userdoc": {
    "kind": "user",
    "methods": {},
    "version": 1
  }
}