{
  "contracts/Market.sol": {
    "Market": {
      "abi": [
        {
          "inputs": [],
          "stateMutability": "payable",
          "type": "constructor"
        },
        {
          "anonymous": false,
          "inputs": [
            {
              "indexed": false,
              "internalType": "string",
              "name": "message",
              "type": "string"
            },
            {
              "indexed": false,
              "internalType": "uint256",
              "name": "val",
              "type": "uint256"
            }
          ],
          "name": "Log",
          "type": "event"
        },
        {
          "inputs": [
            {
              "internalType": "uint256[]",
              "name": "_ids",
              "type": "uint256[]"
            },
            {
              "internalType": "uint256",
              "name": "_colorNum",
              "type": "uint256"
            }
          ],
          "name": "addWithArr",
          "outputs": [],
          "stateMutability": "payable",
          "type": "function"
        },
        {
          "inputs": [
            {
              "internalType": "uint256[]",
              "name": "_ids",
              "type": "uint256[]"
            },
            {
              "internalType": "uint256",
              "name": "_colorNum",
              "type": "uint256"
            }
          ],
          "name": "buyBlocks",
          "outputs": [],
          "stateMutability": "payable",
          "type": "function"
        },
        {
          "inputs": [
            {
              "internalType": "address",
              "name": "_address",
              "type": "address"
            }
          ],
          "name": "buyBlocksFromAnAddress",
          "outputs": [],
          "stateMutability": "payable",
          "type": "function"
        },
        {
          "inputs": [
            {
              "internalType": "uint256",
              "name": "_id",
              "type": "uint256"
            },
            {
              "internalType": "uint256",
              "name": "_colorNum",
              "type": "uint256"
            }
          ],
          "name": "changeColorNum",
          "outputs": [],
          "stateMutability": "nonpayable",
          "type": "function"
        },
        {
          "inputs": [
            {
              "internalType": "uint256[]",
              "name": "_ids",
              "type": "uint256[]"
            },
            {
              "internalType": "uint256",
              "name": "_colorNum",
              "type": "uint256"
            }
          ],
          "name": "changeColorNumWithArr",
          "outputs": [],
          "stateMutability": "nonpayable",
          "type": "function"
        },
        {
          "inputs": [],
          "name": "ex",
          "outputs": [],
          "stateMutability": "nonpayable",
          "type": "function"
        },
        {
          "inputs": [
            {
              "internalType": "uint256",
              "name": "_id",
              "type": "uint256"
            }
          ],
          "name": "getBasicPriceById",
          "outputs": [
            {
              "internalType": "uint256",
              "name": "",
              "type": "uint256"
            }
          ],
          "stateMutability": "view",
          "type": "function"
        },
        {
          "inputs": [],
          "name": "getBlocks",
          "outputs": [
            {
              "components": [
                {
                  "internalType": "uint256",
                  "name": "id",
                  "type": "uint256"
                },
                {
                  "internalType": "uint256",
                  "name": "colorNum",
                  "type": "uint256"
                },
                {
                  "internalType": "address payable",
                  "name": "blockOwner",
                  "type": "address"
                },
                {
                  "internalType": "address",
                  "name": "referrer",
                  "type": "address"
                },
                {
                  "internalType": "uint256",
                  "name": "basicPrice",
                  "type": "uint256"
                },
                {
                  "internalType": "uint256",
                  "name": "priceRate",
                  "type": "uint256"
                }
              ],
              "internalType": "struct Market.Block[]",
              "name": "",
              "type": "tuple[]"
            }
          ],
          "stateMutability": "view",
          "type": "function"
        },
        {
          "inputs": [
            {
              "internalType": "uint256",
              "name": "_id",
              "type": "uint256"
            }
          ],
          "name": "getColorNumById",
          "outputs": [
            {
              "internalType": "uint256",
              "name": "",
              "type": "uint256"
            }
          ],
          "stateMutability": "view",
          "type": "function"
        },
        {
          "inputs": [
            {
              "internalType": "address",
              "name": "_address",
              "type": "address"
            }
          ],
          "name": "getHowManyBlocksReferrerHas",
          "outputs": [
            {
              "internalType": "uint256",
              "name": "",
              "type": "uint256"
            }
          ],
          "stateMutability": "view",
          "type": "function"
        },
        {
          "inputs": [
            {
              "internalType": "address",
              "name": "_address",
              "type": "address"
            }
          ],
          "name": "getLock",
          "outputs": [
            {
              "internalType": "bool",
              "name": "_bool",
              "type": "bool"
            }
          ],
          "stateMutability": "view",
          "type": "function"
        },
        {
          "inputs": [
            {
              "internalType": "address",
              "name": "_address",
              "type": "address"
            }
          ],
          "name": "getOwnedQtt",
          "outputs": [
            {
              "internalType": "uint256",
              "name": "_ownedQtt",
              "type": "uint256"
            }
          ],
          "stateMutability": "view",
          "type": "function"
        },
        {
          "inputs": [
            {
              "internalType": "uint256",
              "name": "_id",
              "type": "uint256"
            }
          ],
          "name": "getOwnerById",
          "outputs": [
            {
              "internalType": "address",
              "name": "",
              "type": "address"
            }
          ],
          "stateMutability": "view",
          "type": "function"
        },
        {
          "inputs": [
            {
              "internalType": "uint256",
              "name": "_id",
              "type": "uint256"
            }
          ],
          "name": "getPriceById",
          "outputs": [
            {
              "internalType": "uint256",
              "name": "",
              "type": "uint256"
            }
          ],
          "stateMutability": "view",
          "type": "function"
        },
        {
          "inputs": [
            {
              "internalType": "uint256",
              "name": "_id",
              "type": "uint256"
            }
          ],
          "name": "getPriceRateById",
          "outputs": [
            {
              "internalType": "uint256",
              "name": "",
              "type": "uint256"
            }
          ],
          "stateMutability": "view",
          "type": "function"
        },
        {
          "inputs": [],
          "name": "getReferrerNeedAmount",
          "outputs": [
            {
              "internalType": "uint256",
              "name": "",
              "type": "uint256"
            }
          ],
          "stateMutability": "view",
          "type": "function"
        },
        {
          "inputs": [],
          "name": "getReferrerOpen",
          "outputs": [
            {
              "internalType": "bool",
              "name": "",
              "type": "bool"
            }
          ],
          "stateMutability": "view",
          "type": "function"
        },
        {
          "inputs": [],
          "name": "getReferrerRewardBuy",
          "outputs": [
            {
              "internalType": "uint256",
              "name": "",
              "type": "uint256"
            }
          ],
          "stateMutability": "view",
          "type": "function"
        },
        {
          "inputs": [],
          "name": "getReferrerRewardCreate",
          "outputs": [
            {
              "internalType": "uint256",
              "name": "",
              "type": "uint256"
            }
          ],
          "stateMutability": "view",
          "type": "function"
        },
        {
          "inputs": [
            {
              "internalType": "address",
              "name": "_address",
              "type": "address"
            }
          ],
          "name": "getUser2referrer",
          "outputs": [
            {
              "internalType": "address",
              "name": "",
              "type": "address"
            }
          ],
          "stateMutability": "view",
          "type": "function"
        },
        {
          "inputs": [
            {
              "internalType": "uint256",
              "name": "_id",
              "type": "uint256"
            }
          ],
          "name": "haveId",
          "outputs": [
            {
              "internalType": "bool",
              "name": "",
              "type": "bool"
            }
          ],
          "stateMutability": "view",
          "type": "function"
        },
        {
          "inputs": [
            {
              "internalType": "uint256[]",
              "name": "_ids",
              "type": "uint256[]"
            }
          ],
          "name": "idOutRange",
          "outputs": [
            {
              "internalType": "bool",
              "name": "",
              "type": "bool"
            }
          ],
          "stateMutability": "view",
          "type": "function"
        },
        {
          "inputs": [],
          "name": "owner",
          "outputs": [
            {
              "internalType": "address",
              "name": "",
              "type": "address"
            }
          ],
          "stateMutability": "view",
          "type": "function"
        },
        {
          "inputs": [
            {
              "internalType": "uint256",
              "name": "_addRate",
              "type": "uint256"
            }
          ],
          "name": "setAddRate",
          "outputs": [],
          "stateMutability": "nonpayable",
          "type": "function"
        },
        {
          "inputs": [
            {
              "internalType": "uint256",
              "name": "_fee",
              "type": "uint256"
            }
          ],
          "name": "setFee",
          "outputs": [],
          "stateMutability": "nonpayable",
          "type": "function"
        },
        {
          "inputs": [
            {
              "internalType": "uint256",
              "name": "_lockLimit",
              "type": "uint256"
            }
          ],
          "name": "setLimit",
          "outputs": [],
          "stateMutability": "nonpayable",
          "type": "function"
        },
        {
          "inputs": [],
          "name": "setLockFalse",
          "outputs": [],
          "stateMutability": "nonpayable",
          "type": "function"
        },
        {
          "inputs": [],
          "name": "setLockTrue",
          "outputs": [],
          "stateMutability": "nonpayable",
          "type": "function"
        },
        {
          "inputs": [
            {
              "internalType": "uint256",
              "name": "_maxId",
              "type": "uint256"
            }
          ],
          "name": "setMaxId",
          "outputs": [],
          "stateMutability": "nonpayable",
          "type": "function"
        },
        {
          "inputs": [
            {
              "internalType": "uint256",
              "name": "_priceRate",
              "type": "uint256"
            }
          ],
          "name": "setPriceRateAll",
          "outputs": [],
          "stateMutability": "nonpayable",
          "type": "function"
        },
        {
          "inputs": [
            {
              "internalType": "uint256",
              "name": "_priceRate",
              "type": "uint256"
            },
            {
              "internalType": "uint256[]",
              "name": "_ids",
              "type": "uint256[]"
            }
          ],
          "name": "setPriceRateArr",
          "outputs": [],
          "stateMutability": "nonpayable",
          "type": "function"
        },
        {
          "inputs": [
            {
              "internalType": "uint256",
              "name": "_priceRateMax",
              "type": "uint256"
            }
          ],
          "name": "setPriceRateMax",
          "outputs": [],
          "stateMutability": "nonpayable",
          "type": "function"
        },
        {
          "inputs": [
            {
              "internalType": "uint256",
              "name": "_priceRateMin",
              "type": "uint256"
            }
          ],
          "name": "setPriceRateMin",
          "outputs": [],
          "stateMutability": "nonpayable",
          "type": "function"
        },
        {
          "inputs": [
            {
              "internalType": "uint256",
              "name": "_uint",
              "type": "uint256"
            }
          ],
          "name": "setReferrerNeedAmount",
          "outputs": [],
          "stateMutability": "nonpayable",
          "type": "function"
        },
        {
          "inputs": [
            {
              "internalType": "bool",
              "name": "_bool",
              "type": "bool"
            }
          ],
          "name": "setReferrerOpen",
          "outputs": [],
          "stateMutability": "nonpayable",
          "type": "function"
        },
        {
          "inputs": [
            {
              "internalType": "uint256",
              "name": "_uint",
              "type": "uint256"
            }
          ],
          "name": "setReferrerRewardBuy",
          "outputs": [],
          "stateMutability": "nonpayable",
          "type": "function"
        },
        {
          "inputs": [
            {
              "internalType": "uint256",
              "name": "_uint",
              "type": "uint256"
            }
          ],
          "name": "setReferrerRewardCreate",
          "outputs": [],
          "stateMutability": "nonpayable",
          "type": "function"
        },
        {
          "inputs": [
            {
              "internalType": "address",
              "name": "_address",
              "type": "address"
            }
          ],
          "name": "setUser2referrer",
          "outputs": [],
          "stateMutability": "nonpayable",
          "type": "function"
        },
        {
          "inputs": [
            {
              "internalType": "uint256[]",
              "name": "_ids",
              "type": "uint256[]"
            },
            {
              "internalType": "address payable",
              "name": "_receiver",
              "type": "address"
            }
          ],
          "name": "transferWithArr",
          "outputs": [],
          "stateMutability": "nonpayable",
          "type": "function"
        },
        {
          "inputs": [],
          "name": "whetherUseReferrer",
          "outputs": [
            {
              "internalType": "bool",
              "name": "",
              "type": "bool"
            }
          ],
          "stateMutability": "view",
          "type": "function"
        },
        {
          "inputs": [
            {
              "internalType": "address",
              "name": "_address",
              "type": "address"
            }
          ],
          "name": "whetherUseReferrerWithAddress",
          "outputs": [
            {
              "internalType": "bool",
              "name": "",
              "type": "bool"
            }
          ],
          "stateMutability": "view",
          "type": "function"
        }
      ],
      "evm": {
        "bytecode": {
          "linkReferences": {},
          "object": "61014060405260006080819052600160a081905260c082905260e082905261010081905261012081905260148054808301825590835260069081027fce6d7b5282bd9a3661ae061feed1dbda4e52ab073b1f9285be6e155d9c38d4ec8101939093557fce6d7b5282bd9a3661ae061feed1dbda4e52ab073b1f9285be6e155d9c38d4ed83018290557fce6d7b5282bd9a3661ae061feed1dbda4e52ab073b1f9285be6e155d9c38d4ee830180546001600160a01b03199081169091557fce6d7b5282bd9a3661ae061feed1dbda4e52ab073b1f9285be6e155d9c38d4ef84018054821690557fce6d7b5282bd9a3661ae061feed1dbda4e52ab073b1f9285be6e155d9c38d4f084018390557fce6d7b5282bd9a3661ae061feed1dbda4e52ab073b1f9285be6e155d9c38d4f19093018290556103e86011556127106012556107d06010819055600f8054909416331790935560c8600b819055605060095561012c600a556003805460ff1916909317835560049290925560059290925590556101f560075560336008556133d6806101986000396000f3fe6080604052600436106102465760003560e01c806394b26a5e11610139578063c97ae726116100b6578063d4215b061161007a578063d4215b0614610706578063da74514a14610726578063e1c3454914610746578063ec5d11971461075b578063ed4f91ce14610787578063ff48b597146107a757600080fd5b8063c97ae72614610675578063cb98a4331461068a578063d1c1ca9d146106b3578063d1cdc44f146106d3578063d3f88782146106e657600080fd5b8063b523ec45116100fd578063b523ec45146105d5578063b75366e1146105f5578063b9256b1b14610615578063beb694d214610635578063c1e114021461065557600080fd5b806394b26a5e1461050b578063adf8e6661461052b578063ae1eed801461054b578063af14c7ad1461056b578063b3b961c9146105b557600080fd5b80634f5b7dc2116101c757806376bf001c1161018b57806376bf001c1461043a5780637c3592a8146104725780638a4892f9146104ab5780638acd001f146104cb5780638da5cb5b146104eb57600080fd5b80634f5b7dc21461038c5780635f3f75e5146103ae578063695e102c146103ce57806369fe0e2d146103e15780636b9db4e61461040157600080fd5b8063308b73631161020e578063308b7363146102f5578063386b66b2146103245780633caad332146103445780634a5dfc06146103595780634a6558bb1461037957600080fd5b806309e9e9031461024b5780630c22c6551461026d57806316bd86461461029157806322a91707146102b157806327ea6f2b146102d5575b600080fd5b34801561025757600080fd5b5061026b6102663660046131fb565b6107bc565b005b34801561027957600080fd5b506005545b6040519081526020015b60405180910390f35b34801561029d57600080fd5b5061026b6102ac36600461319e565b6108cd565b3480156102bd57600080fd5b5060035460ff165b6040519015158152602001610288565b3480156102e157600080fd5b5061026b6102f036600461319e565b610944565b34801561030157600080fd5b506102c561031036600461319e565b600090815260136020526040902054151590565b34801561033057600080fd5b5061027e61033f36600461319e565b610973565b34801561035057600080fd5b5060065461027e565b34801561036557600080fd5b5061026b6103743660046131b6565b6109be565b61026b610387366004613075565b610aaa565b34801561039857600080fd5b506103a16110ad565b604051610288919061321c565b3480156103ba57600080fd5b5061026b6103c93660046130d3565b611150565b61026b6103dc366004613123565b611391565b3480156103ed57600080fd5b5061026b6103fc36600461319e565b611e2e565b34801561040d57600080fd5b506102c561041c366004613075565b6001600160a01b03166000908152600e602052604090205460ff1690565b34801561044657600080fd5b5061045a61045536600461319e565b611ea4565b6040516001600160a01b039091168152602001610288565b34801561047e57600080fd5b5061045a61048d366004613075565b6001600160a01b039081166000908152602081905260409020541690565b3480156104b757600080fd5b506102c56104c6366004613075565b611ef9565b3480156104d757600080fd5b5061026b6104e636600461319e565b611f39565b3480156104f757600080fd5b50600f5461045a906001600160a01b031681565b34801561051757600080fd5b5061026b610526366004613166565b61213f565b34801561053757600080fd5b5061026b61054636600461319e565b61217c565b34801561055757600080fd5b5061027e610566366004613075565b6121ab565b34801561057757600080fd5b5061026b610586366004613075565b33600090815260208190526040902080546001600160a01b0319166001600160a01b0392909216919091179055565b3480156105c157600080fd5b5061027e6105d036600461319e565b61222d565b3480156105e157600080fd5b5061026b6105f036600461319e565b612278565b34801561060157600080fd5b5061027e610610366004613075565b6122a7565b34801561062157600080fd5b5061027e61063036600461319e565b61232c565b34801561064157600080fd5b5061026b61065036600461319e565b6123c0565b34801561066157600080fd5b5061026b61067036600461319e565b6123ef565b34801561068157600080fd5b506102c561241e565b34801561069657600080fd5b5061026b336000908152600e60205260409020805460ff19169055565b3480156106bf57600080fd5b5061026b6106ce36600461319e565b61247b565b61026b6106e1366004613123565b6124f1565b3480156106f257600080fd5b5061026b61070136600461319e565b612cb7565b34801561071257600080fd5b506102c5610721366004613098565b612ce6565b34801561073257600080fd5b5061027e61074136600461319e565b612d45565b34801561075257600080fd5b5061026b612d90565b34801561076757600080fd5b5061026b336000908152600e60205260409020805460ff19166001179055565b34801561079357600080fd5b5061026b6107a2366004613123565b612ddf565b3480156107b357600080fd5b5060045461027e565b8060001080156107cc5750600481105b6108155760405162461bcd60e51b8152602060048201526015602482015274636f6c6f724e756d206f7574206f662072616e676560581b60448201526064015b60405180910390fd5b60008281526013602052604090205460148054909190811061084757634e487b7160e01b600052603260045260246000fd5b60009182526020909120600690910201600201546001600160a01b031633146108825760405162461bcd60e51b815260040161080c906132a2565b6000828152601360205260409020546014805483929081106108b457634e487b7160e01b600052603260045260246000fd5b9060005260206000209060060201600101819055505050565b600f546001600160a01b031633146108f75760405162461bcd60e51b815260040161080c906132a2565b620f424081111561093f5760405162461bcd60e51b81526020600482015260126024820152716d61784964206f7574206f662072616e676560701b604482015260640161080c565b601055565b600f546001600160a01b0316331461096e5760405162461bcd60e51b815260040161080c906132a2565b600b55565b6000818152601360205260408120546014805490919081106109a557634e487b7160e01b600052603260045260246000fd5b9060005260206000209060060201600101549050919050565b60095482101580156109d25750600a548211155b610a175760405162461bcd60e51b8152602060048201526016602482015275707269636552617465206f7574206f662072616e676560501b604482015260640161080c565b60005b8151811015610aa55782601460136000858581518110610a4a57634e487b7160e01b600052603260045260246000fd5b602002602001015181526020019081526020016000205481548110610a7f57634e487b7160e01b600052603260045260246000fd5b600091825260209091206005600690920201015580610a9d81613333565b915050610a1a565b505050565b336001600160a01b0382161415610b035760405162461bcd60e51b815260206004820152601e60248201527f796f752063616e27742062757920796f7572206f776e20626c6f636b73210000604482015260640161080c565b600d8054610b1391600c91612f72565b506000805b601454811015610cc257826001600160a01b031660148281548110610b4d57634e487b7160e01b600052603260045260246000fd5b60009182526020909120600260069092020101546001600160a01b03161415610bb857600c60148281548110610b9357634e487b7160e01b600052603260045260246000fd5b6000918252602080832060069092029091015483546001810185559383529120909101555b601460136000600c8481548110610bdf57634e487b7160e01b600052603260045260246000fd5b906000526020600020015481526020019081526020016000205481548110610c1757634e487b7160e01b600052603260045260246000fd5b906000526020600020906006020160050154601460136000600c8581548110610c5057634e487b7160e01b600052603260045260246000fd5b906000526020600020015481526020019081526020016000205481548110610c8857634e487b7160e01b600052603260045260246000fd5b906000526020600020906006020160040154610ca491906132fd565b610cae90836132c5565b915080610cba81613333565b915050610b18565b50816001600160a01b03166108fc601154612710610ce0919061331c565b610cef846402540be4006132fd565b610cf991906132fd565b6040518115909202916000818181858888f19350505050158015610d21573d6000803e3d6000fd5b50600f546006546011546001600160a01b03909216916108fc91610d449161331c565b610d53846402540be4006132fd565b610d5d91906132fd565b6040518115909202916000818181858888f19350505050158015610d85573d6000803e3d6000fd5b50336000908152602081905260409020546006546001600160a01b03909116906108fc90610db8846402540be4006132fd565b610dc291906132fd565b6040518115909202916000818181858888f19350505050158015610dea573d6000803e3d6000fd5b5060005b600c54811015610aa55733601460136000600c8581548110610e2057634e487b7160e01b600052603260045260246000fd5b906000526020600020015481526020019081526020016000205481548110610e5857634e487b7160e01b600052603260045260246000fd5b6000918252602080832060069290920290910160020180546001600160a01b0319166001600160a01b039485161790553382528190526040812054600c8054919093169260149260139290919086908110610ec357634e487b7160e01b600052603260045260246000fd5b906000526020600020015481526020019081526020016000205481548110610efb57634e487b7160e01b600052603260045260246000fd5b906000526020600020906006020160030160006101000a8154816001600160a01b0302191690836001600160a01b031602179055506064601460136000600c8581548110610f5957634e487b7160e01b600052603260045260246000fd5b906000526020600020015481526020019081526020016000205481548110610f9157634e487b7160e01b600052603260045260246000fd5b906000526020600020906006020160050154601460136000600c8681548110610fca57634e487b7160e01b600052603260045260246000fd5b90600052602060002001548152602001908152602001600020548154811061100257634e487b7160e01b600052603260045260246000fd5b90600052602060002090600602016004015461101e91906132fd565b61102891906132dd565b601460136000600c858154811061104f57634e487b7160e01b600052603260045260246000fd5b90600052602060002001548152602001908152602001600020548154811061108757634e487b7160e01b600052603260045260246000fd5b6000918252602090912060046006909202010155806110a581613333565b915050610dee565b60606014805480602002602001604051908101604052809291908181526020016000905b828210156111475760008481526020908190206040805160c08101825260068602909201805483526001808201548486015260028201546001600160a01b039081169385019390935260038201549092166060840152600481015460808401526005015460a083015290835290920191016110d1565b50505050905090565b60005b82518110156112435760146013600085848151811061118257634e487b7160e01b600052603260045260246000fd5b6020026020010151815260200190815260200160002054815481106111b757634e487b7160e01b600052603260045260246000fd5b60009182526020909120600690910201600201546001600160a01b031633146112315760405162461bcd60e51b815260206004820152602660248201527f6174206c65617374206f6e6520626c6f636b206973206e6f74206f776e656420604482015265627920796f7560d01b606482015260840161080c565b8061123b81613333565b915050611153565b5060005b8251811015610aa5578160146013600086858151811061127757634e487b7160e01b600052603260045260246000fd5b6020026020010151815260200190815260200160002054815481106112ac57634e487b7160e01b600052603260045260246000fd5b6000918252602080832060069290920290910160020180546001600160a01b0319166001600160a01b0394851617905584831682528190526040812054855192169160149160139187908690811061131457634e487b7160e01b600052603260045260246000fd5b60200260200101518152602001908152602001600020548154811061134957634e487b7160e01b600052603260045260246000fd5b906000526020600020906006020160030160006101000a8154816001600160a01b0302191690836001600160a01b03160217905550808061138990613333565b915050611247565b6000601460136000856000815181106113ba57634e487b7160e01b600052603260045260246000fd5b6020026020010151815260200190815260200160002054815481106113ef57634e487b7160e01b600052603260045260246000fd5b60009182526020909120600260069092020101546001600160a01b031690503381141561147d5760405162461bcd60e51b815260206004820152603660248201527f796f7520616c7265616479206f776e6564206174206c65617374206f6e65206f60448201527566207468652073656c65746374656420626c6f636b7360501b606482015260840161080c565b60005b835181101561158057816001600160a01b03166014601360008785815181106114b957634e487b7160e01b600052603260045260246000fd5b6020026020010151815260200190815260200160002054815481106114ee57634e487b7160e01b600052603260045260246000fd5b60009182526020909120600260069092020101546001600160a01b03161461156e5760405162461bcd60e51b815260206004820152602d60248201527f796f75206861766520746f2073656c65637420626c6f636b732077697468207460448201526c34329039b0b6b29037bbb732b960991b606482015260840161080c565b8061157881613333565b915050611480565b50600b5461158d826121ab565b11806115b257506001600160a01b0381166000908152600e602052604090205460ff16155b61163b5760405162461bcd60e51b815260206004820152604e60248201527f746865206f726967696e4f776e6572206c6f636b6564206974277320626c6f6360448201527f6b732c20796f75206861766520746f20627579206869732f68657220626c6f6360648201526d6b7320616c6c206174206f6e636560901b608482015260a40161080c565b6000805b845181101561174a5760146013600087848151811061166e57634e487b7160e01b600052603260045260246000fd5b6020026020010151815260200190815260200160002054815481106116a357634e487b7160e01b600052603260045260246000fd5b9060005260206000209060060201600501546014601360008885815181106116db57634e487b7160e01b600052603260045260246000fd5b60200260200101518152602001908152602001600020548154811061171057634e487b7160e01b600052603260045260246000fd5b90600052602060002090600602016004015461172c91906132fd565b61173690836132c5565b91508061174281613333565b91505061163f565b5061175361241e565b156119a2576108026001600160a01b031663a9059cbb8360115461271061177a919061331c565b61178785629896806132fd565b61179191906132fd565b6040516001600160e01b031960e085901b1681526001600160a01b0390921660048301526024820152604401602060405180830381600087803b1580156117d757600080fd5b505af11580156117eb573d6000803e3d6000fd5b505050506040513d601f19601f8201168201806040525081019061180f9190613182565b50336000908152602081905260409020546006546108029163a9059cbb916001600160a01b039091169061184685629896806132fd565b61185091906132fd565b6040516001600160e01b031960e085901b1681526001600160a01b0390921660048301526024820152604401602060405180830381600087803b15801561189657600080fd5b505af11580156118aa573d6000803e3d6000fd5b505050506040513d601f19601f820116820180604052508101906118ce9190613182565b50600f546006546008546011546108029363a9059cbb936001600160a01b039091169290916118fd919061331c565b611907919061331c565b61191485629896806132fd565b61191e91906132fd565b6040516001600160e01b031960e085901b1681526001600160a01b0390921660048301526024820152604401602060405180830381600087803b15801561196457600080fd5b505af1158015611978573d6000803e3d6000fd5b505050506040513d601f19601f8201168201806040525081019061199c9190613182565b50611b0d565b6108026001600160a01b031663a9059cbb836011546127106119c4919061331c565b6119d185629896806132fd565b6119db91906132fd565b6040516001600160e01b031960e085901b1681526001600160a01b0390921660048301526024820152604401602060405180830381600087803b158015611a2157600080fd5b505af1158015611a35573d6000803e3d6000fd5b505050506040513d601f19601f82011682018060405250810190611a599190613182565b50600f546011546108029163a9059cbb916001600160a01b0390911690611a8385629896806132fd565b611a8d91906132fd565b6040516001600160e01b031960e085901b1681526001600160a01b0390921660048301526024820152604401602060405180830381600087803b158015611ad357600080fd5b505af1158015611ae7573d6000803e3d6000fd5b505050506040513d601f19601f82011682018060405250810190611b0b9190613182565b505b60005b8451811015611e275733601460136000888581518110611b4057634e487b7160e01b600052603260045260246000fd5b602002602001015181526020019081526020016000205481548110611b7557634e487b7160e01b600052603260045260246000fd5b6000918252602080832060069290920290910160020180546001600160a01b0319166001600160a01b0394851617905533825281905260408120548751921691601491601391899086908110611bdb57634e487b7160e01b600052603260045260246000fd5b602002602001015181526020019081526020016000205481548110611c1057634e487b7160e01b600052603260045260246000fd5b906000526020600020906006020160030160006101000a8154816001600160a01b0302191690836001600160a01b0316021790555083601460136000888581518110611c6c57634e487b7160e01b600052603260045260246000fd5b602002602001015181526020019081526020016000205481548110611ca157634e487b7160e01b600052603260045260246000fd5b9060005260206000209060060201600101819055506064601460136000888581518110611cde57634e487b7160e01b600052603260045260246000fd5b602002602001015181526020019081526020016000205481548110611d1357634e487b7160e01b600052603260045260246000fd5b906000526020600020906006020160050154601460136000898681518110611d4b57634e487b7160e01b600052603260045260246000fd5b602002602001015181526020019081526020016000205481548110611d8057634e487b7160e01b600052603260045260246000fd5b906000526020600020906006020160040154611d9c91906132fd565b611da691906132dd565b601460136000888581518110611dcc57634e487b7160e01b600052603260045260246000fd5b602002602001015181526020019081526020016000205481548110611e0157634e487b7160e01b600052603260045260246000fd5b600091825260209091206004600690920201015580611e1f81613333565b915050611b10565b5050505050565b600f546001600160a01b03163314611e585760405162461bcd60e51b815260040161080c906132a2565b6127106011541115611e9f5760405162461bcd60e51b815260206004820152601060248201526f666565206f7574206f662072616e676560801b604482015260640161080c565b601155565b600081815260136020526040812054601480549091908110611ed657634e487b7160e01b600052603260045260246000fd5b60009182526020909120600260069092020101546001600160a01b031692915050565b60035460009060ff168015611f3357506004546001600160a01b03808416600090815260208190526040902054611f3091166122a7565b10155b92915050565b6009548110158015611f4d5750600a548111155b611f925760405162461bcd60e51b8152602060048201526016602482015275707269636552617465206f7574206f662072616e676560501b604482015260640161080c565b600d8054611fa291600c91612f72565b5060005b60145481101561205857336001600160a01b031660148281548110611fdb57634e487b7160e01b600052603260045260246000fd5b60009182526020909120600260069092020101546001600160a01b0316141561204657600c6014828154811061202157634e487b7160e01b600052603260045260246000fd5b6000918252602080832060069092029091015483546001810185559383529120909101555b8061205081613333565b915050611fa6565b50600c546120a85760405162461bcd60e51b815260206004820152601e60248201527f796f7520646f6e2774206f776e20616e79206f662074686520626c6f636b0000604482015260640161080c565b60005b600c5481101561213b5781601460136000600c85815481106120dd57634e487b7160e01b600052603260045260246000fd5b90600052602060002001548152602001908152602001600020548154811061211557634e487b7160e01b600052603260045260246000fd5b60009182526020909120600560069092020101558061213381613333565b9150506120ab565b5050565b600f546001600160a01b031633146121695760405162461bcd60e51b815260040161080c906132a2565b6003805460ff1916911515919091179055565b600f546001600160a01b031633146121a65760405162461bcd60e51b815260040161080c906132a2565b600555565b6000805b60145481101561222757826001600160a01b0316601482815481106121e457634e487b7160e01b600052603260045260246000fd5b60009182526020909120600260069092020101546001600160a01b03161415612215578161221181613333565b9250505b8061221f81613333565b9150506121af565b50919050565b60008181526013602052604081205460148054909190811061225f57634e487b7160e01b600052603260045260246000fd5b9060005260206000209060060201600401549050919050565b600f546001600160a01b031633146122a25760405162461bcd60e51b815260040161080c906132a2565b600955565b60008060015b60145481101561232557836001600160a01b0316601482815481106122e257634e487b7160e01b600052603260045260246000fd5b60009182526020909120600360069092020101546001600160a01b03161415612313576123106001836132c5565b91505b8061231d81613333565b9150506122ad565b5092915050565b60008181526013602052604081205460148054909190811061235e57634e487b7160e01b600052603260045260246000fd5b90600052602060002090600602016005015460146013600085815260200190815260200160002054815481106123a457634e487b7160e01b600052603260045260246000fd5b906000526020600020906006020160040154611f3391906132fd565b600f546001600160a01b031633146123ea5760405162461bcd60e51b815260040161080c906132a2565b600a55565b600f546001600160a01b031633146124195760405162461bcd60e51b815260040161080c906132a2565b600655565b336000908152602081905260408120546001600160a01b031615801590612447575060035460ff165b8015612476575060045433600090815260208190526040902054612473906001600160a01b03166122a7565b10155b905090565b600f546001600160a01b031633146124a55760405162461bcd60e51b815260040161080c906132a2565b6305f5e1008111156124ec5760405162461bcd60e51b815260206004820152601060248201526f666565206f7574206f662072616e676560801b604482015260640161080c565b601255565b6124fa82612ce6565b6125465760405162461bcd60e51b815260206004820152601c60248201527f6174206c65617374206f6e65206964206f7574206f662072616e676500000000604482015260640161080c565b607e8110801561255557508015155b6125995760405162461bcd60e51b8152602060048201526015602482015274636f6c6f724e756d206f7574206f662072616e676560581b604482015260640161080c565b6000805b8351811015612605576125e58482815181106125c957634e487b7160e01b600052603260045260246000fd5b6020026020010151600090815260136020526040902054151590565b156125f35760019150612605565b806125fd81613333565b91505061259d565b5080610aa55761261361241e565b156129da573360009081526020819052604090205460055484516108029263a9059cbb926001600160a01b03909116916126529064174876e8006132fd565b61265c91906132fd565b6040516001600160e01b031960e085901b1681526001600160a01b0390921660048301526024820152604401602060405180830381600087803b1580156126a257600080fd5b505af11580156126b6573d6000803e3d6000fd5b505050506040513d601f19601f820116820180604052508101906126da9190613182565b50600f546007546005546012546108029363a9059cbb936001600160a01b03909116929091612709919061331c565b612713919061331c565b86516127249064174876e8006132fd565b61272e91906132fd565b6040516001600160e01b031960e085901b1681526001600160a01b0390921660048301526024820152604401602060405180830381600087803b15801561277457600080fd5b505af1158015612788573d6000803e3d6000fd5b505050506040513d601f19601f820116820180604052508101906127ac9190613182565b5060005b83518110156129d4576127dc8482815181106125c957634e487b7160e01b600052603260045260246000fd5b6129c2576014805490506013600086848151811061280a57634e487b7160e01b600052603260045260246000fd5b602002602001015181526020019081526020016000208190555060006040518060c0016040528086848151811061285157634e487b7160e01b600052603260045260246000fd5b60209081029190910181015182528181018790523360408084018290526000918252818352808220546001600160a01b0390811660608087019190915260c8608080880191909152606460a09788015260148054600181018255955287517fce6d7b5282bd9a3661ae061feed1dbda4e52ab073b1f9285be6e155d9c38d4ec600690960295860155948701517fce6d7b5282bd9a3661ae061feed1dbda4e52ab073b1f9285be6e155d9c38d4ed850155918601517fce6d7b5282bd9a3661ae061feed1dbda4e52ab073b1f9285be6e155d9c38d4ee840180546001600160a01b0319908116928416929092179055918601517fce6d7b5282bd9a3661ae061feed1dbda4e52ab073b1f9285be6e155d9c38d4ef840180549093169116179055908301517fce6d7b5282bd9a3661ae061feed1dbda4e52ab073b1f9285be6e155d9c38d4f08201559101517fce6d7b5282bd9a3661ae061feed1dbda4e52ab073b1f9285be6e155d9c38d4f190910155505b806129cc81613333565b9150506127b0565b50505050565b600f5460125484516108029263a9059cbb926001600160a01b0390911691612a079064174876e8006132fd565b612a1191906132fd565b6040516001600160e01b031960e085901b1681526001600160a01b0390921660048301526024820152604401602060405180830381600087803b158015612a5757600080fd5b505af1158015612a6b573d6000803e3d6000fd5b505050506040513d601f19601f82011682018060405250810190612a8f9190613182565b5060005b83518110156129d457612abf8482815181106125c957634e487b7160e01b600052603260045260246000fd5b612ca55760148054905060136000868481518110612aed57634e487b7160e01b600052603260045260246000fd5b602002602001015181526020019081526020016000208190555060006040518060c00160405280868481518110612b3457634e487b7160e01b600052603260045260246000fd5b60209081029190910181015182528181018790523360408084018290526000918252818352808220546001600160a01b0390811660608087019190915260c8608080880191909152606460a09788015260148054600181018255955287517fce6d7b5282bd9a3661ae061feed1dbda4e52ab073b1f9285be6e155d9c38d4ec600690960295860155948701517fce6d7b5282bd9a3661ae061feed1dbda4e52ab073b1f9285be6e155d9c38d4ed850155918601517fce6d7b5282bd9a3661ae061feed1dbda4e52ab073b1f9285be6e155d9c38d4ee840180546001600160a01b0319908116928416929092179055918601517fce6d7b5282bd9a3661ae061feed1dbda4e52ab073b1f9285be6e155d9c38d4ef840180549093169116179055908301517fce6d7b5282bd9a3661ae061feed1dbda4e52ab073b1f9285be6e155d9c38d4f08201559101517fce6d7b5282bd9a3661ae061feed1dbda4e52ab073b1f9285be6e155d9c38d4f190910155505b80612caf81613333565b915050612a93565b600f546001600160a01b03163314612ce15760405162461bcd60e51b815260040161080c906132a2565b600455565b60008060005b835181101561232557601054848281518110612d1857634e487b7160e01b600052603260045260246000fd5b60200260200101511115612d2f5760009150612325565b6001915080612d3d81613333565b915050612cec565b600081815260136020526040812054601480549091908110612d7757634e487b7160e01b600052603260045260246000fd5b9060005260206000209060060201600501549050919050565b60408051818152600481830152631d195cdd60e21b606082015260fa602082015290517fdd970dd9b5bfe707922155b058a407655cb18288b807e2216442bca8ad83d6b59181900360800190a1565b60005b8251811015612ee357336001600160a01b0316601460136000868581518110612e1b57634e487b7160e01b600052603260045260246000fd5b602002602001015181526020019081526020016000205481548110612e5057634e487b7160e01b600052603260045260246000fd5b60009182526020909120600260069092020101546001600160a01b031614612ed15760405162461bcd60e51b815260206004820152602e60248201527f74686520626c6f636b7320796f752063686f6f736520617265206e6f7420616c60448201526d6c206f776e656420627920796f7560901b606482015260840161080c565b80612edb81613333565b915050612de2565b5060005b8251811015610aa55781601460136000868581518110612f1757634e487b7160e01b600052603260045260246000fd5b602002602001015181526020019081526020016000205481548110612f4c57634e487b7160e01b600052603260045260246000fd5b600091825260209091206001600690920201015580612f6a81613333565b915050612ee7565b828054828255906000526020600020908101928215612fb25760005260206000209182015b82811115612fb2578254825591600101919060010190612f97565b50612fbe929150612fc2565b5090565b5b80821115612fbe5760008155600101612fc3565b600082601f830112612fe7578081fd5b8135602067ffffffffffffffff8083111561300457613004613364565b8260051b604051601f19603f8301168101818110848211171561302957613029613364565b60405284815283810192508684018288018501891015613047578687fd5b8692505b8583101561306957803584529284019260019290920191840161304b565b50979650505050505050565b600060208284031215613086578081fd5b81356130918161337a565b9392505050565b6000602082840312156130a9578081fd5b813567ffffffffffffffff8111156130bf578182fd5b6130cb84828501612fd7565b949350505050565b600080604083850312156130e5578081fd5b823567ffffffffffffffff8111156130fb578182fd5b61310785828601612fd7565b92505060208301356131188161337a565b809150509250929050565b60008060408385031215613135578182fd5b823567ffffffffffffffff81111561314b578283fd5b61315785828601612fd7565b95602094909401359450505050565b600060208284031215613177578081fd5b813561309181613392565b600060208284031215613193578081fd5b815161309181613392565b6000602082840312156131af578081fd5b5035919050565b600080604083850312156131c8578182fd5b82359150602083013567ffffffffffffffff8111156131e5578182fd5b6131f185828601612fd7565b9150509250929050565b6000806040838503121561320d578182fd5b50508035926020909101359150565b602080825282518282018190526000919060409081850190868401855b82811015613295578151805185528681015187860152858101516001600160a01b0390811687870152606080830151909116908601526080808201519086015260a0908101519085015260c09093019290850190600101613239565b5091979650505050505050565b6020808252600990820152683737ba1037bbb732b960b91b604082015260600190565b600082198211156132d8576132d861334e565b500190565b6000826132f857634e487b7160e01b81526012600452602481fd5b500490565b60008160001904831182151516156133175761331761334e565b500290565b60008282101561332e5761332e61334e565b500390565b60006000198214156133475761334761334e565b5060010190565b634e487b7160e01b600052601160045260246000fd5b634e487b7160e01b600052604160045260246000fd5b6001600160a01b038116811461338f57600080fd5b50565b801515811461338f57600080fdfea2646970667358221220a5c07d4b98dcfee12c8630738faa71a9e71f0feff1b0418c0692fec6d47bee9964736f6c63430008040033",
          "opcodes": "PUSH2 0x140 PUSH1 0x40 MSTORE PUSH1 0x0 PUSH1 0x80 DUP2 SWAP1 MSTORE PUSH1 0x1 PUSH1 0xA0 DUP2 SWAP1 MSTORE PUSH1 0xC0 DUP3 SWAP1 MSTORE PUSH1 0xE0 DUP3 SWAP1 MSTORE PUSH2 0x100 DUP2 SWAP1 MSTORE PUSH2 0x120 DUP2 SWAP1 MSTORE PUSH1 0x14 DUP1 SLOAD DUP1 DUP4 ADD DUP3 SSTORE SWAP1 DUP4 MSTORE PUSH1 0x6 SWAP1 DUP2 MUL PUSH32 0xCE6D7B5282BD9A3661AE061FEED1DBDA4E52AB073B1F9285BE6E155D9C38D4EC DUP2 ADD SWAP4 SWAP1 SWAP4 SSTORE PUSH32 0xCE6D7B5282BD9A3661AE061FEED1DBDA4E52AB073B1F9285BE6E155D9C38D4ED DUP4 ADD DUP3 SWAP1 SSTORE PUSH32 0xCE6D7B5282BD9A3661AE061FEED1DBDA4E52AB073B1F9285BE6E155D9C38D4EE DUP4 ADD DUP1 SLOAD PUSH1 0x1 PUSH1 0x1 PUSH1 0xA0 SHL SUB NOT SWAP1 DUP2 AND SWAP1 SWAP2 SSTORE PUSH32 0xCE6D7B5282BD9A3661AE061FEED1DBDA4E52AB073B1F9285BE6E155D9C38D4EF DUP5 ADD DUP1 SLOAD DUP3 AND SWAP1 SSTORE PUSH32 0xCE6D7B5282BD9A3661AE061FEED1DBDA4E52AB073B1F9285BE6E155D9C38D4F0 DUP5 ADD DUP4 SWAP1 SSTORE PUSH32 0xCE6D7B5282BD9A3661AE061FEED1DBDA4E52AB073B1F9285BE6E155D9C38D4F1 SWAP1 SWAP4 ADD DUP3 SWAP1 SSTORE PUSH2 0x3E8 PUSH1 0x11 SSTORE PUSH2 0x2710 PUSH1 0x12 SSTORE PUSH2 0x7D0 PUSH1 0x10 DUP2 SWAP1 SSTORE PUSH1 0xF DUP1 SLOAD SWAP1 SWAP5 AND CALLER OR SWAP1 SWAP4 SSTORE PUSH1 0xC8 PUSH1 0xB DUP2 SWAP1 SSTORE PUSH1 0x50 PUSH1 0x9 SSTORE PUSH2 0x12C PUSH1 0xA SSTORE PUSH1 0x3 DUP1 SLOAD PUSH1 0xFF NOT AND SWAP1 SWAP4 OR DUP4 SSTORE PUSH1 0x4 SWAP3 SWAP1 SWAP3 SSTORE PUSH1 0x5 SWAP3 SWAP1 SWAP3 SSTORE SWAP1 SSTORE PUSH2 0x1F5 PUSH1 0x7 SSTORE PUSH1 0x33 PUSH1 0x8 SSTORE PUSH2 0x33D6 DUP1 PUSH2 0x198 PUSH1 0x0 CODECOPY PUSH1 0x0 RETURN INVALID PUSH1 0x80 PUSH1 0x40 MSTORE PUSH1 0x4 CALLDATASIZE LT PUSH2 0x246 JUMPI PUSH1 0x0 CALLDATALOAD PUSH1 0xE0 SHR DUP1 PUSH4 0x94B26A5E GT PUSH2 0x139 JUMPI DUP1 PUSH4 0xC97AE726 GT PUSH2 0xB6 JUMPI DUP1 PUSH4 0xD4215B06 GT PUSH2 0x7A JUMPI DUP1 PUSH4 0xD4215B06 EQ PUSH2 0x706 JUMPI DUP1 PUSH4 0xDA74514A EQ PUSH2 0x726 JUMPI DUP1 PUSH4 0xE1C34549 EQ PUSH2 0x746 JUMPI DUP1 PUSH4 0xEC5D1197 EQ PUSH2 0x75B JUMPI DUP1 PUSH4 0xED4F91CE EQ PUSH2 0x787 JUMPI DUP1 PUSH4 0xFF48B597 EQ PUSH2 0x7A7 JUMPI PUSH1 0x0 DUP1 REVERT JUMPDEST DUP1 PUSH4 0xC97AE726 EQ PUSH2 0x675 JUMPI DUP1 PUSH4 0xCB98A433 EQ PUSH2 0x68A JUMPI DUP1 PUSH4 0xD1C1CA9D EQ PUSH2 0x6B3 JUMPI DUP1 PUSH4 0xD1CDC44F EQ PUSH2 0x6D3 JUMPI DUP1 PUSH4 0xD3F88782 EQ PUSH2 0x6E6 JUMPI PUSH1 0x0 DUP1 REVERT JUMPDEST DUP1 PUSH4 0xB523EC45 GT PUSH2 0xFD JUMPI DUP1 PUSH4 0xB523EC45 EQ PUSH2 0x5D5 JUMPI DUP1 PUSH4 0xB75366E1 EQ PUSH2 0x5F5 JUMPI DUP1 PUSH4 0xB9256B1B EQ PUSH2 0x615 JUMPI DUP1 PUSH4 0xBEB694D2 EQ PUSH2 0x635 JUMPI DUP1 PUSH4 0xC1E11402 EQ PUSH2 0x655 JUMPI PUSH1 0x0 DUP1 REVERT JUMPDEST DUP1 PUSH4 0x94B26A5E EQ PUSH2 0x50B JUMPI DUP1 PUSH4 0xADF8E666 EQ PUSH2 0x52B JUMPI DUP1 PUSH4 0xAE1EED80 EQ PUSH2 0x54B JUMPI DUP1 PUSH4 0xAF14C7AD EQ PUSH2 0x56B JUMPI DUP1 PUSH4 0xB3B961C9 EQ PUSH2 0x5B5 JUMPI PUSH1 0x0 DUP1 REVERT JUMPDEST DUP1 PUSH4 0x4F5B7DC2 GT PUSH2 0x1C7 JUMPI DUP1 PUSH4 0x76BF001C GT PUSH2 0x18B JUMPI DUP1 PUSH4 0x76BF001C EQ PUSH2 0x43A JUMPI DUP1 PUSH4 0x7C3592A8 EQ PUSH2 0x472 JUMPI DUP1 PUSH4 0x8A4892F9 EQ PUSH2 0x4AB JUMPI DUP1 PUSH4 0x8ACD001F EQ PUSH2 0x4CB JUMPI DUP1 PUSH4 0x8DA5CB5B EQ PUSH2 0x4EB JUMPI PUSH1 0x0 DUP1 REVERT JUMPDEST DUP1 PUSH4 0x4F5B7DC2 EQ PUSH2 0x38C JUMPI DUP1 PUSH4 0x5F3F75E5 EQ PUSH2 0x3AE JUMPI DUP1 PUSH4 0x695E102C EQ PUSH2 0x3CE JUMPI DUP1 PUSH4 0x69FE0E2D EQ PUSH2 0x3E1 JUMPI DUP1 PUSH4 0x6B9DB4E6 EQ PUSH2 0x401 JUMPI PUSH1 0x0 DUP1 REVERT JUMPDEST DUP1 PUSH4 0x308B7363 GT PUSH2 0x20E JUMPI DUP1 PUSH4 0x308B7363 EQ PUSH2 0x2F5 JUMPI DUP1 PUSH4 0x386B66B2 EQ PUSH2 0x324 JUMPI DUP1 PUSH4 0x3CAAD332 EQ PUSH2 0x344 JUMPI DUP1 PUSH4 0x4A5DFC06 EQ PUSH2 0x359 JUMPI DUP1 PUSH4 0x4A6558BB EQ PUSH2 0x379 JUMPI PUSH1 0x0 DUP1 REVERT JUMPDEST DUP1 PUSH4 0x9E9E903 EQ PUSH2 0x24B JUMPI DUP1 PUSH4 0xC22C655 EQ PUSH2 0x26D JUMPI DUP1 PUSH4 0x16BD8646 EQ PUSH2 0x291 JUMPI DUP1 PUSH4 0x22A91707 EQ PUSH2 0x2B1 JUMPI DUP1 PUSH4 0x27EA6F2B EQ PUSH2 0x2D5 JUMPI JUMPDEST PUSH1 0x0 DUP1 REVERT JUMPDEST CALLVALUE DUP1 ISZERO PUSH2 0x257 JUMPI PUSH1 0x0 DUP1 REVERT JUMPDEST POP PUSH2 0x26B PUSH2 0x266 CALLDATASIZE PUSH1 0x4 PUSH2 0x31FB JUMP JUMPDEST PUSH2 0x7BC JUMP JUMPDEST STOP JUMPDEST CALLVALUE DUP1 ISZERO PUSH2 0x279 JUMPI PUSH1 0x0 DUP1 REVERT JUMPDEST POP PUSH1 0x5 SLOAD JUMPDEST PUSH1 0x40 MLOAD SWAP1 DUP2 MSTORE PUSH1 0x20 ADD JUMPDEST PUSH1 0x40 MLOAD DUP1 SWAP2 SUB SWAP1 RETURN JUMPDEST CALLVALUE DUP1 ISZERO PUSH2 0x29D JUMPI PUSH1 0x0 DUP1 REVERT JUMPDEST POP PUSH2 0x26B PUSH2 0x2AC CALLDATASIZE PUSH1 0x4 PUSH2 0x319E JUMP JUMPDEST PUSH2 0x8CD JUMP JUMPDEST CALLVALUE DUP1 ISZERO PUSH2 0x2BD JUMPI PUSH1 0x0 DUP1 REVERT JUMPDEST POP PUSH1 0x3 SLOAD PUSH1 0xFF AND JUMPDEST PUSH1 0x40 MLOAD SWAP1 ISZERO ISZERO DUP2 MSTORE PUSH1 0x20 ADD PUSH2 0x288 JUMP JUMPDEST CALLVALUE DUP1 ISZERO PUSH2 0x2E1 JUMPI PUSH1 0x0 DUP1 REVERT JUMPDEST POP PUSH2 0x26B PUSH2 0x2F0 CALLDATASIZE PUSH1 0x4 PUSH2 0x319E JUMP JUMPDEST PUSH2 0x944 JUMP JUMPDEST CALLVALUE DUP1 ISZERO PUSH2 0x301 JUMPI PUSH1 0x0 DUP1 REVERT JUMPDEST POP PUSH2 0x2C5 PUSH2 0x310 CALLDATASIZE PUSH1 0x4 PUSH2 0x319E JUMP JUMPDEST PUSH1 0x0 SWAP1 DUP2 MSTORE PUSH1 0x13 PUSH1 0x20 MSTORE PUSH1 0x40 SWAP1 KECCAK256 SLOAD ISZERO ISZERO SWAP1 JUMP JUMPDEST CALLVALUE DUP1 ISZERO PUSH2 0x330 JUMPI PUSH1 0x0 DUP1 REVERT JUMPDEST POP PUSH2 0x27E PUSH2 0x33F CALLDATASIZE PUSH1 0x4 PUSH2 0x319E JUMP JUMPDEST PUSH2 0x973 JUMP JUMPDEST CALLVALUE DUP1 ISZERO PUSH2 0x350 JUMPI PUSH1 0x0 DUP1 REVERT JUMPDEST POP PUSH1 0x6 SLOAD PUSH2 0x27E JUMP JUMPDEST CALLVALUE DUP1 ISZERO PUSH2 0x365 JUMPI PUSH1 0x0 DUP1 REVERT JUMPDEST POP PUSH2 0x26B PUSH2 0x374 CALLDATASIZE PUSH1 0x4 PUSH2 0x31B6 JUMP JUMPDEST PUSH2 0x9BE JUMP JUMPDEST PUSH2 0x26B PUSH2 0x387 CALLDATASIZE PUSH1 0x4 PUSH2 0x3075 JUMP JUMPDEST PUSH2 0xAAA JUMP JUMPDEST CALLVALUE DUP1 ISZERO PUSH2 0x398 JUMPI PUSH1 0x0 DUP1 REVERT JUMPDEST POP PUSH2 0x3A1 PUSH2 0x10AD JUMP JUMPDEST PUSH1 0x40 MLOAD PUSH2 0x288 SWAP2 SWAP1 PUSH2 0x321C JUMP JUMPDEST CALLVALUE DUP1 ISZERO PUSH2 0x3BA JUMPI PUSH1 0x0 DUP1 REVERT JUMPDEST POP PUSH2 0x26B PUSH2 0x3C9 CALLDATASIZE PUSH1 0x4 PUSH2 0x30D3 JUMP JUMPDEST PUSH2 0x1150 JUMP JUMPDEST PUSH2 0x26B PUSH2 0x3DC CALLDATASIZE PUSH1 0x4 PUSH2 0x3123 JUMP JUMPDEST PUSH2 0x1391 JUMP JUMPDEST CALLVALUE DUP1 ISZERO PUSH2 0x3ED JUMPI PUSH1 0x0 DUP1 REVERT JUMPDEST POP PUSH2 0x26B PUSH2 0x3FC CALLDATASIZE PUSH1 0x4 PUSH2 0x319E JUMP JUMPDEST PUSH2 0x1E2E JUMP JUMPDEST CALLVALUE DUP1 ISZERO PUSH2 0x40D JUMPI PUSH1 0x0 DUP1 REVERT JUMPDEST POP PUSH2 0x2C5 PUSH2 0x41C CALLDATASIZE PUSH1 0x4 PUSH2 0x3075 JUMP JUMPDEST PUSH1 0x1 PUSH1 0x1 PUSH1 0xA0 SHL SUB AND PUSH1 0x0 SWAP1 DUP2 MSTORE PUSH1 0xE PUSH1 0x20 MSTORE PUSH1 0x40 SWAP1 KECCAK256 SLOAD PUSH1 0xFF AND SWAP1 JUMP JUMPDEST CALLVALUE DUP1 ISZERO PUSH2 0x446 JUMPI PUSH1 0x0 DUP1 REVERT JUMPDEST POP PUSH2 0x45A PUSH2 0x455 CALLDATASIZE PUSH1 0x4 PUSH2 0x319E JUMP JUMPDEST PUSH2 0x1EA4 JUMP JUMPDEST PUSH1 0x40 MLOAD PUSH1 0x1 PUSH1 0x1 PUSH1 0xA0 SHL SUB SWAP1 SWAP2 AND DUP2 MSTORE PUSH1 0x20 ADD PUSH2 0x288 JUMP JUMPDEST CALLVALUE DUP1 ISZERO PUSH2 0x47E JUMPI PUSH1 0x0 DUP1 REVERT JUMPDEST POP PUSH2 0x45A PUSH2 0x48D CALLDATASIZE PUSH1 0x4 PUSH2 0x3075 JUMP JUMPDEST PUSH1 0x1 PUSH1 0x1 PUSH1 0xA0 SHL SUB SWAP1 DUP2 AND PUSH1 0x0 SWAP1 DUP2 MSTORE PUSH1 0x20 DUP2 SWAP1 MSTORE PUSH1 0x40 SWAP1 KECCAK256 SLOAD AND SWAP1 JUMP JUMPDEST CALLVALUE DUP1 ISZERO PUSH2 0x4B7 JUMPI PUSH1 0x0 DUP1 REVERT JUMPDEST POP PUSH2 0x2C5 PUSH2 0x4C6 CALLDATASIZE PUSH1 0x4 PUSH2 0x3075 JUMP JUMPDEST PUSH2 0x1EF9 JUMP JUMPDEST CALLVALUE DUP1 ISZERO PUSH2 0x4D7 JUMPI PUSH1 0x0 DUP1 REVERT JUMPDEST POP PUSH2 0x26B PUSH2 0x4E6 CALLDATASIZE PUSH1 0x4 PUSH2 0x319E JUMP JUMPDEST PUSH2 0x1F39 JUMP JUMPDEST CALLVALUE DUP1 ISZERO PUSH2 0x4F7 JUMPI PUSH1 0x0 DUP1 REVERT JUMPDEST POP PUSH1 0xF SLOAD PUSH2 0x45A SWAP1 PUSH1 0x1 PUSH1 0x1 PUSH1 0xA0 SHL SUB AND DUP2 JUMP JUMPDEST CALLVALUE DUP1 ISZERO PUSH2 0x517 JUMPI PUSH1 0x0 DUP1 REVERT JUMPDEST POP PUSH2 0x26B PUSH2 0x526 CALLDATASIZE PUSH1 0x4 PUSH2 0x3166 JUMP JUMPDEST PUSH2 0x213F JUMP JUMPDEST CALLVALUE DUP1 ISZERO PUSH2 0x537 JUMPI PUSH1 0x0 DUP1 REVERT JUMPDEST POP PUSH2 0x26B PUSH2 0x546 CALLDATASIZE PUSH1 0x4 PUSH2 0x319E JUMP JUMPDEST PUSH2 0x217C JUMP JUMPDEST CALLVALUE DUP1 ISZERO PUSH2 0x557 JUMPI PUSH1 0x0 DUP1 REVERT JUMPDEST POP PUSH2 0x27E PUSH2 0x566 CALLDATASIZE PUSH1 0x4 PUSH2 0x3075 JUMP JUMPDEST PUSH2 0x21AB JUMP JUMPDEST CALLVALUE DUP1 ISZERO PUSH2 0x577 JUMPI PUSH1 0x0 DUP1 REVERT JUMPDEST POP PUSH2 0x26B PUSH2 0x586 CALLDATASIZE PUSH1 0x4 PUSH2 0x3075 JUMP JUMPDEST CALLER PUSH1 0x0 SWAP1 DUP2 MSTORE PUSH1 0x20 DUP2 SWAP1 MSTORE PUSH1 0x40 SWAP1 KECCAK256 DUP1 SLOAD PUSH1 0x1 PUSH1 0x1 PUSH1 0xA0 SHL SUB NOT AND PUSH1 0x1 PUSH1 0x1 PUSH1 0xA0 SHL SUB SWAP3 SWAP1 SWAP3 AND SWAP2 SWAP1 SWAP2 OR SWAP1 SSTORE JUMP JUMPDEST CALLVALUE DUP1 ISZERO PUSH2 0x5C1 JUMPI PUSH1 0x0 DUP1 REVERT JUMPDEST POP PUSH2 0x27E PUSH2 0x5D0 CALLDATASIZE PUSH1 0x4 PUSH2 0x319E JUMP JUMPDEST PUSH2 0x222D JUMP JUMPDEST CALLVALUE DUP1 ISZERO PUSH2 0x5E1 JUMPI PUSH1 0x0 DUP1 REVERT JUMPDEST POP PUSH2 0x26B PUSH2 0x5F0 CALLDATASIZE PUSH1 0x4 PUSH2 0x319E JUMP JUMPDEST PUSH2 0x2278 JUMP JUMPDEST CALLVALUE DUP1 ISZERO PUSH2 0x601 JUMPI PUSH1 0x0 DUP1 REVERT JUMPDEST POP PUSH2 0x27E PUSH2 0x610 CALLDATASIZE PUSH1 0x4 PUSH2 0x3075 JUMP JUMPDEST PUSH2 0x22A7 JUMP JUMPDEST CALLVALUE DUP1 ISZERO PUSH2 0x621 JUMPI PUSH1 0x0 DUP1 REVERT JUMPDEST POP PUSH2 0x27E PUSH2 0x630 CALLDATASIZE PUSH1 0x4 PUSH2 0x319E JUMP JUMPDEST PUSH2 0x232C JUMP JUMPDEST CALLVALUE DUP1 ISZERO PUSH2 0x641 JUMPI PUSH1 0x0 DUP1 REVERT JUMPDEST POP PUSH2 0x26B PUSH2 0x650 CALLDATASIZE PUSH1 0x4 PUSH2 0x319E JUMP JUMPDEST PUSH2 0x23C0 JUMP JUMPDEST CALLVALUE DUP1 ISZERO PUSH2 0x661 JUMPI PUSH1 0x0 DUP1 REVERT JUMPDEST POP PUSH2 0x26B PUSH2 0x670 CALLDATASIZE PUSH1 0x4 PUSH2 0x319E JUMP JUMPDEST PUSH2 0x23EF JUMP JUMPDEST CALLVALUE DUP1 ISZERO PUSH2 0x681 JUMPI PUSH1 0x0 DUP1 REVERT JUMPDEST POP PUSH2 0x2C5 PUSH2 0x241E JUMP JUMPDEST CALLVALUE DUP1 ISZERO PUSH2 0x696 JUMPI PUSH1 0x0 DUP1 REVERT JUMPDEST POP PUSH2 0x26B CALLER PUSH1 0x0 SWAP1 DUP2 MSTORE PUSH1 0xE PUSH1 0x20 MSTORE PUSH1 0x40 SWAP1 KECCAK256 DUP1 SLOAD PUSH1 0xFF NOT AND SWAP1 SSTORE JUMP JUMPDEST CALLVALUE DUP1 ISZERO PUSH2 0x6BF JUMPI PUSH1 0x0 DUP1 REVERT JUMPDEST POP PUSH2 0x26B PUSH2 0x6CE CALLDATASIZE PUSH1 0x4 PUSH2 0x319E JUMP JUMPDEST PUSH2 0x247B JUMP JUMPDEST PUSH2 0x26B PUSH2 0x6E1 CALLDATASIZE PUSH1 0x4 PUSH2 0x3123 JUMP JUMPDEST PUSH2 0x24F1 JUMP JUMPDEST CALLVALUE DUP1 ISZERO PUSH2 0x6F2 JUMPI PUSH1 0x0 DUP1 REVERT JUMPDEST POP PUSH2 0x26B PUSH2 0x701 CALLDATASIZE PUSH1 0x4 PUSH2 0x319E JUMP JUMPDEST PUSH2 0x2CB7 JUMP JUMPDEST CALLVALUE DUP1 ISZERO PUSH2 0x712 JUMPI PUSH1 0x0 DUP1 REVERT JUMPDEST POP PUSH2 0x2C5 PUSH2 0x721 CALLDATASIZE PUSH1 0x4 PUSH2 0x3098 JUMP JUMPDEST PUSH2 0x2CE6 JUMP JUMPDEST CALLVALUE DUP1 ISZERO PUSH2 0x732 JUMPI PUSH1 0x0 DUP1 REVERT JUMPDEST POP PUSH2 0x27E PUSH2 0x741 CALLDATASIZE PUSH1 0x4 PUSH2 0x319E JUMP JUMPDEST PUSH2 0x2D45 JUMP JUMPDEST CALLVALUE DUP1 ISZERO PUSH2 0x752 JUMPI PUSH1 0x0 DUP1 REVERT JUMPDEST POP PUSH2 0x26B PUSH2 0x2D90 JUMP JUMPDEST CALLVALUE DUP1 ISZERO PUSH2 0x767 JUMPI PUSH1 0x0 DUP1 REVERT JUMPDEST POP PUSH2 0x26B CALLER PUSH1 0x0 SWAP1 DUP2 MSTORE PUSH1 0xE PUSH1 0x20 MSTORE PUSH1 0x40 SWAP1 KECCAK256 DUP1 SLOAD PUSH1 0xFF NOT AND PUSH1 0x1 OR SWAP1 SSTORE JUMP JUMPDEST CALLVALUE DUP1 ISZERO PUSH2 0x793 JUMPI PUSH1 0x0 DUP1 REVERT JUMPDEST POP PUSH2 0x26B PUSH2 0x7A2 CALLDATASIZE PUSH1 0x4 PUSH2 0x3123 JUMP JUMPDEST PUSH2 0x2DDF JUMP JUMPDEST CALLVALUE DUP1 ISZERO PUSH2 0x7B3 JUMPI PUSH1 0x0 DUP1 REVERT JUMPDEST POP PUSH1 0x4 SLOAD PUSH2 0x27E JUMP JUMPDEST DUP1 PUSH1 0x0 LT DUP1 ISZERO PUSH2 0x7CC JUMPI POP PUSH1 0x4 DUP2 LT JUMPDEST PUSH2 0x815 JUMPI PUSH1 0x40 MLOAD PUSH3 0x461BCD PUSH1 0xE5 SHL DUP2 MSTORE PUSH1 0x20 PUSH1 0x4 DUP3 ADD MSTORE PUSH1 0x15 PUSH1 0x24 DUP3 ADD MSTORE PUSH21 0x636F6C6F724E756D206F7574206F662072616E6765 PUSH1 0x58 SHL PUSH1 0x44 DUP3 ADD MSTORE PUSH1 0x64 ADD JUMPDEST PUSH1 0x40 MLOAD DUP1 SWAP2 SUB SWAP1 REVERT JUMPDEST PUSH1 0x0 DUP3 DUP2 MSTORE PUSH1 0x13 PUSH1 0x20 MSTORE PUSH1 0x40 SWAP1 KECCAK256 SLOAD PUSH1 0x14 DUP1 SLOAD SWAP1 SWAP2 SWAP1 DUP2 LT PUSH2 0x847 JUMPI PUSH4 0x4E487B71 PUSH1 0xE0 SHL PUSH1 0x0 MSTORE PUSH1 0x32 PUSH1 0x4 MSTORE PUSH1 0x24 PUSH1 0x0 REVERT JUMPDEST PUSH1 0x0 SWAP2 DUP3 MSTORE PUSH1 0x20 SWAP1 SWAP2 KECCAK256 PUSH1 0x6 SWAP1 SWAP2 MUL ADD PUSH1 0x2 ADD SLOAD PUSH1 0x1 PUSH1 0x1 PUSH1 0xA0 SHL SUB AND CALLER EQ PUSH2 0x882 JUMPI PUSH1 0x40 MLOAD PUSH3 0x461BCD PUSH1 0xE5 SHL DUP2 MSTORE PUSH1 0x4 ADD PUSH2 0x80C SWAP1 PUSH2 0x32A2 JUMP JUMPDEST PUSH1 0x0 DUP3 DUP2 MSTORE PUSH1 0x13 PUSH1 0x20 MSTORE PUSH1 0x40 SWAP1 KECCAK256 SLOAD PUSH1 0x14 DUP1 SLOAD DUP4 SWAP3 SWAP1 DUP2 LT PUSH2 0x8B4 JUMPI PUSH4 0x4E487B71 PUSH1 0xE0 SHL PUSH1 0x0 MSTORE PUSH1 0x32 PUSH1 0x4 MSTORE PUSH1 0x24 PUSH1 0x0 REVERT JUMPDEST SWAP1 PUSH1 0x0 MSTORE PUSH1 0x20 PUSH1 0x0 KECCAK256 SWAP1 PUSH1 0x6 MUL ADD PUSH1 0x1 ADD DUP2 SWAP1 SSTORE POP POP POP JUMP JUMPDEST PUSH1 0xF SLOAD PUSH1 0x1 PUSH1 0x1 PUSH1 0xA0 SHL SUB AND CALLER EQ PUSH2 0x8F7 JUMPI PUSH1 0x40 MLOAD PUSH3 0x461BCD PUSH1 0xE5 SHL DUP2 MSTORE PUSH1 0x4 ADD PUSH2 0x80C SWAP1 PUSH2 0x32A2 JUMP JUMPDEST PUSH3 0xF4240 DUP2 GT ISZERO PUSH2 0x93F JUMPI PUSH1 0x40 MLOAD PUSH3 0x461BCD PUSH1 0xE5 SHL DUP2 MSTORE PUSH1 0x20 PUSH1 0x4 DUP3 ADD MSTORE PUSH1 0x12 PUSH1 0x24 DUP3 ADD MSTORE PUSH18 0x6D61784964206F7574206F662072616E6765 PUSH1 0x70 SHL PUSH1 0x44 DUP3 ADD MSTORE PUSH1 0x64 ADD PUSH2 0x80C JUMP JUMPDEST PUSH1 0x10 SSTORE JUMP JUMPDEST PUSH1 0xF SLOAD PUSH1 0x1 PUSH1 0x1 PUSH1 0xA0 SHL SUB AND CALLER EQ PUSH2 0x96E JUMPI PUSH1 0x40 MLOAD PUSH3 0x461BCD PUSH1 0xE5 SHL DUP2 MSTORE PUSH1 0x4 ADD PUSH2 0x80C SWAP1 PUSH2 0x32A2 JUMP JUMPDEST PUSH1 0xB SSTORE JUMP JUMPDEST PUSH1 0x0 DUP2 DUP2 MSTORE PUSH1 0x13 PUSH1 0x20 MSTORE PUSH1 0x40 DUP2 KECCAK256 SLOAD PUSH1 0x14 DUP1 SLOAD SWAP1 SWAP2 SWAP1 DUP2 LT PUSH2 0x9A5 JUMPI PUSH4 0x4E487B71 PUSH1 0xE0 SHL PUSH1 0x0 MSTORE PUSH1 0x32 PUSH1 0x4 MSTORE PUSH1 0x24 PUSH1 0x0 REVERT JUMPDEST SWAP1 PUSH1 0x0 MSTORE PUSH1 0x20 PUSH1 0x0 KECCAK256 SWAP1 PUSH1 0x6 MUL ADD PUSH1 0x1 ADD SLOAD SWAP1 POP SWAP2 SWAP1 POP JUMP JUMPDEST PUSH1 0x9 SLOAD DUP3 LT ISZERO DUP1 ISZERO PUSH2 0x9D2 JUMPI POP PUSH1 0xA SLOAD DUP3 GT ISZERO JUMPDEST PUSH2 0xA17 JUMPI PUSH1 0x40 MLOAD PUSH3 0x461BCD PUSH1 0xE5 SHL DUP2 MSTORE PUSH1 0x20 PUSH1 0x4 DUP3 ADD MSTORE PUSH1 0x16 PUSH1 0x24 DUP3 ADD MSTORE PUSH22 0x707269636552617465206F7574206F662072616E6765 PUSH1 0x50 SHL PUSH1 0x44 DUP3 ADD MSTORE PUSH1 0x64 ADD PUSH2 0x80C JUMP JUMPDEST PUSH1 0x0 JUMPDEST DUP2 MLOAD DUP2 LT ISZERO PUSH2 0xAA5 JUMPI DUP3 PUSH1 0x14 PUSH1 0x13 PUSH1 0x0 DUP6 DUP6 DUP2 MLOAD DUP2 LT PUSH2 0xA4A JUMPI PUSH4 0x4E487B71 PUSH1 0xE0 SHL PUSH1 0x0 MSTORE PUSH1 0x32 PUSH1 0x4 MSTORE PUSH1 0x24 PUSH1 0x0 REVERT JUMPDEST PUSH1 0x20 MUL PUSH1 0x20 ADD ADD MLOAD DUP2 MSTORE PUSH1 0x20 ADD SWAP1 DUP2 MSTORE PUSH1 0x20 ADD PUSH1 0x0 KECCAK256 SLOAD DUP2 SLOAD DUP2 LT PUSH2 0xA7F JUMPI PUSH4 0x4E487B71 PUSH1 0xE0 SHL PUSH1 0x0 MSTORE PUSH1 0x32 PUSH1 0x4 MSTORE PUSH1 0x24 PUSH1 0x0 REVERT JUMPDEST PUSH1 0x0 SWAP2 DUP3 MSTORE PUSH1 0x20 SWAP1 SWAP2 KECCAK256 PUSH1 0x5 PUSH1 0x6 SWAP1 SWAP3 MUL ADD ADD SSTORE DUP1 PUSH2 0xA9D DUP2 PUSH2 0x3333 JUMP JUMPDEST SWAP2 POP POP PUSH2 0xA1A JUMP JUMPDEST POP POP POP JUMP JUMPDEST CALLER PUSH1 0x1 PUSH1 0x1 PUSH1 0xA0 SHL SUB DUP3 AND EQ ISZERO PUSH2 0xB03 JUMPI PUSH1 0x40 MLOAD PUSH3 0x461BCD PUSH1 0xE5 SHL DUP2 MSTORE PUSH1 0x20 PUSH1 0x4 DUP3 ADD MSTORE PUSH1 0x1E PUSH1 0x24 DUP3 ADD MSTORE PUSH32 0x796F752063616E27742062757920796F7572206F776E20626C6F636B73210000 PUSH1 0x44 DUP3 ADD MSTORE PUSH1 0x64 ADD PUSH2 0x80C JUMP JUMPDEST PUSH1 0xD DUP1 SLOAD PUSH2 0xB13 SWAP2 PUSH1 0xC SWAP2 PUSH2 0x2F72 JUMP JUMPDEST POP PUSH1 0x0 DUP1 JUMPDEST PUSH1 0x14 SLOAD DUP2 LT ISZERO PUSH2 0xCC2 JUMPI DUP3 PUSH1 0x1 PUSH1 0x1 PUSH1 0xA0 SHL SUB AND PUSH1 0x14 DUP3 DUP2 SLOAD DUP2 LT PUSH2 0xB4D JUMPI PUSH4 0x4E487B71 PUSH1 0xE0 SHL PUSH1 0x0 MSTORE PUSH1 0x32 PUSH1 0x4 MSTORE PUSH1 0x24 PUSH1 0x0 REVERT JUMPDEST PUSH1 0x0 SWAP2 DUP3 MSTORE PUSH1 0x20 SWAP1 SWAP2 KECCAK256 PUSH1 0x2 PUSH1 0x6 SWAP1 SWAP3 MUL ADD ADD SLOAD PUSH1 0x1 PUSH1 0x1 PUSH1 0xA0 SHL SUB AND EQ ISZERO PUSH2 0xBB8 JUMPI PUSH1 0xC PUSH1 0x14 DUP3 DUP2 SLOAD DUP2 LT PUSH2 0xB93 JUMPI PUSH4 0x4E487B71 PUSH1 0xE0 SHL PUSH1 0x0 MSTORE PUSH1 0x32 PUSH1 0x4 MSTORE PUSH1 0x24 PUSH1 0x0 REVERT JUMPDEST PUSH1 0x0 SWAP2 DUP3 MSTORE PUSH1 0x20 DUP1 DUP4 KECCAK256 PUSH1 0x6 SWAP1 SWAP3 MUL SWAP1 SWAP2 ADD SLOAD DUP4 SLOAD PUSH1 0x1 DUP2 ADD DUP6 SSTORE SWAP4 DUP4 MSTORE SWAP2 KECCAK256 SWAP1 SWAP2 ADD SSTORE JUMPDEST PUSH1 0x14 PUSH1 0x13 PUSH1 0x0 PUSH1 0xC DUP5 DUP2 SLOAD DUP2 LT PUSH2 0xBDF JUMPI PUSH4 0x4E487B71 PUSH1 0xE0 SHL PUSH1 0x0 MSTORE PUSH1 0x32 PUSH1 0x4 MSTORE PUSH1 0x24 PUSH1 0x0 REVERT JUMPDEST SWAP1 PUSH1 0x0 MSTORE PUSH1 0x20 PUSH1 0x0 KECCAK256 ADD SLOAD DUP2 MSTORE PUSH1 0x20 ADD SWAP1 DUP2 MSTORE PUSH1 0x20 ADD PUSH1 0x0 KECCAK256 SLOAD DUP2 SLOAD DUP2 LT PUSH2 0xC17 JUMPI PUSH4 0x4E487B71 PUSH1 0xE0 SHL PUSH1 0x0 MSTORE PUSH1 0x32 PUSH1 0x4 MSTORE PUSH1 0x24 PUSH1 0x0 REVERT JUMPDEST SWAP1 PUSH1 0x0 MSTORE PUSH1 0x20 PUSH1 0x0 KECCAK256 SWAP1 PUSH1 0x6 MUL ADD PUSH1 0x5 ADD SLOAD PUSH1 0x14 PUSH1 0x13 PUSH1 0x0 PUSH1 0xC DUP6 DUP2 SLOAD DUP2 LT PUSH2 0xC50 JUMPI PUSH4 0x4E487B71 PUSH1 0xE0 SHL PUSH1 0x0 MSTORE PUSH1 0x32 PUSH1 0x4 MSTORE PUSH1 0x24 PUSH1 0x0 REVERT JUMPDEST SWAP1 PUSH1 0x0 MSTORE PUSH1 0x20 PUSH1 0x0 KECCAK256 ADD SLOAD DUP2 MSTORE PUSH1 0x20 ADD SWAP1 DUP2 MSTORE PUSH1 0x20 ADD PUSH1 0x0 KECCAK256 SLOAD DUP2 SLOAD DUP2 LT PUSH2 0xC88 JUMPI PUSH4 0x4E487B71 PUSH1 0xE0 SHL PUSH1 0x0 MSTORE PUSH1 0x32 PUSH1 0x4 MSTORE PUSH1 0x24 PUSH1 0x0 REVERT JUMPDEST SWAP1 PUSH1 0x0 MSTORE PUSH1 0x20 PUSH1 0x0 KECCAK256 SWAP1 PUSH1 0x6 MUL ADD PUSH1 0x4 ADD SLOAD PUSH2 0xCA4 SWAP2 SWAP1 PUSH2 0x32FD JUMP JUMPDEST PUSH2 0xCAE SWAP1 DUP4 PUSH2 0x32C5 JUMP JUMPDEST SWAP2 POP DUP1 PUSH2 0xCBA DUP2 PUSH2 0x3333 JUMP JUMPDEST SWAP2 POP POP PUSH2 0xB18 JUMP JUMPDEST POP DUP2 PUSH1 0x1 PUSH1 0x1 PUSH1 0xA0 SHL SUB AND PUSH2 0x8FC PUSH1 0x11 SLOAD PUSH2 0x2710 PUSH2 0xCE0 SWAP2 SWAP1 PUSH2 0x331C JUMP JUMPDEST PUSH2 0xCEF DUP5 PUSH5 0x2540BE400 PUSH2 0x32FD JUMP JUMPDEST PUSH2 0xCF9 SWAP2 SWAP1 PUSH2 0x32FD JUMP JUMPDEST PUSH1 0x40 MLOAD DUP2 ISZERO SWAP1 SWAP3 MUL SWAP2 PUSH1 0x0 DUP2 DUP2 DUP2 DUP6 DUP9 DUP9 CALL SWAP4 POP POP POP POP ISZERO DUP1 ISZERO PUSH2 0xD21 JUMPI RETURNDATASIZE PUSH1 0x0 DUP1 RETURNDATACOPY RETURNDATASIZE PUSH1 0x0 REVERT JUMPDEST POP PUSH1 0xF SLOAD PUSH1 0x6 SLOAD PUSH1 0x11 SLOAD PUSH1 0x1 PUSH1 0x1 PUSH1 0xA0 SHL SUB SWAP1 SWAP3 AND SWAP2 PUSH2 0x8FC SWAP2 PUSH2 0xD44 SWAP2 PUSH2 0x331C JUMP JUMPDEST PUSH2 0xD53 DUP5 PUSH5 0x2540BE400 PUSH2 0x32FD JUMP JUMPDEST PUSH2 0xD5D SWAP2 SWAP1 PUSH2 0x32FD JUMP JUMPDEST PUSH1 0x40 MLOAD DUP2 ISZERO SWAP1 SWAP3 MUL SWAP2 PUSH1 0x0 DUP2 DUP2 DUP2 DUP6 DUP9 DUP9 CALL SWAP4 POP POP POP POP ISZERO DUP1 ISZERO PUSH2 0xD85 JUMPI RETURNDATASIZE PUSH1 0x0 DUP1 RETURNDATACOPY RETURNDATASIZE PUSH1 0x0 REVERT JUMPDEST POP CALLER PUSH1 0x0 SWAP1 DUP2 MSTORE PUSH1 0x20 DUP2 SWAP1 MSTORE PUSH1 0x40 SWAP1 KECCAK256 SLOAD PUSH1 0x6 SLOAD PUSH1 0x1 PUSH1 0x1 PUSH1 0xA0 SHL SUB SWAP1 SWAP2 AND SWAP1 PUSH2 0x8FC SWAP1 PUSH2 0xDB8 DUP5 PUSH5 0x2540BE400 PUSH2 0x32FD JUMP JUMPDEST PUSH2 0xDC2 SWAP2 SWAP1 PUSH2 0x32FD JUMP JUMPDEST PUSH1 0x40 MLOAD DUP2 ISZERO SWAP1 SWAP3 MUL SWAP2 PUSH1 0x0 DUP2 DUP2 DUP2 DUP6 DUP9 DUP9 CALL SWAP4 POP POP POP POP ISZERO DUP1 ISZERO PUSH2 0xDEA JUMPI RETURNDATASIZE PUSH1 0x0 DUP1 RETURNDATACOPY RETURNDATASIZE PUSH1 0x0 REVERT JUMPDEST POP PUSH1 0x0 JUMPDEST PUSH1 0xC SLOAD DUP2 LT ISZERO PUSH2 0xAA5 JUMPI CALLER PUSH1 0x14 PUSH1 0x13 PUSH1 0x0 PUSH1 0xC DUP6 DUP2 SLOAD DUP2 LT PUSH2 0xE20 JUMPI PUSH4 0x4E487B71 PUSH1 0xE0 SHL PUSH1 0x0 MSTORE PUSH1 0x32 PUSH1 0x4 MSTORE PUSH1 0x24 PUSH1 0x0 REVERT JUMPDEST SWAP1 PUSH1 0x0 MSTORE PUSH1 0x20 PUSH1 0x0 KECCAK256 ADD SLOAD DUP2 MSTORE PUSH1 0x20 ADD SWAP1 DUP2 MSTORE PUSH1 0x20 ADD PUSH1 0x0 KECCAK256 SLOAD DUP2 SLOAD DUP2 LT PUSH2 0xE58 JUMPI PUSH4 0x4E487B71 PUSH1 0xE0 SHL PUSH1 0x0 MSTORE PUSH1 0x32 PUSH1 0x4 MSTORE PUSH1 0x24 PUSH1 0x0 REVERT JUMPDEST PUSH1 0x0 SWAP2 DUP3 MSTORE PUSH1 0x20 DUP1 DUP4 KECCAK256 PUSH1 0x6 SWAP3 SWAP1 SWAP3 MUL SWAP1 SWAP2 ADD PUSH1 0x2 ADD DUP1 SLOAD PUSH1 0x1 PUSH1 0x1 PUSH1 0xA0 SHL SUB NOT AND PUSH1 0x1 PUSH1 0x1 PUSH1 0xA0 SHL SUB SWAP5 DUP6 AND OR SWAP1 SSTORE CALLER DUP3 MSTORE DUP2 SWAP1 MSTORE PUSH1 0x40 DUP2 KECCAK256 SLOAD PUSH1 0xC DUP1 SLOAD SWAP2 SWAP1 SWAP4 AND SWAP3 PUSH1 0x14 SWAP3 PUSH1 0x13 SWAP3 SWAP1 SWAP2 SWAP1 DUP7 SWAP1 DUP2 LT PUSH2 0xEC3 JUMPI PUSH4 0x4E487B71 PUSH1 0xE0 SHL PUSH1 0x0 MSTORE PUSH1 0x32 PUSH1 0x4 MSTORE PUSH1 0x24 PUSH1 0x0 REVERT JUMPDEST SWAP1 PUSH1 0x0 MSTORE PUSH1 0x20 PUSH1 0x0 KECCAK256 ADD SLOAD DUP2 MSTORE PUSH1 0x20 ADD SWAP1 DUP2 MSTORE PUSH1 0x20 ADD PUSH1 0x0 KECCAK256 SLOAD DUP2 SLOAD DUP2 LT PUSH2 0xEFB JUMPI PUSH4 0x4E487B71 PUSH1 0xE0 SHL PUSH1 0x0 MSTORE PUSH1 0x32 PUSH1 0x4 MSTORE PUSH1 0x24 PUSH1 0x0 REVERT JUMPDEST SWAP1 PUSH1 0x0 MSTORE PUSH1 0x20 PUSH1 0x0 KECCAK256 SWAP1 PUSH1 0x6 MUL ADD PUSH1 0x3 ADD PUSH1 0x0 PUSH2 0x100 EXP DUP2 SLOAD DUP2 PUSH1 0x1 PUSH1 0x1 PUSH1 0xA0 SHL SUB MUL NOT AND SWAP1 DUP4 PUSH1 0x1 PUSH1 0x1 PUSH1 0xA0 SHL SUB AND MUL OR SWAP1 SSTORE POP PUSH1 0x64 PUSH1 0x14 PUSH1 0x13 PUSH1 0x0 PUSH1 0xC DUP6 DUP2 SLOAD DUP2 LT PUSH2 0xF59 JUMPI PUSH4 0x4E487B71 PUSH1 0xE0 SHL PUSH1 0x0 MSTORE PUSH1 0x32 PUSH1 0x4 MSTORE PUSH1 0x24 PUSH1 0x0 REVERT JUMPDEST SWAP1 PUSH1 0x0 MSTORE PUSH1 0x20 PUSH1 0x0 KECCAK256 ADD SLOAD DUP2 MSTORE PUSH1 0x20 ADD SWAP1 DUP2 MSTORE PUSH1 0x20 ADD PUSH1 0x0 KECCAK256 SLOAD DUP2 SLOAD DUP2 LT PUSH2 0xF91 JUMPI PUSH4 0x4E487B71 PUSH1 0xE0 SHL PUSH1 0x0 MSTORE PUSH1 0x32 PUSH1 0x4 MSTORE PUSH1 0x24 PUSH1 0x0 REVERT JUMPDEST SWAP1 PUSH1 0x0 MSTORE PUSH1 0x20 PUSH1 0x0 KECCAK256 SWAP1 PUSH1 0x6 MUL ADD PUSH1 0x5 ADD SLOAD PUSH1 0x14 PUSH1 0x13 PUSH1 0x0 PUSH1 0xC DUP7 DUP2 SLOAD DUP2 LT PUSH2 0xFCA JUMPI PUSH4 0x4E487B71 PUSH1 0xE0 SHL PUSH1 0x0 MSTORE PUSH1 0x32 PUSH1 0x4 MSTORE PUSH1 0x24 PUSH1 0x0 REVERT JUMPDEST SWAP1 PUSH1 0x0 MSTORE PUSH1 0x20 PUSH1 0x0 KECCAK256 ADD SLOAD DUP2 MSTORE PUSH1 0x20 ADD SWAP1 DUP2 MSTORE PUSH1 0x20 ADD PUSH1 0x0 KECCAK256 SLOAD DUP2 SLOAD DUP2 LT PUSH2 0x1002 JUMPI PUSH4 0x4E487B71 PUSH1 0xE0 SHL PUSH1 0x0 MSTORE PUSH1 0x32 PUSH1 0x4 MSTORE PUSH1 0x24 PUSH1 0x0 REVERT JUMPDEST SWAP1 PUSH1 0x0 MSTORE PUSH1 0x20 PUSH1 0x0 KECCAK256 SWAP1 PUSH1 0x6 MUL ADD PUSH1 0x4 ADD SLOAD PUSH2 0x101E SWAP2 SWAP1 PUSH2 0x32FD JUMP JUMPDEST PUSH2 0x1028 SWAP2 SWAP1 PUSH2 0x32DD JUMP JUMPDEST PUSH1 0x14 PUSH1 0x13 PUSH1 0x0 PUSH1 0xC DUP6 DUP2 SLOAD DUP2 LT PUSH2 0x104F JUMPI PUSH4 0x4E487B71 PUSH1 0xE0 SHL PUSH1 0x0 MSTORE PUSH1 0x32 PUSH1 0x4 MSTORE PUSH1 0x24 PUSH1 0x0 REVERT JUMPDEST SWAP1 PUSH1 0x0 MSTORE PUSH1 0x20 PUSH1 0x0 KECCAK256 ADD SLOAD DUP2 MSTORE PUSH1 0x20 ADD SWAP1 DUP2 MSTORE PUSH1 0x20 ADD PUSH1 0x0 KECCAK256 SLOAD DUP2 SLOAD DUP2 LT PUSH2 0x1087 JUMPI PUSH4 0x4E487B71 PUSH1 0xE0 SHL PUSH1 0x0 MSTORE PUSH1 0x32 PUSH1 0x4 MSTORE PUSH1 0x24 PUSH1 0x0 REVERT JUMPDEST PUSH1 0x0 SWAP2 DUP3 MSTORE PUSH1 0x20 SWAP1 SWAP2 KECCAK256 PUSH1 0x4 PUSH1 0x6 SWAP1 SWAP3 MUL ADD ADD SSTORE DUP1 PUSH2 0x10A5 DUP2 PUSH2 0x3333 JUMP JUMPDEST SWAP2 POP POP PUSH2 0xDEE JUMP JUMPDEST PUSH1 0x60 PUSH1 0x14 DUP1 SLOAD DUP1 PUSH1 0x20 MUL PUSH1 0x20 ADD PUSH1 0x40 MLOAD SWAP1 DUP2 ADD PUSH1 0x40 MSTORE DUP1 SWAP3 SWAP2 SWAP1 DUP2 DUP2 MSTORE PUSH1 0x20 ADD PUSH1 0x0 SWAP1 JUMPDEST DUP3 DUP3 LT ISZERO PUSH2 0x1147 JUMPI PUSH1 0x0 DUP5 DUP2 MSTORE PUSH1 0x20 SWAP1 DUP2 SWAP1 KECCAK256 PUSH1 0x40 DUP1 MLOAD PUSH1 0xC0 DUP2 ADD DUP3 MSTORE PUSH1 0x6 DUP7 MUL SWAP1 SWAP3 ADD DUP1 SLOAD DUP4 MSTORE PUSH1 0x1 DUP1 DUP3 ADD SLOAD DUP5 DUP7 ADD MSTORE PUSH1 0x2 DUP3 ADD SLOAD PUSH1 0x1 PUSH1 0x1 PUSH1 0xA0 SHL SUB SWAP1 DUP2 AND SWAP4 DUP6 ADD SWAP4 SWAP1 SWAP4 MSTORE PUSH1 0x3 DUP3 ADD SLOAD SWAP1 SWAP3 AND PUSH1 0x60 DUP5 ADD MSTORE PUSH1 0x4 DUP2 ADD SLOAD PUSH1 0x80 DUP5 ADD MSTORE PUSH1 0x5 ADD SLOAD PUSH1 0xA0 DUP4 ADD MSTORE SWAP1 DUP4 MSTORE SWAP1 SWAP3 ADD SWAP2 ADD PUSH2 0x10D1 JUMP JUMPDEST POP POP POP POP SWAP1 POP SWAP1 JUMP JUMPDEST PUSH1 0x0 JUMPDEST DUP3 MLOAD DUP2 LT ISZERO PUSH2 0x1243 JUMPI PUSH1 0x14 PUSH1 0x13 PUSH1 0x0 DUP6 DUP5 DUP2 MLOAD DUP2 LT PUSH2 0x1182 JUMPI PUSH4 0x4E487B71 PUSH1 0xE0 SHL PUSH1 0x0 MSTORE PUSH1 0x32 PUSH1 0x4 MSTORE PUSH1 0x24 PUSH1 0x0 REVERT JUMPDEST PUSH1 0x20 MUL PUSH1 0x20 ADD ADD MLOAD DUP2 MSTORE PUSH1 0x20 ADD SWAP1 DUP2 MSTORE PUSH1 0x20 ADD PUSH1 0x0 KECCAK256 SLOAD DUP2 SLOAD DUP2 LT PUSH2 0x11B7 JUMPI PUSH4 0x4E487B71 PUSH1 0xE0 SHL PUSH1 0x0 MSTORE PUSH1 0x32 PUSH1 0x4 MSTORE PUSH1 0x24 PUSH1 0x0 REVERT JUMPDEST PUSH1 0x0 SWAP2 DUP3 MSTORE PUSH1 0x20 SWAP1 SWAP2 KECCAK256 PUSH1 0x6 SWAP1 SWAP2 MUL ADD PUSH1 0x2 ADD SLOAD PUSH1 0x1 PUSH1 0x1 PUSH1 0xA0 SHL SUB AND CALLER EQ PUSH2 0x1231 JUMPI PUSH1 0x40 MLOAD PUSH3 0x461BCD PUSH1 0xE5 SHL DUP2 MSTORE PUSH1 0x20 PUSH1 0x4 DUP3 ADD MSTORE PUSH1 0x26 PUSH1 0x24 DUP3 ADD MSTORE PUSH32 0x6174206C65617374206F6E6520626C6F636B206973206E6F74206F776E656420 PUSH1 0x44 DUP3 ADD MSTORE PUSH6 0x627920796F75 PUSH1 0xD0 SHL PUSH1 0x64 DUP3 ADD MSTORE PUSH1 0x84 ADD PUSH2 0x80C JUMP JUMPDEST DUP1 PUSH2 0x123B DUP2 PUSH2 0x3333 JUMP JUMPDEST SWAP2 POP POP PUSH2 0x1153 JUMP JUMPDEST POP PUSH1 0x0 JUMPDEST DUP3 MLOAD DUP2 LT ISZERO PUSH2 0xAA5 JUMPI DUP2 PUSH1 0x14 PUSH1 0x13 PUSH1 0x0 DUP7 DUP6 DUP2 MLOAD DUP2 LT PUSH2 0x1277 JUMPI PUSH4 0x4E487B71 PUSH1 0xE0 SHL PUSH1 0x0 MSTORE PUSH1 0x32 PUSH1 0x4 MSTORE PUSH1 0x24 PUSH1 0x0 REVERT JUMPDEST PUSH1 0x20 MUL PUSH1 0x20 ADD ADD MLOAD DUP2 MSTORE PUSH1 0x20 ADD SWAP1 DUP2 MSTORE PUSH1 0x20 ADD PUSH1 0x0 KECCAK256 SLOAD DUP2 SLOAD DUP2 LT PUSH2 0x12AC JUMPI PUSH4 0x4E487B71 PUSH1 0xE0 SHL PUSH1 0x0 MSTORE PUSH1 0x32 PUSH1 0x4 MSTORE PUSH1 0x24 PUSH1 0x0 REVERT JUMPDEST PUSH1 0x0 SWAP2 DUP3 MSTORE PUSH1 0x20 DUP1 DUP4 KECCAK256 PUSH1 0x6 SWAP3 SWAP1 SWAP3 MUL SWAP1 SWAP2 ADD PUSH1 0x2 ADD DUP1 SLOAD PUSH1 0x1 PUSH1 0x1 PUSH1 0xA0 SHL SUB NOT AND PUSH1 0x1 PUSH1 0x1 PUSH1 0xA0 SHL SUB SWAP5 DUP6 AND OR SWAP1 SSTORE DUP5 DUP4 AND DUP3 MSTORE DUP2 SWAP1 MSTORE PUSH1 0x40 DUP2 KECCAK256 SLOAD DUP6 MLOAD SWAP3 AND SWAP2 PUSH1 0x14 SWAP2 PUSH1 0x13 SWAP2 DUP8 SWAP1 DUP7 SWAP1 DUP2 LT PUSH2 0x1314 JUMPI PUSH4 0x4E487B71 PUSH1 0xE0 SHL PUSH1 0x0 MSTORE PUSH1 0x32 PUSH1 0x4 MSTORE PUSH1 0x24 PUSH1 0x0 REVERT JUMPDEST PUSH1 0x20 MUL PUSH1 0x20 ADD ADD MLOAD DUP2 MSTORE PUSH1 0x20 ADD SWAP1 DUP2 MSTORE PUSH1 0x20 ADD PUSH1 0x0 KECCAK256 SLOAD DUP2 SLOAD DUP2 LT PUSH2 0x1349 JUMPI PUSH4 0x4E487B71 PUSH1 0xE0 SHL PUSH1 0x0 MSTORE PUSH1 0x32 PUSH1 0x4 MSTORE PUSH1 0x24 PUSH1 0x0 REVERT JUMPDEST SWAP1 PUSH1 0x0 MSTORE PUSH1 0x20 PUSH1 0x0 KECCAK256 SWAP1 PUSH1 0x6 MUL ADD PUSH1 0x3 ADD PUSH1 0x0 PUSH2 0x100 EXP DUP2 SLOAD DUP2 PUSH1 0x1 PUSH1 0x1 PUSH1 0xA0 SHL SUB MUL NOT AND SWAP1 DUP4 PUSH1 0x1 PUSH1 0x1 PUSH1 0xA0 SHL SUB AND MUL OR SWAP1 SSTORE POP DUP1 DUP1 PUSH2 0x1389 SWAP1 PUSH2 0x3333 JUMP JUMPDEST SWAP2 POP POP PUSH2 0x1247 JUMP JUMPDEST PUSH1 0x0 PUSH1 0x14 PUSH1 0x13 PUSH1 0x0 DUP6 PUSH1 0x0 DUP2 MLOAD DUP2 LT PUSH2 0x13BA JUMPI PUSH4 0x4E487B71 PUSH1 0xE0 SHL PUSH1 0x0 MSTORE PUSH1 0x32 PUSH1 0x4 MSTORE PUSH1 0x24 PUSH1 0x0 REVERT JUMPDEST PUSH1 0x20 MUL PUSH1 0x20 ADD ADD MLOAD DUP2 MSTORE PUSH1 0x20 ADD SWAP1 DUP2 MSTORE PUSH1 0x20 ADD PUSH1 0x0 KECCAK256 SLOAD DUP2 SLOAD DUP2 LT PUSH2 0x13EF JUMPI PUSH4 0x4E487B71 PUSH1 0xE0 SHL PUSH1 0x0 MSTORE PUSH1 0x32 PUSH1 0x4 MSTORE PUSH1 0x24 PUSH1 0x0 REVERT JUMPDEST PUSH1 0x0 SWAP2 DUP3 MSTORE PUSH1 0x20 SWAP1 SWAP2 KECCAK256 PUSH1 0x2 PUSH1 0x6 SWAP1 SWAP3 MUL ADD ADD SLOAD PUSH1 0x1 PUSH1 0x1 PUSH1 0xA0 SHL SUB AND SWAP1 POP CALLER DUP2 EQ ISZERO PUSH2 0x147D JUMPI PUSH1 0x40 MLOAD PUSH3 0x461BCD PUSH1 0xE5 SHL DUP2 MSTORE PUSH1 0x20 PUSH1 0x4 DUP3 ADD MSTORE PUSH1 0x36 PUSH1 0x24 DUP3 ADD MSTORE PUSH32 0x796F7520616C7265616479206F776E6564206174206C65617374206F6E65206F PUSH1 0x44 DUP3 ADD MSTORE PUSH22 0x66207468652073656C65746374656420626C6F636B73 PUSH1 0x50 SHL PUSH1 0x64 DUP3 ADD MSTORE PUSH1 0x84 ADD PUSH2 0x80C JUMP JUMPDEST PUSH1 0x0 JUMPDEST DUP4 MLOAD DUP2 LT ISZERO PUSH2 0x1580 JUMPI DUP2 PUSH1 0x1 PUSH1 0x1 PUSH1 0xA0 SHL SUB AND PUSH1 0x14 PUSH1 0x13 PUSH1 0x0 DUP8 DUP6 DUP2 MLOAD DUP2 LT PUSH2 0x14B9 JUMPI PUSH4 0x4E487B71 PUSH1 0xE0 SHL PUSH1 0x0 MSTORE PUSH1 0x32 PUSH1 0x4 MSTORE PUSH1 0x24 PUSH1 0x0 REVERT JUMPDEST PUSH1 0x20 MUL PUSH1 0x20 ADD ADD MLOAD DUP2 MSTORE PUSH1 0x20 ADD SWAP1 DUP2 MSTORE PUSH1 0x20 ADD PUSH1 0x0 KECCAK256 SLOAD DUP2 SLOAD DUP2 LT PUSH2 0x14EE JUMPI PUSH4 0x4E487B71 PUSH1 0xE0 SHL PUSH1 0x0 MSTORE PUSH1 0x32 PUSH1 0x4 MSTORE PUSH1 0x24 PUSH1 0x0 REVERT JUMPDEST PUSH1 0x0 SWAP2 DUP3 MSTORE PUSH1 0x20 SWAP1 SWAP2 KECCAK256 PUSH1 0x2 PUSH1 0x6 SWAP1 SWAP3 MUL ADD ADD SLOAD PUSH1 0x1 PUSH1 0x1 PUSH1 0xA0 SHL SUB AND EQ PUSH2 0x156E JUMPI PUSH1 0x40 MLOAD PUSH3 0x461BCD PUSH1 0xE5 SHL DUP2 MSTORE PUSH1 0x20 PUSH1 0x4 DUP3 ADD MSTORE PUSH1 0x2D PUSH1 0x24 DUP3 ADD MSTORE PUSH32 0x796F75206861766520746F2073656C65637420626C6F636B7320776974682074 PUSH1 0x44 DUP3 ADD MSTORE PUSH13 0x34329039B0B6B29037BBB732B9 PUSH1 0x99 SHL PUSH1 0x64 DUP3 ADD MSTORE PUSH1 0x84 ADD PUSH2 0x80C JUMP JUMPDEST DUP1 PUSH2 0x1578 DUP2 PUSH2 0x3333 JUMP JUMPDEST SWAP2 POP POP PUSH2 0x1480 JUMP JUMPDEST POP PUSH1 0xB SLOAD PUSH2 0x158D DUP3 PUSH2 0x21AB JUMP JUMPDEST GT DUP1 PUSH2 0x15B2 JUMPI POP PUSH1 0x1 PUSH1 0x1 PUSH1 0xA0 SHL SUB DUP2 AND PUSH1 0x0 SWAP1 DUP2 MSTORE PUSH1 0xE PUSH1 0x20 MSTORE PUSH1 0x40 SWAP1 KECCAK256 SLOAD PUSH1 0xFF AND ISZERO JUMPDEST PUSH2 0x163B JUMPI PUSH1 0x40 MLOAD PUSH3 0x461BCD PUSH1 0xE5 SHL DUP2 MSTORE PUSH1 0x20 PUSH1 0x4 DUP3 ADD MSTORE PUSH1 0x4E PUSH1 0x24 DUP3 ADD MSTORE PUSH32 0x746865206F726967696E4F776E6572206C6F636B6564206974277320626C6F63 PUSH1 0x44 DUP3 ADD MSTORE PUSH32 0x6B732C20796F75206861766520746F20627579206869732F68657220626C6F63 PUSH1 0x64 DUP3 ADD MSTORE PUSH14 0x6B7320616C6C206174206F6E6365 PUSH1 0x90 SHL PUSH1 0x84 DUP3 ADD MSTORE PUSH1 0xA4 ADD PUSH2 0x80C JUMP JUMPDEST PUSH1 0x0 DUP1 JUMPDEST DUP5 MLOAD DUP2 LT ISZERO PUSH2 0x174A JUMPI PUSH1 0x14 PUSH1 0x13 PUSH1 0x0 DUP8 DUP5 DUP2 MLOAD DUP2 LT PUSH2 0x166E JUMPI PUSH4 0x4E487B71 PUSH1 0xE0 SHL PUSH1 0x0 MSTORE PUSH1 0x32 PUSH1 0x4 MSTORE PUSH1 0x24 PUSH1 0x0 REVERT JUMPDEST PUSH1 0x20 MUL PUSH1 0x20 ADD ADD MLOAD DUP2 MSTORE PUSH1 0x20 ADD SWAP1 DUP2 MSTORE PUSH1 0x20 ADD PUSH1 0x0 KECCAK256 SLOAD DUP2 SLOAD DUP2 LT PUSH2 0x16A3 JUMPI PUSH4 0x4E487B71 PUSH1 0xE0 SHL PUSH1 0x0 MSTORE PUSH1 0x32 PUSH1 0x4 MSTORE PUSH1 0x24 PUSH1 0x0 REVERT JUMPDEST SWAP1 PUSH1 0x0 MSTORE PUSH1 0x20 PUSH1 0x0 KECCAK256 SWAP1 PUSH1 0x6 MUL ADD PUSH1 0x5 ADD SLOAD PUSH1 0x14 PUSH1 0x13 PUSH1 0x0 DUP9 DUP6 DUP2 MLOAD DUP2 LT PUSH2 0x16DB JUMPI PUSH4 0x4E487B71 PUSH1 0xE0 SHL PUSH1 0x0 MSTORE PUSH1 0x32 PUSH1 0x4 MSTORE PUSH1 0x24 PUSH1 0x0 REVERT JUMPDEST PUSH1 0x20 MUL PUSH1 0x20 ADD ADD MLOAD DUP2 MSTORE PUSH1 0x20 ADD SWAP1 DUP2 MSTORE PUSH1 0x20 ADD PUSH1 0x0 KECCAK256 SLOAD DUP2 SLOAD DUP2 LT PUSH2 0x1710 JUMPI PUSH4 0x4E487B71 PUSH1 0xE0 SHL PUSH1 0x0 MSTORE PUSH1 0x32 PUSH1 0x4 MSTORE PUSH1 0x24 PUSH1 0x0 REVERT JUMPDEST SWAP1 PUSH1 0x0 MSTORE PUSH1 0x20 PUSH1 0x0 KECCAK256 SWAP1 PUSH1 0x6 MUL ADD PUSH1 0x4 ADD SLOAD PUSH2 0x172C SWAP2 SWAP1 PUSH2 0x32FD JUMP JUMPDEST PUSH2 0x1736 SWAP1 DUP4 PUSH2 0x32C5 JUMP JUMPDEST SWAP2 POP DUP1 PUSH2 0x1742 DUP2 PUSH2 0x3333 JUMP JUMPDEST SWAP2 POP POP PUSH2 0x163F JUMP JUMPDEST POP PUSH2 0x1753 PUSH2 0x241E JUMP JUMPDEST ISZERO PUSH2 0x19A2 JUMPI PUSH2 0x802 PUSH1 0x1 PUSH1 0x1 PUSH1 0xA0 SHL SUB AND PUSH4 0xA9059CBB DUP4 PUSH1 0x11 SLOAD PUSH2 0x2710 PUSH2 0x177A SWAP2 SWAP1 PUSH2 0x331C JUMP JUMPDEST PUSH2 0x1787 DUP6 PUSH3 0x989680 PUSH2 0x32FD JUMP JUMPDEST PUSH2 0x1791 SWAP2 SWAP1 PUSH2 0x32FD JUMP JUMPDEST PUSH1 0x40 MLOAD PUSH1 0x1 PUSH1 0x1 PUSH1 0xE0 SHL SUB NOT PUSH1 0xE0 DUP6 SWAP1 SHL AND DUP2 MSTORE PUSH1 0x1 PUSH1 0x1 PUSH1 0xA0 SHL SUB SWAP1 SWAP3 AND PUSH1 0x4 DUP4 ADD MSTORE PUSH1 0x24 DUP3 ADD MSTORE PUSH1 0x44 ADD PUSH1 0x20 PUSH1 0x40 MLOAD DUP1 DUP4 SUB DUP2 PUSH1 0x0 DUP8 DUP1 EXTCODESIZE ISZERO DUP1 ISZERO PUSH2 0x17D7 JUMPI PUSH1 0x0 DUP1 REVERT JUMPDEST POP GAS CALL ISZERO DUP1 ISZERO PUSH2 0x17EB JUMPI RETURNDATASIZE PUSH1 0x0 DUP1 RETURNDATACOPY RETURNDATASIZE PUSH1 0x0 REVERT JUMPDEST POP POP POP POP PUSH1 0x40 MLOAD RETURNDATASIZE PUSH1 0x1F NOT PUSH1 0x1F DUP3 ADD AND DUP3 ADD DUP1 PUSH1 0x40 MSTORE POP DUP2 ADD SWAP1 PUSH2 0x180F SWAP2 SWAP1 PUSH2 0x3182 JUMP JUMPDEST POP CALLER PUSH1 0x0 SWAP1 DUP2 MSTORE PUSH1 0x20 DUP2 SWAP1 MSTORE PUSH1 0x40 SWAP1 KECCAK256 SLOAD PUSH1 0x6 SLOAD PUSH2 0x802 SWAP2 PUSH4 0xA9059CBB SWAP2 PUSH1 0x1 PUSH1 0x1 PUSH1 0xA0 SHL SUB SWAP1 SWAP2 AND SWAP1 PUSH2 0x1846 DUP6 PUSH3 0x989680 PUSH2 0x32FD JUMP JUMPDEST PUSH2 0x1850 SWAP2 SWAP1 PUSH2 0x32FD JUMP JUMPDEST PUSH1 0x40 MLOAD PUSH1 0x1 PUSH1 0x1 PUSH1 0xE0 SHL SUB NOT PUSH1 0xE0 DUP6 SWAP1 SHL AND DUP2 MSTORE PUSH1 0x1 PUSH1 0x1 PUSH1 0xA0 SHL SUB SWAP1 SWAP3 AND PUSH1 0x4 DUP4 ADD MSTORE PUSH1 0x24 DUP3 ADD MSTORE PUSH1 0x44 ADD PUSH1 0x20 PUSH1 0x40 MLOAD DUP1 DUP4 SUB DUP2 PUSH1 0x0 DUP8 DUP1 EXTCODESIZE ISZERO DUP1 ISZERO PUSH2 0x1896 JUMPI PUSH1 0x0 DUP1 REVERT JUMPDEST POP GAS CALL ISZERO DUP1 ISZERO PUSH2 0x18AA JUMPI RETURNDATASIZE PUSH1 0x0 DUP1 RETURNDATACOPY RETURNDATASIZE PUSH1 0x0 REVERT JUMPDEST POP POP POP POP PUSH1 0x40 MLOAD RETURNDATASIZE PUSH1 0x1F NOT PUSH1 0x1F DUP3 ADD AND DUP3 ADD DUP1 PUSH1 0x40 MSTORE POP DUP2 ADD SWAP1 PUSH2 0x18CE SWAP2 SWAP1 PUSH2 0x3182 JUMP JUMPDEST POP PUSH1 0xF SLOAD PUSH1 0x6 SLOAD PUSH1 0x8 SLOAD PUSH1 0x11 SLOAD PUSH2 0x802 SWAP4 PUSH4 0xA9059CBB SWAP4 PUSH1 0x1 PUSH1 0x1 PUSH1 0xA0 SHL SUB SWAP1 SWAP2 AND SWAP3 SWAP1 SWAP2 PUSH2 0x18FD SWAP2 SWAP1 PUSH2 0x331C JUMP JUMPDEST PUSH2 0x1907 SWAP2 SWAP1 PUSH2 0x331C JUMP JUMPDEST PUSH2 0x1914 DUP6 PUSH3 0x989680 PUSH2 0x32FD JUMP JUMPDEST PUSH2 0x191E SWAP2 SWAP1 PUSH2 0x32FD JUMP JUMPDEST PUSH1 0x40 MLOAD PUSH1 0x1 PUSH1 0x1 PUSH1 0xE0 SHL SUB NOT PUSH1 0xE0 DUP6 SWAP1 SHL AND DUP2 MSTORE PUSH1 0x1 PUSH1 0x1 PUSH1 0xA0 SHL SUB SWAP1 SWAP3 AND PUSH1 0x4 DUP4 ADD MSTORE PUSH1 0x24 DUP3 ADD MSTORE PUSH1 0x44 ADD PUSH1 0x20 PUSH1 0x40 MLOAD DUP1 DUP4 SUB DUP2 PUSH1 0x0 DUP8 DUP1 EXTCODESIZE ISZERO DUP1 ISZERO PUSH2 0x1964 JUMPI PUSH1 0x0 DUP1 REVERT JUMPDEST POP GAS CALL ISZERO DUP1 ISZERO PUSH2 0x1978 JUMPI RETURNDATASIZE PUSH1 0x0 DUP1 RETURNDATACOPY RETURNDATASIZE PUSH1 0x0 REVERT JUMPDEST POP POP POP POP PUSH1 0x40 MLOAD RETURNDATASIZE PUSH1 0x1F NOT PUSH1 0x1F DUP3 ADD AND DUP3 ADD DUP1 PUSH1 0x40 MSTORE POP DUP2 ADD SWAP1 PUSH2 0x199C SWAP2 SWAP1 PUSH2 0x3182 JUMP JUMPDEST POP PUSH2 0x1B0D JUMP JUMPDEST PUSH2 0x802 PUSH1 0x1 PUSH1 0x1 PUSH1 0xA0 SHL SUB AND PUSH4 0xA9059CBB DUP4 PUSH1 0x11 SLOAD PUSH2 0x2710 PUSH2 0x19C4 SWAP2 SWAP1 PUSH2 0x331C JUMP JUMPDEST PUSH2 0x19D1 DUP6 PUSH3 0x989680 PUSH2 0x32FD JUMP JUMPDEST PUSH2 0x19DB SWAP2 SWAP1 PUSH2 0x32FD JUMP JUMPDEST PUSH1 0x40 MLOAD PUSH1 0x1 PUSH1 0x1 PUSH1 0xE0 SHL SUB NOT PUSH1 0xE0 DUP6 SWAP1 SHL AND DUP2 MSTORE PUSH1 0x1 PUSH1 0x1 PUSH1 0xA0 SHL SUB SWAP1 SWAP3 AND PUSH1 0x4 DUP4 ADD MSTORE PUSH1 0x24 DUP3 ADD MSTORE PUSH1 0x44 ADD PUSH1 0x20 PUSH1 0x40 MLOAD DUP1 DUP4 SUB DUP2 PUSH1 0x0 DUP8 DUP1 EXTCODESIZE ISZERO DUP1 ISZERO PUSH2 0x1A21 JUMPI PUSH1 0x0 DUP1 REVERT JUMPDEST POP GAS CALL ISZERO DUP1 ISZERO PUSH2 0x1A35 JUMPI RETURNDATASIZE PUSH1 0x0 DUP1 RETURNDATACOPY RETURNDATASIZE PUSH1 0x0 REVERT JUMPDEST POP POP POP POP PUSH1 0x40 MLOAD RETURNDATASIZE PUSH1 0x1F NOT PUSH1 0x1F DUP3 ADD AND DUP3 ADD DUP1 PUSH1 0x40 MSTORE POP DUP2 ADD SWAP1 PUSH2 0x1A59 SWAP2 SWAP1 PUSH2 0x3182 JUMP JUMPDEST POP PUSH1 0xF SLOAD PUSH1 0x11 SLOAD PUSH2 0x802 SWAP2 PUSH4 0xA9059CBB SWAP2 PUSH1 0x1 PUSH1 0x1 PUSH1 0xA0 SHL SUB SWAP1 SWAP2 AND SWAP1 PUSH2 0x1A83 DUP6 PUSH3 0x989680 PUSH2 0x32FD JUMP JUMPDEST PUSH2 0x1A8D SWAP2 SWAP1 PUSH2 0x32FD JUMP JUMPDEST PUSH1 0x40 MLOAD PUSH1 0x1 PUSH1 0x1 PUSH1 0xE0 SHL SUB NOT PUSH1 0xE0 DUP6 SWAP1 SHL AND DUP2 MSTORE PUSH1 0x1 PUSH1 0x1 PUSH1 0xA0 SHL SUB SWAP1 SWAP3 AND PUSH1 0x4 DUP4 ADD MSTORE PUSH1 0x24 DUP3 ADD MSTORE PUSH1 0x44 ADD PUSH1 0x20 PUSH1 0x40 MLOAD DUP1 DUP4 SUB DUP2 PUSH1 0x0 DUP8 DUP1 EXTCODESIZE ISZERO DUP1 ISZERO PUSH2 0x1AD3 JUMPI PUSH1 0x0 DUP1 REVERT JUMPDEST POP GAS CALL ISZERO DUP1 ISZERO PUSH2 0x1AE7 JUMPI RETURNDATASIZE PUSH1 0x0 DUP1 RETURNDATACOPY RETURNDATASIZE PUSH1 0x0 REVERT JUMPDEST POP POP POP POP PUSH1 0x40 MLOAD RETURNDATASIZE PUSH1 0x1F NOT PUSH1 0x1F DUP3 ADD AND DUP3 ADD DUP1 PUSH1 0x40 MSTORE POP DUP2 ADD SWAP1 PUSH2 0x1B0B SWAP2 SWAP1 PUSH2 0x3182 JUMP JUMPDEST POP JUMPDEST PUSH1 0x0 JUMPDEST DUP5 MLOAD DUP2 LT ISZERO PUSH2 0x1E27 JUMPI CALLER PUSH1 0x14 PUSH1 0x13 PUSH1 0x0 DUP9 DUP6 DUP2 MLOAD DUP2 LT PUSH2 0x1B40 JUMPI PUSH4 0x4E487B71 PUSH1 0xE0 SHL PUSH1 0x0 MSTORE PUSH1 0x32 PUSH1 0x4 MSTORE PUSH1 0x24 PUSH1 0x0 REVERT JUMPDEST PUSH1 0x20 MUL PUSH1 0x20 ADD ADD MLOAD DUP2 MSTORE PUSH1 0x20 ADD SWAP1 DUP2 MSTORE PUSH1 0x20 ADD PUSH1 0x0 KECCAK256 SLOAD DUP2 SLOAD DUP2 LT PUSH2 0x1B75 JUMPI PUSH4 0x4E487B71 PUSH1 0xE0 SHL PUSH1 0x0 MSTORE PUSH1 0x32 PUSH1 0x4 MSTORE PUSH1 0x24 PUSH1 0x0 REVERT JUMPDEST PUSH1 0x0 SWAP2 DUP3 MSTORE PUSH1 0x20 DUP1 DUP4 KECCAK256 PUSH1 0x6 SWAP3 SWAP1 SWAP3 MUL SWAP1 SWAP2 ADD PUSH1 0x2 ADD DUP1 SLOAD PUSH1 0x1 PUSH1 0x1 PUSH1 0xA0 SHL SUB NOT AND PUSH1 0x1 PUSH1 0x1 PUSH1 0xA0 SHL SUB SWAP5 DUP6 AND OR SWAP1 SSTORE CALLER DUP3 MSTORE DUP2 SWAP1 MSTORE PUSH1 0x40 DUP2 KECCAK256 SLOAD DUP8 MLOAD SWAP3 AND SWAP2 PUSH1 0x14 SWAP2 PUSH1 0x13 SWAP2 DUP10 SWAP1 DUP7 SWAP1 DUP2 LT PUSH2 0x1BDB JUMPI PUSH4 0x4E487B71 PUSH1 0xE0 SHL PUSH1 0x0 MSTORE PUSH1 0x32 PUSH1 0x4 MSTORE PUSH1 0x24 PUSH1 0x0 REVERT JUMPDEST PUSH1 0x20 MUL PUSH1 0x20 ADD ADD MLOAD DUP2 MSTORE PUSH1 0x20 ADD SWAP1 DUP2 MSTORE PUSH1 0x20 ADD PUSH1 0x0 KECCAK256 SLOAD DUP2 SLOAD DUP2 LT PUSH2 0x1C10 JUMPI PUSH4 0x4E487B71 PUSH1 0xE0 SHL PUSH1 0x0 MSTORE PUSH1 0x32 PUSH1 0x4 MSTORE PUSH1 0x24 PUSH1 0x0 REVERT JUMPDEST SWAP1 PUSH1 0x0 MSTORE PUSH1 0x20 PUSH1 0x0 KECCAK256 SWAP1 PUSH1 0x6 MUL ADD PUSH1 0x3 ADD PUSH1 0x0 PUSH2 0x100 EXP DUP2 SLOAD DUP2 PUSH1 0x1 PUSH1 0x1 PUSH1 0xA0 SHL SUB MUL NOT AND SWAP1 DUP4 PUSH1 0x1 PUSH1 0x1 PUSH1 0xA0 SHL SUB AND MUL OR SWAP1 SSTORE POP DUP4 PUSH1 0x14 PUSH1 0x13 PUSH1 0x0 DUP9 DUP6 DUP2 MLOAD DUP2 LT PUSH2 0x1C6C JUMPI PUSH4 0x4E487B71 PUSH1 0xE0 SHL PUSH1 0x0 MSTORE PUSH1 0x32 PUSH1 0x4 MSTORE PUSH1 0x24 PUSH1 0x0 REVERT JUMPDEST PUSH1 0x20 MUL PUSH1 0x20 ADD ADD MLOAD DUP2 MSTORE PUSH1 0x20 ADD SWAP1 DUP2 MSTORE PUSH1 0x20 ADD PUSH1 0x0 KECCAK256 SLOAD DUP2 SLOAD DUP2 LT PUSH2 0x1CA1 JUMPI PUSH4 0x4E487B71 PUSH1 0xE0 SHL PUSH1 0x0 MSTORE PUSH1 0x32 PUSH1 0x4 MSTORE PUSH1 0x24 PUSH1 0x0 REVERT JUMPDEST SWAP1 PUSH1 0x0 MSTORE PUSH1 0x20 PUSH1 0x0 KECCAK256 SWAP1 PUSH1 0x6 MUL ADD PUSH1 0x1 ADD DUP2 SWAP1 SSTORE POP PUSH1 0x64 PUSH1 0x14 PUSH1 0x13 PUSH1 0x0 DUP9 DUP6 DUP2 MLOAD DUP2 LT PUSH2 0x1CDE JUMPI PUSH4 0x4E487B71 PUSH1 0xE0 SHL PUSH1 0x0 MSTORE PUSH1 0x32 PUSH1 0x4 MSTORE PUSH1 0x24 PUSH1 0x0 REVERT JUMPDEST PUSH1 0x20 MUL PUSH1 0x20 ADD ADD MLOAD DUP2 MSTORE PUSH1 0x20 ADD SWAP1 DUP2 MSTORE PUSH1 0x20 ADD PUSH1 0x0 KECCAK256 SLOAD DUP2 SLOAD DUP2 LT PUSH2 0x1D13 JUMPI PUSH4 0x4E487B71 PUSH1 0xE0 SHL PUSH1 0x0 MSTORE PUSH1 0x32 PUSH1 0x4 MSTORE PUSH1 0x24 PUSH1 0x0 REVERT JUMPDEST SWAP1 PUSH1 0x0 MSTORE PUSH1 0x20 PUSH1 0x0 KECCAK256 SWAP1 PUSH1 0x6 MUL ADD PUSH1 0x5 ADD SLOAD PUSH1 0x14 PUSH1 0x13 PUSH1 0x0 DUP10 DUP7 DUP2 MLOAD DUP2 LT PUSH2 0x1D4B JUMPI PUSH4 0x4E487B71 PUSH1 0xE0 SHL PUSH1 0x0 MSTORE PUSH1 0x32 PUSH1 0x4 MSTORE PUSH1 0x24 PUSH1 0x0 REVERT JUMPDEST PUSH1 0x20 MUL PUSH1 0x20 ADD ADD MLOAD DUP2 MSTORE PUSH1 0x20 ADD SWAP1 DUP2 MSTORE PUSH1 0x20 ADD PUSH1 0x0 KECCAK256 SLOAD DUP2 SLOAD DUP2 LT PUSH2 0x1D80 JUMPI PUSH4 0x4E487B71 PUSH1 0xE0 SHL PUSH1 0x0 MSTORE PUSH1 0x32 PUSH1 0x4 MSTORE PUSH1 0x24 PUSH1 0x0 REVERT JUMPDEST SWAP1 PUSH1 0x0 MSTORE PUSH1 0x20 PUSH1 0x0 KECCAK256 SWAP1 PUSH1 0x6 MUL ADD PUSH1 0x4 ADD SLOAD PUSH2 0x1D9C SWAP2 SWAP1 PUSH2 0x32FD JUMP JUMPDEST PUSH2 0x1DA6 SWAP2 SWAP1 PUSH2 0x32DD JUMP JUMPDEST PUSH1 0x14 PUSH1 0x13 PUSH1 0x0 DUP9 DUP6 DUP2 MLOAD DUP2 LT PUSH2 0x1DCC JUMPI PUSH4 0x4E487B71 PUSH1 0xE0 SHL PUSH1 0x0 MSTORE PUSH1 0x32 PUSH1 0x4 MSTORE PUSH1 0x24 PUSH1 0x0 REVERT JUMPDEST PUSH1 0x20 MUL PUSH1 0x20 ADD ADD MLOAD DUP2 MSTORE PUSH1 0x20 ADD SWAP1 DUP2 MSTORE PUSH1 0x20 ADD PUSH1 0x0 KECCAK256 SLOAD DUP2 SLOAD DUP2 LT PUSH2 0x1E01 JUMPI PUSH4 0x4E487B71 PUSH1 0xE0 SHL PUSH1 0x0 MSTORE PUSH1 0x32 PUSH1 0x4 MSTORE PUSH1 0x24 PUSH1 0x0 REVERT JUMPDEST PUSH1 0x0 SWAP2 DUP3 MSTORE PUSH1 0x20 SWAP1 SWAP2 KECCAK256 PUSH1 0x4 PUSH1 0x6 SWAP1 SWAP3 MUL ADD ADD SSTORE DUP1 PUSH2 0x1E1F DUP2 PUSH2 0x3333 JUMP JUMPDEST SWAP2 POP POP PUSH2 0x1B10 JUMP JUMPDEST POP POP POP POP POP JUMP JUMPDEST PUSH1 0xF SLOAD PUSH1 0x1 PUSH1 0x1 PUSH1 0xA0 SHL SUB AND CALLER EQ PUSH2 0x1E58 JUMPI PUSH1 0x40 MLOAD PUSH3 0x461BCD PUSH1 0xE5 SHL DUP2 MSTORE PUSH1 0x4 ADD PUSH2 0x80C SWAP1 PUSH2 0x32A2 JUMP JUMPDEST PUSH2 0x2710 PUSH1 0x11 SLOAD GT ISZERO PUSH2 0x1E9F JUMPI PUSH1 0x40 MLOAD PUSH3 0x461BCD PUSH1 0xE5 SHL DUP2 MSTORE PUSH1 0x20 PUSH1 0x4 DUP3 ADD MSTORE PUSH1 0x10 PUSH1 0x24 DUP3 ADD MSTORE PUSH16 0x666565206F7574206F662072616E6765 PUSH1 0x80 SHL PUSH1 0x44 DUP3 ADD MSTORE PUSH1 0x64 ADD PUSH2 0x80C JUMP JUMPDEST PUSH1 0x11 SSTORE JUMP JUMPDEST PUSH1 0x0 DUP2 DUP2 MSTORE PUSH1 0x13 PUSH1 0x20 MSTORE PUSH1 0x40 DUP2 KECCAK256 SLOAD PUSH1 0x14 DUP1 SLOAD SWAP1 SWAP2 SWAP1 DUP2 LT PUSH2 0x1ED6 JUMPI PUSH4 0x4E487B71 PUSH1 0xE0 SHL PUSH1 0x0 MSTORE PUSH1 0x32 PUSH1 0x4 MSTORE PUSH1 0x24 PUSH1 0x0 REVERT JUMPDEST PUSH1 0x0 SWAP2 DUP3 MSTORE PUSH1 0x20 SWAP1 SWAP2 KECCAK256 PUSH1 0x2 PUSH1 0x6 SWAP1 SWAP3 MUL ADD ADD SLOAD PUSH1 0x1 PUSH1 0x1 PUSH1 0xA0 SHL SUB AND SWAP3 SWAP2 POP POP JUMP JUMPDEST PUSH1 0x3 SLOAD PUSH1 0x0 SWAP1 PUSH1 0xFF AND DUP1 ISZERO PUSH2 0x1F33 JUMPI POP PUSH1 0x4 SLOAD PUSH1 0x1 PUSH1 0x1 PUSH1 0xA0 SHL SUB DUP1 DUP5 AND PUSH1 0x0 SWAP1 DUP2 MSTORE PUSH1 0x20 DUP2 SWAP1 MSTORE PUSH1 0x40 SWAP1 KECCAK256 SLOAD PUSH2 0x1F30 SWAP2 AND PUSH2 0x22A7 JUMP JUMPDEST LT ISZERO JUMPDEST SWAP3 SWAP2 POP POP JUMP JUMPDEST PUSH1 0x9 SLOAD DUP2 LT ISZERO DUP1 ISZERO PUSH2 0x1F4D JUMPI POP PUSH1 0xA SLOAD DUP2 GT ISZERO JUMPDEST PUSH2 0x1F92 JUMPI PUSH1 0x40 MLOAD PUSH3 0x461BCD PUSH1 0xE5 SHL DUP2 MSTORE PUSH1 0x20 PUSH1 0x4 DUP3 ADD MSTORE PUSH1 0x16 PUSH1 0x24 DUP3 ADD MSTORE PUSH22 0x707269636552617465206F7574206F662072616E6765 PUSH1 0x50 SHL PUSH1 0x44 DUP3 ADD MSTORE PUSH1 0x64 ADD PUSH2 0x80C JUMP JUMPDEST PUSH1 0xD DUP1 SLOAD PUSH2 0x1FA2 SWAP2 PUSH1 0xC SWAP2 PUSH2 0x2F72 JUMP JUMPDEST POP PUSH1 0x0 JUMPDEST PUSH1 0x14 SLOAD DUP2 LT ISZERO PUSH2 0x2058 JUMPI CALLER PUSH1 0x1 PUSH1 0x1 PUSH1 0xA0 SHL SUB AND PUSH1 0x14 DUP3 DUP2 SLOAD DUP2 LT PUSH2 0x1FDB JUMPI PUSH4 0x4E487B71 PUSH1 0xE0 SHL PUSH1 0x0 MSTORE PUSH1 0x32 PUSH1 0x4 MSTORE PUSH1 0x24 PUSH1 0x0 REVERT JUMPDEST PUSH1 0x0 SWAP2 DUP3 MSTORE PUSH1 0x20 SWAP1 SWAP2 KECCAK256 PUSH1 0x2 PUSH1 0x6 SWAP1 SWAP3 MUL ADD ADD SLOAD PUSH1 0x1 PUSH1 0x1 PUSH1 0xA0 SHL SUB AND EQ ISZERO PUSH2 0x2046 JUMPI PUSH1 0xC PUSH1 0x14 DUP3 DUP2 SLOAD DUP2 LT PUSH2 0x2021 JUMPI PUSH4 0x4E487B71 PUSH1 0xE0 SHL PUSH1 0x0 MSTORE PUSH1 0x32 PUSH1 0x4 MSTORE PUSH1 0x24 PUSH1 0x0 REVERT JUMPDEST PUSH1 0x0 SWAP2 DUP3 MSTORE PUSH1 0x20 DUP1 DUP4 KECCAK256 PUSH1 0x6 SWAP1 SWAP3 MUL SWAP1 SWAP2 ADD SLOAD DUP4 SLOAD PUSH1 0x1 DUP2 ADD DUP6 SSTORE SWAP4 DUP4 MSTORE SWAP2 KECCAK256 SWAP1 SWAP2 ADD SSTORE JUMPDEST DUP1 PUSH2 0x2050 DUP2 PUSH2 0x3333 JUMP JUMPDEST SWAP2 POP POP PUSH2 0x1FA6 JUMP JUMPDEST POP PUSH1 0xC SLOAD PUSH2 0x20A8 JUMPI PUSH1 0x40 MLOAD PUSH3 0x461BCD PUSH1 0xE5 SHL DUP2 MSTORE PUSH1 0x20 PUSH1 0x4 DUP3 ADD MSTORE PUSH1 0x1E PUSH1 0x24 DUP3 ADD MSTORE PUSH32 0x796F7520646F6E2774206F776E20616E79206F662074686520626C6F636B0000 PUSH1 0x44 DUP3 ADD MSTORE PUSH1 0x64 ADD PUSH2 0x80C JUMP JUMPDEST PUSH1 0x0 JUMPDEST PUSH1 0xC SLOAD DUP2 LT ISZERO PUSH2 0x213B JUMPI DUP2 PUSH1 0x14 PUSH1 0x13 PUSH1 0x0 PUSH1 0xC DUP6 DUP2 SLOAD DUP2 LT PUSH2 0x20DD JUMPI PUSH4 0x4E487B71 PUSH1 0xE0 SHL PUSH1 0x0 MSTORE PUSH1 0x32 PUSH1 0x4 MSTORE PUSH1 0x24 PUSH1 0x0 REVERT JUMPDEST SWAP1 PUSH1 0x0 MSTORE PUSH1 0x20 PUSH1 0x0 KECCAK256 ADD SLOAD DUP2 MSTORE PUSH1 0x20 ADD SWAP1 DUP2 MSTORE PUSH1 0x20 ADD PUSH1 0x0 KECCAK256 SLOAD DUP2 SLOAD DUP2 LT PUSH2 0x2115 JUMPI PUSH4 0x4E487B71 PUSH1 0xE0 SHL PUSH1 0x0 MSTORE PUSH1 0x32 PUSH1 0x4 MSTORE PUSH1 0x24 PUSH1 0x0 REVERT JUMPDEST PUSH1 0x0 SWAP2 DUP3 MSTORE PUSH1 0x20 SWAP1 SWAP2 KECCAK256 PUSH1 0x5 PUSH1 0x6 SWAP1 SWAP3 MUL ADD ADD SSTORE DUP1 PUSH2 0x2133 DUP2 PUSH2 0x3333 JUMP JUMPDEST SWAP2 POP POP PUSH2 0x20AB JUMP JUMPDEST POP POP JUMP JUMPDEST PUSH1 0xF SLOAD PUSH1 0x1 PUSH1 0x1 PUSH1 0xA0 SHL SUB AND CALLER EQ PUSH2 0x2169 JUMPI PUSH1 0x40 MLOAD PUSH3 0x461BCD PUSH1 0xE5 SHL DUP2 MSTORE PUSH1 0x4 ADD PUSH2 0x80C SWAP1 PUSH2 0x32A2 JUMP JUMPDEST PUSH1 0x3 DUP1 SLOAD PUSH1 0xFF NOT AND SWAP2 ISZERO ISZERO SWAP2 SWAP1 SWAP2 OR SWAP1 SSTORE JUMP JUMPDEST PUSH1 0xF SLOAD PUSH1 0x1 PUSH1 0x1 PUSH1 0xA0 SHL SUB AND CALLER EQ PUSH2 0x21A6 JUMPI PUSH1 0x40 MLOAD PUSH3 0x461BCD PUSH1 0xE5 SHL DUP2 MSTORE PUSH1 0x4 ADD PUSH2 0x80C SWAP1 PUSH2 0x32A2 JUMP JUMPDEST PUSH1 0x5 SSTORE JUMP JUMPDEST PUSH1 0x0 DUP1 JUMPDEST PUSH1 0x14 SLOAD DUP2 LT ISZERO PUSH2 0x2227 JUMPI DUP3 PUSH1 0x1 PUSH1 0x1 PUSH1 0xA0 SHL SUB AND PUSH1 0x14 DUP3 DUP2 SLOAD DUP2 LT PUSH2 0x21E4 JUMPI PUSH4 0x4E487B71 PUSH1 0xE0 SHL PUSH1 0x0 MSTORE PUSH1 0x32 PUSH1 0x4 MSTORE PUSH1 0x24 PUSH1 0x0 REVERT JUMPDEST PUSH1 0x0 SWAP2 DUP3 MSTORE PUSH1 0x20 SWAP1 SWAP2 KECCAK256 PUSH1 0x2 PUSH1 0x6 SWAP1 SWAP3 MUL ADD ADD SLOAD PUSH1 0x1 PUSH1 0x1 PUSH1 0xA0 SHL SUB AND EQ ISZERO PUSH2 0x2215 JUMPI DUP2 PUSH2 0x2211 DUP2 PUSH2 0x3333 JUMP JUMPDEST SWAP3 POP POP JUMPDEST DUP1 PUSH2 0x221F DUP2 PUSH2 0x3333 JUMP JUMPDEST SWAP2 POP POP PUSH2 0x21AF JUMP JUMPDEST POP SWAP2 SWAP1 POP JUMP JUMPDEST PUSH1 0x0 DUP2 DUP2 MSTORE PUSH1 0x13 PUSH1 0x20 MSTORE PUSH1 0x40 DUP2 KECCAK256 SLOAD PUSH1 0x14 DUP1 SLOAD SWAP1 SWAP2 SWAP1 DUP2 LT PUSH2 0x225F JUMPI PUSH4 0x4E487B71 PUSH1 0xE0 SHL PUSH1 0x0 MSTORE PUSH1 0x32 PUSH1 0x4 MSTORE PUSH1 0x24 PUSH1 0x0 REVERT JUMPDEST SWAP1 PUSH1 0x0 MSTORE PUSH1 0x20 PUSH1 0x0 KECCAK256 SWAP1 PUSH1 0x6 MUL ADD PUSH1 0x4 ADD SLOAD SWAP1 POP SWAP2 SWAP1 POP JUMP JUMPDEST PUSH1 0xF SLOAD PUSH1 0x1 PUSH1 0x1 PUSH1 0xA0 SHL SUB AND CALLER EQ PUSH2 0x22A2 JUMPI PUSH1 0x40 MLOAD PUSH3 0x461BCD PUSH1 0xE5 SHL DUP2 MSTORE PUSH1 0x4 ADD PUSH2 0x80C SWAP1 PUSH2 0x32A2 JUMP JUMPDEST PUSH1 0x9 SSTORE JUMP JUMPDEST PUSH1 0x0 DUP1 PUSH1 0x1 JUMPDEST PUSH1 0x14 SLOAD DUP2 LT ISZERO PUSH2 0x2325 JUMPI DUP4 PUSH1 0x1 PUSH1 0x1 PUSH1 0xA0 SHL SUB AND PUSH1 0x14 DUP3 DUP2 SLOAD DUP2 LT PUSH2 0x22E2 JUMPI PUSH4 0x4E487B71 PUSH1 0xE0 SHL PUSH1 0x0 MSTORE PUSH1 0x32 PUSH1 0x4 MSTORE PUSH1 0x24 PUSH1 0x0 REVERT JUMPDEST PUSH1 0x0 SWAP2 DUP3 MSTORE PUSH1 0x20 SWAP1 SWAP2 KECCAK256 PUSH1 0x3 PUSH1 0x6 SWAP1 SWAP3 MUL ADD ADD SLOAD PUSH1 0x1 PUSH1 0x1 PUSH1 0xA0 SHL SUB AND EQ ISZERO PUSH2 0x2313 JUMPI PUSH2 0x2310 PUSH1 0x1 DUP4 PUSH2 0x32C5 JUMP JUMPDEST SWAP2 POP JUMPDEST DUP1 PUSH2 0x231D DUP2 PUSH2 0x3333 JUMP JUMPDEST SWAP2 POP POP PUSH2 0x22AD JUMP JUMPDEST POP SWAP3 SWAP2 POP POP JUMP JUMPDEST PUSH1 0x0 DUP2 DUP2 MSTORE PUSH1 0x13 PUSH1 0x20 MSTORE PUSH1 0x40 DUP2 KECCAK256 SLOAD PUSH1 0x14 DUP1 SLOAD SWAP1 SWAP2 SWAP1 DUP2 LT PUSH2 0x235E JUMPI PUSH4 0x4E487B71 PUSH1 0xE0 SHL PUSH1 0x0 MSTORE PUSH1 0x32 PUSH1 0x4 MSTORE PUSH1 0x24 PUSH1 0x0 REVERT JUMPDEST SWAP1 PUSH1 0x0 MSTORE PUSH1 0x20 PUSH1 0x0 KECCAK256 SWAP1 PUSH1 0x6 MUL ADD PUSH1 0x5 ADD SLOAD PUSH1 0x14 PUSH1 0x13 PUSH1 0x0 DUP6 DUP2 MSTORE PUSH1 0x20 ADD SWAP1 DUP2 MSTORE PUSH1 0x20 ADD PUSH1 0x0 KECCAK256 SLOAD DUP2 SLOAD DUP2 LT PUSH2 0x23A4 JUMPI PUSH4 0x4E487B71 PUSH1 0xE0 SHL PUSH1 0x0 MSTORE PUSH1 0x32 PUSH1 0x4 MSTORE PUSH1 0x24 PUSH1 0x0 REVERT JUMPDEST SWAP1 PUSH1 0x0 MSTORE PUSH1 0x20 PUSH1 0x0 KECCAK256 SWAP1 PUSH1 0x6 MUL ADD PUSH1 0x4 ADD SLOAD PUSH2 0x1F33 SWAP2 SWAP1 PUSH2 0x32FD JUMP JUMPDEST PUSH1 0xF SLOAD PUSH1 0x1 PUSH1 0x1 PUSH1 0xA0 SHL SUB AND CALLER EQ PUSH2 0x23EA JUMPI PUSH1 0x40 MLOAD PUSH3 0x461BCD PUSH1 0xE5 SHL DUP2 MSTORE PUSH1 0x4 ADD PUSH2 0x80C SWAP1 PUSH2 0x32A2 JUMP JUMPDEST PUSH1 0xA SSTORE JUMP JUMPDEST PUSH1 0xF SLOAD PUSH1 0x1 PUSH1 0x1 PUSH1 0xA0 SHL SUB AND CALLER EQ PUSH2 0x2419 JUMPI PUSH1 0x40 MLOAD PUSH3 0x461BCD PUSH1 0xE5 SHL DUP2 MSTORE PUSH1 0x4 ADD PUSH2 0x80C SWAP1 PUSH2 0x32A2 JUMP JUMPDEST PUSH1 0x6 SSTORE JUMP JUMPDEST CALLER PUSH1 0x0 SWAP1 DUP2 MSTORE PUSH1 0x20 DUP2 SWAP1 MSTORE PUSH1 0x40 DUP2 KECCAK256 SLOAD PUSH1 0x1 PUSH1 0x1 PUSH1 0xA0 SHL SUB AND ISZERO DUP1 ISZERO SWAP1 PUSH2 0x2447 JUMPI POP PUSH1 0x3 SLOAD PUSH1 0xFF AND JUMPDEST DUP1 ISZERO PUSH2 0x2476 JUMPI POP PUSH1 0x4 SLOAD CALLER PUSH1 0x0 SWAP1 DUP2 MSTORE PUSH1 0x20 DUP2 SWAP1 MSTORE PUSH1 0x40 SWAP1 KECCAK256 SLOAD PUSH2 0x2473 SWAP1 PUSH1 0x1 PUSH1 0x1 PUSH1 0xA0 SHL SUB AND PUSH2 0x22A7 JUMP JUMPDEST LT ISZERO JUMPDEST SWAP1 POP SWAP1 JUMP JUMPDEST PUSH1 0xF SLOAD PUSH1 0x1 PUSH1 0x1 PUSH1 0xA0 SHL SUB AND CALLER EQ PUSH2 0x24A5 JUMPI PUSH1 0x40 MLOAD PUSH3 0x461BCD PUSH1 0xE5 SHL DUP2 MSTORE PUSH1 0x4 ADD PUSH2 0x80C SWAP1 PUSH2 0x32A2 JUMP JUMPDEST PUSH4 0x5F5E100 DUP2 GT ISZERO PUSH2 0x24EC JUMPI PUSH1 0x40 MLOAD PUSH3 0x461BCD PUSH1 0xE5 SHL DUP2 MSTORE PUSH1 0x20 PUSH1 0x4 DUP3 ADD MSTORE PUSH1 0x10 PUSH1 0x24 DUP3 ADD MSTORE PUSH16 0x666565206F7574206F662072616E6765 PUSH1 0x80 SHL PUSH1 0x44 DUP3 ADD MSTORE PUSH1 0x64 ADD PUSH2 0x80C JUMP JUMPDEST PUSH1 0x12 SSTORE JUMP JUMPDEST PUSH2 0x24FA DUP3 PUSH2 0x2CE6 JUMP JUMPDEST PUSH2 0x2546 JUMPI PUSH1 0x40 MLOAD PUSH3 0x461BCD PUSH1 0xE5 SHL DUP2 MSTORE PUSH1 0x20 PUSH1 0x4 DUP3 ADD MSTORE PUSH1 0x1C PUSH1 0x24 DUP3 ADD MSTORE PUSH32 0x6174206C65617374206F6E65206964206F7574206F662072616E676500000000 PUSH1 0x44 DUP3 ADD MSTORE PUSH1 0x64 ADD PUSH2 0x80C JUMP JUMPDEST PUSH1 0x7E DUP2 LT DUP1 ISZERO PUSH2 0x2555 JUMPI POP DUP1 ISZERO ISZERO JUMPDEST PUSH2 0x2599 JUMPI PUSH1 0x40 MLOAD PUSH3 0x461BCD PUSH1 0xE5 SHL DUP2 MSTORE PUSH1 0x20 PUSH1 0x4 DUP3 ADD MSTORE PUSH1 0x15 PUSH1 0x24 DUP3 ADD MSTORE PUSH21 0x636F6C6F724E756D206F7574206F662072616E6765 PUSH1 0x58 SHL PUSH1 0x44 DUP3 ADD MSTORE PUSH1 0x64 ADD PUSH2 0x80C JUMP JUMPDEST PUSH1 0x0 DUP1 JUMPDEST DUP4 MLOAD DUP2 LT ISZERO PUSH2 0x2605 JUMPI PUSH2 0x25E5 DUP5 DUP3 DUP2 MLOAD DUP2 LT PUSH2 0x25C9 JUMPI PUSH4 0x4E487B71 PUSH1 0xE0 SHL PUSH1 0x0 MSTORE PUSH1 0x32 PUSH1 0x4 MSTORE PUSH1 0x24 PUSH1 0x0 REVERT JUMPDEST PUSH1 0x20 MUL PUSH1 0x20 ADD ADD MLOAD PUSH1 0x0 SWAP1 DUP2 MSTORE PUSH1 0x13 PUSH1 0x20 MSTORE PUSH1 0x40 SWAP1 KECCAK256 SLOAD ISZERO ISZERO SWAP1 JUMP JUMPDEST ISZERO PUSH2 0x25F3 JUMPI PUSH1 0x1 SWAP2 POP PUSH2 0x2605 JUMP JUMPDEST DUP1 PUSH2 0x25FD DUP2 PUSH2 0x3333 JUMP JUMPDEST SWAP2 POP POP PUSH2 0x259D JUMP JUMPDEST POP DUP1 PUSH2 0xAA5 JUMPI PUSH2 0x2613 PUSH2 0x241E JUMP JUMPDEST ISZERO PUSH2 0x29DA JUMPI CALLER PUSH1 0x0 SWAP1 DUP2 MSTORE PUSH1 0x20 DUP2 SWAP1 MSTORE PUSH1 0x40 SWAP1 KECCAK256 SLOAD PUSH1 0x5 SLOAD DUP5 MLOAD PUSH2 0x802 SWAP3 PUSH4 0xA9059CBB SWAP3 PUSH1 0x1 PUSH1 0x1 PUSH1 0xA0 SHL SUB SWAP1 SWAP2 AND SWAP2 PUSH2 0x2652 SWAP1 PUSH5 0x174876E800 PUSH2 0x32FD JUMP JUMPDEST PUSH2 0x265C SWAP2 SWAP1 PUSH2 0x32FD JUMP JUMPDEST PUSH1 0x40 MLOAD PUSH1 0x1 PUSH1 0x1 PUSH1 0xE0 SHL SUB NOT PUSH1 0xE0 DUP6 SWAP1 SHL AND DUP2 MSTORE PUSH1 0x1 PUSH1 0x1 PUSH1 0xA0 SHL SUB SWAP1 SWAP3 AND PUSH1 0x4 DUP4 ADD MSTORE PUSH1 0x24 DUP3 ADD MSTORE PUSH1 0x44 ADD PUSH1 0x20 PUSH1 0x40 MLOAD DUP1 DUP4 SUB DUP2 PUSH1 0x0 DUP8 DUP1 EXTCODESIZE ISZERO DUP1 ISZERO PUSH2 0x26A2 JUMPI PUSH1 0x0 DUP1 REVERT JUMPDEST POP GAS CALL ISZERO DUP1 ISZERO PUSH2 0x26B6 JUMPI RETURNDATASIZE PUSH1 0x0 DUP1 RETURNDATACOPY RETURNDATASIZE PUSH1 0x0 REVERT JUMPDEST POP POP POP POP PUSH1 0x40 MLOAD RETURNDATASIZE PUSH1 0x1F NOT PUSH1 0x1F DUP3 ADD AND DUP3 ADD DUP1 PUSH1 0x40 MSTORE POP DUP2 ADD SWAP1 PUSH2 0x26DA SWAP2 SWAP1 PUSH2 0x3182 JUMP JUMPDEST POP PUSH1 0xF SLOAD PUSH1 0x7 SLOAD PUSH1 0x5 SLOAD PUSH1 0x12 SLOAD PUSH2 0x802 SWAP4 PUSH4 0xA9059CBB SWAP4 PUSH1 0x1 PUSH1 0x1 PUSH1 0xA0 SHL SUB SWAP1 SWAP2 AND SWAP3 SWAP1 SWAP2 PUSH2 0x2709 SWAP2 SWAP1 PUSH2 0x331C JUMP JUMPDEST PUSH2 0x2713 SWAP2 SWAP1 PUSH2 0x331C JUMP JUMPDEST DUP7 MLOAD PUSH2 0x2724 SWAP1 PUSH5 0x174876E800 PUSH2 0x32FD JUMP JUMPDEST PUSH2 0x272E SWAP2 SWAP1 PUSH2 0x32FD JUMP JUMPDEST PUSH1 0x40 MLOAD PUSH1 0x1 PUSH1 0x1 PUSH1 0xE0 SHL SUB NOT PUSH1 0xE0 DUP6 SWAP1 SHL AND DUP2 MSTORE PUSH1 0x1 PUSH1 0x1 PUSH1 0xA0 SHL SUB SWAP1 SWAP3 AND PUSH1 0x4 DUP4 ADD MSTORE PUSH1 0x24 DUP3 ADD MSTORE PUSH1 0x44 ADD PUSH1 0x20 PUSH1 0x40 MLOAD DUP1 DUP4 SUB DUP2 PUSH1 0x0 DUP8 DUP1 EXTCODESIZE ISZERO DUP1 ISZERO PUSH2 0x2774 JUMPI PUSH1 0x0 DUP1 REVERT JUMPDEST POP GAS CALL ISZERO DUP1 ISZERO PUSH2 0x2788 JUMPI RETURNDATASIZE PUSH1 0x0 DUP1 RETURNDATACOPY RETURNDATASIZE PUSH1 0x0 REVERT JUMPDEST POP POP POP POP PUSH1 0x40 MLOAD RETURNDATASIZE PUSH1 0x1F NOT PUSH1 0x1F DUP3 ADD AND DUP3 ADD DUP1 PUSH1 0x40 MSTORE POP DUP2 ADD SWAP1 PUSH2 0x27AC SWAP2 SWAP1 PUSH2 0x3182 JUMP JUMPDEST POP PUSH1 0x0 JUMPDEST DUP4 MLOAD DUP2 LT ISZERO PUSH2 0x29D4 JUMPI PUSH2 0x27DC DUP5 DUP3 DUP2 MLOAD DUP2 LT PUSH2 0x25C9 JUMPI PUSH4 0x4E487B71 PUSH1 0xE0 SHL PUSH1 0x0 MSTORE PUSH1 0x32 PUSH1 0x4 MSTORE PUSH1 0x24 PUSH1 0x0 REVERT JUMPDEST PUSH2 0x29C2 JUMPI PUSH1 0x14 DUP1 SLOAD SWAP1 POP PUSH1 0x13 PUSH1 0x0 DUP7 DUP5 DUP2 MLOAD DUP2 LT PUSH2 0x280A JUMPI PUSH4 0x4E487B71 PUSH1 0xE0 SHL PUSH1 0x0 MSTORE PUSH1 0x32 PUSH1 0x4 MSTORE PUSH1 0x24 PUSH1 0x0 REVERT JUMPDEST PUSH1 0x20 MUL PUSH1 0x20 ADD ADD MLOAD DUP2 MSTORE PUSH1 0x20 ADD SWAP1 DUP2 MSTORE PUSH1 0x20 ADD PUSH1 0x0 KECCAK256 DUP2 SWAP1 SSTORE POP PUSH1 0x0 PUSH1 0x40 MLOAD DUP1 PUSH1 0xC0 ADD PUSH1 0x40 MSTORE DUP1 DUP7 DUP5 DUP2 MLOAD DUP2 LT PUSH2 0x2851 JUMPI PUSH4 0x4E487B71 PUSH1 0xE0 SHL PUSH1 0x0 MSTORE PUSH1 0x32 PUSH1 0x4 MSTORE PUSH1 0x24 PUSH1 0x0 REVERT JUMPDEST PUSH1 0x20 SWAP1 DUP2 MUL SWAP2 SWAP1 SWAP2 ADD DUP2 ADD MLOAD DUP3 MSTORE DUP2 DUP2 ADD DUP8 SWAP1 MSTORE CALLER PUSH1 0x40 DUP1 DUP5 ADD DUP3 SWAP1 MSTORE PUSH1 0x0 SWAP2 DUP3 MSTORE DUP2 DUP4 MSTORE DUP1 DUP3 KECCAK256 SLOAD PUSH1 0x1 PUSH1 0x1 PUSH1 0xA0 SHL SUB SWAP1 DUP2 AND PUSH1 0x60 DUP1 DUP8 ADD SWAP2 SWAP1 SWAP2 MSTORE PUSH1 0xC8 PUSH1 0x80 DUP1 DUP9 ADD SWAP2 SWAP1 SWAP2 MSTORE PUSH1 0x64 PUSH1 0xA0 SWAP8 DUP9 ADD MSTORE PUSH1 0x14 DUP1 SLOAD PUSH1 0x1 DUP2 ADD DUP3 SSTORE SWAP6 MSTORE DUP8 MLOAD PUSH32 0xCE6D7B5282BD9A3661AE061FEED1DBDA4E52AB073B1F9285BE6E155D9C38D4EC PUSH1 0x6 SWAP1 SWAP7 MUL SWAP6 DUP7 ADD SSTORE SWAP5 DUP8 ADD MLOAD PUSH32 0xCE6D7B5282BD9A3661AE061FEED1DBDA4E52AB073B1F9285BE6E155D9C38D4ED DUP6 ADD SSTORE SWAP2 DUP7 ADD MLOAD PUSH32 0xCE6D7B5282BD9A3661AE061FEED1DBDA4E52AB073B1F9285BE6E155D9C38D4EE DUP5 ADD DUP1 SLOAD PUSH1 0x1 PUSH1 0x1 PUSH1 0xA0 SHL SUB NOT SWAP1 DUP2 AND SWAP3 DUP5 AND SWAP3 SWAP1 SWAP3 OR SWAP1 SSTORE SWAP2 DUP7 ADD MLOAD PUSH32 0xCE6D7B5282BD9A3661AE061FEED1DBDA4E52AB073B1F9285BE6E155D9C38D4EF DUP5 ADD DUP1 SLOAD SWAP1 SWAP4 AND SWAP2 AND OR SWAP1 SSTORE SWAP1 DUP4 ADD MLOAD PUSH32 0xCE6D7B5282BD9A3661AE061FEED1DBDA4E52AB073B1F9285BE6E155D9C38D4F0 DUP3 ADD SSTORE SWAP2 ADD MLOAD PUSH32 0xCE6D7B5282BD9A3661AE061FEED1DBDA4E52AB073B1F9285BE6E155D9C38D4F1 SWAP1 SWAP2 ADD SSTORE POP JUMPDEST DUP1 PUSH2 0x29CC DUP2 PUSH2 0x3333 JUMP JUMPDEST SWAP2 POP POP PUSH2 0x27B0 JUMP JUMPDEST POP POP POP POP JUMP JUMPDEST PUSH1 0xF SLOAD PUSH1 0x12 SLOAD DUP5 MLOAD PUSH2 0x802 SWAP3 PUSH4 0xA9059CBB SWAP3 PUSH1 0x1 PUSH1 0x1 PUSH1 0xA0 SHL SUB SWAP1 SWAP2 AND SWAP2 PUSH2 0x2A07 SWAP1 PUSH5 0x174876E800 PUSH2 0x32FD JUMP JUMPDEST PUSH2 0x2A11 SWAP2 SWAP1 PUSH2 0x32FD JUMP JUMPDEST PUSH1 0x40 MLOAD PUSH1 0x1 PUSH1 0x1 PUSH1 0xE0 SHL SUB NOT PUSH1 0xE0 DUP6 SWAP1 SHL AND DUP2 MSTORE PUSH1 0x1 PUSH1 0x1 PUSH1 0xA0 SHL SUB SWAP1 SWAP3 AND PUSH1 0x4 DUP4 ADD MSTORE PUSH1 0x24 DUP3 ADD MSTORE PUSH1 0x44 ADD PUSH1 0x20 PUSH1 0x40 MLOAD DUP1 DUP4 SUB DUP2 PUSH1 0x0 DUP8 DUP1 EXTCODESIZE ISZERO DUP1 ISZERO PUSH2 0x2A57 JUMPI PUSH1 0x0 DUP1 REVERT JUMPDEST POP GAS CALL ISZERO DUP1 ISZERO PUSH2 0x2A6B JUMPI RETURNDATASIZE PUSH1 0x0 DUP1 RETURNDATACOPY RETURNDATASIZE PUSH1 0x0 REVERT JUMPDEST POP POP POP POP PUSH1 0x40 MLOAD RETURNDATASIZE PUSH1 0x1F NOT PUSH1 0x1F DUP3 ADD AND DUP3 ADD DUP1 PUSH1 0x40 MSTORE POP DUP2 ADD SWAP1 PUSH2 0x2A8F SWAP2 SWAP1 PUSH2 0x3182 JUMP JUMPDEST POP PUSH1 0x0 JUMPDEST DUP4 MLOAD DUP2 LT ISZERO PUSH2 0x29D4 JUMPI PUSH2 0x2ABF DUP5 DUP3 DUP2 MLOAD DUP2 LT PUSH2 0x25C9 JUMPI PUSH4 0x4E487B71 PUSH1 0xE0 SHL PUSH1 0x0 MSTORE PUSH1 0x32 PUSH1 0x4 MSTORE PUSH1 0x24 PUSH1 0x0 REVERT JUMPDEST PUSH2 0x2CA5 JUMPI PUSH1 0x14 DUP1 SLOAD SWAP1 POP PUSH1 0x13 PUSH1 0x0 DUP7 DUP5 DUP2 MLOAD DUP2 LT PUSH2 0x2AED JUMPI PUSH4 0x4E487B71 PUSH1 0xE0 SHL PUSH1 0x0 MSTORE PUSH1 0x32 PUSH1 0x4 MSTORE PUSH1 0x24 PUSH1 0x0 REVERT JUMPDEST PUSH1 0x20 MUL PUSH1 0x20 ADD ADD MLOAD DUP2 MSTORE PUSH1 0x20 ADD SWAP1 DUP2 MSTORE PUSH1 0x20 ADD PUSH1 0x0 KECCAK256 DUP2 SWAP1 SSTORE POP PUSH1 0x0 PUSH1 0x40 MLOAD DUP1 PUSH1 0xC0 ADD PUSH1 0x40 MSTORE DUP1 DUP7 DUP5 DUP2 MLOAD DUP2 LT PUSH2 0x2B34 JUMPI PUSH4 0x4E487B71 PUSH1 0xE0 SHL PUSH1 0x0 MSTORE PUSH1 0x32 PUSH1 0x4 MSTORE PUSH1 0x24 PUSH1 0x0 REVERT JUMPDEST PUSH1 0x20 SWAP1 DUP2 MUL SWAP2 SWAP1 SWAP2 ADD DUP2 ADD MLOAD DUP3 MSTORE DUP2 DUP2 ADD DUP8 SWAP1 MSTORE CALLER PUSH1 0x40 DUP1 DUP5 ADD DUP3 SWAP1 MSTORE PUSH1 0x0 SWAP2 DUP3 MSTORE DUP2 DUP4 MSTORE DUP1 DUP3 KECCAK256 SLOAD PUSH1 0x1 PUSH1 0x1 PUSH1 0xA0 SHL SUB SWAP1 DUP2 AND PUSH1 0x60 DUP1 DUP8 ADD SWAP2 SWAP1 SWAP2 MSTORE PUSH1 0xC8 PUSH1 0x80 DUP1 DUP9 ADD SWAP2 SWAP1 SWAP2 MSTORE PUSH1 0x64 PUSH1 0xA0 SWAP8 DUP9 ADD MSTORE PUSH1 0x14 DUP1 SLOAD PUSH1 0x1 DUP2 ADD DUP3 SSTORE SWAP6 MSTORE DUP8 MLOAD PUSH32 0xCE6D7B5282BD9A3661AE061FEED1DBDA4E52AB073B1F9285BE6E155D9C38D4EC PUSH1 0x6 SWAP1 SWAP7 MUL SWAP6 DUP7 ADD SSTORE SWAP5 DUP8 ADD MLOAD PUSH32 0xCE6D7B5282BD9A3661AE061FEED1DBDA4E52AB073B1F9285BE6E155D9C38D4ED DUP6 ADD SSTORE SWAP2 DUP7 ADD MLOAD PUSH32 0xCE6D7B5282BD9A3661AE061FEED1DBDA4E52AB073B1F9285BE6E155D9C38D4EE DUP5 ADD DUP1 SLOAD PUSH1 0x1 PUSH1 0x1 PUSH1 0xA0 SHL SUB NOT SWAP1 DUP2 AND SWAP3 DUP5 AND SWAP3 SWAP1 SWAP3 OR SWAP1 SSTORE SWAP2 DUP7 ADD MLOAD PUSH32 0xCE6D7B5282BD9A3661AE061FEED1DBDA4E52AB073B1F9285BE6E155D9C38D4EF DUP5 ADD DUP1 SLOAD SWAP1 SWAP4 AND SWAP2 AND OR SWAP1 SSTORE SWAP1 DUP4 ADD MLOAD PUSH32 0xCE6D7B5282BD9A3661AE061FEED1DBDA4E52AB073B1F9285BE6E155D9C38D4F0 DUP3 ADD SSTORE SWAP2 ADD MLOAD PUSH32 0xCE6D7B5282BD9A3661AE061FEED1DBDA4E52AB073B1F9285BE6E155D9C38D4F1 SWAP1 SWAP2 ADD SSTORE POP JUMPDEST DUP1 PUSH2 0x2CAF DUP2 PUSH2 0x3333 JUMP JUMPDEST SWAP2 POP POP PUSH2 0x2A93 JUMP JUMPDEST PUSH1 0xF SLOAD PUSH1 0x1 PUSH1 0x1 PUSH1 0xA0 SHL SUB AND CALLER EQ PUSH2 0x2CE1 JUMPI PUSH1 0x40 MLOAD PUSH3 0x461BCD PUSH1 0xE5 SHL DUP2 MSTORE PUSH1 0x4 ADD PUSH2 0x80C SWAP1 PUSH2 0x32A2 JUMP JUMPDEST PUSH1 0x4 SSTORE JUMP JUMPDEST PUSH1 0x0 DUP1 PUSH1 0x0 JUMPDEST DUP4 MLOAD DUP2 LT ISZERO PUSH2 0x2325 JUMPI PUSH1 0x10 SLOAD DUP5 DUP3 DUP2 MLOAD DUP2 LT PUSH2 0x2D18 JUMPI PUSH4 0x4E487B71 PUSH1 0xE0 SHL PUSH1 0x0 MSTORE PUSH1 0x32 PUSH1 0x4 MSTORE PUSH1 0x24 PUSH1 0x0 REVERT JUMPDEST PUSH1 0x20 MUL PUSH1 0x20 ADD ADD MLOAD GT ISZERO PUSH2 0x2D2F JUMPI PUSH1 0x0 SWAP2 POP PUSH2 0x2325 JUMP JUMPDEST PUSH1 0x1 SWAP2 POP DUP1 PUSH2 0x2D3D DUP2 PUSH2 0x3333 JUMP JUMPDEST SWAP2 POP POP PUSH2 0x2CEC JUMP JUMPDEST PUSH1 0x0 DUP2 DUP2 MSTORE PUSH1 0x13 PUSH1 0x20 MSTORE PUSH1 0x40 DUP2 KECCAK256 SLOAD PUSH1 0x14 DUP1 SLOAD SWAP1 SWAP2 SWAP1 DUP2 LT PUSH2 0x2D77 JUMPI PUSH4 0x4E487B71 PUSH1 0xE0 SHL PUSH1 0x0 MSTORE PUSH1 0x32 PUSH1 0x4 MSTORE PUSH1 0x24 PUSH1 0x0 REVERT JUMPDEST SWAP1 PUSH1 0x0 MSTORE PUSH1 0x20 PUSH1 0x0 KECCAK256 SWAP1 PUSH1 0x6 MUL ADD PUSH1 0x5 ADD SLOAD SWAP1 POP SWAP2 SWAP1 POP JUMP JUMPDEST PUSH1 0x40 DUP1 MLOAD DUP2 DUP2 MSTORE PUSH1 0x4 DUP2 DUP4 ADD MSTORE PUSH4 0x1D195CDD PUSH1 0xE2 SHL PUSH1 0x60 DUP3 ADD MSTORE PUSH1 0xFA PUSH1 0x20 DUP3 ADD MSTORE SWAP1 MLOAD PUSH32 0xDD970DD9B5BFE707922155B058A407655CB18288B807E2216442BCA8AD83D6B5 SWAP2 DUP2 SWAP1 SUB PUSH1 0x80 ADD SWAP1 LOG1 JUMP JUMPDEST PUSH1 0x0 JUMPDEST DUP3 MLOAD DUP2 LT ISZERO PUSH2 0x2EE3 JUMPI CALLER PUSH1 0x1 PUSH1 0x1 PUSH1 0xA0 SHL SUB AND PUSH1 0x14 PUSH1 0x13 PUSH1 0x0 DUP7 DUP6 DUP2 MLOAD DUP2 LT PUSH2 0x2E1B JUMPI PUSH4 0x4E487B71 PUSH1 0xE0 SHL PUSH1 0x0 MSTORE PUSH1 0x32 PUSH1 0x4 MSTORE PUSH1 0x24 PUSH1 0x0 REVERT JUMPDEST PUSH1 0x20 MUL PUSH1 0x20 ADD ADD MLOAD DUP2 MSTORE PUSH1 0x20 ADD SWAP1 DUP2 MSTORE PUSH1 0x20 ADD PUSH1 0x0 KECCAK256 SLOAD DUP2 SLOAD DUP2 LT PUSH2 0x2E50 JUMPI PUSH4 0x4E487B71 PUSH1 0xE0 SHL PUSH1 0x0 MSTORE PUSH1 0x32 PUSH1 0x4 MSTORE PUSH1 0x24 PUSH1 0x0 REVERT JUMPDEST PUSH1 0x0 SWAP2 DUP3 MSTORE PUSH1 0x20 SWAP1 SWAP2 KECCAK256 PUSH1 0x2 PUSH1 0x6 SWAP1 SWAP3 MUL ADD ADD SLOAD PUSH1 0x1 PUSH1 0x1 PUSH1 0xA0 SHL SUB AND EQ PUSH2 0x2ED1 JUMPI PUSH1 0x40 MLOAD PUSH3 0x461BCD PUSH1 0xE5 SHL DUP2 MSTORE PUSH1 0x20 PUSH1 0x4 DUP3 ADD MSTORE PUSH1 0x2E PUSH1 0x24 DUP3 ADD MSTORE PUSH32 0x74686520626C6F636B7320796F752063686F6F736520617265206E6F7420616C PUSH1 0x44 DUP3 ADD MSTORE PUSH14 0x6C206F776E656420627920796F75 PUSH1 0x90 SHL PUSH1 0x64 DUP3 ADD MSTORE PUSH1 0x84 ADD PUSH2 0x80C JUMP JUMPDEST DUP1 PUSH2 0x2EDB DUP2 PUSH2 0x3333 JUMP JUMPDEST SWAP2 POP POP PUSH2 0x2DE2 JUMP JUMPDEST POP PUSH1 0x0 JUMPDEST DUP3 MLOAD DUP2 LT ISZERO PUSH2 0xAA5 JUMPI DUP2 PUSH1 0x14 PUSH1 0x13 PUSH1 0x0 DUP7 DUP6 DUP2 MLOAD DUP2 LT PUSH2 0x2F17 JUMPI PUSH4 0x4E487B71 PUSH1 0xE0 SHL PUSH1 0x0 MSTORE PUSH1 0x32 PUSH1 0x4 MSTORE PUSH1 0x24 PUSH1 0x0 REVERT JUMPDEST PUSH1 0x20 MUL PUSH1 0x20 ADD ADD MLOAD DUP2 MSTORE PUSH1 0x20 ADD SWAP1 DUP2 MSTORE PUSH1 0x20 ADD PUSH1 0x0 KECCAK256 SLOAD DUP2 SLOAD DUP2 LT PUSH2 0x2F4C JUMPI PUSH4 0x4E487B71 PUSH1 0xE0 SHL PUSH1 0x0 MSTORE PUSH1 0x32 PUSH1 0x4 MSTORE PUSH1 0x24 PUSH1 0x0 REVERT JUMPDEST PUSH1 0x0 SWAP2 DUP3 MSTORE PUSH1 0x20 SWAP1 SWAP2 KECCAK256 PUSH1 0x1 PUSH1 0x6 SWAP1 SWAP3 MUL ADD ADD SSTORE DUP1 PUSH2 0x2F6A DUP2 PUSH2 0x3333 JUMP JUMPDEST SWAP2 POP POP PUSH2 0x2EE7 JUMP JUMPDEST DUP3 DUP1 SLOAD DUP3 DUP3 SSTORE SWAP1 PUSH1 0x0 MSTORE PUSH1 0x20 PUSH1 0x0 KECCAK256 SWAP1 DUP2 ADD SWAP3 DUP3 ISZERO PUSH2 0x2FB2 JUMPI PUSH1 0x0 MSTORE PUSH1 0x20 PUSH1 0x0 KECCAK256 SWAP2 DUP3 ADD JUMPDEST DUP3 DUP2 GT ISZERO PUSH2 0x2FB2 JUMPI DUP3 SLOAD DUP3 SSTORE SWAP2 PUSH1 0x1 ADD SWAP2 SWAP1 PUSH1 0x1 ADD SWAP1 PUSH2 0x2F97 JUMP JUMPDEST POP PUSH2 0x2FBE SWAP3 SWAP2 POP PUSH2 0x2FC2 JUMP JUMPDEST POP SWAP1 JUMP JUMPDEST JUMPDEST DUP1 DUP3 GT ISZERO PUSH2 0x2FBE JUMPI PUSH1 0x0 DUP2 SSTORE PUSH1 0x1 ADD PUSH2 0x2FC3 JUMP JUMPDEST PUSH1 0x0 DUP3 PUSH1 0x1F DUP4 ADD SLT PUSH2 0x2FE7 JUMPI DUP1 DUP2 REVERT JUMPDEST DUP2 CALLDATALOAD PUSH1 0x20 PUSH8 0xFFFFFFFFFFFFFFFF DUP1 DUP4 GT ISZERO PUSH2 0x3004 JUMPI PUSH2 0x3004 PUSH2 0x3364 JUMP JUMPDEST DUP3 PUSH1 0x5 SHL PUSH1 0x40 MLOAD PUSH1 0x1F NOT PUSH1 0x3F DUP4 ADD AND DUP2 ADD DUP2 DUP2 LT DUP5 DUP3 GT OR ISZERO PUSH2 0x3029 JUMPI PUSH2 0x3029 PUSH2 0x3364 JUMP JUMPDEST PUSH1 0x40 MSTORE DUP5 DUP2 MSTORE DUP4 DUP2 ADD SWAP3 POP DUP7 DUP5 ADD DUP3 DUP9 ADD DUP6 ADD DUP10 LT ISZERO PUSH2 0x3047 JUMPI DUP7 DUP8 REVERT JUMPDEST DUP7 SWAP3 POP JUMPDEST DUP6 DUP4 LT ISZERO PUSH2 0x3069 JUMPI DUP1 CALLDATALOAD DUP5 MSTORE SWAP3 DUP5 ADD SWAP3 PUSH1 0x1 SWAP3 SWAP1 SWAP3 ADD SWAP2 DUP5 ADD PUSH2 0x304B JUMP JUMPDEST POP SWAP8 SWAP7 POP POP POP POP POP POP POP JUMP JUMPDEST PUSH1 0x0 PUSH1 0x20 DUP3 DUP5 SUB SLT ISZERO PUSH2 0x3086 JUMPI DUP1 DUP2 REVERT JUMPDEST DUP2 CALLDATALOAD PUSH2 0x3091 DUP2 PUSH2 0x337A JUMP JUMPDEST SWAP4 SWAP3 POP POP POP JUMP JUMPDEST PUSH1 0x0 PUSH1 0x20 DUP3 DUP5 SUB SLT ISZERO PUSH2 0x30A9 JUMPI DUP1 DUP2 REVERT JUMPDEST DUP2 CALLDATALOAD PUSH8 0xFFFFFFFFFFFFFFFF DUP2 GT ISZERO PUSH2 0x30BF JUMPI DUP2 DUP3 REVERT JUMPDEST PUSH2 0x30CB DUP5 DUP3 DUP6 ADD PUSH2 0x2FD7 JUMP JUMPDEST SWAP5 SWAP4 POP POP POP POP JUMP JUMPDEST PUSH1 0x0 DUP1 PUSH1 0x40 DUP4 DUP6 SUB SLT ISZERO PUSH2 0x30E5 JUMPI DUP1 DUP2 REVERT JUMPDEST DUP3 CALLDATALOAD PUSH8 0xFFFFFFFFFFFFFFFF DUP2 GT ISZERO PUSH2 0x30FB JUMPI DUP2 DUP3 REVERT JUMPDEST PUSH2 0x3107 DUP6 DUP3 DUP7 ADD PUSH2 0x2FD7 JUMP JUMPDEST SWAP3 POP POP PUSH1 0x20 DUP4 ADD CALLDATALOAD PUSH2 0x3118 DUP2 PUSH2 0x337A JUMP JUMPDEST DUP1 SWAP2 POP POP SWAP3 POP SWAP3 SWAP1 POP JUMP JUMPDEST PUSH1 0x0 DUP1 PUSH1 0x40 DUP4 DUP6 SUB SLT ISZERO PUSH2 0x3135 JUMPI DUP2 DUP3 REVERT JUMPDEST DUP3 CALLDATALOAD PUSH8 0xFFFFFFFFFFFFFFFF DUP2 GT ISZERO PUSH2 0x314B JUMPI DUP3 DUP4 REVERT JUMPDEST PUSH2 0x3157 DUP6 DUP3 DUP7 ADD PUSH2 0x2FD7 JUMP JUMPDEST SWAP6 PUSH1 0x20 SWAP5 SWAP1 SWAP5 ADD CALLDATALOAD SWAP5 POP POP POP POP JUMP JUMPDEST PUSH1 0x0 PUSH1 0x20 DUP3 DUP5 SUB SLT ISZERO PUSH2 0x3177 JUMPI DUP1 DUP2 REVERT JUMPDEST DUP2 CALLDATALOAD PUSH2 0x3091 DUP2 PUSH2 0x3392 JUMP JUMPDEST PUSH1 0x0 PUSH1 0x20 DUP3 DUP5 SUB SLT ISZERO PUSH2 0x3193 JUMPI DUP1 DUP2 REVERT JUMPDEST DUP2 MLOAD PUSH2 0x3091 DUP2 PUSH2 0x3392 JUMP JUMPDEST PUSH1 0x0 PUSH1 0x20 DUP3 DUP5 SUB SLT ISZERO PUSH2 0x31AF JUMPI DUP1 DUP2 REVERT JUMPDEST POP CALLDATALOAD SWAP2 SWAP1 POP JUMP JUMPDEST PUSH1 0x0 DUP1 PUSH1 0x40 DUP4 DUP6 SUB SLT ISZERO PUSH2 0x31C8 JUMPI DUP2 DUP3 REVERT JUMPDEST DUP3 CALLDATALOAD SWAP2 POP PUSH1 0x20 DUP4 ADD CALLDATALOAD PUSH8 0xFFFFFFFFFFFFFFFF DUP2 GT ISZERO PUSH2 0x31E5 JUMPI DUP2 DUP3 REVERT JUMPDEST PUSH2 0x31F1 DUP6 DUP3 DUP7 ADD PUSH2 0x2FD7 JUMP JUMPDEST SWAP2 POP POP SWAP3 POP SWAP3 SWAP1 POP JUMP JUMPDEST PUSH1 0x0 DUP1 PUSH1 0x40 DUP4 DUP6 SUB SLT ISZERO PUSH2 0x320D JUMPI DUP2 DUP3 REVERT JUMPDEST POP POP DUP1 CALLDATALOAD SWAP3 PUSH1 0x20 SWAP1 SWAP2 ADD CALLDATALOAD SWAP2 POP JUMP JUMPDEST PUSH1 0x20 DUP1 DUP3 MSTORE DUP3 MLOAD DUP3 DUP3 ADD DUP2 SWAP1 MSTORE PUSH1 0x0 SWAP2 SWAP1 PUSH1 0x40 SWAP1 DUP2 DUP6 ADD SWAP1 DUP7 DUP5 ADD DUP6 JUMPDEST DUP3 DUP2 LT ISZERO PUSH2 0x3295 JUMPI DUP2 MLOAD DUP1 MLOAD DUP6 MSTORE DUP7 DUP2 ADD MLOAD DUP8 DUP7 ADD MSTORE DUP6 DUP2 ADD MLOAD PUSH1 0x1 PUSH1 0x1 PUSH1 0xA0 SHL SUB SWAP1 DUP2 AND DUP8 DUP8 ADD MSTORE PUSH1 0x60 DUP1 DUP4 ADD MLOAD SWAP1 SWAP2 AND SWAP1 DUP7 ADD MSTORE PUSH1 0x80 DUP1 DUP3 ADD MLOAD SWAP1 DUP7 ADD MSTORE PUSH1 0xA0 SWAP1 DUP2 ADD MLOAD SWAP1 DUP6 ADD MSTORE PUSH1 0xC0 SWAP1 SWAP4 ADD SWAP3 SWAP1 DUP6 ADD SWAP1 PUSH1 0x1 ADD PUSH2 0x3239 JUMP JUMPDEST POP SWAP2 SWAP8 SWAP7 POP POP POP POP POP POP POP JUMP JUMPDEST PUSH1 0x20 DUP1 DUP3 MSTORE PUSH1 0x9 SWAP1 DUP3 ADD MSTORE PUSH9 0x3737BA1037BBB732B9 PUSH1 0xB9 SHL PUSH1 0x40 DUP3 ADD MSTORE PUSH1 0x60 ADD SWAP1 JUMP JUMPDEST PUSH1 0x0 DUP3 NOT DUP3 GT ISZERO PUSH2 0x32D8 JUMPI PUSH2 0x32D8 PUSH2 0x334E JUMP JUMPDEST POP ADD SWAP1 JUMP JUMPDEST PUSH1 0x0 DUP3 PUSH2 0x32F8 JUMPI PUSH4 0x4E487B71 PUSH1 0xE0 SHL DUP2 MSTORE PUSH1 0x12 PUSH1 0x4 MSTORE PUSH1 0x24 DUP2 REVERT JUMPDEST POP DIV SWAP1 JUMP JUMPDEST PUSH1 0x0 DUP2 PUSH1 0x0 NOT DIV DUP4 GT DUP3 ISZERO ISZERO AND ISZERO PUSH2 0x3317 JUMPI PUSH2 0x3317 PUSH2 0x334E JUMP JUMPDEST POP MUL SWAP1 JUMP JUMPDEST PUSH1 0x0 DUP3 DUP3 LT ISZERO PUSH2 0x332E JUMPI PUSH2 0x332E PUSH2 0x334E JUMP JUMPDEST POP SUB SWAP1 JUMP JUMPDEST PUSH1 0x0 PUSH1 0x0 NOT DUP3 EQ ISZERO PUSH2 0x3347 JUMPI PUSH2 0x3347 PUSH2 0x334E JUMP JUMPDEST POP PUSH1 0x1 ADD SWAP1 JUMP JUMPDEST PUSH4 0x4E487B71 PUSH1 0xE0 SHL PUSH1 0x0 MSTORE PUSH1 0x11 PUSH1 0x4 MSTORE PUSH1 0x24 PUSH1 0x0 REVERT JUMPDEST PUSH4 0x4E487B71 PUSH1 0xE0 SHL PUSH1 0x0 MSTORE PUSH1 0x41 PUSH1 0x4 MSTORE PUSH1 0x24 PUSH1 0x0 REVERT JUMPDEST PUSH1 0x1 PUSH1 0x1 PUSH1 0xA0 SHL SUB DUP2 AND DUP2 EQ PUSH2 0x338F JUMPI PUSH1 0x0 DUP1 REVERT JUMPDEST POP JUMP JUMPDEST DUP1 ISZERO ISZERO DUP2 EQ PUSH2 0x338F JUMPI PUSH1 0x0 DUP1 REVERT INVALID LOG2 PUSH5 0x6970667358 0x22 SLT KECCAK256 0xA5 0xC0 PUSH30 0x4B98DCFEE12C8630738FAA71A9E71F0FEFF1B0418C0692FEC6D47BEE9964 PUSH20 0x6F6C634300080400330000000000000000000000 "
        },
        "methodIdentifiers": {
          "addWithArr(uint256[],uint256)": "d1cdc44f",
          "buyBlocks(uint256[],uint256)": "695e102c",
          "buyBlocksFromAnAddress(address)": "4a6558bb",
          "changeColorNum(uint256,uint256)": "09e9e903",
          "changeColorNumWithArr(uint256[],uint256)": "ed4f91ce",
          "ex()": "e1c34549",
          "getBasicPriceById(uint256)": "b3b961c9",
          "getBlocks()": "4f5b7dc2",
          "getColorNumById(uint256)": "386b66b2",
          "getHowManyBlocksReferrerHas(address)": "b75366e1",
          "getLock(address)": "6b9db4e6",
          "getOwnedQtt(address)": "ae1eed80",
          "getOwnerById(uint256)": "76bf001c",
          "getPriceById(uint256)": "b9256b1b",
          "getPriceRateById(uint256)": "da74514a",
          "getReferrerNeedAmount()": "ff48b597",
          "getReferrerOpen()": "22a91707",
          "getReferrerRewardBuy()": "3caad332",
          "getReferrerRewardCreate()": "0c22c655",
          "getUser2referrer(address)": "7c3592a8",
          "haveId(uint256)": "308b7363",
          "idOutRange(uint256[])": "d4215b06",
          "owner()": "8da5cb5b",
          "setAddRate(uint256)": "d1c1ca9d",
          "setFee(uint256)": "69fe0e2d",
          "setLimit(uint256)": "27ea6f2b",
          "setLockFalse()": "cb98a433",
          "setLockTrue()": "ec5d1197",
          "setMaxId(uint256)": "16bd8646",
          "setPriceRateAll(uint256)": "8acd001f",
          "setPriceRateArr(uint256,uint256[])": "4a5dfc06",
          "setPriceRateMax(uint256)": "beb694d2",
          "setPriceRateMin(uint256)": "b523ec45",
          "setReferrerNeedAmount(uint256)": "d3f88782",
          "setReferrerOpen(bool)": "94b26a5e",
          "setReferrerRewardBuy(uint256)": "c1e11402",
          "setReferrerRewardCreate(uint256)": "adf8e666",
          "setUser2referrer(address)": "af14c7ad",
          "transferWithArr(uint256[],address)": "5f3f75e5",
          "whetherUseReferrer()": "c97ae726",
          "whetherUseReferrerWithAddress(address)": "8a4892f9"
        }
      }
    }
  }
}