{
  "_format": "hh-sol-artifact-1",
  "contractName": "Market",
  "sourceName": "contracts/Market.sol",
  "abi": [
    {
      "inputs": [],
      "stateMutability": "payable",
      "type": "constructor"
    },
    {
      "anonymous": false,
      "inputs": [
        {
          "indexed": false,
          "internalType": "string",
          "name": "message",
          "type": "string"
        },
        {
          "indexed": false,
          "internalType": "uint256",
          "name": "val",
          "type": "uint256"
        }
      ],
      "name": "Log",
      "type": "event"
    },
    {
      "inputs": [
        {
          "internalType": "uint256[]",
          "name": "_ids",
          "type": "uint256[]"
        },
        {
          "internalType": "uint256",
          "name": "_colorNum",
          "type": "uint256"
        }
      ],
      "name": "addWithArr",
      "outputs": [],
      "stateMutability": "payable",
      "type": "function"
    },
    {
      "inputs": [
        {
          "internalType": "uint256[]",
          "name": "_ids",
          "type": "uint256[]"
        },
        {
          "internalType": "uint256",
          "name": "_colorNum",
          "type": "uint256"
        }
      ],
      "name": "buyBlocks",
      "outputs": [],
      "stateMutability": "payable",
      "type": "function"
    },
    {
      "inputs": [
        {
          "internalType": "address",
          "name": "_address",
          "type": "address"
        }
      ],
      "name": "buyBlocksFromAnAddress",
      "outputs": [],
      "stateMutability": "payable",
      "type": "function"
    },
    {
      "inputs": [
        {
          "internalType": "uint256",
          "name": "_id",
          "type": "uint256"
        },
        {
          "internalType": "uint256",
          "name": "_colorNum",
          "type": "uint256"
        }
      ],
      "name": "changeColorNum",
      "outputs": [],
      "stateMutability": "nonpayable",
      "type": "function"
    },
    {
      "inputs": [
        {
          "internalType": "uint256[]",
          "name": "_ids",
          "type": "uint256[]"
        },
        {
          "internalType": "uint256",
          "name": "_colorNum",
          "type": "uint256"
        }
      ],
      "name": "changeColorNumWithArr",
      "outputs": [],
      "stateMutability": "nonpayable",
      "type": "function"
    },
    {
      "inputs": [],
      "name": "ex",
      "outputs": [],
      "stateMutability": "nonpayable",
      "type": "function"
    },
    {
      "inputs": [
        {
          "internalType": "uint256",
          "name": "_id",
          "type": "uint256"
        }
      ],
      "name": "getBasicPriceById",
      "outputs": [
        {
          "internalType": "uint256",
          "name": "",
          "type": "uint256"
        }
      ],
      "stateMutability": "view",
      "type": "function"
    },
    {
      "inputs": [],
      "name": "getBlocks",
      "outputs": [
        {
          "components": [
            {
              "internalType": "uint256",
              "name": "id",
              "type": "uint256"
            },
            {
              "internalType": "uint256",
              "name": "colorNum",
              "type": "uint256"
            },
            {
              "internalType": "address payable",
              "name": "blockOwner",
              "type": "address"
            },
            {
              "internalType": "address",
              "name": "referrer",
              "type": "address"
            },
            {
              "internalType": "uint256",
              "name": "basicPrice",
              "type": "uint256"
            },
            {
              "internalType": "uint256",
              "name": "priceRate",
              "type": "uint256"
            }
          ],
          "internalType": "struct Market.Block[]",
          "name": "",
          "type": "tuple[]"
        }
      ],
      "stateMutability": "view",
      "type": "function"
    },
    {
      "inputs": [
        {
          "internalType": "uint256",
          "name": "_id",
          "type": "uint256"
        }
      ],
      "name": "getColorNumById",
      "outputs": [
        {
          "internalType": "uint256",
          "name": "",
          "type": "uint256"
        }
      ],
      "stateMutability": "view",
      "type": "function"
    },
    {
      "inputs": [
        {
          "internalType": "address",
          "name": "_address",
          "type": "address"
        }
      ],
      "name": "getHowManyBlocksReferrerHas",
      "outputs": [
        {
          "internalType": "uint256",
          "name": "",
          "type": "uint256"
        }
      ],
      "stateMutability": "view",
      "type": "function"
    },
    {
      "inputs": [
        {
          "internalType": "address",
          "name": "_address",
          "type": "address"
        }
      ],
      "name": "getLock",
      "outputs": [
        {
          "internalType": "bool",
          "name": "_bool",
          "type": "bool"
        }
      ],
      "stateMutability": "view",
      "type": "function"
    },
    {
      "inputs": [
        {
          "internalType": "address",
          "name": "_address",
          "type": "address"
        }
      ],
      "name": "getOwnedQtt",
      "outputs": [
        {
          "internalType": "uint256",
          "name": "_ownedQtt",
          "type": "uint256"
        }
      ],
      "stateMutability": "view",
      "type": "function"
    },
    {
      "inputs": [
        {
          "internalType": "uint256",
          "name": "_id",
          "type": "uint256"
        }
      ],
      "name": "getOwnerById",
      "outputs": [
        {
          "internalType": "address",
          "name": "",
          "type": "address"
        }
      ],
      "stateMutability": "view",
      "type": "function"
    },
    {
      "inputs": [
        {
          "internalType": "uint256",
          "name": "_id",
          "type": "uint256"
        }
      ],
      "name": "getPriceById",
      "outputs": [
        {
          "internalType": "uint256",
          "name": "",
          "type": "uint256"
        }
      ],
      "stateMutability": "view",
      "type": "function"
    },
    {
      "inputs": [
        {
          "internalType": "uint256",
          "name": "_id",
          "type": "uint256"
        }
      ],
      "name": "getPriceRateById",
      "outputs": [
        {
          "internalType": "uint256",
          "name": "",
          "type": "uint256"
        }
      ],
      "stateMutability": "view",
      "type": "function"
    },
    {
      "inputs": [],
      "name": "getReferrerNeedAmount",
      "outputs": [
        {
          "internalType": "uint256",
          "name": "",
          "type": "uint256"
        }
      ],
      "stateMutability": "view",
      "type": "function"
    },
    {
      "inputs": [],
      "name": "getReferrerOpen",
      "outputs": [
        {
          "internalType": "bool",
          "name": "",
          "type": "bool"
        }
      ],
      "stateMutability": "view",
      "type": "function"
    },
    {
      "inputs": [],
      "name": "getReferrerRewardBuy",
      "outputs": [
        {
          "internalType": "uint256",
          "name": "",
          "type": "uint256"
        }
      ],
      "stateMutability": "view",
      "type": "function"
    },
    {
      "inputs": [],
      "name": "getReferrerRewardCreate",
      "outputs": [
        {
          "internalType": "uint256",
          "name": "",
          "type": "uint256"
        }
      ],
      "stateMutability": "view",
      "type": "function"
    },
    {
      "inputs": [
        {
          "internalType": "address",
          "name": "_address",
          "type": "address"
        }
      ],
      "name": "getUser2referrer",
      "outputs": [
        {
          "internalType": "address",
          "name": "",
          "type": "address"
        }
      ],
      "stateMutability": "view",
      "type": "function"
    },
    {
      "inputs": [
        {
          "internalType": "uint256",
          "name": "_id",
          "type": "uint256"
        }
      ],
      "name": "haveId",
      "outputs": [
        {
          "internalType": "bool",
          "name": "",
          "type": "bool"
        }
      ],
      "stateMutability": "view",
      "type": "function"
    },
    {
      "inputs": [
        {
          "internalType": "uint256[]",
          "name": "_ids",
          "type": "uint256[]"
        }
      ],
      "name": "idOutRange",
      "outputs": [
        {
          "internalType": "bool",
          "name": "",
          "type": "bool"
        }
      ],
      "stateMutability": "view",
      "type": "function"
    },
    {
      "inputs": [],
      "name": "owner",
      "outputs": [
        {
          "internalType": "address",
          "name": "",
          "type": "address"
        }
      ],
      "stateMutability": "view",
      "type": "function"
    },
    {
      "inputs": [
        {
          "internalType": "uint256",
          "name": "_addRate",
          "type": "uint256"
        }
      ],
      "name": "setAddRate",
      "outputs": [],
      "stateMutability": "nonpayable",
      "type": "function"
    },
    {
      "inputs": [
        {
          "internalType": "uint256",
          "name": "_fee",
          "type": "uint256"
        }
      ],
      "name": "setFee",
      "outputs": [],
      "stateMutability": "nonpayable",
      "type": "function"
    },
    {
      "inputs": [
        {
          "internalType": "uint256",
          "name": "_lockLimit",
          "type": "uint256"
        }
      ],
      "name": "setLimit",
      "outputs": [],
      "stateMutability": "nonpayable",
      "type": "function"
    },
    {
      "inputs": [],
      "name": "setLockFalse",
      "outputs": [],
      "stateMutability": "nonpayable",
      "type": "function"
    },
    {
      "inputs": [],
      "name": "setLockTrue",
      "outputs": [],
      "stateMutability": "nonpayable",
      "type": "function"
    },
    {
      "inputs": [
        {
          "internalType": "uint256",
          "name": "_maxId",
          "type": "uint256"
        }
      ],
      "name": "setMaxId",
      "outputs": [],
      "stateMutability": "nonpayable",
      "type": "function"
    },
    {
      "inputs": [
        {
          "internalType": "uint256",
          "name": "_priceRate",
          "type": "uint256"
        }
      ],
      "name": "setPriceRateAll",
      "outputs": [],
      "stateMutability": "nonpayable",
      "type": "function"
    },
    {
      "inputs": [
        {
          "internalType": "uint256",
          "name": "_priceRate",
          "type": "uint256"
        },
        {
          "internalType": "uint256[]",
          "name": "_ids",
          "type": "uint256[]"
        }
      ],
      "name": "setPriceRateArr",
      "outputs": [],
      "stateMutability": "nonpayable",
      "type": "function"
    },
    {
      "inputs": [
        {
          "internalType": "uint256",
          "name": "_priceRateMax",
          "type": "uint256"
        }
      ],
      "name": "setPriceRateMax",
      "outputs": [],
      "stateMutability": "nonpayable",
      "type": "function"
    },
    {
      "inputs": [
        {
          "internalType": "uint256",
          "name": "_priceRateMin",
          "type": "uint256"
        }
      ],
      "name": "setPriceRateMin",
      "outputs": [],
      "stateMutability": "nonpayable",
      "type": "function"
    },
    {
      "inputs": [
        {
          "internalType": "uint256",
          "name": "_uint",
          "type": "uint256"
        }
      ],
      "name": "setReferrerNeedAmount",
      "outputs": [],
      "stateMutability": "nonpayable",
      "type": "function"
    },
    {
      "inputs": [
        {
          "internalType": "bool",
          "name": "_bool",
          "type": "bool"
        }
      ],
      "name": "setReferrerOpen",
      "outputs": [],
      "stateMutability": "nonpayable",
      "type": "function"
    },
    {
      "inputs": [
        {
          "internalType": "uint256",
          "name": "_uint",
          "type": "uint256"
        }
      ],
      "name": "setReferrerRewardBuy",
      "outputs": [],
      "stateMutability": "nonpayable",
      "type": "function"
    },
    {
      "inputs": [
        {
          "internalType": "uint256",
          "name": "_uint",
          "type": "uint256"
        }
      ],
      "name": "setReferrerRewardCreate",
      "outputs": [],
      "stateMutability": "nonpayable",
      "type": "function"
    },
    {
      "inputs": [
        {
          "internalType": "address",
          "name": "_address",
          "type": "address"
        }
      ],
      "name": "setUser2referrer",
      "outputs": [],
      "stateMutability": "nonpayable",
      "type": "function"
    },
    {
      "inputs": [
        {
          "internalType": "uint256[]",
          "name": "_ids",
          "type": "uint256[]"
        },
        {
          "internalType": "address payable",
          "name": "_receiver",
          "type": "address"
        }
      ],
      "name": "transferWithArr",
      "outputs": [],
      "stateMutability": "nonpayable",
      "type": "function"
    },
    {
      "inputs": [],
      "name": "whetherUseReferrer",
      "outputs": [
        {
          "internalType": "bool",
          "name": "",
          "type": "bool"
        }
      ],
      "stateMutability": "view",
      "type": "function"
    },
    {
      "inputs": [
        {
          "internalType": "address",
          "name": "_address",
          "type": "address"
        }
      ],
      "name": "whetherUseReferrerWithAddress",
      "outputs": [
        {
          "internalType": "bool",
          "name": "",
          "type": "bool"
        }
      ],
      "stateMutability": "view",
      "type": "function"
    }
  ],
  "bytecode": "0x61014060405260006080819052600160a081905260c082905260e082905261010081905261012081905260148054808301825590835260069081027fce6d7b5282bd9a3661ae061feed1dbda4e52ab073b1f9285be6e155d9c38d4ec8101939093557fce6d7b5282bd9a3661ae061feed1dbda4e52ab073b1f9285be6e155d9c38d4ed83018290557fce6d7b5282bd9a3661ae061feed1dbda4e52ab073b1f9285be6e155d9c38d4ee830180546001600160a01b03199081169091557fce6d7b5282bd9a3661ae061feed1dbda4e52ab073b1f9285be6e155d9c38d4ef84018054821690557fce6d7b5282bd9a3661ae061feed1dbda4e52ab073b1f9285be6e155d9c38d4f084018390557fce6d7b5282bd9a3661ae061feed1dbda4e52ab073b1f9285be6e155d9c38d4f19093018290556103e86011556127106012556107d06010819055600f8054909416331790935560c8600b819055605060095561012c600a556003805460ff1916909317835560049290925560059290925590556101f560075560336008556133d6806101986000396000f3fe6080604052600436106102465760003560e01c806394b26a5e11610139578063c97ae726116100b6578063d4215b061161007a578063d4215b0614610706578063da74514a14610726578063e1c3454914610746578063ec5d11971461075b578063ed4f91ce14610787578063ff48b597146107a757600080fd5b8063c97ae72614610675578063cb98a4331461068a578063d1c1ca9d146106b3578063d1cdc44f146106d3578063d3f88782146106e657600080fd5b8063b523ec45116100fd578063b523ec45146105d5578063b75366e1146105f5578063b9256b1b14610615578063beb694d214610635578063c1e114021461065557600080fd5b806394b26a5e1461050b578063adf8e6661461052b578063ae1eed801461054b578063af14c7ad1461056b578063b3b961c9146105b557600080fd5b80634f5b7dc2116101c757806376bf001c1161018b57806376bf001c1461043a5780637c3592a8146104725780638a4892f9146104ab5780638acd001f146104cb5780638da5cb5b146104eb57600080fd5b80634f5b7dc21461038c5780635f3f75e5146103ae578063695e102c146103ce57806369fe0e2d146103e15780636b9db4e61461040157600080fd5b8063308b73631161020e578063308b7363146102f5578063386b66b2146103245780633caad332146103445780634a5dfc06146103595780634a6558bb1461037957600080fd5b806309e9e9031461024b5780630c22c6551461026d57806316bd86461461029157806322a91707146102b157806327ea6f2b146102d5575b600080fd5b34801561025757600080fd5b5061026b6102663660046131fb565b6107bc565b005b34801561027957600080fd5b506005545b6040519081526020015b60405180910390f35b34801561029d57600080fd5b5061026b6102ac36600461319e565b6108cd565b3480156102bd57600080fd5b5060035460ff165b6040519015158152602001610288565b3480156102e157600080fd5b5061026b6102f036600461319e565b610944565b34801561030157600080fd5b506102c561031036600461319e565b600090815260136020526040902054151590565b34801561033057600080fd5b5061027e61033f36600461319e565b610973565b34801561035057600080fd5b5060065461027e565b34801561036557600080fd5b5061026b6103743660046131b6565b6109be565b61026b610387366004613075565b610aaa565b34801561039857600080fd5b506103a16110ad565b604051610288919061321c565b3480156103ba57600080fd5b5061026b6103c93660046130d3565b611150565b61026b6103dc366004613123565b611391565b3480156103ed57600080fd5b5061026b6103fc36600461319e565b611e2e565b34801561040d57600080fd5b506102c561041c366004613075565b6001600160a01b03166000908152600e602052604090205460ff1690565b34801561044657600080fd5b5061045a61045536600461319e565b611ea4565b6040516001600160a01b039091168152602001610288565b34801561047e57600080fd5b5061045a61048d366004613075565b6001600160a01b039081166000908152602081905260409020541690565b3480156104b757600080fd5b506102c56104c6366004613075565b611ef9565b3480156104d757600080fd5b5061026b6104e636600461319e565b611f39565b3480156104f757600080fd5b50600f5461045a906001600160a01b031681565b34801561051757600080fd5b5061026b610526366004613166565b61213f565b34801561053757600080fd5b5061026b61054636600461319e565b61217c565b34801561055757600080fd5b5061027e610566366004613075565b6121ab565b34801561057757600080fd5b5061026b610586366004613075565b33600090815260208190526040902080546001600160a01b0319166001600160a01b0392909216919091179055565b3480156105c157600080fd5b5061027e6105d036600461319e565b61222d565b3480156105e157600080fd5b5061026b6105f036600461319e565b612278565b34801561060157600080fd5b5061027e610610366004613075565b6122a7565b34801561062157600080fd5b5061027e61063036600461319e565b61232c565b34801561064157600080fd5b5061026b61065036600461319e565b6123c0565b34801561066157600080fd5b5061026b61067036600461319e565b6123ef565b34801561068157600080fd5b506102c561241e565b34801561069657600080fd5b5061026b336000908152600e60205260409020805460ff19169055565b3480156106bf57600080fd5b5061026b6106ce36600461319e565b61247b565b61026b6106e1366004613123565b6124f1565b3480156106f257600080fd5b5061026b61070136600461319e565b612cb7565b34801561071257600080fd5b506102c5610721366004613098565b612ce6565b34801561073257600080fd5b5061027e61074136600461319e565b612d45565b34801561075257600080fd5b5061026b612d90565b34801561076757600080fd5b5061026b336000908152600e60205260409020805460ff19166001179055565b34801561079357600080fd5b5061026b6107a2366004613123565b612ddf565b3480156107b357600080fd5b5060045461027e565b8060001080156107cc5750600481105b6108155760405162461bcd60e51b8152602060048201526015602482015274636f6c6f724e756d206f7574206f662072616e676560581b60448201526064015b60405180910390fd5b60008281526013602052604090205460148054909190811061084757634e487b7160e01b600052603260045260246000fd5b60009182526020909120600690910201600201546001600160a01b031633146108825760405162461bcd60e51b815260040161080c906132a2565b6000828152601360205260409020546014805483929081106108b457634e487b7160e01b600052603260045260246000fd5b9060005260206000209060060201600101819055505050565b600f546001600160a01b031633146108f75760405162461bcd60e51b815260040161080c906132a2565b620f424081111561093f5760405162461bcd60e51b81526020600482015260126024820152716d61784964206f7574206f662072616e676560701b604482015260640161080c565b601055565b600f546001600160a01b0316331461096e5760405162461bcd60e51b815260040161080c906132a2565b600b55565b6000818152601360205260408120546014805490919081106109a557634e487b7160e01b600052603260045260246000fd5b9060005260206000209060060201600101549050919050565b60095482101580156109d25750600a548211155b610a175760405162461bcd60e51b8152602060048201526016602482015275707269636552617465206f7574206f662072616e676560501b604482015260640161080c565b60005b8151811015610aa55782601460136000858581518110610a4a57634e487b7160e01b600052603260045260246000fd5b602002602001015181526020019081526020016000205481548110610a7f57634e487b7160e01b600052603260045260246000fd5b600091825260209091206005600690920201015580610a9d81613333565b915050610a1a565b505050565b336001600160a01b0382161415610b035760405162461bcd60e51b815260206004820152601e60248201527f796f752063616e27742062757920796f7572206f776e20626c6f636b73210000604482015260640161080c565b600d8054610b1391600c91612f72565b506000805b601454811015610cc257826001600160a01b031660148281548110610b4d57634e487b7160e01b600052603260045260246000fd5b60009182526020909120600260069092020101546001600160a01b03161415610bb857600c60148281548110610b9357634e487b7160e01b600052603260045260246000fd5b6000918252602080832060069092029091015483546001810185559383529120909101555b601460136000600c8481548110610bdf57634e487b7160e01b600052603260045260246000fd5b906000526020600020015481526020019081526020016000205481548110610c1757634e487b7160e01b600052603260045260246000fd5b906000526020600020906006020160050154601460136000600c8581548110610c5057634e487b7160e01b600052603260045260246000fd5b906000526020600020015481526020019081526020016000205481548110610c8857634e487b7160e01b600052603260045260246000fd5b906000526020600020906006020160040154610ca491906132fd565b610cae90836132c5565b915080610cba81613333565b915050610b18565b50816001600160a01b03166108fc601154612710610ce0919061331c565b610cef846402540be4006132fd565b610cf991906132fd565b6040518115909202916000818181858888f19350505050158015610d21573d6000803e3d6000fd5b50600f546006546011546001600160a01b03909216916108fc91610d449161331c565b610d53846402540be4006132fd565b610d5d91906132fd565b6040518115909202916000818181858888f19350505050158015610d85573d6000803e3d6000fd5b50336000908152602081905260409020546006546001600160a01b03909116906108fc90610db8846402540be4006132fd565b610dc291906132fd565b6040518115909202916000818181858888f19350505050158015610dea573d6000803e3d6000fd5b5060005b600c54811015610aa55733601460136000600c8581548110610e2057634e487b7160e01b600052603260045260246000fd5b906000526020600020015481526020019081526020016000205481548110610e5857634e487b7160e01b600052603260045260246000fd5b6000918252602080832060069290920290910160020180546001600160a01b0319166001600160a01b039485161790553382528190526040812054600c8054919093169260149260139290919086908110610ec357634e487b7160e01b600052603260045260246000fd5b906000526020600020015481526020019081526020016000205481548110610efb57634e487b7160e01b600052603260045260246000fd5b906000526020600020906006020160030160006101000a8154816001600160a01b0302191690836001600160a01b031602179055506064601460136000600c8581548110610f5957634e487b7160e01b600052603260045260246000fd5b906000526020600020015481526020019081526020016000205481548110610f9157634e487b7160e01b600052603260045260246000fd5b906000526020600020906006020160050154601460136000600c8681548110610fca57634e487b7160e01b600052603260045260246000fd5b90600052602060002001548152602001908152602001600020548154811061100257634e487b7160e01b600052603260045260246000fd5b90600052602060002090600602016004015461101e91906132fd565b61102891906132dd565b601460136000600c858154811061104f57634e487b7160e01b600052603260045260246000fd5b90600052602060002001548152602001908152602001600020548154811061108757634e487b7160e01b600052603260045260246000fd5b6000918252602090912060046006909202010155806110a581613333565b915050610dee565b60606014805480602002602001604051908101604052809291908181526020016000905b828210156111475760008481526020908190206040805160c08101825260068602909201805483526001808201548486015260028201546001600160a01b039081169385019390935260038201549092166060840152600481015460808401526005015460a083015290835290920191016110d1565b50505050905090565b60005b82518110156112435760146013600085848151811061118257634e487b7160e01b600052603260045260246000fd5b6020026020010151815260200190815260200160002054815481106111b757634e487b7160e01b600052603260045260246000fd5b60009182526020909120600690910201600201546001600160a01b031633146112315760405162461bcd60e51b815260206004820152602660248201527f6174206c65617374206f6e6520626c6f636b206973206e6f74206f776e656420604482015265627920796f7560d01b606482015260840161080c565b8061123b81613333565b915050611153565b5060005b8251811015610aa5578160146013600086858151811061127757634e487b7160e01b600052603260045260246000fd5b6020026020010151815260200190815260200160002054815481106112ac57634e487b7160e01b600052603260045260246000fd5b6000918252602080832060069290920290910160020180546001600160a01b0319166001600160a01b0394851617905584831682528190526040812054855192169160149160139187908690811061131457634e487b7160e01b600052603260045260246000fd5b60200260200101518152602001908152602001600020548154811061134957634e487b7160e01b600052603260045260246000fd5b906000526020600020906006020160030160006101000a8154816001600160a01b0302191690836001600160a01b03160217905550808061138990613333565b915050611247565b6000601460136000856000815181106113ba57634e487b7160e01b600052603260045260246000fd5b6020026020010151815260200190815260200160002054815481106113ef57634e487b7160e01b600052603260045260246000fd5b60009182526020909120600260069092020101546001600160a01b031690503381141561147d5760405162461bcd60e51b815260206004820152603660248201527f796f7520616c7265616479206f776e6564206174206c65617374206f6e65206f60448201527566207468652073656c65746374656420626c6f636b7360501b606482015260840161080c565b60005b835181101561158057816001600160a01b03166014601360008785815181106114b957634e487b7160e01b600052603260045260246000fd5b6020026020010151815260200190815260200160002054815481106114ee57634e487b7160e01b600052603260045260246000fd5b60009182526020909120600260069092020101546001600160a01b03161461156e5760405162461bcd60e51b815260206004820152602d60248201527f796f75206861766520746f2073656c65637420626c6f636b732077697468207460448201526c34329039b0b6b29037bbb732b960991b606482015260840161080c565b8061157881613333565b915050611480565b50600b5461158d826121ab565b11806115b257506001600160a01b0381166000908152600e602052604090205460ff16155b61163b5760405162461bcd60e51b815260206004820152604e60248201527f746865206f726967696e4f776e6572206c6f636b6564206974277320626c6f6360448201527f6b732c20796f75206861766520746f20627579206869732f68657220626c6f6360648201526d6b7320616c6c206174206f6e636560901b608482015260a40161080c565b6000805b845181101561174a5760146013600087848151811061166e57634e487b7160e01b600052603260045260246000fd5b6020026020010151815260200190815260200160002054815481106116a357634e487b7160e01b600052603260045260246000fd5b9060005260206000209060060201600501546014601360008885815181106116db57634e487b7160e01b600052603260045260246000fd5b60200260200101518152602001908152602001600020548154811061171057634e487b7160e01b600052603260045260246000fd5b90600052602060002090600602016004015461172c91906132fd565b61173690836132c5565b91508061174281613333565b91505061163f565b5061175361241e565b156119a2576108026001600160a01b031663a9059cbb8360115461271061177a919061331c565b61178785629896806132fd565b61179191906132fd565b6040516001600160e01b031960e085901b1681526001600160a01b0390921660048301526024820152604401602060405180830381600087803b1580156117d757600080fd5b505af11580156117eb573d6000803e3d6000fd5b505050506040513d601f19601f8201168201806040525081019061180f9190613182565b50336000908152602081905260409020546006546108029163a9059cbb916001600160a01b039091169061184685629896806132fd565b61185091906132fd565b6040516001600160e01b031960e085901b1681526001600160a01b0390921660048301526024820152604401602060405180830381600087803b15801561189657600080fd5b505af11580156118aa573d6000803e3d6000fd5b505050506040513d601f19601f820116820180604052508101906118ce9190613182565b50600f546006546008546011546108029363a9059cbb936001600160a01b039091169290916118fd919061331c565b611907919061331c565b61191485629896806132fd565b61191e91906132fd565b6040516001600160e01b031960e085901b1681526001600160a01b0390921660048301526024820152604401602060405180830381600087803b15801561196457600080fd5b505af1158015611978573d6000803e3d6000fd5b505050506040513d601f19601f8201168201806040525081019061199c9190613182565b50611b0d565b6108026001600160a01b031663a9059cbb836011546127106119c4919061331c565b6119d185629896806132fd565b6119db91906132fd565b6040516001600160e01b031960e085901b1681526001600160a01b0390921660048301526024820152604401602060405180830381600087803b158015611a2157600080fd5b505af1158015611a35573d6000803e3d6000fd5b505050506040513d601f19601f82011682018060405250810190611a599190613182565b50600f546011546108029163a9059cbb916001600160a01b0390911690611a8385629896806132fd565b611a8d91906132fd565b6040516001600160e01b031960e085901b1681526001600160a01b0390921660048301526024820152604401602060405180830381600087803b158015611ad357600080fd5b505af1158015611ae7573d6000803e3d6000fd5b505050506040513d601f19601f82011682018060405250810190611b0b9190613182565b505b60005b8451811015611e275733601460136000888581518110611b4057634e487b7160e01b600052603260045260246000fd5b602002602001015181526020019081526020016000205481548110611b7557634e487b7160e01b600052603260045260246000fd5b6000918252602080832060069290920290910160020180546001600160a01b0319166001600160a01b0394851617905533825281905260408120548751921691601491601391899086908110611bdb57634e487b7160e01b600052603260045260246000fd5b602002602001015181526020019081526020016000205481548110611c1057634e487b7160e01b600052603260045260246000fd5b906000526020600020906006020160030160006101000a8154816001600160a01b0302191690836001600160a01b0316021790555083601460136000888581518110611c6c57634e487b7160e01b600052603260045260246000fd5b602002602001015181526020019081526020016000205481548110611ca157634e487b7160e01b600052603260045260246000fd5b9060005260206000209060060201600101819055506064601460136000888581518110611cde57634e487b7160e01b600052603260045260246000fd5b602002602001015181526020019081526020016000205481548110611d1357634e487b7160e01b600052603260045260246000fd5b906000526020600020906006020160050154601460136000898681518110611d4b57634e487b7160e01b600052603260045260246000fd5b602002602001015181526020019081526020016000205481548110611d8057634e487b7160e01b600052603260045260246000fd5b906000526020600020906006020160040154611d9c91906132fd565b611da691906132dd565b601460136000888581518110611dcc57634e487b7160e01b600052603260045260246000fd5b602002602001015181526020019081526020016000205481548110611e0157634e487b7160e01b600052603260045260246000fd5b600091825260209091206004600690920201015580611e1f81613333565b915050611b10565b5050505050565b600f546001600160a01b03163314611e585760405162461bcd60e51b815260040161080c906132a2565b6127106011541115611e9f5760405162461bcd60e51b815260206004820152601060248201526f666565206f7574206f662072616e676560801b604482015260640161080c565b601155565b600081815260136020526040812054601480549091908110611ed657634e487b7160e01b600052603260045260246000fd5b60009182526020909120600260069092020101546001600160a01b031692915050565b60035460009060ff168015611f3357506004546001600160a01b03808416600090815260208190526040902054611f3091166122a7565b10155b92915050565b6009548110158015611f4d5750600a548111155b611f925760405162461bcd60e51b8152602060048201526016602482015275707269636552617465206f7574206f662072616e676560501b604482015260640161080c565b600d8054611fa291600c91612f72565b5060005b60145481101561205857336001600160a01b031660148281548110611fdb57634e487b7160e01b600052603260045260246000fd5b60009182526020909120600260069092020101546001600160a01b0316141561204657600c6014828154811061202157634e487b7160e01b600052603260045260246000fd5b6000918252602080832060069092029091015483546001810185559383529120909101555b8061205081613333565b915050611fa6565b50600c546120a85760405162461bcd60e51b815260206004820152601e60248201527f796f7520646f6e2774206f776e20616e79206f662074686520626c6f636b0000604482015260640161080c565b60005b600c5481101561213b5781601460136000600c85815481106120dd57634e487b7160e01b600052603260045260246000fd5b90600052602060002001548152602001908152602001600020548154811061211557634e487b7160e01b600052603260045260246000fd5b60009182526020909120600560069092020101558061213381613333565b9150506120ab565b5050565b600f546001600160a01b031633146121695760405162461bcd60e51b815260040161080c906132a2565b6003805460ff1916911515919091179055565b600f546001600160a01b031633146121a65760405162461bcd60e51b815260040161080c906132a2565b600555565b6000805b60145481101561222757826001600160a01b0316601482815481106121e457634e487b7160e01b600052603260045260246000fd5b60009182526020909120600260069092020101546001600160a01b03161415612215578161221181613333565b9250505b8061221f81613333565b9150506121af565b50919050565b60008181526013602052604081205460148054909190811061225f57634e487b7160e01b600052603260045260246000fd5b9060005260206000209060060201600401549050919050565b600f546001600160a01b031633146122a25760405162461bcd60e51b815260040161080c906132a2565b600955565b60008060015b60145481101561232557836001600160a01b0316601482815481106122e257634e487b7160e01b600052603260045260246000fd5b60009182526020909120600360069092020101546001600160a01b03161415612313576123106001836132c5565b91505b8061231d81613333565b9150506122ad565b5092915050565b60008181526013602052604081205460148054909190811061235e57634e487b7160e01b600052603260045260246000fd5b90600052602060002090600602016005015460146013600085815260200190815260200160002054815481106123a457634e487b7160e01b600052603260045260246000fd5b906000526020600020906006020160040154611f3391906132fd565b600f546001600160a01b031633146123ea5760405162461bcd60e51b815260040161080c906132a2565b600a55565b600f546001600160a01b031633146124195760405162461bcd60e51b815260040161080c906132a2565b600655565b336000908152602081905260408120546001600160a01b031615801590612447575060035460ff165b8015612476575060045433600090815260208190526040902054612473906001600160a01b03166122a7565b10155b905090565b600f546001600160a01b031633146124a55760405162461bcd60e51b815260040161080c906132a2565b6305f5e1008111156124ec5760405162461bcd60e51b815260206004820152601060248201526f666565206f7574206f662072616e676560801b604482015260640161080c565b601255565b6124fa82612ce6565b6125465760405162461bcd60e51b815260206004820152601c60248201527f6174206c65617374206f6e65206964206f7574206f662072616e676500000000604482015260640161080c565b607e8110801561255557508015155b6125995760405162461bcd60e51b8152602060048201526015602482015274636f6c6f724e756d206f7574206f662072616e676560581b604482015260640161080c565b6000805b8351811015612605576125e58482815181106125c957634e487b7160e01b600052603260045260246000fd5b6020026020010151600090815260136020526040902054151590565b156125f35760019150612605565b806125fd81613333565b91505061259d565b5080610aa55761261361241e565b156129da573360009081526020819052604090205460055484516108029263a9059cbb926001600160a01b03909116916126529064174876e8006132fd565b61265c91906132fd565b6040516001600160e01b031960e085901b1681526001600160a01b0390921660048301526024820152604401602060405180830381600087803b1580156126a257600080fd5b505af11580156126b6573d6000803e3d6000fd5b505050506040513d601f19601f820116820180604052508101906126da9190613182565b50600f546007546005546012546108029363a9059cbb936001600160a01b03909116929091612709919061331c565b612713919061331c565b86516127249064174876e8006132fd565b61272e91906132fd565b6040516001600160e01b031960e085901b1681526001600160a01b0390921660048301526024820152604401602060405180830381600087803b15801561277457600080fd5b505af1158015612788573d6000803e3d6000fd5b505050506040513d601f19601f820116820180604052508101906127ac9190613182565b5060005b83518110156129d4576127dc8482815181106125c957634e487b7160e01b600052603260045260246000fd5b6129c2576014805490506013600086848151811061280a57634e487b7160e01b600052603260045260246000fd5b602002602001015181526020019081526020016000208190555060006040518060c0016040528086848151811061285157634e487b7160e01b600052603260045260246000fd5b60209081029190910181015182528181018790523360408084018290526000918252818352808220546001600160a01b0390811660608087019190915260c8608080880191909152606460a09788015260148054600181018255955287517fce6d7b5282bd9a3661ae061feed1dbda4e52ab073b1f9285be6e155d9c38d4ec600690960295860155948701517fce6d7b5282bd9a3661ae061feed1dbda4e52ab073b1f9285be6e155d9c38d4ed850155918601517fce6d7b5282bd9a3661ae061feed1dbda4e52ab073b1f9285be6e155d9c38d4ee840180546001600160a01b0319908116928416929092179055918601517fce6d7b5282bd9a3661ae061feed1dbda4e52ab073b1f9285be6e155d9c38d4ef840180549093169116179055908301517fce6d7b5282bd9a3661ae061feed1dbda4e52ab073b1f9285be6e155d9c38d4f08201559101517fce6d7b5282bd9a3661ae061feed1dbda4e52ab073b1f9285be6e155d9c38d4f190910155505b806129cc81613333565b9150506127b0565b50505050565b600f5460125484516108029263a9059cbb926001600160a01b0390911691612a079064174876e8006132fd565b612a1191906132fd565b6040516001600160e01b031960e085901b1681526001600160a01b0390921660048301526024820152604401602060405180830381600087803b158015612a5757600080fd5b505af1158015612a6b573d6000803e3d6000fd5b505050506040513d601f19601f82011682018060405250810190612a8f9190613182565b5060005b83518110156129d457612abf8482815181106125c957634e487b7160e01b600052603260045260246000fd5b612ca55760148054905060136000868481518110612aed57634e487b7160e01b600052603260045260246000fd5b602002602001015181526020019081526020016000208190555060006040518060c00160405280868481518110612b3457634e487b7160e01b600052603260045260246000fd5b60209081029190910181015182528181018790523360408084018290526000918252818352808220546001600160a01b0390811660608087019190915260c8608080880191909152606460a09788015260148054600181018255955287517fce6d7b5282bd9a3661ae061feed1dbda4e52ab073b1f9285be6e155d9c38d4ec600690960295860155948701517fce6d7b5282bd9a3661ae061feed1dbda4e52ab073b1f9285be6e155d9c38d4ed850155918601517fce6d7b5282bd9a3661ae061feed1dbda4e52ab073b1f9285be6e155d9c38d4ee840180546001600160a01b0319908116928416929092179055918601517fce6d7b5282bd9a3661ae061feed1dbda4e52ab073b1f9285be6e155d9c38d4ef840180549093169116179055908301517fce6d7b5282bd9a3661ae061feed1dbda4e52ab073b1f9285be6e155d9c38d4f08201559101517fce6d7b5282bd9a3661ae061feed1dbda4e52ab073b1f9285be6e155d9c38d4f190910155505b80612caf81613333565b915050612a93565b600f546001600160a01b03163314612ce15760405162461bcd60e51b815260040161080c906132a2565b600455565b60008060005b835181101561232557601054848281518110612d1857634e487b7160e01b600052603260045260246000fd5b60200260200101511115612d2f5760009150612325565b6001915080612d3d81613333565b915050612cec565b600081815260136020526040812054601480549091908110612d7757634e487b7160e01b600052603260045260246000fd5b9060005260206000209060060201600501549050919050565b60408051818152600481830152631d195cdd60e21b606082015260fa602082015290517fdd970dd9b5bfe707922155b058a407655cb18288b807e2216442bca8ad83d6b59181900360800190a1565b60005b8251811015612ee357336001600160a01b0316601460136000868581518110612e1b57634e487b7160e01b600052603260045260246000fd5b602002602001015181526020019081526020016000205481548110612e5057634e487b7160e01b600052603260045260246000fd5b60009182526020909120600260069092020101546001600160a01b031614612ed15760405162461bcd60e51b815260206004820152602e60248201527f74686520626c6f636b7320796f752063686f6f736520617265206e6f7420616c60448201526d6c206f776e656420627920796f7560901b606482015260840161080c565b80612edb81613333565b915050612de2565b5060005b8251811015610aa55781601460136000868581518110612f1757634e487b7160e01b600052603260045260246000fd5b602002602001015181526020019081526020016000205481548110612f4c57634e487b7160e01b600052603260045260246000fd5b600091825260209091206001600690920201015580612f6a81613333565b915050612ee7565b828054828255906000526020600020908101928215612fb25760005260206000209182015b82811115612fb2578254825591600101919060010190612f97565b50612fbe929150612fc2565b5090565b5b80821115612fbe5760008155600101612fc3565b600082601f830112612fe7578081fd5b8135602067ffffffffffffffff8083111561300457613004613364565b8260051b604051601f19603f8301168101818110848211171561302957613029613364565b60405284815283810192508684018288018501891015613047578687fd5b8692505b8583101561306957803584529284019260019290920191840161304b565b50979650505050505050565b600060208284031215613086578081fd5b81356130918161337a565b9392505050565b6000602082840312156130a9578081fd5b813567ffffffffffffffff8111156130bf578182fd5b6130cb84828501612fd7565b949350505050565b600080604083850312156130e5578081fd5b823567ffffffffffffffff8111156130fb578182fd5b61310785828601612fd7565b92505060208301356131188161337a565b809150509250929050565b60008060408385031215613135578182fd5b823567ffffffffffffffff81111561314b578283fd5b61315785828601612fd7565b95602094909401359450505050565b600060208284031215613177578081fd5b813561309181613392565b600060208284031215613193578081fd5b815161309181613392565b6000602082840312156131af578081fd5b5035919050565b600080604083850312156131c8578182fd5b82359150602083013567ffffffffffffffff8111156131e5578182fd5b6131f185828601612fd7565b9150509250929050565b6000806040838503121561320d578182fd5b50508035926020909101359150565b602080825282518282018190526000919060409081850190868401855b82811015613295578151805185528681015187860152858101516001600160a01b0390811687870152606080830151909116908601526080808201519086015260a0908101519085015260c09093019290850190600101613239565b5091979650505050505050565b6020808252600990820152683737ba1037bbb732b960b91b604082015260600190565b600082198211156132d8576132d861334e565b500190565b6000826132f857634e487b7160e01b81526012600452602481fd5b500490565b60008160001904831182151516156133175761331761334e565b500290565b60008282101561332e5761332e61334e565b500390565b60006000198214156133475761334761334e565b5060010190565b634e487b7160e01b600052601160045260246000fd5b634e487b7160e01b600052604160045260246000fd5b6001600160a01b038116811461338f57600080fd5b50565b801515811461338f57600080fdfea2646970667358221220a5c07d4b98dcfee12c8630738faa71a9e71f0feff1b0418c0692fec6d47bee9964736f6c63430008040033",
  "linkReferences": {},
  "deployedLinkReferences": {}
}