{
  "address": "0x3a3e92644c7AedFbbbF53145e399dBc5Dd156D75",
  "abi": [
    {
      "inputs": [],
      "stateMutability": "nonpayable",
      "type": "constructor"
    },
    {
      "anonymous": false,
      "inputs": [
        {
          "indexed": false,
          "internalType": "address",
          "name": "_from",
          "type": "address"
        },
        {
          "indexed": false,
          "internalType": "uint256",
          "name": "_amount",
          "type": "uint256"
        }
      ],
      "name": "TransferReceived",
      "type": "event"
    },
    {
      "anonymous": false,
      "inputs": [
        {
          "indexed": false,
          "internalType": "address",
          "name": "_from",
          "type": "address"
        },
        {
          "indexed": false,
          "internalType": "address",
          "name": "_destAddr",
          "type": "address"
        },
        {
          "indexed": false,
          "internalType": "uint256",
          "name": "_amount",
          "type": "uint256"
        }
      ],
      "name": "TransferSent",
      "type": "event"
    },
    {
      "inputs": [
        {
          "internalType": "contract IERC20",
          "name": "tokenContractAddress",
          "type": "address"
        }
      ],
      "name": "getContractBalance",
      "outputs": [
        {
          "internalType": "uint256",
          "name": "",
          "type": "uint256"
        }
      ],
      "stateMutability": "view",
      "type": "function"
    },
    {
      "inputs": [],
      "name": "owner",
      "outputs": [
        {
          "internalType": "address",
          "name": "",
          "type": "address"
        }
      ],
      "stateMutability": "view",
      "type": "function"
    },
    {
      "inputs": [
        {
          "internalType": "contract IERC20",
          "name": "tokenContractAddress",
          "type": "address"
        },
        {
          "internalType": "uint256",
          "name": "amount",
          "type": "uint256"
        },
        {
          "internalType": "string",
          "name": "reportHash",
          "type": "string"
        },
        {
          "internalType": "address",
          "name": "receiveAddress",
          "type": "address"
        }
      ],
      "name": "transferERC20",
      "outputs": [],
      "stateMutability": "nonpayable",
      "type": "function"
    },
    {
      "inputs": [
        {
          "internalType": "string",
          "name": "",
          "type": "string"
        }
      ],
      "name": "user_is_reward",
      "outputs": [
        {
          "internalType": "bool",
          "name": "",
          "type": "bool"
        }
      ],
      "stateMutability": "view",
      "type": "function"
    },
    {
      "stateMutability": "payable",
      "type": "receive"
    }
  ],
  "transactionHash": "0xade361aa886c7d379a9fd11d20d22f6402598976526dfb5be18c2b2d51a1312e",
  "args": [],
  "solcInputHash": "067cbf1747064e96912aa2a12351cf77",
  "bytecode": "0x608060405234801561001057600080fd5b50600080546001600160a01b0319163317905561075f806100326000396000f3fe6080604052600436106100435760003560e01c806343ab265f1461009e57806379679e23146100d15780638da5cb5b146100f3578063dcac6a631461012b57600080fd5b3661009957346001600082825461005a91906106d5565b9091555050604080513381523460208201527ff1b03f708b9c39f453fe3f0cef84164c7d6f7df836df0796e1e9c2bce6ee397e910160405180910390a1005b600080fd5b3480156100aa57600080fd5b506100be6100b93660046105bb565b610176565b6040519081526020015b60405180910390f35b3480156100dd57600080fd5b506100f16100ec3660046105d8565b6101f9565b005b3480156100ff57600080fd5b50600054610113906001600160a01b031681565b6040516001600160a01b0390911681526020016100c8565b34801561013757600080fd5b50610166610146366004610644565b805160208183018101805160028252928201919093012091525460ff1681565b60405190151581526020016100c8565b6040516370a0823160e01b815230600482015260009081906001600160a01b038416906370a082319060240160206040518083038186803b1580156101ba57600080fd5b505afa1580156101ce573d6000803e3d6000fd5b505050506040513d601f19601f820116820180604052508101906101f29190610681565b9392505050565b60008251116102625760405162461bcd60e51b815260206004820152602a60248201527f496e76616c6964207265706f727420686173682c20706c656173652063686563604482015269359034ba1030b3b0b4b760b11b60648201526084015b60405180910390fd5b600282604051610272919061069a565b9081526040519081900360200190205460ff16156102f05760405162461bcd60e51b815260206004820152603560248201527f546865207265706f7274206861736820686173206265656e20757365642c706c604482015274032b0b9b2903a393c9030b737ba3432b91037b7329605d1b6064820152608401610259565b6000546001600160a01b0316331461034a5760405162461bcd60e51b815260206004820152601d60248201527f4f6e6c79206f776e65722063616e207472616e736665722066756e64730000006044820152606401610259565b6040516370a0823160e01b81523060048201526000906001600160a01b038616906370a082319060240160206040518083038186803b15801561038c57600080fd5b505afa1580156103a0573d6000803e3d6000fd5b505050506040513d601f19601f820116820180604052508101906103c49190610681565b9050808411156104075760405162461bcd60e51b815260206004820152600e60248201526d42616c616e6365206973206c6f7760901b6044820152606401610259565b60405163a9059cbb60e01b81526001600160a01b0383811660048301526024820186905286169063a9059cbb90604401602060405180830381600087803b15801561045157600080fd5b505af1158015610465573d6000803e3d6000fd5b505050506040513d601f19601f820116820180604052508101906104899190610599565b50604080513381526001600160a01b03841660208201529081018590527ffda3a3e0e1479b43cb1c701f7576187f4c4ad80768d627387e00184302f7d88e9060600160405180910390a160016002846040516104e5919061069a565b908152604051908190036020019020805491151560ff199092169190911790555050505050565b600082601f83011261051d57600080fd5b813567ffffffffffffffff80821115610538576105386106fb565b604051601f8301601f19908116603f01168101908282118183101715610560576105606106fb565b8160405283815286602085880101111561057957600080fd5b836020870160208301376000602085830101528094505050505092915050565b6000602082840312156105ab57600080fd5b815180151581146101f257600080fd5b6000602082840312156105cd57600080fd5b81356101f281610711565b600080600080608085870312156105ee57600080fd5b84356105f981610711565b935060208501359250604085013567ffffffffffffffff81111561061c57600080fd5b6106288782880161050c565b925050606085013561063981610711565b939692955090935050565b60006020828403121561065657600080fd5b813567ffffffffffffffff81111561066d57600080fd5b6106798482850161050c565b949350505050565b60006020828403121561069357600080fd5b5051919050565b6000825160005b818110156106bb57602081860181015185830152016106a1565b818111156106ca576000828501525b509190910192915050565b600082198211156106f657634e487b7160e01b600052601160045260246000fd5b500190565b634e487b7160e01b600052604160045260246000fd5b6001600160a01b038116811461072657600080fd5b5056fea264697066735822122079391059b77a58d3950c42559aa404d3fd33fe7f8d090a0e088bc700b94fa63764736f6c63430008070033",
  "devdoc": {
    "kind": "dev",
    "methods": {},
    "version": 1
  },
  "userdoc": {
    "kind": "user",
    "methods": {},
    "version": 1
  },
  "storageLayout": {
    "storage": [
      {
        "astId": 603,
        "contract": "contracts/TokenReward.sol:TokenReward",
        "label": "owner",
        "offset": 0,
        "slot": "0",
        "type": "t_address"
      },
      {
        "astId": 605,
        "contract": "contracts/TokenReward.sol:TokenReward",
        "label": "balance",
        "offset": 0,
        "slot": "1",
        "type": "t_uint256"
      },
      {
        "astId": 609,
        "contract": "contracts/TokenReward.sol:TokenReward",
        "label": "user_is_reward",
        "offset": 0,
        "slot": "2",
        "type": "t_mapping(t_string_memory_ptr,t_bool)"
      }
    ],
    "types": {
      "t_address": {
        "encoding": "inplace",
        "label": "address",
        "numberOfBytes": "20"
      },
      "t_bool": {
        "encoding": "inplace",
        "label": "bool",
        "numberOfBytes": "1"
      },
      "t_mapping(t_string_memory_ptr,t_bool)": {
        "encoding": "mapping",
        "key": "t_string_memory_ptr",
        "label": "mapping(string => bool)",
        "numberOfBytes": "32",
        "value": "t_bool"
      },
      "t_string_memory_ptr": {
        "encoding": "bytes",
        "label": "string",
        "numberOfBytes": "32"
      },
      "t_uint256": {
        "encoding": "inplace",
        "label": "uint256",
        "numberOfBytes": "32"
      }
    }
  }
}