{
  "address": "0xA57DC4Cf7795FcA3ca24413A9E5b702Ac0D562e4",
  "abi": [
    {
      "inputs": [],
      "stateMutability": "payable",
      "type": "constructor"
    },
    {
      "anonymous": false,
      "inputs": [
        {
          "indexed": false,
          "internalType": "address",
          "name": "sender",
          "type": "address"
        },
        {
          "indexed": false,
          "internalType": "string",
          "name": "purpose",
          "type": "string"
        }
      ],
      "name": "SetPurpose",
      "type": "event"
    },
    {
      "stateMutability": "payable",
      "type": "fallback"
    },
    {
      "inputs": [],
      "name": "purpose",
      "outputs": [
        {
          "internalType": "string",
          "name": "",
          "type": "string"
        }
      ],
      "stateMutability": "view",
      "type": "function"
    },
    {
      "inputs": [
        {
          "internalType": "string",
          "name": "newPurpose",
          "type": "string"
        }
      ],
      "name": "setPurpose",
      "outputs": [],
      "stateMutability": "nonpayable",
      "type": "function"
    },
    {
      "stateMutability": "payable",
      "type": "receive"
    }
  ],
  "transactionHash": "0xb2cb3dbf8561662ff6ae1ed1b0aa47845bfd8b5bc0177c8f0bffc3ecf7f46957",
  "args": [],
  "solcInputHash": "9e7726142e86da560eccdb7cc8a01a55",
  "bytecode": "0x60c0604052601960808190527f4275696c64696e6720556e73746f707061626c6520417070730000000000000060a090815261003e9160009190610044565b50610118565b828054610050906100dd565b90600052602060002090601f01602090048101928261007257600085556100b8565b82601f1061008b57805160ff19168380011785556100b8565b828001600101855582156100b8579182015b828111156100b857825182559160200191906001019061009d565b506100c49291506100c8565b5090565b5b808211156100c457600081556001016100c9565b600181811c908216806100f157607f821691505b6020821081141561011257634e487b7160e01b600052602260045260246000fd5b50919050565b6105b6806101276000396000f3fe60806040526004361061002a5760003560e01c806370740aab14610033578063eb68757f1461005e57005b3661003157005b005b34801561003f57600080fd5b5061004861007e565b6040516100559190610515565b60405180910390f35b34801561006a57600080fd5b5061003161007936600461031e565b61010c565b6000805461008b9061052f565b80601f01602080910402602001604051908101604052809291908181526020018280546100b79061052f565b80156101045780601f106100d957610100808354040283529160200191610104565b820191906000526020600020905b8154815290600101906020018083116100e757829003601f168201915b505050505081565b805161011f906000906020840190610285565b506101db336040518060400160405280600e81526020016d73657420707572706f736520746f60901b815250600080546101589061052f565b80601f01602080910402602001604051908101604052809291908181526020018280546101849061052f565b80156101d15780601f106101a6576101008083540402835291602001916101d1565b820191906000526020600020905b8154815290600101906020018083116101b457829003601f168201915b5050505050610218565b7f6ea5d6383a120235c7728a9a6751672a8ac068e4ed34dcca2ee444182c1812de33600060405161020d92919061045c565b60405180910390a150565b61025f8383836040516024016102309392919061041c565b60408051601f198184030181529190526020810180516001600160e01b031663fb77226560e01b179052610264565b505050565b80516a636f6e736f6c652e6c6f67602083016000808483855afa5050505050565b8280546102919061052f565b90600052602060002090601f0160209004810192826102b357600085556102f9565b82601f106102cc57805160ff19168380011785556102f9565b828001600101855582156102f9579182015b828111156102f95782518255916020019190600101906102de565b50610305929150610309565b5090565b5b80821115610305576000815560010161030a565b60006020828403121561033057600080fd5b813567ffffffffffffffff8082111561034857600080fd5b818401915084601f83011261035c57600080fd5b81358181111561036e5761036e61056a565b604051601f8201601f19908116603f011681019083821181831017156103965761039661056a565b816040528281528760208487010111156103af57600080fd5b826020860160208301376000928101602001929092525095945050505050565b6000815180845260005b818110156103f5576020818501810151868301820152016103d9565b81811115610407576000602083870101525b50601f01601f19169290920160200192915050565b6001600160a01b0384168152606060208201819052600090610440908301856103cf565b828103604084015261045281856103cf565b9695505050505050565b60018060a01b0383168152600060206040818401526000845481600182811c91508083168061048c57607f831692505b8583108114156104aa57634e487b7160e01b85526022600452602485fd5b60408801839052606088018180156104c957600181146104da57610505565b60ff19861682528782019650610505565b60008b81526020902060005b868110156104ff578154848201529085019089016104e6565b83019750505b50949a9950505050505050505050565b60208152600061052860208301846103cf565b9392505050565b600181811c9082168061054357607f821691505b6020821081141561056457634e487b7160e01b600052602260045260246000fd5b50919050565b634e487b7160e01b600052604160045260246000fdfea2646970667358221220a3043ae1d3f9643241f13eff1b09444b6241f36754d892eeb591f72f6f207a6664736f6c63430008070033",
  "devdoc": {
    "kind": "dev",
    "methods": {},
    "version": 1
  },
  "userdoc": {
    "kind": "user",
    "methods": {},
    "version": 1
  },
  "storageLayout": {
    "storage": [
      {
        "astId": 11,
        "contract": "contracts/YourContract.sol:YourContract",
        "label": "purpose",
        "offset": 0,
        "slot": "0",
        "type": "t_string_storage"
      }
    ],
    "types": {
      "t_string_storage": {
        "encoding": "bytes",
        "label": "string",
        "numberOfBytes": "32"
      }
    }
  }
}