{
  "contractName": "Greetings",
  "abi": [
    {
      "anonymous": false,
      "inputs": [
        {
          "indexed": true,
          "internalType": "address",
          "name": "previousOwner",
          "type": "address"
        },
        {
          "indexed": true,
          "internalType": "address",
          "name": "newOwner",
          "type": "address"
        }
      ],
      "name": "OwnershipTransferred",
      "type": "event"
    },
    {
      "inputs": [
        {
          "internalType": "string",
          "name": "",
          "type": "string"
        }
      ],
      "name": "contractABIMap",
      "outputs": [
        {
          "internalType": "string",
          "name": "",
          "type": "string"
        }
      ],
      "stateMutability": "view",
      "type": "function"
    },
    {
      "inputs": [],
      "name": "crossChainContract",
      "outputs": [
        {
          "internalType": "contract ICrossChain",
          "name": "",
          "type": "address"
        }
      ],
      "stateMutability": "view",
      "type": "function"
    },
    {
      "inputs": [
        {
          "internalType": "string",
          "name": "",
          "type": "string"
        },
        {
          "internalType": "string",
          "name": "",
          "type": "string"
        }
      ],
      "name": "destnContractMap",
      "outputs": [
        {
          "internalType": "string",
          "name": "contractAddress",
          "type": "string"
        },
        {
          "internalType": "string",
          "name": "funcName",
          "type": "string"
        },
        {
          "internalType": "bool",
          "name": "used",
          "type": "bool"
        }
      ],
      "stateMutability": "view",
      "type": "function"
    },
    {
      "inputs": [],
      "name": "getContext",
      "outputs": [
        {
          "components": [
            {
              "internalType": "uint256",
              "name": "id",
              "type": "uint256"
            },
            {
              "internalType": "string",
              "name": "fromChain",
              "type": "string"
            },
            {
              "internalType": "string",
              "name": "sender",
              "type": "string"
            },
            {
              "internalType": "string",
              "name": "signer",
              "type": "string"
            },
            {
              "components": [
                {
                  "internalType": "uint8",
                  "name": "reveal",
                  "type": "uint8"
                }
              ],
              "internalType": "struct SQOS",
              "name": "sqos",
              "type": "tuple"
            },
            {
              "internalType": "address",
              "name": "contractAddress",
              "type": "address"
            },
            {
              "internalType": "string",
              "name": "action",
              "type": "string"
            },
            {
              "components": [
                {
                  "internalType": "uint8",
                  "name": "resType",
                  "type": "uint8"
                },
                {
                  "internalType": "uint256",
                  "name": "id",
                  "type": "uint256"
                }
              ],
              "internalType": "struct Session",
              "name": "session",
              "type": "tuple"
            }
          ],
          "internalType": "struct SimplifiedMessage",
          "name": "",
          "type": "tuple"
        }
      ],
      "stateMutability": "view",
      "type": "function"
    },
    {
      "inputs": [
        {
          "internalType": "string",
          "name": "_destnChainName",
          "type": "string"
        },
        {
          "internalType": "string",
          "name": "_destnContractName",
          "type": "string"
        },
        {
          "internalType": "string",
          "name": "_funcName",
          "type": "string"
        }
      ],
      "name": "getMessageABI",
      "outputs": [
        {
          "components": [
            {
              "internalType": "string",
              "name": "parametertypes",
              "type": "string"
            },
            {
              "internalType": "string",
              "name": "parameterNames",
              "type": "string"
            }
          ],
          "internalType": "struct ContractBase.MessageABI",
          "name": "",
          "type": "tuple"
        }
      ],
      "stateMutability": "view",
      "type": "function"
    },
    {
      "inputs": [
        {
          "internalType": "uint256",
          "name": "",
          "type": "uint256"
        }
      ],
      "name": "greetings",
      "outputs": [
        {
          "internalType": "string",
          "name": "fromChain",
          "type": "string"
        },
        {
          "internalType": "string",
          "name": "title",
          "type": "string"
        },
        {
          "internalType": "string",
          "name": "content",
          "type": "string"
        },
        {
          "internalType": "string",
          "name": "date",
          "type": "string"
        }
      ],
      "stateMutability": "view",
      "type": "function"
    },
    {
      "inputs": [
        {
          "internalType": "bytes",
          "name": "",
          "type": "bytes"
        }
      ],
      "name": "messageABIMap",
      "outputs": [
        {
          "internalType": "string",
          "name": "parametertypes",
          "type": "string"
        },
        {
          "internalType": "string",
          "name": "parameterNames",
          "type": "string"
        }
      ],
      "stateMutability": "view",
      "type": "function"
    },
    {
      "inputs": [],
      "name": "ocResult",
      "outputs": [
        {
          "internalType": "uint256",
          "name": "",
          "type": "uint256"
        }
      ],
      "stateMutability": "view",
      "type": "function"
    },
    {
      "inputs": [],
      "name": "owner",
      "outputs": [
        {
          "internalType": "address",
          "name": "",
          "type": "address"
        }
      ],
      "stateMutability": "view",
      "type": "function"
    },
    {
      "inputs": [
        {
          "internalType": "string",
          "name": "",
          "type": "string"
        },
        {
          "internalType": "string",
          "name": "",
          "type": "string"
        }
      ],
      "name": "permittedContractMap",
      "outputs": [
        {
          "internalType": "string",
          "name": "",
          "type": "string"
        }
      ],
      "stateMutability": "view",
      "type": "function"
    },
    {
      "inputs": [
        {
          "internalType": "string",
          "name": "_funcName",
          "type": "string"
        },
        {
          "internalType": "string",
          "name": "_contractABI",
          "type": "string"
        }
      ],
      "name": "registerContractABI",
      "outputs": [],
      "stateMutability": "nonpayable",
      "type": "function"
    },
    {
      "inputs": [
        {
          "internalType": "string",
          "name": "_destnChainName",
          "type": "string"
        },
        {
          "internalType": "string",
          "name": "_destnContractName",
          "type": "string"
        },
        {
          "internalType": "string",
          "name": "_funcName",
          "type": "string"
        },
        {
          "internalType": "string",
          "name": "_paramType",
          "type": "string"
        },
        {
          "internalType": "string",
          "name": "_paramName",
          "type": "string"
        }
      ],
      "name": "registerMessageABI",
      "outputs": [],
      "stateMutability": "nonpayable",
      "type": "function"
    },
    {
      "inputs": [],
      "name": "renounceOwnership",
      "outputs": [],
      "stateMutability": "nonpayable",
      "type": "function"
    },
    {
      "inputs": [
        {
          "internalType": "address",
          "name": "_address",
          "type": "address"
        }
      ],
      "name": "setCrossChainContract",
      "outputs": [],
      "stateMutability": "nonpayable",
      "type": "function"
    },
    {
      "inputs": [
        {
          "internalType": "address",
          "name": "newOwner",
          "type": "address"
        }
      ],
      "name": "transferOwnership",
      "outputs": [],
      "stateMutability": "nonpayable",
      "type": "function"
    },
    {
      "inputs": [
        {
          "components": [
            {
              "internalType": "string",
              "name": "fromChain",
              "type": "string"
            },
            {
              "internalType": "string",
              "name": "title",
              "type": "string"
            },
            {
              "internalType": "string",
              "name": "content",
              "type": "string"
            },
            {
              "internalType": "string",
              "name": "date",
              "type": "string"
            }
          ],
          "internalType": "struct Greetings.Greeting",
          "name": "_greeting",
          "type": "tuple"
        }
      ],
      "name": "receiveGreeting",
      "outputs": [],
      "stateMutability": "nonpayable",
      "type": "function"
    },
    {
      "inputs": [
        {
          "internalType": "string",
          "name": "_toChain",
          "type": "string"
        },
        {
          "components": [
            {
              "internalType": "string",
              "name": "fromChain",
              "type": "string"
            },
            {
              "internalType": "string",
              "name": "title",
              "type": "string"
            },
            {
              "internalType": "string",
              "name": "content",
              "type": "string"
            },
            {
              "internalType": "string",
              "name": "date",
              "type": "string"
            }
          ],
          "internalType": "struct Greetings.Greeting",
          "name": "_greeting",
          "type": "tuple"
        }
      ],
      "name": "sendGreeting",
      "outputs": [],
      "stateMutability": "nonpayable",
      "type": "function"
    },
    {
      "inputs": [
        {
          "internalType": "string",
          "name": "_toChain",
          "type": "string"
        },
        {
          "internalType": "uint256[]",
          "name": "_nums",
          "type": "uint256[]"
        }
      ],
      "name": "sendComputeTask",
      "outputs": [],
      "stateMutability": "nonpayable",
      "type": "function"
    },
    {
      "inputs": [
        {
          "internalType": "uint256[]",
          "name": "_nums",
          "type": "uint256[]"
        }
      ],
      "name": "receiveComputeTask",
      "outputs": [],
      "stateMutability": "nonpayable",
      "type": "function"
    },
    {
      "inputs": [
        {
          "internalType": "uint256",
          "name": "_result",
          "type": "uint256"
        }
      ],
      "name": "receiveComputeResult",
      "outputs": [],
      "stateMutability": "nonpayable",
      "type": "function"
    },
    {
      "inputs": [
        {
          "internalType": "string",
          "name": "_funcName",
          "type": "string"
        },
        {
          "internalType": "string",
          "name": "_toChain",
          "type": "string"
        },
        {
          "internalType": "string",
          "name": "_contractAddress",
          "type": "string"
        },
        {
          "internalType": "string",
          "name": "_contractFuncName",
          "type": "string"
        }
      ],
      "name": "registerDestnContract",
      "outputs": [],
      "stateMutability": "nonpayable",
      "type": "function"
    },
    {
      "inputs": [
        {
          "internalType": "string",
          "name": "_chainName",
          "type": "string"
        },
        {
          "internalType": "string",
          "name": "_sender",
          "type": "string"
        },
        {
          "internalType": "string",
          "name": "_funcName",
          "type": "string"
        }
      ],
      "name": "registerPermittedContract",
      "outputs": [],
      "stateMutability": "nonpayable",
      "type": "function"
    },
    {
      "inputs": [
        {
          "internalType": "string",
          "name": "_chainName",
          "type": "string"
        },
        {
          "internalType": "string",
          "name": "_funcName",
          "type": "string"
        },
        {
          "internalType": "string",
          "name": "_sender",
          "type": "string"
        }
      ],
      "name": "verify",
      "outputs": [
        {
          "internalType": "bool",
          "name": "",
          "type": "bool"
        }
      ],
      "stateMutability": "view",
      "type": "function"
    }
  ],
  "bytecode": "0x608060405234801561001057600080fd5b5061001a3361001f565b61006f565b600080546001600160a01b038381166001600160a01b0319831681178455604051919092169283917f8be0079c531659141344cd1fd0a4f28419497f9722a3daafe3b4186f6b6457e09190a35050565b612a948061007e6000396000f3fe608060405234801561001057600080fd5b506004361061014d5760003560e01c80638da5cb5b116100c3578063d46927031161007c578063d4692703146102e4578063dbc90de1146102f7578063e432d53a1461030a578063f2fde38b1461031d578063f87c9ea914610330578063ff96254b1461035357600080fd5b80638da5cb5b1461025c578063a24cbdf314610281578063a6b2b83014610294578063b02fe88f146102a7578063babe5dd6146102be578063bb45acd9146102d157600080fd5b80634c236819116101155780634c236819146101d95780635fe78c6c146101ec57806366e1f8201461020c578063715018a61461021f57806379f6793c1461022757806380899bba1461023a57600080fd5b8063127f0f071461015257806318d72b54146101705780632639c423146101855780633ad16b7a146101a6578063424a6b23146101c6575b600080fd5b61015a610376565b604051610167919061182f565b60405180910390f35b61018361017e36600461191d565b6103fe565b005b610198610193366004611a15565b610453565b604051610167929190611a65565b6101b96101b4366004611adb565b61058a565b6040516101679190611b74565b6101836101d4366004611bc5565b61071e565b6101836101e7366004611c3d565b6108a3565b6101ff6101fa366004611c9e565b610a6a565b6040516101679190611cd2565b61018361021a366004611ce5565b610b0f565b610183610ba7565b610183610235366004611adb565b610bdd565b61024d610248366004611d50565b610c58565b60405161016793929190611db3565b6000546001600160a01b03165b6040516001600160a01b039091168152602001610167565b61018361028f366004611deb565b610db5565b6101836102a2366004611e04565b610de4565b6102b060075481565b604051908152602001610167565b6101836102cc366004611e63565b610ede565b6101ff6102df366004611d50565b610f84565b6101836102f2366004611f26565b610fc5565b600354610269906001600160a01b031681565b610183610318366004612016565b6110f8565b61018361032b36600461191d565b611231565b61034361033e366004611deb565b6112cc565b604051610167949392919061207e565b610366610361366004611adb565b61152c565b6040519015158152602001610167565b61037e611644565b600360009054906101000a90046001600160a01b03166001600160a01b0316639af7a48c6040518163ffffffff1660e01b8152600401600060405180830381865afa1580156103d1573d6000803e3d6000fd5b505050506040513d6000823e601f3d908101601f191682016040526103f991908101906121dd565b905090565b6000546001600160a01b031633146104315760405162461bcd60e51b8152600401610428906122f5565b60405180910390fd5b600380546001600160a01b0319166001600160a01b0392909216919091179055565b80516020818301810180516001825292820191909301209152805481906104799061232a565b80601f01602080910402602001604051908101604052809291908181526020018280546104a59061232a565b80156104f25780601f106104c7576101008083540402835291602001916104f2565b820191906000526020600020905b8154815290600101906020018083116104d557829003601f168201915b5050505050908060010180546105079061232a565b80601f01602080910402602001604051908101604052809291908181526020018280546105339061232a565b80156105805780601f1061055557610100808354040283529160200191610580565b820191906000526020600020905b81548152906001019060200180831161056357829003601f168201915b5050505050905082565b604080518082019091526060808252602082015260018787878787876040516020016105bb9695949392919061235f565b60408051601f19818403018152908290526105d59161238f565b90815260200160405180910390206040518060400160405290816000820180546105fe9061232a565b80601f016020809104026020016040519081016040528092919081815260200182805461062a9061232a565b80156106775780601f1061064c57610100808354040283529160200191610677565b820191906000526020600020905b81548152906001019060200180831161065a57829003601f168201915b505050505081526020016001820180546106909061232a565b80601f01602080910402602001604051908101604052809291908181526020018280546106bc9061232a565b80156107095780601f106106de57610100808354040283529160200191610709565b820191906000526020600020905b8154815290600101906020018083116106ec57829003601f168201915b50505050508152505090509695505050505050565b6003546001600160a01b031633146107485760405162461bcd60e51b8152600401610428906123ab565b6000610752610376565b905080608001516000015160ff1660011461079f5760405162461bcd60e51b815260206004820152600d60248201526c53516f5320696e76616c69642160981b6044820152606401610428565b6000600582602001516040516107b5919061238f565b90815260200160405180910390209050816040015180519060200120818360c001516040516107e4919061238f565b9081526040519081900360200181206107fc916123e0565b60405180910390201461085b5760405162461bcd60e51b815260206004820152602160248201527f6d6573736167652073656e646572206973206e6f7420726567697374657265646044820152602160f81b6064820152608401610428565b6006805460018101825560009190915283906004027ff652222313e28459528d920b65115c16c04f3efc82aaedc97be59f3f377c0d3f0161089c82826125a6565b5050505050565b6003546001600160a01b031633146108cd5760405162461bcd60e51b8152600401610428906123ab565b6000805b82811015610911578383828181106108eb576108eb6126c2565b90506020020135826108fd91906126ee565b91508061090981612706565b9150506108d1565b50600061091c610376565b9050600060048260200151604051610934919061238f565b908152604051908190036020018120731c9958d95a5d9950dbdb5c1d5d1954995cdd5b1d60621b825291506000908290601401908152604051908190036020019020600281015490915060ff1661099d5760405162461bcd60e51b815260040161042890612721565b6000846040516020016109b291815260200190565b60408051601f198184030181526020838101835260008085526003548983015185518087018752838152938401929092529351633ec320f960e11b81529295506001600160a01b0390931692637d8641f292610a1c928891600183019188918a91906004016127c7565b6020604051808303816000875af1158015610a3b573d6000803e3d6000fd5b505050506040513d601f19601f82011682018060405250810190610a5f919061283b565b505050505050505050565b805160208183018101805160028252928201919093012091528054610a8e9061232a565b80601f0160208091040260200160405190810160405280929190818152602001828054610aba9061232a565b8015610b075780601f10610adc57610100808354040283529160200191610b07565b820191906000526020600020905b815481529060010190602001808311610aea57829003601f168201915b505050505081565b6000546001600160a01b03163314610b395760405162461bcd60e51b8152600401610428906122f5565b6003546040516321c0551d60e11b81526001600160a01b0390911690634380aa3a90610b6f90879087908790879060040161287d565b600060405180830381600087803b158015610b8957600080fd5b505af1158015610b9d573d6000803e3d6000fd5b5050505050505050565b6000546001600160a01b03163314610bd15760405162461bcd60e51b8152600401610428906122f5565b610bdb60006115f4565b565b6000546001600160a01b03163314610c075760405162461bcd60e51b8152600401610428906122f5565b600060058787604051610c1b9291906128a4565b908152602001604051809103902090508484828585604051610c3e9291906128a4565b908152604051908190036020019020610b9d9290916116c6565b81516020818401810180516004825292820194820194909420919093528151808301840180519281529084019290930191909120915280548190610c9b9061232a565b80601f0160208091040260200160405190810160405280929190818152602001828054610cc79061232a565b8015610d145780601f10610ce957610100808354040283529160200191610d14565b820191906000526020600020905b815481529060010190602001808311610cf757829003601f168201915b505050505090806001018054610d299061232a565b80601f0160208091040260200160405190810160405280929190818152602001828054610d559061232a565b8015610da25780601f10610d7757610100808354040283529160200191610da2565b820191906000526020600020905b815481529060010190602001808311610d8557829003601f168201915b5050506002909301549192505060ff1683565b6003546001600160a01b03163314610ddf5760405162461bcd60e51b8152600401610428906123ab565b600755565b600060048585604051610df89291906128a4565b9081526040519081900360200181207172656365697665436f6d707574655461736b60701b825291506000908290601201908152604051908190036020019020600281015490915060ff16610e5f5760405162461bcd60e51b815260040161042890612721565b60008484604051602001610e749291906128b4565b60408051601f1981840301815260208381018352600080855260035484518086018652828152928301919091529251633ec320f960e11b81529194506001600160a01b0390921691637d8641f291610a1c918c918c918991600183019189918b91906004016128f0565b6000546001600160a01b03163314610f085760405162461bcd60e51b8152600401610428906122f5565b600060048787604051610f1c9291906128a4565b908152602001604051809103902090506000818a8a604051610f3f9291906128a4565b9081526040519081900360200190209050610f5b8187876116c6565b50610f6a6001820185856116c6565b50600201805460ff19166001179055505050505050505050565b8151602081840181018051600582529282019482019490942091909352815180830184018051928152908401929093019190912091528054610a8e9061232a565b6000546001600160a01b03163314610fef5760405162461bcd60e51b8152600401610428906122f5565b6040805160606020601f8701819004028201810183529181018581526000928291908890889081908501838280828437600092019190915250505090825250604080516020601f8701819004810282018101909252858152918101919086908690819084018382808284376000920191909152505050915250604051909150819060019061108b908e908e908e908e908e908e9060200161235f565b60408051601f19818403018152908290526110a59161238f565b908152602001604051809103902060008201518160000190805190602001906110cf92919061174a565b5060208281015180516110e8926001850192019061174a565b5050505050505050505050505050565b60006004848460405161110c9291906128a4565b9081526040519081900360200181206e726563656976654772656574696e6760881b825291506000908290600f01908152604051908190036020019020600281015490915060ff166111705760405162461bcd60e51b815260040161042890612721565b60008360405160200161118391906129b6565b60408051601f19818403018152602083810183526001808552600354845180860186526000808252938101939093529351633ec320f960e11b81529295506001600160a01b0390931692637d8641f2926111ee928c928c928a929183019189918b91906004016128f0565b6020604051808303816000875af115801561120d573d6000803e3d6000fd5b505050506040513d601f19601f82011682018060405250810190610b9d919061283b565b6000546001600160a01b0316331461125b5760405162461bcd60e51b8152600401610428906122f5565b6001600160a01b0381166112c05760405162461bcd60e51b815260206004820152602660248201527f4f776e61626c653a206e6577206f776e657220697320746865207a65726f206160448201526564647265737360d01b6064820152608401610428565b6112c9816115f4565b50565b600681815481106112dc57600080fd5b90600052602060002090600402016000915090508060000180546112ff9061232a565b80601f016020809104026020016040519081016040528092919081815260200182805461132b9061232a565b80156113785780601f1061134d57610100808354040283529160200191611378565b820191906000526020600020905b81548152906001019060200180831161135b57829003601f168201915b50505050509080600101805461138d9061232a565b80601f01602080910402602001604051908101604052809291908181526020018280546113b99061232a565b80156114065780601f106113db57610100808354040283529160200191611406565b820191906000526020600020905b8154815290600101906020018083116113e957829003601f168201915b50505050509080600201805461141b9061232a565b80601f01602080910402602001604051908101604052809291908181526020018280546114479061232a565b80156114945780601f1061146957610100808354040283529160200191611494565b820191906000526020600020905b81548152906001019060200180831161147757829003601f168201915b5050505050908060030180546114a99061232a565b80601f01602080910402602001604051908101604052809291908181526020018280546114d59061232a565b80156115225780601f106114f757610100808354040283529160200191611522565b820191906000526020600020905b81548152906001019060200180831161150557829003601f168201915b5050505050905084565b600080600588886040516115419291906128a4565b9081526020016040518091039020905060008187876040516115649291906128a4565b908152604051908190036020018120915061158290869086906128a4565b60405180910390208160405161159891906123e0565b6040518091039020146115e55760405162461bcd60e51b81526020600482015260156024820152740a6cadcc8cae440c8decae640dcdee840dac2e8c6d605b1b6044820152606401610428565b50600198975050505050505050565b600080546001600160a01b038381166001600160a01b0319831681178455604051919092169283917f8be0079c531659141344cd1fd0a4f28419497f9722a3daafe3b4186f6b6457e09190a35050565b604051806101000160405280600081526020016060815260200160608152602001606081526020016116856040518060200160405280600060ff1681525090565b815260200160006001600160a01b03168152602001606081526020016116c16040518060400160405280600060ff168152602001600081525090565b905290565b8280546116d29061232a565b90600052602060002090601f0160209004810192826116f4576000855561173a565b82601f1061170d5782800160ff1982351617855561173a565b8280016001018555821561173a579182015b8281111561173a57823582559160200191906001019061171f565b506117469291506117be565b5090565b8280546117569061232a565b90600052602060002090601f016020900481019282611778576000855561173a565b82601f1061179157805160ff191683800117855561173a565b8280016001018555821561173a579182015b8281111561173a5782518255916020019190600101906117a3565b5b8082111561174657600081556001016117bf565b60005b838110156117ee5781810151838201526020016117d6565b838111156117fd576000848401525b50505050565b6000815180845261181b8160208601602086016117d3565b601f01601f19169290920160200192915050565b6020815281516020820152600060208301516101206040840152611857610140840182611803565b90506040840151601f19808584030160608601526118758383611803565b925060608601519150808584030160808601526118928383611803565b9250608086015191506118ab60a08601835160ff169052565b60a08601516001600160a01b03811660c0870152915060c08601519150808584030160e0860152506118dd8282611803565b91505060e0840151611900610100850182805160ff168252602090810151910152565b509392505050565b6001600160a01b03811681146112c957600080fd5b60006020828403121561192f57600080fd5b813561193a81611908565b9392505050565b634e487b7160e01b600052604160045260246000fd5b60405161010081016001600160401b038111828210171561197a5761197a611941565b60405290565b604051601f8201601f191681016001600160401b03811182821017156119a8576119a8611941565b604052919050565b60006001600160401b038211156119c9576119c9611941565b50601f01601f191660200190565b60006119ea6119e5846119b0565b611980565b90508281528383830111156119fe57600080fd5b828260208301376000602084830101529392505050565b600060208284031215611a2757600080fd5b81356001600160401b03811115611a3d57600080fd5b8201601f81018413611a4e57600080fd5b611a5d848235602084016119d7565b949350505050565b604081526000611a786040830185611803565b8281036020840152611a8a8185611803565b95945050505050565b60008083601f840112611aa557600080fd5b5081356001600160401b03811115611abc57600080fd5b602083019150836020828501011115611ad457600080fd5b9250929050565b60008060008060008060608789031215611af457600080fd5b86356001600160401b0380821115611b0b57600080fd5b611b178a838b01611a93565b90985096506020890135915080821115611b3057600080fd5b611b3c8a838b01611a93565b90965094506040890135915080821115611b5557600080fd5b50611b6289828a01611a93565b979a9699509497509295939492505050565b602081526000825160406020840152611b906060840182611803565b90506020840151601f19848303016040850152611a8a8282611803565b600060808284031215611bbf57600080fd5b50919050565b600060208284031215611bd757600080fd5b81356001600160401b03811115611bed57600080fd5b611a5d84828501611bad565b60008083601f840112611c0b57600080fd5b5081356001600160401b03811115611c2257600080fd5b6020830191508360208260051b8501011115611ad457600080fd5b60008060208385031215611c5057600080fd5b82356001600160401b03811115611c6657600080fd5b611c7285828601611bf9565b90969095509350505050565b600082601f830112611c8f57600080fd5b61193a838335602085016119d7565b600060208284031215611cb057600080fd5b81356001600160401b03811115611cc657600080fd5b611a5d84828501611c7e565b60208152600061193a6020830184611803565b60008060008060408587031215611cfb57600080fd5b84356001600160401b0380821115611d1257600080fd5b611d1e88838901611a93565b90965094506020870135915080821115611d3757600080fd5b50611d4487828801611a93565b95989497509550505050565b60008060408385031215611d6357600080fd5b82356001600160401b0380821115611d7a57600080fd5b611d8686838701611c7e565b93506020850135915080821115611d9c57600080fd5b50611da985828601611c7e565b9150509250929050565b606081526000611dc66060830186611803565b8281036020840152611dd88186611803565b9150508215156040830152949350505050565b600060208284031215611dfd57600080fd5b5035919050565b60008060008060408587031215611e1a57600080fd5b84356001600160401b0380821115611e3157600080fd5b611e3d88838901611a93565b90965094506020870135915080821115611e5657600080fd5b50611d4487828801611bf9565b6000806000806000806000806080898b031215611e7f57600080fd5b88356001600160401b0380821115611e9657600080fd5b611ea28c838d01611a93565b909a50985060208b0135915080821115611ebb57600080fd5b611ec78c838d01611a93565b909850965060408b0135915080821115611ee057600080fd5b611eec8c838d01611a93565b909650945060608b0135915080821115611f0557600080fd5b50611f128b828c01611a93565b999c989b5096995094979396929594505050565b60008060008060008060008060008060a08b8d031215611f4557600080fd5b8a356001600160401b0380821115611f5c57600080fd5b611f688e838f01611a93565b909c509a5060208d0135915080821115611f8157600080fd5b611f8d8e838f01611a93565b909a50985060408d0135915080821115611fa657600080fd5b611fb28e838f01611a93565b909850965060608d0135915080821115611fcb57600080fd5b611fd78e838f01611a93565b909650945060808d0135915080821115611ff057600080fd5b50611ffd8d828e01611a93565b915080935050809150509295989b9194979a5092959850565b60008060006040848603121561202b57600080fd5b83356001600160401b038082111561204257600080fd5b61204e87838801611a93565b9095509350602086013591508082111561206757600080fd5b5061207486828701611bad565b9150509250925092565b6080815260006120916080830187611803565b82810360208401526120a38187611803565b905082810360408401526120b78186611803565b905082810360608401526120cb8185611803565b979650505050505050565b600082601f8301126120e757600080fd5b81516120f56119e5826119b0565b81815284602083860101111561210a57600080fd5b611a5d8260208301602087016117d3565b805160ff8116811461212c57600080fd5b919050565b60006020828403121561214357600080fd5b604051602081018181106001600160401b038211171561216557612165611941565b6040529050806121748361211b565b905292915050565b805161212c81611908565b60006040828403121561219957600080fd5b604051604081018181106001600160401b03821117156121bb576121bb611941565b6040529050806121ca8361211b565b8152602083015160208201525092915050565b6000602082840312156121ef57600080fd5b81516001600160401b038082111561220657600080fd5b90830190610120828603121561221b57600080fd5b612223611957565b8251815260208301518281111561223957600080fd5b612245878286016120d6565b60208301525060408301518281111561225d57600080fd5b612269878286016120d6565b60408301525060608301518281111561228157600080fd5b61228d878286016120d6565b6060830152506122a08660808501612131565b60808201526122b160a0840161217c565b60a082015260c0830151828111156122c857600080fd5b6122d4878286016120d6565b60c0830152506122e78660e08501612187565b60e082015295945050505050565b6020808252818101527f4f776e61626c653a2063616c6c6572206973206e6f7420746865206f776e6572604082015260600190565b600181811c9082168061233e57607f821691505b60208210811415611bbf57634e487b7160e01b600052602260045260246000fd5b85878237600086820160008152858782376000908601908152838582376000930192835250909695505050505050565b600082516123a18184602087016117d3565b9190910192915050565b6020808252818101527f4c6f636b65723a2063616c6c6572206973206e6f742043726f7373436861696e604082015260600190565b60008083546123ee8161232a565b60018281168015612406576001811461241757612446565b60ff19841687528287019450612446565b8760005260208060002060005b8581101561243d5781548a820152908401908201612424565b50505082870194505b50929695505050505050565b6000808335601e1984360301811261246957600080fd5b8301803591506001600160401b0382111561248357600080fd5b602001915036819003821315611ad457600080fd5b601f8211156124e257600081815260208120601f850160051c810160208610156124bf5750805b601f850160051c820191505b818110156124de578281556001016124cb565b5050505b505050565b6001600160401b038311156124fe576124fe611941565b6125128361250c835461232a565b83612498565b6000601f841160018114612546576000851561252e5750838201355b600019600387901b1c1916600186901b17835561089c565b600083815260209020601f19861690835b828110156125775786850135825560209485019460019092019101612557565b50868210156125945760001960f88860031b161c19848701351681555b505060018560011b0183555050505050565b6125b08283612452565b6001600160401b038111156125c7576125c7611941565b6125db816125d5855461232a565b85612498565b6000601f82116001811461260f57600083156125f75750838201355b600019600385901b1c1916600184901b178555612669565b600085815260209020601f19841690835b828110156126405786850135825560209485019460019092019101612620565b508482101561265d5760001960f88660031b161c19848701351681555b505060018360011b0185555b5050505061267a6020830183612452565b6126888183600186016124e7565b50506126976040830183612452565b6126a58183600286016124e7565b50506126b46060830183612452565b6117fd8183600386016124e7565b634e487b7160e01b600052603260045260246000fd5b634e487b7160e01b600052601160045260246000fd5b60008219821115612701576127016126d8565b500190565b600060001982141561271a5761271a6126d8565b5060010190565b6020808252601590820152741858dd1a5bdb881b9bdd081c9959da5cdd195c9959605a1b604082015260600190565b6000815461275d8161232a565b80855260206001838116801561277a576001811461278e576127bc565b60ff198516888401526040880195506127bc565b866000528260002060005b858110156127b45781548a8201860152908301908401612799565b890184019650505b505050505092915050565b60e0815260006127da60e0830189611803565b82810360208401526127ec8189612750565b905082810360408401526128008188612750565b905060ff8651166060840152828103608084015261281e8186611803565b845160ff1660a0850152602085015160c085015291506120cb9050565b60006020828403121561284d57600080fd5b5051919050565b81835281816020850137506000828201602090810191909152601f909101601f19169091010190565b604081526000612891604083018688612854565b82810360208401526120cb818587612854565b8183823760009101908152919050565b6020808252810182905260006001600160fb1b038311156128d457600080fd5b8260051b80856040850137600092016040019182525092915050565b60e08152600061290460e08301898b612854565b82810360208401526129168189612750565b9050828103604084015261292a8188612750565b905060ff865116606084015282810360808401526129488186611803565b845160ff1660a0850152602085015160c085015291506129659050565b98975050505050505050565b6000808335601e1984360301811261298857600080fd5b83016020810192503590506001600160401b038111156129a757600080fd5b803603831315611ad457600080fd5b6020815260006129c68384612971565b608060208501526129db60a085018284612854565b9150506129eb6020850185612971565b601f1980868503016040870152612a03848385612854565b9350612a126040880188612971565b9350915080868503016060870152612a2b848484612854565b9350612a3a6060880188612971565b935091508086850301608087015250612a54838383612854565b969550505050505056fea2646970667358221220526c5f966ff6de2f066c3dfefb5967561bed4659d3a39a4b6bc2914c1d626fa964736f6c634300080a0033",
  "immutableReferences": {},
  "source": "// SPDX-License-Identifier: MIT\npragma solidity >=0.8.0 <0.9.0;\n\nimport \"@openzeppelin/contracts/access/Ownable.sol\";\nimport \"./CrossChain/ContractBase.sol\";\n\n// `Greetings` is an example of multi-chain services with necessary implementations in `ContractBase`, without which the user defined contract cannot work.\n// And besides, `registerDestnContract` and `registerPermittedContract` are templete implementations make the management of some user defined informations easier.\ncontract Greetings is ContractBase {\n    // Destination contract info\n    struct DestnContract {\n        string contractAddress; // destination contract address\n        string funcName; // destination contract action name\n        bool used;\n    }\n\n    // greeting\n    struct Greeting {\n        string fromChain;\n        string title;\n        string content;\n        string date;\n    }\n\n    // Cross-chain destination contract map\n    mapping(string => mapping(string => DestnContract)) public destnContractMap;\n\n    // Cross-chain permitted contract map\n    mapping(string => mapping(string => string)) public permittedContractMap;\n\n    // Store greetings\n    Greeting[] public greetings;\n\n    // Outsourcing computing result\n    uint256 public ocResult;\n\n    // Store context of cross chain contract\n    // SimplifiedMessage public context;\n\n    /**\n     * Receive greeting info from other chains\n     * @param _greeting - greeting sent from other chain\n     */\n    function receiveGreeting(\n        Greeting calldata _greeting\n    ) public {\n        require(\n            msg.sender == address(crossChainContract),\n            \"Locker: caller is not CrossChain\"\n        );\n\n        // `context` used for verify the operation authority\n        SimplifiedMessage memory context = getContext();\n        // verify sqos\n        require(context.sqos.reveal == 1, \"SQoS invalid!\");\n\n        // verify the sender from the registered chain\n        mapping(string => string)\n            storage permittedContract = permittedContractMap[context.fromChain];\n\n        require(\n            keccak256(bytes(permittedContract[context.action])) ==\n                keccak256(bytes(context.sender)),\n            \"message sender is not registered!\"\n        );\n\n        greetings.push(_greeting);\n    }\n\n    /**\n     * Send greeting info to other chains\n     * @param _toChain - to chain name\n     * @param _greeting - greeting sent to other chain\n     */\n    function sendGreeting(\n        string calldata _toChain,\n        Greeting calldata _greeting\n    ) external {\n        mapping(string => DestnContract) storage map = destnContractMap[_toChain];\n        DestnContract storage destnContract = map[\"receiveGreeting\"];\n        require(destnContract.used, \"action not registered\");\n\n        bytes memory data = abi.encode(_greeting);\n        SQOS memory sqos = SQOS(1);\n        crossChainContract.sendMessage(\n            _toChain,\n            destnContract.contractAddress,\n            destnContract.funcName,\n            sqos,\n            data,\n            Session(0, 0)\n        );\n    }\n\n    /**\n     * Send outsourcing computing task to other chain\n     * @param _toChain - to chain name\n     * @param _nums - nums to be accumulated\n     */\n    function sendComputeTask(string calldata _toChain, uint[] calldata _nums) external {\n        mapping(string => DestnContract) storage map = destnContractMap[_toChain];\n        DestnContract storage destnContract = map[\"receiveComputeTask\"];\n        require(destnContract.used, \"action not registered\");\n\n        bytes memory data = abi.encode(_nums);\n        SQOS memory sqos = SQOS(0);\n        crossChainContract.sendMessage(\n            _toChain,\n            destnContract.contractAddress,\n            destnContract.funcName,\n            sqos,\n            data,\n            Session(0, 0)\n        );\n    }\n\n    /**\n     * Receives outsourcing computing task from other chain\n     * @param _nums - nums to be accumulated\n     */\n    function receiveComputeTask(uint[] calldata _nums) external {\n        require(\n            msg.sender == address(crossChainContract),\n            \"Locker: caller is not CrossChain\"\n        );\n        \n        // compute\n        uint ret = 0;\n        for (uint i = 0; i < _nums.length; i++) {\n            ret += _nums[i];\n        }\n\n        SimplifiedMessage memory context = getContext();\n\n        // send result back\n        mapping(string => DestnContract) storage map = destnContractMap[context.fromChain];\n        DestnContract storage destnContract = map[\"receiveComputeResult\"];\n        require(destnContract.used, \"action not registered\");\n\n        bytes memory data = abi.encode(ret);\n        SQOS memory sqos = SQOS(0);\n        crossChainContract.sendMessage(context.fromChain, destnContract.contractAddress, destnContract.funcName, sqos, data, Session(0, 0));\n    }\n\n    /**\n     * Receives outsourcing computing result\n     * @param _result - accumulating result\n     */\n    function receiveComputeResult(uint _result) external {\n        require(\n            msg.sender == address(crossChainContract),\n            \"Locker: caller is not CrossChain\"\n        );\n        ocResult = _result;\n    }\n\n    ///////////////////////////////////////////////\n    /////    Send messages to other chains   //////\n    ///////////////////////////////////////////////\n\n    /**\n     * Register destination contract info\n     * @param _funcName - function name to be called\n     * @param _toChain - destination chain name\n     * @param _contractAddress - destination contract address\n     * @param _contractFuncName - contract function name\n     */\n    function registerDestnContract(\n        string calldata _funcName,\n        string calldata _toChain,\n        string calldata _contractAddress,\n        string calldata _contractFuncName\n    ) external onlyOwner {\n        mapping(string => DestnContract) storage map = destnContractMap[_toChain];\n        DestnContract storage destnContract = map[_funcName];\n        destnContract.contractAddress = _contractAddress;\n        destnContract.funcName = _contractFuncName;\n        destnContract.used = true;\n    }\n\n    ///////////////////////////////////////////////\n    ///    Receive messages from other chains   ///\n    ///////////////////////////////////////////////\n\n    /**\n     * Authorize contracts of other chains to call the functions of this contract\n     * @param _chainName - from chain name\n     * @param _sender - sender of cross chain message\n     * @param _funcName - action name which allowed to be invoked\n     */\n    function registerPermittedContract(\n        string calldata _chainName,\n        string calldata _sender,\n        string calldata _funcName\n    ) external onlyOwner {\n        mapping(string => string) storage map = permittedContractMap[\n            _chainName\n        ];\n        map[_funcName] = _sender;\n    }\n\n    /**\n     * This verify method will be invoked by the CrossChain contract automatically, ensure that only registered contract(registerSourceContract) calls are allowed\n     * @param _chainName - chain name of cross chain message\n     * @param _funcName - contract action name of cross chain message\n     * @param _sender - cross chain message sender\n     */\n    //  Will be deprecated soon\n    function verify(\n        string calldata _chainName,\n        string calldata _funcName,\n        string calldata _sender\n    ) public view virtual returns (bool) {\n        mapping(string => string) storage map = permittedContractMap[\n            _chainName\n        ];\n        string storage sender = map[_funcName];\n        require(\n            keccak256(bytes(sender)) == keccak256(bytes(_sender)),\n            \"Sender does not match\"\n        );\n        return true;\n    }\n}\n",
  "sourcePath": "/root/hthuang/work/solidity-contract-template/contracts/Greetings.sol",
  "compiler": {
    "name": "solc",
    "version": "0.8.10+commit.fc410830.Emscripten.clang"
  },
  "schemaVersion": "3.4.7",
  "updatedAt": "2022-06-06T09:19:12.226Z",
  "devdoc": {
    "kind": "dev",
    "methods": {
      "getMessageABI(string,string,string)": {
        "params": {
          "_destnChainName": "- destination chain name",
          "_destnContractName": "- destination contract name",
          "_funcName": "- destination contract function name"
        }
      },
      "owner()": {
        "details": "Returns the address of the current owner."
      },
      "receiveComputeResult(uint256)": {
        "params": {
          "_result": "- accumulating result"
        }
      },
      "receiveComputeTask(uint256[])": {
        "params": {
          "_nums": "- nums to be accumulated"
        }
      },
      "receiveGreeting((string,string,string,string))": {
        "params": {
          "_greeting": "- greeting sent from other chain"
        }
      },
      "registerContractABI(string,string)": {
        "params": {
          "_contractABI": "- contract action abi",
          "_funcName": "- contract action name"
        }
      },
      "registerDestnContract(string,string,string,string)": {
        "params": {
          "_contractAddress": "- destination contract address",
          "_contractFuncName": "- contract function name",
          "_funcName": "- function name to be called",
          "_toChain": "- destination chain name"
        }
      },
      "registerMessageABI(string,string,string,string,string)": {
        "params": {
          "_destnChainName": "- destination chain name",
          "_destnContractName": "- destination contract name",
          "_funcName": "- destination contract function name",
          "_paramName": "- action param name",
          "_paramType": "- action param types"
        }
      },
      "registerPermittedContract(string,string,string)": {
        "params": {
          "_chainName": "- from chain name",
          "_funcName": "- action name which allowed to be invoked",
          "_sender": "- sender of cross chain message"
        }
      },
      "renounceOwnership()": {
        "details": "Leaves the contract without owner. It will not be possible to call `onlyOwner` functions anymore. Can only be called by the current owner. NOTE: Renouncing ownership will leave the contract without an owner, thereby removing any functionality that is only available to the owner."
      },
      "sendComputeTask(string,uint256[])": {
        "params": {
          "_nums": "- nums to be accumulated",
          "_toChain": "- to chain name"
        }
      },
      "sendGreeting(string,(string,string,string,string))": {
        "params": {
          "_greeting": "- greeting sent to other chain",
          "_toChain": "- to chain name"
        }
      },
      "setCrossChainContract(address)": {
        "params": {
          "_address": "- cross chain contract address"
        }
      },
      "transferOwnership(address)": {
        "details": "Transfers ownership of the contract to a new account (`newOwner`). Can only be called by the current owner."
      },
      "verify(string,string,string)": {
        "params": {
          "_chainName": "- chain name of cross chain message",
          "_funcName": "- contract action name of cross chain message",
          "_sender": "- cross chain message sender"
        }
      }
    },
    "version": 1
  },
  "userdoc": {
    "kind": "user",
    "methods": {
      "getMessageABI(string,string,string)": {
        "notice": "Get Registered message ABI to encode/decode message"
      },
      "receiveComputeResult(uint256)": {
        "notice": "Receives outsourcing computing result"
      },
      "receiveComputeTask(uint256[])": {
        "notice": "Receives outsourcing computing task from other chain"
      },
      "receiveGreeting((string,string,string,string))": {
        "notice": "Receive greeting info from other chains"
      },
      "registerContractABI(string,string)": {
        "notice": "contract ABI used to encode/decode messages sent to this contract"
      },
      "registerDestnContract(string,string,string,string)": {
        "notice": "Register destination contract info"
      },
      "registerMessageABI(string,string,string,string,string)": {
        "notice": "message ABI used to encode/decode messages sent from this contract"
      },
      "registerPermittedContract(string,string,string)": {
        "notice": "Authorize contracts of other chains to call the functions of this contract"
      },
      "sendComputeTask(string,uint256[])": {
        "notice": "Send outsourcing computing task to other chain"
      },
      "sendGreeting(string,(string,string,string,string))": {
        "notice": "Send greeting info to other chains"
      },
      "setCrossChainContract(address)": {
        "notice": "Set cross chain contract"
      },
      "verify(string,string,string)": {
        "notice": "This verify method will be invoked by the CrossChain contract automatically, ensure that only registered contract(registerSourceContract) calls are allowed"
      }
    },
    "version": 1
  }
}