{
  "contractName": "Greetings",
  "abi": [
    {
      "anonymous": false,
      "inputs": [
        {
          "indexed": true,
          "internalType": "address",
          "name": "previousOwner",
          "type": "address"
        },
        {
          "indexed": true,
          "internalType": "address",
          "name": "newOwner",
          "type": "address"
        }
      ],
      "name": "OwnershipTransferred",
      "type": "event"
    },
    {
      "inputs": [
        {
          "internalType": "string",
          "name": "",
          "type": "string"
        }
      ],
      "name": "contractABIMap",
      "outputs": [
        {
          "internalType": "string",
          "name": "",
          "type": "string"
        }
      ],
      "stateMutability": "view",
      "type": "function",
      "constant": true
    },
    {
      "inputs": [],
      "name": "crossChainContract",
      "outputs": [
        {
          "internalType": "contract ICrossChain",
          "name": "",
          "type": "address"
        }
      ],
      "stateMutability": "view",
      "type": "function",
      "constant": true
    },
    {
      "inputs": [
        {
          "internalType": "string",
          "name": "",
          "type": "string"
        },
        {
          "internalType": "string",
          "name": "",
          "type": "string"
        }
      ],
      "name": "destnContractMap",
      "outputs": [
        {
          "internalType": "string",
          "name": "contractAddress",
          "type": "string"
        },
        {
          "internalType": "string",
          "name": "funcName",
          "type": "string"
        },
        {
          "internalType": "bool",
          "name": "used",
          "type": "bool"
        }
      ],
      "stateMutability": "view",
      "type": "function",
      "constant": true
    },
    {
      "inputs": [],
      "name": "getContext",
      "outputs": [
        {
          "components": [
            {
              "internalType": "uint256",
              "name": "id",
              "type": "uint256"
            },
            {
              "internalType": "string",
              "name": "fromChain",
              "type": "string"
            },
            {
              "internalType": "string",
              "name": "sender",
              "type": "string"
            },
            {
              "internalType": "string",
              "name": "signer",
              "type": "string"
            },
            {
              "components": [
                {
                  "internalType": "uint8",
                  "name": "reveal",
                  "type": "uint8"
                }
              ],
              "internalType": "struct SQOS",
              "name": "sqos",
              "type": "tuple"
            },
            {
              "internalType": "address",
              "name": "contractAddress",
              "type": "address"
            },
            {
              "internalType": "string",
              "name": "action",
              "type": "string"
            },
            {
              "components": [
                {
                  "internalType": "uint8",
                  "name": "resType",
                  "type": "uint8"
                },
                {
                  "internalType": "uint256",
                  "name": "id",
                  "type": "uint256"
                }
              ],
              "internalType": "struct Session",
              "name": "session",
              "type": "tuple"
            }
          ],
          "internalType": "struct SimplifiedMessage",
          "name": "",
          "type": "tuple"
        }
      ],
      "stateMutability": "view",
      "type": "function",
      "constant": true
    },
    {
      "inputs": [
        {
          "internalType": "string",
          "name": "_destnChainName",
          "type": "string"
        },
        {
          "internalType": "string",
          "name": "_destnContractName",
          "type": "string"
        },
        {
          "internalType": "string",
          "name": "_funcName",
          "type": "string"
        }
      ],
      "name": "getMessageABI",
      "outputs": [
        {
          "components": [
            {
              "internalType": "string",
              "name": "parametertypes",
              "type": "string"
            },
            {
              "internalType": "string",
              "name": "parameterNames",
              "type": "string"
            }
          ],
          "internalType": "struct ContractBase.MessageABI",
          "name": "",
          "type": "tuple"
        }
      ],
      "stateMutability": "view",
      "type": "function",
      "constant": true
    },
    {
      "inputs": [
        {
          "internalType": "uint256",
          "name": "",
          "type": "uint256"
        }
      ],
      "name": "greetings",
      "outputs": [
        {
          "internalType": "string",
          "name": "fromChain",
          "type": "string"
        },
        {
          "internalType": "string",
          "name": "title",
          "type": "string"
        },
        {
          "internalType": "string",
          "name": "content",
          "type": "string"
        },
        {
          "internalType": "string",
          "name": "date",
          "type": "string"
        }
      ],
      "stateMutability": "view",
      "type": "function",
      "constant": true
    },
    {
      "inputs": [
        {
          "internalType": "bytes",
          "name": "",
          "type": "bytes"
        }
      ],
      "name": "messageABIMap",
      "outputs": [
        {
          "internalType": "string",
          "name": "parametertypes",
          "type": "string"
        },
        {
          "internalType": "string",
          "name": "parameterNames",
          "type": "string"
        }
      ],
      "stateMutability": "view",
      "type": "function",
      "constant": true
    },
    {
      "inputs": [],
      "name": "ocResult",
      "outputs": [
        {
          "internalType": "uint256",
          "name": "",
          "type": "uint256"
        }
      ],
      "stateMutability": "view",
      "type": "function",
      "constant": true
    },
    {
      "inputs": [],
      "name": "owner",
      "outputs": [
        {
          "internalType": "address",
          "name": "",
          "type": "address"
        }
      ],
      "stateMutability": "view",
      "type": "function",
      "constant": true
    },
    {
      "inputs": [
        {
          "internalType": "string",
          "name": "",
          "type": "string"
        },
        {
          "internalType": "string",
          "name": "",
          "type": "string"
        }
      ],
      "name": "permittedContractMap",
      "outputs": [
        {
          "internalType": "string",
          "name": "",
          "type": "string"
        }
      ],
      "stateMutability": "view",
      "type": "function",
      "constant": true
    },
    {
      "inputs": [
        {
          "internalType": "string",
          "name": "_funcName",
          "type": "string"
        },
        {
          "internalType": "string",
          "name": "_contractABI",
          "type": "string"
        }
      ],
      "name": "registerContractABI",
      "outputs": [],
      "stateMutability": "nonpayable",
      "type": "function"
    },
    {
      "inputs": [
        {
          "internalType": "string",
          "name": "_destnChainName",
          "type": "string"
        },
        {
          "internalType": "string",
          "name": "_destnContractName",
          "type": "string"
        },
        {
          "internalType": "string",
          "name": "_funcName",
          "type": "string"
        },
        {
          "internalType": "string",
          "name": "_paramType",
          "type": "string"
        },
        {
          "internalType": "string",
          "name": "_paramName",
          "type": "string"
        }
      ],
      "name": "registerMessageABI",
      "outputs": [],
      "stateMutability": "nonpayable",
      "type": "function"
    },
    {
      "inputs": [],
      "name": "renounceOwnership",
      "outputs": [],
      "stateMutability": "nonpayable",
      "type": "function"
    },
    {
      "inputs": [
        {
          "internalType": "address",
          "name": "_address",
          "type": "address"
        }
      ],
      "name": "setCrossChainContract",
      "outputs": [],
      "stateMutability": "nonpayable",
      "type": "function"
    },
    {
      "inputs": [
        {
          "internalType": "address",
          "name": "newOwner",
          "type": "address"
        }
      ],
      "name": "transferOwnership",
      "outputs": [],
      "stateMutability": "nonpayable",
      "type": "function"
    },
    {
      "inputs": [
        {
          "components": [
            {
              "internalType": "string",
              "name": "fromChain",
              "type": "string"
            },
            {
              "internalType": "string",
              "name": "title",
              "type": "string"
            },
            {
              "internalType": "string",
              "name": "content",
              "type": "string"
            },
            {
              "internalType": "string",
              "name": "date",
              "type": "string"
            }
          ],
          "internalType": "struct Greetings.Greeting",
          "name": "_greeting",
          "type": "tuple"
        }
      ],
      "name": "receiveGreeting",
      "outputs": [],
      "stateMutability": "nonpayable",
      "type": "function"
    },
    {
      "inputs": [
        {
          "internalType": "string",
          "name": "_toChain",
          "type": "string"
        },
        {
          "internalType": "string[]",
          "name": "_greeting",
          "type": "string[]"
        }
      ],
      "name": "sendGreeting",
      "outputs": [],
      "stateMutability": "nonpayable",
      "type": "function"
    },
    {
      "inputs": [
        {
          "internalType": "string",
          "name": "_toChain",
          "type": "string"
        },
        {
          "internalType": "uint256[]",
          "name": "_nums",
          "type": "uint256[]"
        }
      ],
      "name": "sendComputeTask",
      "outputs": [],
      "stateMutability": "nonpayable",
      "type": "function"
    },
    {
      "inputs": [
        {
          "internalType": "uint256[]",
          "name": "_nums",
          "type": "uint256[]"
        }
      ],
      "name": "receiveComputeTask",
      "outputs": [],
      "stateMutability": "nonpayable",
      "type": "function"
    },
    {
      "inputs": [
        {
          "internalType": "uint256",
          "name": "_result",
          "type": "uint256"
        }
      ],
      "name": "receiveComputeResult",
      "outputs": [],
      "stateMutability": "nonpayable",
      "type": "function"
    },
    {
      "inputs": [
        {
          "internalType": "string",
          "name": "_funcName",
          "type": "string"
        },
        {
          "internalType": "string",
          "name": "_toChain",
          "type": "string"
        },
        {
          "internalType": "string",
          "name": "_contractAddress",
          "type": "string"
        },
        {
          "internalType": "string",
          "name": "_contractFuncName",
          "type": "string"
        }
      ],
      "name": "registerDestnContract",
      "outputs": [],
      "stateMutability": "nonpayable",
      "type": "function"
    },
    {
      "inputs": [
        {
          "internalType": "string",
          "name": "_chainName",
          "type": "string"
        },
        {
          "internalType": "string",
          "name": "_sender",
          "type": "string"
        },
        {
          "internalType": "string",
          "name": "_funcName",
          "type": "string"
        }
      ],
      "name": "registerPermittedContract",
      "outputs": [],
      "stateMutability": "nonpayable",
      "type": "function"
    },
    {
      "inputs": [
        {
          "internalType": "string",
          "name": "_chainName",
          "type": "string"
        },
        {
          "internalType": "string",
          "name": "_funcName",
          "type": "string"
        },
        {
          "internalType": "string",
          "name": "_sender",
          "type": "string"
        }
      ],
      "name": "verify",
      "outputs": [
        {
          "internalType": "bool",
          "name": "",
          "type": "bool"
        }
      ],
      "stateMutability": "view",
      "type": "function",
      "constant": true
    }
  ],
  "bytecode": "0x608060405234801561001057600080fd5b5061001a3361001f565b61006f565b600080546001600160a01b038381166001600160a01b0319831681178455604051919092169283917f8be0079c531659141344cd1fd0a4f28419497f9722a3daafe3b4186f6b6457e09190a35050565b61298c8061007e6000396000f3fe608060405234801561001057600080fd5b506004361061014d5760003560e01c80638da5cb5b116100c3578063bd0bbc471161007c578063bd0bbc47146102e4578063d4692703146102f7578063dbc90de11461030a578063f2fde38b1461031d578063f87c9ea914610330578063ff96254b1461035357600080fd5b80638da5cb5b1461025c578063a24cbdf314610281578063a6b2b83014610294578063b02fe88f146102a7578063babe5dd6146102be578063bb45acd9146102d157600080fd5b80634c236819116101155780634c236819146101d95780635fe78c6c146101ec57806366e1f8201461020c578063715018a61461021f57806379f6793c1461022757806380899bba1461023a57600080fd5b8063127f0f071461015257806318d72b54146101705780632639c423146101855780633ad16b7a146101a6578063424a6b23146101c6575b600080fd5b61015a610376565b60405161016791906117ee565b60405180910390f35b61018361017e3660046118dc565b6103fe565b005b6101986101933660046119d4565b610453565b604051610167929190611a24565b6101b96101b4366004611a9a565b61058a565b6040516101679190611b33565b6101836101d4366004611b6c565b61071e565b6101836101e7366004611bea565b6108a3565b6101ff6101fa366004611c4b565b610a6a565b6040516101679190611c7f565b61018361021a366004611c92565b610b0f565b610183610ba7565b610183610235366004611a9a565b610bdd565b61024d610248366004611cfd565b610c58565b60405161016793929190611d60565b6000546001600160a01b03165b6040516001600160a01b039091168152602001610167565b61018361028f366004611d98565b610db5565b6101836102a2366004611db1565b610de4565b6102b060075481565b604051908152602001610167565b6101836102cc366004611e10565b610ede565b6101ff6102df366004611cfd565b610f84565b6101836102f2366004611db1565b610fc5565b610183610305366004611ed3565b6110bd565b600354610269906001600160a01b031681565b61018361032b3660046118dc565b6111f0565b61034361033e366004611d98565b61128b565b6040516101679493929190611fc3565b610366610361366004611a9a565b6114eb565b6040519015158152602001610167565b61037e611603565b600360009054906101000a90046001600160a01b03166001600160a01b0316639af7a48c6040518163ffffffff1660e01b8152600401600060405180830381865afa1580156103d1573d6000803e3d6000fd5b505050506040513d6000823e601f3d908101601f191682016040526103f99190810190612122565b905090565b6000546001600160a01b031633146104315760405162461bcd60e51b81526004016104289061223a565b60405180910390fd5b600380546001600160a01b0319166001600160a01b0392909216919091179055565b80516020818301810180516001825292820191909301209152805481906104799061226f565b80601f01602080910402602001604051908101604052809291908181526020018280546104a59061226f565b80156104f25780601f106104c7576101008083540402835291602001916104f2565b820191906000526020600020905b8154815290600101906020018083116104d557829003601f168201915b5050505050908060010180546105079061226f565b80601f01602080910402602001604051908101604052809291908181526020018280546105339061226f565b80156105805780601f1061055557610100808354040283529160200191610580565b820191906000526020600020905b81548152906001019060200180831161056357829003601f168201915b5050505050905082565b604080518082019091526060808252602082015260018787878787876040516020016105bb969594939291906122aa565b60408051601f19818403018152908290526105d5916122da565b90815260200160405180910390206040518060400160405290816000820180546105fe9061226f565b80601f016020809104026020016040519081016040528092919081815260200182805461062a9061226f565b80156106775780601f1061064c57610100808354040283529160200191610677565b820191906000526020600020905b81548152906001019060200180831161065a57829003601f168201915b505050505081526020016001820180546106909061226f565b80601f01602080910402602001604051908101604052809291908181526020018280546106bc9061226f565b80156107095780601f106106de57610100808354040283529160200191610709565b820191906000526020600020905b8154815290600101906020018083116106ec57829003601f168201915b50505050508152505090509695505050505050565b6003546001600160a01b031633146107485760405162461bcd60e51b8152600401610428906122f6565b6000610752610376565b905080608001516000015160ff1660011461079f5760405162461bcd60e51b815260206004820152600d60248201526c53516f5320696e76616c69642160981b6044820152606401610428565b6000600582602001516040516107b591906122da565b90815260200160405180910390209050816040015180519060200120818360c001516040516107e491906122da565b9081526040519081900360200181206107fc9161232b565b60405180910390201461085b5760405162461bcd60e51b815260206004820152602160248201527f6d6573736167652073656e646572206973206e6f7420726567697374657265646044820152602160f81b6064820152608401610428565b6006805460018101825560009190915283906004027ff652222313e28459528d920b65115c16c04f3efc82aaedc97be59f3f377c0d3f0161089c82826124f1565b5050505050565b6003546001600160a01b031633146108cd5760405162461bcd60e51b8152600401610428906122f6565b6000805b82811015610911578383828181106108eb576108eb61260d565b90506020020135826108fd9190612639565b91508061090981612651565b9150506108d1565b50600061091c610376565b905060006004826020015160405161093491906122da565b908152604051908190036020018120731c9958d95a5d9950dbdb5c1d5d1954995cdd5b1d60621b825291506000908290601401908152604051908190036020019020600281015490915060ff1661099d5760405162461bcd60e51b81526004016104289061266c565b6000846040516020016109b291815260200190565b60408051601f198184030181526020838101835260008085526003548983015185518087018752838152938401929092529351633ec320f960e11b81529295506001600160a01b0390931692637d8641f292610a1c928891600183019188918a9190600401612712565b6020604051808303816000875af1158015610a3b573d6000803e3d6000fd5b505050506040513d601f19601f82011682018060405250810190610a5f9190612786565b505050505050505050565b805160208183018101805160028252928201919093012091528054610a8e9061226f565b80601f0160208091040260200160405190810160405280929190818152602001828054610aba9061226f565b8015610b075780601f10610adc57610100808354040283529160200191610b07565b820191906000526020600020905b815481529060010190602001808311610aea57829003601f168201915b505050505081565b6000546001600160a01b03163314610b395760405162461bcd60e51b81526004016104289061223a565b6003546040516321c0551d60e11b81526001600160a01b0390911690634380aa3a90610b6f9087908790879087906004016127c8565b600060405180830381600087803b158015610b8957600080fd5b505af1158015610b9d573d6000803e3d6000fd5b5050505050505050565b6000546001600160a01b03163314610bd15760405162461bcd60e51b81526004016104289061223a565b610bdb60006115b3565b565b6000546001600160a01b03163314610c075760405162461bcd60e51b81526004016104289061223a565b600060058787604051610c1b9291906127ef565b908152602001604051809103902090508484828585604051610c3e9291906127ef565b908152604051908190036020019020610b9d929091611685565b81516020818401810180516004825292820194820194909420919093528151808301840180519281529084019290930191909120915280548190610c9b9061226f565b80601f0160208091040260200160405190810160405280929190818152602001828054610cc79061226f565b8015610d145780601f10610ce957610100808354040283529160200191610d14565b820191906000526020600020905b815481529060010190602001808311610cf757829003601f168201915b505050505090806001018054610d299061226f565b80601f0160208091040260200160405190810160405280929190818152602001828054610d559061226f565b8015610da25780601f10610d7757610100808354040283529160200191610da2565b820191906000526020600020905b815481529060010190602001808311610d8557829003601f168201915b5050506002909301549192505060ff1683565b6003546001600160a01b03163314610ddf5760405162461bcd60e51b8152600401610428906122f6565b600755565b600060048585604051610df89291906127ef565b9081526040519081900360200181207172656365697665436f6d707574655461736b60701b825291506000908290601201908152604051908190036020019020600281015490915060ff16610e5f5760405162461bcd60e51b81526004016104289061266c565b60008484604051602001610e749291906127ff565b60408051601f1981840301815260208381018352600080855260035484518086018652828152928301919091529251633ec320f960e11b81529194506001600160a01b0390921691637d8641f291610a1c918c918c918991600183019189918b919060040161283b565b6000546001600160a01b03163314610f085760405162461bcd60e51b81526004016104289061223a565b600060048787604051610f1c9291906127ef565b908152602001604051809103902090506000818a8a604051610f3f9291906127ef565b9081526040519081900360200190209050610f5b818787611685565b50610f6a600182018585611685565b50600201805460ff19166001179055505050505050505050565b8151602081840181018051600582529282019482019490942091909352815180830184018051928152908401929093019190912091528054610a8e9061226f565b600060048585604051610fd99291906127ef565b9081526040519081900360200181206e726563656976654772656574696e6760881b825291506000908290600f01908152604051908190036020019020600281015490915060ff1661103d5760405162461bcd60e51b81526004016104289061266c565b600084846040516020016110529291906128bc565b60408051601f19818403018152602083810183526001808552600354845180860186526000808252938101939093529351633ec320f960e11b81529295506001600160a01b0390931692637d8641f292610a1c928d928d928a929183019189918b919060040161283b565b6000546001600160a01b031633146110e75760405162461bcd60e51b81526004016104289061223a565b6040805160606020601f8701819004028201810183529181018581526000928291908890889081908501838280828437600092019190915250505090825250604080516020601f87018190048102820181019092528581529181019190869086908190840183828082843760009201919091525050509152506040519091508190600190611183908e908e908e908e908e908e906020016122aa565b60408051601f198184030181529082905261119d916122da565b908152602001604051809103902060008201518160000190805190602001906111c7929190611709565b5060208281015180516111e09260018501920190611709565b5050505050505050505050505050565b6000546001600160a01b0316331461121a5760405162461bcd60e51b81526004016104289061223a565b6001600160a01b03811661127f5760405162461bcd60e51b815260206004820152602660248201527f4f776e61626c653a206e6577206f776e657220697320746865207a65726f206160448201526564647265737360d01b6064820152608401610428565b611288816115b3565b50565b6006818154811061129b57600080fd5b90600052602060002090600402016000915090508060000180546112be9061226f565b80601f01602080910402602001604051908101604052809291908181526020018280546112ea9061226f565b80156113375780601f1061130c57610100808354040283529160200191611337565b820191906000526020600020905b81548152906001019060200180831161131a57829003601f168201915b50505050509080600101805461134c9061226f565b80601f01602080910402602001604051908101604052809291908181526020018280546113789061226f565b80156113c55780601f1061139a576101008083540402835291602001916113c5565b820191906000526020600020905b8154815290600101906020018083116113a857829003601f168201915b5050505050908060020180546113da9061226f565b80601f01602080910402602001604051908101604052809291908181526020018280546114069061226f565b80156114535780601f1061142857610100808354040283529160200191611453565b820191906000526020600020905b81548152906001019060200180831161143657829003601f168201915b5050505050908060030180546114689061226f565b80601f01602080910402602001604051908101604052809291908181526020018280546114949061226f565b80156114e15780601f106114b6576101008083540402835291602001916114e1565b820191906000526020600020905b8154815290600101906020018083116114c457829003601f168201915b5050505050905084565b600080600588886040516115009291906127ef565b9081526020016040518091039020905060008187876040516115239291906127ef565b908152604051908190036020018120915061154190869086906127ef565b604051809103902081604051611557919061232b565b6040518091039020146115a45760405162461bcd60e51b81526020600482015260156024820152740a6cadcc8cae440c8decae640dcdee840dac2e8c6d605b1b6044820152606401610428565b50600198975050505050505050565b600080546001600160a01b038381166001600160a01b0319831681178455604051919092169283917f8be0079c531659141344cd1fd0a4f28419497f9722a3daafe3b4186f6b6457e09190a35050565b604051806101000160405280600081526020016060815260200160608152602001606081526020016116446040518060200160405280600060ff1681525090565b815260200160006001600160a01b03168152602001606081526020016116806040518060400160405280600060ff168152602001600081525090565b905290565b8280546116919061226f565b90600052602060002090601f0160209004810192826116b357600085556116f9565b82601f106116cc5782800160ff198235161785556116f9565b828001600101855582156116f9579182015b828111156116f95782358255916020019190600101906116de565b5061170592915061177d565b5090565b8280546117159061226f565b90600052602060002090601f01602090048101928261173757600085556116f9565b82601f1061175057805160ff19168380011785556116f9565b828001600101855582156116f9579182015b828111156116f9578251825591602001919060010190611762565b5b80821115611705576000815560010161177e565b60005b838110156117ad578181015183820152602001611795565b838111156117bc576000848401525b50505050565b600081518084526117da816020860160208601611792565b601f01601f19169290920160200192915050565b60208152815160208201526000602083015161012060408401526118166101408401826117c2565b90506040840151601f198085840301606086015261183483836117c2565b9250606086015191508085840301608086015261185183836117c2565b92506080860151915061186a60a08601835160ff169052565b60a08601516001600160a01b03811660c0870152915060c08601519150808584030160e08601525061189c82826117c2565b91505060e08401516118bf610100850182805160ff168252602090810151910152565b509392505050565b6001600160a01b038116811461128857600080fd5b6000602082840312156118ee57600080fd5b81356118f9816118c7565b9392505050565b634e487b7160e01b600052604160045260246000fd5b60405161010081016001600160401b038111828210171561193957611939611900565b60405290565b604051601f8201601f191681016001600160401b038111828210171561196757611967611900565b604052919050565b60006001600160401b0382111561198857611988611900565b50601f01601f191660200190565b60006119a96119a48461196f565b61193f565b90508281528383830111156119bd57600080fd5b828260208301376000602084830101529392505050565b6000602082840312156119e657600080fd5b81356001600160401b038111156119fc57600080fd5b8201601f81018413611a0d57600080fd5b611a1c84823560208401611996565b949350505050565b604081526000611a3760408301856117c2565b8281036020840152611a4981856117c2565b95945050505050565b60008083601f840112611a6457600080fd5b5081356001600160401b03811115611a7b57600080fd5b602083019150836020828501011115611a9357600080fd5b9250929050565b60008060008060008060608789031215611ab357600080fd5b86356001600160401b0380821115611aca57600080fd5b611ad68a838b01611a52565b90985096506020890135915080821115611aef57600080fd5b611afb8a838b01611a52565b90965094506040890135915080821115611b1457600080fd5b50611b2189828a01611a52565b979a9699509497509295939492505050565b602081526000825160406020840152611b4f60608401826117c2565b90506020840151601f19848303016040850152611a4982826117c2565b600060208284031215611b7e57600080fd5b81356001600160401b03811115611b9457600080fd5b8201608081850312156118f957600080fd5b60008083601f840112611bb857600080fd5b5081356001600160401b03811115611bcf57600080fd5b6020830191508360208260051b8501011115611a9357600080fd5b60008060208385031215611bfd57600080fd5b82356001600160401b03811115611c1357600080fd5b611c1f85828601611ba6565b90969095509350505050565b600082601f830112611c3c57600080fd5b6118f983833560208501611996565b600060208284031215611c5d57600080fd5b81356001600160401b03811115611c7357600080fd5b611a1c84828501611c2b565b6020815260006118f960208301846117c2565b60008060008060408587031215611ca857600080fd5b84356001600160401b0380821115611cbf57600080fd5b611ccb88838901611a52565b90965094506020870135915080821115611ce457600080fd5b50611cf187828801611a52565b95989497509550505050565b60008060408385031215611d1057600080fd5b82356001600160401b0380821115611d2757600080fd5b611d3386838701611c2b565b93506020850135915080821115611d4957600080fd5b50611d5685828601611c2b565b9150509250929050565b606081526000611d7360608301866117c2565b8281036020840152611d8581866117c2565b9150508215156040830152949350505050565b600060208284031215611daa57600080fd5b5035919050565b60008060008060408587031215611dc757600080fd5b84356001600160401b0380821115611dde57600080fd5b611dea88838901611a52565b90965094506020870135915080821115611e0357600080fd5b50611cf187828801611ba6565b6000806000806000806000806080898b031215611e2c57600080fd5b88356001600160401b0380821115611e4357600080fd5b611e4f8c838d01611a52565b909a50985060208b0135915080821115611e6857600080fd5b611e748c838d01611a52565b909850965060408b0135915080821115611e8d57600080fd5b611e998c838d01611a52565b909650945060608b0135915080821115611eb257600080fd5b50611ebf8b828c01611a52565b999c989b5096995094979396929594505050565b60008060008060008060008060008060a08b8d031215611ef257600080fd5b8a356001600160401b0380821115611f0957600080fd5b611f158e838f01611a52565b909c509a5060208d0135915080821115611f2e57600080fd5b611f3a8e838f01611a52565b909a50985060408d0135915080821115611f5357600080fd5b611f5f8e838f01611a52565b909850965060608d0135915080821115611f7857600080fd5b611f848e838f01611a52565b909650945060808d0135915080821115611f9d57600080fd5b50611faa8d828e01611a52565b915080935050809150509295989b9194979a5092959850565b608081526000611fd660808301876117c2565b8281036020840152611fe881876117c2565b90508281036040840152611ffc81866117c2565b9050828103606084015261201081856117c2565b979650505050505050565b600082601f83011261202c57600080fd5b815161203a6119a48261196f565b81815284602083860101111561204f57600080fd5b611a1c826020830160208701611792565b805160ff8116811461207157600080fd5b919050565b60006020828403121561208857600080fd5b604051602081018181106001600160401b03821117156120aa576120aa611900565b6040529050806120b983612060565b905292915050565b8051612071816118c7565b6000604082840312156120de57600080fd5b604051604081018181106001600160401b038211171561210057612100611900565b60405290508061210f83612060565b8152602083015160208201525092915050565b60006020828403121561213457600080fd5b81516001600160401b038082111561214b57600080fd5b90830190610120828603121561216057600080fd5b612168611916565b8251815260208301518281111561217e57600080fd5b61218a8782860161201b565b6020830152506040830151828111156121a257600080fd5b6121ae8782860161201b565b6040830152506060830151828111156121c657600080fd5b6121d28782860161201b565b6060830152506121e58660808501612076565b60808201526121f660a084016120c1565b60a082015260c08301518281111561220d57600080fd5b6122198782860161201b565b60c08301525061222c8660e085016120cc565b60e082015295945050505050565b6020808252818101527f4f776e61626c653a2063616c6c6572206973206e6f7420746865206f776e6572604082015260600190565b600181811c9082168061228357607f821691505b602082108114156122a457634e487b7160e01b600052602260045260246000fd5b50919050565b85878237600086820160008152858782376000908601908152838582376000930192835250909695505050505050565b600082516122ec818460208701611792565b9190910192915050565b6020808252818101527f4c6f636b65723a2063616c6c6572206973206e6f742043726f7373436861696e604082015260600190565b60008083546123398161226f565b60018281168015612351576001811461236257612391565b60ff19841687528287019450612391565b8760005260208060002060005b858110156123885781548a82015290840190820161236f565b50505082870194505b50929695505050505050565b6000808335601e198436030181126123b457600080fd5b8301803591506001600160401b038211156123ce57600080fd5b602001915036819003821315611a9357600080fd5b601f82111561242d57600081815260208120601f850160051c8101602086101561240a5750805b601f850160051c820191505b8181101561242957828155600101612416565b5050505b505050565b6001600160401b0383111561244957612449611900565b61245d83612457835461226f565b836123e3565b6000601f84116001811461249157600085156124795750838201355b600019600387901b1c1916600186901b17835561089c565b600083815260209020601f19861690835b828110156124c257868501358255602094850194600190920191016124a2565b50868210156124df5760001960f88860031b161c19848701351681555b505060018560011b0183555050505050565b6124fb828361239d565b6001600160401b0381111561251257612512611900565b61252681612520855461226f565b856123e3565b6000601f82116001811461255a57600083156125425750838201355b600019600385901b1c1916600184901b1785556125b4565b600085815260209020601f19841690835b8281101561258b578685013582556020948501946001909201910161256b565b50848210156125a85760001960f88660031b161c19848701351681555b505060018360011b0185555b505050506125c5602083018361239d565b6125d3818360018601612432565b50506125e2604083018361239d565b6125f0818360028601612432565b50506125ff606083018361239d565b6117bc818360038601612432565b634e487b7160e01b600052603260045260246000fd5b634e487b7160e01b600052601160045260246000fd5b6000821982111561264c5761264c612623565b500190565b600060001982141561266557612665612623565b5060010190565b6020808252601590820152741858dd1a5bdb881b9bdd081c9959da5cdd195c9959605a1b604082015260600190565b600081546126a88161226f565b8085526020600183811680156126c557600181146126d957612707565b60ff19851688840152604088019550612707565b866000528260002060005b858110156126ff5781548a82018601529083019084016126e4565b890184019650505b505050505092915050565b60e08152600061272560e08301896117c2565b8281036020840152612737818961269b565b9050828103604084015261274b818861269b565b905060ff8651166060840152828103608084015261276981866117c2565b845160ff1660a0850152602085015160c085015291506120109050565b60006020828403121561279857600080fd5b5051919050565b81835281816020850137506000828201602090810191909152601f909101601f19169091010190565b6040815260006127dc60408301868861279f565b828103602084015261201081858761279f565b8183823760009101908152919050565b6020808252810182905260006001600160fb1b0383111561281f57600080fd5b8260051b80856040850137600092016040019182525092915050565b60e08152600061284f60e08301898b61279f565b8281036020840152612861818961269b565b90508281036040840152612875818861269b565b905060ff8651166060840152828103608084015261289381866117c2565b845160ff1660a0850152602085015160c085015291506128b09050565b98975050505050505050565b60208082528181018390526000906040600585901b8401810190840186845b8781101561294957868403603f190183528135368a9003601e1901811261290157600080fd5b890180356001600160401b0381111561291957600080fd5b8036038b131561292857600080fd5b612935868289850161279f565b9550505091840191908401906001016128db565b509197965050505050505056fea264697066735822122000c01d6230460a0b558e620858196dd3c735f9ff835e1e67aa165030f3de50f264736f6c634300080a0033",
  "immutableReferences": {},
  "source": "// SPDX-License-Identifier: MIT\npragma solidity >=0.8.0 <0.9.0;\n\nimport \"@openzeppelin/contracts/access/Ownable.sol\";\nimport \"./CrossChain/ContractBase.sol\";\n\n// `Greetings` is an example of multi-chain services with necessary implementations in `ContractBase`, without which the user defined contract cannot work.\n// And besides, `registerDestnContract` and `registerPermittedContract` are templete implementations make the management of some user defined informations easier.\ncontract Greetings is ContractBase {\n    // Destination contract info\n    struct DestnContract {\n        string contractAddress; // destination contract address\n        string funcName; // destination contract action name\n        bool used;\n    }\n\n    // greeting\n    struct Greeting {\n        string fromChain;\n        string title;\n        string content;\n        string date;\n    }\n\n    // Cross-chain destination contract map\n    mapping(string => mapping(string => DestnContract)) public destnContractMap;\n\n    // Cross-chain permitted contract map\n    mapping(string => mapping(string => string)) public permittedContractMap;\n\n    // Store greetings\n    Greeting[] public greetings;\n\n    // Outsourcing computing result\n    uint256 public ocResult;\n\n    // Store context of cross chain contract\n    // SimplifiedMessage public context;\n\n    /**\n     * Receive greeting info from other chains\n     * @param _greeting - greeting sent from other chain\n     */\n    function receiveGreeting(\n        Greeting calldata _greeting\n    ) public {\n        require(\n            msg.sender == address(crossChainContract),\n            \"Locker: caller is not CrossChain\"\n        );\n\n        // `context` used for verify the operation authority\n        SimplifiedMessage memory context = getContext();\n        // verify sqos\n        require(context.sqos.reveal == 1, \"SQoS invalid!\");\n\n        // verify the sender from the registered chain\n        mapping(string => string)\n            storage permittedContract = permittedContractMap[context.fromChain];\n\n        require(\n            keccak256(bytes(permittedContract[context.action])) ==\n                keccak256(bytes(context.sender)),\n            \"message sender is not registered!\"\n        );\n\n        greetings.push(_greeting);\n    }\n\n    /**\n     * Send greeting info to other chains\n     * @param _toChain - to chain name\n     * @param _greeting - greeting sent to other chain\n     */\n    function sendGreeting(\n        string calldata _toChain,\n        string[] calldata _greeting\n    ) external {\n        mapping(string => DestnContract) storage map = destnContractMap[_toChain];\n        DestnContract storage destnContract = map[\"receiveGreeting\"];\n        require(destnContract.used, \"action not registered\");\n\n        bytes memory data = abi.encode(_greeting);\n        SQOS memory sqos = SQOS(1);\n        crossChainContract.sendMessage(\n            _toChain,\n            destnContract.contractAddress,\n            destnContract.funcName,\n            sqos,\n            data,\n            Session(0, 0)\n        );\n    }\n\n    /**\n     * Send outsourcing computing task to other chain\n     * @param _toChain - to chain name\n     * @param _nums - nums to be accumulated\n     */\n    function sendComputeTask(string calldata _toChain, uint[] calldata _nums) external {\n        mapping(string => DestnContract) storage map = destnContractMap[_toChain];\n        DestnContract storage destnContract = map[\"receiveComputeTask\"];\n        require(destnContract.used, \"action not registered\");\n\n        bytes memory data = abi.encode(_nums);\n        SQOS memory sqos = SQOS(0);\n        crossChainContract.sendMessage(\n            _toChain,\n            destnContract.contractAddress,\n            destnContract.funcName,\n            sqos,\n            data,\n            Session(0, 0)\n        );\n    }\n\n    /**\n     * Receives outsourcing computing task from other chain\n     * @param _nums - nums to be accumulated\n     */\n    function receiveComputeTask(uint[] calldata _nums) external {\n        require(\n            msg.sender == address(crossChainContract),\n            \"Locker: caller is not CrossChain\"\n        );\n        \n        // compute\n        uint ret = 0;\n        for (uint i = 0; i < _nums.length; i++) {\n            ret += _nums[i];\n        }\n\n        SimplifiedMessage memory context = getContext();\n\n        // send result back\n        mapping(string => DestnContract) storage map = destnContractMap[context.fromChain];\n        DestnContract storage destnContract = map[\"receiveComputeResult\"];\n        require(destnContract.used, \"action not registered\");\n\n        bytes memory data = abi.encode(ret);\n        SQOS memory sqos = SQOS(0);\n        crossChainContract.sendMessage(context.fromChain, destnContract.contractAddress, destnContract.funcName, sqos, data, Session(0, 0));\n    }\n\n    /**\n     * Receives outsourcing computing result\n     * @param _result - accumulating result\n     */\n    function receiveComputeResult(uint _result) external {\n        require(\n            msg.sender == address(crossChainContract),\n            \"Locker: caller is not CrossChain\"\n        );\n        ocResult = _result;\n    }\n\n    ///////////////////////////////////////////////\n    /////    Send messages to other chains   //////\n    ///////////////////////////////////////////////\n\n    /**\n     * Register destination contract info\n     * @param _funcName - function name to be called\n     * @param _toChain - destination chain name\n     * @param _contractAddress - destination contract address\n     * @param _contractFuncName - contract function name\n     */\n    function registerDestnContract(\n        string calldata _funcName,\n        string calldata _toChain,\n        string calldata _contractAddress,\n        string calldata _contractFuncName\n    ) external onlyOwner {\n        mapping(string => DestnContract) storage map = destnContractMap[_toChain];\n        DestnContract storage destnContract = map[_funcName];\n        destnContract.contractAddress = _contractAddress;\n        destnContract.funcName = _contractFuncName;\n        destnContract.used = true;\n    }\n\n    ///////////////////////////////////////////////\n    ///    Receive messages from other chains   ///\n    ///////////////////////////////////////////////\n\n    /**\n     * Authorize contracts of other chains to call the functions of this contract\n     * @param _chainName - from chain name\n     * @param _sender - sender of cross chain message\n     * @param _funcName - action name which allowed to be invoked\n     */\n    function registerPermittedContract(\n        string calldata _chainName,\n        string calldata _sender,\n        string calldata _funcName\n    ) external onlyOwner {\n        mapping(string => string) storage map = permittedContractMap[\n            _chainName\n        ];\n        map[_funcName] = _sender;\n    }\n\n    /**\n     * This verify method will be invoked by the CrossChain contract automatically, ensure that only registered contract(registerSourceContract) calls are allowed\n     * @param _chainName - chain name of cross chain message\n     * @param _funcName - contract action name of cross chain message\n     * @param _sender - cross chain message sender\n     */\n    //  Will be deprecated soon\n    function verify(\n        string calldata _chainName,\n        string calldata _funcName,\n        string calldata _sender\n    ) public view virtual returns (bool) {\n        mapping(string => string) storage map = permittedContractMap[\n            _chainName\n        ];\n        string storage sender = map[_funcName];\n        require(\n            keccak256(bytes(sender)) == keccak256(bytes(_sender)),\n            \"Sender does not match\"\n        );\n        return true;\n    }\n}\n",
  "sourcePath": "/home/george/program/dante/solidity-contract-template/contracts/Greetings.sol",
  "compiler": {
    "name": "solc",
    "version": "0.8.10+commit.fc410830.Emscripten.clang"
  },
  "schemaVersion": "3.4.6",
  "updatedAt": "2022-06-20T07:10:34.721Z",
  "networkType": "ethereum",
  "devdoc": {
    "kind": "dev",
    "methods": {
      "getMessageABI(string,string,string)": {
        "params": {
          "_destnChainName": "- destination chain name",
          "_destnContractName": "- destination contract name",
          "_funcName": "- destination contract function name"
        }
      },
      "owner()": {
        "details": "Returns the address of the current owner."
      },
      "receiveComputeResult(uint256)": {
        "params": {
          "_result": "- accumulating result"
        }
      },
      "receiveComputeTask(uint256[])": {
        "params": {
          "_nums": "- nums to be accumulated"
        }
      },
      "receiveGreeting((string,string,string,string))": {
        "params": {
          "_greeting": "- greeting sent from other chain"
        }
      },
      "registerContractABI(string,string)": {
        "params": {
          "_contractABI": "- contract action abi",
          "_funcName": "- contract action name"
        }
      },
      "registerDestnContract(string,string,string,string)": {
        "params": {
          "_contractAddress": "- destination contract address",
          "_contractFuncName": "- contract function name",
          "_funcName": "- function name to be called",
          "_toChain": "- destination chain name"
        }
      },
      "registerMessageABI(string,string,string,string,string)": {
        "params": {
          "_destnChainName": "- destination chain name",
          "_destnContractName": "- destination contract name",
          "_funcName": "- destination contract function name",
          "_paramName": "- action param name",
          "_paramType": "- action param types"
        }
      },
      "registerPermittedContract(string,string,string)": {
        "params": {
          "_chainName": "- from chain name",
          "_funcName": "- action name which allowed to be invoked",
          "_sender": "- sender of cross chain message"
        }
      },
      "renounceOwnership()": {
        "details": "Leaves the contract without owner. It will not be possible to call `onlyOwner` functions anymore. Can only be called by the current owner. NOTE: Renouncing ownership will leave the contract without an owner, thereby removing any functionality that is only available to the owner."
      },
      "sendComputeTask(string,uint256[])": {
        "params": {
          "_nums": "- nums to be accumulated",
          "_toChain": "- to chain name"
        }
      },
      "sendGreeting(string,string[])": {
        "params": {
          "_greeting": "- greeting sent to other chain",
          "_toChain": "- to chain name"
        }
      },
      "setCrossChainContract(address)": {
        "params": {
          "_address": "- cross chain contract address"
        }
      },
      "transferOwnership(address)": {
        "details": "Transfers ownership of the contract to a new account (`newOwner`). Can only be called by the current owner."
      },
      "verify(string,string,string)": {
        "params": {
          "_chainName": "- chain name of cross chain message",
          "_funcName": "- contract action name of cross chain message",
          "_sender": "- cross chain message sender"
        }
      }
    },
    "version": 1
  },
  "userdoc": {
    "kind": "user",
    "methods": {
      "getMessageABI(string,string,string)": {
        "notice": "Get Registered message ABI to encode/decode message"
      },
      "receiveComputeResult(uint256)": {
        "notice": "Receives outsourcing computing result"
      },
      "receiveComputeTask(uint256[])": {
        "notice": "Receives outsourcing computing task from other chain"
      },
      "receiveGreeting((string,string,string,string))": {
        "notice": "Receive greeting info from other chains"
      },
      "registerContractABI(string,string)": {
        "notice": "contract ABI used to encode/decode messages sent to this contract"
      },
      "registerDestnContract(string,string,string,string)": {
        "notice": "Register destination contract info"
      },
      "registerMessageABI(string,string,string,string,string)": {
        "notice": "message ABI used to encode/decode messages sent from this contract"
      },
      "registerPermittedContract(string,string,string)": {
        "notice": "Authorize contracts of other chains to call the functions of this contract"
      },
      "sendComputeTask(string,uint256[])": {
        "notice": "Send outsourcing computing task to other chain"
      },
      "sendGreeting(string,string[])": {
        "notice": "Send greeting info to other chains"
      },
      "setCrossChainContract(address)": {
        "notice": "Set cross chain contract"
      },
      "verify(string,string,string)": {
        "notice": "This verify method will be invoked by the CrossChain contract automatically, ensure that only registered contract(registerSourceContract) calls are allowed"
      }
    },
    "version": 1
  }
}