{
  "contractName": "OCComputing",
  "abi": [
    {
      "anonymous": false,
      "inputs": [
        {
          "indexed": true,
          "internalType": "address",
          "name": "previousOwner",
          "type": "address"
        },
        {
          "indexed": true,
          "internalType": "address",
          "name": "newOwner",
          "type": "address"
        }
      ],
      "name": "OwnershipTransferred",
      "type": "event"
    },
    {
      "inputs": [
        {
          "internalType": "bytes32",
          "name": "",
          "type": "bytes32"
        }
      ],
      "name": "callbackAbis",
      "outputs": [
        {
          "internalType": "string",
          "name": "",
          "type": "string"
        }
      ],
      "stateMutability": "view",
      "type": "function"
    },
    {
      "inputs": [
        {
          "internalType": "string",
          "name": "",
          "type": "string"
        }
      ],
      "name": "contractABIMap",
      "outputs": [
        {
          "internalType": "string",
          "name": "",
          "type": "string"
        }
      ],
      "stateMutability": "view",
      "type": "function"
    },
    {
      "inputs": [],
      "name": "crossChainContract",
      "outputs": [
        {
          "internalType": "contract ICrossChain",
          "name": "",
          "type": "address"
        }
      ],
      "stateMutability": "view",
      "type": "function"
    },
    {
      "inputs": [],
      "name": "currentId",
      "outputs": [
        {
          "internalType": "uint256",
          "name": "",
          "type": "uint256"
        }
      ],
      "stateMutability": "view",
      "type": "function"
    },
    {
      "inputs": [
        {
          "internalType": "string",
          "name": "",
          "type": "string"
        },
        {
          "internalType": "string",
          "name": "",
          "type": "string"
        }
      ],
      "name": "destnContractMap",
      "outputs": [
        {
          "internalType": "string",
          "name": "contractAddress",
          "type": "string"
        },
        {
          "internalType": "string",
          "name": "funcName",
          "type": "string"
        },
        {
          "internalType": "bool",
          "name": "used",
          "type": "bool"
        }
      ],
      "stateMutability": "view",
      "type": "function"
    },
    {
      "inputs": [],
      "name": "getContext",
      "outputs": [
        {
          "components": [
            {
              "internalType": "uint256",
              "name": "id",
              "type": "uint256"
            },
            {
              "internalType": "string",
              "name": "fromChain",
              "type": "string"
            },
            {
              "internalType": "string",
              "name": "sender",
              "type": "string"
            },
            {
              "internalType": "string",
              "name": "signer",
              "type": "string"
            },
            {
              "components": [
                {
                  "internalType": "uint8",
                  "name": "reveal",
                  "type": "uint8"
                }
              ],
              "internalType": "struct SQOS",
              "name": "sqos",
              "type": "tuple"
            },
            {
              "internalType": "address",
              "name": "contractAddress",
              "type": "address"
            },
            {
              "internalType": "string",
              "name": "action",
              "type": "string"
            },
            {
              "components": [
                {
                  "internalType": "uint8",
                  "name": "resType",
                  "type": "uint8"
                },
                {
                  "internalType": "uint256",
                  "name": "id",
                  "type": "uint256"
                }
              ],
              "internalType": "struct Session",
              "name": "session",
              "type": "tuple"
            }
          ],
          "internalType": "struct SimplifiedMessage",
          "name": "",
          "type": "tuple"
        }
      ],
      "stateMutability": "view",
      "type": "function"
    },
    {
      "inputs": [
        {
          "internalType": "string",
          "name": "_destnChainName",
          "type": "string"
        },
        {
          "internalType": "string",
          "name": "_destnContractName",
          "type": "string"
        },
        {
          "internalType": "string",
          "name": "_funcName",
          "type": "string"
        }
      ],
      "name": "getMessageABI",
      "outputs": [
        {
          "components": [
            {
              "internalType": "string",
              "name": "parametertypes",
              "type": "string"
            },
            {
              "internalType": "string",
              "name": "parameterNames",
              "type": "string"
            }
          ],
          "internalType": "struct ContractBase.MessageABI",
          "name": "",
          "type": "tuple"
        }
      ],
      "stateMutability": "view",
      "type": "function"
    },
    {
      "inputs": [
        {
          "internalType": "bytes",
          "name": "",
          "type": "bytes"
        }
      ],
      "name": "messageABIMap",
      "outputs": [
        {
          "internalType": "string",
          "name": "parametertypes",
          "type": "string"
        },
        {
          "internalType": "string",
          "name": "parameterNames",
          "type": "string"
        }
      ],
      "stateMutability": "view",
      "type": "function"
    },
    {
      "inputs": [
        {
          "internalType": "uint256",
          "name": "",
          "type": "uint256"
        }
      ],
      "name": "ocResult",
      "outputs": [
        {
          "internalType": "bool",
          "name": "used",
          "type": "bool"
        },
        {
          "internalType": "uint256",
          "name": "result",
          "type": "uint256"
        }
      ],
      "stateMutability": "view",
      "type": "function"
    },
    {
      "inputs": [],
      "name": "owner",
      "outputs": [
        {
          "internalType": "address",
          "name": "",
          "type": "address"
        }
      ],
      "stateMutability": "view",
      "type": "function"
    },
    {
      "inputs": [
        {
          "internalType": "string",
          "name": "",
          "type": "string"
        },
        {
          "internalType": "string",
          "name": "",
          "type": "string"
        }
      ],
      "name": "permittedContractMap",
      "outputs": [
        {
          "internalType": "string",
          "name": "",
          "type": "string"
        }
      ],
      "stateMutability": "view",
      "type": "function"
    },
    {
      "inputs": [
        {
          "internalType": "string",
          "name": "_destnChainName",
          "type": "string"
        },
        {
          "internalType": "string",
          "name": "_destnContractName",
          "type": "string"
        },
        {
          "internalType": "string",
          "name": "_funcName",
          "type": "string"
        },
        {
          "internalType": "string",
          "name": "_callbackAbi",
          "type": "string"
        }
      ],
      "name": "registerCallbackAbi",
      "outputs": [],
      "stateMutability": "nonpayable",
      "type": "function"
    },
    {
      "inputs": [
        {
          "internalType": "string",
          "name": "_funcName",
          "type": "string"
        },
        {
          "internalType": "string",
          "name": "_contractABI",
          "type": "string"
        }
      ],
      "name": "registerContractABI",
      "outputs": [],
      "stateMutability": "nonpayable",
      "type": "function"
    },
    {
      "inputs": [
        {
          "internalType": "string",
          "name": "_destnChainName",
          "type": "string"
        },
        {
          "internalType": "string",
          "name": "_destnContractName",
          "type": "string"
        },
        {
          "internalType": "string",
          "name": "_funcName",
          "type": "string"
        },
        {
          "internalType": "string",
          "name": "_paramType",
          "type": "string"
        },
        {
          "internalType": "string",
          "name": "_paramName",
          "type": "string"
        }
      ],
      "name": "registerMessageABI",
      "outputs": [],
      "stateMutability": "nonpayable",
      "type": "function"
    },
    {
      "inputs": [],
      "name": "renounceOwnership",
      "outputs": [],
      "stateMutability": "nonpayable",
      "type": "function"
    },
    {
      "inputs": [
        {
          "internalType": "address",
          "name": "_address",
          "type": "address"
        }
      ],
      "name": "setCrossChainContract",
      "outputs": [],
      "stateMutability": "nonpayable",
      "type": "function"
    },
    {
      "inputs": [
        {
          "internalType": "address",
          "name": "newOwner",
          "type": "address"
        }
      ],
      "name": "transferOwnership",
      "outputs": [],
      "stateMutability": "nonpayable",
      "type": "function"
    },
    {
      "inputs": [
        {
          "internalType": "string",
          "name": "_toChain",
          "type": "string"
        },
        {
          "internalType": "uint256[]",
          "name": "_nums",
          "type": "uint256[]"
        }
      ],
      "name": "sendComputeTask",
      "outputs": [],
      "stateMutability": "nonpayable",
      "type": "function"
    },
    {
      "inputs": [
        {
          "internalType": "uint256[]",
          "name": "_nums",
          "type": "uint256[]"
        }
      ],
      "name": "receiveComputeTask",
      "outputs": [],
      "stateMutability": "nonpayable",
      "type": "function"
    },
    {
      "inputs": [
        {
          "internalType": "uint256",
          "name": "_result",
          "type": "uint256"
        }
      ],
      "name": "receiveComputeTaskCallback",
      "outputs": [],
      "stateMutability": "nonpayable",
      "type": "function"
    },
    {
      "inputs": [
        {
          "internalType": "string",
          "name": "_funcName",
          "type": "string"
        },
        {
          "internalType": "string",
          "name": "_toChain",
          "type": "string"
        },
        {
          "internalType": "string",
          "name": "_contractAddress",
          "type": "string"
        },
        {
          "internalType": "string",
          "name": "_contractFuncName",
          "type": "string"
        }
      ],
      "name": "registerDestnContract",
      "outputs": [],
      "stateMutability": "nonpayable",
      "type": "function"
    },
    {
      "inputs": [
        {
          "internalType": "string",
          "name": "_chainName",
          "type": "string"
        },
        {
          "internalType": "string",
          "name": "_sender",
          "type": "string"
        },
        {
          "internalType": "string",
          "name": "_funcName",
          "type": "string"
        }
      ],
      "name": "registerPermittedContract",
      "outputs": [],
      "stateMutability": "nonpayable",
      "type": "function"
    },
    {
      "inputs": [
        {
          "internalType": "string",
          "name": "_chainName",
          "type": "string"
        },
        {
          "internalType": "string",
          "name": "_funcName",
          "type": "string"
        },
        {
          "internalType": "string",
          "name": "_sender",
          "type": "string"
        }
      ],
      "name": "verify",
      "outputs": [
        {
          "internalType": "bool",
          "name": "",
          "type": "bool"
        }
      ],
      "stateMutability": "view",
      "type": "function"
    }
  ],
  "bytecode": "0x608060405234801561001057600080fd5b5061001a3361001f565b61006f565b600080546001600160a01b038381166001600160a01b0319831681178455604051919092169283917f8be0079c531659141344cd1fd0a4f28419497f9722a3daafe3b4186f6b6457e09190a35050565b6123ee8061007e6000396000f3fe608060405234801561001057600080fd5b506004361061014d5760003560e01c80638da5cb5b116100c3578063d46927031161007c578063d469270314610311578063dbc90de114610324578063e00dd16114610337578063f2fde38b1461034e578063f7d9623714610361578063ff96254b1461037457600080fd5b80638da5cb5b1461028d578063955a5ba4146102b25780639afff875146102c5578063a6b2b830146102d8578063babe5dd6146102eb578063bb45acd9146102fe57600080fd5b80634c236819116101155780634c2368191461020a5780635fe78c6c1461021d57806366e1f8201461023d578063715018a61461025057806379f6793c1461025857806380899bba1461026b57600080fd5b8063127f0f07146101525780631479a73f1461017057806318d72b54146101b45780632639c423146101c95780633ad16b7a146101ea575b600080fd5b61015a610397565b604051610167919061171c565b60405180910390f35b61019d61017e3660046117f5565b6008602052600090815260409020805460019091015460ff9091169082565b604080519215158352602083019190915201610167565b6101c76101c2366004611823565b61041f565b005b6101dc6101d736600461191b565b610474565b60405161016792919061196b565b6101fd6101f83660046119d8565b6105ab565b6040516101679190611a71565b6101c7610218366004611aee565b61073f565b61023061022b366004611b4f565b61096d565b6040516101679190611b83565b6101c761024b366004611b96565b610a12565b6101c7610aaa565b6101c76102663660046119d8565b610ae0565b61027e610279366004611c01565b610b5b565b60405161016793929190611c64565b6000546001600160a01b03165b6040516001600160a01b039091168152602001610167565b6102306102c03660046117f5565b610cb8565b6101c76102d33660046117f5565b610cd1565b6101c76102e6366004611c9c565b610d08565b6101c76102f9366004611cfb565b610f5a565b61023061030c366004611c01565b611000565b6101c761031f366004611dbe565b611041565b60035461029a906001600160a01b031681565b61034060095481565b604051908152602001610167565b6101c761035c366004611823565b611174565b6101c761036f366004611cfb565b61120f565b6103876103823660046119d8565b611294565b6040519015158152602001610167565b61039f6114f7565b600360009054906101000a90046001600160a01b03166001600160a01b0316639af7a48c6040518163ffffffff1660e01b8152600401600060405180830381865afa1580156103f2573d6000803e3d6000fd5b505050506040513d6000823e601f3d908101601f1916820160405261041a9190810190611fb5565b905090565b6000546001600160a01b031633146104525760405162461bcd60e51b8152600401610449906120cd565b60405180910390fd5b600380546001600160a01b0319166001600160a01b0392909216919091179055565b805160208183018101805160018252928201919093012091528054819061049a90612102565b80601f01602080910402602001604051908101604052809291908181526020018280546104c690612102565b80156105135780601f106104e857610100808354040283529160200191610513565b820191906000526020600020905b8154815290600101906020018083116104f657829003601f168201915b50505050509080600101805461052890612102565b80601f016020809104026020016040519081016040528092919081815260200182805461055490612102565b80156105a15780601f10610576576101008083540402835291602001916105a1565b820191906000526020600020905b81548152906001019060200180831161058457829003601f168201915b5050505050905082565b604080518082019091526060808252602082015260018787878787876040516020016105dc9695949392919061213d565b60408051601f19818403018152908290526105f69161216d565b908152602001604051809103902060405180604001604052908160008201805461061f90612102565b80601f016020809104026020016040519081016040528092919081815260200182805461064b90612102565b80156106985780601f1061066d57610100808354040283529160200191610698565b820191906000526020600020905b81548152906001019060200180831161067b57829003601f168201915b505050505081526020016001820180546106b190612102565b80601f01602080910402602001604051908101604052809291908181526020018280546106dd90612102565b801561072a5780601f106106ff5761010080835404028352916020019161072a565b820191906000526020600020905b81548152906001019060200180831161070d57829003601f168201915b50505050508152505090509695505050505050565b6003546001600160a01b031633146107995760405162461bcd60e51b815260206004820181905260248201527f4c6f636b65723a2063616c6c6572206973206e6f742043726f7373436861696e6044820152606401610449565b6000805b828110156107dd578383828181106107b7576107b7612189565b90506020020135826107c991906121b5565b9150806107d5816121cd565b91505061079d565b5060006107e8610397565b9050600060058260200151604051610800919061216d565b9081526040519081900360200181207f72656365697665436f6d707574655461736b43616c6c6261636b000000000000825291506000908290601a01908152604051908190036020019020600281015490915060ff1661089a5760405162461bcd60e51b81526020600482015260156024820152741858dd1a5bdb881b9bdd081c9959da5cdd195c9959605a1b6044820152606401610449565b6000846040516020016108af91815260200190565b60408051601f198184030181526020830190915260008252600184018054919350610962916108dd90612102565b80601f016020809104026020016040519081016040528092919081815260200182805461090990612102565b80156109565780601f1061092b57610100808354040283529160200191610956565b820191906000526020600020905b81548152906001019060200180831161093957829003601f168201915b5050505050828461135c565b505050505050505050565b80516020818301810180516002825292820191909301209152805461099190612102565b80601f01602080910402602001604051908101604052809291908181526020018280546109bd90612102565b8015610a0a5780601f106109df57610100808354040283529160200191610a0a565b820191906000526020600020905b8154815290600101906020018083116109ed57829003601f168201915b505050505081565b6000546001600160a01b03163314610a3c5760405162461bcd60e51b8152600401610449906120cd565b6003546040516321c0551d60e11b81526001600160a01b0390911690634380aa3a90610a72908790879087908790600401612211565b600060405180830381600087803b158015610a8c57600080fd5b505af1158015610aa0573d6000803e3d6000fd5b5050505050505050565b6000546001600160a01b03163314610ad45760405162461bcd60e51b8152600401610449906120cd565b610ade600061140c565b565b6000546001600160a01b03163314610b0a5760405162461bcd60e51b8152600401610449906120cd565b600060068787604051610b1e929190612243565b908152602001604051809103902090508484828585604051610b41929190612243565b908152604051908190036020019020610aa0929091611579565b81516020818401810180516005825292820194820194909420919093528151808301840180519281529084019290930191909120915280548190610b9e90612102565b80601f0160208091040260200160405190810160405280929190818152602001828054610bca90612102565b8015610c175780601f10610bec57610100808354040283529160200191610c17565b820191906000526020600020905b815481529060010190602001808311610bfa57829003601f168201915b505050505090806001018054610c2c90612102565b80601f0160208091040260200160405190810160405280929190818152602001828054610c5890612102565b8015610ca55780601f10610c7a57610100808354040283529160200191610ca5565b820191906000526020600020905b815481529060010190602001808311610c8857829003601f168201915b5050506002909301549192505060ff1683565b6004602052600090815260409020805461099190612102565b6000610cdb610397565b60e001516020908101516000908152600890915260409020805460ff191660019081178255019190915550565b600060058585604051610d1c929190612243565b9081526040519081900360200181207172656365697665436f6d707574655461736b60701b825291506000908290601201908152604051908190036020019020600281015490915060ff16610dab5760405162461bcd60e51b81526020600482015260156024820152741858dd1a5bdb881b9bdd081c9959da5cdd195c9959605a1b6044820152606401610449565b60008484604051602001610dc0929190612253565b60408051601f198184030181526020838101835260008085528351601f8c018390048302810183019094528a84529194509091610f30918b908b9081908401838280828437600092019190915250508754889250610e1e9150612102565b80601f0160208091040260200160405190810160405280929190818152602001828054610e4a90612102565b8015610e975780601f10610e6c57610100808354040283529160200191610e97565b820191906000526020600020905b815481529060010190602001808311610e7a57829003601f168201915b5050505050866001018054610eab90612102565b80601f0160208091040260200160405190810160405280929190818152602001828054610ed790612102565b8015610f245780601f10610ef957610100808354040283529160200191610f24565b820191906000526020600020905b815481529060010190602001808311610f0757829003601f168201915b5050505050858761145c565b6000818152600760205260409020909150610f4c9088886115fd565b506009555050505050505050565b6000546001600160a01b03163314610f845760405162461bcd60e51b8152600401610449906120cd565b600060058787604051610f98929190612243565b908152602001604051809103902090506000818a8a604051610fbb929190612243565b9081526040519081900360200190209050610fd7818787611579565b50610fe6600182018585611579565b50600201805460ff19166001179055505050505050505050565b815160208184018101805160068252928201948201949094209190935281518083018401805192815290840192909301919091209152805461099190612102565b6000546001600160a01b0316331461106b5760405162461bcd60e51b8152600401610449906120cd565b6040805160606020601f8701819004028201810183529181018581526000928291908890889081908501838280828437600092019190915250505090825250604080516020601f87018190048102820181019092528581529181019190869086908190840183828082843760009201919091525050509152506040519091508190600190611107908e908e908e908e908e908e9060200161213d565b60408051601f19818403018152908290526111219161216d565b9081526020016040518091039020600082015181600001908051906020019061114b929190611637565b5060208281015180516111649260018501920190611637565b5050505050505050505050505050565b6000546001600160a01b0316331461119e5760405162461bcd60e51b8152600401610449906120cd565b6001600160a01b0381166112035760405162461bcd60e51b815260206004820152602660248201527f4f776e61626c653a206e6577206f776e657220697320746865207a65726f206160448201526564647265737360d01b6064820152608401610449565b61120c8161140c565b50565b6000546001600160a01b031633146112395760405162461bcd60e51b8152600401610449906120cd565b60008888888888886040516020016112569695949392919061213d565b60408051601f198184030181529181528151602092830120600081815260049093529120909150611288908484611579565b50505050505050505050565b600080600688886040516112a9929190612243565b9081526020016040518091039020905060008187876040516112cc929190612243565b90815260405190819003602001812091506112ea9086908690612243565b604051809103902081604051611300919061228f565b60405180910390201461134d5760405162461bcd60e51b81526020600482015260156024820152740a6cadcc8cae440c8decae640dcdee840dac2e8c6d605b1b6044820152606401610449565b50600198975050505050505050565b600080611367610397565b60035460208083015160408085015181518083018352600281528651948101949094529051633ec320f960e11b81529495506001600160a01b0390931693637d8641f2936113c09390918b918b918b919060040161232b565b6020604051808303816000875af11580156113df573d6000803e3d6000fd5b505050506040513d601f19601f82011682018060405250810190611403919061239f565b95945050505050565b600080546001600160a01b038381166001600160a01b0319831681178455604051919092169283917f8be0079c531659141344cd1fd0a4f28419497f9722a3daafe3b4186f6b6457e09190a35050565b600354604080518082018252600181526000602082018190529151633ec320f960e11b815291926001600160a01b031691637d8641f2916114aa918a918a918a918a918a919060040161232b565b6020604051808303816000875af11580156114c9573d6000803e3d6000fd5b505050506040513d601f19601f820116820180604052508101906114ed919061239f565b9695505050505050565b604051806101000160405280600081526020016060815260200160608152602001606081526020016115386040518060200160405280600060ff1681525090565b815260200160006001600160a01b03168152602001606081526020016115746040518060400160405280600060ff168152602001600081525090565b905290565b82805461158590612102565b90600052602060002090601f0160209004810192826115a757600085556115ed565b82601f106115c05782800160ff198235161785556115ed565b828001600101855582156115ed579182015b828111156115ed5782358255916020019190600101906115d2565b506115f99291506116ab565b5090565b8280548282559060005260206000209081019282156115ed57916020028201828111156115ed5782358255916020019190600101906115d2565b82805461164390612102565b90600052602060002090601f01602090048101928261166557600085556115ed565b82601f1061167e57805160ff19168380011785556115ed565b828001600101855582156115ed579182015b828111156115ed578251825591602001919060010190611690565b5b808211156115f957600081556001016116ac565b60005b838110156116db5781810151838201526020016116c3565b838111156116ea576000848401525b50505050565b600081518084526117088160208601602086016116c0565b601f01601f19169290920160200192915050565b60208152815160208201526000602083015161012060408401526117446101408401826116f0565b90506040840151601f198085840301606086015261176283836116f0565b9250606086015191508085840301608086015261177f83836116f0565b92506080860151915061179860a08601835160ff169052565b60a08601516001600160a01b03811660c0870152915060c08601519150808584030160e0860152506117ca82826116f0565b91505060e08401516117ed610100850182805160ff168252602090810151910152565b509392505050565b60006020828403121561180757600080fd5b5035919050565b6001600160a01b038116811461120c57600080fd5b60006020828403121561183557600080fd5b81356118408161180e565b9392505050565b634e487b7160e01b600052604160045260246000fd5b60405161010081016001600160401b038111828210171561188057611880611847565b60405290565b604051601f8201601f191681016001600160401b03811182821017156118ae576118ae611847565b604052919050565b60006001600160401b038211156118cf576118cf611847565b50601f01601f191660200190565b60006118f06118eb846118b6565b611886565b905082815283838301111561190457600080fd5b828260208301376000602084830101529392505050565b60006020828403121561192d57600080fd5b81356001600160401b0381111561194357600080fd5b8201601f8101841361195457600080fd5b611963848235602084016118dd565b949350505050565b60408152600061197e60408301856116f0565b828103602084015261140381856116f0565b60008083601f8401126119a257600080fd5b5081356001600160401b038111156119b957600080fd5b6020830191508360208285010111156119d157600080fd5b9250929050565b600080600080600080606087890312156119f157600080fd5b86356001600160401b0380821115611a0857600080fd5b611a148a838b01611990565b90985096506020890135915080821115611a2d57600080fd5b611a398a838b01611990565b90965094506040890135915080821115611a5257600080fd5b50611a5f89828a01611990565b979a9699509497509295939492505050565b602081526000825160406020840152611a8d60608401826116f0565b90506020840151601f1984830301604085015261140382826116f0565b60008083601f840112611abc57600080fd5b5081356001600160401b03811115611ad357600080fd5b6020830191508360208260051b85010111156119d157600080fd5b60008060208385031215611b0157600080fd5b82356001600160401b03811115611b1757600080fd5b611b2385828601611aaa565b90969095509350505050565b600082601f830112611b4057600080fd5b611840838335602085016118dd565b600060208284031215611b6157600080fd5b81356001600160401b03811115611b7757600080fd5b61196384828501611b2f565b60208152600061184060208301846116f0565b60008060008060408587031215611bac57600080fd5b84356001600160401b0380821115611bc357600080fd5b611bcf88838901611990565b90965094506020870135915080821115611be857600080fd5b50611bf587828801611990565b95989497509550505050565b60008060408385031215611c1457600080fd5b82356001600160401b0380821115611c2b57600080fd5b611c3786838701611b2f565b93506020850135915080821115611c4d57600080fd5b50611c5a85828601611b2f565b9150509250929050565b606081526000611c7760608301866116f0565b8281036020840152611c8981866116f0565b9150508215156040830152949350505050565b60008060008060408587031215611cb257600080fd5b84356001600160401b0380821115611cc957600080fd5b611cd588838901611990565b90965094506020870135915080821115611cee57600080fd5b50611bf587828801611aaa565b6000806000806000806000806080898b031215611d1757600080fd5b88356001600160401b0380821115611d2e57600080fd5b611d3a8c838d01611990565b909a50985060208b0135915080821115611d5357600080fd5b611d5f8c838d01611990565b909850965060408b0135915080821115611d7857600080fd5b611d848c838d01611990565b909650945060608b0135915080821115611d9d57600080fd5b50611daa8b828c01611990565b999c989b5096995094979396929594505050565b60008060008060008060008060008060a08b8d031215611ddd57600080fd5b8a356001600160401b0380821115611df457600080fd5b611e008e838f01611990565b909c509a5060208d0135915080821115611e1957600080fd5b611e258e838f01611990565b909a50985060408d0135915080821115611e3e57600080fd5b611e4a8e838f01611990565b909850965060608d0135915080821115611e6357600080fd5b611e6f8e838f01611990565b909650945060808d0135915080821115611e8857600080fd5b50611e958d828e01611990565b915080935050809150509295989b9194979a5092959850565b600082601f830112611ebf57600080fd5b8151611ecd6118eb826118b6565b818152846020838601011115611ee257600080fd5b6119638260208301602087016116c0565b805160ff81168114611f0457600080fd5b919050565b600060208284031215611f1b57600080fd5b604051602081018181106001600160401b0382111715611f3d57611f3d611847565b604052905080611f4c83611ef3565b905292915050565b8051611f048161180e565b600060408284031215611f7157600080fd5b604051604081018181106001600160401b0382111715611f9357611f93611847565b604052905080611fa283611ef3565b8152602083015160208201525092915050565b600060208284031215611fc757600080fd5b81516001600160401b0380821115611fde57600080fd5b908301906101208286031215611ff357600080fd5b611ffb61185d565b8251815260208301518281111561201157600080fd5b61201d87828601611eae565b60208301525060408301518281111561203557600080fd5b61204187828601611eae565b60408301525060608301518281111561205957600080fd5b61206587828601611eae565b6060830152506120788660808501611f09565b608082015261208960a08401611f54565b60a082015260c0830151828111156120a057600080fd5b6120ac87828601611eae565b60c0830152506120bf8660e08501611f5f565b60e082015295945050505050565b6020808252818101527f4f776e61626c653a2063616c6c6572206973206e6f7420746865206f776e6572604082015260600190565b600181811c9082168061211657607f821691505b6020821081141561213757634e487b7160e01b600052602260045260246000fd5b50919050565b85878237600086820160008152858782376000908601908152838582376000930192835250909695505050505050565b6000825161217f8184602087016116c0565b9190910192915050565b634e487b7160e01b600052603260045260246000fd5b634e487b7160e01b600052601160045260246000fd5b600082198211156121c8576121c861219f565b500190565b60006000198214156121e1576121e161219f565b5060010190565b81835281816020850137506000828201602090810191909152601f909101601f19169091010190565b6040815260006122256040830186886121e8565b82810360208401526122388185876121e8565b979650505050505050565b8183823760009101908152919050565b6020808252810182905260006001600160fb1b0383111561227357600080fd5b8260051b80856040850137600092016040019182525092915050565b600080835481600182811c9150808316806122ab57607f831692505b60208084108214156122cb57634e487b7160e01b86526022600452602486fd5b8180156122df57600181146122f05761231d565b60ff1986168952848901965061231d565b60008a81526020902060005b868110156123155781548b8201529085019083016122fc565b505084890196505b509498975050505050505050565b60e08152600061233e60e08301896116f0565b828103602084015261235081896116f0565b9050828103604084015261236481886116f0565b905060ff8651166060840152828103608084015261238281866116f0565b845160ff1660a0850152602085015160c085015291506122389050565b6000602082840312156123b157600080fd5b505191905056fea264697066735822122038d613fb879740be937e19b7e0e6b661c68cca6e0e38731fe43fdabb678e470964736f6c634300080a0033",
  "immutableReferences": {},
  "source": "// SPDX-License-Identifier: MIT\npragma solidity >=0.8.0 <0.9.0;\n\nimport \"@openzeppelin/contracts/access/Ownable.sol\";\nimport \"./CrossChain/ContractAdvanced.sol\";\nimport \"./IOCComputing.sol\";\n\n// `OCComputing` is an example of multi-chain services with necessary implementations in `ContractAdvanced`, which provides basic cross-chain call interfaces.\ncontract OCComputing is ContractAdvanced, IOCComputing {\n    // Destination contract info\n    struct DestnContract {\n        string contractAddress; // destination contract address\n        string funcName; // destination contract action name\n        bool used;\n    }\n\n    struct OCResult {\n        bool used;\n        uint256 result;\n    }\n\n    // Cross-chain destination contract map\n    mapping(string => mapping(string => DestnContract)) public destnContractMap;\n\n    // Cross-chain permitted contract map\n    mapping(string => mapping(string => string)) public permittedContractMap;\n\n    // Outsourcing computing data cache\n    mapping(uint256 => uint256[]) cachedData;\n    // Outsourcing computing result\n    mapping(uint256 => OCResult) public ocResult;\n    // Current id\n    uint256 public currentId;\n    \n    /**\n     * Send outsourcing computing task to other chain\n     * @param _toChain - to chain name\n     * @param _nums - nums to be accumulated\n     */\n    function sendComputeTask(string calldata _toChain, uint[] calldata _nums) external {\n        mapping(string => DestnContract) storage map = destnContractMap[_toChain];\n        DestnContract storage destnContract = map[\"receiveComputeTask\"];\n        require(destnContract.used, \"action not registered\");\n\n        bytes memory data = abi.encode(_nums);\n        SQOS memory sqos = SQOS(0);\n        uint id = crossChainCall(\n            _toChain,\n            destnContract.contractAddress,\n            destnContract.funcName,\n            sqos,\n            data\n        );\n        cachedData[id] = _nums;\n        currentId = id;\n    }\n\n    /**\n     * Receives outsourcing computing task from other chain\n     * @param _nums - nums to be accumulated\n     */\n    function receiveComputeTask(uint[] calldata _nums) external {\n        require(\n            msg.sender == address(crossChainContract),\n            \"Locker: caller is not CrossChain\"\n        );\n        \n        // compute\n        uint ret = 0;\n        for (uint i = 0; i < _nums.length; i++) {\n            ret += _nums[i];\n        }\n\n        // send result back\n        SimplifiedMessage memory context = getContext();\n        mapping(string => DestnContract) storage map = destnContractMap[context.fromChain];\n        DestnContract storage destnContract = map[\"receiveComputeTaskCallback\"];\n        require(destnContract.used, \"action not registered\");\n\n        bytes memory data = abi.encode(ret);\n        SQOS memory sqos = SQOS(0);\n        crossChainRespond(destnContract.funcName, sqos, data);\n    }\n\n    /**\n     * See IOCComputing\n     */\n    function receiveComputeTaskCallback(uint _result) external override {\n        SimplifiedMessage memory context = getContext();\n        OCResult storage result = ocResult[context.session.id];\n        result.used = true;\n        result.result = _result;\n    }\n\n    ///////////////////////////////////////////////\n    /////    Send messages to other chains   //////\n    ///////////////////////////////////////////////\n\n    /**\n     * Register destination contract info\n     * @param _funcName - function name to be called\n     * @param _toChain - destination chain name\n     * @param _contractAddress - destination contract address\n     * @param _contractFuncName - contract function name\n     */\n    function registerDestnContract(\n        string calldata _funcName,\n        string calldata _toChain,\n        string calldata _contractAddress,\n        string calldata _contractFuncName\n    ) external onlyOwner {\n        mapping(string => DestnContract) storage map = destnContractMap[_toChain];\n        DestnContract storage destnContract = map[_funcName];\n        destnContract.contractAddress = _contractAddress;\n        destnContract.funcName = _contractFuncName;\n        destnContract.used = true;\n    }\n\n    ///////////////////////////////////////////////\n    ///    Receive messages from other chains   ///\n    ///////////////////////////////////////////////\n\n    /**\n     * Authorize contracts of other chains to call the functions of this contract\n     * @param _chainName - from chain name\n     * @param _sender - sender of cross chain message\n     * @param _funcName - action name which allowed to be invoked\n     */\n    function registerPermittedContract(\n        string calldata _chainName,\n        string calldata _sender,\n        string calldata _funcName\n    ) external onlyOwner {\n        mapping(string => string) storage map = permittedContractMap[\n            _chainName\n        ];\n        map[_funcName] = _sender;\n    }\n\n    /**\n     * This verify method will be invoked by the CrossChain contract automatically, ensure that only registered contract(registerSourceContract) calls are allowed\n     * @param _chainName - chain name of cross chain message\n     * @param _funcName - contract action name of cross chain message\n     * @param _sender - cross chain message sender\n     */\n    //  Will be deprecated soon\n    function verify(\n        string calldata _chainName,\n        string calldata _funcName,\n        string calldata _sender\n    ) public view virtual returns (bool) {\n        mapping(string => string) storage map = permittedContractMap[\n            _chainName\n        ];\n        string storage sender = map[_funcName];\n        require(\n            keccak256(bytes(sender)) == keccak256(bytes(_sender)),\n            \"Sender does not match\"\n        );\n        return true;\n    }\n}\n",
  "sourcePath": "/root/hthuang/work/solidity-contract-template/contracts/OCComputing.sol",
  "compiler": {
    "name": "solc",
    "version": "0.8.10+commit.fc410830.Emscripten.clang"
  },
  "schemaVersion": "3.4.7",
  "updatedAt": "2022-06-06T09:19:12.265Z",
  "devdoc": {
    "kind": "dev",
    "methods": {
      "getMessageABI(string,string,string)": {
        "params": {
          "_destnChainName": "- destination chain name",
          "_destnContractName": "- destination contract name",
          "_funcName": "- destination contract function name"
        }
      },
      "owner()": {
        "details": "Returns the address of the current owner."
      },
      "receiveComputeTask(uint256[])": {
        "params": {
          "_nums": "- nums to be accumulated"
        }
      },
      "registerCallbackAbi(string,string,string,string)": {
        "params": {
          "_callbackAbi": "- data abi",
          "_destnChainName": "- destination chain name",
          "_destnContractName": "- destination contract name",
          "_funcName": "- destination contract function name"
        }
      },
      "registerContractABI(string,string)": {
        "params": {
          "_contractABI": "- contract action abi",
          "_funcName": "- contract action name"
        }
      },
      "registerDestnContract(string,string,string,string)": {
        "params": {
          "_contractAddress": "- destination contract address",
          "_contractFuncName": "- contract function name",
          "_funcName": "- function name to be called",
          "_toChain": "- destination chain name"
        }
      },
      "registerMessageABI(string,string,string,string,string)": {
        "params": {
          "_destnChainName": "- destination chain name",
          "_destnContractName": "- destination contract name",
          "_funcName": "- destination contract function name",
          "_paramName": "- action param name",
          "_paramType": "- action param types"
        }
      },
      "registerPermittedContract(string,string,string)": {
        "params": {
          "_chainName": "- from chain name",
          "_funcName": "- action name which allowed to be invoked",
          "_sender": "- sender of cross chain message"
        }
      },
      "renounceOwnership()": {
        "details": "Leaves the contract without owner. It will not be possible to call `onlyOwner` functions anymore. Can only be called by the current owner. NOTE: Renouncing ownership will leave the contract without an owner, thereby removing any functionality that is only available to the owner."
      },
      "sendComputeTask(string,uint256[])": {
        "params": {
          "_nums": "- nums to be accumulated",
          "_toChain": "- to chain name"
        }
      },
      "setCrossChainContract(address)": {
        "params": {
          "_address": "- cross chain contract address"
        }
      },
      "transferOwnership(address)": {
        "details": "Transfers ownership of the contract to a new account (`newOwner`). Can only be called by the current owner."
      },
      "verify(string,string,string)": {
        "params": {
          "_chainName": "- chain name of cross chain message",
          "_funcName": "- contract action name of cross chain message",
          "_sender": "- cross chain message sender"
        }
      }
    },
    "version": 1
  },
  "userdoc": {
    "kind": "user",
    "methods": {
      "getMessageABI(string,string,string)": {
        "notice": "Get Registered message ABI to encode/decode message"
      },
      "receiveComputeTask(uint256[])": {
        "notice": "Receives outsourcing computing task from other chain"
      },
      "receiveComputeTaskCallback(uint256)": {
        "notice": "See IOCComputing"
      },
      "registerCallbackAbi(string,string,string,string)": {
        "notice": "Callback ABI used to decode data responded by other chain"
      },
      "registerContractABI(string,string)": {
        "notice": "contract ABI used to encode/decode messages sent to this contract"
      },
      "registerDestnContract(string,string,string,string)": {
        "notice": "Register destination contract info"
      },
      "registerMessageABI(string,string,string,string,string)": {
        "notice": "message ABI used to encode/decode messages sent from this contract"
      },
      "registerPermittedContract(string,string,string)": {
        "notice": "Authorize contracts of other chains to call the functions of this contract"
      },
      "sendComputeTask(string,uint256[])": {
        "notice": "Send outsourcing computing task to other chain"
      },
      "setCrossChainContract(address)": {
        "notice": "Set cross chain contract"
      },
      "verify(string,string,string)": {
        "notice": "This verify method will be invoked by the CrossChain contract automatically, ensure that only registered contract(registerSourceContract) calls are allowed"
      }
    },
    "version": 1
  }
}