{
  "contractName": "AdouCollator",
  "abi": [
    {
      "inputs": [
        {
          "internalType": "uint256",
          "name": "_techProportion",
          "type": "uint256"
        },
        {
          "internalType": "uint256",
          "name": "_fundsDownLimit",
          "type": "uint256"
        },
        {
          "internalType": "uint256",
          "name": "_perInvestDownLimit",
          "type": "uint256"
        },
        {
          "internalType": "uint256",
          "name": "_nodeStartDate",
          "type": "uint256"
        },
        {
          "internalType": "uint256",
          "name": "_rewardDownLimit",
          "type": "uint256"
        },
        {
          "internalType": "address",
          "name": "_techRewardAddr",
          "type": "address"
        },
        {
          "internalType": "uint256",
          "name": "_scheduleTime",
          "type": "uint256"
        },
        {
          "internalType": "uint256",
          "name": "_authorMappingLimit",
          "type": "uint256"
        }
      ],
      "stateMutability": "nonpayable",
      "type": "constructor"
    },
    {
      "anonymous": false,
      "inputs": [
        {
          "indexed": true,
          "internalType": "bytes32",
          "name": "role",
          "type": "bytes32"
        },
        {
          "indexed": true,
          "internalType": "bytes32",
          "name": "previousAdminRole",
          "type": "bytes32"
        },
        {
          "indexed": true,
          "internalType": "bytes32",
          "name": "newAdminRole",
          "type": "bytes32"
        }
      ],
      "name": "RoleAdminChanged",
      "type": "event"
    },
    {
      "anonymous": false,
      "inputs": [
        {
          "indexed": true,
          "internalType": "bytes32",
          "name": "role",
          "type": "bytes32"
        },
        {
          "indexed": true,
          "internalType": "address",
          "name": "account",
          "type": "address"
        },
        {
          "indexed": true,
          "internalType": "address",
          "name": "sender",
          "type": "address"
        }
      ],
      "name": "RoleGranted",
      "type": "event"
    },
    {
      "anonymous": false,
      "inputs": [
        {
          "indexed": true,
          "internalType": "bytes32",
          "name": "role",
          "type": "bytes32"
        },
        {
          "indexed": true,
          "internalType": "address",
          "name": "account",
          "type": "address"
        },
        {
          "indexed": true,
          "internalType": "address",
          "name": "sender",
          "type": "address"
        }
      ],
      "name": "RoleRevoked",
      "type": "event"
    },
    {
      "stateMutability": "payable",
      "type": "fallback"
    },
    {
      "inputs": [],
      "name": "DEFAULT_ADMIN_ROLE",
      "outputs": [
        {
          "internalType": "bytes32",
          "name": "",
          "type": "bytes32"
        }
      ],
      "stateMutability": "view",
      "type": "function"
    },
    {
      "inputs": [
        {
          "internalType": "bytes32",
          "name": "role",
          "type": "bytes32"
        }
      ],
      "name": "getRoleAdmin",
      "outputs": [
        {
          "internalType": "bytes32",
          "name": "",
          "type": "bytes32"
        }
      ],
      "stateMutability": "view",
      "type": "function"
    },
    {
      "inputs": [
        {
          "internalType": "bytes32",
          "name": "role",
          "type": "bytes32"
        },
        {
          "internalType": "address",
          "name": "account",
          "type": "address"
        }
      ],
      "name": "grantRole",
      "outputs": [],
      "stateMutability": "nonpayable",
      "type": "function"
    },
    {
      "inputs": [
        {
          "internalType": "bytes32",
          "name": "role",
          "type": "bytes32"
        },
        {
          "internalType": "address",
          "name": "account",
          "type": "address"
        }
      ],
      "name": "hasRole",
      "outputs": [
        {
          "internalType": "bool",
          "name": "",
          "type": "bool"
        }
      ],
      "stateMutability": "view",
      "type": "function"
    },
    {
      "inputs": [
        {
          "internalType": "bytes32",
          "name": "role",
          "type": "bytes32"
        },
        {
          "internalType": "address",
          "name": "account",
          "type": "address"
        }
      ],
      "name": "renounceRole",
      "outputs": [],
      "stateMutability": "nonpayable",
      "type": "function"
    },
    {
      "inputs": [
        {
          "internalType": "bytes32",
          "name": "role",
          "type": "bytes32"
        },
        {
          "internalType": "address",
          "name": "account",
          "type": "address"
        }
      ],
      "name": "revokeRole",
      "outputs": [],
      "stateMutability": "nonpayable",
      "type": "function"
    },
    {
      "inputs": [
        {
          "internalType": "bytes4",
          "name": "interfaceId",
          "type": "bytes4"
        }
      ],
      "name": "supportsInterface",
      "outputs": [
        {
          "internalType": "bool",
          "name": "",
          "type": "bool"
        }
      ],
      "stateMutability": "view",
      "type": "function"
    },
    {
      "stateMutability": "payable",
      "type": "receive"
    },
    {
      "inputs": [
        {
          "internalType": "uint256",
          "name": "_techProportion",
          "type": "uint256"
        },
        {
          "internalType": "uint256",
          "name": "_fundsDownLimit",
          "type": "uint256"
        },
        {
          "internalType": "uint256",
          "name": "_perInvestDownLimit",
          "type": "uint256"
        },
        {
          "internalType": "uint256",
          "name": "_nodeStartDate",
          "type": "uint256"
        },
        {
          "internalType": "uint256",
          "name": "_rewardDownLimit",
          "type": "uint256"
        },
        {
          "internalType": "address",
          "name": "_techRewardAddr",
          "type": "address"
        },
        {
          "internalType": "uint256",
          "name": "_scheduleTime",
          "type": "uint256"
        },
        {
          "internalType": "uint256",
          "name": "_authorMappingLimit",
          "type": "uint256"
        }
      ],
      "name": "setParameter",
      "outputs": [],
      "stateMutability": "nonpayable",
      "type": "function"
    },
    {
      "inputs": [],
      "name": "scheduleLeaveStake",
      "outputs": [],
      "stateMutability": "nonpayable",
      "type": "function"
    },
    {
      "inputs": [],
      "name": "executeLeaveStake",
      "outputs": [],
      "stateMutability": "nonpayable",
      "type": "function"
    },
    {
      "inputs": [],
      "name": "addStake",
      "outputs": [],
      "stateMutability": "payable",
      "type": "function"
    },
    {
      "inputs": [],
      "name": "addMoreStake",
      "outputs": [],
      "stateMutability": "payable",
      "type": "function"
    },
    {
      "inputs": [
        {
          "internalType": "uint256",
          "name": "amount",
          "type": "uint256"
        }
      ],
      "name": "scheduleRedeemStake",
      "outputs": [],
      "stateMutability": "nonpayable",
      "type": "function"
    },
    {
      "inputs": [],
      "name": "executeRedeemStake",
      "outputs": [],
      "stateMutability": "nonpayable",
      "type": "function"
    },
    {
      "inputs": [],
      "name": "start",
      "outputs": [],
      "stateMutability": "nonpayable",
      "type": "function"
    },
    {
      "inputs": [
        {
          "internalType": "bytes32",
          "name": "nimbusId",
          "type": "bytes32"
        }
      ],
      "name": "addAssociation",
      "outputs": [],
      "stateMutability": "payable",
      "type": "function"
    },
    {
      "inputs": [
        {
          "internalType": "bytes32",
          "name": "oldNimbusId",
          "type": "bytes32"
        },
        {
          "internalType": "bytes32",
          "name": "newNimbusId",
          "type": "bytes32"
        }
      ],
      "name": "updateAssociation",
      "outputs": [],
      "stateMutability": "nonpayable",
      "type": "function"
    },
    {
      "inputs": [
        {
          "internalType": "bytes32",
          "name": "nimbusId",
          "type": "bytes32"
        }
      ],
      "name": "clearAssociation",
      "outputs": [],
      "stateMutability": "nonpayable",
      "type": "function"
    },
    {
      "inputs": [
        {
          "internalType": "address payable",
          "name": "account",
          "type": "address"
        }
      ],
      "name": "redemmAssociation",
      "outputs": [],
      "stateMutability": "nonpayable",
      "type": "function"
    },
    {
      "inputs": [],
      "name": "failBackStake",
      "outputs": [],
      "stateMutability": "nonpayable",
      "type": "function"
    },
    {
      "inputs": [
        {
          "internalType": "address payable",
          "name": "account",
          "type": "address"
        }
      ],
      "name": "claimRedeem",
      "outputs": [],
      "stateMutability": "nonpayable",
      "type": "function"
    },
    {
      "inputs": [],
      "name": "assignRewards",
      "outputs": [],
      "stateMutability": "nonpayable",
      "type": "function"
    },
    {
      "inputs": [
        {
          "internalType": "address",
          "name": "account",
          "type": "address"
        }
      ],
      "name": "fundsTransfer",
      "outputs": [],
      "stateMutability": "nonpayable",
      "type": "function"
    },
    {
      "inputs": [],
      "name": "getBalance",
      "outputs": [
        {
          "internalType": "uint256",
          "name": "",
          "type": "uint256"
        }
      ],
      "stateMutability": "view",
      "type": "function"
    },
    {
      "inputs": [],
      "name": "getReward",
      "outputs": [
        {
          "internalType": "uint256",
          "name": "",
          "type": "uint256"
        }
      ],
      "stateMutability": "view",
      "type": "function"
    },
    {
      "inputs": [],
      "name": "getRedeem",
      "outputs": [
        {
          "internalType": "uint256",
          "name": "",
          "type": "uint256"
        }
      ],
      "stateMutability": "view",
      "type": "function"
    },
    {
      "inputs": [],
      "name": "getStake",
      "outputs": [
        {
          "internalType": "uint256",
          "name": "",
          "type": "uint256"
        }
      ],
      "stateMutability": "view",
      "type": "function"
    },
    {
      "inputs": [],
      "name": "getTotalStake",
      "outputs": [
        {
          "internalType": "uint256",
          "name": "",
          "type": "uint256"
        }
      ],
      "stateMutability": "view",
      "type": "function"
    },
    {
      "inputs": [],
      "name": "getStakeProportion",
      "outputs": [
        {
          "internalType": "uint256",
          "name": "",
          "type": "uint256"
        }
      ],
      "stateMutability": "view",
      "type": "function"
    },
    {
      "inputs": [],
      "name": "getTotalReward",
      "outputs": [
        {
          "internalType": "uint256",
          "name": "",
          "type": "uint256"
        }
      ],
      "stateMutability": "view",
      "type": "function"
    },
    {
      "inputs": [],
      "name": "getPendingReward",
      "outputs": [
        {
          "internalType": "uint256",
          "name": "",
          "type": "uint256"
        }
      ],
      "stateMutability": "view",
      "type": "function"
    },
    {
      "inputs": [],
      "name": "getAnnualReward",
      "outputs": [
        {
          "internalType": "uint256",
          "name": "",
          "type": "uint256"
        }
      ],
      "stateMutability": "view",
      "type": "function"
    },
    {
      "inputs": [],
      "name": "getMemberReal",
      "outputs": [
        {
          "internalType": "uint256",
          "name": "",
          "type": "uint256"
        }
      ],
      "stateMutability": "view",
      "type": "function"
    },
    {
      "inputs": [],
      "name": "getMemberTotal",
      "outputs": [
        {
          "internalType": "uint256",
          "name": "",
          "type": "uint256"
        }
      ],
      "stateMutability": "view",
      "type": "function"
    },
    {
      "inputs": [
        {
          "internalType": "uint256",
          "name": "_index",
          "type": "uint256"
        }
      ],
      "name": "getMemberByIndex",
      "outputs": [
        {
          "internalType": "address",
          "name": "",
          "type": "address"
        }
      ],
      "stateMutability": "view",
      "type": "function"
    },
    {
      "inputs": [],
      "name": "getNodeStartDate",
      "outputs": [
        {
          "internalType": "uint256",
          "name": "",
          "type": "uint256"
        }
      ],
      "stateMutability": "view",
      "type": "function"
    },
    {
      "inputs": [],
      "name": "getLeaveTime",
      "outputs": [
        {
          "internalType": "uint256",
          "name": "",
          "type": "uint256"
        }
      ],
      "stateMutability": "view",
      "type": "function"
    },
    {
      "inputs": [],
      "name": "getNodeState",
      "outputs": [
        {
          "internalType": "uint256",
          "name": "",
          "type": "uint256"
        }
      ],
      "stateMutability": "view",
      "type": "function"
    },
    {
      "inputs": [],
      "name": "getNodeConfig",
      "outputs": [
        {
          "components": [
            {
              "internalType": "uint256",
              "name": "techProportion",
              "type": "uint256"
            },
            {
              "internalType": "uint256",
              "name": "fundsDownLimit",
              "type": "uint256"
            },
            {
              "internalType": "uint256",
              "name": "perInvestDownLimit",
              "type": "uint256"
            },
            {
              "internalType": "uint256",
              "name": "rewardDownLimit",
              "type": "uint256"
            },
            {
              "internalType": "uint256",
              "name": "scheduleTime",
              "type": "uint256"
            },
            {
              "internalType": "uint256",
              "name": "authorMappingLimit",
              "type": "uint256"
            }
          ],
          "internalType": "struct AdouCollator.NodeConfig",
          "name": "",
          "type": "tuple"
        }
      ],
      "stateMutability": "view",
      "type": "function"
    },
    {
      "inputs": [],
      "name": "getRedeemConfig",
      "outputs": [
        {
          "components": [
            {
              "internalType": "uint256",
              "name": "bondLess",
              "type": "uint256"
            },
            {
              "internalType": "address",
              "name": "bondLessAddr",
              "type": "address"
            },
            {
              "internalType": "uint256",
              "name": "bondLessTime",
              "type": "uint256"
            }
          ],
          "internalType": "struct AdouCollator.RedeemConfig",
          "name": "",
          "type": "tuple"
        }
      ],
      "stateMutability": "view",
      "type": "function"
    }
  ],
  "bytecode": "0x60806040526000601160006101000a81548160ff02191690831515021790555060006012556000601355600060165560006017556000601960146101000a81548160ff0219169083151502179055503480156200005b57600080fd5b506040516200618d3803806200618d83398181016040528101906200008191906200051a565b87600760000181905550620000ad670de0b6b3a764000088620002cc60201b620038661790919060201c565b600760010181905550620000d8670de0b6b3a764000087620002cc60201b620038661790919060201c565b60076002018190555062000103670de0b6b3a764000085620002cc60201b620038661790919060201c565b60076003018190555084601081905550816007600401819055506200013f670de0b6b3a764000082620002cc60201b620038661790919060201c565b60076005018190555033601960006101000a81548173ffffffffffffffffffffffffffffffffffffffff021916908373ffffffffffffffffffffffffffffffffffffffff160217905550610800600260006101000a81548173ffffffffffffffffffffffffffffffffffffffff021916908373ffffffffffffffffffffffffffffffffffffffff160217905550610807600360006101000a81548173ffffffffffffffffffffffffffffffffffffffff021916908373ffffffffffffffffffffffffffffffffffffffff16021790555060603073ffffffffffffffffffffffffffffffffffffffff16901b60001b6001819055508260146000601254815260200190815260200160002060006101000a81548173ffffffffffffffffffffffffffffffffffffffff021916908373ffffffffffffffffffffffffffffffffffffffff160217905550620002a46001601254620002e460201b6200387c1790919060201c565b601281905550620002be60015484620002fc60201b60201c565b5050505050505050620006d0565b60008183620002dc919062000612565b905092915050565b60008183620002f4919062000673565b905092915050565b6200030e82826200031260201b60201c565b5050565b6200032482826200040360201b60201c565b620003ff57600160008084815260200190815260200160002060000160008373ffffffffffffffffffffffffffffffffffffffff1673ffffffffffffffffffffffffffffffffffffffff16815260200190815260200160002060006101000a81548160ff021916908315150217905550620003a46200046d60201b60201c565b73ffffffffffffffffffffffffffffffffffffffff168173ffffffffffffffffffffffffffffffffffffffff16837f2f8788117e7eff1d82e926ec794901d17c78024a50270940304540a733656f0d60405160405180910390a45b5050565b600080600084815260200190815260200160002060000160008373ffffffffffffffffffffffffffffffffffffffff1673ffffffffffffffffffffffffffffffffffffffff16815260200190815260200160002060009054906101000a900460ff16905092915050565b600033905090565b600080fd5b6000819050919050565b6200048f816200047a565b81146200049b57600080fd5b50565b600081519050620004af8162000484565b92915050565b600073ffffffffffffffffffffffffffffffffffffffff82169050919050565b6000620004e282620004b5565b9050919050565b620004f481620004d5565b81146200050057600080fd5b50565b6000815190506200051481620004e9565b92915050565b600080600080600080600080610100898b0312156200053e576200053d62000475565b5b60006200054e8b828c016200049e565b9850506020620005618b828c016200049e565b9750506040620005748b828c016200049e565b9650506060620005878b828c016200049e565b95505060806200059a8b828c016200049e565b94505060a0620005ad8b828c0162000503565b93505060c0620005c08b828c016200049e565b92505060e0620005d38b828c016200049e565b9150509295985092959890939650565b7f4e487b7100000000000000000000000000000000000000000000000000000000600052601160045260246000fd5b60006200061f826200047a565b91506200062c836200047a565b9250817fffffffffffffffffffffffffffffffffffffffffffffffffffffffffffffffff0483118215151615620006685762000667620005e3565b5b828202905092915050565b600062000680826200047a565b91506200068d836200047a565b9250827fffffffffffffffffffffffffffffffffffffffffffffffffffffffffffffffff03821115620006c557620006c4620005e3565b5b828201905092915050565b615aad80620006e06000396000f3fe60806040526004361061023e5760003560e01c806370475ff11161012e578063aa90a501116100ab578063d547741f1161006f578063d547741f146107a4578063d8e260f1146107cd578063dc03b33a146107f8578063ef8b6cd814610823578063fc0e3d901461083f57610245565b8063aa90a501146106f0578063ab54d50a146106fa578063bb29c5fa14610725578063bce73b4514610750578063be9a65551461078d57610245565b80639160a25b116100f25780639160a25b1461063157806391d14854146106485780639a14679b146106855780639b87f49e1461069c578063a217fddf146106c557610245565b806370475ff1146105705780637bc74225146105995780637d1fcbfa146105c457806381fb7176146105ef5780638a5c04ee1461060657610245565b80632f2ff15d116101bc578063448b54d611610180578063448b54d6146104be57806357f25c7f146104e75780635a23248d146105125780635a627dbc1461053d57806361685e961461054757610245565b80632f2ff15d146103ff57806333ec558c1461042857806336568abe146104535780633d18b9121461047c57806341230c43146104a757610245565b806312065fe01161020357806312065fe01461031a57806319fdf94a146103455780631d52ecaf1461036e578063248a9ca31461039957806325a39da5146103d657610245565b806264010d1461024757806301ffc9a71461025e5780630c5cb5721461029b57806310329972146102c457806311b5e486146102ef57610245565b3661024557005b005b34801561025357600080fd5b5061025c61086a565b005b34801561026a57600080fd5b506102856004803603810190610280919061438f565b610955565b60405161029291906143d7565b60405180910390f35b3480156102a757600080fd5b506102c260048036038101906102bd9190614450565b6109cf565b005b3480156102d057600080fd5b506102d9610c73565b6040516102e691906144f9565b60405180910390f35b3480156102fb57600080fd5b50610304610cf7565b6040516103119190614523565b60405180910390f35b34801561032657600080fd5b5061032f610d01565b60405161033c9190614523565b60405180910390f35b34801561035157600080fd5b5061036c60048036038101906103679190614450565b610d09565b005b34801561037a57600080fd5b50610383610e50565b6040516103909190614523565b60405180910390f35b3480156103a557600080fd5b506103c060048036038101906103bb9190614574565b610ef6565b6040516103cd91906145b0565b60405180910390f35b3480156103e257600080fd5b506103fd60048036038101906103f891906145cb565b610f15565b005b34801561040b57600080fd5b5061042660048036038101906104219190614637565b611087565b005b34801561043457600080fd5b5061043d6110b0565b60405161044a9190614523565b60405180910390f35b34801561045f57600080fd5b5061047a60048036038101906104759190614637565b611131565b005b34801561048857600080fd5b506104916111b4565b60405161049e9190614523565b60405180910390f35b3480156104b357600080fd5b506104bc6111fb565b005b3480156104ca57600080fd5b506104e560048036038101906104e09190614574565b611562565b005b3480156104f357600080fd5b506104fc611781565b6040516105099190614523565b60405180910390f35b34801561051e57600080fd5b506105276117c8565b6040516105349190614523565b60405180910390f35b6105456117d2565b005b34801561055357600080fd5b5061056e600480360381019061056991906146a3565b611a5b565b005b34801561057c57600080fd5b50610597600480360381019061059291906146d0565b611d1e565b005b3480156105a557600080fd5b506105ae6121f1565b6040516105bb9190614523565b60405180910390f35b3480156105d057600080fd5b506105d96121fb565b6040516105e69190614523565b60405180910390f35b3480156105fb57600080fd5b50610604612205565b005b34801561061257600080fd5b5061061b61264f565b6040516106289190614523565b60405180910390f35b34801561063d57600080fd5b50610646612659565b005b34801561065457600080fd5b5061066f600480360381019061066a9190614637565b612879565b60405161067c91906143d7565b60405180910390f35b34801561069157600080fd5b5061069a6128e3565b005b3480156106a857600080fd5b506106c360048036038101906106be9190614786565b612cc7565b005b3480156106d157600080fd5b506106da6130a7565b6040516106e791906145b0565b60405180910390f35b6106f86130ae565b005b34801561070657600080fd5b5061070f6132f3565b60405161071c919061482e565b60405180910390f35b34801561073157600080fd5b5061073a613349565b6040516107479190614523565b60405180910390f35b34801561075c57600080fd5b50610777600480360381019061077291906146a3565b613353565b6040516107849190614858565b60405180910390f35b34801561079957600080fd5b506107a2613390565b005b3480156107b057600080fd5b506107cb60048036038101906107c69190614637565b6135c9565b005b3480156107d957600080fd5b506107e26135f2565b6040516107ef9190614523565b60405180910390f35b34801561080457600080fd5b5061080d6135fc565b60405161081a9190614523565b60405180910390f35b61083d60048036038101906108389190614574565b61364e565b005b34801561084b57600080fd5b5061085461381f565b6040516108619190614523565b60405180910390f35b601960149054906101000a900460ff166108b9576040517f08c379a00000000000000000000000000000000000000000000000000000000081526004016108b0906148d0565b60405180910390fd5b600760030154601754476108cd919061491f565b101561090e576040517f08c379a00000000000000000000000000000000000000000000000000000000081526004016109059061499f565b60405180910390fd5b60006109256017544761389290919063ffffffff16565b9050476017819055506109438160165461387c90919063ffffffff16565b601681905550610952816138a8565b50565b60007f7965db0b000000000000000000000000000000000000000000000000000000007bffffffffffffffffffffffffffffffffffffffffffffffffffffffff1916827bffffffffffffffffffffffffffffffffffffffffffffffffffffffff191614806109c857506109c782613ca1565b5b9050919050565b6001546109e3816109de613d0b565b613d13565b600073ffffffffffffffffffffffffffffffffffffffff168273ffffffffffffffffffffffffffffffffffffffff161415610a53576040517f08c379a0000000000000000000000000000000000000000000000000000000008152600401610a4a90614a0b565b60405180910390fd5b6000600660003373ffffffffffffffffffffffffffffffffffffffff1673ffffffffffffffffffffffffffffffffffffffff1681526020019081526020016000205411610ad5576040517f08c379a0000000000000000000000000000000000000000000000000000000008152600401610acc90614a77565b60405180910390fd5b476017541115610b1a576040517f08c379a0000000000000000000000000000000000000000000000000000000008152600401610b1190614ae3565b60405180910390fd5b6000600660003373ffffffffffffffffffffffffffffffffffffffff1673ffffffffffffffffffffffffffffffffffffffff168152602001908152602001600020549050600081601754610b6e919061491f565b1015610baf576040517f08c379a0000000000000000000000000000000000000000000000000000000008152600401610ba690614b4f565b60405180910390fd5b610bc48160175461389290919063ffffffff16565b6017819055506000600660003373ffffffffffffffffffffffffffffffffffffffff1673ffffffffffffffffffffffffffffffffffffffff168152602001908152602001600020819055506000600560003373ffffffffffffffffffffffffffffffffffffffff1673ffffffffffffffffffffffffffffffffffffffff168152602001908152602001600020541415610c6457610c6360015433613db0565b5b610c6e8382613e91565b505050565b610c7b6142c5565b600d604051806060016040529081600082015481526020016001820160009054906101000a900473ffffffffffffffffffffffffffffffffffffffff1673ffffffffffffffffffffffffffffffffffffffff1673ffffffffffffffffffffffffffffffffffffffff168152602001600282015481525050905090565b6000601854905090565b600047905090565b601960009054906101000a900473ffffffffffffffffffffffffffffffffffffffff1673ffffffffffffffffffffffffffffffffffffffff163373ffffffffffffffffffffffffffffffffffffffff1614610d99576040517f08c379a0000000000000000000000000000000000000000000000000000000008152600401610d9090614bbb565b60405180910390fd5b601960149054906101000a900460ff1615610de9576040517f08c379a0000000000000000000000000000000000000000000000000000000008152600401610de090614c27565b60405180910390fd5b60076005015460175447610dfd919061491f565b1015610e3e576040517f08c379a0000000000000000000000000000000000000000000000000000000008152600401610e3590614c93565b60405180910390fd5b610e4d81600760050154613e91565b50565b600080600454111580610e64575060105442105b15610e725760009050610ef3565b6000610e9e62015180610e906010544261389290919063ffffffff16565b613f8590919063ffffffff16565b905060008111610eb2576000915050610ef3565b610eef81610ee1600454610ed3618e9460165461386690919063ffffffff16565b613f8590919063ffffffff16565b613f8590919063ffffffff16565b9150505b90565b6000806000838152602001908152602001600020600101549050919050565b601960009054906101000a900473ffffffffffffffffffffffffffffffffffffffff1673ffffffffffffffffffffffffffffffffffffffff163373ffffffffffffffffffffffffffffffffffffffff1614610fa5576040517f08c379a0000000000000000000000000000000000000000000000000000000008152600401610f9c90614bbb565b60405180910390fd5b601960149054906101000a900460ff16610ff4576040517f08c379a0000000000000000000000000000000000000000000000000000000008152600401610feb906148d0565b60405180910390fd5b600360009054906101000a900473ffffffffffffffffffffffffffffffffffffffff1673ffffffffffffffffffffffffffffffffffffffff1663d9cef87983836040518363ffffffff1660e01b8152600401611051929190614cb3565b600060405180830381600087803b15801561106b57600080fd5b505af115801561107f573d6000803e3d6000fd5b505050505050565b61109082610ef6565b6110a18161109c613d0b565b613d13565b6110ab8383613f9b565b505050565b600080600454116110c4576000905061112e565b61112b60045461111d6064600560003373ffffffffffffffffffffffffffffffffffffffff1673ffffffffffffffffffffffffffffffffffffffff1681526020019081526020016000205461386690919063ffffffff16565b613f8590919063ffffffff16565b90505b90565b611139613d0b565b73ffffffffffffffffffffffffffffffffffffffff168173ffffffffffffffffffffffffffffffffffffffff16146111a6576040517f08c379a000000000000000000000000000000000000000000000000000000000815260040161119d90614d4e565b60405180910390fd5b6111b08282613db0565b5050565b6000601560003373ffffffffffffffffffffffffffffffffffffffff1673ffffffffffffffffffffffffffffffffffffffff16815260200190815260200160002054905090565b601160009054906101000a900460ff161561124b576040517f08c379a000000000000000000000000000000000000000000000000000000000815260040161124290614dba565b60405180910390fd5b600060185414611290576040517f08c379a000000000000000000000000000000000000000000000000000000000815260040161128790614e26565b60405180910390fd5b6001601254116112d5576040517f08c379a00000000000000000000000000000000000000000000000000000000081526004016112cc90614e92565b60405180910390fd5b60105442101580156112e957506000601054115b611328576040517f08c379a000000000000000000000000000000000000000000000000000000000815260040161131f90614efe565b60405180910390fd5b60076001015460045410611371576040517f08c379a000000000000000000000000000000000000000000000000000000000815260040161136890614f6a565b60405180910390fd5b6000600190505b6012548110156115305760006014600083815260200190815260200160002060009054906101000a900473ffffffffffffffffffffffffffffffffffffffff1690506000600560008373ffffffffffffffffffffffffffffffffffffffff1673ffffffffffffffffffffffffffffffffffffffff16815260200190815260200160002054111561151c57611493600560008373ffffffffffffffffffffffffffffffffffffffff1673ffffffffffffffffffffffffffffffffffffffff16815260200190815260200160002054600660008473ffffffffffffffffffffffffffffffffffffffff1673ffffffffffffffffffffffffffffffffffffffff1681526020019081526020016000205461387c90919063ffffffff16565b600660008373ffffffffffffffffffffffffffffffffffffffff1673ffffffffffffffffffffffffffffffffffffffff168152602001908152602001600020819055506000600560008373ffffffffffffffffffffffffffffffffffffffff1673ffffffffffffffffffffffffffffffffffffffff168152602001908152602001600020819055505b50808061152890614f8a565b915050611378565b504760178190555060016012819055506000601681905550600060138190555060006010819055506000600481905550565b601960009054906101000a900473ffffffffffffffffffffffffffffffffffffffff1673ffffffffffffffffffffffffffffffffffffffff163373ffffffffffffffffffffffffffffffffffffffff16146115f2576040517f08c379a00000000000000000000000000000000000000000000000000000000081526004016115e990614bbb565b60405180910390fd5b601960149054906101000a900460ff16611641576040517f08c379a0000000000000000000000000000000000000000000000000000000008152600401611638906148d0565b60405180910390fd5b601160009054906101000a900460ff1615611691576040517f08c379a000000000000000000000000000000000000000000000000000000000815260040161168890614dba565b60405180910390fd5b6000601854146116d6576040517f08c379a00000000000000000000000000000000000000000000000000000000081526004016116cd90614e26565b60405180910390fd5b600360009054906101000a900473ffffffffffffffffffffffffffffffffffffffff1673ffffffffffffffffffffffffffffffffffffffff16637354c91d826040518263ffffffff1660e01b815260040161173191906145b0565b600060405180830381600087803b15801561174b57600080fd5b505af115801561175f573d6000803e3d6000fd5b505050506000601960146101000a81548160ff02191690831515021790555050565b6000600660003373ffffffffffffffffffffffffffffffffffffffff1673ffffffffffffffffffffffffffffffffffffffff16815260200190815260200160002054905090565b6000601754905090565b6014600080815260200190815260200160002060009054906101000a900473ffffffffffffffffffffffffffffffffffffffff1673ffffffffffffffffffffffffffffffffffffffff163373ffffffffffffffffffffffffffffffffffffffff161415611874576040517f08c379a000000000000000000000000000000000000000000000000000000000815260040161186b9061501f565b60405180910390fd5b60105442106118b8576040517f08c379a00000000000000000000000000000000000000000000000000000000081526004016118af9061508b565b60405180910390fd5b600760020154341015611900576040517f08c379a00000000000000000000000000000000000000000000000000000000081526004016118f7906150f7565b60405180910390fd5b61190c60015433612879565b6119a9573360146000601254815260200190815260200160002060006101000a81548173ffffffffffffffffffffffffffffffffffffffff021916908373ffffffffffffffffffffffffffffffffffffffff16021790555061197a600160125461387c90919063ffffffff16565b601281905550611996600160135461387c90919063ffffffff16565b6013819055506119a86001543361407b565b5b6119fb34600560003373ffffffffffffffffffffffffffffffffffffffff1673ffffffffffffffffffffffffffffffffffffffff1681526020019081526020016000205461387c90919063ffffffff16565b600560003373ffffffffffffffffffffffffffffffffffffffff1673ffffffffffffffffffffffffffffffffffffffff16815260200190815260200160002081905550611a533460045461387c90919063ffffffff16565b600481905550565b600154611a6f81611a6a613d0b565b613d13565b601160009054906101000a900460ff16611abe576040517f08c379a0000000000000000000000000000000000000000000000000000000008152600401611ab590614efe565b60405180910390fd5b600082118015611b0d5750600560003373ffffffffffffffffffffffffffffffffffffffff1673ffffffffffffffffffffffffffffffffffffffff168152602001908152602001600020548211155b611b4c576040517f08c379a0000000000000000000000000000000000000000000000000000000008152600401611b4390615163565b60405180910390fd5b60076001015482600454611b60919061491f565b1015611ba1576040517f08c379a0000000000000000000000000000000000000000000000000000000008152600401611b98906151cf565b60405180910390fd5b600073ffffffffffffffffffffffffffffffffffffffff16600d60010160009054906101000a900473ffffffffffffffffffffffffffffffffffffffff1673ffffffffffffffffffffffffffffffffffffffff1614611c35576040517f08c379a0000000000000000000000000000000000000000000000000000000008152600401611c2c9061523b565b60405180910390fd5b81600d6000018190555033600d60010160006101000a81548173ffffffffffffffffffffffffffffffffffffffff021916908373ffffffffffffffffffffffffffffffffffffffff16021790555042600d60020181905550600260009054906101000a900473ffffffffffffffffffffffffffffffffffffffff1673ffffffffffffffffffffffffffffffffffffffff1663034c47bc836040518263ffffffff1660e01b8152600401611ce89190614523565b600060405180830381600087803b158015611d0257600080fd5b505af1158015611d16573d6000803e3d6000fd5b505050505050565b601960009054906101000a900473ffffffffffffffffffffffffffffffffffffffff1673ffffffffffffffffffffffffffffffffffffffff163373ffffffffffffffffffffffffffffffffffffffff1614611dae576040517f08c379a0000000000000000000000000000000000000000000000000000000008152600401611da590614bbb565b60405180910390fd5b601160009054906101000a900460ff1615611dfe576040517f08c379a0000000000000000000000000000000000000000000000000000000008152600401611df590614dba565b60405180910390fd5b6014881015611e42576040517f08c379a0000000000000000000000000000000000000000000000000000000008152600401611e39906152a7565b60405180910390fd5b8273ffffffffffffffffffffffffffffffffffffffff166014600080815260200190815260200160002060009054906101000a900473ffffffffffffffffffffffffffffffffffffffff1673ffffffffffffffffffffffffffffffffffffffff161461213c57611eb460015484612879565b15611ef4576040517f08c379a0000000000000000000000000000000000000000000000000000000008152600401611eeb90615313565b60405180910390fd5b6000600660006014600080815260200190815260200160002060009054906101000a900473ffffffffffffffffffffffffffffffffffffffff1673ffffffffffffffffffffffffffffffffffffffff1673ffffffffffffffffffffffffffffffffffffffff16815260200190815260200160002054111561209e57600660006014600080815260200190815260200160002060009054906101000a900473ffffffffffffffffffffffffffffffffffffffff1673ffffffffffffffffffffffffffffffffffffffff1673ffffffffffffffffffffffffffffffffffffffff16815260200190815260200160002054600660008573ffffffffffffffffffffffffffffffffffffffff1673ffffffffffffffffffffffffffffffffffffffff168152602001908152602001600020819055506000600660006014600080815260200190815260200160002060009054906101000a900473ffffffffffffffffffffffffffffffffffffffff1673ffffffffffffffffffffffffffffffffffffffff1673ffffffffffffffffffffffffffffffffffffffff168152602001908152602001600020819055505b6120dd6001546014600080815260200190815260200160002060009054906101000a900473ffffffffffffffffffffffffffffffffffffffff16613db0565b826014600080815260200190815260200160002060006101000a81548173ffffffffffffffffffffffffffffffffffffffff021916908373ffffffffffffffffffffffffffffffffffffffff16021790555061213b6001548461407b565b5b87600760000181905550612161670de0b6b3a76400008861386690919063ffffffff16565b600760010181905550612185670de0b6b3a76400008761386690919063ffffffff16565b6007600201819055506121a9670de0b6b3a76400008561386690919063ffffffff16565b60076003018190555084601081905550816007600401819055506121de670de0b6b3a76400008261386690919063ffffffff16565b6007600501819055505050505050505050565b6000600454905090565b6000601654905090565b60006018541180156122285750426007600401546018546122269190615333565b105b612267576040517f08c379a000000000000000000000000000000000000000000000000000000000815260040161225e906153d5565b60405180910390fd5b600260009054906101000a900473ffffffffffffffffffffffffffffffffffffffff1673ffffffffffffffffffffffffffffffffffffffff16633fdc4c3030600260009054906101000a900473ffffffffffffffffffffffffffffffffffffffff1673ffffffffffffffffffffffffffffffffffffffff1663815b796c306040518263ffffffff1660e01b81526004016123019190614858565b602060405180830381865afa15801561231e573d6000803e3d6000fd5b505050506040513d601f19601f82011682018060405250810190612342919061540a565b6040518363ffffffff1660e01b815260040161235f929190615437565b600060405180830381600087803b15801561237957600080fd5b505af115801561238d573d6000803e3d6000fd5b5050505060006018819055506000600d600001819055506000600d60010160006101000a81548173ffffffffffffffffffffffffffffffffffffffff021916908373ffffffffffffffffffffffffffffffffffffffff1602179055506000600d6002018190555060045460175447612405919061491f565b111561245e5760006124366004546124286017544761389290919063ffffffff16565b61389290919063ffffffff16565b905061244d8160165461387c90919063ffffffff16565b60168190555061245c816138a8565b505b476017819055506000600190505b6012548110156126245760006014600083815260200190815260200160002060009054906101000a900473ffffffffffffffffffffffffffffffffffffffff1690506000600560008373ffffffffffffffffffffffffffffffffffffffff1673ffffffffffffffffffffffffffffffffffffffff16815260200190815260200160002054111561261057612587600560008373ffffffffffffffffffffffffffffffffffffffff1673ffffffffffffffffffffffffffffffffffffffff16815260200190815260200160002054600660008473ffffffffffffffffffffffffffffffffffffffff1673ffffffffffffffffffffffffffffffffffffffff1681526020019081526020016000205461387c90919063ffffffff16565b600660008373ffffffffffffffffffffffffffffffffffffffff1673ffffffffffffffffffffffffffffffffffffffff168152602001908152602001600020819055506000600560008373ffffffffffffffffffffffffffffffffffffffff1673ffffffffffffffffffffffffffffffffffffffff168152602001908152602001600020819055505b50808061261c90614f8a565b91505061246c565b5060016012819055506000601681905550600060138190555060006010819055506000600481905550565b6000601054905090565b601960009054906101000a900473ffffffffffffffffffffffffffffffffffffffff1673ffffffffffffffffffffffffffffffffffffffff163373ffffffffffffffffffffffffffffffffffffffff16146126e9576040517f08c379a00000000000000000000000000000000000000000000000000000000081526004016126e090614bbb565b60405180910390fd5b601160009054906101000a900460ff16612738576040517f08c379a000000000000000000000000000000000000000000000000000000000815260040161272f90614efe565b60405180910390fd5b6000601160006101000a81548160ff02191690831515021790555042601881905550600260009054906101000a900473ffffffffffffffffffffffffffffffffffffffff1673ffffffffffffffffffffffffffffffffffffffff166360afbac6600260009054906101000a900473ffffffffffffffffffffffffffffffffffffffff1673ffffffffffffffffffffffffffffffffffffffff16634b1c4c296040518163ffffffff1660e01b8152600401602060405180830381865afa158015612805573d6000803e3d6000fd5b505050506040513d601f19601f82011682018060405250810190612829919061540a565b6040518263ffffffff1660e01b81526004016128459190614523565b600060405180830381600087803b15801561285f57600080fd5b505af1158015612873573d6000803e3d6000fd5b50505050565b600080600084815260200190815260200160002060000160008373ffffffffffffffffffffffffffffffffffffffff1673ffffffffffffffffffffffffffffffffffffffff16815260200190815260200160002060009054906101000a900460ff16905092915050565b6000600d6002015411801561290c575042600760040154600d6002015461290a9190615333565b105b61294b576040517f08c379a0000000000000000000000000000000000000000000000000000000008152600401612942906154ac565b60405180910390fd5b600260009054906101000a900473ffffffffffffffffffffffffffffffffffffffff1673ffffffffffffffffffffffffffffffffffffffff1663a9a2b8b7306040518263ffffffff1660e01b81526004016129a69190614858565b600060405180830381600087803b1580156129c057600080fd5b505af11580156129d4573d6000803e3d6000fd5b505050506129f2600d6000015460175461387c90919063ffffffff16565b601781905550612a74600d6000015460056000600d60010160009054906101000a900473ffffffffffffffffffffffffffffffffffffffff1673ffffffffffffffffffffffffffffffffffffffff1673ffffffffffffffffffffffffffffffffffffffff1681526020019081526020016000205461389290919063ffffffff16565b60056000600d60010160009054906101000a900473ffffffffffffffffffffffffffffffffffffffff1673ffffffffffffffffffffffffffffffffffffffff1673ffffffffffffffffffffffffffffffffffffffff16815260200190815260200160002081905550600060056000600d60010160009054906101000a900473ffffffffffffffffffffffffffffffffffffffff1673ffffffffffffffffffffffffffffffffffffffff1673ffffffffffffffffffffffffffffffffffffffff168152602001908152602001600020541415612b6657612b5f600160135461389290919063ffffffff16565b6013819055505b612be2600d6000015460066000600d60010160009054906101000a900473ffffffffffffffffffffffffffffffffffffffff1673ffffffffffffffffffffffffffffffffffffffff1673ffffffffffffffffffffffffffffffffffffffff1681526020019081526020016000205461387c90919063ffffffff16565b60066000600d60010160009054906101000a900473ffffffffffffffffffffffffffffffffffffffff1673ffffffffffffffffffffffffffffffffffffffff1673ffffffffffffffffffffffffffffffffffffffff16815260200190815260200160002081905550612c64600d6000015460045461389290919063ffffffff16565b6004819055506000600d600001819055506000600d60010160006101000a81548173ffffffffffffffffffffffffffffffffffffffff021916908373ffffffffffffffffffffffffffffffffffffffff1602179055506000600d60020181905550565b600154612cdb81612cd6613d0b565b613d13565b6014600080815260200190815260200160002060009054906101000a900473ffffffffffffffffffffffffffffffffffffffff1673ffffffffffffffffffffffffffffffffffffffff168273ffffffffffffffffffffffffffffffffffffffff1614158015612d7657508173ffffffffffffffffffffffffffffffffffffffff163373ffffffffffffffffffffffffffffffffffffffff1614155b8015612daf5750600073ffffffffffffffffffffffffffffffffffffffff168273ffffffffffffffffffffffffffffffffffffffff1614155b612dee576040517f08c379a0000000000000000000000000000000000000000000000000000000008152600401612de590614a0b565b60405180910390fd5b6000600560003373ffffffffffffffffffffffffffffffffffffffff1673ffffffffffffffffffffffffffffffffffffffff1681526020019081526020016000205411612e70576040517f08c379a0000000000000000000000000000000000000000000000000000000008152600401612e6790615518565b60405180910390fd5b612e7c60015483612879565b612f19578160146000601254815260200190815260200160002060006101000a81548173ffffffffffffffffffffffffffffffffffffffff021916908373ffffffffffffffffffffffffffffffffffffffff160217905550612eea600160125461387c90919063ffffffff16565b601281905550612f06600160135461387c90919063ffffffff16565b601381905550612f186001548361407b565b5b612faa600560003373ffffffffffffffffffffffffffffffffffffffff1673ffffffffffffffffffffffffffffffffffffffff16815260200190815260200160002054600560008573ffffffffffffffffffffffffffffffffffffffff1673ffffffffffffffffffffffffffffffffffffffff1681526020019081526020016000205461387c90919063ffffffff16565b600560008473ffffffffffffffffffffffffffffffffffffffff1673ffffffffffffffffffffffffffffffffffffffff168152602001908152602001600020819055506000600560003373ffffffffffffffffffffffffffffffffffffffff1673ffffffffffffffffffffffffffffffffffffffff16815260200190815260200160002081905550613048600160135461389290919063ffffffff16565b6013819055506000600660003373ffffffffffffffffffffffffffffffffffffffff1673ffffffffffffffffffffffffffffffffffffffff1681526020019081526020016000205414156130a3576130a260015433613db0565b5b5050565b6000801b81565b6001546130c2816130bd613d0b565b613d13565b6014600080815260200190815260200160002060009054906101000a900473ffffffffffffffffffffffffffffffffffffffff1673ffffffffffffffffffffffffffffffffffffffff163373ffffffffffffffffffffffffffffffffffffffff161415613164576040517f08c379a000000000000000000000000000000000000000000000000000000000815260040161315b9061501f565b60405180910390fd5b601160009054906101000a900460ff166131b3576040517f08c379a00000000000000000000000000000000000000000000000000000000081526004016131aa90614efe565b60405180910390fd5b61320534600560003373ffffffffffffffffffffffffffffffffffffffff1673ffffffffffffffffffffffffffffffffffffffff1681526020019081526020016000205461387c90919063ffffffff16565b600560003373ffffffffffffffffffffffffffffffffffffffff1673ffffffffffffffffffffffffffffffffffffffff1681526020019081526020016000208190555061325d3460045461387c90919063ffffffff16565b600481905550600260009054906101000a900473ffffffffffffffffffffffffffffffffffffffff1673ffffffffffffffffffffffffffffffffffffffff1663c57bd3a8346040518263ffffffff1660e01b81526004016132be9190614523565b600060405180830381600087803b1580156132d857600080fd5b505af11580156132ec573d6000803e3d6000fd5b5050505050565b6132fb6142fc565b60076040518060c00160405290816000820154815260200160018201548152602001600282015481526020016003820154815260200160048201548152602001600582015481525050905090565b6000601354905090565b60006014600083815260200190815260200160002060009054906101000a900473ffffffffffffffffffffffffffffffffffffffff169050919050565b601160009054906101000a900460ff16156133e0576040517f08c379a00000000000000000000000000000000000000000000000000000000081526004016133d790614dba565b60405180910390fd5b60105442101580156133f457506000601054115b613433576040517f08c379a000000000000000000000000000000000000000000000000000000000815260040161342a90614efe565b60405180910390fd5b600454471015801561344c575060076001015460045410155b61348b576040517f08c379a000000000000000000000000000000000000000000000000000000000815260040161348290614f6a565b60405180910390fd5b600260009054906101000a900473ffffffffffffffffffffffffffffffffffffffff1673ffffffffffffffffffffffffffffffffffffffff16630a1bff60600454600260009054906101000a900473ffffffffffffffffffffffffffffffffffffffff1673ffffffffffffffffffffffffffffffffffffffff16634b1c4c296040518163ffffffff1660e01b8152600401602060405180830381865afa158015613539573d6000803e3d6000fd5b505050506040513d601f19601f8201168201806040525081019061355d919061540a565b6040518363ffffffff1660e01b815260040161357a929190615538565b600060405180830381600087803b15801561359457600080fd5b505af11580156135a8573d6000803e3d6000fd5b505050506001601160006101000a81548160ff021916908315150217905550565b6135d282610ef6565b6135e3816135de613d0b565b613d13565b6135ed8383613db0565b505050565b6000601254905090565b60008060009050601160009054906101000a900460ff16156136215760019050613647565b600060185411156136355760029050613646565b6000601054141561364557600390505b5b5b8091505090565b601960009054906101000a900473ffffffffffffffffffffffffffffffffffffffff1673ffffffffffffffffffffffffffffffffffffffff163373ffffffffffffffffffffffffffffffffffffffff16146136de576040517f08c379a00000000000000000000000000000000000000000000000000000000081526004016136d590614bbb565b60405180910390fd5b601160009054906101000a900460ff1661372d576040517f08c379a000000000000000000000000000000000000000000000000000000000815260040161372490614efe565b60405180910390fd5b6007600501543414613774576040517f08c379a000000000000000000000000000000000000000000000000000000000815260040161376b906155ad565b60405180910390fd5b600360009054906101000a900473ffffffffffffffffffffffffffffffffffffffff1673ffffffffffffffffffffffffffffffffffffffff1663aa5ac585826040518263ffffffff1660e01b81526004016137cf91906145b0565b600060405180830381600087803b1580156137e957600080fd5b505af11580156137fd573d6000803e3d6000fd5b505050506001601960146101000a81548160ff02191690831515021790555050565b6000600560003373ffffffffffffffffffffffffffffffffffffffff1673ffffffffffffffffffffffffffffffffffffffff16815260200190815260200160002054905090565b6000818361387491906155cd565b905092915050565b6000818361388a9190615333565b905092915050565b600081836138a0919061491f565b905092915050565b60006138e76138d860646138ca6007600001548661386690919063ffffffff16565b613f8590919063ffffffff16565b8361389290919063ffffffff16565b90506000600190505b601254811015613b395760006014600083815260200190815260200160002060009054906101000a900473ffffffffffffffffffffffffffffffffffffffff1690506000600560008373ffffffffffffffffffffffffffffffffffffffff1673ffffffffffffffffffffffffffffffffffffffff168152602001908152602001600020541115613b255760006139e26004546139d4600560008673ffffffffffffffffffffffffffffffffffffffff1673ffffffffffffffffffffffffffffffffffffffff168152602001908152602001600020548761386690919063ffffffff16565b613f8590919063ffffffff16565b9050613a3681600660008573ffffffffffffffffffffffffffffffffffffffff1673ffffffffffffffffffffffffffffffffffffffff1681526020019081526020016000205461387c90919063ffffffff16565b600660008473ffffffffffffffffffffffffffffffffffffffff1673ffffffffffffffffffffffffffffffffffffffff16815260200190815260200160002081905550613acb81601560008573ffffffffffffffffffffffffffffffffffffffff1673ffffffffffffffffffffffffffffffffffffffff1681526020019081526020016000205461387c90919063ffffffff16565b601560008473ffffffffffffffffffffffffffffffffffffffff1673ffffffffffffffffffffffffffffffffffffffff16815260200190815260200160002081905550613b21818661389290919063ffffffff16565b9450505b508080613b3190614f8a565b9150506138f0565b5060006014600080815260200190815260200160002060009054906101000a900473ffffffffffffffffffffffffffffffffffffffff169050613bc483600660008473ffffffffffffffffffffffffffffffffffffffff1673ffffffffffffffffffffffffffffffffffffffff1681526020019081526020016000205461387c90919063ffffffff16565b600660008373ffffffffffffffffffffffffffffffffffffffff1673ffffffffffffffffffffffffffffffffffffffff16815260200190815260200160002081905550613c5983601560008473ffffffffffffffffffffffffffffffffffffffff1673ffffffffffffffffffffffffffffffffffffffff1681526020019081526020016000205461387c90919063ffffffff16565b601560008373ffffffffffffffffffffffffffffffffffffffff1673ffffffffffffffffffffffffffffffffffffffff16815260200190815260200160002081905550505050565b60007f01ffc9a7000000000000000000000000000000000000000000000000000000007bffffffffffffffffffffffffffffffffffffffffffffffffffffffff1916827bffffffffffffffffffffffffffffffffffffffffffffffffffffffff1916149050919050565b600033905090565b613d1d8282612879565b613dac57613d428173ffffffffffffffffffffffffffffffffffffffff166014614089565b613d508360001c6020614089565b604051602001613d61929190615739565b6040516020818303038152906040526040517f08c379a0000000000000000000000000000000000000000000000000000000008152600401613da391906157bd565b60405180910390fd5b5050565b613dba8282612879565b15613e8d57600080600084815260200190815260200160002060000160008373ffffffffffffffffffffffffffffffffffffffff1673ffffffffffffffffffffffffffffffffffffffff16815260200190815260200160002060006101000a81548160ff021916908315150217905550613e32613d0b565b73ffffffffffffffffffffffffffffffffffffffff168173ffffffffffffffffffffffffffffffffffffffff16837ff6391f5c32d9c69d2a47ea670b442974b53935d1edc7fd64eb21e047a839171b60405160405180910390a45b5050565b80471015613ed4576040517f08c379a0000000000000000000000000000000000000000000000000000000008152600401613ecb9061582b565b60405180910390fd5b60008273ffffffffffffffffffffffffffffffffffffffff1682604051613efa9061587c565b60006040518083038185875af1925050503d8060008114613f37576040519150601f19603f3d011682016040523d82523d6000602084013e613f3c565b606091505b5050905080613f80576040517f08c379a0000000000000000000000000000000000000000000000000000000008152600401613f7790615903565b60405180910390fd5b505050565b60008183613f939190615952565b905092915050565b613fa58282612879565b61407757600160008084815260200190815260200160002060000160008373ffffffffffffffffffffffffffffffffffffffff1673ffffffffffffffffffffffffffffffffffffffff16815260200190815260200160002060006101000a81548160ff02191690831515021790555061401c613d0b565b73ffffffffffffffffffffffffffffffffffffffff168173ffffffffffffffffffffffffffffffffffffffff16837f2f8788117e7eff1d82e926ec794901d17c78024a50270940304540a733656f0d60405160405180910390a45b5050565b6140858282613f9b565b5050565b60606000600283600261409c91906155cd565b6140a69190615333565b67ffffffffffffffff8111156140bf576140be615983565b5b6040519080825280601f01601f1916602001820160405280156140f15781602001600182028036833780820191505090505b5090507f300000000000000000000000000000000000000000000000000000000000000081600081518110614129576141286159b2565b5b60200101907effffffffffffffffffffffffffffffffffffffffffffffffffffffffffffff1916908160001a9053507f78000000000000000000000000000000000000000000000000000000000000008160018151811061418d5761418c6159b2565b5b60200101907effffffffffffffffffffffffffffffffffffffffffffffffffffffffffffff1916908160001a905350600060018460026141cd91906155cd565b6141d79190615333565b90505b6001811115614277577f3031323334353637383961626364656600000000000000000000000000000000600f861660108110614219576142186159b2565b5b1a60f81b8282815181106142305761422f6159b2565b5b60200101907effffffffffffffffffffffffffffffffffffffffffffffffffffffffffffff1916908160001a905350600485901c945080614270906159e1565b90506141da565b50600084146142bb576040517f08c379a00000000000000000000000000000000000000000000000000000000081526004016142b290615a57565b60405180910390fd5b8091505092915050565b604051806060016040528060008152602001600073ffffffffffffffffffffffffffffffffffffffff168152602001600081525090565b6040518060c001604052806000815260200160008152602001600081526020016000815260200160008152602001600081525090565b600080fd5b60007fffffffff0000000000000000000000000000000000000000000000000000000082169050919050565b61436c81614337565b811461437757600080fd5b50565b60008135905061438981614363565b92915050565b6000602082840312156143a5576143a4614332565b5b60006143b38482850161437a565b91505092915050565b60008115159050919050565b6143d1816143bc565b82525050565b60006020820190506143ec60008301846143c8565b92915050565b600073ffffffffffffffffffffffffffffffffffffffff82169050919050565b600061441d826143f2565b9050919050565b61442d81614412565b811461443857600080fd5b50565b60008135905061444a81614424565b92915050565b60006020828403121561446657614465614332565b5b60006144748482850161443b565b91505092915050565b6000819050919050565b6144908161447d565b82525050565b60006144a1826143f2565b9050919050565b6144b181614496565b82525050565b6060820160008201516144cd6000850182614487565b5060208201516144e060208501826144a8565b5060408201516144f36040850182614487565b50505050565b600060608201905061450e60008301846144b7565b92915050565b61451d8161447d565b82525050565b60006020820190506145386000830184614514565b92915050565b6000819050919050565b6145518161453e565b811461455c57600080fd5b50565b60008135905061456e81614548565b92915050565b60006020828403121561458a57614589614332565b5b60006145988482850161455f565b91505092915050565b6145aa8161453e565b82525050565b60006020820190506145c560008301846145a1565b92915050565b600080604083850312156145e2576145e1614332565b5b60006145f08582860161455f565b92505060206146018582860161455f565b9150509250929050565b61461481614496565b811461461f57600080fd5b50565b6000813590506146318161460b565b92915050565b6000806040838503121561464e5761464d614332565b5b600061465c8582860161455f565b925050602061466d85828601614622565b9150509250929050565b6146808161447d565b811461468b57600080fd5b50565b60008135905061469d81614677565b92915050565b6000602082840312156146b9576146b8614332565b5b60006146c78482850161468e565b91505092915050565b600080600080600080600080610100898b0312156146f1576146f0614332565b5b60006146ff8b828c0161468e565b98505060206147108b828c0161468e565b97505060406147218b828c0161468e565b96505060606147328b828c0161468e565b95505060806147438b828c0161468e565b94505060a06147548b828c01614622565b93505060c06147658b828c0161468e565b92505060e06147768b828c0161468e565b9150509295985092959890939650565b60006020828403121561479c5761479b614332565b5b60006147aa84828501614622565b91505092915050565b60c0820160008201516147c96000850182614487565b5060208201516147dc6020850182614487565b5060408201516147ef6040850182614487565b5060608201516148026060850182614487565b5060808201516148156080850182614487565b5060a082015161482860a0850182614487565b50505050565b600060c08201905061484360008301846147b3565b92915050565b61485281614496565b82525050565b600060208201905061486d6000830184614849565b92915050565b600082825260208201905092915050565b7f4173736f63696174696f6e206e6f742062696e64656421000000000000000000600082015250565b60006148ba601783614873565b91506148c582614884565b602082019050919050565b600060208201905081810360008301526148e9816148ad565b9050919050565b7f4e487b7100000000000000000000000000000000000000000000000000000000600052601160045260246000fd5b600061492a8261447d565b91506149358361447d565b925082821015614948576149476148f0565b5b828203905092915050565b7f42616c616e6365206e6f7420656e6f7567682100000000000000000000000000600082015250565b6000614989601383614873565b915061499482614953565b602082019050919050565b600060208201905081810360008301526149b88161497c565b9050919050565b7f4163636f756e7420697320696c6c6567616c2100000000000000000000000000600082015250565b60006149f5601383614873565b9150614a00826149bf565b602082019050919050565b60006020820190508181036000830152614a24816149e8565b9050919050565b7f4d656d62657252656465656d7320697320696c6c6567616c2100000000000000600082015250565b6000614a61601983614873565b9150614a6c82614a2b565b602082019050919050565b60006020820190508181036000830152614a9081614a54565b9050919050565b7f50656e64696e6752657761726420697320696c6c6567616c2100000000000000600082015250565b6000614acd601983614873565b9150614ad882614a97565b602082019050919050565b60006020820190508181036000830152614afc81614ac0565b9050919050565b7f50656e64696e67526577617264206e6f7420656e6f7567682100000000000000600082015250565b6000614b39601983614873565b9150614b4482614b03565b602082019050919050565b60006020820190508181036000830152614b6881614b2c565b9050919050565b7f4e6f74206d616e6167656d656e74210000000000000000000000000000000000600082015250565b6000614ba5600f83614873565b9150614bb082614b6f565b602082019050919050565b60006020820190508181036000830152614bd481614b98565b9050919050565b7f4173736f63696174696f6e2062696e6465642100000000000000000000000000600082015250565b6000614c11601383614873565b9150614c1c82614bdb565b602082019050919050565b60006020820190508181036000830152614c4081614c04565b9050919050565b7f62616c616e6365206e6f7420656e6f7567682100000000000000000000000000600082015250565b6000614c7d601383614873565b9150614c8882614c47565b602082019050919050565b60006020820190508181036000830152614cac81614c70565b9050919050565b6000604082019050614cc860008301856145a1565b614cd560208301846145a1565b9392505050565b7f416363657373436f6e74726f6c3a2063616e206f6e6c792072656e6f756e636560008201527f20726f6c657320666f722073656c660000000000000000000000000000000000602082015250565b6000614d38602f83614873565b9150614d4382614cdc565b604082019050919050565b60006020820190508181036000830152614d6781614d2b565b9050919050565b7f4e6f646520737461727465642100000000000000000000000000000000000000600082015250565b6000614da4600d83614873565b9150614daf82614d6e565b602082019050919050565b60006020820190508181036000830152614dd381614d97565b9050919050565b7f4e6f64652064697362616e64696e672100000000000000000000000000000000600082015250565b6000614e10601083614873565b9150614e1b82614dda565b602082019050919050565b60006020820190508181036000830152614e3f81614e03565b9050919050565b7f6d656d626572546f74616c20697320696c6c6567616c21000000000000000000600082015250565b6000614e7c601783614873565b9150614e8782614e46565b602082019050919050565b60006020820190508181036000830152614eab81614e6f565b9050919050565b7f4e6f6465206e6f74207374617274656421000000000000000000000000000000600082015250565b6000614ee8601183614873565b9150614ef382614eb2565b602082019050919050565b60006020820190508181036000830152614f1781614edb565b9050919050565b7f546f74616c5374616b6520697320696c6c6567616c2100000000000000000000600082015250565b6000614f54601683614873565b9150614f5f82614f1e565b602082019050919050565b60006020820190508181036000830152614f8381614f47565b9050919050565b6000614f958261447d565b91507fffffffffffffffffffffffffffffffffffffffffffffffffffffffffffffffff821415614fc857614fc76148f0565b5b600182019050919050565b7f5374616b65416464722069732074656368210000000000000000000000000000600082015250565b6000615009601283614873565b915061501482614fd3565b602082019050919050565b6000602082019050818103600083015261503881614ffc565b9050919050565b7f5374616b6554696d652069732065787069726564210000000000000000000000600082015250565b6000615075601583614873565b91506150808261503f565b602082019050919050565b600060208201905081810360008301526150a481615068565b9050919050565b7f4c657373207468616e20706572496e76657374446f776e4c696d697421000000600082015250565b60006150e1601d83614873565b91506150ec826150ab565b602082019050919050565b60006020820190508181036000830152615110816150d4565b9050919050565b7f416d6f756e7420697320696c6c6567616c210000000000000000000000000000600082015250565b600061514d601283614873565b915061515882615117565b602082019050919050565b6000602082019050818103600083015261517c81615140565b9050919050565b7f4c657373207468616e2066756e6473446f776e4c696d69742100000000000000600082015250565b60006151b9601983614873565b91506151c482615183565b602082019050919050565b600060208201905081810360008301526151e8816151ac565b9050919050565b7f5363686564756c696e6721000000000000000000000000000000000000000000600082015250565b6000615225600b83614873565b9150615230826151ef565b602082019050919050565b6000602082019050818103600083015261525481615218565b9050919050565b7f5f7465636850726f706f7274696f6e20697320696c6c6567616c210000000000600082015250565b6000615291601b83614873565b915061529c8261525b565b602082019050919050565b600060208201905081810360008301526152c081615284565b9050919050565b7f5465636852657761726441646472206973206e6f74204d656d62657221000000600082015250565b60006152fd601d83614873565b9150615308826152c7565b602082019050919050565b6000602082019050818103600083015261532c816152f0565b9050919050565b600061533e8261447d565b91506153498361447d565b9250827fffffffffffffffffffffffffffffffffffffffffffffffffffffffffffffffff0382111561537e5761537d6148f0565b5b828201905092915050565b7f4c6561766554696d65206973206e6f7420757021000000000000000000000000600082015250565b60006153bf601483614873565b91506153ca82615389565b602082019050919050565b600060208201905081810360008301526153ee816153b2565b9050919050565b60008151905061540481614677565b92915050565b6000602082840312156154205761541f614332565b5b600061542e848285016153f5565b91505092915050565b600060408201905061544c6000830185614849565b6154596020830184614514565b9392505050565b7f426f6e644c65737354696d65206973206e6f7420757021000000000000000000600082015250565b6000615496601783614873565b91506154a182615460565b602082019050919050565b600060208201905081810360008301526154c581615489565b9050919050565b7f4e6f207374616b65210000000000000000000000000000000000000000000000600082015250565b6000615502600983614873565b915061550d826154cc565b602082019050919050565b60006020820190508181036000830152615531816154f5565b9050919050565b600060408201905061554d6000830185614514565b61555a6020830184614514565b9392505050565b7f617574686f724d617070696e674c696d697420697320696c6c6567616c000000600082015250565b6000615597601d83614873565b91506155a282615561565b602082019050919050565b600060208201905081810360008301526155c68161558a565b9050919050565b60006155d88261447d565b91506155e38361447d565b9250817fffffffffffffffffffffffffffffffffffffffffffffffffffffffffffffffff048311821515161561561c5761561b6148f0565b5b828202905092915050565b600081905092915050565b7f416363657373436f6e74726f6c3a206163636f756e7420000000000000000000600082015250565b6000615668601783615627565b915061567382615632565b601782019050919050565b600081519050919050565b60005b838110156156a757808201518184015260208101905061568c565b838111156156b6576000848401525b50505050565b60006156c78261567e565b6156d18185615627565b93506156e1818560208601615689565b80840191505092915050565b7f206973206d697373696e6720726f6c6520000000000000000000000000000000600082015250565b6000615723601183615627565b915061572e826156ed565b601182019050919050565b60006157448261565b565b915061575082856156bc565b915061575b82615716565b915061576782846156bc565b91508190509392505050565b6000601f19601f8301169050919050565b600061578f8261567e565b6157998185614873565b93506157a9818560208601615689565b6157b281615773565b840191505092915050565b600060208201905081810360008301526157d78184615784565b905092915050565b7f416464726573733a20696e73756666696369656e742062616c616e6365000000600082015250565b6000615815601d83614873565b9150615820826157df565b602082019050919050565b6000602082019050818103600083015261584481615808565b9050919050565b600081905092915050565b50565b600061586660008361584b565b915061587182615856565b600082019050919050565b600061588782615859565b9150819050919050565b7f416464726573733a20756e61626c6520746f2073656e642076616c75652c207260008201527f6563697069656e74206d61792068617665207265766572746564000000000000602082015250565b60006158ed603a83614873565b91506158f882615891565b604082019050919050565b6000602082019050818103600083015261591c816158e0565b9050919050565b7f4e487b7100000000000000000000000000000000000000000000000000000000600052601260045260246000fd5b600061595d8261447d565b91506159688361447d565b92508261597857615977615923565b5b828204905092915050565b7f4e487b7100000000000000000000000000000000000000000000000000000000600052604160045260246000fd5b7f4e487b7100000000000000000000000000000000000000000000000000000000600052603260045260246000fd5b60006159ec8261447d565b91506000821415615a00576159ff6148f0565b5b600182039050919050565b7f537472696e67733a20686578206c656e67746820696e73756666696369656e74600082015250565b6000615a41602083614873565b9150615a4c82615a0b565b602082019050919050565b60006020820190508181036000830152615a7081615a34565b905091905056fea264697066735822122095c58e413801513d5025274ad52c7d862d5c4c0631fe96e1612eb22b91b0b2fb64736f6c634300080c0033",
  "immutableReferences": {},
  "source": "// SPDX-License-Identifier: GPL-3.0-only\r\npragma solidity ^0.8.0;\r\nimport \"./StakingInterface.sol\";\r\nimport \"./AuthorMappingInterface.sol\";\r\nimport \"@openzeppelin/contracts/access/AccessControl.sol\";\r\nimport \"@openzeppelin/contracts/utils/math/SafeMath.sol\";\r\nimport \"@openzeppelin/contracts/utils/Address.sol\";\r\n\r\ncontract AdouCollator is AccessControl {\r\n    using SafeMath for uint256;\r\n    //\r\n    bytes32 private MEMBER;\r\n    //\r\n    address private constant precompileStakingAddr =\r\n        0x0000000000000000000000000000000000000800;\r\n    address private constant precompileAuthorMappingAddr =\r\n        0x0000000000000000000000000000000000000807;\r\n    //\r\n    ParachainStaking private staking;\r\n    AuthorMapping private authorMapping;\r\n    //\r\n    uint256 private totalStake;\r\n    //\r\n    mapping(address => uint256) private memberStakes;\r\n    //\r\n    mapping(address => uint256) private memberRedeems;\r\n\r\n    //\r\n    struct NodeConfig {\r\n        uint256 techProportion; //\r\n        uint256 fundsDownLimit; //\r\n        uint256 perInvestDownLimit; //\r\n        uint256 rewardDownLimit; //\r\n        uint256 scheduleTime; //\r\n        uint256 authorMappingLimit; //authorid\r\n    }\r\n    NodeConfig private nodeConfig;\r\n\r\n    //\r\n    struct RedeemConfig {\r\n        uint256 bondLess; //\r\n        address bondLessAddr; //\r\n        uint256 bondLessTime; //\r\n    }\r\n    RedeemConfig private redeemConfig;\r\n\r\n    //,\r\n    uint256 private nodeStartDate;\r\n    //\r\n    uint256 private constant techDownLimit = 20;\r\n    //\r\n    bool private governanceFlag = false;\r\n    //\r\n    uint256 private memberTotal = 0;\r\n    //\r\n    uint256 private memberReal = 0;\r\n    //\r\n    mapping(uint256 => address) private memberAddrs;\r\n    //\r\n    mapping(address => uint256) private memberRewards;\r\n    //\r\n    uint256 private totalReward = 0;\r\n    //\r\n    uint256 private pendingReward = 0;\r\n    //\r\n    uint256 private leaveTime;\r\n    //sudo\r\n    address private ownerAddress;\r\n    //\r\n    uint256 private constant unitLength = 1000000000000000000;\r\n    //AuthorId\r\n    bool private associationFlag = false;\r\n\r\n    constructor(\r\n        uint256 _techProportion,\r\n        uint256 _fundsDownLimit,\r\n        uint256 _perInvestDownLimit,\r\n        uint256 _nodeStartDate,\r\n        uint256 _rewardDownLimit,\r\n        address _techRewardAddr,\r\n        uint256 _scheduleTime,\r\n        uint256 _authorMappingLimit\r\n    ) {\r\n        nodeConfig.techProportion = _techProportion;\r\n        nodeConfig.fundsDownLimit = _fundsDownLimit.mul(unitLength);\r\n        nodeConfig.perInvestDownLimit = _perInvestDownLimit.mul(unitLength);\r\n        nodeConfig.rewardDownLimit = _rewardDownLimit.mul(unitLength);\r\n        nodeStartDate = _nodeStartDate;\r\n        nodeConfig.scheduleTime = _scheduleTime;\r\n        nodeConfig.authorMappingLimit = _authorMappingLimit.mul(unitLength);\r\n        ownerAddress = msg.sender;\r\n        staking = ParachainStaking(precompileStakingAddr);\r\n        authorMapping = AuthorMapping(precompileAuthorMappingAddr);\r\n        //\r\n        MEMBER = bytes32(uint256(uint160(address(this))) << 96);\r\n        memberAddrs[memberTotal] = _techRewardAddr;\r\n        memberTotal = memberTotal.add(1);\r\n        _setupRole(MEMBER, _techRewardAddr);\r\n    }\r\n\r\n    modifier isOwner() {\r\n        require(msg.sender == ownerAddress, \"Not management!\");\r\n        _;\r\n    }\r\n\r\n    fallback() external payable {}\r\n\r\n    receive() external payable {}\r\n\r\n    //sudo\r\n    function setParameter(\r\n        uint256 _techProportion,\r\n        uint256 _fundsDownLimit,\r\n        uint256 _perInvestDownLimit,\r\n        uint256 _nodeStartDate,\r\n        uint256 _rewardDownLimit,\r\n        address _techRewardAddr,\r\n        uint256 _scheduleTime,\r\n        uint256 _authorMappingLimit\r\n    ) public isOwner {\r\n        require(!governanceFlag, \"Node started!\");\r\n        require(\r\n            _techProportion >= techDownLimit,\r\n            \"_techProportion is illegal!\"\r\n        );\r\n        if (memberAddrs[0] != _techRewardAddr) {\r\n            require(\r\n                !hasRole(MEMBER, _techRewardAddr),\r\n                \"TechRewardAddr is not Member!\"\r\n            );\r\n            if (memberRedeems[memberAddrs[0]] > 0) {\r\n                memberRedeems[_techRewardAddr] = memberRedeems[memberAddrs[0]];\r\n                memberRedeems[memberAddrs[0]] = 0;\r\n            }\r\n            _revokeRole(MEMBER, memberAddrs[0]);\r\n            memberAddrs[0] = _techRewardAddr;\r\n            _setupRole(MEMBER, _techRewardAddr);\r\n        }\r\n        nodeConfig.techProportion = _techProportion;\r\n        nodeConfig.fundsDownLimit = _fundsDownLimit.mul(unitLength);\r\n        nodeConfig.perInvestDownLimit = _perInvestDownLimit.mul(unitLength);\r\n        nodeConfig.rewardDownLimit = _rewardDownLimit.mul(unitLength);\r\n        nodeStartDate = _nodeStartDate;\r\n        nodeConfig.scheduleTime = _scheduleTime;\r\n        nodeConfig.authorMappingLimit = _authorMappingLimit.mul(unitLength);\r\n    }\r\n\r\n    //\r\n    function _assign(uint256 newReward) private {\r\n        uint256 stakeReward = newReward.sub(\r\n            newReward.mul(nodeConfig.techProportion).div(100)\r\n        );\r\n        for (uint256 i = 1; i < memberTotal; i++) {\r\n            address ra = memberAddrs[i];\r\n            if (memberStakes[ra] > 0) {\r\n                uint256 reward = stakeReward.mul(memberStakes[ra]).div(\r\n                    totalStake\r\n                );\r\n                memberRedeems[ra] = memberRedeems[ra].add(reward);\r\n                memberRewards[ra] = memberRewards[ra].add(reward);\r\n                newReward = newReward.sub(reward);\r\n            }\r\n        }\r\n        address ta = memberAddrs[0];\r\n        memberRedeems[ta] = memberRedeems[ta].add(newReward);\r\n        memberRewards[ta] = memberRewards[ta].add(newReward);\r\n    }\r\n\r\n    //\r\n    function scheduleLeaveStake() public isOwner {\r\n        //\r\n        require(governanceFlag, \"Node not started!\");\r\n        governanceFlag = false;\r\n        leaveTime = block.timestamp;\r\n        staking.schedule_leave_candidates(staking.candidate_count());\r\n    }\r\n\r\n    //\r\n    function executeLeaveStake() public {\r\n        require(\r\n            leaveTime > 0 &&\r\n                (leaveTime + nodeConfig.scheduleTime) < block.timestamp,\r\n            \"LeaveTime is not up!\"\r\n        );\r\n        //\r\n        staking.execute_leave_candidates(\r\n            address(this),\r\n            staking.candidate_delegation_count(address(this))\r\n        );\r\n        leaveTime = 0;\r\n        redeemConfig.bondLess = 0;\r\n        redeemConfig.bondLessAddr = address(0);\r\n        redeemConfig.bondLessTime = 0;\r\n        //\r\n        if ((address(this).balance) - pendingReward > totalStake) {\r\n            uint256 newReward = (address(this).balance).sub(pendingReward).sub(\r\n                totalStake\r\n            );\r\n            totalReward = totalReward.add(newReward);\r\n            _assign(newReward);\r\n        }\r\n        pendingReward = address(this).balance;\r\n        //\r\n        for (uint256 i = 1; i < memberTotal; i++) {\r\n            address ra = memberAddrs[i];\r\n            if (memberStakes[ra] > 0) {\r\n                memberRedeems[ra] = memberRedeems[ra].add(memberStakes[ra]);\r\n                memberStakes[ra] = 0;\r\n            }\r\n        }\r\n        memberTotal = 1;\r\n        totalReward = 0;\r\n        memberReal = 0;\r\n        nodeStartDate = 0;\r\n        totalStake = 0;\r\n    }\r\n\r\n    //\r\n    function addStake() external payable {\r\n        require(msg.sender != memberAddrs[0], \"StakeAddr is tech!\");\r\n        require(block.timestamp < nodeStartDate, \"StakeTime is expired!\");\r\n        require(\r\n            msg.value >= nodeConfig.perInvestDownLimit,\r\n            \"Less than perInvestDownLimit!\"\r\n        );\r\n        if (!hasRole(MEMBER, msg.sender)) {\r\n            memberAddrs[memberTotal] = msg.sender;\r\n            memberTotal = memberTotal.add(1);\r\n            memberReal = memberReal.add(1);\r\n            _setupRole(MEMBER, msg.sender);\r\n        }\r\n        memberStakes[msg.sender] = memberStakes[msg.sender].add(msg.value);\r\n        totalStake = totalStake.add(msg.value);\r\n    }\r\n\r\n    //\r\n    function addMoreStake() external payable onlyRole(MEMBER) {\r\n        require(msg.sender != memberAddrs[0], \"StakeAddr is tech!\");\r\n        require(governanceFlag, \"Node not started!\");\r\n        memberStakes[msg.sender] = memberStakes[msg.sender].add(msg.value);\r\n        totalStake = totalStake.add(msg.value);\r\n        staking.candidate_bond_more(msg.value);\r\n    }\r\n\r\n    //,amountwei\r\n    function scheduleRedeemStake(uint256 amount) public onlyRole(MEMBER) {\r\n        require(governanceFlag, \"Node not started!\");\r\n        require(\r\n            amount > 0 && amount <= memberStakes[msg.sender],\r\n            \"Amount is illegal!\"\r\n        );\r\n        require(\r\n            totalStake - amount >= nodeConfig.fundsDownLimit,\r\n            \"Less than fundsDownLimit!\"\r\n        );\r\n        require(redeemConfig.bondLessAddr == address(0), \"Scheduling!\");\r\n        //\r\n        redeemConfig.bondLess = amount;\r\n        redeemConfig.bondLessAddr = msg.sender;\r\n        redeemConfig.bondLessTime = block.timestamp;\r\n        staking.schedule_candidate_bond_less(amount);\r\n    }\r\n\r\n    //\r\n    function executeRedeemStake() public {\r\n        require(\r\n            redeemConfig.bondLessTime > 0 &&\r\n                (redeemConfig.bondLessTime + nodeConfig.scheduleTime) <\r\n                block.timestamp,\r\n            \"BondLessTime is not up!\"\r\n        );\r\n        staking.execute_candidate_bond_less(address(this));\r\n        pendingReward = pendingReward.add(redeemConfig.bondLess);\r\n        memberStakes[redeemConfig.bondLessAddr] = memberStakes[\r\n            redeemConfig.bondLessAddr\r\n        ].sub(redeemConfig.bondLess);\r\n        if (memberStakes[redeemConfig.bondLessAddr] == 0) {\r\n            memberReal = memberReal.sub(1);\r\n        }\r\n        memberRedeems[redeemConfig.bondLessAddr] = memberRedeems[\r\n            redeemConfig.bondLessAddr\r\n        ].add(redeemConfig.bondLess);\r\n        totalStake = totalStake.sub(redeemConfig.bondLess);\r\n        redeemConfig.bondLess = 0;\r\n        redeemConfig.bondLessAddr = address(0);\r\n        redeemConfig.bondLessTime = 0;\r\n    }\r\n\r\n    //500\r\n    function start() public {\r\n        require(!governanceFlag, \"Node started!\");\r\n        require(\r\n            block.timestamp >= nodeStartDate && nodeStartDate > 0,\r\n            \"Node not started!\"\r\n        );\r\n        require(\r\n            address(this).balance >= totalStake &&\r\n                totalStake >= nodeConfig.fundsDownLimit,\r\n            \"TotalStake is illegal!\"\r\n        );\r\n        //\r\n        staking.join_candidates(totalStake, staking.candidate_count());\r\n        governanceFlag = true;\r\n    }\r\n\r\n    //NimbusId\r\n    function addAssociation(bytes32 nimbusId) external payable isOwner {\r\n        require(governanceFlag, \"Node not started!\");\r\n        require(\r\n            msg.value == nodeConfig.authorMappingLimit,\r\n            \"authorMappingLimit is illegal\"\r\n        );\r\n        authorMapping.add_association(nimbusId);\r\n        associationFlag = true;\r\n    }\r\n\r\n    //NimbusId\r\n    function updateAssociation(bytes32 oldNimbusId, bytes32 newNimbusId)\r\n        public\r\n        isOwner\r\n    {\r\n        require(associationFlag, \"Association not binded!\");\r\n        authorMapping.update_association(oldNimbusId, newNimbusId);\r\n    }\r\n\r\n    //NimbusId\r\n    function clearAssociation(bytes32 nimbusId) public isOwner {\r\n        require(associationFlag, \"Association not binded!\");\r\n        require(!governanceFlag, \"Node started!\");\r\n        require(leaveTime == 0, \"Node disbanding!\");\r\n        authorMapping.clear_association(nimbusId);\r\n        associationFlag = false;\r\n    }\r\n\r\n    //authorid\r\n    function redemmAssociation(address payable account) public isOwner {\r\n        require(!associationFlag, \"Association binded!\");\r\n        require(\r\n            address(this).balance - pendingReward >=\r\n                nodeConfig.authorMappingLimit,\r\n            \"balance not enough!\"\r\n        );\r\n        Address.sendValue(account, nodeConfig.authorMappingLimit);\r\n    }\r\n\r\n    // \r\n    function failBackStake() public {\r\n        require(!governanceFlag, \"Node started!\");\r\n        require(leaveTime == 0, \"Node disbanding!\");\r\n        require(memberTotal > 1, \"memberTotal is illegal!\");\r\n        require(\r\n            block.timestamp >= nodeStartDate && nodeStartDate > 0,\r\n            \"Node not started!\"\r\n        );\r\n        require(\r\n            totalStake < nodeConfig.fundsDownLimit,\r\n            \"TotalStake is illegal!\"\r\n        );\r\n        for (uint256 i = 1; i < memberTotal; i++) {\r\n            address ra = memberAddrs[i];\r\n            if (memberStakes[ra] > 0) {\r\n                memberRedeems[ra] = memberRedeems[ra].add(memberStakes[ra]);\r\n                memberStakes[ra] = 0;\r\n            }\r\n        }\r\n        pendingReward = address(this).balance;\r\n        memberTotal = 1;\r\n        totalReward = 0;\r\n        memberReal = 0;\r\n        nodeStartDate = 0;\r\n        totalStake = 0;\r\n    }\r\n\r\n    //\r\n    function claimRedeem(address payable account) public onlyRole(MEMBER) {\r\n        require(account != address(0), \"Account is illegal!\");\r\n        require(memberRedeems[msg.sender] > 0, \"MemberRedeems is illegal!\");\r\n        require(\r\n            pendingReward <= address(this).balance,\r\n            \"PendingReward is illegal!\"\r\n        );\r\n        uint256 reddeem = memberRedeems[msg.sender];\r\n        require(pendingReward - reddeem >= 0, \"PendingReward not enough!\");\r\n        pendingReward = pendingReward.sub(reddeem);\r\n        memberRedeems[msg.sender] = 0;\r\n        if (memberStakes[msg.sender] == 0) {\r\n            _revokeRole(MEMBER, msg.sender);\r\n        }\r\n        Address.sendValue(account, reddeem);\r\n    }\r\n\r\n    //\r\n    function assignRewards() public {\r\n        require(associationFlag, \"Association not binded!\");\r\n        // require(redeemConfig.bondLessAddr == address(0),'Scheduling!');\r\n        require(\r\n            (address(this).balance) - pendingReward >=\r\n                nodeConfig.rewardDownLimit,\r\n            \"Balance not enough!\"\r\n        );\r\n        uint256 newReward = (address(this).balance).sub(pendingReward);\r\n        pendingReward = address(this).balance;\r\n        totalReward = totalReward.add(newReward);\r\n        _assign(newReward);\r\n    }\r\n\r\n    //\r\n    function fundsTransfer(address account) public onlyRole(MEMBER) {\r\n        require(\r\n            account != memberAddrs[0] &&\r\n                msg.sender != account &&\r\n                account != address(0),\r\n            \"Account is illegal!\"\r\n        );\r\n        require(memberStakes[msg.sender] > 0, \"No stake!\");\r\n        if (!hasRole(MEMBER, account)) {\r\n            memberAddrs[memberTotal] = account;\r\n            memberTotal = memberTotal.add(1);\r\n            memberReal = memberReal.add(1);\r\n            _setupRole(MEMBER, account);\r\n        }\r\n        memberStakes[account] = memberStakes[account].add(\r\n            memberStakes[msg.sender]\r\n        );\r\n        memberStakes[msg.sender] = 0;\r\n        memberReal = memberReal.sub(1);\r\n        if (memberRedeems[msg.sender] == 0) {\r\n            _revokeRole(MEMBER, msg.sender);\r\n        }\r\n    }\r\n\r\n    //\r\n    function getBalance() public view returns (uint256) {\r\n        return address(this).balance;\r\n    }\r\n\r\n    //\r\n    function getReward() public view returns (uint256) {\r\n        return memberRewards[msg.sender];\r\n    }\r\n\r\n    //\r\n    function getRedeem() public view returns (uint256) {\r\n        return memberRedeems[msg.sender];\r\n    }\r\n\r\n    //\r\n    function getStake() public view returns (uint256) {\r\n        return memberStakes[msg.sender];\r\n    }\r\n\r\n    //\r\n    function getTotalStake() public view returns (uint256) {\r\n        return totalStake;\r\n    }\r\n\r\n    //\r\n    function getStakeProportion() public view returns (uint256) {\r\n        if (totalStake <= 0) {\r\n            return 0;\r\n        }\r\n        return memberStakes[msg.sender].mul(100).div(totalStake);\r\n    }\r\n\r\n    //\r\n    function getTotalReward() public view returns (uint256) {\r\n        return totalReward;\r\n    }\r\n\r\n    //\r\n    function getPendingReward() public view returns (uint256) {\r\n        return pendingReward;\r\n    }\r\n\r\n    //\r\n    function getAnnualReward() public view returns (uint256) {\r\n        if (totalStake <= 0 || block.timestamp < nodeStartDate) {\r\n            return 0;\r\n        }\r\n        uint256 day = ((block.timestamp).sub(nodeStartDate)).div(60 * 60 * 24);\r\n        if (day <= 0) {\r\n            return 0;\r\n        }\r\n        return totalReward.mul(365 * 100).div(totalStake).div(day);\r\n    }\r\n\r\n    //\r\n    function getMemberReal() public view returns (uint256) {\r\n        return memberReal;\r\n    }\r\n\r\n    //\r\n    function getMemberTotal() public view returns (uint256) {\r\n        return memberTotal;\r\n    }\r\n\r\n    //\r\n    function getMemberByIndex(uint256 _index) public view returns (address) {\r\n        return memberAddrs[_index];\r\n    }\r\n\r\n    //\r\n    function getNodeStartDate() public view returns (uint256) {\r\n        return nodeStartDate;\r\n    }\r\n\r\n    //\r\n    function getLeaveTime() public view returns (uint256) {\r\n        return leaveTime;\r\n    }\r\n\r\n    // 0 1 2 3\r\n    function getNodeState() public view returns (uint256) {\r\n        uint256 state = 0;\r\n        if (governanceFlag) {\r\n            state = 1;\r\n        } else if (leaveTime > 0) {\r\n            state = 2;\r\n        } else if (nodeStartDate == 0) {\r\n            state = 3;\r\n        }\r\n        return state;\r\n    }\r\n\r\n    //\r\n    function getNodeConfig() public view returns (NodeConfig memory) {\r\n        return nodeConfig;\r\n    }\r\n\r\n    //\r\n    function getRedeemConfig() public view returns (RedeemConfig memory) {\r\n        return redeemConfig;\r\n    }\r\n}\r\n",
  "sourcePath": "D:\\\\vueDao\\StakeFinance\\truffle-dev\\contracts\\AdouCollator.sol",
  "compiler": {
    "name": "solc",
    "version": "0.8.12+commit.f00d7308.Emscripten.clang"
  },
  "schemaVersion": "3.4.5",
  "updatedAt": "2022-06-20T02:52:10.299Z",
  "devdoc": {
    "kind": "dev",
    "methods": {
      "getRoleAdmin(bytes32)": {
        "details": "Returns the admin role that controls `role`. See {grantRole} and {revokeRole}. To change a role's admin, use {_setRoleAdmin}."
      },
      "grantRole(bytes32,address)": {
        "details": "Grants `role` to `account`. If `account` had not been already granted `role`, emits a {RoleGranted} event. Requirements: - the caller must have ``role``'s admin role."
      },
      "hasRole(bytes32,address)": {
        "details": "Returns `true` if `account` has been granted `role`."
      },
      "renounceRole(bytes32,address)": {
        "details": "Revokes `role` from the calling account. Roles are often managed via {grantRole} and {revokeRole}: this function's purpose is to provide a mechanism for accounts to lose their privileges if they are compromised (such as when a trusted device is misplaced). If the calling account had been revoked `role`, emits a {RoleRevoked} event. Requirements: - the caller must be `account`."
      },
      "revokeRole(bytes32,address)": {
        "details": "Revokes `role` from `account`. If `account` had been granted `role`, emits a {RoleRevoked} event. Requirements: - the caller must have ``role``'s admin role."
      },
      "supportsInterface(bytes4)": {
        "details": "See {IERC165-supportsInterface}."
      }
    },
    "version": 1
  },
  "userdoc": {
    "kind": "user",
    "methods": {},
    "version": 1
  }
}