{
  "contractName": "Airdrop",
  "abi": [
    {
      "inputs": [],
      "stateMutability": "nonpayable",
      "type": "constructor"
    },
    {
      "anonymous": false,
      "inputs": [
        {
          "indexed": true,
          "internalType": "address",
          "name": "owner",
          "type": "address"
        },
        {
          "indexed": true,
          "internalType": "address",
          "name": "spender",
          "type": "address"
        },
        {
          "indexed": false,
          "internalType": "uint256",
          "name": "value",
          "type": "uint256"
        }
      ],
      "name": "Approval",
      "type": "event"
    },
    {
      "anonymous": false,
      "inputs": [
        {
          "indexed": true,
          "internalType": "address",
          "name": "from",
          "type": "address"
        },
        {
          "indexed": true,
          "internalType": "address",
          "name": "to",
          "type": "address"
        },
        {
          "indexed": false,
          "internalType": "uint256",
          "name": "value",
          "type": "uint256"
        }
      ],
      "name": "Transfer",
      "type": "event"
    },
    {
      "inputs": [],
      "name": "Igovern",
      "outputs": [
        {
          "internalType": "contract IGovernance",
          "name": "",
          "type": "address"
        }
      ],
      "stateMutability": "view",
      "type": "function"
    },
    {
      "inputs": [],
      "name": "Ipool",
      "outputs": [
        {
          "internalType": "contract IPool",
          "name": "",
          "type": "address"
        }
      ],
      "stateMutability": "view",
      "type": "function"
    },
    {
      "inputs": [
        {
          "internalType": "address",
          "name": "owner",
          "type": "address"
        },
        {
          "internalType": "address",
          "name": "spender",
          "type": "address"
        }
      ],
      "name": "allowance",
      "outputs": [
        {
          "internalType": "uint256",
          "name": "",
          "type": "uint256"
        }
      ],
      "stateMutability": "view",
      "type": "function"
    },
    {
      "inputs": [
        {
          "internalType": "address",
          "name": "spender",
          "type": "address"
        },
        {
          "internalType": "uint256",
          "name": "amount",
          "type": "uint256"
        }
      ],
      "name": "approve",
      "outputs": [
        {
          "internalType": "bool",
          "name": "",
          "type": "bool"
        }
      ],
      "stateMutability": "nonpayable",
      "type": "function"
    },
    {
      "inputs": [
        {
          "internalType": "address",
          "name": "account",
          "type": "address"
        }
      ],
      "name": "balanceOf",
      "outputs": [
        {
          "internalType": "uint256",
          "name": "",
          "type": "uint256"
        }
      ],
      "stateMutability": "view",
      "type": "function"
    },
    {
      "inputs": [],
      "name": "decimals",
      "outputs": [
        {
          "internalType": "uint8",
          "name": "",
          "type": "uint8"
        }
      ],
      "stateMutability": "view",
      "type": "function"
    },
    {
      "inputs": [
        {
          "internalType": "address",
          "name": "spender",
          "type": "address"
        },
        {
          "internalType": "uint256",
          "name": "subtractedValue",
          "type": "uint256"
        }
      ],
      "name": "decreaseAllowance",
      "outputs": [
        {
          "internalType": "bool",
          "name": "",
          "type": "bool"
        }
      ],
      "stateMutability": "nonpayable",
      "type": "function"
    },
    {
      "inputs": [],
      "name": "dropLastTime",
      "outputs": [
        {
          "internalType": "uint256",
          "name": "",
          "type": "uint256"
        }
      ],
      "stateMutability": "view",
      "type": "function"
    },
    {
      "inputs": [
        {
          "internalType": "address",
          "name": "spender",
          "type": "address"
        },
        {
          "internalType": "uint256",
          "name": "addedValue",
          "type": "uint256"
        }
      ],
      "name": "increaseAllowance",
      "outputs": [
        {
          "internalType": "bool",
          "name": "",
          "type": "bool"
        }
      ],
      "stateMutability": "nonpayable",
      "type": "function"
    },
    {
      "inputs": [
        {
          "internalType": "address",
          "name": "",
          "type": "address"
        },
        {
          "internalType": "uint256",
          "name": "",
          "type": "uint256"
        }
      ],
      "name": "lockInfos",
      "outputs": [
        {
          "internalType": "uint256",
          "name": "",
          "type": "uint256"
        }
      ],
      "stateMutability": "view",
      "type": "function"
    },
    {
      "inputs": [],
      "name": "name",
      "outputs": [
        {
          "internalType": "string",
          "name": "",
          "type": "string"
        }
      ],
      "stateMutability": "view",
      "type": "function"
    },
    {
      "inputs": [],
      "name": "owner",
      "outputs": [
        {
          "internalType": "address",
          "name": "",
          "type": "address"
        }
      ],
      "stateMutability": "view",
      "type": "function"
    },
    {
      "inputs": [],
      "name": "symbol",
      "outputs": [
        {
          "internalType": "string",
          "name": "",
          "type": "string"
        }
      ],
      "stateMutability": "view",
      "type": "function"
    },
    {
      "inputs": [],
      "name": "totalSupply",
      "outputs": [
        {
          "internalType": "uint256",
          "name": "",
          "type": "uint256"
        }
      ],
      "stateMutability": "view",
      "type": "function"
    },
    {
      "inputs": [
        {
          "internalType": "address",
          "name": "to",
          "type": "address"
        },
        {
          "internalType": "uint256",
          "name": "amount",
          "type": "uint256"
        }
      ],
      "name": "transfer",
      "outputs": [
        {
          "internalType": "bool",
          "name": "",
          "type": "bool"
        }
      ],
      "stateMutability": "nonpayable",
      "type": "function"
    },
    {
      "inputs": [
        {
          "internalType": "address",
          "name": "from",
          "type": "address"
        },
        {
          "internalType": "address",
          "name": "to",
          "type": "address"
        },
        {
          "internalType": "uint256",
          "name": "amount",
          "type": "uint256"
        }
      ],
      "name": "transferFrom",
      "outputs": [
        {
          "internalType": "bool",
          "name": "",
          "type": "bool"
        }
      ],
      "stateMutability": "nonpayable",
      "type": "function"
    },
    {
      "inputs": [
        {
          "internalType": "address",
          "name": "_governAddr",
          "type": "address"
        },
        {
          "internalType": "string",
          "name": "name_",
          "type": "string"
        },
        {
          "internalType": "string",
          "name": "symbol_",
          "type": "string"
        },
        {
          "internalType": "address",
          "name": "_account",
          "type": "address"
        },
        {
          "internalType": "uint256",
          "name": "_amount",
          "type": "uint256"
        },
        {
          "internalType": "address",
          "name": "_owner",
          "type": "address"
        }
      ],
      "name": "initialize",
      "outputs": [],
      "stateMutability": "nonpayable",
      "type": "function"
    },
    {
      "inputs": [
        {
          "internalType": "address",
          "name": "_governAddr",
          "type": "address"
        }
      ],
      "name": "setGovernAddr",
      "outputs": [],
      "stateMutability": "nonpayable",
      "type": "function"
    },
    {
      "inputs": [],
      "name": "startDrop",
      "outputs": [],
      "stateMutability": "nonpayable",
      "type": "function"
    },
    {
      "inputs": [
        {
          "internalType": "address",
          "name": "_account",
          "type": "address"
        },
        {
          "internalType": "uint256",
          "name": "_amount",
          "type": "uint256"
        }
      ],
      "name": "burn",
      "outputs": [],
      "stateMutability": "nonpayable",
      "type": "function"
    },
    {
      "inputs": [
        {
          "internalType": "address",
          "name": "_from",
          "type": "address"
        },
        {
          "internalType": "address",
          "name": "_leaseAddr",
          "type": "address"
        },
        {
          "internalType": "uint256",
          "name": "_leaseDate",
          "type": "uint256"
        },
        {
          "internalType": "uint256",
          "name": "_period",
          "type": "uint256"
        },
        {
          "internalType": "uint256",
          "name": "_amount",
          "type": "uint256"
        }
      ],
      "name": "lockLeaseMargin",
      "outputs": [],
      "stateMutability": "nonpayable",
      "type": "function"
    },
    {
      "inputs": [
        {
          "internalType": "address",
          "name": "_account",
          "type": "address"
        },
        {
          "internalType": "uint256",
          "name": "_leaseDate",
          "type": "uint256"
        },
        {
          "internalType": "uint256",
          "name": "_amount",
          "type": "uint256"
        }
      ],
      "name": "unlockLeaseMargin",
      "outputs": [],
      "stateMutability": "nonpayable",
      "type": "function"
    },
    {
      "inputs": [
        {
          "internalType": "uint256",
          "name": "_leaseDate",
          "type": "uint256"
        },
        {
          "internalType": "uint256",
          "name": "_amount",
          "type": "uint256"
        }
      ],
      "name": "zeroIncomePunish",
      "outputs": [],
      "stateMutability": "nonpayable",
      "type": "function"
    }
  ],
  "bytecode": "0x608060405260006007556001600860006101000a81548160ff0219169083151502179055503480156200003157600080fd5b506040518060400160405280601681526020017f5448495320495320412052455741524420544f4b454e000000000000000000008152506040518060400160405280600781526020017f7265744d4f5652000000000000000000000000000000000000000000000000008152508160039080519060200190620000b6929190620000d8565b508060049080519060200190620000cf929190620000d8565b505050620001ed565b828054620000e690620001b7565b90600052602060002090601f0160209004810192826200010a576000855562000156565b82601f106200012557805160ff191683800117855562000156565b8280016001018555821562000156579182015b828111156200015557825182559160200191906001019062000138565b5b50905062000165919062000169565b5090565b5b80821115620001845760008160009055506001016200016a565b5090565b7f4e487b7100000000000000000000000000000000000000000000000000000000600052602260045260246000fd5b60006002820490506001821680620001d057607f821691505b60208210811415620001e757620001e662000188565b5b50919050565b613ba380620001fd6000396000f3fe608060405234801561001057600080fd5b506004361061014d5760003560e01c8063734dc67e116100c3578063a9059cbb1161007c578063a9059cbb1461038e578063cd2d07ca146103be578063dd62ed3e146103da578063dd9abbcd1461040a578063f2a1959214610426578063f4881775146104445761014d565b8063734dc67e146102cc5780638baf96a5146102e85780638da5cb5b1461030657806395d89b41146103245780639dc29fac14610342578063a457c2d71461035e5761014d565b806334d84c7b1161011557806334d84c7b1461020c578063395093511461021657806351d2ae1614610246578063650b4f8b146102625780636c2cb65f1461027e57806370a082311461029c5761014d565b806306fdde0314610152578063095ea7b31461017057806318160ddd146101a057806323b872dd146101be578063313ce567146101ee575b600080fd5b61015a610474565b6040516101679190612498565b60405180910390f35b61018a60048036038101906101859190612562565b610506565b60405161019791906125bd565b60405180910390f35b6101a8610529565b6040516101b591906125e7565b60405180910390f35b6101d860048036038101906101d39190612602565b610533565b6040516101e591906125bd565b60405180910390f35b6101f6610562565b6040516102039190612671565b60405180910390f35b61021461056b565b005b610230600480360381019061022b9190612562565b610ad6565b60405161023d91906125bd565b60405180910390f35b610260600480360381019061025b919061268c565b610b80565b005b61027c60048036038101906102779190612814565b610cbe565b005b610286610e36565b60405161029391906125e7565b60405180910390f35b6102b660048036038101906102b191906128d9565b610e3c565b6040516102c391906125e7565b60405180910390f35b6102e660048036038101906102e19190612906565b610e84565b005b6102f0610fb5565b6040516102fd91906129a5565b60405180910390f35b61030e610fdb565b60405161031b91906129cf565b60405180910390f35b61032c611001565b6040516103399190612498565b60405180910390f35b61035c60048036038101906103579190612562565b611093565b005b61037860048036038101906103739190612562565b6111e2565b60405161038591906125bd565b60405180910390f35b6103a860048036038101906103a39190612562565b6112cc565b6040516103b591906125bd565b60405180910390f35b6103d860048036038101906103d391906129ea565b6112ef565b005b6103f460048036038101906103ef9190612a65565b6115ba565b60405161040191906125e7565b60405180910390f35b610424600480360381019061041f91906128d9565b611641565b005b61042e611715565b60405161043b9190612ac6565b60405180910390f35b61045e60048036038101906104599190612562565b61173b565b60405161046b91906125e7565b60405180910390f35b60606003805461048390612b10565b80601f01602080910402602001604051908101604052809291908181526020018280546104af90612b10565b80156104fc5780601f106104d1576101008083540402835291602001916104fc565b820191906000526020600020905b8154815290600101906020018083116104df57829003601f168201915b5050505050905090565b600080610511611760565b905061051e818585611768565b600191505092915050565b6000600254905090565b60008061053e611760565b905061054b858285611933565b6105568585856119bf565b60019150509392505050565b60006012905090565b600073ffffffffffffffffffffffffffffffffffffffff16600560009054906101000a900473ffffffffffffffffffffffffffffffffffffffff1673ffffffffffffffffffffffffffffffffffffffff166308c17a4a6040518163ffffffff1660e01b8152600401602060405180830381865afa1580156105f0573d6000803e3d6000fd5b505050506040513d601f19601f820116820180604052508101906106149190612b57565b73ffffffffffffffffffffffffffffffffffffffff16141561066b576040517f08c379a000000000000000000000000000000000000000000000000000000000815260040161066290612bd0565b60405180910390fd5b60006106976201518061068960075442611c4090919063ffffffff16565b611c5690919063ffffffff16565b116106d7576040517f08c379a00000000000000000000000000000000000000000000000000000000081526004016106ce90612c3c565b60405180910390fd5b6000600560009054906101000a900473ffffffffffffffffffffffffffffffffffffffff1673ffffffffffffffffffffffffffffffffffffffff16639054031d6040518163ffffffff1660e01b8152600401602060405180830381865afa158015610746573d6000803e3d6000fd5b505050506040513d601f19601f8201168201806040525081019061076a9190612c71565b9050600081116107af576040517f08c379a00000000000000000000000000000000000000000000000000000000081526004016107a690612cea565b60405180910390fd5b600560009054906101000a900473ffffffffffffffffffffffffffffffffffffffff1673ffffffffffffffffffffffffffffffffffffffff166308c17a4a6040518163ffffffff1660e01b8152600401602060405180830381865afa15801561081c573d6000803e3d6000fd5b505050506040513d601f19601f820116820180604052508101906108409190612b57565b600660006101000a81548173ffffffffffffffffffffffffffffffffffffffff021916908373ffffffffffffffffffffffffffffffffffffffff160217905550600560009054906101000a900473ffffffffffffffffffffffffffffffffffffffff1673ffffffffffffffffffffffffffffffffffffffff166321cec6af6040518163ffffffff1660e01b8152600401602060405180830381865afa1580156108ed573d6000803e3d6000fd5b505050506040513d601f19601f820116820180604052508101906109119190612c71565b600660009054906101000a900473ffffffffffffffffffffffffffffffffffffffff1673ffffffffffffffffffffffffffffffffffffffff166318160ddd6040518163ffffffff1660e01b8152600401602060405180830381865afa15801561097e573d6000803e3d6000fd5b505050506040513d601f19601f820116820180604052508101906109a29190612c71565b10156109e3576040517f08c379a00000000000000000000000000000000000000000000000000000000081526004016109da90612d56565b60405180910390fd5b6000600660009054906101000a900473ffffffffffffffffffffffffffffffffffffffff1673ffffffffffffffffffffffffffffffffffffffff1663cbb750256040518163ffffffff1660e01b8152600401600060405180830381865afa158015610a52573d6000803e3d6000fd5b505050506040513d6000823e3d601f19601f82011682018060405250810190610a7b9190612e3e565b90506000815111610ac1576040517f08c379a0000000000000000000000000000000000000000000000000000000008152600401610ab890612ed3565b60405180910390fd5b42600781905550610ad28183611c6c565b5050565b600080610ae1611760565b9050610b75818585600160008673ffffffffffffffffffffffffffffffffffffffff1673ffffffffffffffffffffffffffffffffffffffff16815260200190815260200160002060008973ffffffffffffffffffffffffffffffffffffffff1673ffffffffffffffffffffffffffffffffffffffff16815260200190815260200160002054610b709190612f22565b611768565b600191505092915050565b6000600960003373ffffffffffffffffffffffffffffffffffffffff1673ffffffffffffffffffffffffffffffffffffffff1681526020019081526020016000206000848152602001908152602001600020549050600081118015610ca75750610bf66201518042611c5690919063ffffffff16565b610ca4600560009054906101000a900473ffffffffffffffffffffffffffffffffffffffff1673ffffffffffffffffffffffffffffffffffffffff1663a8e927046040518163ffffffff1660e01b8152600401602060405180830381865afa158015610c66573d6000803e3d6000fd5b505050506040513d601f19601f82011682018060405250810190610c8a9190612c71565b83610c959190612f78565b85611fb690919063ffffffff16565b11155b15610cb857610cb73385846119bf565b5b50505050565b600073ffffffffffffffffffffffffffffffffffffffff16600560009054906101000a900473ffffffffffffffffffffffffffffffffffffffff1673ffffffffffffffffffffffffffffffffffffffff1614610d4f576040517f08c379a0000000000000000000000000000000000000000000000000000000008152600401610d469061301e565b60405180910390fd5b6000821115610d6357610d628383611fcc565b5b8460039080519060200190610d7992919061235c565b508360049080519060200190610d9092919061235c565b5085600560006101000a81548173ffffffffffffffffffffffffffffffffffffffff021916908373ffffffffffffffffffffffffffffffffffffffff16021790555080600a60006101000a81548173ffffffffffffffffffffffffffffffffffffffff021916908373ffffffffffffffffffffffffffffffffffffffff1602179055506001600860006101000a81548160ff021916908315150217905550505050505050565b60075481565b60008060008373ffffffffffffffffffffffffffffffffffffffff1673ffffffffffffffffffffffffffffffffffffffff168152602001908152602001600020549050919050565b6000600960003373ffffffffffffffffffffffffffffffffffffffff1673ffffffffffffffffffffffffffffffffffffffff1681526020019081526020016000206000848152602001908152602001600020549050600081118015610fa05750610efa6201518042611c5690919063ffffffff16565b610f9d600560009054906101000a900473ffffffffffffffffffffffffffffffffffffffff1673ffffffffffffffffffffffffffffffffffffffff1663b97fb3ae6040518163ffffffff1660e01b8152600401602060405180830381865afa158015610f6a573d6000803e3d6000fd5b505050506040513d601f19601f82011682018060405250810190610f8e9190612c71565b85611fb690919063ffffffff16565b11155b15610fb057610faf338361212c565b5b505050565b600560009054906101000a900473ffffffffffffffffffffffffffffffffffffffff1681565b600a60009054906101000a900473ffffffffffffffffffffffffffffffffffffffff1681565b60606004805461101090612b10565b80601f016020809104026020016040519081016040528092919081815260200182805461103c90612b10565b80156110895780601f1061105e57610100808354040283529160200191611089565b820191906000526020600020905b81548152906001019060200180831161106c57829003601f168201915b5050505050905090565b600081116110d6576040517f08c379a00000000000000000000000000000000000000000000000000000000081526004016110cd9061308a565b60405180910390fd5b3373ffffffffffffffffffffffffffffffffffffffff16600560009054906101000a900473ffffffffffffffffffffffffffffffffffffffff1673ffffffffffffffffffffffffffffffffffffffff166308c17a4a6040518163ffffffff1660e01b8152600401602060405180830381865afa15801561115a573d6000803e3d6000fd5b505050506040513d601f19601f8201168201806040525081019061117e9190612b57565b73ffffffffffffffffffffffffffffffffffffffff16146111d4576040517f08c379a00000000000000000000000000000000000000000000000000000000081526004016111cb906130f6565b60405180910390fd5b6111de828261212c565b5050565b6000806111ed611760565b90506000600160008373ffffffffffffffffffffffffffffffffffffffff1673ffffffffffffffffffffffffffffffffffffffff16815260200190815260200160002060008673ffffffffffffffffffffffffffffffffffffffff1673ffffffffffffffffffffffffffffffffffffffff168152602001908152602001600020549050838110156112b3576040517f08c379a00000000000000000000000000000000000000000000000000000000081526004016112aa90613188565b60405180910390fd5b6112c08286868403611768565b60019250505092915050565b6000806112d7611760565b90506112e48185856119bf565b600191505092915050565b3373ffffffffffffffffffffffffffffffffffffffff16600560009054906101000a900473ffffffffffffffffffffffffffffffffffffffff1673ffffffffffffffffffffffffffffffffffffffff166308c17a4a6040518163ffffffff1660e01b8152600401602060405180830381865afa158015611373573d6000803e3d6000fd5b505050506040513d601f19601f820116820180604052508101906113979190612b57565b73ffffffffffffffffffffffffffffffffffffffff16146113ed576040517f08c379a00000000000000000000000000000000000000000000000000000000081526004016113e49061321a565b60405180910390fd5b600073ffffffffffffffffffffffffffffffffffffffff168573ffffffffffffffffffffffffffffffffffffffff16141561145d576040517f08c379a0000000000000000000000000000000000000000000000000000000008152600401611454906132ac565b60405180910390fd5b600073ffffffffffffffffffffffffffffffffffffffff168473ffffffffffffffffffffffffffffffffffffffff1614156114cd576040517f08c379a00000000000000000000000000000000000000000000000000000000081526004016114c49061333e565b60405180910390fd5b60008211611510576040517f08c379a0000000000000000000000000000000000000000000000000000000008152600401611507906133d0565b60405180910390fd5b60008111611553576040517f08c379a000000000000000000000000000000000000000000000000000000000815260040161154a90613462565b60405180910390fd5b81600960008673ffffffffffffffffffffffffffffffffffffffff1673ffffffffffffffffffffffffffffffffffffffff1681526020019081526020016000206000858152602001908152602001600020819055506115b38585836119bf565b5050505050565b6000600160008473ffffffffffffffffffffffffffffffffffffffff1673ffffffffffffffffffffffffffffffffffffffff16815260200190815260200160002060008373ffffffffffffffffffffffffffffffffffffffff1673ffffffffffffffffffffffffffffffffffffffff16815260200190815260200160002054905092915050565b600a60009054906101000a900473ffffffffffffffffffffffffffffffffffffffff1673ffffffffffffffffffffffffffffffffffffffff163373ffffffffffffffffffffffffffffffffffffffff16146116d1576040517f08c379a00000000000000000000000000000000000000000000000000000000081526004016116c8906134ce565b60405180910390fd5b80600560006101000a81548173ffffffffffffffffffffffffffffffffffffffff021916908373ffffffffffffffffffffffffffffffffffffffff16021790555050565b600660009054906101000a900473ffffffffffffffffffffffffffffffffffffffff1681565b6009602052816000526040600020602052806000526040600020600091509150505481565b600033905090565b600073ffffffffffffffffffffffffffffffffffffffff168373ffffffffffffffffffffffffffffffffffffffff1614156117d8576040517f08c379a00000000000000000000000000000000000000000000000000000000081526004016117cf90613560565b60405180910390fd5b600073ffffffffffffffffffffffffffffffffffffffff168273ffffffffffffffffffffffffffffffffffffffff161415611848576040517f08c379a000000000000000000000000000000000000000000000000000000000815260040161183f906135f2565b60405180910390fd5b80600160008573ffffffffffffffffffffffffffffffffffffffff1673ffffffffffffffffffffffffffffffffffffffff16815260200190815260200160002060008473ffffffffffffffffffffffffffffffffffffffff1673ffffffffffffffffffffffffffffffffffffffff168152602001908152602001600020819055508173ffffffffffffffffffffffffffffffffffffffff168373ffffffffffffffffffffffffffffffffffffffff167f8c5be1e5ebec7d5bd14f71427d1e84f3dd0314c0f7b2291e5b200ac8c7c3b9258360405161192691906125e7565b60405180910390a3505050565b600061193f84846115ba565b90507fffffffffffffffffffffffffffffffffffffffffffffffffffffffffffffffff81146119b957818110156119ab576040517f08c379a00000000000000000000000000000000000000000000000000000000081526004016119a29061365e565b60405180910390fd5b6119b88484848403611768565b5b50505050565b600073ffffffffffffffffffffffffffffffffffffffff168373ffffffffffffffffffffffffffffffffffffffff161415611a2f576040517f08c379a0000000000000000000000000000000000000000000000000000000008152600401611a26906136f0565b60405180910390fd5b600073ffffffffffffffffffffffffffffffffffffffff168273ffffffffffffffffffffffffffffffffffffffff161415611a9f576040517f08c379a0000000000000000000000000000000000000000000000000000000008152600401611a9690613782565b60405180910390fd5b611aaa838383612303565b60008060008573ffffffffffffffffffffffffffffffffffffffff1673ffffffffffffffffffffffffffffffffffffffff16815260200190815260200160002054905081811015611b30576040517f08c379a0000000000000000000000000000000000000000000000000000000008152600401611b2790613814565b60405180910390fd5b8181036000808673ffffffffffffffffffffffffffffffffffffffff1673ffffffffffffffffffffffffffffffffffffffff16815260200190815260200160002081905550816000808573ffffffffffffffffffffffffffffffffffffffff1673ffffffffffffffffffffffffffffffffffffffff1681526020019081526020016000206000828254611bc39190612f22565b925050819055508273ffffffffffffffffffffffffffffffffffffffff168473ffffffffffffffffffffffffffffffffffffffff167fddf252ad1be2c89b69c2b068fc378daa952ba7f163c4a11628f55a4df523b3ef84604051611c2791906125e7565b60405180910390a3611c3a848484612308565b50505050565b60008183611c4e9190613834565b905092915050565b60008183611c649190613897565b905092915050565b600860009054906101000a900460ff16611cbb576040517f08c379a0000000000000000000000000000000000000000000000000000000008152600401611cb290613914565b60405180910390fd5b6000600860006101000a81548160ff02191690831515021790555060005b8251811015611f96576000838281518110611cf757611cf6613934565b5b602002602001015190506000600660009054906101000a900473ffffffffffffffffffffffffffffffffffffffff1673ffffffffffffffffffffffffffffffffffffffff1663ea8f56b0836040518263ffffffff1660e01b8152600401611d5e91906129cf565b602060405180830381865afa158015611d7b573d6000803e3d6000fd5b505050506040513d601f19601f82011682018060405250810190611d9f9190612c71565b90506000600660009054906101000a900473ffffffffffffffffffffffffffffffffffffffff1673ffffffffffffffffffffffffffffffffffffffff166370a08231846040518263ffffffff1660e01b8152600401611dfe91906129cf565b602060405180830381865afa158015611e1b573d6000803e3d6000fd5b505050506040513d601f19601f82011682018060405250810190611e3f9190612c71565b9050611e4a8361230d565b158015611e575750600082115b8015611e635750600081115b15611f80576000611e9262015180611e848542611c4090919063ffffffff16565b611c5690919063ffffffff16565b9050600081118015611eb657506000611eb4878361233090919063ffffffff16565b145b15611f7e57611f716064611f63600560009054906101000a900473ffffffffffffffffffffffffffffffffffffffff1673ffffffffffffffffffffffffffffffffffffffff1663a909a2326040518163ffffffff1660e01b8152600401602060405180830381865afa158015611f30573d6000803e3d6000fd5b505050506040513d601f19601f82011682018060405250810190611f549190612c71565b8561234690919063ffffffff16565b611c5690919063ffffffff16565b9150611f7d8483611fcc565b5b505b5050508080611f8e90613963565b915050611cd9565b506001600860006101000a81548160ff0219169083151502179055505050565b60008183611fc49190612f22565b905092915050565b600073ffffffffffffffffffffffffffffffffffffffff168273ffffffffffffffffffffffffffffffffffffffff16141561203c576040517f08c379a0000000000000000000000000000000000000000000000000000000008152600401612033906139f8565b60405180910390fd5b61204860008383612303565b806002600082825461205a9190612f22565b92505081905550806000808473ffffffffffffffffffffffffffffffffffffffff1673ffffffffffffffffffffffffffffffffffffffff16815260200190815260200160002060008282546120af9190612f22565b925050819055508173ffffffffffffffffffffffffffffffffffffffff16600073ffffffffffffffffffffffffffffffffffffffff167fddf252ad1be2c89b69c2b068fc378daa952ba7f163c4a11628f55a4df523b3ef8360405161211491906125e7565b60405180910390a361212860008383612308565b5050565b600073ffffffffffffffffffffffffffffffffffffffff168273ffffffffffffffffffffffffffffffffffffffff16141561219c576040517f08c379a000000000000000000000000000000000000000000000000000000000815260040161219390613a8a565b60405180910390fd5b6121a882600083612303565b60008060008473ffffffffffffffffffffffffffffffffffffffff1673ffffffffffffffffffffffffffffffffffffffff1681526020019081526020016000205490508181101561222e576040517f08c379a000000000000000000000000000000000000000000000000000000000815260040161222590613b1c565b60405180910390fd5b8181036000808573ffffffffffffffffffffffffffffffffffffffff1673ffffffffffffffffffffffffffffffffffffffff1681526020019081526020016000208190555081600260008282546122859190613834565b92505081905550600073ffffffffffffffffffffffffffffffffffffffff168373ffffffffffffffffffffffffffffffffffffffff167fddf252ad1be2c89b69c2b068fc378daa952ba7f163c4a11628f55a4df523b3ef846040516122ea91906125e7565b60405180910390a36122fe83600084612308565b505050565b505050565b505050565b6000808273ffffffffffffffffffffffffffffffffffffffff163b119050919050565b6000818361233e9190613b3c565b905092915050565b600081836123549190612f78565b905092915050565b82805461236890612b10565b90600052602060002090601f01602090048101928261238a57600085556123d1565b82601f106123a357805160ff19168380011785556123d1565b828001600101855582156123d1579182015b828111156123d05782518255916020019190600101906123b5565b5b5090506123de91906123e2565b5090565b5b808211156123fb5760008160009055506001016123e3565b5090565b600081519050919050565b600082825260208201905092915050565b60005b8381101561243957808201518184015260208101905061241e565b83811115612448576000848401525b50505050565b6000601f19601f8301169050919050565b600061246a826123ff565b612474818561240a565b935061248481856020860161241b565b61248d8161244e565b840191505092915050565b600060208201905081810360008301526124b2818461245f565b905092915050565b6000604051905090565b600080fd5b600080fd5b600073ffffffffffffffffffffffffffffffffffffffff82169050919050565b60006124f9826124ce565b9050919050565b612509816124ee565b811461251457600080fd5b50565b60008135905061252681612500565b92915050565b6000819050919050565b61253f8161252c565b811461254a57600080fd5b50565b60008135905061255c81612536565b92915050565b60008060408385031215612579576125786124c4565b5b600061258785828601612517565b92505060206125988582860161254d565b9150509250929050565b60008115159050919050565b6125b7816125a2565b82525050565b60006020820190506125d260008301846125ae565b92915050565b6125e18161252c565b82525050565b60006020820190506125fc60008301846125d8565b92915050565b60008060006060848603121561261b5761261a6124c4565b5b600061262986828701612517565b935050602061263a86828701612517565b925050604061264b8682870161254d565b9150509250925092565b600060ff82169050919050565b61266b81612655565b82525050565b60006020820190506126866000830184612662565b92915050565b6000806000606084860312156126a5576126a46124c4565b5b60006126b386828701612517565b93505060206126c48682870161254d565b92505060406126d58682870161254d565b9150509250925092565b600080fd5b600080fd5b7f4e487b7100000000000000000000000000000000000000000000000000000000600052604160045260246000fd5b6127218261244e565b810181811067ffffffffffffffff821117156127405761273f6126e9565b5b80604052505050565b60006127536124ba565b905061275f8282612718565b919050565b600067ffffffffffffffff82111561277f5761277e6126e9565b5b6127888261244e565b9050602081019050919050565b82818337600083830152505050565b60006127b76127b284612764565b612749565b9050828152602081018484840111156127d3576127d26126e4565b5b6127de848285612795565b509392505050565b600082601f8301126127fb576127fa6126df565b5b813561280b8482602086016127a4565b91505092915050565b60008060008060008060c08789031215612831576128306124c4565b5b600061283f89828a01612517565b965050602087013567ffffffffffffffff8111156128605761285f6124c9565b5b61286c89828a016127e6565b955050604087013567ffffffffffffffff81111561288d5761288c6124c9565b5b61289989828a016127e6565b94505060606128aa89828a01612517565b93505060806128bb89828a0161254d565b92505060a06128cc89828a01612517565b9150509295509295509295565b6000602082840312156128ef576128ee6124c4565b5b60006128fd84828501612517565b91505092915050565b6000806040838503121561291d5761291c6124c4565b5b600061292b8582860161254d565b925050602061293c8582860161254d565b9150509250929050565b6000819050919050565b600061296b612966612961846124ce565b612946565b6124ce565b9050919050565b600061297d82612950565b9050919050565b600061298f82612972565b9050919050565b61299f81612984565b82525050565b60006020820190506129ba6000830184612996565b92915050565b6129c9816124ee565b82525050565b60006020820190506129e460008301846129c0565b92915050565b600080600080600060a08688031215612a0657612a056124c4565b5b6000612a1488828901612517565b9550506020612a2588828901612517565b9450506040612a368882890161254d565b9350506060612a478882890161254d565b9250506080612a588882890161254d565b9150509295509295909350565b60008060408385031215612a7c57612a7b6124c4565b5b6000612a8a85828601612517565b9250506020612a9b85828601612517565b9150509250929050565b6000612ab082612972565b9050919050565b612ac081612aa5565b82525050565b6000602082019050612adb6000830184612ab7565b92915050565b7f4e487b7100000000000000000000000000000000000000000000000000000000600052602260045260246000fd5b60006002820490506001821680612b2857607f821691505b60208210811415612b3c57612b3b612ae1565b5b50919050565b600081519050612b5181612500565b92915050565b600060208284031215612b6d57612b6c6124c4565b5b6000612b7b84828501612b42565b91505092915050565b7f73746b546f6b656e41646472206973206e6f7420736574210000000000000000600082015250565b6000612bba60188361240a565b9150612bc582612b84565b602082019050919050565b60006020820190508181036000830152612be981612bad565b9050919050565b7f64726f70696e6721000000000000000000000000000000000000000000000000600082015250565b6000612c2660088361240a565b9150612c3182612bf0565b602082019050919050565b60006020820190508181036000830152612c5581612c19565b9050919050565b600081519050612c6b81612536565b92915050565b600060208284031215612c8757612c866124c4565b5b6000612c9584828501612c5c565b91505092915050565b7f63616c54696d65206973207a65726f2100000000000000000000000000000000600082015250565b6000612cd460108361240a565b9150612cdf82612c9e565b602082019050919050565b60006020820190508181036000830152612d0381612cc7565b9050919050565b7f4c657373207468656e2066756e6473446f776e4c696d69742100000000000000600082015250565b6000612d4060198361240a565b9150612d4b82612d0a565b602082019050919050565b60006020820190508181036000830152612d6f81612d33565b9050919050565b600067ffffffffffffffff821115612d9157612d906126e9565b5b602082029050602081019050919050565b600080fd5b6000612dba612db584612d76565b612749565b90508083825260208201905060208402830185811115612ddd57612ddc612da2565b5b835b81811015612e065780612df28882612b42565b845260208401935050602081019050612ddf565b5050509392505050565b600082601f830112612e2557612e246126df565b5b8151612e35848260208601612da7565b91505092915050565b600060208284031215612e5457612e536124c4565b5b600082015167ffffffffffffffff811115612e7257612e716124c9565b5b612e7e84828501612e10565b91505092915050565b7f6d656d6265724164647273206973207a65726f21000000000000000000000000600082015250565b6000612ebd60148361240a565b9150612ec882612e87565b602082019050919050565b60006020820190508181036000830152612eec81612eb0565b9050919050565b7f4e487b7100000000000000000000000000000000000000000000000000000000600052601160045260246000fd5b6000612f2d8261252c565b9150612f388361252c565b9250827fffffffffffffffffffffffffffffffffffffffffffffffffffffffffffffffff03821115612f6d57612f6c612ef3565b5b828201905092915050565b6000612f838261252c565b9150612f8e8361252c565b9250817fffffffffffffffffffffffffffffffffffffffffffffffffffffffffffffffff0483118215151615612fc757612fc6612ef3565b5b828202905092915050565b7f49676f7665726e20736574656421000000000000000000000000000000000000600082015250565b6000613008600e8361240a565b915061301382612fd2565b602082019050919050565b6000602082019050818103600083015261303781612ffb565b9050919050565b7f6275726e3a20616d6f756e74206973207a65726f210000000000000000000000600082015250565b600061307460158361240a565b915061307f8261303e565b602082019050919050565b600060208201905081810360008301526130a381613067565b9050919050565b7f6275726e3a206d73672e73656e64657220697320696c6c6567616c2100000000600082015250565b60006130e0601c8361240a565b91506130eb826130aa565b602082019050919050565b6000602082019050818103600083015261310f816130d3565b9050919050565b7f45524332303a2064656372656173656420616c6c6f77616e63652062656c6f7760008201527f207a65726f000000000000000000000000000000000000000000000000000000602082015250565b600061317260258361240a565b915061317d82613116565b604082019050919050565b600060208201905081810360008301526131a181613165565b9050919050565b7f6c6f636b4c656173654d617267696e3a206d73672e73656e646572206973206960008201527f6c6c6567616c2100000000000000000000000000000000000000000000000000602082015250565b600061320460278361240a565b915061320f826131a8565b604082019050919050565b60006020820190508181036000830152613233816131f7565b9050919050565b7f6c6f636b4c656173654d617267696e3a205f66726f6d20697320696c6c65676160008201527f6c21000000000000000000000000000000000000000000000000000000000000602082015250565b600061329660228361240a565b91506132a18261323a565b604082019050919050565b600060208201905081810360008301526132c581613289565b9050919050565b7f6c6f636b4c656173654d617267696e3a205f6c6561736541646472206973206960008201527f6c6c6567616c2100000000000000000000000000000000000000000000000000602082015250565b600061332860278361240a565b9150613333826132cc565b604082019050919050565b600060208201905081810360008301526133578161331b565b9050919050565b7f6c6f636b4c656173654d617267696e3a205f706572696f64206973207a65726f60008201527f2100000000000000000000000000000000000000000000000000000000000000602082015250565b60006133ba60218361240a565b91506133c58261335e565b604082019050919050565b600060208201905081810360008301526133e9816133ad565b9050919050565b7f6c6f636b4c656173654d617267696e3a205f616d6f756e74206973207a65726f60008201527f2100000000000000000000000000000000000000000000000000000000000000602082015250565b600061344c60218361240a565b9150613457826133f0565b604082019050919050565b6000602082019050818103600083015261347b8161343f565b9050919050565b7f4e6f74206d616e6167656d656e74210000000000000000000000000000000000600082015250565b60006134b8600f8361240a565b91506134c382613482565b602082019050919050565b600060208201905081810360008301526134e7816134ab565b9050919050565b7f45524332303a20617070726f76652066726f6d20746865207a65726f2061646460008201527f7265737300000000000000000000000000000000000000000000000000000000602082015250565b600061354a60248361240a565b9150613555826134ee565b604082019050919050565b600060208201905081810360008301526135798161353d565b9050919050565b7f45524332303a20617070726f766520746f20746865207a65726f20616464726560008201527f7373000000000000000000000000000000000000000000000000000000000000602082015250565b60006135dc60228361240a565b91506135e782613580565b604082019050919050565b6000602082019050818103600083015261360b816135cf565b9050919050565b7f45524332303a20696e73756666696369656e7420616c6c6f77616e6365000000600082015250565b6000613648601d8361240a565b915061365382613612565b602082019050919050565b600060208201905081810360008301526136778161363b565b9050919050565b7f45524332303a207472616e736665722066726f6d20746865207a65726f20616460008201527f6472657373000000000000000000000000000000000000000000000000000000602082015250565b60006136da60258361240a565b91506136e58261367e565b604082019050919050565b60006020820190508181036000830152613709816136cd565b9050919050565b7f45524332303a207472616e7366657220746f20746865207a65726f206164647260008201527f6573730000000000000000000000000000000000000000000000000000000000602082015250565b600061376c60238361240a565b915061377782613710565b604082019050919050565b6000602082019050818103600083015261379b8161375f565b9050919050565b7f45524332303a207472616e7366657220616d6f756e742065786365656473206260008201527f616c616e63650000000000000000000000000000000000000000000000000000602082015250565b60006137fe60268361240a565b9150613809826137a2565b604082019050919050565b6000602082019050818103600083015261382d816137f1565b9050919050565b600061383f8261252c565b915061384a8361252c565b92508282101561385d5761385c612ef3565b5b828203905092915050565b7f4e487b7100000000000000000000000000000000000000000000000000000000600052601260045260246000fd5b60006138a28261252c565b91506138ad8361252c565b9250826138bd576138bc613868565b5b828204905092915050565b7f41697264726f703a204c4f434b45442100000000000000000000000000000000600082015250565b60006138fe60108361240a565b9150613909826138c8565b602082019050919050565b6000602082019050818103600083015261392d816138f1565b9050919050565b7f4e487b7100000000000000000000000000000000000000000000000000000000600052603260045260246000fd5b600061396e8261252c565b91507fffffffffffffffffffffffffffffffffffffffffffffffffffffffffffffffff8214156139a1576139a0612ef3565b5b600182019050919050565b7f45524332303a206d696e7420746f20746865207a65726f206164647265737300600082015250565b60006139e2601f8361240a565b91506139ed826139ac565b602082019050919050565b60006020820190508181036000830152613a11816139d5565b9050919050565b7f45524332303a206275726e2066726f6d20746865207a65726f2061646472657360008201527f7300000000000000000000000000000000000000000000000000000000000000602082015250565b6000613a7460218361240a565b9150613a7f82613a18565b604082019050919050565b60006020820190508181036000830152613aa381613a67565b9050919050565b7f45524332303a206275726e20616d6f756e7420657863656564732062616c616e60008201527f6365000000000000000000000000000000000000000000000000000000000000602082015250565b6000613b0660228361240a565b9150613b1182613aaa565b604082019050919050565b60006020820190508181036000830152613b3581613af9565b9050919050565b6000613b478261252c565b9150613b528361252c565b925082613b6257613b61613868565b5b82820690509291505056fea26469706673582212205ee537fba6fb9ad6837562022a19374ab6c40116383ee3f465a0c9b818e85c3b64736f6c634300080c0033",
  "immutableReferences": {},
  "source": "// SPDX-License-Identifier: GPL-3.0-only\npragma solidity ^0.8.0;\nimport \"./ERC20.sol\";\nimport \"@openzeppelin/contracts/utils/math/SafeMath.sol\";\nimport \"@openzeppelin/contracts/utils/Address.sol\";\n\ninterface IGovernance {\n    function stkTokenAddr() external view returns (address);\n\n    function getCalTime() external view returns (uint256);\n\n    function getFundsDownLimit() external view returns (uint256);\n\n    function getZeroTimeLimit() external view returns (uint256);\n\n    function dropProportion() external view returns (uint256);\n\n    function dayLen() external view returns (uint256);\n}\n\ninterface IPool {\n    function getMemberAddrs() external view returns (address[] memory);\n\n    function memberTimes(address _account) external view returns (uint256);\n\n    function balanceOf(address _account) external view returns (uint256);\n\n    function totalSupply() external view returns (uint256);\n}\n\ncontract Airdrop is ERC20 {\n    using SafeMath for uint256;\n\n    IGovernance public Igovern;\n    IPool public Ipool;\n\n    //\n    uint256 public dropLastTime = 0;\n    //lock\n    bool private unlocked = true;\n    //\n    mapping(address => mapping(uint256 => uint256)) public lockInfos;\n    //sudo\n    address public owner;\n\n    constructor() ERC20(\"THIS IS A REWARD TOKEN\", \"retMOVR\") {}\n\n    //,_amountWei\n    function initialize(\n        address _governAddr,\n        string memory name_,\n        string memory symbol_,\n        address _account,\n        uint256 _amount,\n        address _owner\n    ) external {\n        require(address(Igovern) == address(0), \"Igovern seted!\");\n        if (_amount > 0) {\n            _mint(_account, _amount);\n        }\n        _name = name_;\n        _symbol = symbol_;\n        Igovern = IGovernance(_governAddr);\n        owner = _owner;\n        //constant\n        unlocked = true;\n    }\n\n    modifier isOwner() {\n        require(msg.sender == owner, \"Not management!\");\n        _;\n    }\n\n    function setGovernAddr(address _governAddr) public isOwner {\n        Igovern = IGovernance(_governAddr);\n    }\n\n    modifier lock() {\n        require(unlocked, \"Airdrop: LOCKED!\");\n        unlocked = false;\n        _;\n        unlocked = true;\n    }\n\n    //\n    function droping(address[] memory _memberAddrs, uint256 _calTime)\n        private\n        lock\n    {\n        // uint256 balance = Ipool.balance();\n        // uint256 totalSupply = Ipool.totalSupply();\n        for (uint256 i = 0; i < _memberAddrs.length; i++) {\n            address account = _memberAddrs[i];\n            uint256 memberTime = Ipool.memberTimes(account);\n            uint256 amount = Ipool.balanceOf(account);\n            if (\n                !Address.isContract(account) && //\n                memberTime > 0 &&\n                amount > 0\n            ) {\n                //_calTime\n                uint256 day = (block.timestamp).sub(memberTime).div(\n                    60 * 60 * 24\n                );\n                if (day > 0 && day.mod(_calTime) == 0) {\n                    //token\n                    // amount = balance.mul(amount).mul(Igovern.dropProportion).div(totalSupply).div(100);\n                    //stktoken\n                    amount = amount.mul(Igovern.dropProportion()).div(100);\n                    _mint(account, amount);\n                }\n            }\n        }\n    }\n\n    //\n    function startDrop() public {\n        //\n        require(\n            Igovern.stkTokenAddr() != address(0),\n            \"stkTokenAddr is not set!\"\n        );\n        require(\n            (block.timestamp).sub(dropLastTime).div(60 * 60 * 24) > 0,\n            \"droping!\"\n        );\n        uint256 calTime = Igovern.getCalTime();\n        require(calTime > 0, \"calTime is zero!\");\n        Ipool = IPool(Igovern.stkTokenAddr());\n        require(\n            Ipool.totalSupply() >= Igovern.getFundsDownLimit(),\n            \"Less then fundsDownLimit!\"\n        );\n        address[] memory memberAddrs = Ipool.getMemberAddrs();\n        require(memberAddrs.length > 0, \"memberAddrs is zero!\");\n        dropLastTime = block.timestamp;\n        droping(memberAddrs, calTime);\n    }\n\n    //,_amountWei\n    function burn(address _account, uint256 _amount) public {\n        require(_amount > 0, \"burn: amount is zero!\");\n        //\n        require(\n            Igovern.stkTokenAddr() == msg.sender,\n            \"burn: msg.sender is illegal!\"\n        ); //Pool\n        _burn(_account, _amount);\n    }\n\n    //retToken,_amountWei\n    function lockLeaseMargin(\n        address _from,\n        address _leaseAddr,\n        uint256 _leaseDate,\n        uint256 _period,\n        uint256 _amount\n    ) public {\n        require(\n            Igovern.stkTokenAddr() == msg.sender,\n            \"lockLeaseMargin: msg.sender is illegal!\"\n        ); //Pool\n        require(_from != address(0), \"lockLeaseMargin: _from is illegal!\");\n        require(\n            _leaseAddr != address(0),\n            \"lockLeaseMargin: _leaseAddr is illegal!\"\n        );\n        require(_period > 0, \"lockLeaseMargin: _period is zero!\");\n        require(_amount > 0, \"lockLeaseMargin: _amount is zero!\");\n        lockInfos[_leaseAddr][_leaseDate] = _period;\n        _transfer(_from, _leaseAddr, _amount);\n    }\n\n    //retToken,_amountWei\n    function unlockLeaseMargin(\n        address _account,\n        uint256 _leaseDate,\n        uint256 _amount\n    ) public {\n        uint256 period = lockInfos[msg.sender][_leaseDate];\n        if (\n            period > 0 &&\n            _leaseDate.add(period * Igovern.dayLen()) <=\n            block.timestamp.div(24 * 60 * 60)\n        ) {\n            _transfer(msg.sender, _account, _amount);\n        }\n    }\n\n    //retToken,_amountWei\n    function zeroIncomePunish(uint256 _leaseDate, uint256 _amount) public {\n        uint256 period = lockInfos[msg.sender][_leaseDate];\n        if (\n            period > 0 &&\n            _leaseDate.add(Igovern.getZeroTimeLimit()) <=\n            block.timestamp.div(24 * 60 * 60)\n        ) {\n            _burn(msg.sender, _amount);\n        }\n    }\n}\n",
  "sourcePath": "D:\\\\vueDao\\StakeFinance\\truffle-dev\\contracts\\Airdrop.sol",
  "compiler": {
    "name": "solc",
    "version": "0.8.12+commit.f00d7308.Emscripten.clang"
  },
  "schemaVersion": "3.4.5",
  "updatedAt": "2022-06-20T02:52:10.353Z",
  "devdoc": {
    "kind": "dev",
    "methods": {
      "allowance(address,address)": {
        "details": "See {IERC20-allowance}."
      },
      "approve(address,uint256)": {
        "details": "See {IERC20-approve}. NOTE: If `amount` is the maximum `uint256`, the allowance is not updated on `transferFrom`. This is semantically equivalent to an infinite approval. Requirements: - `spender` cannot be the zero address."
      },
      "balanceOf(address)": {
        "details": "See {IERC20-balanceOf}."
      },
      "decimals()": {
        "details": "Returns the number of decimals used to get its user representation. For example, if `decimals` equals `2`, a balance of `505` tokens should be displayed to a user as `5.05` (`505 / 10 ** 2`). Tokens usually opt for a value of 18, imitating the relationship between Ether and Wei. This is the value {ERC20} uses, unless this function is overridden; NOTE: This information is only used for _display_ purposes: it in no way affects any of the arithmetic of the contract, including {IERC20-balanceOf} and {IERC20-transfer}."
      },
      "decreaseAllowance(address,uint256)": {
        "details": "Atomically decreases the allowance granted to `spender` by the caller. This is an alternative to {approve} that can be used as a mitigation for problems described in {IERC20-approve}. Emits an {Approval} event indicating the updated allowance. Requirements: - `spender` cannot be the zero address. - `spender` must have allowance for the caller of at least `subtractedValue`."
      },
      "increaseAllowance(address,uint256)": {
        "details": "Atomically increases the allowance granted to `spender` by the caller. This is an alternative to {approve} that can be used as a mitigation for problems described in {IERC20-approve}. Emits an {Approval} event indicating the updated allowance. Requirements: - `spender` cannot be the zero address."
      },
      "name()": {
        "details": "Returns the name of the token."
      },
      "symbol()": {
        "details": "Returns the symbol of the token, usually a shorter version of the name."
      },
      "totalSupply()": {
        "details": "See {IERC20-totalSupply}."
      },
      "transfer(address,uint256)": {
        "details": "See {IERC20-transfer}. Requirements: - `to` cannot be the zero address. - the caller must have a balance of at least `amount`."
      },
      "transferFrom(address,address,uint256)": {
        "details": "See {IERC20-transferFrom}. Emits an {Approval} event indicating the updated allowance. This is not required by the EIP. See the note at the beginning of {ERC20}. NOTE: Does not update the allowance if the current allowance is the maximum `uint256`. Requirements: - `from` and `to` cannot be the zero address. - `from` must have a balance of at least `amount`. - the caller must have allowance for ``from``'s tokens of at least `amount`."
      }
    },
    "version": 1
  },
  "userdoc": {
    "kind": "user",
    "methods": {},
    "version": 1
  }
}