{
  "contractName": "Factory",
  "abi": [
    {
      "anonymous": false,
      "inputs": [
        {
          "indexed": true,
          "internalType": "address",
          "name": "previousOwner",
          "type": "address"
        },
        {
          "indexed": true,
          "internalType": "address",
          "name": "newOwner",
          "type": "address"
        }
      ],
      "name": "OwnershipTransferred",
      "type": "event"
    },
    {
      "inputs": [],
      "name": "airdropModelAddr",
      "outputs": [
        {
          "internalType": "address",
          "name": "",
          "type": "address"
        }
      ],
      "stateMutability": "view",
      "type": "function"
    },
    {
      "inputs": [],
      "name": "faucetModelAddr",
      "outputs": [
        {
          "internalType": "address",
          "name": "",
          "type": "address"
        }
      ],
      "stateMutability": "view",
      "type": "function"
    },
    {
      "inputs": [],
      "name": "governModelAddr",
      "outputs": [
        {
          "internalType": "address",
          "name": "",
          "type": "address"
        }
      ],
      "stateMutability": "view",
      "type": "function"
    },
    {
      "inputs": [],
      "name": "len",
      "outputs": [
        {
          "internalType": "uint256",
          "name": "",
          "type": "uint256"
        }
      ],
      "stateMutability": "view",
      "type": "function"
    },
    {
      "inputs": [],
      "name": "owner",
      "outputs": [
        {
          "internalType": "address",
          "name": "",
          "type": "address"
        }
      ],
      "stateMutability": "view",
      "type": "function"
    },
    {
      "inputs": [],
      "name": "poolModelAddr",
      "outputs": [
        {
          "internalType": "address",
          "name": "",
          "type": "address"
        }
      ],
      "stateMutability": "view",
      "type": "function"
    },
    {
      "inputs": [],
      "name": "renounceOwnership",
      "outputs": [],
      "stateMutability": "nonpayable",
      "type": "function"
    },
    {
      "inputs": [],
      "name": "rewardModelAddr",
      "outputs": [
        {
          "internalType": "address",
          "name": "",
          "type": "address"
        }
      ],
      "stateMutability": "view",
      "type": "function"
    },
    {
      "inputs": [],
      "name": "searchModelAddr",
      "outputs": [
        {
          "internalType": "address",
          "name": "",
          "type": "address"
        }
      ],
      "stateMutability": "view",
      "type": "function"
    },
    {
      "inputs": [
        {
          "internalType": "address",
          "name": "newOwner",
          "type": "address"
        }
      ],
      "name": "transferOwnership",
      "outputs": [],
      "stateMutability": "nonpayable",
      "type": "function"
    },
    {
      "inputs": [
        {
          "internalType": "uint256",
          "name": "_authorAmount",
          "type": "uint256"
        },
        {
          "internalType": "uint256",
          "name": "_blockHeight",
          "type": "uint256"
        },
        {
          "internalType": "string",
          "name": "_stkName",
          "type": "string"
        },
        {
          "internalType": "string",
          "name": "_stkSymbol",
          "type": "string"
        },
        {
          "internalType": "string",
          "name": "_retName",
          "type": "string"
        },
        {
          "internalType": "string",
          "name": "_retSymbol",
          "type": "string"
        },
        {
          "internalType": "uint256",
          "name": "_retAmount",
          "type": "uint256"
        }
      ],
      "name": "createDAO",
      "outputs": [],
      "stateMutability": "nonpayable",
      "type": "function"
    },
    {
      "inputs": [
        {
          "internalType": "address",
          "name": "_modelAddr",
          "type": "address"
        }
      ],
      "name": "setGovernModelAddr",
      "outputs": [],
      "stateMutability": "nonpayable",
      "type": "function"
    },
    {
      "inputs": [
        {
          "internalType": "address",
          "name": "_modelAddr",
          "type": "address"
        }
      ],
      "name": "setPoolModelAddr",
      "outputs": [],
      "stateMutability": "nonpayable",
      "type": "function"
    },
    {
      "inputs": [
        {
          "internalType": "address",
          "name": "_modelAddr",
          "type": "address"
        }
      ],
      "name": "setAirdropModelAddr",
      "outputs": [],
      "stateMutability": "nonpayable",
      "type": "function"
    },
    {
      "inputs": [
        {
          "internalType": "address",
          "name": "_modelAddr",
          "type": "address"
        }
      ],
      "name": "setRewardModelAddr",
      "outputs": [],
      "stateMutability": "nonpayable",
      "type": "function"
    },
    {
      "inputs": [
        {
          "internalType": "address",
          "name": "_modelAddr",
          "type": "address"
        }
      ],
      "name": "setFaucetModelAddr",
      "outputs": [],
      "stateMutability": "nonpayable",
      "type": "function"
    },
    {
      "inputs": [
        {
          "internalType": "address",
          "name": "_modelAddr",
          "type": "address"
        }
      ],
      "name": "setSearchModelAddr",
      "outputs": [],
      "stateMutability": "nonpayable",
      "type": "function"
    },
    {
      "inputs": [
        {
          "internalType": "uint256",
          "name": "_index",
          "type": "uint256"
        }
      ],
      "name": "getDaoAddrs",
      "outputs": [
        {
          "internalType": "address[]",
          "name": "",
          "type": "address[]"
        }
      ],
      "stateMutability": "view",
      "type": "function"
    }
  ],
  "bytecode": "0x6080604052600060025534801561001557600080fd5b5061003261002761003760201b60201c565b61003f60201b60201c565b610103565b600033905090565b60008060009054906101000a900473ffffffffffffffffffffffffffffffffffffffff169050816000806101000a81548173ffffffffffffffffffffffffffffffffffffffff021916908373ffffffffffffffffffffffffffffffffffffffff1602179055508173ffffffffffffffffffffffffffffffffffffffff168173ffffffffffffffffffffffffffffffffffffffff167f8be0079c531659141344cd1fd0a4f28419497f9722a3daafe3b4186f6b6457e060405160405180910390a35050565b61226f80620001136000396000f3fe608060405234801561001057600080fd5b50600436106101165760003560e01c806374339cf7116100a2578063b28f3b8e11610071578063b28f3b8e14610291578063be4c7942146102af578063c479b452146102cd578063c62baedf146102eb578063f2fde38b1461030957610116565b806374339cf71461020b5780638da5cb5b14610227578063a66a8b5d14610245578063a74adec71461027557610116565b80634277c7cb116100e95780634277c7cb1461018d57806351f67ff3146101ab57806356d88e27146101c75780635c298412146101e5578063715018a61461020157610116565b806305a2fb7c1461011b5780630fd4fa181461013757806318626d9a14610153578063217366eb14610171575b600080fd5b610135600480360381019061013091906119c0565b610325565b005b610151600480360381019061014c91906119c0565b6103e5565b005b61015b6104a5565b60405161016891906119fc565b60405180910390f35b61018b600480360381019061018691906119c0565b6104cb565b005b61019561058b565b6040516101a291906119fc565b60405180910390f35b6101c560048036038101906101c09190611b93565b6105b1565b005b6101cf610df0565b6040516101dc9190611cb4565b60405180910390f35b6101ff60048036038101906101fa91906119c0565b610df6565b005b610209610eb6565b005b610225600480360381019061022091906119c0565b610f3e565b005b61022f610ffe565b60405161023c91906119fc565b60405180910390f35b61025f600480360381019061025a9190611ccf565b611027565b60405161026c9190611dba565b60405180910390f35b61028f600480360381019061028a91906119c0565b6115c8565b005b610299611688565b6040516102a691906119fc565b60405180910390f35b6102b76116ae565b6040516102c491906119fc565b60405180910390f35b6102d56116d4565b6040516102e291906119fc565b60405180910390f35b6102f36116fa565b60405161030091906119fc565b60405180910390f35b610323600480360381019061031e91906119c0565b611720565b005b61032d611818565b73ffffffffffffffffffffffffffffffffffffffff1661034b610ffe565b73ffffffffffffffffffffffffffffffffffffffff16146103a1576040517f08c379a000000000000000000000000000000000000000000000000000000000815260040161039890611e39565b60405180910390fd5b80600360006101000a81548173ffffffffffffffffffffffffffffffffffffffff021916908373ffffffffffffffffffffffffffffffffffffffff16021790555050565b6103ed611818565b73ffffffffffffffffffffffffffffffffffffffff1661040b610ffe565b73ffffffffffffffffffffffffffffffffffffffff1614610461576040517f08c379a000000000000000000000000000000000000000000000000000000000815260040161045890611e39565b60405180910390fd5b80600660006101000a81548173ffffffffffffffffffffffffffffffffffffffff021916908373ffffffffffffffffffffffffffffffffffffffff16021790555050565b600660009054906101000a900473ffffffffffffffffffffffffffffffffffffffff1681565b6104d3611818565b73ffffffffffffffffffffffffffffffffffffffff166104f1610ffe565b73ffffffffffffffffffffffffffffffffffffffff1614610547576040517f08c379a000000000000000000000000000000000000000000000000000000000815260040161053e90611e39565b60405180910390fd5b80600760006101000a81548173ffffffffffffffffffffffffffffffffffffffff021916908373ffffffffffffffffffffffffffffffffffffffff16021790555050565b600860009054906101000a900473ffffffffffffffffffffffffffffffffffffffff1681565b6105b9611818565b73ffffffffffffffffffffffffffffffffffffffff166105d7610ffe565b73ffffffffffffffffffffffffffffffffffffffff161461062d576040517f08c379a000000000000000000000000000000000000000000000000000000000815260040161062490611e39565b60405180910390fd5b600073ffffffffffffffffffffffffffffffffffffffff16600360009054906101000a900473ffffffffffffffffffffffffffffffffffffffff1673ffffffffffffffffffffffffffffffffffffffff16141580156106db5750600073ffffffffffffffffffffffffffffffffffffffff16600460009054906101000a900473ffffffffffffffffffffffffffffffffffffffff1673ffffffffffffffffffffffffffffffffffffffff1614155b80156107365750600073ffffffffffffffffffffffffffffffffffffffff16600560009054906101000a900473ffffffffffffffffffffffffffffffffffffffff1673ffffffffffffffffffffffffffffffffffffffff1614155b80156107915750600073ffffffffffffffffffffffffffffffffffffffff16600660009054906101000a900473ffffffffffffffffffffffffffffffffffffffff1673ffffffffffffffffffffffffffffffffffffffff1614155b80156107ec5750600073ffffffffffffffffffffffffffffffffffffffff16600760009054906101000a900473ffffffffffffffffffffffffffffffffffffffff1673ffffffffffffffffffffffffffffffffffffffff1614155b80156108475750600073ffffffffffffffffffffffffffffffffffffffff16600860009054906101000a900473ffffffffffffffffffffffffffffffffffffffff1673ffffffffffffffffffffffffffffffffffffffff1614155b610886576040517f08c379a000000000000000000000000000000000000000000000000000000000815260040161087d90611ea5565b60405180910390fd5b60006108b3600360009054906101000a900473ffffffffffffffffffffffffffffffffffffffff16611820565b90508073ffffffffffffffffffffffffffffffffffffffff1663a6ab36f28989336040518463ffffffff1660e01b81526004016108f293929190611ec5565b600060405180830381600087803b15801561090c57600080fd5b505af1158015610920573d6000803e3d6000fd5b505050506000610951600460009054906101000a900473ffffffffffffffffffffffffffffffffffffffff16611820565b90508073ffffffffffffffffffffffffffffffffffffffff1663362925c283338a8a600760009054906101000a900473ffffffffffffffffffffffffffffffffffffffff166040518663ffffffff1660e01b81526004016109b6959493929190611f73565b600060405180830381600087803b1580156109d057600080fd5b505af11580156109e4573d6000803e3d6000fd5b505050508173ffffffffffffffffffffffffffffffffffffffff166377d2e24b826040518263ffffffff1660e01b8152600401610a2191906119fc565b600060405180830381600087803b158015610a3b57600080fd5b505af1158015610a4f573d6000803e3d6000fd5b505050506000610a80600560009054906101000a900473ffffffffffffffffffffffffffffffffffffffff16611820565b90508073ffffffffffffffffffffffffffffffffffffffff1663650b4f8b8488883389336040518763ffffffff1660e01b8152600401610ac596959493929190611fd4565b600060405180830381600087803b158015610adf57600080fd5b505af1158015610af3573d6000803e3d6000fd5b505050508273ffffffffffffffffffffffffffffffffffffffff16636ec13680826040518263ffffffff1660e01b8152600401610b3091906119fc565b600060405180830381600087803b158015610b4a57600080fd5b505af1158015610b5e573d6000803e3d6000fd5b505050506000610b8f600660009054906101000a900473ffffffffffffffffffffffffffffffffffffffff16611820565b90508073ffffffffffffffffffffffffffffffffffffffff1663485cc95585336040518363ffffffff1660e01b8152600401610bcc929190612043565b600060405180830381600087803b158015610be657600080fd5b505af1158015610bfa573d6000803e3d6000fd5b505050508373ffffffffffffffffffffffffffffffffffffffff166309664afe826040518263ffffffff1660e01b8152600401610c3791906119fc565b600060405180830381600087803b158015610c5157600080fd5b505af1158015610c65573d6000803e3d6000fd5b505050506000610c96600860009054906101000a900473ffffffffffffffffffffffffffffffffffffffff16611820565b90508073ffffffffffffffffffffffffffffffffffffffff1663f8c8765e868685876040518563ffffffff1660e01b8152600401610cd7949392919061206c565b600060405180830381600087803b158015610cf157600080fd5b505af1158015610d05573d6000803e3d6000fd5b505050508473ffffffffffffffffffffffffffffffffffffffff16633ec9807b826040518263ffffffff1660e01b8152600401610d4291906119fc565b600060405180830381600087803b158015610d5c57600080fd5b505af1158015610d70573d6000803e3d6000fd5b505050508460016000600254815260200190815260200160002060006101000a81548173ffffffffffffffffffffffffffffffffffffffff021916908373ffffffffffffffffffffffffffffffffffffffff160217905550600160026000828254610ddb91906120e0565b92505081905550505050505050505050505050565b60025481565b610dfe611818565b73ffffffffffffffffffffffffffffffffffffffff16610e1c610ffe565b73ffffffffffffffffffffffffffffffffffffffff1614610e72576040517f08c379a0000000000000000000000000000000000000000000000000000000008152600401610e6990611e39565b60405180910390fd5b80600560006101000a81548173ffffffffffffffffffffffffffffffffffffffff021916908373ffffffffffffffffffffffffffffffffffffffff16021790555050565b610ebe611818565b73ffffffffffffffffffffffffffffffffffffffff16610edc610ffe565b73ffffffffffffffffffffffffffffffffffffffff1614610f32576040517f08c379a0000000000000000000000000000000000000000000000000000000008152600401610f2990611e39565b60405180910390fd5b610f3c600061188a565b565b610f46611818565b73ffffffffffffffffffffffffffffffffffffffff16610f64610ffe565b73ffffffffffffffffffffffffffffffffffffffff1614610fba576040517f08c379a0000000000000000000000000000000000000000000000000000000008152600401610fb190611e39565b60405180910390fd5b80600860006101000a81548173ffffffffffffffffffffffffffffffffffffffff021916908373ffffffffffffffffffffffffffffffffffffffff16021790555050565b60008060009054906101000a900473ffffffffffffffffffffffffffffffffffffffff16905090565b60606000600667ffffffffffffffff81111561104657611045611a68565b5b6040519080825280602002602001820160405280156110745781602001602082028036833780820191505090505b509050600073ffffffffffffffffffffffffffffffffffffffff166001600085815260200190815260200160002060009054906101000a900473ffffffffffffffffffffffffffffffffffffffff1673ffffffffffffffffffffffffffffffffffffffff16146115bf5760006001600085815260200190815260200160002060009054906101000a900473ffffffffffffffffffffffffffffffffffffffff1690506001600085815260200190815260200160002060009054906101000a900473ffffffffffffffffffffffffffffffffffffffff168260008151811061115e5761115d612136565b5b602002602001019073ffffffffffffffffffffffffffffffffffffffff16908173ffffffffffffffffffffffffffffffffffffffff16815250508073ffffffffffffffffffffffffffffffffffffffff166308c17a4a6040518163ffffffff1660e01b8152600401602060405180830381865afa1580156111e3573d6000803e3d6000fd5b505050506040513d601f19601f82011682018060405250810190611207919061217a565b8260018151811061121b5761121a612136565b5b602002602001019073ffffffffffffffffffffffffffffffffffffffff16908173ffffffffffffffffffffffffffffffffffffffff16815250508073ffffffffffffffffffffffffffffffffffffffff1663d1d25fab6040518163ffffffff1660e01b8152600401602060405180830381865afa1580156112a0573d6000803e3d6000fd5b505050506040513d601f19601f820116820180604052508101906112c4919061217a565b826002815181106112d8576112d7612136565b5b602002602001019073ffffffffffffffffffffffffffffffffffffffff16908173ffffffffffffffffffffffffffffffffffffffff16815250508073ffffffffffffffffffffffffffffffffffffffff16637015e95e6040518163ffffffff1660e01b8152600401602060405180830381865afa15801561135d573d6000803e3d6000fd5b505050506040513d601f19601f82011682018060405250810190611381919061217a565b8260038151811061139557611394612136565b5b602002602001019073ffffffffffffffffffffffffffffffffffffffff16908173ffffffffffffffffffffffffffffffffffffffff16815250508073ffffffffffffffffffffffffffffffffffffffff1663bf1090256040518163ffffffff1660e01b8152600401602060405180830381865afa15801561141a573d6000803e3d6000fd5b505050506040513d601f19601f8201168201806040525081019061143e919061217a565b8260048151811061145257611451612136565b5b602002602001019073ffffffffffffffffffffffffffffffffffffffff16908173ffffffffffffffffffffffffffffffffffffffff168152505060008173ffffffffffffffffffffffffffffffffffffffff166308c17a4a6040518163ffffffff1660e01b8152600401602060405180830381865afa1580156114d9573d6000803e3d6000fd5b505050506040513d601f19601f820116820180604052508101906114fd919061217a565b90508073ffffffffffffffffffffffffffffffffffffffff1663b28f3b8e6040518163ffffffff1660e01b8152600401602060405180830381865afa15801561154a573d6000803e3d6000fd5b505050506040513d601f19601f8201168201806040525081019061156e919061217a565b8360058151811061158257611581612136565b5b602002602001019073ffffffffffffffffffffffffffffffffffffffff16908173ffffffffffffffffffffffffffffffffffffffff168152505050505b80915050919050565b6115d0611818565b73ffffffffffffffffffffffffffffffffffffffff166115ee610ffe565b73ffffffffffffffffffffffffffffffffffffffff1614611644576040517f08c379a000000000000000000000000000000000000000000000000000000000815260040161163b90611e39565b60405180910390fd5b80600460006101000a81548173ffffffffffffffffffffffffffffffffffffffff021916908373ffffffffffffffffffffffffffffffffffffffff16021790555050565b600760009054906101000a900473ffffffffffffffffffffffffffffffffffffffff1681565b600560009054906101000a900473ffffffffffffffffffffffffffffffffffffffff1681565b600460009054906101000a900473ffffffffffffffffffffffffffffffffffffffff1681565b600360009054906101000a900473ffffffffffffffffffffffffffffffffffffffff1681565b611728611818565b73ffffffffffffffffffffffffffffffffffffffff16611746610ffe565b73ffffffffffffffffffffffffffffffffffffffff161461179c576040517f08c379a000000000000000000000000000000000000000000000000000000000815260040161179390611e39565b60405180910390fd5b600073ffffffffffffffffffffffffffffffffffffffff168173ffffffffffffffffffffffffffffffffffffffff16141561180c576040517f08c379a000000000000000000000000000000000000000000000000000000000815260040161180390612219565b60405180910390fd5b6118158161188a565b50565b600033905090565b6000808260601b90506040517f3d602d80600a3d3981f3363d3d373d3d3d363d7300000000000000000000000081528160148201527f5af43d82803e903d91602b57fd5bf3000000000000000000000000000000000060288201526037816000f092505050919050565b60008060009054906101000a900473ffffffffffffffffffffffffffffffffffffffff169050816000806101000a81548173ffffffffffffffffffffffffffffffffffffffff021916908373ffffffffffffffffffffffffffffffffffffffff1602179055508173ffffffffffffffffffffffffffffffffffffffff168173ffffffffffffffffffffffffffffffffffffffff167f8be0079c531659141344cd1fd0a4f28419497f9722a3daafe3b4186f6b6457e060405160405180910390a35050565b6000604051905090565b600080fd5b600080fd5b600073ffffffffffffffffffffffffffffffffffffffff82169050919050565b600061198d82611962565b9050919050565b61199d81611982565b81146119a857600080fd5b50565b6000813590506119ba81611994565b92915050565b6000602082840312156119d6576119d5611958565b5b60006119e4848285016119ab565b91505092915050565b6119f681611982565b82525050565b6000602082019050611a1160008301846119ed565b92915050565b6000819050919050565b611a2a81611a17565b8114611a3557600080fd5b50565b600081359050611a4781611a21565b92915050565b600080fd5b600080fd5b6000601f19601f8301169050919050565b7f4e487b7100000000000000000000000000000000000000000000000000000000600052604160045260246000fd5b611aa082611a57565b810181811067ffffffffffffffff82111715611abf57611abe611a68565b5b80604052505050565b6000611ad261194e565b9050611ade8282611a97565b919050565b600067ffffffffffffffff821115611afe57611afd611a68565b5b611b0782611a57565b9050602081019050919050565b82818337600083830152505050565b6000611b36611b3184611ae3565b611ac8565b905082815260208101848484011115611b5257611b51611a52565b5b611b5d848285611b14565b509392505050565b600082601f830112611b7a57611b79611a4d565b5b8135611b8a848260208601611b23565b91505092915050565b600080600080600080600060e0888a031215611bb257611bb1611958565b5b6000611bc08a828b01611a38565b9750506020611bd18a828b01611a38565b965050604088013567ffffffffffffffff811115611bf257611bf161195d565b5b611bfe8a828b01611b65565b955050606088013567ffffffffffffffff811115611c1f57611c1e61195d565b5b611c2b8a828b01611b65565b945050608088013567ffffffffffffffff811115611c4c57611c4b61195d565b5b611c588a828b01611b65565b93505060a088013567ffffffffffffffff811115611c7957611c7861195d565b5b611c858a828b01611b65565b92505060c0611c968a828b01611a38565b91505092959891949750929550565b611cae81611a17565b82525050565b6000602082019050611cc96000830184611ca5565b92915050565b600060208284031215611ce557611ce4611958565b5b6000611cf384828501611a38565b91505092915050565b600081519050919050565b600082825260208201905092915050565b6000819050602082019050919050565b611d3181611982565b82525050565b6000611d438383611d28565b60208301905092915050565b6000602082019050919050565b6000611d6782611cfc565b611d718185611d07565b9350611d7c83611d18565b8060005b83811015611dad578151611d948882611d37565b9750611d9f83611d4f565b925050600181019050611d80565b5085935050505092915050565b60006020820190508181036000830152611dd48184611d5c565b905092915050565b600082825260208201905092915050565b7f4f776e61626c653a2063616c6c6572206973206e6f7420746865206f776e6572600082015250565b6000611e23602083611ddc565b9150611e2e82611ded565b602082019050919050565b60006020820190508181036000830152611e5281611e16565b9050919050565b7f4d6f64656c41646472657373206e6f7420736574656421000000000000000000600082015250565b6000611e8f601783611ddc565b9150611e9a82611e59565b602082019050919050565b60006020820190508181036000830152611ebe81611e82565b9050919050565b6000606082019050611eda6000830186611ca5565b611ee76020830185611ca5565b611ef460408301846119ed565b949350505050565b600081519050919050565b60005b83811015611f25578082015181840152602081019050611f0a565b83811115611f34576000848401525b50505050565b6000611f4582611efc565b611f4f8185611ddc565b9350611f5f818560208601611f07565b611f6881611a57565b840191505092915050565b600060a082019050611f8860008301886119ed565b611f9560208301876119ed565b8181036040830152611fa78186611f3a565b90508181036060830152611fbb8185611f3a565b9050611fca60808301846119ed565b9695505050505050565b600060c082019050611fe960008301896119ed565b8181036020830152611ffb8188611f3a565b9050818103604083015261200f8187611f3a565b905061201e60608301866119ed565b61202b6080830185611ca5565b61203860a08301846119ed565b979650505050505050565b600060408201905061205860008301856119ed565b61206560208301846119ed565b9392505050565b600060808201905061208160008301876119ed565b61208e60208301866119ed565b61209b60408301856119ed565b6120a860608301846119ed565b95945050505050565b7f4e487b7100000000000000000000000000000000000000000000000000000000600052601160045260246000fd5b60006120eb82611a17565b91506120f683611a17565b9250827fffffffffffffffffffffffffffffffffffffffffffffffffffffffffffffffff0382111561212b5761212a6120b1565b5b828201905092915050565b7f4e487b7100000000000000000000000000000000000000000000000000000000600052603260045260246000fd5b60008151905061217481611994565b92915050565b6000602082840312156121905761218f611958565b5b600061219e84828501612165565b91505092915050565b7f4f776e61626c653a206e6577206f776e657220697320746865207a65726f206160008201527f6464726573730000000000000000000000000000000000000000000000000000602082015250565b6000612203602683611ddc565b915061220e826121a7565b604082019050919050565b60006020820190508181036000830152612232816121f6565b905091905056fea264697066735822122022f3fb5ece3782f7b052256e471c9d6c74cd7af5e1758211648bf1bb0fcf1c4b64736f6c634300080c0033",
  "immutableReferences": {},
  "source": "// SPDX-License-Identifier: GPL-3.0-only\npragma solidity ^0.8.0;\nimport \"@openzeppelin/contracts/access/Ownable.sol\";\n\ninterface IGovernance{\n    function initialize(\n        uint256 _authorAmount,\n        uint _blockHeight,\n        address _owner\n    ) external;\n    function setStkTokenAddr(address _stkTokenAddr) external;\n    function setRetTokenAddr(address _retTokenAddr) external;\n    function setRewardAddr(address _rewardAddr) external;\n    function setSearchAddr(address _searchAddr) external;\n    function stkTokenAddr() external view returns (address);\n    function retTokenAddr() external view returns (address);\n    function rewardAddr() external view returns (address);\n    function searchAddr() external view returns (address);\n}\n\ninterface IPool{\n    function initialize (\n        address _governAddr,\n        address _owner,\n        string memory name_,\n        string memory symbol_,\n        address _faucetModelAddr\n    ) external;\n    function faucetModelAddr() external view returns (address);\n}\n\ninterface IAirdrop{\n    function initialize (\n        address _governAddr,\n        string memory name_,\n        string memory symbol_,\n        address _account,\n        uint _amount,\n        address _owner\n    ) external;\n}\n\ninterface IReward{\n    function initialize (address _governAddr, address _owner) external;\n}\n\ninterface ISearch{\n    function initialize (\n        address _governAddr,\n        address _poolAddr,\n        address _rewardAddr,\n        address _airdropAddr\n    ) external;\n}\n\ncontract Factory is Ownable{\n    mapping(uint => address) private daoAddrs;\n    uint public len = 0;\n    //governance\n    address  public governModelAddr;\n    //pool\n    address  public poolModelAddr;\n    //airdrop\n    address  public airdropModelAddr;\n    //reward\n    address  public rewardModelAddr;\n    //faucet\n    address public faucetModelAddr;\n    //search\n    address public searchModelAddr;\n\n    function createClone(address target) internal returns (address result) {\n        bytes20 targetBytes = bytes20(target);\n        assembly {\n            let clone := mload(0x40)\n            mstore(clone, 0x3d602d80600a3d3981f3363d3d373d3d3d363d73000000000000000000000000)\n            mstore(add(clone, 0x14), targetBytes)\n            mstore(add(clone, 0x28), 0x5af43d82803e903d91602b57fd5bf30000000000000000000000000000000000)\n            result := create(0, clone, 0x37)\n        }\n    }\n\n    function createDAO(\n        uint256 _authorAmount, //100000000000000000000\n        uint _blockHeight,//1200 \n        string memory _stkName,//stkToken\n        string memory _stkSymbol,//stkToken\n        string memory _retName,//retToken\n        string memory _retSymbol,//retToken\n        uint _retAmount//10000000000000000000000\n    ) public onlyOwner(){\n        require(governModelAddr != address(0)\n        && poolModelAddr != address(0)\n        && airdropModelAddr != address(0)\n        && rewardModelAddr != address(0)\n        && faucetModelAddr != address(0)\n            && searchModelAddr != address(0),'ModelAddress not seted!');\n        IGovernance Igovern = IGovernance(createClone(governModelAddr));\n        Igovern.initialize(_authorAmount,_blockHeight,msg.sender);\n\n        IPool Ipool = IPool(createClone(poolModelAddr));\n        Ipool.initialize(address(Igovern),msg.sender,_stkName,_stkSymbol,faucetModelAddr);\n\n        //GovernmentstkToken\n        Igovern.setStkTokenAddr(address(Ipool));\n\n        IAirdrop Iairdrop = IAirdrop(createClone(airdropModelAddr));\n        Iairdrop.initialize(address(Igovern),_retName,_retSymbol,msg.sender,_retAmount,msg.sender);\n\n        //GovernmentretToken\n        Igovern.setRetTokenAddr(address(Iairdrop));\n\n        IReward Ireward = IReward(createClone(rewardModelAddr));\n        Ireward.initialize(address(Igovern),msg.sender);\n\n        //Government\n        Igovern.setRewardAddr(address(Ireward));\n\n        ISearch Isearch = ISearch(createClone(searchModelAddr));\n        Isearch.initialize(address(Igovern),address(Ipool),address(Ireward),address(Iairdrop));\n\n        //Government\n        Igovern.setSearchAddr(address(Isearch));\n\n        daoAddrs[len] = address(Igovern);\n        len += 1;\n    }\n\n    function setGovernModelAddr(address _modelAddr) public onlyOwner(){\n        governModelAddr = _modelAddr;\n    }\n\n    function setPoolModelAddr(address _modelAddr) public onlyOwner(){\n        poolModelAddr = _modelAddr;\n    }\n\n    function setAirdropModelAddr(address _modelAddr) public onlyOwner(){\n        airdropModelAddr = _modelAddr;\n    }\n\n    function setRewardModelAddr(address _modelAddr) public onlyOwner(){\n        rewardModelAddr = _modelAddr;\n    }\n\n    function setFaucetModelAddr(address _modelAddr) public onlyOwner(){\n        faucetModelAddr = _modelAddr;\n    }\n\n    function setSearchModelAddr(address _modelAddr) public onlyOwner(){\n        searchModelAddr = _modelAddr;\n    }\n\n    function getDaoAddrs(uint _index) public view returns(address[] memory){\n        address[] memory addrs = new address[](6);\n        if(daoAddrs[_index] != address(0)){\n            IGovernance Igovern = IGovernance(daoAddrs[_index]);\n            addrs[0] = daoAddrs[_index];\n            addrs[1] = Igovern.stkTokenAddr();\n            addrs[2] = Igovern.retTokenAddr();\n            addrs[3] = Igovern.rewardAddr();\n            addrs[4] = Igovern.searchAddr();\n            IPool Ipool = IPool(Igovern.stkTokenAddr());\n            addrs[5] = Ipool.faucetModelAddr();\n        }\n        return addrs;\n    }\n}",
  "sourcePath": "D:\\\\vueDao\\StakeFinance\\truffle-dev\\contracts\\Factory.sol",
  "compiler": {
    "name": "solc",
    "version": "0.8.12+commit.f00d7308.Emscripten.clang"
  },
  "schemaVersion": "3.4.5",
  "updatedAt": "2022-06-20T02:52:10.412Z",
  "devdoc": {
    "kind": "dev",
    "methods": {
      "owner()": {
        "details": "Returns the address of the current owner."
      },
      "renounceOwnership()": {
        "details": "Leaves the contract without owner. It will not be possible to call `onlyOwner` functions anymore. Can only be called by the current owner. NOTE: Renouncing ownership will leave the contract without an owner, thereby removing any functionality that is only available to the owner."
      },
      "transferOwnership(address)": {
        "details": "Transfers ownership of the contract to a new account (`newOwner`). Can only be called by the current owner."
      }
    },
    "version": 1
  },
  "userdoc": {
    "kind": "user",
    "methods": {},
    "version": 1
  }
}