{
  "contractName": "Faucet",
  "abi": [
    {
      "inputs": [],
      "stateMutability": "nonpayable",
      "type": "constructor"
    },
    {
      "anonymous": false,
      "inputs": [
        {
          "indexed": false,
          "internalType": "bytes32",
          "name": "_nimbusId",
          "type": "bytes32"
        }
      ],
      "name": "Association",
      "type": "event"
    },
    {
      "anonymous": false,
      "inputs": [
        {
          "indexed": false,
          "internalType": "uint256",
          "name": "_leaveNumber",
          "type": "uint256"
        }
      ],
      "name": "LeaveRedeem",
      "type": "event"
    },
    {
      "anonymous": false,
      "inputs": [
        {
          "indexed": false,
          "internalType": "uint256",
          "name": "_rdDate",
          "type": "uint256"
        },
        {
          "indexed": false,
          "internalType": "uint256",
          "name": "_rdAmount",
          "type": "uint256"
        }
      ],
      "name": "RecordRewardInfo",
      "type": "event"
    },
    {
      "anonymous": false,
      "inputs": [
        {
          "indexed": false,
          "internalType": "bool",
          "name": "_success",
          "type": "bool"
        }
      ],
      "name": "RedeemState",
      "type": "event"
    },
    {
      "anonymous": false,
      "inputs": [
        {
          "indexed": false,
          "internalType": "uint256",
          "name": "_reward",
          "type": "uint256"
        }
      ],
      "name": "SendReward",
      "type": "event"
    },
    {
      "stateMutability": "payable",
      "type": "fallback"
    },
    {
      "inputs": [],
      "name": "Iairdrop",
      "outputs": [
        {
          "internalType": "contract IAirdrop",
          "name": "",
          "type": "address"
        }
      ],
      "stateMutability": "view",
      "type": "function"
    },
    {
      "inputs": [],
      "name": "Igovern",
      "outputs": [
        {
          "internalType": "contract IGovernance",
          "name": "",
          "type": "address"
        }
      ],
      "stateMutability": "view",
      "type": "function"
    },
    {
      "inputs": [],
      "name": "authorMapping",
      "outputs": [
        {
          "internalType": "contract AuthorMapping",
          "name": "",
          "type": "address"
        }
      ],
      "stateMutability": "view",
      "type": "function"
    },
    {
      "inputs": [],
      "name": "bstate",
      "outputs": [
        {
          "internalType": "bool",
          "name": "",
          "type": "bool"
        }
      ],
      "stateMutability": "view",
      "type": "function"
    },
    {
      "inputs": [],
      "name": "collatorAddr",
      "outputs": [
        {
          "internalType": "address",
          "name": "",
          "type": "address"
        }
      ],
      "stateMutability": "view",
      "type": "function"
    },
    {
      "inputs": [],
      "name": "dayRewardInfo",
      "outputs": [
        {
          "internalType": "uint256",
          "name": "rdDate",
          "type": "uint256"
        },
        {
          "internalType": "uint256",
          "name": "rdAmount",
          "type": "uint256"
        }
      ],
      "stateMutability": "view",
      "type": "function"
    },
    {
      "inputs": [],
      "name": "faucetOwner",
      "outputs": [
        {
          "internalType": "address",
          "name": "",
          "type": "address"
        }
      ],
      "stateMutability": "view",
      "type": "function"
    },
    {
      "inputs": [],
      "name": "faucetType",
      "outputs": [
        {
          "internalType": "bool",
          "name": "",
          "type": "bool"
        }
      ],
      "stateMutability": "view",
      "type": "function"
    },
    {
      "inputs": [
        {
          "internalType": "uint256",
          "name": "",
          "type": "uint256"
        }
      ],
      "name": "leaseDates",
      "outputs": [
        {
          "internalType": "uint256",
          "name": "",
          "type": "uint256"
        }
      ],
      "stateMutability": "view",
      "type": "function"
    },
    {
      "inputs": [
        {
          "internalType": "uint256",
          "name": "",
          "type": "uint256"
        }
      ],
      "name": "leaseInfos",
      "outputs": [
        {
          "internalType": "uint256",
          "name": "period",
          "type": "uint256"
        },
        {
          "internalType": "uint256",
          "name": "amount",
          "type": "uint256"
        },
        {
          "internalType": "uint256",
          "name": "totAmount",
          "type": "uint256"
        },
        {
          "internalType": "uint256",
          "name": "totMarginAmount",
          "type": "uint256"
        },
        {
          "internalType": "address",
          "name": "redeemAddr",
          "type": "address"
        },
        {
          "internalType": "bool",
          "name": "redeemFlag",
          "type": "bool"
        },
        {
          "internalType": "bool",
          "name": "bflag",
          "type": "bool"
        }
      ],
      "stateMutability": "view",
      "type": "function"
    },
    {
      "inputs": [],
      "name": "leaseTotal",
      "outputs": [
        {
          "internalType": "uint256",
          "name": "",
          "type": "uint256"
        }
      ],
      "stateMutability": "view",
      "type": "function"
    },
    {
      "inputs": [],
      "name": "leaveNumber",
      "outputs": [
        {
          "internalType": "uint256",
          "name": "",
          "type": "uint256"
        }
      ],
      "stateMutability": "view",
      "type": "function"
    },
    {
      "inputs": [],
      "name": "nimbusId",
      "outputs": [
        {
          "internalType": "bytes32",
          "name": "",
          "type": "bytes32"
        }
      ],
      "stateMutability": "view",
      "type": "function"
    },
    {
      "inputs": [],
      "name": "owner",
      "outputs": [
        {
          "internalType": "address",
          "name": "",
          "type": "address"
        }
      ],
      "stateMutability": "view",
      "type": "function"
    },
    {
      "inputs": [],
      "name": "punishCount",
      "outputs": [
        {
          "internalType": "uint256",
          "name": "",
          "type": "uint256"
        }
      ],
      "stateMutability": "view",
      "type": "function"
    },
    {
      "inputs": [],
      "name": "staking",
      "outputs": [
        {
          "internalType": "contract ParachainStaking",
          "name": "",
          "type": "address"
        }
      ],
      "stateMutability": "view",
      "type": "function"
    },
    {
      "inputs": [],
      "name": "techAddr",
      "outputs": [
        {
          "internalType": "address",
          "name": "",
          "type": "address"
        }
      ],
      "stateMutability": "view",
      "type": "function"
    },
    {
      "stateMutability": "payable",
      "type": "receive"
    },
    {
      "inputs": [
        {
          "internalType": "address",
          "name": "_governAddr",
          "type": "address"
        },
        {
          "internalType": "address",
          "name": "_collatorAddr",
          "type": "address"
        },
        {
          "internalType": "address",
          "name": "_techAddr",
          "type": "address"
        },
        {
          "internalType": "address",
          "name": "_faucetOwner",
          "type": "address"
        },
        {
          "internalType": "bool",
          "name": "_faucetType",
          "type": "bool"
        },
        {
          "internalType": "address",
          "name": "_owner",
          "type": "address"
        }
      ],
      "name": "initialize",
      "outputs": [],
      "stateMutability": "nonpayable",
      "type": "function"
    },
    {
      "inputs": [
        {
          "internalType": "address",
          "name": "_governAddr",
          "type": "address"
        }
      ],
      "name": "setGovernAddr",
      "outputs": [],
      "stateMutability": "nonpayable",
      "type": "function"
    },
    {
      "inputs": [
        {
          "internalType": "address",
          "name": "_redeemAddr",
          "type": "address"
        },
        {
          "internalType": "uint256",
          "name": "_leaseDate",
          "type": "uint256"
        },
        {
          "internalType": "uint256",
          "name": "_period",
          "type": "uint256"
        },
        {
          "internalType": "uint256",
          "name": "_amount",
          "type": "uint256"
        },
        {
          "internalType": "uint256",
          "name": "_marginAmount",
          "type": "uint256"
        }
      ],
      "name": "setLeaseInfo",
      "outputs": [],
      "stateMutability": "nonpayable",
      "type": "function"
    },
    {
      "inputs": [],
      "name": "sendReward",
      "outputs": [],
      "stateMutability": "nonpayable",
      "type": "function"
    },
    {
      "inputs": [],
      "name": "recordRewardInfo",
      "outputs": [],
      "stateMutability": "nonpayable",
      "type": "function"
    },
    {
      "inputs": [],
      "name": "zeroIncomePunish",
      "outputs": [],
      "stateMutability": "nonpayable",
      "type": "function"
    },
    {
      "inputs": [],
      "name": "scheduleRedeemStake",
      "outputs": [],
      "stateMutability": "nonpayable",
      "type": "function"
    },
    {
      "inputs": [],
      "name": "executeRedeemStake",
      "outputs": [],
      "stateMutability": "nonpayable",
      "type": "function"
    },
    {
      "inputs": [
        {
          "internalType": "bytes32",
          "name": "newNimbusId",
          "type": "bytes32"
        }
      ],
      "name": "addAssociation",
      "outputs": [],
      "stateMutability": "nonpayable",
      "type": "function"
    },
    {
      "inputs": [
        {
          "internalType": "bytes32",
          "name": "oldNimbusId",
          "type": "bytes32"
        },
        {
          "internalType": "bytes32",
          "name": "newNimbusId",
          "type": "bytes32"
        }
      ],
      "name": "updateAssociation",
      "outputs": [],
      "stateMutability": "nonpayable",
      "type": "function"
    },
    {
      "inputs": [],
      "name": "balance",
      "outputs": [
        {
          "internalType": "uint256",
          "name": "",
          "type": "uint256"
        }
      ],
      "stateMutability": "view",
      "type": "function"
    },
    {
      "inputs": [],
      "name": "getRecordRewardDate",
      "outputs": [
        {
          "internalType": "uint256",
          "name": "",
          "type": "uint256"
        }
      ],
      "stateMutability": "view",
      "type": "function"
    },
    {
      "inputs": [],
      "name": "getPendingRedeemDate",
      "outputs": [
        {
          "internalType": "uint256",
          "name": "",
          "type": "uint256"
        }
      ],
      "stateMutability": "view",
      "type": "function"
    },
    {
      "inputs": [],
      "name": "getPendingRedeemAmount",
      "outputs": [
        {
          "internalType": "uint256",
          "name": "",
          "type": "uint256"
        }
      ],
      "stateMutability": "view",
      "type": "function"
    },
    {
      "inputs": [
        {
          "internalType": "address",
          "name": "collator",
          "type": "address"
        }
      ],
      "name": "startDelegate",
      "outputs": [],
      "stateMutability": "payable",
      "type": "function"
    },
    {
      "inputs": [],
      "name": "scheduleExitDelegate",
      "outputs": [],
      "stateMutability": "nonpayable",
      "type": "function"
    },
    {
      "inputs": [],
      "name": "executeExitDelegate",
      "outputs": [],
      "stateMutability": "nonpayable",
      "type": "function"
    },
    {
      "inputs": [],
      "name": "executeExitDelegatePending",
      "outputs": [],
      "stateMutability": "nonpayable",
      "type": "function"
    },
    {
      "inputs": [
        {
          "internalType": "address",
          "name": "redeem",
          "type": "address"
        }
      ],
      "name": "redeemStake",
      "outputs": [],
      "stateMutability": "nonpayable",
      "type": "function"
    }
  ],
  "bytecode": "0x608060405260006005556000600660006101000a81548160ff02191690831515021790555060006007556000801b6008556000600c556001601060146101000a81548160ff02191690831515021790555034801561005c57600080fd5b50616820806200006d6000396000f3fe6080604052600436106102135760003560e01c80638dbd610311610118578063d92978b1116100a0578063ea1316941161006f578063ea131694146107d3578063ed43bf15146107ea578063ee3b4a3f14610806578063ef8b6cd814610831578063fcb7c6e91461085a57610308565b8063d92978b114610753578063dc6d1fc31461077c578063dd26b65114610793578063dd9abbcd146107aa57610308565b8063b225f1fe116100e7578063b225f1fe1461067c578063b69ef8a8146106a7578063bb780eb4146106d2578063bd15d45e146106fd578063cd7325831461072857610308565b80638dbd61031461060e5780639a14679b146106255780639b182f9b1461063c578063a8add1231461065357610308565b80634cf088d91161019b5780637f24b15f1161016a5780637f24b15f1461054b57806380f19e5e146105765780638baf96a5146105a15780638d57ac7e146105cc5780638da5cb5b146105e357610308565b80634cf088d91461048d57806355ad2333146104b857806368ece26e146104e35780637d6c99741461052057610308565b8063372cf5fe116101e2578063372cf5fe146103a05780633d512be6146103cb57806343341a04146103f6578063433cc97f146104395780634c5eca8f1461046457610308565b80631149a81a1461030a57806325a39da51461032157806328599c5d1461034a57806336fbc98d1461037557610308565b36610308573373ffffffffffffffffffffffffffffffffffffffff1660008054906101000a900473ffffffffffffffffffffffffffffffffffffffff1673ffffffffffffffffffffffffffffffffffffffff166308c17a4a6040518163ffffffff1660e01b8152600401602060405180830381865afa15801561029a573d6000803e3d6000fd5b505050506040513d601f19601f820116820180604052508101906102be9190615328565b73ffffffffffffffffffffffffffffffffffffffff16141561030657600660009054906101000a900460ff16156102fc576102f7610886565b610305565b610304610b5c565b5b5b005b005b34801561031657600080fd5b5061031f61103b565b005b34801561032d57600080fd5b506103486004803603810190610343919061538b565b61120c565b005b34801561035657600080fd5b5061035f6113b6565b60405161036c91906153e6565b60405180910390f35b34801561038157600080fd5b5061038a6113c9565b604051610397919061541a565b60405180910390f35b3480156103ac57600080fd5b506103b56113cf565b6040516103c29190615494565b60405180910390f35b3480156103d757600080fd5b506103e06113f5565b6040516103ed91906153e6565b60405180910390f35b34801561040257600080fd5b5061041d600480360381019061041891906154db565b611408565b6040516104309796959493929190615517565b60405180910390f35b34801561044557600080fd5b5061044e611484565b60405161045b919061541a565b60405180910390f35b34801561047057600080fd5b5061048b6004803603810190610486919061559b565b61169c565b005b34801561049957600080fd5b506104a26116a9565b6040516104af91906155e9565b60405180910390f35b3480156104c457600080fd5b506104cd6116cf565b6040516104da919061541a565b60405180910390f35b3480156104ef57600080fd5b5061050a600480360381019061050591906154db565b6116dc565b604051610517919061541a565b60405180910390f35b34801561052c57600080fd5b50610535611700565b604051610542919061541a565b60405180910390f35b34801561055757600080fd5b5061056061187d565b60405161056d9190615613565b60405180910390f35b34801561058257600080fd5b5061058b611883565b604051610598919061562e565b60405180910390f35b3480156105ad57600080fd5b506105b66118a9565b6040516105c3919061566a565b60405180910390f35b3480156105d857600080fd5b506105e16118cd565b005b3480156105ef57600080fd5b506105f8612137565b604051610605919061562e565b60405180910390f35b34801561061a57600080fd5b5061062361215d565b005b34801561063157600080fd5b5061063a6122ac565b005b34801561064857600080fd5b50610651613452565b005b34801561065f57600080fd5b5061067a60048036038101906106759190615685565b613bb8565b005b34801561068857600080fd5b50610691614022565b60405161069e919061562e565b60405180910390f35b3480156106b357600080fd5b506106bc614048565b6040516106c9919061541a565b60405180910390f35b3480156106de57600080fd5b506106e7614050565b6040516106f4919061541a565b60405180910390f35b34801561070957600080fd5b50610712614056565b60405161071f919061562e565b60405180910390f35b34801561073457600080fd5b5061073d61407c565b60405161074a9190615721565b60405180910390f35b34801561075f57600080fd5b5061077a60048036038101906107759190615768565b6140a2565b005b34801561078857600080fd5b50610791614353565b005b34801561079f57600080fd5b506107a8614529565b005b3480156107b657600080fd5b506107d160048036038101906107cc919061559b565b6145b4565b005b3480156107df57600080fd5b506107e8614687565b005b61080460048036038101906107ff919061559b565b6147b3565b005b34801561081257600080fd5b5061081b61497f565b604051610828919061541a565b60405180910390f35b34801561083d57600080fd5b50610858600480360381019061085391906157f5565b614985565b005b34801561086657600080fd5b5061086f614c1d565b60405161087d929190615822565b60405180910390f35b600061089e6201518042614c2f90919063ffffffff16565b90506000600960008381526020019081526020016000206040518060e0016040529081600082015481526020016001820154815260200160028201548152602001600382015481526020016004820160009054906101000a900473ffffffffffffffffffffffffffffffffffffffff1673ffffffffffffffffffffffffffffffffffffffff1673ffffffffffffffffffffffffffffffffffffffff1681526020016004820160149054906101000a900460ff161515151581526020016004820160159054906101000a900460ff16151515158152505090508060c00151801561098b575060008160200151115b801561099b575080602001514710155b6109da576040517f08c379a00000000000000000000000000000000000000000000000000000000081526004016109d1906158a8565b60405180910390fd5b600160149054906101000a900460ff1615610a8557600a60009054906101000a900473ffffffffffffffffffffffffffffffffffffffff1673ffffffffffffffffffffffffffffffffffffffff1663c57bd3a882602001516040518263ffffffff1660e01b8152600401610a4e919061541a565b600060405180830381600087803b158015610a6857600080fd5b505af1158015610a7c573d6000803e3d6000fd5b50505050610b3b565b600a60009054906101000a900473ffffffffffffffffffffffffffffffffffffffff1673ffffffffffffffffffffffffffffffffffffffff1663f8331108600260009054906101000a900473ffffffffffffffffffffffffffffffffffffffff1683602001516040518363ffffffff1660e01b8152600401610b089291906158c8565b600060405180830381600087803b158015610b2257600080fd5b505af1158015610b36573d6000803e3d6000fd5b505050505b806020015160056000828254610b519190615920565b925050819055505050565b6000610b746201518042614c2f90919063ffffffff16565b90506000600960008381526020019081526020016000206040518060e0016040529081600082015481526020016001820154815260200160028201548152602001600382015481526020016004820160009054906101000a900473ffffffffffffffffffffffffffffffffffffffff1673ffffffffffffffffffffffffffffffffffffffff1673ffffffffffffffffffffffffffffffffffffffff1681526020016004820160149054906101000a900460ff161515151581526020016004820160159054906101000a900460ff16151515158152505090508060c001518015610c61575060008160200151115b8015610c71575080602001514710155b610cb0576040517f08c379a0000000000000000000000000000000000000000000000000000000008152600401610ca7906159c2565b60405180910390fd5b600160149054906101000a900460ff1615610ded57600a60009054906101000a900473ffffffffffffffffffffffffffffffffffffffff1673ffffffffffffffffffffffffffffffffffffffff16630a1bff608260200151600a60009054906101000a900473ffffffffffffffffffffffffffffffffffffffff1673ffffffffffffffffffffffffffffffffffffffff16634b1c4c296040518163ffffffff1660e01b8152600401602060405180830381865afa158015610d75573d6000803e3d6000fd5b505050506040513d601f19601f82011682018060405250810190610d9991906159f7565b6040518363ffffffff1660e01b8152600401610db6929190615822565b600060405180830381600087803b158015610dd057600080fd5b505af1158015610de4573d6000803e3d6000fd5b50505050610fff565b600a60009054906101000a900473ffffffffffffffffffffffffffffffffffffffff1673ffffffffffffffffffffffffffffffffffffffff1663829f5ee3600260009054906101000a900473ffffffffffffffffffffffffffffffffffffffff168360200151600a60009054906101000a900473ffffffffffffffffffffffffffffffffffffffff1673ffffffffffffffffffffffffffffffffffffffff1663815b796c600260009054906101000a900473ffffffffffffffffffffffffffffffffffffffff166040518263ffffffff1660e01b8152600401610ed0919061562e565b602060405180830381865afa158015610eed573d6000803e3d6000fd5b505050506040513d601f19601f82011682018060405250810190610f1191906159f7565b600a60009054906101000a900473ffffffffffffffffffffffffffffffffffffffff1673ffffffffffffffffffffffffffffffffffffffff1663fbc51bca306040518263ffffffff1660e01b8152600401610f6c919061562e565b602060405180830381865afa158015610f89573d6000803e3d6000fd5b505050506040513d601f19601f82011682018060405250810190610fad91906159f7565b6040518563ffffffff1660e01b8152600401610fcc9493929190615a24565b600060405180830381600087803b158015610fe657600080fd5b505af1158015610ffa573d6000803e3d6000fd5b505050505b8060200151600560008282546110159190615920565b925050819055506001600660006101000a81548160ff0219169083151502179055505050565b600660009054906101000a900460ff1661108a576040517f08c379a000000000000000000000000000000000000000000000000000000000815260040161108190615adb565b60405180910390fd5b6000600754146110cf576040517f08c379a00000000000000000000000000000000000000000000000000000000081526004016110c690615b47565b60405180910390fd5b600047905060008054906101000a900473ffffffffffffffffffffffffffffffffffffffff1673ffffffffffffffffffffffffffffffffffffffff1663e6164bfb6040518163ffffffff1660e01b8152600401602060405180830381865afa15801561113f573d6000803e3d6000fd5b505050506040513d601f19601f8201168201806040525081019061116391906159f7565b8110156111a5576040517f08c379a000000000000000000000000000000000000000000000000000000000815260040161119c90615bd9565b60405180910390fd5b600160149054906101000a900460ff16156111c8576111c381614c45565b6111d2565b6111d181614f3a565b5b7fd5ce50f935acba7b79cecc9dd42b9c0aea0df9f8d452f64ca519cde587f4b9dd81604051611201919061541a565b60405180910390a150565b601060009054906101000a900473ffffffffffffffffffffffffffffffffffffffff1673ffffffffffffffffffffffffffffffffffffffff163373ffffffffffffffffffffffffffffffffffffffff161461129c576040517f08c379a000000000000000000000000000000000000000000000000000000000815260040161129390615c45565b60405180910390fd5b6000801b600854116112e3576040517f08c379a00000000000000000000000000000000000000000000000000000000081526004016112da90615cb1565b60405180910390fd5b600b60009054906101000a900473ffffffffffffffffffffffffffffffffffffffff1673ffffffffffffffffffffffffffffffffffffffff1663d9cef87983836040518363ffffffff1660e01b8152600401611340929190615cd1565b600060405180830381600087803b15801561135a57600080fd5b505af115801561136e573d6000803e3d6000fd5b50505050806008819055507fc38fd64415526516dfc0baedc2e9436b71bf8adcbcb945e3ee45d33f9aed9e9f6008546040516113aa9190615613565b60405180910390a15050565b600160149054906101000a900460ff1681565b60055481565b600160009054906101000a900473ffffffffffffffffffffffffffffffffffffffff1681565b600660009054906101000a900460ff1681565b60096020528060005260406000206000915090508060000154908060010154908060020154908060030154908060040160009054906101000a900473ffffffffffffffffffffffffffffffffffffffff16908060040160149054906101000a900460ff16908060040160159054906101000a900460ff16905087565b6000806000905060005b600480549050811015611694576000600482815481106114b1576114b0615cfa565b5b906000526020600020015490506000600960008381526020019081526020016000206040518060e0016040529081600082015481526020016001820154815260200160028201548152602001600382015481526020016004820160009054906101000a900473ffffffffffffffffffffffffffffffffffffffff1673ffffffffffffffffffffffffffffffffffffffff1673ffffffffffffffffffffffffffffffffffffffff1681526020016004820160149054906101000a900460ff161515151581526020016004820160159054906101000a900460ff1615151515815250509050600061164660008054906101000a900473ffffffffffffffffffffffffffffffffffffffff1673ffffffffffffffffffffffffffffffffffffffff1663a8e927046040518163ffffffff1660e01b8152600401602060405180830381865afa158015611604573d6000803e3d6000fd5b505050506040513d601f19601f8201168201806040525081019061162891906159f7565b83600001516116379190615d29565b8461513890919063ffffffff16565b90508160c00151801561166e575061166a6201518042614c2f90919063ffffffff16565b8111155b1561167e57829450505050611694565b505050808061168c90615d83565b91505061148e565b508091505090565b6116a6814761514e565b50565b600a60009054906101000a900473ffffffffffffffffffffffffffffffffffffffff1681565b6000600d60000154905090565b600481815481106116ec57600080fd5b906000526020600020016000915090505481565b60008060009050600660009054906101000a900460ff16611731576000600754111561172c5760055490505b611876565b60005b6004805490508110156118745760006004828154811061175757611756615cfa565b5b906000526020600020015490506000600960008381526020019081526020016000206040518060e0016040529081600082015481526020016001820154815260200160028201548152602001600382015481526020016004820160009054906101000a900473ffffffffffffffffffffffffffffffffffffffff1673ffffffffffffffffffffffffffffffffffffffff1673ffffffffffffffffffffffffffffffffffffffff1681526020016004820160149054906101000a900460ff161515151581526020016004820160159054906101000a900460ff16151515158152505090508060c00151801561184c57508060a001515b1561185f57806040015193505050611874565b5050808061186c90615d83565b915050611734565b505b8091505090565b60085481565b600f60009054906101000a900473ffffffffffffffffffffffffffffffffffffffff1681565b60008054906101000a900473ffffffffffffffffffffffffffffffffffffffff1681565b601060149054906101000a900460ff1661191c576040517f08c379a000000000000000000000000000000000000000000000000000000000815260040161191390615e18565b60405180910390fd5b6000601060146101000a81548160ff021916908315150217905550600660009054906101000a900460ff16611986576040517f08c379a000000000000000000000000000000000000000000000000000000000815260040161197d90615e84565b60405180910390fd5b6000600754146119cb576040517f08c379a00000000000000000000000000000000000000000000000000000000081526004016119c290615ef0565b60405180910390fd5b6119d361526e565b6000805b600480549050811015611bd2576000600482815481106119fa576119f9615cfa565b5b90600052602060002001549050600960008281526020019081526020016000206040518060e0016040529081600082015481526020016001820154815260200160028201548152602001600382015481526020016004820160009054906101000a900473ffffffffffffffffffffffffffffffffffffffff1673ffffffffffffffffffffffffffffffffffffffff1673ffffffffffffffffffffffffffffffffffffffff1681526020016004820160149054906101000a900460ff161515151581526020016004820160159054906101000a900460ff16151515158152505093508360c001518015611bb05750611afd6201518042614c2f90919063ffffffff16565b611bad60008054906101000a900473ffffffffffffffffffffffffffffffffffffffff1673ffffffffffffffffffffffffffffffffffffffff1663a8e927046040518163ffffffff1660e01b8152600401602060405180830381865afa158015611b6b573d6000803e3d6000fd5b505050506040513d601f19601f82011682018060405250810190611b8f91906159f7565b8660000151611b9e9190615d29565b8361513890919063ffffffff16565b11155b15611bbe5780925050611bd2565b508080611bca90615d83565b9150506119d7565b5060008111611c16576040517f08c379a0000000000000000000000000000000000000000000000000000000008152600401611c0d90615f5c565b60405180910390fd5b43600781905550600a60009054906101000a900473ffffffffffffffffffffffffffffffffffffffff1673ffffffffffffffffffffffffffffffffffffffff166372ce89336040518163ffffffff1660e01b8152600401602060405180830381865afa158015611c8a573d6000803e3d6000fd5b505050506040513d601f19601f82011682018060405250810190611cae91906159f7565b611cc7836040015160055461524290919063ffffffff16565b1015611ea7576000600660006101000a81548160ff021916908315150217905550600160149054906101000a900460ff1615611e1f57600a60009054906101000a900473ffffffffffffffffffffffffffffffffffffffff1673ffffffffffffffffffffffffffffffffffffffff166360afbac6600a60009054906101000a900473ffffffffffffffffffffffffffffffffffffffff1673ffffffffffffffffffffffffffffffffffffffff16634b1c4c296040518163ffffffff1660e01b8152600401602060405180830381865afa158015611da8573d6000803e3d6000fd5b505050506040513d601f19601f82011682018060405250810190611dcc91906159f7565b6040518263ffffffff1660e01b8152600401611de8919061541a565b600060405180830381600087803b158015611e0257600080fd5b505af1158015611e16573d6000803e3d6000fd5b50505050611ea2565b600a60009054906101000a900473ffffffffffffffffffffffffffffffffffffffff1673ffffffffffffffffffffffffffffffffffffffff166365a5bbd06040518163ffffffff1660e01b8152600401600060405180830381600087803b158015611e8957600080fd5b505af1158015611e9d573d6000803e3d6000fd5b505050505b6120df565b60018260a001901515908115158152505081600960008381526020019081526020016000206000820151816000015560208201518160010155604082015181600201556060820151816003015560808201518160040160006101000a81548173ffffffffffffffffffffffffffffffffffffffff021916908373ffffffffffffffffffffffffffffffffffffffff16021790555060a08201518160040160146101000a81548160ff02191690831515021790555060c08201518160040160156101000a81548160ff021916908315150217905550905050600160149054906101000a900460ff161561202957600a60009054906101000a900473ffffffffffffffffffffffffffffffffffffffff1673ffffffffffffffffffffffffffffffffffffffff1663034c47bc83604001516040518263ffffffff1660e01b8152600401611ff2919061541a565b600060405180830381600087803b15801561200c57600080fd5b505af1158015612020573d6000803e3d6000fd5b505050506120de565b600a60009054906101000a900473ffffffffffffffffffffffffffffffffffffffff1673ffffffffffffffffffffffffffffffffffffffff1662043acf600260009054906101000a900473ffffffffffffffffffffffffffffffffffffffff1684604001516040518363ffffffff1660e01b81526004016120ab9291906158c8565b600060405180830381600087803b1580156120c557600080fd5b505af11580156120d9573d6000803e3d6000fd5b505050505b5b7feb8384f02b9f3e46ffa3014b64e64f9dcd1ade02b0a97edfdcf9bcedc85ebdbf600754604051612110919061541a565b60405180910390a150506001601060146101000a81548160ff021916908315150217905550565b601060009054906101000a900473ffffffffffffffffffffffffffffffffffffffff1681565b600660009054906101000a900460ff166121ac576040517f08c379a00000000000000000000000000000000000000000000000000000000081526004016121a390615fee565b60405180910390fd5b60006121c46201518042614c2f90919063ffffffff16565b905080600d600001541061220d576040517f08c379a000000000000000000000000000000000000000000000000000000000815260040161220490616080565b60405180910390fd5b6000600d60000154118015612226575047600d60010154145b1561225c57612243600d600001548261524290919063ffffffff16565b600c60008282546122549190615920565b925050819055505b80600d6000018190555047600d600101819055507f9e6d61d6f1996bd619df00e405e55c65b4719947afdcb85e4a1977c782c885b381476040516122a1929190615822565b60405180910390a150565b601060149054906101000a900460ff166122fb576040517f08c379a00000000000000000000000000000000000000000000000000000000081526004016122f290615e18565b60405180910390fd5b6000601060146101000a81548160ff02191690831515021790555060006007541161235b576040517f08c379a0000000000000000000000000000000000000000000000000000000008152600401612352906160ec565b60405180910390fd5b436123ff60008054906101000a900473ffffffffffffffffffffffffffffffffffffffff1673ffffffffffffffffffffffffffffffffffffffff1663f44ff7126040518163ffffffff1660e01b8152600401602060405180830381865afa1580156123ca573d6000803e3d6000fd5b505050506040513d601f19601f820116820180604052508101906123ee91906159f7565b60075461513890919063ffffffff16565b1115612440576040517f08c379a000000000000000000000000000000000000000000000000000000000815260040161243790616158565b60405180910390fd5b600060078190555060008054906101000a900473ffffffffffffffffffffffffffffffffffffffff1673ffffffffffffffffffffffffffffffffffffffff1663d1d25fab6040518163ffffffff1660e01b8152600401602060405180830381865afa1580156124b3573d6000803e3d6000fd5b505050506040513d601f19601f820116820180604052508101906124d79190615328565b600160006101000a81548173ffffffffffffffffffffffffffffffffffffffff021916908373ffffffffffffffffffffffffffffffffffffffff160217905550600660009054906101000a900460ff16612dc257600160149054906101000a900460ff161561288757600a60009054906101000a900473ffffffffffffffffffffffffffffffffffffffff1673ffffffffffffffffffffffffffffffffffffffff1663eb613b8a306040518263ffffffff1660e01b815260040161259b919061562e565b602060405180830381865afa1580156125b8573d6000803e3d6000fd5b505050506040513d601f19601f820116820180604052508101906125dc919061618d565b1561270c57600a60009054906101000a900473ffffffffffffffffffffffffffffffffffffffff1673ffffffffffffffffffffffffffffffffffffffff16633fdc4c3030600a60009054906101000a900473ffffffffffffffffffffffffffffffffffffffff1673ffffffffffffffffffffffffffffffffffffffff1663815b796c306040518263ffffffff1660e01b815260040161267b919061562e565b602060405180830381865afa158015612698573d6000803e3d6000fd5b505050506040513d601f19601f820116820180604052508101906126bc91906159f7565b6040518363ffffffff1660e01b81526004016126d99291906158c8565b600060405180830381600087803b1580156126f357600080fd5b505af1158015612707573d6000803e3d6000fd5b505050505b6000801b60085411156127b357600b60009054906101000a900473ffffffffffffffffffffffffffffffffffffffff1673ffffffffffffffffffffffffffffffffffffffff16637354c91d6008546040518263ffffffff1660e01b81526004016127769190615613565b600060405180830381600087803b15801561279057600080fd5b505af11580156127a4573d6000803e3d6000fd5b505050506000801b6008819055505b60006127ca6005544761524290919063ffffffff16565b905061286660008054906101000a900473ffffffffffffffffffffffffffffffffffffffff1673ffffffffffffffffffffffffffffffffffffffff166308c17a4a6040518163ffffffff1660e01b8152600401602060405180830381865afa15801561283a573d6000803e3d6000fd5b505050506040513d601f19601f8201168201806040525081019061285e9190615328565b60055461514e565b600060058190555060008111156128815761288081614c45565b5b50612b23565b600a60009054906101000a900473ffffffffffffffffffffffffffffffffffffffff1673ffffffffffffffffffffffffffffffffffffffff1663dc3ec64b306040518263ffffffff1660e01b81526004016128e2919061562e565b602060405180830381865afa1580156128ff573d6000803e3d6000fd5b505050506040513d601f19601f82011682018060405250810190612923919061618d565b15612a5357600a60009054906101000a900473ffffffffffffffffffffffffffffffffffffffff1673ffffffffffffffffffffffffffffffffffffffff1663a84a746830600a60009054906101000a900473ffffffffffffffffffffffffffffffffffffffff1673ffffffffffffffffffffffffffffffffffffffff1663fbc51bca306040518263ffffffff1660e01b81526004016129c2919061562e565b602060405180830381865afa1580156129df573d6000803e3d6000fd5b505050506040513d601f19601f82011682018060405250810190612a0391906159f7565b6040518363ffffffff1660e01b8152600401612a209291906158c8565b600060405180830381600087803b158015612a3a57600080fd5b505af1158015612a4e573d6000803e3d6000fd5b505050505b6000612a6a6005544761524290919063ffffffff16565b9050612b0660008054906101000a900473ffffffffffffffffffffffffffffffffffffffff1673ffffffffffffffffffffffffffffffffffffffff166308c17a4a6040518163ffffffff1660e01b8152600401602060405180830381865afa158015612ada573d6000803e3d6000fd5b505050506040513d601f19601f82011682018060405250810190612afe9190615328565b60055461514e565b60006005819055506000811115612b2157612b2081614f3a565b5b505b60005b600480549050811015612dbc57600060048281548110612b4957612b48615cfa565b5b906000526020600020015490506000600960008381526020019081526020016000206040518060e0016040529081600082015481526020016001820154815260200160028201548152602001600382015481526020016004820160009054906101000a900473ffffffffffffffffffffffffffffffffffffffff1673ffffffffffffffffffffffffffffffffffffffff1673ffffffffffffffffffffffffffffffffffffffff1681526020016004820160149054906101000a900460ff161515151581526020016004820160159054906101000a900460ff16151515158152505090508060c0015115612da75760008160c001901515908115158152505080600960008481526020019081526020016000206000820151816000015560208201518160010155604082015181600201556060820151816003015560808201518160040160006101000a81548173ffffffffffffffffffffffffffffffffffffffff021916908373ffffffffffffffffffffffffffffffffffffffff16021790555060a08201518160040160146101000a81548160ff02191690831515021790555060c08201518160040160156101000a81548160ff021916908315150217905550905050600160009054906101000a900473ffffffffffffffffffffffffffffffffffffffff1673ffffffffffffffffffffffffffffffffffffffff166351d2ae1682608001518484606001516040518463ffffffff1660e01b8152600401612d74939291906161ba565b600060405180830381600087803b158015612d8e57600080fd5b505af1158015612da2573d6000803e3d6000fd5b505050505b50508080612db490615d83565b915050612b26565b506133fd565b60005b6004805490508110156133fb57600060048281548110612de857612de7615cfa565b5b906000526020600020015490506000600960008381526020019081526020016000206040518060e0016040529081600082015481526020016001820154815260200160028201548152602001600382015481526020016004820160009054906101000a900473ffffffffffffffffffffffffffffffffffffffff1673ffffffffffffffffffffffffffffffffffffffff1673ffffffffffffffffffffffffffffffffffffffff1681526020016004820160149054906101000a900460ff161515151581526020016004820160159054906101000a900460ff16151515158152505090508060c001518015612edd57508060a001515b156133e65760008160c001901515908115158152505060008160a001901515908115158152505080600960008481526020019081526020016000206000820151816000015560208201518160010155604082015181600201556060820151816003015560808201518160040160006101000a81548173ffffffffffffffffffffffffffffffffffffffff021916908373ffffffffffffffffffffffffffffffffffffffff16021790555060a08201518160040160146101000a81548160ff02191690831515021790555060c08201518160040160156101000a81548160ff021916908315150217905550905050600160149054906101000a900460ff161561311357600a60009054906101000a900473ffffffffffffffffffffffffffffffffffffffff1673ffffffffffffffffffffffffffffffffffffffff166326ab05fb306040518263ffffffff1660e01b815260040161303a919061562e565b602060405180830381865afa158015613057573d6000803e3d6000fd5b505050506040513d601f19601f8201168201806040525081019061307b919061618d565b1561310e57600a60009054906101000a900473ffffffffffffffffffffffffffffffffffffffff1673ffffffffffffffffffffffffffffffffffffffff1663a9a2b8b7306040518263ffffffff1660e01b81526004016130db919061562e565b600060405180830381600087803b1580156130f557600080fd5b505af1158015613109573d6000803e3d6000fd5b505050505b61328b565b600a60009054906101000a900473ffffffffffffffffffffffffffffffffffffffff1673ffffffffffffffffffffffffffffffffffffffff1663192e1db330600260009054906101000a900473ffffffffffffffffffffffffffffffffffffffff166040518363ffffffff1660e01b81526004016131929291906161f1565b602060405180830381865afa1580156131af573d6000803e3d6000fd5b505050506040513d601f19601f820116820180604052508101906131d3919061618d565b1561328a57600a60009054906101000a900473ffffffffffffffffffffffffffffffffffffffff1673ffffffffffffffffffffffffffffffffffffffff1663e42366a630600260009054906101000a900473ffffffffffffffffffffffffffffffffffffffff166040518363ffffffff1660e01b81526004016132579291906161f1565b600060405180830381600087803b15801561327157600080fd5b505af1158015613285573d6000803e3d6000fd5b505050505b5b6132a4816040015160055461524290919063ffffffff16565b60058190555061334660008054906101000a900473ffffffffffffffffffffffffffffffffffffffff1673ffffffffffffffffffffffffffffffffffffffff166308c17a4a6040518163ffffffff1660e01b8152600401602060405180830381865afa158015613318573d6000803e3d6000fd5b505050506040513d601f19601f8201168201806040525081019061333c9190615328565b826040015161514e565b600160009054906101000a900473ffffffffffffffffffffffffffffffffffffffff1673ffffffffffffffffffffffffffffffffffffffff166351d2ae1682608001518484606001516040518463ffffffff1660e01b81526004016133ad939291906161ba565b600060405180830381600087803b1580156133c757600080fd5b505af11580156133db573d6000803e3d6000fd5b5050505050506133fb565b505080806133f390615d83565b915050612dc5565b505b7ff18bff25a85513dbe5ca0567bdabebb0af44c8b09521d84ee3e2e2aeb0ffd44a600160405161342d91906153e6565b60405180910390a16001601060146101000a81548160ff021916908315150217905550565b601060149054906101000a900460ff166134a1576040517f08c379a000000000000000000000000000000000000000000000000000000000815260040161349890615e18565b60405180910390fd5b6000601060146101000a81548160ff021916908315150217905550600660009054906101000a900460ff1661350b576040517f08c379a00000000000000000000000000000000000000000000000000000000081526004016135029061628c565b60405180910390fd5b600060075414613550576040517f08c379a000000000000000000000000000000000000000000000000000000000815260040161354790615ef0565b60405180910390fd5b60008054906101000a900473ffffffffffffffffffffffffffffffffffffffff1673ffffffffffffffffffffffffffffffffffffffff1663b97fb3ae6040518163ffffffff1660e01b8152600401602060405180830381865afa1580156135bb573d6000803e3d6000fd5b505050506040513d601f19601f820116820180604052508101906135df91906159f7565b600c541015613623576040517f08c379a000000000000000000000000000000000000000000000000000000000815260040161361a9061631e565b60405180910390fd5b60008054906101000a900473ffffffffffffffffffffffffffffffffffffffff1673ffffffffffffffffffffffffffffffffffffffff1663d1d25fab6040518163ffffffff1660e01b8152600401602060405180830381865afa15801561368e573d6000803e3d6000fd5b505050506040513d601f19601f820116820180604052508101906136b29190615328565b600160006101000a81548173ffffffffffffffffffffffffffffffffffffffff021916908373ffffffffffffffffffffffffffffffffffffffff16021790555060005b6004805490508110156139855760006004828154811061371857613717615cfa565b5b906000526020600020015490506000600960008381526020019081526020016000206040518060e0016040529081600082015481526020016001820154815260200160028201548152602001600382015481526020016004820160009054906101000a900473ffffffffffffffffffffffffffffffffffffffff1673ffffffffffffffffffffffffffffffffffffffff1673ffffffffffffffffffffffffffffffffffffffff1681526020016004820160149054906101000a900460ff161515151581526020016004820160159054906101000a900460ff16151515158152505090508060c00151156139705760008160c001901515908115158152505080600960008481526020019081526020016000206000820151816000015560208201518160010155604082015181600201556060820151816003015560808201518160040160006101000a81548173ffffffffffffffffffffffffffffffffffffffff021916908373ffffffffffffffffffffffffffffffffffffffff16021790555060a08201518160040160146101000a81548160ff02191690831515021790555060c08201518160040160156101000a81548160ff021916908315150217905550905050600160009054906101000a900473ffffffffffffffffffffffffffffffffffffffff1673ffffffffffffffffffffffffffffffffffffffff1663734dc67e8383606001516040518363ffffffff1660e01b815260040161393d929190615822565b600060405180830381600087803b15801561395757600080fd5b505af115801561396b573d6000803e3d6000fd5b505050505b5050808061397d90615d83565b9150506136f5565b506000600660006101000a81548160ff02191690831515021790555043600781905550600160149054906101000a900460ff1615613adf57600a60009054906101000a900473ffffffffffffffffffffffffffffffffffffffff1673ffffffffffffffffffffffffffffffffffffffff166360afbac6600a60009054906101000a900473ffffffffffffffffffffffffffffffffffffffff1673ffffffffffffffffffffffffffffffffffffffff16634b1c4c296040518163ffffffff1660e01b8152600401602060405180830381865afa158015613a68573d6000803e3d6000fd5b505050506040513d601f19601f82011682018060405250810190613a8c91906159f7565b6040518263ffffffff1660e01b8152600401613aa8919061541a565b600060405180830381600087803b158015613ac257600080fd5b505af1158015613ad6573d6000803e3d6000fd5b50505050613b62565b600a60009054906101000a900473ffffffffffffffffffffffffffffffffffffffff1673ffffffffffffffffffffffffffffffffffffffff166365a5bbd06040518163ffffffff1660e01b8152600401600060405180830381600087803b158015613b4957600080fd5b505af1158015613b5d573d6000803e3d6000fd5b505050505b7feb8384f02b9f3e46ffa3014b64e64f9dcd1ade02b0a97edfdcf9bcedc85ebdbf600754604051613b93919061541a565b60405180910390a16001601060146101000a81548160ff021916908315150217905550565b60008311613bfb576040517f08c379a0000000000000000000000000000000000000000000000000000000008152600401613bf29061638a565b60405180910390fd5b60008411613c3e576040517f08c379a0000000000000000000000000000000000000000000000000000000008152600401613c359061641c565b60405180910390fd5b3373ffffffffffffffffffffffffffffffffffffffff1660008054906101000a900473ffffffffffffffffffffffffffffffffffffffff1673ffffffffffffffffffffffffffffffffffffffff166308c17a4a6040518163ffffffff1660e01b8152600401602060405180830381865afa158015613cc0573d6000803e3d6000fd5b505050506040513d601f19601f82011682018060405250810190613ce49190615328565b73ffffffffffffffffffffffffffffffffffffffff1614613d3a576040517f08c379a0000000000000000000000000000000000000000000000000000000008152600401613d31906164ae565b60405180910390fd5b600060075414613d7f576040517f08c379a0000000000000000000000000000000000000000000000000000000008152600401613d7690615ef0565b60405180910390fd5b6000600960008681526020019081526020016000206040518060e0016040529081600082015481526020016001820154815260200160028201548152602001600382015481526020016004820160009054906101000a900473ffffffffffffffffffffffffffffffffffffffff1673ffffffffffffffffffffffffffffffffffffffff1673ffffffffffffffffffffffffffffffffffffffff1681526020016004820160149054906101000a900460ff161515151581526020016004820160159054906101000a900460ff1615151515815250509050600081600001511415613e8c5760048590806001815401808255809150506001900390600052602060002001600090919091909150555b82816020018181525050613ead82826060015161513890919063ffffffff16565b8160600181815250508060c0015115613ee557613ed783826040015161513890919063ffffffff16565b816040018181525050613f01565b8281604001818152505060018160c00190151590811515815250505b8381600001818152505060008160a001901515908115158152505085816080019073ffffffffffffffffffffffffffffffffffffffff16908173ffffffffffffffffffffffffffffffffffffffff168152505080600960008781526020019081526020016000206000820151816000015560208201518160010155604082015181600201556060820151816003015560808201518160040160006101000a81548173ffffffffffffffffffffffffffffffffffffffff021916908373ffffffffffffffffffffffffffffffffffffffff16021790555060a08201518160040160146101000a81548160ff02191690831515021790555060c08201518160040160156101000a81548160ff021916908315150217905550905050505050505050565b600360009054906101000a900473ffffffffffffffffffffffffffffffffffffffff1681565b600047905090565b600c5481565b600260009054906101000a900473ffffffffffffffffffffffffffffffffffffffff1681565b600b60009054906101000a900473ffffffffffffffffffffffffffffffffffffffff1681565b600073ffffffffffffffffffffffffffffffffffffffff1660008054906101000a900473ffffffffffffffffffffffffffffffffffffffff1673ffffffffffffffffffffffffffffffffffffffff1614614131576040517f08c379a00000000000000000000000000000000000000000000000000000000081526004016141289061651a565b60405180910390fd5b856000806101000a81548173ffffffffffffffffffffffffffffffffffffffff021916908373ffffffffffffffffffffffffffffffffffffffff160217905550610800600a60006101000a81548173ffffffffffffffffffffffffffffffffffffffff021916908373ffffffffffffffffffffffffffffffffffffffff16021790555082600f60006101000a81548173ffffffffffffffffffffffffffffffffffffffff021916908373ffffffffffffffffffffffffffffffffffffffff16021790555080601060006101000a81548173ffffffffffffffffffffffffffffffffffffffff021916908373ffffffffffffffffffffffffffffffffffffffff16021790555081600160146101000a81548160ff021916908315150217905550600160149054906101000a900460ff16156142ee5783600360006101000a81548173ffffffffffffffffffffffffffffffffffffffff021916908373ffffffffffffffffffffffffffffffffffffffff160217905550610807600b60006101000a81548173ffffffffffffffffffffffffffffffffffffffff021916908373ffffffffffffffffffffffffffffffffffffffff160217905550614330565b84600260006101000a81548173ffffffffffffffffffffffffffffffffffffffff021916908373ffffffffffffffffffffffffffffffffffffffff1602179055505b6001601060146101000a81548160ff021916908315150217905550505050505050565b600a60009054906101000a900473ffffffffffffffffffffffffffffffffffffffff1673ffffffffffffffffffffffffffffffffffffffff1663dc3ec64b306040518263ffffffff1660e01b81526004016143ae919061562e565b602060405180830381865afa1580156143cb573d6000803e3d6000fd5b505050506040513d601f19601f820116820180604052508101906143ef919061618d565b15614527576000600781905550600a60009054906101000a900473ffffffffffffffffffffffffffffffffffffffff1673ffffffffffffffffffffffffffffffffffffffff1663a84a746830600a60009054906101000a900473ffffffffffffffffffffffffffffffffffffffff1673ffffffffffffffffffffffffffffffffffffffff1663fbc51bca306040518263ffffffff1660e01b8152600401614496919061562e565b602060405180830381865afa1580156144b3573d6000803e3d6000fd5b505050506040513d601f19601f820116820180604052508101906144d791906159f7565b6040518363ffffffff1660e01b81526004016144f49291906158c8565b600060405180830381600087803b15801561450e57600080fd5b505af1158015614522573d6000803e3d6000fd5b505050505b565b600a60009054906101000a900473ffffffffffffffffffffffffffffffffffffffff1673ffffffffffffffffffffffffffffffffffffffff166365a5bbd06040518163ffffffff1660e01b8152600401600060405180830381600087803b15801561459357600080fd5b505af11580156145a7573d6000803e3d6000fd5b5050505043600781905550565b601060009054906101000a900473ffffffffffffffffffffffffffffffffffffffff1673ffffffffffffffffffffffffffffffffffffffff163373ffffffffffffffffffffffffffffffffffffffff1614614644576040517f08c379a000000000000000000000000000000000000000000000000000000000815260040161463b90615c45565b60405180910390fd5b806000806101000a81548173ffffffffffffffffffffffffffffffffffffffff021916908373ffffffffffffffffffffffffffffffffffffffff16021790555050565b600a60009054906101000a900473ffffffffffffffffffffffffffffffffffffffff1673ffffffffffffffffffffffffffffffffffffffff1663a84a746830600a60009054906101000a900473ffffffffffffffffffffffffffffffffffffffff1673ffffffffffffffffffffffffffffffffffffffff1663fbc51bca306040518263ffffffff1660e01b8152600401614721919061562e565b602060405180830381865afa15801561473e573d6000803e3d6000fd5b505050506040513d601f19601f8201168201806040525081019061476291906159f7565b6040518363ffffffff1660e01b815260040161477f9291906158c8565b600060405180830381600087803b15801561479957600080fd5b505af11580156147ad573d6000803e3d6000fd5b50505050565b600a60009054906101000a900473ffffffffffffffffffffffffffffffffffffffff1673ffffffffffffffffffffffffffffffffffffffff1663829f5ee38234600a60009054906101000a900473ffffffffffffffffffffffffffffffffffffffff1673ffffffffffffffffffffffffffffffffffffffff1663815b796c866040518263ffffffff1660e01b815260040161484e919061562e565b602060405180830381865afa15801561486b573d6000803e3d6000fd5b505050506040513d601f19601f8201168201806040525081019061488f91906159f7565b600a60009054906101000a900473ffffffffffffffffffffffffffffffffffffffff1673ffffffffffffffffffffffffffffffffffffffff1663fbc51bca306040518263ffffffff1660e01b81526004016148ea919061562e565b602060405180830381865afa158015614907573d6000803e3d6000fd5b505050506040513d601f19601f8201168201806040525081019061492b91906159f7565b6040518563ffffffff1660e01b815260040161494a9493929190615a24565b600060405180830381600087803b15801561496457600080fd5b505af1158015614978573d6000803e3d6000fd5b5050505050565b60075481565b601060009054906101000a900473ffffffffffffffffffffffffffffffffffffffff1673ffffffffffffffffffffffffffffffffffffffff163373ffffffffffffffffffffffffffffffffffffffff1614614a15576040517f08c379a0000000000000000000000000000000000000000000000000000000008152600401614a0c90615c45565b60405180910390fd5b600160149054906101000a900460ff168015614a3d5750600660009054906101000a900460ff165b614a7c576040517f08c379a0000000000000000000000000000000000000000000000000000000008152600401614a7390616586565b60405180910390fd5b60008054906101000a900473ffffffffffffffffffffffffffffffffffffffff1673ffffffffffffffffffffffffffffffffffffffff1663e88d0eb56040518163ffffffff1660e01b8152600401602060405180830381865afa158015614ae7573d6000803e3d6000fd5b505050506040513d601f19601f82011682018060405250810190614b0b91906159f7565b471015614b4d576040517f08c379a0000000000000000000000000000000000000000000000000000000008152600401614b44906165f2565b60405180910390fd5b600b60009054906101000a900473ffffffffffffffffffffffffffffffffffffffff1673ffffffffffffffffffffffffffffffffffffffff1663aa5ac585826040518263ffffffff1660e01b8152600401614ba89190615613565b600060405180830381600087803b158015614bc257600080fd5b505af1158015614bd6573d6000803e3d6000fd5b50505050806008819055507fc38fd64415526516dfc0baedc2e9436b71bf8adcbcb945e3ee45d33f9aed9e9f600854604051614c129190615613565b60405180910390a150565b600d8060000154908060010154905082565b60008183614c3d9190616641565b905092915050565b6000614cfb6064614ced60008054906101000a900473ffffffffffffffffffffffffffffffffffffffff1673ffffffffffffffffffffffffffffffffffffffff166387e1164f6040518163ffffffff1660e01b8152600401602060405180830381865afa158015614cba573d6000803e3d6000fd5b505050506040513d601f19601f82011682018060405250810190614cde91906159f7565b8561525890919063ffffffff16565b614c2f90919063ffffffff16565b9050614d9560008054906101000a900473ffffffffffffffffffffffffffffffffffffffff1673ffffffffffffffffffffffffffffffffffffffff16638f84aa096040518163ffffffff1660e01b8152600401602060405180830381865afa158015614d6b573d6000803e3d6000fd5b505050506040513d601f19601f82011682018060405250810190614d8f9190615328565b8261514e565b6000614e4b6064614e3d60008054906101000a900473ffffffffffffffffffffffffffffffffffffffff1673ffffffffffffffffffffffffffffffffffffffff16636ac61d696040518163ffffffff1660e01b8152600401602060405180830381865afa158015614e0a573d6000803e3d6000fd5b505050506040513d601f19601f82011682018060405250810190614e2e91906159f7565b8661525890919063ffffffff16565b614c2f90919063ffffffff16565b9050614e79600360009054906101000a900473ffffffffffffffffffffffffffffffffffffffff168261514e565b614f3560008054906101000a900473ffffffffffffffffffffffffffffffffffffffff1673ffffffffffffffffffffffffffffffffffffffff16637015e95e6040518163ffffffff1660e01b8152600401602060405180830381865afa158015614ee7573d6000803e3d6000fd5b505050506040513d601f19601f82011682018060405250810190614f0b9190615328565b614f3084614f22858861524290919063ffffffff16565b61524290919063ffffffff16565b61514e565b505050565b6000614ff06064614fe260008054906101000a900473ffffffffffffffffffffffffffffffffffffffff1673ffffffffffffffffffffffffffffffffffffffff166387e1164f6040518163ffffffff1660e01b8152600401602060405180830381865afa158015614faf573d6000803e3d6000fd5b505050506040513d601f19601f82011682018060405250810190614fd391906159f7565b8561525890919063ffffffff16565b614c2f90919063ffffffff16565b905061508a60008054906101000a900473ffffffffffffffffffffffffffffffffffffffff1673ffffffffffffffffffffffffffffffffffffffff16638f84aa096040518163ffffffff1660e01b8152600401602060405180830381865afa158015615060573d6000803e3d6000fd5b505050506040513d601f19601f820116820180604052508101906150849190615328565b8261514e565b61513460008054906101000a900473ffffffffffffffffffffffffffffffffffffffff1673ffffffffffffffffffffffffffffffffffffffff16637015e95e6040518163ffffffff1660e01b8152600401602060405180830381865afa1580156150f8573d6000803e3d6000fd5b505050506040513d601f19601f8201168201806040525081019061511c9190615328565b61512f838561524290919063ffffffff16565b61514e565b5050565b600081836151469190615920565b905092915050565b80471015615191576040517f08c379a0000000000000000000000000000000000000000000000000000000008152600401615188906166be565b60405180910390fd5b60008273ffffffffffffffffffffffffffffffffffffffff16826040516151b79061670f565b60006040518083038185875af1925050503d80600081146151f4576040519150601f19603f3d011682016040523d82523d6000602084013e6151f9565b606091505b505090508061523d576040517f08c379a000000000000000000000000000000000000000000000000000000000815260040161523490616796565b60405180910390fd5b505050565b6000818361525091906167b6565b905092915050565b600081836152669190615d29565b905092915050565b6040518060e0016040528060008152602001600081526020016000815260200160008152602001600073ffffffffffffffffffffffffffffffffffffffff1681526020016000151581526020016000151581525090565b600080fd5b600073ffffffffffffffffffffffffffffffffffffffff82169050919050565b60006152f5826152ca565b9050919050565b615305816152ea565b811461531057600080fd5b50565b600081519050615322816152fc565b92915050565b60006020828403121561533e5761533d6152c5565b5b600061534c84828501615313565b91505092915050565b6000819050919050565b61536881615355565b811461537357600080fd5b50565b6000813590506153858161535f565b92915050565b600080604083850312156153a2576153a16152c5565b5b60006153b085828601615376565b92505060206153c185828601615376565b9150509250929050565b60008115159050919050565b6153e0816153cb565b82525050565b60006020820190506153fb60008301846153d7565b92915050565b6000819050919050565b61541481615401565b82525050565b600060208201905061542f600083018461540b565b92915050565b6000819050919050565b600061545a615455615450846152ca565b615435565b6152ca565b9050919050565b600061546c8261543f565b9050919050565b600061547e82615461565b9050919050565b61548e81615473565b82525050565b60006020820190506154a96000830184615485565b92915050565b6154b881615401565b81146154c357600080fd5b50565b6000813590506154d5816154af565b92915050565b6000602082840312156154f1576154f06152c5565b5b60006154ff848285016154c6565b91505092915050565b615511816152ea565b82525050565b600060e08201905061552c600083018a61540b565b615539602083018961540b565b615546604083018861540b565b615553606083018761540b565b6155606080830186615508565b61556d60a08301856153d7565b61557a60c08301846153d7565b98975050505050505050565b600081359050615595816152fc565b92915050565b6000602082840312156155b1576155b06152c5565b5b60006155bf84828501615586565b91505092915050565b60006155d382615461565b9050919050565b6155e3816155c8565b82525050565b60006020820190506155fe60008301846155da565b92915050565b61560d81615355565b82525050565b60006020820190506156286000830184615604565b92915050565b60006020820190506156436000830184615508565b92915050565b600061565482615461565b9050919050565b61566481615649565b82525050565b600060208201905061567f600083018461565b565b92915050565b600080600080600060a086880312156156a1576156a06152c5565b5b60006156af88828901615586565b95505060206156c0888289016154c6565b94505060406156d1888289016154c6565b93505060606156e2888289016154c6565b92505060806156f3888289016154c6565b9150509295509295909350565b600061570b82615461565b9050919050565b61571b81615700565b82525050565b60006020820190506157366000830184615712565b92915050565b615745816153cb565b811461575057600080fd5b50565b6000813590506157628161573c565b92915050565b60008060008060008060c08789031215615785576157846152c5565b5b600061579389828a01615586565b96505060206157a489828a01615586565b95505060406157b589828a01615586565b94505060606157c689828a01615586565b93505060806157d789828a01615753565b92505060a06157e889828a01615586565b9150509295509295509295565b60006020828403121561580b5761580a6152c5565b5b600061581984828501615376565b91505092915050565b6000604082019050615837600083018561540b565b615844602083018461540b565b9392505050565b600082825260208201905092915050565b7f7570646174654661756365743a20696e666f20697320696c6c6567616c210000600082015250565b6000615892601e8361584b565b915061589d8261585c565b602082019050919050565b600060208201905081810360008301526158c181615885565b9050919050565b60006040820190506158dd6000830185615508565b6158ea602083018461540b565b9392505050565b7f4e487b7100000000000000000000000000000000000000000000000000000000600052601160045260246000fd5b600061592b82615401565b915061593683615401565b9250827fffffffffffffffffffffffffffffffffffffffffffffffffffffffffffffffff0382111561596b5761596a6158f1565b5b828201905092915050565b7f41637469766174654661756365743a20696e666f20697320696c6c6567616c21600082015250565b60006159ac60208361584b565b91506159b782615976565b602082019050919050565b600060208201905081810360008301526159db8161599f565b9050919050565b6000815190506159f1816154af565b92915050565b600060208284031215615a0d57615a0c6152c5565b5b6000615a1b848285016159e2565b91505092915050565b6000608082019050615a396000830187615508565b615a46602083018661540b565b615a53604083018561540b565b615a60606083018461540b565b95945050505050565b7f73656e645265776172643a206e6f742064656c656761746f72206f7220636f6c60008201527f6c61746f72210000000000000000000000000000000000000000000000000000602082015250565b6000615ac560268361584b565b9150615ad082615a69565b604082019050919050565b60006020820190508181036000830152615af481615ab8565b9050919050565b7f73656e645265776172643a2072656465656d696e672100000000000000000000600082015250565b6000615b3160168361584b565b9150615b3c82615afb565b602082019050919050565b60006020820190508181036000830152615b6081615b24565b9050919050565b7f73656e645265776172643a2062616c616e6365206973206e6f7420656e6f756760008201527f6821000000000000000000000000000000000000000000000000000000000000602082015250565b6000615bc360228361584b565b9150615bce82615b67565b604082019050919050565b60006020820190508181036000830152615bf281615bb6565b9050919050565b7f4e6f74206d616e6167656d656e74210000000000000000000000000000000000600082015250565b6000615c2f600f8361584b565b9150615c3a82615bf9565b602082019050919050565b60006020820190508181036000830152615c5e81615c22565b9050919050565b7f4173736f63696174696f6e206e6f742062696e64656421000000000000000000600082015250565b6000615c9b60178361584b565b9150615ca682615c65565b602082019050919050565b60006020820190508181036000830152615cca81615c8e565b9050919050565b6000604082019050615ce66000830185615604565b615cf36020830184615604565b9392505050565b7f4e487b7100000000000000000000000000000000000000000000000000000000600052603260045260246000fd5b6000615d3482615401565b9150615d3f83615401565b9250817fffffffffffffffffffffffffffffffffffffffffffffffffffffffffffffffff0483118215151615615d7857615d776158f1565b5b828202905092915050565b6000615d8e82615401565b91507fffffffffffffffffffffffffffffffffffffffffffffffffffffffffffffffff821415615dc157615dc06158f1565b5b600182019050919050565b7f4661756365743a204c4f434b4544210000000000000000000000000000000000600082015250565b6000615e02600f8361584b565b9150615e0d82615dcc565b602082019050919050565b60006020820190508181036000830152615e3181615df5565b9050919050565b7f6e6f742064656c656761746f72206f7220636f6c6c61746f7221000000000000600082015250565b6000615e6e601a8361584b565b9150615e7982615e38565b602082019050919050565b60006020820190508181036000830152615e9d81615e61565b9050919050565b7f72656465656d696e672100000000000000000000000000000000000000000000600082015250565b6000615eda600a8361584b565b9150615ee582615ea4565b602082019050919050565b60006020820190508181036000830152615f0981615ecd565b9050919050565b7f7363686564756c6552656465656d206973206e6f742065786973747321000000600082015250565b6000615f46601d8361584b565b9150615f5182615f10565b602082019050919050565b60006020820190508181036000830152615f7581615f39565b9050919050565b7f7265636f7264526577617264496e666f3a206e6f742064656c656761746f722060008201527f6f7220636f6c6c61746f72210000000000000000000000000000000000000000602082015250565b6000615fd8602c8361584b565b9150615fe382615f7c565b604082019050919050565b6000602082019050818103600083015261600781615fcb565b9050919050565b7f7265636f7264526577617264496e666f3a2072644461746520697320696c6c6560008201527f67616c2100000000000000000000000000000000000000000000000000000000602082015250565b600061606a60248361584b565b91506160758261600e565b604082019050919050565b600060208201905081810360008301526160998161605d565b9050919050565b7f52656465656d207363686564756c65206973206e6f7420657869737473210000600082015250565b60006160d6601e8361584b565b91506160e1826160a0565b602082019050919050565b60006020820190508181036000830152616105816160c9565b9050919050565b7f6e6f742079657420726561636865642100000000000000000000000000000000600082015250565b600061614260108361584b565b915061614d8261610c565b602082019050919050565b6000602082019050818103600083015261617181616135565b9050919050565b6000815190506161878161573c565b92915050565b6000602082840312156161a3576161a26152c5565b5b60006161b184828501616178565b91505092915050565b60006060820190506161cf6000830186615508565b6161dc602083018561540b565b6161e9604083018461540b565b949350505050565b60006040820190506162066000830185615508565b6162136020830184615508565b9392505050565b7f7a65726f496e636f6d6550756e6973683a206e6f742064656c656761746f722060008201527f206f7220636f6c6c61746f722100000000000000000000000000000000000000602082015250565b6000616276602d8361584b565b91506162818261621a565b604082019050919050565b600060208201905081810360008301526162a581616269565b9050919050565b7f7a65726f496e636f6d6550756e6973683a2070756e697368436f756e7420697360008201527f206e6f7420656e6f756768210000000000000000000000000000000000000000602082015250565b6000616308602c8361584b565b9150616313826162ac565b604082019050919050565b60006020820190508181036000830152616337816162fb565b9050919050565b7f7365744c65617365496e666f3a20706572696f6420697320696c6c6567616c21600082015250565b600061637460208361584b565b915061637f8261633e565b602082019050919050565b600060208201905081810360008301526163a381616367565b9050919050565b7f7365744c65617365496e666f3a205f6c656173654461746520697320696c6c6560008201527f67616c2100000000000000000000000000000000000000000000000000000000602082015250565b600061640660248361584b565b9150616411826163aa565b604082019050919050565b60006020820190508181036000830152616435816163f9565b9050919050565b7f7365744c65617365496e666f3a206d73672e73656e64657220697320696c6c6560008201527f67616c2100000000000000000000000000000000000000000000000000000000602082015250565b600061649860248361584b565b91506164a38261643c565b604082019050919050565b600060208201905081810360008301526164c78161648b565b9050919050565b7f49676f7665726e20736574656421000000000000000000000000000000000000600082015250565b6000616504600e8361584b565b915061650f826164ce565b602082019050919050565b60006020820190508181036000830152616533816164f7565b9050919050565b7f6e6f7420636f6c6c61746f722100000000000000000000000000000000000000600082015250565b6000616570600d8361584b565b915061657b8261653a565b602082019050919050565b6000602082019050818103600083015261659f81616563565b9050919050565b7f62616c616e6365206e6f7420656e6f7567682100000000000000000000000000600082015250565b60006165dc60138361584b565b91506165e7826165a6565b602082019050919050565b6000602082019050818103600083015261660b816165cf565b9050919050565b7f4e487b7100000000000000000000000000000000000000000000000000000000600052601260045260246000fd5b600061664c82615401565b915061665783615401565b92508261666757616666616612565b5b828204905092915050565b7f416464726573733a20696e73756666696369656e742062616c616e6365000000600082015250565b60006166a8601d8361584b565b91506166b382616672565b602082019050919050565b600060208201905081810360008301526166d78161669b565b9050919050565b600081905092915050565b50565b60006166f96000836166de565b9150616704826166e9565b600082019050919050565b600061671a826166ec565b9150819050919050565b7f416464726573733a20756e61626c6520746f2073656e642076616c75652c207260008201527f6563697069656e74206d61792068617665207265766572746564000000000000602082015250565b6000616780603a8361584b565b915061678b82616724565b604082019050919050565b600060208201905081810360008301526167af81616773565b9050919050565b60006167c182615401565b91506167cc83615401565b9250828210156167df576167de6158f1565b5b82820390509291505056fea264697066735822122096c1171d2213aee617cf275163880d7ff7a495106ee357da991341f0c7e5157e64736f6c634300080c0033",
  "immutableReferences": {},
  "source": "// SPDX-License-Identifier: GPL-3.0-only\npragma solidity ^0.8.0;\nimport \"./StakingInterface.sol\";\nimport \"./AuthorMappingInterface.sol\";\nimport \"@openzeppelin/contracts/utils/math/SafeMath.sol\";\nimport \"@openzeppelin/contracts/utils/Address.sol\";\n\ninterface IAirdrop{\n    function zeroIncomePunish(uint _leaseDate,uint256 _amount) external;\n    function unlockLeaseMargin(\n        address _account,\n        uint _leaseDate,\n        uint256 _amount\n    ) external;\n}\n\ninterface IGovernance{\n    function getRewardDownLimit() external  view returns(uint);\n    function getZeroTimeLimit() external  view returns(uint);\n    function stkTokenAddr() external view returns (address);\n    function retTokenAddr() external view returns (address);\n    function rewardAddr() external view returns (address);\n    function authorAmount() external view returns(uint256);\n    function blockHeight() external  view returns(uint);\n    function getCollatorTechFee() external  view returns(uint);\n    function getDaoTechFee() external  view returns(uint);\n    function ownerAddress() external view returns (address);\n    function dayLen() external  view returns(uint);\n}\n\ncontract Faucet{\n    using SafeMath for uint256;\n\n    IGovernance public Igovern;\n    IAirdrop public Iairdrop;\n\n    //\n    bool public faucetType;//\n    //(faucetType)\n    address public collatorAddr;\n    //(faucetType)\n    address public techAddr;\n    //\n    uint[] public leaseDates;\n    //\n    uint256 public leaseTotal = 0;\n    //\n    bool public bstate = false;\n    //\n    uint256 public leaveNumber = 0;\n    //nimbusId\n    bytes32 public nimbusId = 0;\n\n    //\n    struct LeaseInfo{\n        uint period;//:130260\n        uint256 amount;//\n        uint256 totAmount;//\n        uint256 totMarginAmount;//\n        address redeemAddr;//\n        bool redeemFlag;//\n        bool bflag;//\n    }\n    mapping(uint => LeaseInfo) public leaseInfos;\n    //\n    address private constant precompileAddress = 0x0000000000000000000000000000000000000800;\n    address private constant precompileAuthorMappingAddr = 0x0000000000000000000000000000000000000807;\n    //\n    ParachainStaking public staking;\n    AuthorMapping public authorMapping;\n    //\n    uint public punishCount = 0;\n    //()\n    struct DayRewardInfo{\n        uint rdDate;//\n        uint256 rdAmount;//\n    }\n    DayRewardInfo public dayRewardInfo;\n    //\n    address public faucetOwner;\n    //sudo\n    address public owner;\n    //lock\n    bool private unlocked = true;\n\n    event SendReward(uint256 _reward);\n\n    event RecordRewardInfo(uint _rdDate,uint256 _rdAmount);\n\n    event LeaveRedeem(uint256 _leaveNumber);\n\n    event Association(bytes32 _nimbusId);\n\n    event RedeemState(bool _success);\n\n    constructor (){\n    }\n\n    //\n    function initialize (\n        address _governAddr,\n        address _collatorAddr,\n        address _techAddr,\n        address _faucetOwner,\n        bool _faucetType,\n        address _owner\n    ) external{\n        require(address(Igovern) == address(0),'Igovern seted!');\n        Igovern = IGovernance(_governAddr);\n        staking = ParachainStaking(precompileAddress);\n        faucetOwner = _faucetOwner;\n        owner = _owner;\n        faucetType = _faucetType;\n        if(faucetType){\n            techAddr = _techAddr;\n            authorMapping = AuthorMapping(precompileAuthorMappingAddr);\n        }else{\n            collatorAddr = _collatorAddr;\n        }\n        //constant\n        unlocked = true;\n    }\n\n    fallback () external payable{}\n\n    receive () external payable{\n        //PoolPool\n        if(Igovern.stkTokenAddr() == msg.sender){\n            if(bstate){\n                ///\n                updateFaucet();\n            }else{\n                ///\n                ActivateFaucet();\n            }\n        }\n    }\n\n    modifier isOwner() {\n        require(msg.sender == owner,'Not management!');\n        _;\n    }\n\n    function setGovernAddr(address _governAddr) public isOwner{\n        Igovern = IGovernance(_governAddr);\n    }\n\n    modifier isFaucetOwner() {\n        require(msg.sender == faucetOwner,'Not management!');\n        _;\n    }\n\n    modifier lock() {\n        require(unlocked, 'Faucet: LOCKED!');\n        unlocked = false;\n        _;\n        unlocked = true;\n    }\n\n    ///\n    function ActivateFaucet() private {\n        uint leaseDate = block.timestamp.div(24 * 60 * 60);\n        LeaseInfo memory info = leaseInfos[leaseDate];\n        require(info.bflag && info.amount > 0 && address(this).balance >= info.amount,'ActivateFaucet: info is illegal!');\n        //\n        if(faucetType){\n            staking.join_candidates(info.amount, staking.candidate_count());\n        }else{\n            staking.delegate(collatorAddr, info.amount, staking.candidate_delegation_count(collatorAddr), staking.delegator_delegation_count(address(this)));\n        }\n        leaseTotal += info.amount;\n        bstate = true;\n    }\n\n    //\n    function updateFaucet() private {\n        uint leaseDate = block.timestamp.div(24 * 60 * 60);\n        LeaseInfo memory info = leaseInfos[leaseDate];\n        require(info.bflag && info.amount > 0 && address(this).balance >= info.amount,'updateFaucet: info is illegal!');\n        //\n        if(faucetType){\n            staking.candidate_bond_more(info.amount);\n        }else{\n            staking.delegator_bond_more(collatorAddr, info.amount);\n        }\n        leaseTotal += info.amount;\n    }\n\n    //,_amount_marginAmountWei\n    function setLeaseInfo(\n        address _redeemAddr,\n        uint _leaseDate,\n        uint _period,\n        uint256 _amount,\n        uint256 _marginAmount\n    ) public{\n        require(_period > 0,'setLeaseInfo: period is illegal!');\n        require(_leaseDate > 0,'setLeaseInfo: _leaseDate is illegal!');\n        require(Igovern.stkTokenAddr() == msg.sender,'setLeaseInfo: msg.sender is illegal!');//Pool\n        require(leaveNumber == 0,'redeeming!');\n        LeaseInfo memory info = leaseInfos[_leaseDate];\n        if(info.period == 0){\n            leaseDates.push(_leaseDate);\n        }\n        info.amount = _amount;\n        info.totMarginAmount = info.totMarginAmount.add(_marginAmount);\n        if(info.bflag){\n            info.totAmount = info.totAmount.add(_amount);\n        }else{\n            info.totAmount = _amount;\n            info.bflag = true;\n        }\n        info.period = _period;\n        info.redeemFlag = false;\n        info.redeemAddr = _redeemAddr;\n        leaseInfos[_leaseDate] = info;\n    }\n\n    //\n    function collatorReward(uint256 reward) private{\n        uint256 daoFee = reward.mul(Igovern.getDaoTechFee()).div(100);\n        Address.sendValue(payable(Igovern.ownerAddress()), daoFee);\n        uint256 techFee = reward.mul(Igovern.getCollatorTechFee()).div(100);\n        Address.sendValue(payable(techAddr), techFee);\n        Address.sendValue(payable(Igovern.rewardAddr()), reward.sub(techFee).sub(daoFee));\n    }\n\n    //\n    function delegatorReward(uint256 reward) private{\n        uint256 daoFee = reward.mul(Igovern.getDaoTechFee()).div(100);\n        Address.sendValue(payable(Igovern.ownerAddress()), daoFee);\n        Address.sendValue(payable(Igovern.rewardAddr()), reward.sub(daoFee));\n    }\n\n    //\n    function sendReward() public{\n        require(bstate,'sendReward: not delegator or collator!');\n        require(leaveNumber == 0,'sendReward: redeeming!');\n        uint256 reward = address(this).balance;\n        require(reward >= Igovern.getRewardDownLimit(),'sendReward: balance is not enough!');\n        if(faucetType){\n            collatorReward(reward);\n        }else{\n            delegatorReward(reward);\n        }\n        emit SendReward(reward);\n    }\n\n    //\n    function recordRewardInfo() public{\n        require(bstate,'recordRewardInfo: not delegator or collator!');\n        uint rdDate = block.timestamp.div(24 * 60 * 60);\n        require(dayRewardInfo.rdDate < rdDate,'recordRewardInfo: rdDate is illegal!');\n        if(dayRewardInfo.rdDate > 0 && dayRewardInfo.rdAmount == address(this).balance){\n            punishCount += rdDate.sub(dayRewardInfo.rdDate);\n        }\n        dayRewardInfo.rdDate = rdDate;\n        dayRewardInfo.rdAmount = address(this).balance;\n        emit RecordRewardInfo(rdDate,address(this).balance);\n    }\n\n    //\n    function zeroIncomePunish() public lock{\n        require(bstate,'zeroIncomePunish: not delegator  or collator!');\n        require(leaveNumber == 0,'redeeming!');\n        require(punishCount >= Igovern.getZeroTimeLimit(),'zeroIncomePunish: punishCount is not enough!');\n        Iairdrop = IAirdrop(Igovern.retTokenAddr());\n        for(uint i = 0;i < leaseDates.length; i++){\n            uint leaseDate = leaseDates[i];\n            LeaseInfo memory info = leaseInfos[leaseDate];\n            if(info.bflag){\n                info.bflag = false;\n                leaseInfos[leaseDate] = info;\n                Iairdrop.zeroIncomePunish(leaseDate,info.totMarginAmount);\n            }\n        }\n        //\n        bstate = false;\n        leaveNumber = block.number;\n        if(faucetType){\n            staking.schedule_leave_candidates(staking.candidate_count());\n        }else{\n            staking.schedule_leave_delegators();\n        }\n        emit LeaveRedeem(leaveNumber);\n    }\n\n    //\n    function scheduleRedeemStake() public lock{\n        require(bstate,'not delegator or collator!');\n        require(leaveNumber == 0,'redeeming!');\n        //\n        LeaseInfo memory info;\n        uint redeemDate = 0;\n        for(uint i = 0;i < leaseDates.length; i++){\n            uint leaseDate = leaseDates[i];\n            info = leaseInfos[leaseDate];\n            if(info.bflag && leaseDate.add(info.period * Igovern.dayLen()) <= block.timestamp.div(24 * 60 * 60)){\n                redeemDate = leaseDate;\n                break;\n            }\n        }\n        require(redeemDate > 0,'scheduleRedeem is not exists!');\n        //\n        leaveNumber = block.number;\n        if(leaseTotal.sub(info.totAmount) < staking.min_delegation()){\n            bstate = false;\n            if(faucetType){\n                staking.schedule_leave_candidates(staking.candidate_count());\n            }else{\n                staking.schedule_leave_delegators();\n            }\n        }else{\n            info.redeemFlag = true;\n            leaseInfos[redeemDate] = info;\n            if(faucetType){\n                staking.schedule_candidate_bond_less(info.totAmount);\n            }else{\n                staking.schedule_delegator_bond_less(collatorAddr, info.totAmount);\n            }\n        }\n        emit LeaveRedeem(leaveNumber);\n    }\n    //Pool\n    function executeRedeemStake() public lock{\n        require(leaveNumber > 0,'Redeem schedule is not exists!');\n        //\n        require(leaveNumber.add(Igovern.blockHeight()) <= block.number,'not yet reached!');\n        leaveNumber = 0;\n        Iairdrop = IAirdrop(Igovern.retTokenAddr());\n        if(!bstate){\n            if(faucetType){\n                //\n                if(staking.candidate_exit_is_pending(address(this))){\n                    staking.execute_leave_candidates(address(this),staking.candidate_delegation_count(address(this)));\n                }\n                if(nimbusId > 0){\n                    authorMapping.clear_association(nimbusId);\n                    nimbusId = 0;\n                }\n                //\n                uint256 reward = address(this).balance.sub(leaseTotal);\n                Address.sendValue(payable(Igovern.stkTokenAddr()), leaseTotal);\n                leaseTotal = 0;\n                if(reward > 0){\n                    collatorReward(reward);\n                }\n            }else{\n                //\n                if(staking.delegator_exit_is_pending(address(this))){\n                    staking.execute_leave_delegators(address(this),staking.delegator_delegation_count(address(this)));\n                }\n                //\n                uint256 reward = address(this).balance.sub(leaseTotal);\n                Address.sendValue(payable(Igovern.stkTokenAddr()), leaseTotal);\n                leaseTotal = 0;\n                if(reward > 0){\n                    delegatorReward(reward);\n                }\n            }\n            for(uint i = 0;i < leaseDates.length; i++){\n                uint leaseDate = leaseDates[i];\n                LeaseInfo memory info = leaseInfos[leaseDate];\n                if(info.bflag){\n                    info.bflag = false;\n                    leaseInfos[leaseDate] = info;\n                    Iairdrop.unlockLeaseMargin(info.redeemAddr,leaseDate,info.totMarginAmount);\n                }\n            }\n        }else{\n            for(uint i = 0;i < leaseDates.length; i++){\n                uint leaseDate = leaseDates[i];\n                LeaseInfo memory info = leaseInfos[leaseDate];\n                if(info.bflag && info.redeemFlag){\n                    info.bflag = false;\n                    info.redeemFlag = false;\n                    leaseInfos[leaseDate] = info;\n                    if(faucetType){\n                        //\n                        if(staking.candidate_request_is_pending(address(this))){\n                            staking.execute_candidate_bond_less(address(this));\n                        }\n                    }else {\n                        //\n                        if(staking.delegation_request_is_pending(address(this), collatorAddr)){\n                            staking.execute_delegation_request(address(this),collatorAddr);\n                        }\n                    }\n                    leaseTotal = leaseTotal.sub(info.totAmount);\n                    Address.sendValue(payable(Igovern.stkTokenAddr()), info.totAmount);\n                    Iairdrop.unlockLeaseMargin(info.redeemAddr,leaseDate,info.totMarginAmount);\n                    break;\n                }\n            }\n        }\n        emit RedeemState(true);\n    }\n\n    //NimbusId()\n    function addAssociation(bytes32 newNimbusId) public isOwner(){\n        require(faucetType && bstate,'not collator!');\n        require(address(this).balance >= Igovern.authorAmount(),'balance not enough!');\n        authorMapping.add_association(newNimbusId);\n        nimbusId = newNimbusId;\n        emit Association(nimbusId);\n    }\n\n    //NimbusId()\n    function updateAssociation(bytes32 oldNimbusId,bytes32 newNimbusId) public isOwner(){\n        require(nimbusId > 0,'Association not binded!');\n        authorMapping.update_association(oldNimbusId,newNimbusId);\n        nimbusId = newNimbusId;\n        emit Association(nimbusId);\n    }\n\n    //token\n    function balance() public view returns(uint256){\n        return address(this).balance;\n    }\n\n    function getRecordRewardDate() public view returns(uint){\n        return dayRewardInfo.rdDate;\n    }\n\n    function getPendingRedeemDate() public view returns(uint){\n        uint redeemDate = 0;\n        for(uint i = 0;i < leaseDates.length; i++){\n            uint leaseDate = leaseDates[i];\n            LeaseInfo memory info = leaseInfos[leaseDate];\n            uint expiryDate = leaseDate.add(info.period * Igovern.dayLen());\n            if(info.bflag\n                && expiryDate <= block.timestamp.div(24 * 60 * 60)){\n                redeemDate = leaseDate;\n                break;\n            }\n        }\n        return redeemDate;\n    }\n\n    function getPendingRedeemAmount() public view returns(uint){\n        uint redeemAmount = 0;\n        if(!bstate){\n            if(leaveNumber > 0){\n                redeemAmount = leaseTotal;\n            }\n        }else{\n            for(uint i = 0;i < leaseDates.length; i++){\n                uint leaseDate = leaseDates[i];\n                LeaseInfo memory info = leaseInfos[leaseDate];\n                if(info.bflag  && info.redeemFlag){\n                    redeemAmount = info.totAmount;\n                    break;\n                }\n            }\n        }\n        return redeemAmount;\n    }\n\n    function startDelegate(address collator) public payable {\n        staking.delegate(collator, msg.value, staking.candidate_delegation_count(collator), staking.delegator_delegation_count(address(this)));\n    }\n\n    function scheduleExitDelegate() public{\n        staking.schedule_leave_delegators();\n        leaveNumber = block.number;\n    }\n\n    function executeExitDelegate() public{\n        staking.execute_leave_delegators(address(this),staking.delegator_delegation_count(address(this)));\n    }\n\n    function executeExitDelegatePending() public{\n        if(staking.delegator_exit_is_pending(address(this))){\n            leaveNumber = 0;\n            staking.execute_leave_delegators(address(this),staking.delegator_delegation_count(address(this)));\n        }\n    }\n\n    function redeemStake(address redeem) public{\n        Address.sendValue(payable(redeem), address(this).balance);\n    }\n}",
  "sourcePath": "D:\\\\vueDao\\StakeFinance\\truffle-dev\\contracts\\Faucet.sol",
  "compiler": {
    "name": "solc",
    "version": "0.8.12+commit.f00d7308.Emscripten.clang"
  },
  "schemaVersion": "3.4.5",
  "updatedAt": "2022-06-20T02:52:10.438Z",
  "devdoc": {
    "kind": "dev",
    "methods": {},
    "version": 1
  },
  "userdoc": {
    "kind": "user",
    "methods": {},
    "version": 1
  }
}