{
  "contractName": "Governance",
  "abi": [
    {
      "inputs": [],
      "stateMutability": "nonpayable",
      "type": "constructor"
    },
    {
      "anonymous": false,
      "inputs": [
        {
          "indexed": true,
          "internalType": "address",
          "name": "creator",
          "type": "address"
        },
        {
          "indexed": false,
          "internalType": "uint256",
          "name": "number",
          "type": "uint256"
        },
        {
          "indexed": false,
          "internalType": "uint256",
          "name": "governType",
          "type": "uint256"
        },
        {
          "indexed": false,
          "internalType": "uint256",
          "name": "startDate",
          "type": "uint256"
        },
        {
          "indexed": false,
          "internalType": "uint256",
          "name": "endDate",
          "type": "uint256"
        },
        {
          "indexed": false,
          "internalType": "uint256",
          "name": "uintValue",
          "type": "uint256"
        },
        {
          "indexed": false,
          "internalType": "string",
          "name": "strValue",
          "type": "string"
        },
        {
          "indexed": false,
          "internalType": "uint256",
          "name": "totalVoter",
          "type": "uint256"
        }
      ],
      "name": "StartGovern",
      "type": "event"
    },
    {
      "anonymous": false,
      "inputs": [
        {
          "indexed": true,
          "internalType": "address",
          "name": "votor",
          "type": "address"
        },
        {
          "indexed": false,
          "internalType": "uint256",
          "name": "number",
          "type": "uint256"
        },
        {
          "indexed": false,
          "internalType": "uint256",
          "name": "governType",
          "type": "uint256"
        },
        {
          "indexed": false,
          "internalType": "uint256",
          "name": "state",
          "type": "uint256"
        },
        {
          "indexed": false,
          "internalType": "uint256",
          "name": "voters",
          "type": "uint256"
        }
      ],
      "name": "VoteByNumber",
      "type": "event"
    },
    {
      "inputs": [],
      "name": "Ipool",
      "outputs": [
        {
          "internalType": "contract IPool",
          "name": "",
          "type": "address"
        }
      ],
      "stateMutability": "view",
      "type": "function"
    },
    {
      "inputs": [],
      "name": "authorAmount",
      "outputs": [
        {
          "internalType": "uint256",
          "name": "",
          "type": "uint256"
        }
      ],
      "stateMutability": "view",
      "type": "function"
    },
    {
      "inputs": [],
      "name": "blockHeight",
      "outputs": [
        {
          "internalType": "uint256",
          "name": "",
          "type": "uint256"
        }
      ],
      "stateMutability": "view",
      "type": "function"
    },
    {
      "inputs": [],
      "name": "collatorTechLimit",
      "outputs": [
        {
          "internalType": "uint256",
          "name": "",
          "type": "uint256"
        }
      ],
      "stateMutability": "view",
      "type": "function"
    },
    {
      "inputs": [],
      "name": "currentNumber",
      "outputs": [
        {
          "internalType": "uint256",
          "name": "",
          "type": "uint256"
        }
      ],
      "stateMutability": "view",
      "type": "function"
    },
    {
      "inputs": [],
      "name": "daoTechLimit",
      "outputs": [
        {
          "internalType": "uint256",
          "name": "",
          "type": "uint256"
        }
      ],
      "stateMutability": "view",
      "type": "function"
    },
    {
      "inputs": [],
      "name": "dayLen",
      "outputs": [
        {
          "internalType": "uint256",
          "name": "",
          "type": "uint256"
        }
      ],
      "stateMutability": "view",
      "type": "function"
    },
    {
      "inputs": [],
      "name": "dropProportion",
      "outputs": [
        {
          "internalType": "uint256",
          "name": "",
          "type": "uint256"
        }
      ],
      "stateMutability": "view",
      "type": "function"
    },
    {
      "inputs": [],
      "name": "etherBase",
      "outputs": [
        {
          "internalType": "uint256",
          "name": "",
          "type": "uint256"
        }
      ],
      "stateMutability": "view",
      "type": "function"
    },
    {
      "inputs": [],
      "name": "owner",
      "outputs": [
        {
          "internalType": "address",
          "name": "",
          "type": "address"
        }
      ],
      "stateMutability": "view",
      "type": "function"
    },
    {
      "inputs": [],
      "name": "retTokenAddr",
      "outputs": [
        {
          "internalType": "address",
          "name": "",
          "type": "address"
        }
      ],
      "stateMutability": "view",
      "type": "function"
    },
    {
      "inputs": [],
      "name": "rewardAddr",
      "outputs": [
        {
          "internalType": "address",
          "name": "",
          "type": "address"
        }
      ],
      "stateMutability": "view",
      "type": "function"
    },
    {
      "inputs": [],
      "name": "rewardType",
      "outputs": [
        {
          "internalType": "bool",
          "name": "",
          "type": "bool"
        }
      ],
      "stateMutability": "view",
      "type": "function"
    },
    {
      "inputs": [],
      "name": "searchAddr",
      "outputs": [
        {
          "internalType": "address",
          "name": "",
          "type": "address"
        }
      ],
      "stateMutability": "view",
      "type": "function"
    },
    {
      "inputs": [],
      "name": "stkTokenAddr",
      "outputs": [
        {
          "internalType": "address",
          "name": "",
          "type": "address"
        }
      ],
      "stateMutability": "view",
      "type": "function"
    },
    {
      "inputs": [],
      "name": "voterDownLimit",
      "outputs": [
        {
          "internalType": "uint256",
          "name": "",
          "type": "uint256"
        }
      ],
      "stateMutability": "view",
      "type": "function"
    },
    {
      "inputs": [
        {
          "internalType": "uint256",
          "name": "_authorAmount",
          "type": "uint256"
        },
        {
          "internalType": "uint256",
          "name": "_blockHeight",
          "type": "uint256"
        },
        {
          "internalType": "address",
          "name": "_owner",
          "type": "address"
        }
      ],
      "name": "initialize",
      "outputs": [],
      "stateMutability": "nonpayable",
      "type": "function"
    },
    {
      "inputs": [
        {
          "internalType": "address",
          "name": "_stkTokenAddr",
          "type": "address"
        }
      ],
      "name": "setStkTokenAddr",
      "outputs": [],
      "stateMutability": "nonpayable",
      "type": "function"
    },
    {
      "inputs": [
        {
          "internalType": "address",
          "name": "_rewardAddr",
          "type": "address"
        }
      ],
      "name": "setRewardAddr",
      "outputs": [],
      "stateMutability": "nonpayable",
      "type": "function"
    },
    {
      "inputs": [
        {
          "internalType": "address",
          "name": "_retTokenAddr",
          "type": "address"
        }
      ],
      "name": "setRetTokenAddr",
      "outputs": [],
      "stateMutability": "nonpayable",
      "type": "function"
    },
    {
      "inputs": [
        {
          "internalType": "address",
          "name": "_searchAddr",
          "type": "address"
        }
      ],
      "name": "setSearchAddr",
      "outputs": [],
      "stateMutability": "nonpayable",
      "type": "function"
    },
    {
      "inputs": [
        {
          "internalType": "uint256",
          "name": "_daoTechFee",
          "type": "uint256"
        }
      ],
      "name": "setDaoTechFee",
      "outputs": [],
      "stateMutability": "nonpayable",
      "type": "function"
    },
    {
      "inputs": [
        {
          "internalType": "uint256",
          "name": "_collatorTechFee",
          "type": "uint256"
        }
      ],
      "name": "setCollatorTechFee",
      "outputs": [],
      "stateMutability": "nonpayable",
      "type": "function"
    },
    {
      "inputs": [
        {
          "internalType": "uint256",
          "name": "_fundsDownLimit",
          "type": "uint256"
        }
      ],
      "name": "setFundsDownLimit",
      "outputs": [],
      "stateMutability": "nonpayable",
      "type": "function"
    },
    {
      "inputs": [
        {
          "internalType": "uint256",
          "name": "_fundsUpLimit",
          "type": "uint256"
        }
      ],
      "name": "setFundsUpLimit",
      "outputs": [],
      "stateMutability": "nonpayable",
      "type": "function"
    },
    {
      "inputs": [
        {
          "internalType": "uint256",
          "name": "_perInvestDownLimit",
          "type": "uint256"
        }
      ],
      "name": "setPerInvestDownLimit",
      "outputs": [],
      "stateMutability": "nonpayable",
      "type": "function"
    },
    {
      "inputs": [
        {
          "internalType": "uint256",
          "name": "_voterProportion",
          "type": "uint256"
        }
      ],
      "name": "setVoterProportion",
      "outputs": [],
      "stateMutability": "nonpayable",
      "type": "function"
    },
    {
      "inputs": [
        {
          "internalType": "uint256",
          "name": "_rewardDownLimit",
          "type": "uint256"
        }
      ],
      "name": "setRewardDownLimit",
      "outputs": [],
      "stateMutability": "nonpayable",
      "type": "function"
    },
    {
      "inputs": [
        {
          "internalType": "uint256",
          "name": "_calTime",
          "type": "uint256"
        }
      ],
      "name": "setCalTime",
      "outputs": [],
      "stateMutability": "nonpayable",
      "type": "function"
    },
    {
      "inputs": [
        {
          "internalType": "uint256",
          "name": "_redeemTimeLimit",
          "type": "uint256"
        }
      ],
      "name": "setRedeemTimeLimit",
      "outputs": [],
      "stateMutability": "nonpayable",
      "type": "function"
    },
    {
      "inputs": [
        {
          "internalType": "uint256",
          "name": "_zeroTimeLimit",
          "type": "uint256"
        }
      ],
      "name": "setZeroTimeLimit",
      "outputs": [],
      "stateMutability": "nonpayable",
      "type": "function"
    },
    {
      "inputs": [
        {
          "internalType": "uint256",
          "name": "_marginProportion",
          "type": "uint256"
        }
      ],
      "name": "setMarginProportion",
      "outputs": [],
      "stateMutability": "nonpayable",
      "type": "function"
    },
    {
      "inputs": [
        {
          "internalType": "uint256",
          "name": "_proposalDownLimit",
          "type": "uint256"
        }
      ],
      "name": "setProposalDownLimit",
      "outputs": [],
      "stateMutability": "nonpayable",
      "type": "function"
    },
    {
      "inputs": [
        {
          "internalType": "uint256",
          "name": "_daoTechFee",
          "type": "uint256"
        },
        {
          "internalType": "uint256",
          "name": "_startDate",
          "type": "uint256"
        },
        {
          "internalType": "uint256",
          "name": "_endDate",
          "type": "uint256"
        }
      ],
      "name": "startDTGovern",
      "outputs": [],
      "stateMutability": "nonpayable",
      "type": "function"
    },
    {
      "inputs": [
        {
          "internalType": "uint256",
          "name": "_collatorTechFee",
          "type": "uint256"
        },
        {
          "internalType": "uint256",
          "name": "_startDate",
          "type": "uint256"
        },
        {
          "internalType": "uint256",
          "name": "_endDate",
          "type": "uint256"
        }
      ],
      "name": "startCTGovern",
      "outputs": [],
      "stateMutability": "nonpayable",
      "type": "function"
    },
    {
      "inputs": [
        {
          "internalType": "uint256",
          "name": "_fundsDownLimit",
          "type": "uint256"
        },
        {
          "internalType": "uint256",
          "name": "_startDate",
          "type": "uint256"
        },
        {
          "internalType": "uint256",
          "name": "_endDate",
          "type": "uint256"
        }
      ],
      "name": "startFDLGovern",
      "outputs": [],
      "stateMutability": "nonpayable",
      "type": "function"
    },
    {
      "inputs": [
        {
          "internalType": "uint256",
          "name": "_fundsUpLimit",
          "type": "uint256"
        },
        {
          "internalType": "uint256",
          "name": "_startDate",
          "type": "uint256"
        },
        {
          "internalType": "uint256",
          "name": "_endDate",
          "type": "uint256"
        }
      ],
      "name": "startFULGovern",
      "outputs": [],
      "stateMutability": "nonpayable",
      "type": "function"
    },
    {
      "inputs": [
        {
          "internalType": "uint256",
          "name": "_perInvestDownLimit",
          "type": "uint256"
        },
        {
          "internalType": "uint256",
          "name": "_startDate",
          "type": "uint256"
        },
        {
          "internalType": "uint256",
          "name": "_endDate",
          "type": "uint256"
        }
      ],
      "name": "startPIDLGovern",
      "outputs": [],
      "stateMutability": "nonpayable",
      "type": "function"
    },
    {
      "inputs": [
        {
          "internalType": "uint256",
          "name": "_voterProportion",
          "type": "uint256"
        },
        {
          "internalType": "uint256",
          "name": "_startDate",
          "type": "uint256"
        },
        {
          "internalType": "uint256",
          "name": "_endDate",
          "type": "uint256"
        }
      ],
      "name": "startVPGovern",
      "outputs": [],
      "stateMutability": "nonpayable",
      "type": "function"
    },
    {
      "inputs": [
        {
          "internalType": "uint256",
          "name": "_rewardDownLimit",
          "type": "uint256"
        },
        {
          "internalType": "uint256",
          "name": "_startDate",
          "type": "uint256"
        },
        {
          "internalType": "uint256",
          "name": "_endDate",
          "type": "uint256"
        }
      ],
      "name": "startRDGovern",
      "outputs": [],
      "stateMutability": "nonpayable",
      "type": "function"
    },
    {
      "inputs": [
        {
          "internalType": "uint256",
          "name": "_calTime",
          "type": "uint256"
        },
        {
          "internalType": "uint256",
          "name": "_startDate",
          "type": "uint256"
        },
        {
          "internalType": "uint256",
          "name": "_endDate",
          "type": "uint256"
        }
      ],
      "name": "startCATGovern",
      "outputs": [],
      "stateMutability": "nonpayable",
      "type": "function"
    },
    {
      "inputs": [
        {
          "internalType": "uint256",
          "name": "_redeemTimeLimit",
          "type": "uint256"
        },
        {
          "internalType": "uint256",
          "name": "_startDate",
          "type": "uint256"
        },
        {
          "internalType": "uint256",
          "name": "_endDate",
          "type": "uint256"
        }
      ],
      "name": "startRTLGovern",
      "outputs": [],
      "stateMutability": "nonpayable",
      "type": "function"
    },
    {
      "inputs": [
        {
          "internalType": "uint256",
          "name": "_zeroTimeLimit",
          "type": "uint256"
        },
        {
          "internalType": "uint256",
          "name": "_startDate",
          "type": "uint256"
        },
        {
          "internalType": "uint256",
          "name": "_endDate",
          "type": "uint256"
        }
      ],
      "name": "startZTLGovern",
      "outputs": [],
      "stateMutability": "nonpayable",
      "type": "function"
    },
    {
      "inputs": [
        {
          "internalType": "uint256",
          "name": "_marginProportion",
          "type": "uint256"
        },
        {
          "internalType": "uint256",
          "name": "_startDate",
          "type": "uint256"
        },
        {
          "internalType": "uint256",
          "name": "_endDate",
          "type": "uint256"
        }
      ],
      "name": "startMPGovern",
      "outputs": [],
      "stateMutability": "nonpayable",
      "type": "function"
    },
    {
      "inputs": [
        {
          "internalType": "uint256",
          "name": "_proposalDownLimit",
          "type": "uint256"
        },
        {
          "internalType": "uint256",
          "name": "_startDate",
          "type": "uint256"
        },
        {
          "internalType": "uint256",
          "name": "_endDate",
          "type": "uint256"
        }
      ],
      "name": "startPDLGovern",
      "outputs": [],
      "stateMutability": "nonpayable",
      "type": "function"
    },
    {
      "inputs": [
        {
          "internalType": "string",
          "name": "_urlPath",
          "type": "string"
        },
        {
          "internalType": "uint256",
          "name": "_startDate",
          "type": "uint256"
        },
        {
          "internalType": "uint256",
          "name": "_endDate",
          "type": "uint256"
        }
      ],
      "name": "startUrlGovern",
      "outputs": [],
      "stateMutability": "nonpayable",
      "type": "function"
    },
    {
      "inputs": [
        {
          "internalType": "uint256",
          "name": "_number",
          "type": "uint256"
        },
        {
          "internalType": "uint256",
          "name": "_state",
          "type": "uint256"
        }
      ],
      "name": "voteTPByNumber",
      "outputs": [],
      "stateMutability": "nonpayable",
      "type": "function"
    },
    {
      "inputs": [
        {
          "internalType": "uint256",
          "name": "_number",
          "type": "uint256"
        },
        {
          "internalType": "uint256",
          "name": "_state",
          "type": "uint256"
        }
      ],
      "name": "voteCTByNumber",
      "outputs": [],
      "stateMutability": "nonpayable",
      "type": "function"
    },
    {
      "inputs": [
        {
          "internalType": "uint256",
          "name": "_number",
          "type": "uint256"
        },
        {
          "internalType": "uint256",
          "name": "_state",
          "type": "uint256"
        }
      ],
      "name": "voteFDLByNumber",
      "outputs": [],
      "stateMutability": "nonpayable",
      "type": "function"
    },
    {
      "inputs": [
        {
          "internalType": "uint256",
          "name": "_number",
          "type": "uint256"
        },
        {
          "internalType": "uint256",
          "name": "_state",
          "type": "uint256"
        }
      ],
      "name": "voteFULByNumber",
      "outputs": [],
      "stateMutability": "nonpayable",
      "type": "function"
    },
    {
      "inputs": [
        {
          "internalType": "uint256",
          "name": "_number",
          "type": "uint256"
        },
        {
          "internalType": "uint256",
          "name": "_state",
          "type": "uint256"
        }
      ],
      "name": "votePIDLByNumber",
      "outputs": [],
      "stateMutability": "nonpayable",
      "type": "function"
    },
    {
      "inputs": [
        {
          "internalType": "uint256",
          "name": "_number",
          "type": "uint256"
        },
        {
          "internalType": "uint256",
          "name": "_state",
          "type": "uint256"
        }
      ],
      "name": "voteVPByNumber",
      "outputs": [],
      "stateMutability": "nonpayable",
      "type": "function"
    },
    {
      "inputs": [
        {
          "internalType": "uint256",
          "name": "_number",
          "type": "uint256"
        },
        {
          "internalType": "uint256",
          "name": "_state",
          "type": "uint256"
        }
      ],
      "name": "voteRDByNumber",
      "outputs": [],
      "stateMutability": "nonpayable",
      "type": "function"
    },
    {
      "inputs": [
        {
          "internalType": "uint256",
          "name": "_number",
          "type": "uint256"
        },
        {
          "internalType": "uint256",
          "name": "_state",
          "type": "uint256"
        }
      ],
      "name": "voteCATByNumber",
      "outputs": [],
      "stateMutability": "nonpayable",
      "type": "function"
    },
    {
      "inputs": [
        {
          "internalType": "uint256",
          "name": "_number",
          "type": "uint256"
        },
        {
          "internalType": "uint256",
          "name": "_state",
          "type": "uint256"
        }
      ],
      "name": "voteRTLByNumber",
      "outputs": [],
      "stateMutability": "nonpayable",
      "type": "function"
    },
    {
      "inputs": [
        {
          "internalType": "uint256",
          "name": "_number",
          "type": "uint256"
        },
        {
          "internalType": "uint256",
          "name": "_state",
          "type": "uint256"
        }
      ],
      "name": "voteZTLByNumber",
      "outputs": [],
      "stateMutability": "nonpayable",
      "type": "function"
    },
    {
      "inputs": [
        {
          "internalType": "uint256",
          "name": "_number",
          "type": "uint256"
        },
        {
          "internalType": "uint256",
          "name": "_state",
          "type": "uint256"
        }
      ],
      "name": "voteMPByNumber",
      "outputs": [],
      "stateMutability": "nonpayable",
      "type": "function"
    },
    {
      "inputs": [
        {
          "internalType": "uint256",
          "name": "_number",
          "type": "uint256"
        },
        {
          "internalType": "uint256",
          "name": "_state",
          "type": "uint256"
        }
      ],
      "name": "votePDLByNumber",
      "outputs": [],
      "stateMutability": "nonpayable",
      "type": "function"
    },
    {
      "inputs": [
        {
          "internalType": "uint256",
          "name": "_number",
          "type": "uint256"
        },
        {
          "internalType": "uint256",
          "name": "_state",
          "type": "uint256"
        }
      ],
      "name": "voteURLByNumber",
      "outputs": [],
      "stateMutability": "nonpayable",
      "type": "function"
    },
    {
      "inputs": [],
      "name": "getDaoTechFee",
      "outputs": [
        {
          "internalType": "uint256",
          "name": "",
          "type": "uint256"
        }
      ],
      "stateMutability": "view",
      "type": "function"
    },
    {
      "inputs": [],
      "name": "getCollatorTechFee",
      "outputs": [
        {
          "internalType": "uint256",
          "name": "",
          "type": "uint256"
        }
      ],
      "stateMutability": "view",
      "type": "function"
    },
    {
      "inputs": [],
      "name": "getFundsDownLimit",
      "outputs": [
        {
          "internalType": "uint256",
          "name": "",
          "type": "uint256"
        }
      ],
      "stateMutability": "view",
      "type": "function"
    },
    {
      "inputs": [],
      "name": "getFundsUpLimit",
      "outputs": [
        {
          "internalType": "uint256",
          "name": "",
          "type": "uint256"
        }
      ],
      "stateMutability": "view",
      "type": "function"
    },
    {
      "inputs": [],
      "name": "getPerInvestDownLimit",
      "outputs": [
        {
          "internalType": "uint256",
          "name": "",
          "type": "uint256"
        }
      ],
      "stateMutability": "view",
      "type": "function"
    },
    {
      "inputs": [],
      "name": "getVoterProportion",
      "outputs": [
        {
          "internalType": "uint256",
          "name": "",
          "type": "uint256"
        }
      ],
      "stateMutability": "view",
      "type": "function"
    },
    {
      "inputs": [],
      "name": "getRewardDownLimit",
      "outputs": [
        {
          "internalType": "uint256",
          "name": "",
          "type": "uint256"
        }
      ],
      "stateMutability": "view",
      "type": "function"
    },
    {
      "inputs": [],
      "name": "getCalTime",
      "outputs": [
        {
          "internalType": "uint256",
          "name": "",
          "type": "uint256"
        }
      ],
      "stateMutability": "view",
      "type": "function"
    },
    {
      "inputs": [],
      "name": "getRedeemTimeLimit",
      "outputs": [
        {
          "internalType": "uint256",
          "name": "",
          "type": "uint256"
        }
      ],
      "stateMutability": "view",
      "type": "function"
    },
    {
      "inputs": [],
      "name": "getZeroTimeLimit",
      "outputs": [
        {
          "internalType": "uint256",
          "name": "",
          "type": "uint256"
        }
      ],
      "stateMutability": "view",
      "type": "function"
    },
    {
      "inputs": [],
      "name": "getMarginProportion",
      "outputs": [
        {
          "internalType": "uint256",
          "name": "",
          "type": "uint256"
        }
      ],
      "stateMutability": "view",
      "type": "function"
    },
    {
      "inputs": [],
      "name": "getProposalDownLimit",
      "outputs": [
        {
          "internalType": "uint256",
          "name": "",
          "type": "uint256"
        }
      ],
      "stateMutability": "view",
      "type": "function"
    },
    {
      "inputs": [
        {
          "internalType": "uint256",
          "name": "_number",
          "type": "uint256"
        }
      ],
      "name": "getGovernanceInfo",
      "outputs": [
        {
          "internalType": "uint256",
          "name": "governType",
          "type": "uint256"
        },
        {
          "internalType": "uint256",
          "name": "startDate",
          "type": "uint256"
        },
        {
          "internalType": "uint256",
          "name": "endDate",
          "type": "uint256"
        },
        {
          "internalType": "uint256",
          "name": "uintValue",
          "type": "uint256"
        },
        {
          "internalType": "string",
          "name": "strValue",
          "type": "string"
        },
        {
          "internalType": "uint256",
          "name": "totalVoter",
          "type": "uint256"
        },
        {
          "internalType": "uint256",
          "name": "approveVoter",
          "type": "uint256"
        },
        {
          "internalType": "uint256",
          "name": "opposeVoter",
          "type": "uint256"
        },
        {
          "internalType": "uint8",
          "name": "governState",
          "type": "uint8"
        }
      ],
      "stateMutability": "view",
      "type": "function"
    },
    {
      "inputs": [
        {
          "internalType": "uint256",
          "name": "_governType",
          "type": "uint256"
        }
      ],
      "name": "getGovernEndDate",
      "outputs": [
        {
          "internalType": "uint256",
          "name": "",
          "type": "uint256"
        }
      ],
      "stateMutability": "view",
      "type": "function"
    },
    {
      "inputs": [
        {
          "internalType": "uint256",
          "name": "_number",
          "type": "uint256"
        },
        {
          "internalType": "address",
          "name": "_addr",
          "type": "address"
        }
      ],
      "name": "getGovernanceVote",
      "outputs": [
        {
          "internalType": "uint256",
          "name": "",
          "type": "uint256"
        }
      ],
      "stateMutability": "view",
      "type": "function"
    }
  ],
  "bytecode": "0x6080604052600060125534801561001557600080fd5b50615c7c80620000266000396000f3fe608060405234801561001057600080fd5b506004361061043e5760003560e01c80638e25619211610236578063ca00b0311161013b578063dcc40b1d116100c3578063efd043e211610087578063efd043e214610c47578063f2a1959214610c63578063f44ff71214610c81578063f47d029814610c9f578063f73a967814610cbb5761043e565b8063dcc40b1d14610bb7578063e6164bfb14610bd3578063e7f8c70714610bf1578063e88d0eb514610c0d578063ecf5ecad14610c2b5761043e565b8063cf2d37b81161010a578063cf2d37b814610b27578063d1d25fab14610b43578063d38d0a9214610b61578063d41c380514610b7f578063d7b74bb614610b9b5761043e565b8063ca00b03114610ab5578063cd19d25f14610ad1578063cdded34f14610aed578063ce302ba414610b095761043e565b8063a909a232116101be578063b97fb3ae1161018d578063b97fb3ae14610a25578063b9c0781d14610a43578063bf10902514610a5f578063c15045b014610a7d578063c783783d14610a995761043e565b8063a909a232146109b1578063b18c2e64146109cf578063b374befd146109eb578063b8324c8414610a095761043e565b806398b04c061161020557806398b04c061461091f5780639b4434e81461093d5780639c5518e814610959578063a6ab36f214610977578063a8e92704146109935761043e565b80638e256192146108ab5780639054031d146108c757806396434796146108e5578063989a6358146109015761043e565b80635abc962d116103475780637015e95e116102cf57806384862faf1161029357806384862faf14610819578063860df7ea14610837578063865057eb1461085357806387e1164f1461086f5780638da5cb5b1461088d5761043e565b80637015e95e1461078b578063752c7894146107a957806377d2e24b146107c55780637e213a3e146107e15780638215a17b146107fd5761043e565b8063657100f711610316578063657100f7146106f957806366735775146107175780636ac61d69146107335780636ec13680146107515780636f1d04221461076d5761043e565b80635abc962d146106735780635bc283691461068f5780635d83565b146106ab5780635ee0642d146106db5761043e565b80632303ced7116103ca57806330b6e3661161039957806330b6e366146105d3578063343d17a4146105ef5780633bbf6ba61461060b5780633ec9807b1461063b578063459f52e4146106575761043e565b80632303ced71461054557806323cc5829146105615780632a20cc801461057d5780632fbfbdb6146105b55761043e565b80630eb4682b116104115780630eb4682b146104b557806310c9a73b146104d1578063137df2de146104ed5780631eec98f41461050957806321cec6af146105275761043e565b806306b09888146104435780630833079e1461045f57806308c17a4a1461047b57806309664afe14610499575b600080fd5b61045d60048036038101906104589190614a7e565b610cd7565b005b61047960048036038101906104749190614a7e565b610d01565b005b610483610d2b565b6040516104909190614aff565b60405180910390f35b6104b360048036038101906104ae9190614b46565b610d51565b005b6104cf60048036038101906104ca9190614b73565b610e7e565b005b6104eb60048036038101906104e69190614bc6565b610f78565b005b61050760048036038101906105029190614bc6565b611130565b005b6105116112a4565b60405161051e9190614c02565b60405180910390f35b61052f6112b0565b60405161053c9190614c02565b60405180910390f35b61055f600480360381019061055a9190614bc6565b6112bc565b005b61057b60048036038101906105769190614a7e565b611430565b005b61059760048036038101906105929190614bc6565b61145a565b6040516105ac99989796959493929190614cd2565b60405180910390f35b6105bd611622565b6040516105ca9190614c02565b60405180910390f35b6105ed60048036038101906105e89190614bc6565b61162e565b005b61060960048036038101906106049190614b73565b6117a2565b005b61062560048036038101906106209190614bc6565b6118e0565b6040516106329190614c02565b60405180910390f35b61065560048036038101906106509190614b46565b6118fd565b005b610671600480360381019061066c9190614bc6565b611a2a565b005b61068d60048036038101906106889190614b73565b611b9e565b005b6106a960048036038101906106a49190614b73565b611c98565b005b6106c560048036038101906106c09190614d66565b611d92565b6040516106d29190614c02565b60405180910390f35b6106e3611ded565b6040516106f09190614c02565b60405180910390f35b610701611df9565b60405161070e9190614c02565b60405180910390f35b610731600480360381019061072c9190614b73565b611dfe565b005b61073b611ef8565b6040516107489190614c02565b60405180910390f35b61076b60048036038101906107669190614b46565b611f04565b005b610775612031565b6040516107829190614c02565b60405180910390f35b61079361203d565b6040516107a09190614aff565b60405180910390f35b6107c360048036038101906107be9190614edb565b612063565b005b6107df60048036038101906107da9190614b46565b61214f565b005b6107fb60048036038101906107f69190614b73565b6122bd565b005b61081760048036038101906108129190614bc6565b6123b7565b005b61082161252b565b60405161082e9190614c02565b60405180910390f35b610851600480360381019061084c9190614a7e565b612537565b005b61086d60048036038101906108689190614a7e565b612561565b005b61087761258b565b6040516108849190614c02565b60405180910390f35b610895612597565b6040516108a29190614aff565b60405180910390f35b6108c560048036038101906108c09190614b73565b6125bd565b005b6108cf6126fb565b6040516108dc9190614c02565b60405180910390f35b6108ff60048036038101906108fa9190614bc6565b612707565b005b6109096128bf565b6040516109169190614c02565b60405180910390f35b6109276128cb565b6040516109349190614c02565b60405180910390f35b61095760048036038101906109529190614a7e565b6128d0565b005b6109616128fa565b60405161096e9190614c02565b60405180910390f35b610991600480360381019061098c9190614f4a565b6128ff565b005b61099b612b17565b6040516109a89190614c02565b60405180910390f35b6109b9612b1c565b6040516109c69190614c02565b60405180910390f35b6109e960048036038101906109e49190614bc6565b612b21565b005b6109f3612c95565b604051610a009190614c02565b60405180910390f35b610a236004803603810190610a1e9190614bc6565b612c9b565b005b610a2d612e0f565b604051610a3a9190614c02565b60405180910390f35b610a5d6004803603810190610a589190614a7e565b612e1b565b005b610a67612e45565b604051610a749190614aff565b60405180910390f35b610a976004803603810190610a929190614a7e565b612e6b565b005b610ab36004803603810190610aae9190614bc6565b612e95565b005b610acf6004803603810190610aca9190614bc6565b613009565b005b610aeb6004803603810190610ae69190614b73565b61317d565b005b610b076004803603810190610b029190614a7e565b6132bb565b005b610b116132e5565b604051610b1e9190614c02565b60405180910390f35b610b416004803603810190610b3c9190614a7e565b6132f1565b005b610b4b61331b565b604051610b589190614aff565b60405180910390f35b610b69613341565b604051610b769190614fb8565b60405180910390f35b610b996004803603810190610b949190614a7e565b613346565b005b610bb56004803603810190610bb09190614a7e565b613358565b005b610bd16004803603810190610bcc9190614b73565b613382565b005b610bdb61347c565b604051610be89190614c02565b60405180910390f35b610c0b6004803603810190610c069190614b73565b613488565b005b610c15613582565b604051610c229190614c02565b60405180910390f35b610c456004803603810190610c409190614bc6565b613588565b005b610c616004803603810190610c5c9190614b73565b61373f565b005b610c6b613839565b604051610c789190615032565b60405180910390f35b610c8961385f565b604051610c969190614c02565b60405180910390f35b610cb96004803603810190610cb49190614a7e565b613865565b005b610cd56004803603810190610cd09190614b73565b61388e565b005b600080610ce660078585613988565b915091508115610cfb57806000600501819055505b50505050565b600080610d10600e8585613988565b915091508115610d2557806000600b01819055505b50505050565b600c60009054906101000a900473ffffffffffffffffffffffffffffffffffffffff1681565b600073ffffffffffffffffffffffffffffffffffffffff16600e60009054906101000a900473ffffffffffffffffffffffffffffffffffffffff1673ffffffffffffffffffffffffffffffffffffffff161480610dfb5750601660009054906101000a900473ffffffffffffffffffffffffffffffffffffffff1673ffffffffffffffffffffffffffffffffffffffff163373ffffffffffffffffffffffffffffffffffffffff16145b610e3a576040517f08c379a0000000000000000000000000000000000000000000000000000000008152600401610e3190615099565b60405180910390fd5b80600e60006101000a81548173ffffffffffffffffffffffffffffffffffffffff021916908373ffffffffffffffffffffffffffffffffffffffff16021790555050565b600060020154601760009054906101000a900473ffffffffffffffffffffffffffffffffffffffff1673ffffffffffffffffffffffffffffffffffffffff166318160ddd6040518163ffffffff1660e01b8152600401602060405180830381865afa158015610ef1573d6000803e3d6000fd5b505050506040513d601f19601f82011682018060405250810190610f1591906150ce565b1015610f56576040517f08c379a0000000000000000000000000000000000000000000000000000000008152600401610f4d90615147565b60405180910390fd5b610f738360405180602001604052806000815250600885856143fe565b505050565b601660009054906101000a900473ffffffffffffffffffffffffffffffffffffffff1673ffffffffffffffffffffffffffffffffffffffff163373ffffffffffffffffffffffffffffffffffffffff1614611008576040517f08c379a0000000000000000000000000000000000000000000000000000000008152600401610fff906151b3565b60405180910390fd5b600060020154601760009054906101000a900473ffffffffffffffffffffffffffffffffffffffff1673ffffffffffffffffffffffffffffffffffffffff166318160ddd6040518163ffffffff1660e01b8152600401602060405180830381865afa15801561107b573d6000803e3d6000fd5b505050506040513d601f19601f8201168201806040525081019061109f91906150ce565b106110df576040517f08c379a00000000000000000000000000000000000000000000000000000000081526004016110d69061521f565b60405180910390fd5b6033811015611123576040517f08c379a000000000000000000000000000000000000000000000000000000000815260040161111a9061528b565b60405180910390fd5b8060006005018190555050565b601660009054906101000a900473ffffffffffffffffffffffffffffffffffffffff1673ffffffffffffffffffffffffffffffffffffffff163373ffffffffffffffffffffffffffffffffffffffff16146111c0576040517f08c379a00000000000000000000000000000000000000000000000000000000081526004016111b7906151b3565b60405180910390fd5b600060020154601760009054906101000a900473ffffffffffffffffffffffffffffffffffffffff1673ffffffffffffffffffffffffffffffffffffffff166318160ddd6040518163ffffffff1660e01b8152600401602060405180830381865afa158015611233573d6000803e3d6000fd5b505050506040513d601f19601f8201168201806040525081019061125791906150ce565b10611297576040517f08c379a000000000000000000000000000000000000000000000000000000000815260040161128e9061521f565b60405180910390fd5b8060006009018190555050565b60008060040154905090565b60008060020154905090565b601660009054906101000a900473ffffffffffffffffffffffffffffffffffffffff1673ffffffffffffffffffffffffffffffffffffffff163373ffffffffffffffffffffffffffffffffffffffff161461134c576040517f08c379a0000000000000000000000000000000000000000000000000000000008152600401611343906151b3565b60405180910390fd5b600060020154601760009054906101000a900473ffffffffffffffffffffffffffffffffffffffff1673ffffffffffffffffffffffffffffffffffffffff166318160ddd6040518163ffffffff1660e01b8152600401602060405180830381865afa1580156113bf573d6000803e3d6000fd5b505050506040513d601f19601f820116820180604052508101906113e391906150ce565b10611423576040517f08c379a000000000000000000000000000000000000000000000000000000000815260040161141a9061521f565b60405180910390fd5b8060006002018190555050565b60008061143f60088585613988565b91509150811561145457806000600601819055505b50505050565b60008060008060606000806000806000601360008c815260200190815260200160002060405180610120016040529081600082015481526020016001820154815260200160028201548152602001600382015481526020016004820180546114c1906152da565b80601f01602080910402602001604051908101604052809291908181526020018280546114ed906152da565b801561153a5780601f1061150f5761010080835404028352916020019161153a565b820191906000526020600020905b81548152906001019060200180831161151d57829003601f168201915b505050505081526020016005820154815260200160068201548152602001600782015481526020016008820160009054906101000a900460ff1660ff1660ff16815250509050600081610100015160ff1614156115d35742816020015111156115a657600091506115ce565b428160200151111580156115ba5750424211155b156115c857600191506115cd565b600491505b5b6115dc565b80610100015191505b806000015181602001518260400151836060015184608001518560a001518660c001518760e0015199509950995099509950995099509950509193959799909294969850565b60008060050154905090565b601660009054906101000a900473ffffffffffffffffffffffffffffffffffffffff1673ffffffffffffffffffffffffffffffffffffffff163373ffffffffffffffffffffffffffffffffffffffff16146116be576040517f08c379a00000000000000000000000000000000000000000000000000000000081526004016116b5906151b3565b60405180910390fd5b600060020154601760009054906101000a900473ffffffffffffffffffffffffffffffffffffffff1673ffffffffffffffffffffffffffffffffffffffff166318160ddd6040518163ffffffff1660e01b8152600401602060405180830381865afa158015611731573d6000803e3d6000fd5b505050506040513d601f19601f8201168201806040525081019061175591906150ce565b10611795576040517f08c379a000000000000000000000000000000000000000000000000000000000815260040161178c9061521f565b60405180910390fd5b8060006003018190555050565b600060020154601760009054906101000a900473ffffffffffffffffffffffffffffffffffffffff1673ffffffffffffffffffffffffffffffffffffffff166318160ddd6040518163ffffffff1660e01b8152600401602060405180830381865afa158015611815573d6000803e3d6000fd5b505050506040513d601f19601f8201168201806040525081019061183991906150ce565b101561187a576040517f08c379a000000000000000000000000000000000000000000000000000000000815260040161187190615147565b60405180910390fd5b60018310156118be576040517f08c379a00000000000000000000000000000000000000000000000000000000081526004016118b590615358565b60405180910390fd5b6118db8360405180602001604052806000815250600085856143fe565b505050565b600060156000838152602001908152602001600020549050919050565b600073ffffffffffffffffffffffffffffffffffffffff16600f60009054906101000a900473ffffffffffffffffffffffffffffffffffffffff1673ffffffffffffffffffffffffffffffffffffffff1614806119a75750601660009054906101000a900473ffffffffffffffffffffffffffffffffffffffff1673ffffffffffffffffffffffffffffffffffffffff163373ffffffffffffffffffffffffffffffffffffffff16145b6119e6576040517f08c379a00000000000000000000000000000000000000000000000000000000081526004016119dd90615099565b60405180910390fd5b80600f60006101000a81548173ffffffffffffffffffffffffffffffffffffffff021916908373ffffffffffffffffffffffffffffffffffffffff16021790555050565b601660009054906101000a900473ffffffffffffffffffffffffffffffffffffffff1673ffffffffffffffffffffffffffffffffffffffff163373ffffffffffffffffffffffffffffffffffffffff1614611aba576040517f08c379a0000000000000000000000000000000000000000000000000000000008152600401611ab1906151b3565b60405180910390fd5b600060020154601760009054906101000a900473ffffffffffffffffffffffffffffffffffffffff1673ffffffffffffffffffffffffffffffffffffffff166318160ddd6040518163ffffffff1660e01b8152600401602060405180830381865afa158015611b2d573d6000803e3d6000fd5b505050506040513d601f19601f82011682018060405250810190611b5191906150ce565b10611b91576040517f08c379a0000000000000000000000000000000000000000000000000000000008152600401611b889061521f565b60405180910390fd5b8060006004018190555050565b600060020154601760009054906101000a900473ffffffffffffffffffffffffffffffffffffffff1673ffffffffffffffffffffffffffffffffffffffff166318160ddd6040518163ffffffff1660e01b8152600401602060405180830381865afa158015611c11573d6000803e3d6000fd5b505050506040513d601f19601f82011682018060405250810190611c3591906150ce565b1015611c76576040517f08c379a0000000000000000000000000000000000000000000000000000000008152600401611c6d90615147565b60405180910390fd5b611c938360405180602001604052806000815250600985856143fe565b505050565b600060020154601760009054906101000a900473ffffffffffffffffffffffffffffffffffffffff1673ffffffffffffffffffffffffffffffffffffffff166318160ddd6040518163ffffffff1660e01b8152600401602060405180830381865afa158015611d0b573d6000803e3d6000fd5b505050506040513d601f19601f82011682018060405250810190611d2f91906150ce565b1015611d70576040517f08c379a0000000000000000000000000000000000000000000000000000000008152600401611d6790615147565b60405180910390fd5b611d8d8360405180602001604052806000815250600285856143fe565b505050565b60006014600084815260200190815260200160002060008373ffffffffffffffffffffffffffffffffffffffff1673ffffffffffffffffffffffffffffffffffffffff16815260200190815260200160002054905092915050565b670de0b6b3a764000081565b600a81565b600060020154601760009054906101000a900473ffffffffffffffffffffffffffffffffffffffff1673ffffffffffffffffffffffffffffffffffffffff166318160ddd6040518163ffffffff1660e01b8152600401602060405180830381865afa158015611e71573d6000803e3d6000fd5b505050506040513d601f19601f82011682018060405250810190611e9591906150ce565b1015611ed6576040517f08c379a0000000000000000000000000000000000000000000000000000000008152600401611ecd90615147565b60405180910390fd5b611ef38360405180602001604052806000815250600b85856143fe565b505050565b60008060010154905090565b600073ffffffffffffffffffffffffffffffffffffffff16600d60009054906101000a900473ffffffffffffffffffffffffffffffffffffffff1673ffffffffffffffffffffffffffffffffffffffff161480611fae5750601660009054906101000a900473ffffffffffffffffffffffffffffffffffffffff1673ffffffffffffffffffffffffffffffffffffffff163373ffffffffffffffffffffffffffffffffffffffff16145b611fed576040517f08c379a0000000000000000000000000000000000000000000000000000000008152600401611fe490615099565b60405180910390fd5b80600d60006101000a81548173ffffffffffffffffffffffffffffffffffffffff021916908373ffffffffffffffffffffffffffffffffffffffff16021790555050565b600080600b0154905090565b600e60009054906101000a900473ffffffffffffffffffffffffffffffffffffffff1681565b600060020154601760009054906101000a900473ffffffffffffffffffffffffffffffffffffffff1673ffffffffffffffffffffffffffffffffffffffff166318160ddd6040518163ffffffff1660e01b8152600401602060405180830381865afa1580156120d6573d6000803e3d6000fd5b505050506040513d601f19601f820116820180604052508101906120fa91906150ce565b101561213b576040517f08c379a000000000000000000000000000000000000000000000000000000000815260040161213290615147565b60405180910390fd5b61214a600084600f85856143fe565b505050565b600073ffffffffffffffffffffffffffffffffffffffff16600c60009054906101000a900473ffffffffffffffffffffffffffffffffffffffff1673ffffffffffffffffffffffffffffffffffffffff1614806121f95750601660009054906101000a900473ffffffffffffffffffffffffffffffffffffffff1673ffffffffffffffffffffffffffffffffffffffff163373ffffffffffffffffffffffffffffffffffffffff16145b612238576040517f08c379a000000000000000000000000000000000000000000000000000000000815260040161222f90615099565b60405180910390fd5b80600c60006101000a81548173ffffffffffffffffffffffffffffffffffffffff021916908373ffffffffffffffffffffffffffffffffffffffff16021790555080601760006101000a81548173ffffffffffffffffffffffffffffffffffffffff021916908373ffffffffffffffffffffffffffffffffffffffff16021790555050565b600060020154601760009054906101000a900473ffffffffffffffffffffffffffffffffffffffff1673ffffffffffffffffffffffffffffffffffffffff166318160ddd6040518163ffffffff1660e01b8152600401602060405180830381865afa158015612330573d6000803e3d6000fd5b505050506040513d601f19601f8201168201806040525081019061235491906150ce565b1015612395576040517f08c379a000000000000000000000000000000000000000000000000000000000815260040161238c90615147565b60405180910390fd5b6123b28360405180602001604052806000815250600e85856143fe565b505050565b601660009054906101000a900473ffffffffffffffffffffffffffffffffffffffff1673ffffffffffffffffffffffffffffffffffffffff163373ffffffffffffffffffffffffffffffffffffffff1614612447576040517f08c379a000000000000000000000000000000000000000000000000000000000815260040161243e906151b3565b60405180910390fd5b600060020154601760009054906101000a900473ffffffffffffffffffffffffffffffffffffffff1673ffffffffffffffffffffffffffffffffffffffff166318160ddd6040518163ffffffff1660e01b8152600401602060405180830381865afa1580156124ba573d6000803e3d6000fd5b505050506040513d601f19601f820116820180604052508101906124de91906150ce565b1061251e576040517f08c379a00000000000000000000000000000000000000000000000000000000081526004016125159061521f565b60405180910390fd5b8060006007018190555050565b600080600a0154905090565b60008061254660068585613988565b91509150811561255b57806000600401819055505b50505050565b600080612570600b8585613988565b91509150811561258557806000600801819055505b50505050565b60008060000154905090565b601660009054906101000a900473ffffffffffffffffffffffffffffffffffffffff1681565b600060020154601760009054906101000a900473ffffffffffffffffffffffffffffffffffffffff1673ffffffffffffffffffffffffffffffffffffffff166318160ddd6040518163ffffffff1660e01b8152600401602060405180830381865afa158015612630573d6000803e3d6000fd5b505050506040513d601f19601f8201168201806040525081019061265491906150ce565b1015612695576040517f08c379a000000000000000000000000000000000000000000000000000000000815260040161268c90615147565b60405180910390fd5b60338310156126d9576040517f08c379a00000000000000000000000000000000000000000000000000000000081526004016126d09061528b565b60405180910390fd5b6126f68360405180602001604052806000815250600785856143fe565b505050565b60008060070154905090565b601660009054906101000a900473ffffffffffffffffffffffffffffffffffffffff1673ffffffffffffffffffffffffffffffffffffffff163373ffffffffffffffffffffffffffffffffffffffff1614612797576040517f08c379a000000000000000000000000000000000000000000000000000000000815260040161278e906151b3565b60405180910390fd5b600060020154601760009054906101000a900473ffffffffffffffffffffffffffffffffffffffff1673ffffffffffffffffffffffffffffffffffffffff166318160ddd6040518163ffffffff1660e01b8152600401602060405180830381865afa15801561280a573d6000803e3d6000fd5b505050506040513d601f19601f8201168201806040525081019061282e91906150ce565b1061286e576040517f08c379a00000000000000000000000000000000000000000000000000000000081526004016128659061521f565b60405180910390fd5b600a8110156128b2576040517f08c379a00000000000000000000000000000000000000000000000000000000081526004016128a9906153c4565b60405180910390fd5b8060006001018190555050565b60008060080154905090565b603381565b6000806128df60018585613988565b9150915081156128f457806000600101819055505b50505050565b600181565b600073ffffffffffffffffffffffffffffffffffffffff16601660009054906101000a900473ffffffffffffffffffffffffffffffffffffffff1673ffffffffffffffffffffffffffffffffffffffff1614612990576040517f08c379a000000000000000000000000000000000000000000000000000000000815260040161298790615430565b60405180910390fd5b6000831180156129a05750600082115b6129df576040517f08c379a00000000000000000000000000000000000000000000000000000000081526004016129d69061549c565b60405180910390fd5b826010819055508160118190555080601660006101000a81548173ffffffffffffffffffffffffffffffffffffffff021916908373ffffffffffffffffffffffffffffffffffffffff16021790555060026000800181905550600c600060010181905550670de0b6b3a76400006001612a5891906154eb565b600060020181905550670de0b6b3a7640000624c4b40612a7891906154eb565b600060030181905550670de0b6b3a76400006001612a9691906154eb565b6000600401819055506033600060050181905550670de0b6b3a76400006001612abf91906154eb565b60006006018190555060016000600701819055506001600060080181905550600160006009018190555060016000600a0181905550670de0b6b3a76400006001612b0991906154eb565b6000600b0181905550505050565b600381565b601481565b601660009054906101000a900473ffffffffffffffffffffffffffffffffffffffff1673ffffffffffffffffffffffffffffffffffffffff163373ffffffffffffffffffffffffffffffffffffffff1614612bb1576040517f08c379a0000000000000000000000000000000000000000000000000000000008152600401612ba8906151b3565b60405180910390fd5b600060020154601760009054906101000a900473ffffffffffffffffffffffffffffffffffffffff1673ffffffffffffffffffffffffffffffffffffffff166318160ddd6040518163ffffffff1660e01b8152600401602060405180830381865afa158015612c24573d6000803e3d6000fd5b505050506040513d601f19601f82011682018060405250810190612c4891906150ce565b10612c88576040517f08c379a0000000000000000000000000000000000000000000000000000000008152600401612c7f9061521f565b60405180910390fd5b8060006006018190555050565b60125481565b601660009054906101000a900473ffffffffffffffffffffffffffffffffffffffff1673ffffffffffffffffffffffffffffffffffffffff163373ffffffffffffffffffffffffffffffffffffffff1614612d2b576040517f08c379a0000000000000000000000000000000000000000000000000000000008152600401612d22906151b3565b60405180910390fd5b600060020154601760009054906101000a900473ffffffffffffffffffffffffffffffffffffffff1673ffffffffffffffffffffffffffffffffffffffff166318160ddd6040518163ffffffff1660e01b8152600401602060405180830381865afa158015612d9e573d6000803e3d6000fd5b505050506040513d601f19601f82011682018060405250810190612dc291906150ce565b10612e02576040517f08c379a0000000000000000000000000000000000000000000000000000000008152600401612df99061521f565b60405180910390fd5b806000600a018190555050565b60008060090154905090565b600080612e2a600d8585613988565b915091508115612e3f57806000600a01819055505b50505050565b600f60009054906101000a900473ffffffffffffffffffffffffffffffffffffffff1681565b600080612e7a60028585613988565b915091508115612e8f57806000600201819055505b50505050565b601660009054906101000a900473ffffffffffffffffffffffffffffffffffffffff1673ffffffffffffffffffffffffffffffffffffffff163373ffffffffffffffffffffffffffffffffffffffff1614612f25576040517f08c379a0000000000000000000000000000000000000000000000000000000008152600401612f1c906151b3565b60405180910390fd5b600060020154601760009054906101000a900473ffffffffffffffffffffffffffffffffffffffff1673ffffffffffffffffffffffffffffffffffffffff166318160ddd6040518163ffffffff1660e01b8152600401602060405180830381865afa158015612f98573d6000803e3d6000fd5b505050506040513d601f19601f82011682018060405250810190612fbc91906150ce565b10612ffc576040517f08c379a0000000000000000000000000000000000000000000000000000000008152600401612ff39061521f565b60405180910390fd5b806000600b018190555050565b601660009054906101000a900473ffffffffffffffffffffffffffffffffffffffff1673ffffffffffffffffffffffffffffffffffffffff163373ffffffffffffffffffffffffffffffffffffffff1614613099576040517f08c379a0000000000000000000000000000000000000000000000000000000008152600401613090906151b3565b60405180910390fd5b600060020154601760009054906101000a900473ffffffffffffffffffffffffffffffffffffffff1673ffffffffffffffffffffffffffffffffffffffff166318160ddd6040518163ffffffff1660e01b8152600401602060405180830381865afa15801561310c573d6000803e3d6000fd5b505050506040513d601f19601f8201168201806040525081019061313091906150ce565b10613170576040517f08c379a00000000000000000000000000000000000000000000000000000000081526004016131679061521f565b60405180910390fd5b8060006008018190555050565b600060020154601760009054906101000a900473ffffffffffffffffffffffffffffffffffffffff1673ffffffffffffffffffffffffffffffffffffffff166318160ddd6040518163ffffffff1660e01b8152600401602060405180830381865afa1580156131f0573d6000803e3d6000fd5b505050506040513d601f19601f8201168201806040525081019061321491906150ce565b1015613255576040517f08c379a000000000000000000000000000000000000000000000000000000000815260040161324c90615147565b60405180910390fd5b600a831015613299576040517f08c379a0000000000000000000000000000000000000000000000000000000008152600401613290906153c4565b60405180910390fd5b6132b68360405180602001604052806000815250600185856143fe565b505050565b6000806132ca60098585613988565b9150915081156132df57806000600701819055505b50505050565b60008060030154905090565b600080613300600c8585613988565b91509150811561331557806000600901819055505b50505050565b600d60009054906101000a900473ffffffffffffffffffffffffffffffffffffffff1681565b600181565b613352600f8383613988565b50505050565b60008061336760038585613988565b91509150811561337c57806000600301819055505b50505050565b600060020154601760009054906101000a900473ffffffffffffffffffffffffffffffffffffffff1673ffffffffffffffffffffffffffffffffffffffff166318160ddd6040518163ffffffff1660e01b8152600401602060405180830381865afa1580156133f5573d6000803e3d6000fd5b505050506040513d601f19601f8201168201806040525081019061341991906150ce565b101561345a576040517f08c379a000000000000000000000000000000000000000000000000000000000815260040161345190615147565b60405180910390fd5b6134778360405180602001604052806000815250600385856143fe565b505050565b60008060060154905090565b600060020154601760009054906101000a900473ffffffffffffffffffffffffffffffffffffffff1673ffffffffffffffffffffffffffffffffffffffff166318160ddd6040518163ffffffff1660e01b8152600401602060405180830381865afa1580156134fb573d6000803e3d6000fd5b505050506040513d601f19601f8201168201806040525081019061351f91906150ce565b1015613560576040517f08c379a000000000000000000000000000000000000000000000000000000000815260040161355790615147565b60405180910390fd5b61357d8360405180602001604052806000815250600c85856143fe565b505050565b60105481565b601660009054906101000a900473ffffffffffffffffffffffffffffffffffffffff1673ffffffffffffffffffffffffffffffffffffffff163373ffffffffffffffffffffffffffffffffffffffff1614613618576040517f08c379a000000000000000000000000000000000000000000000000000000000815260040161360f906151b3565b60405180910390fd5b600060020154601760009054906101000a900473ffffffffffffffffffffffffffffffffffffffff1673ffffffffffffffffffffffffffffffffffffffff166318160ddd6040518163ffffffff1660e01b8152600401602060405180830381865afa15801561368b573d6000803e3d6000fd5b505050506040513d601f19601f820116820180604052508101906136af91906150ce565b106136ef576040517f08c379a00000000000000000000000000000000000000000000000000000000081526004016136e69061521f565b60405180910390fd5b6001811015613733576040517f08c379a000000000000000000000000000000000000000000000000000000000815260040161372a90615358565b60405180910390fd5b80600080018190555050565b600060020154601760009054906101000a900473ffffffffffffffffffffffffffffffffffffffff1673ffffffffffffffffffffffffffffffffffffffff166318160ddd6040518163ffffffff1660e01b8152600401602060405180830381865afa1580156137b2573d6000803e3d6000fd5b505050506040513d601f19601f820116820180604052508101906137d691906150ce565b1015613817576040517f08c379a000000000000000000000000000000000000000000000000000000000815260040161380e90615147565b60405180910390fd5b6138348360405180602001604052806000815250600d85856143fe565b505050565b601760009054906101000a900473ffffffffffffffffffffffffffffffffffffffff1681565b60115481565b60008061387460008585613988565b915091508115613888578060008001819055505b50505050565b600060020154601760009054906101000a900473ffffffffffffffffffffffffffffffffffffffff1673ffffffffffffffffffffffffffffffffffffffff166318160ddd6040518163ffffffff1660e01b8152600401602060405180830381865afa158015613901573d6000803e3d6000fd5b505050506040513d601f19601f8201168201806040525081019061392591906150ce565b1015613966576040517f08c379a000000000000000000000000000000000000000000000000000000000815260040161395d90615147565b60405180910390fd5b6139838360405180602001604052806000815250600685856143fe565b505050565b600080600084116139ce576040517f08c379a00000000000000000000000000000000000000000000000000000000081526004016139c590615591565b60405180910390fd5b6000831180156139de5750600383105b613a1d576040517f08c379a0000000000000000000000000000000000000000000000000000000008152600401613a14906155fd565b60405180910390fd5b6000601360008681526020019081526020016000206040518061012001604052908160008201548152602001600182015481526020016002820154815260200160038201548152602001600482018054613a76906152da565b80601f0160208091040260200160405190810160405280929190818152602001828054613aa2906152da565b8015613aef5780601f10613ac457610100808354040283529160200191613aef565b820191906000526020600020905b815481529060010190602001808311613ad257829003601f168201915b505050505081526020016005820154815260200160068201548152602001600782015481526020016008820160009054906101000a900460ff1660ff1660ff1681525050905042816020015111158015613b4d575042816040015110155b613b8c576040517f08c379a0000000000000000000000000000000000000000000000000000000008152600401613b839061568f565b60405180910390fd5b85816000015114613bd2576040517f08c379a0000000000000000000000000000000000000000000000000000000008152600401613bc9906156fb565b60405180910390fd5b60008160a0015111613c19576040517f08c379a0000000000000000000000000000000000000000000000000000000008152600401613c1090615767565b60405180910390fd5b60006014600087815260200190815260200160002060003373ffffffffffffffffffffffffffffffffffffffff1673ffffffffffffffffffffffffffffffffffffffff1681526020019081526020016000205414613cac576040517f08c379a0000000000000000000000000000000000000000000000000000000008152600401613ca3906157d3565b60405180910390fd5b6000601760009054906101000a900473ffffffffffffffffffffffffffffffffffffffff1673ffffffffffffffffffffffffffffffffffffffff166370a08231336040518263ffffffff1660e01b8152600401613d099190614aff565b602060405180830381865afa158015613d26573d6000803e3d6000fd5b505050506040513d601f19601f82011682018060405250810190613d4a91906150ce565b11613d8a576040517f08c379a0000000000000000000000000000000000000000000000000000000008152600401613d819061583f565b60405180910390fd5b8060200151601760009054906101000a900473ffffffffffffffffffffffffffffffffffffffff1673ffffffffffffffffffffffffffffffffffffffff1663ea8f56b0336040518263ffffffff1660e01b8152600401613dea9190614aff565b602060405180830381865afa158015613e07573d6000803e3d6000fd5b505050506040513d601f19601f82011682018060405250810190613e2b91906150ce565b10613e6b576040517f08c379a0000000000000000000000000000000000000000000000000000000008152600401613e62906158ab565b60405180910390fd5b6000613f3462015180613f26601760009054906101000a900473ffffffffffffffffffffffffffffffffffffffff1673ffffffffffffffffffffffffffffffffffffffff1663ea8f56b0336040518263ffffffff1660e01b8152600401613ed29190614aff565b602060405180830381865afa158015613eef573d6000803e3d6000fd5b505050506040513d601f19601f82011682018060405250810190613f1391906150ce565b85602001516148ea90919063ffffffff16565b61490090919063ffffffff16565b9050600060070154811015613f7e576040517f08c379a0000000000000000000000000000000000000000000000000000000008152600401613f7590615917565b60405180910390fd5b846014600088815260200190815260200160002060003373ffffffffffffffffffffffffffffffffffffffff1673ffffffffffffffffffffffffffffffffffffffff16815260200190815260200160002081905550600185141561409c5761408e601760009054906101000a900473ffffffffffffffffffffffffffffffffffffffff1673ffffffffffffffffffffffffffffffffffffffff166370a08231336040518263ffffffff1660e01b815260040161403a9190614aff565b602060405180830381865afa158015614057573d6000803e3d6000fd5b505050506040513d601f19601f8201168201806040525081019061407b91906150ce565b8360c0015161491690919063ffffffff16565b8260c0018181525050614162565b600285141561416157614157601760009054906101000a900473ffffffffffffffffffffffffffffffffffffffff1673ffffffffffffffffffffffffffffffffffffffff166370a08231336040518263ffffffff1660e01b81526004016141039190614aff565b602060405180830381865afa158015614120573d6000803e3d6000fd5b505050506040513d601f19601f8201168201806040525081019061414491906150ce565b8360e0015161491690919063ffffffff16565b8260e00181815250505b5b6000600501546141968360a0015161418860648660c0015161492c90919063ffffffff16565b61490090919063ffffffff16565b106141d65742826040018181525050426015600089815260200190815260200160002081905550600282610100019060ff16908160ff1681525050614254565b60006005015460646141e89190615937565b6142168360a0015161420860648660e0015161492c90919063ffffffff16565b61490090919063ffffffff16565b11156142535742826040018181525050426015600089815260200190815260200160002081905550600382610100019060ff16908160ff16815250505b5b81601360008881526020019081526020016000206000820151816000015560208201518160010155604082015181600201556060820151816003015560808201518160040190805190602001906142ac929190614942565b5060a0820151816005015560c0820151816006015560e082015181600701556101008201518160080160006101000a81548160ff021916908360ff1602179055509050503373ffffffffffffffffffffffffffffffffffffffff167ff6d2007da7d9909f6adcdd35ec6aeb0ffb82b55d27bc6dc39810364b51eddf25878988601760009054906101000a900473ffffffffffffffffffffffffffffffffffffffff1673ffffffffffffffffffffffffffffffffffffffff166370a08231336040518263ffffffff1660e01b81526004016143869190614aff565b602060405180830381865afa1580156143a3573d6000803e3d6000fd5b505050506040513d601f19601f820116820180604052508101906143c791906150ce565b6040516143d7949392919061596b565b60405180910390a2600282610100015160ff16148260600151935093505050935093915050565b428211801561440c57508082105b61444b576040517f08c379a0000000000000000000000000000000000000000000000000000000008152600401614442906159fc565b60405180910390fd5b60006015600085815260200190815260200160002054148061447f5750816015600085815260200190815260200160002054105b6144be576040517f08c379a00000000000000000000000000000000000000000000000000000000081526004016144b590615a68565b60405180910390fd5b6000600b0154601760009054906101000a900473ffffffffffffffffffffffffffffffffffffffff1673ffffffffffffffffffffffffffffffffffffffff166370a08231336040518263ffffffff1660e01b815260040161451f9190614aff565b602060405180830381865afa15801561453c573d6000803e3d6000fd5b505050506040513d601f19601f8201168201806040525081019061456091906150ce565b10156145a1576040517f08c379a000000000000000000000000000000000000000000000000000000000815260040161459890615afa565b60405180910390fd5b600061466662015180614658601760009054906101000a900473ffffffffffffffffffffffffffffffffffffffff1673ffffffffffffffffffffffffffffffffffffffff1663ea8f56b0336040518263ffffffff1660e01b81526004016146089190614aff565b602060405180830381865afa158015614625573d6000803e3d6000fd5b505050506040513d601f19601f8201168201806040525081019061464991906150ce565b426148ea90919063ffffffff16565b61490090919063ffffffff16565b90506000600701548110156146b0576040517f08c379a00000000000000000000000000000000000000000000000000000000081526004016146a790615917565b60405180910390fd5b6000601760009054906101000a900473ffffffffffffffffffffffffffffffffffffffff1673ffffffffffffffffffffffffffffffffffffffff166318160ddd6040518163ffffffff1660e01b8152600401602060405180830381865afa15801561471f573d6000803e3d6000fd5b505050506040513d601f19601f8201168201806040525081019061474391906150ce565b905061474d6149c8565b614763600160125461491690919063ffffffff16565b60128190555085816000018181525050848160200181815250508381604001818152505087816060018181525050868160800181905250818160a001818152505060008160c001818152505060008160e0018181525050600081610100019060ff16908160ff168152505080601360006012548152602001908152602001600020600082015181600001556020820151816001015560408201518160020155606082015181600301556080820151816004019080519060200190614828929190614942565b5060a0820151816005015560c0820151816006015560e082015181600701556101008201518160080160006101000a81548160ff021916908360ff1602179055509050508360156000888152602001908152602001600020819055503373ffffffffffffffffffffffffffffffffffffffff167fdff571b22411ca2ed4d00c620c7d19f90370f541effbe5844e5c98ca1d3ed5236012548888888d8d896040516148d89796959493929190615b1a565b60405180910390a25050505050505050565b600081836148f89190615937565b905092915050565b6000818361490e9190615bbf565b905092915050565b600081836149249190615bf0565b905092915050565b6000818361493a91906154eb565b905092915050565b82805461494e906152da565b90600052602060002090601f01602090048101928261497057600085556149b7565b82601f1061498957805160ff19168380011785556149b7565b828001600101855582156149b7579182015b828111156149b657825182559160200191906001019061499b565b5b5090506149c49190614a17565b5090565b6040518061012001604052806000815260200160008152602001600081526020016000815260200160608152602001600081526020016000815260200160008152602001600060ff1681525090565b5b80821115614a30576000816000905550600101614a18565b5090565b6000604051905090565b600080fd5b600080fd5b6000819050919050565b614a5b81614a48565b8114614a6657600080fd5b50565b600081359050614a7881614a52565b92915050565b60008060408385031215614a9557614a94614a3e565b5b6000614aa385828601614a69565b9250506020614ab485828601614a69565b9150509250929050565b600073ffffffffffffffffffffffffffffffffffffffff82169050919050565b6000614ae982614abe565b9050919050565b614af981614ade565b82525050565b6000602082019050614b146000830184614af0565b92915050565b614b2381614ade565b8114614b2e57600080fd5b50565b600081359050614b4081614b1a565b92915050565b600060208284031215614b5c57614b5b614a3e565b5b6000614b6a84828501614b31565b91505092915050565b600080600060608486031215614b8c57614b8b614a3e565b5b6000614b9a86828701614a69565b9350506020614bab86828701614a69565b9250506040614bbc86828701614a69565b9150509250925092565b600060208284031215614bdc57614bdb614a3e565b5b6000614bea84828501614a69565b91505092915050565b614bfc81614a48565b82525050565b6000602082019050614c176000830184614bf3565b92915050565b600081519050919050565b600082825260208201905092915050565b60005b83811015614c57578082015181840152602081019050614c3c565b83811115614c66576000848401525b50505050565b6000601f19601f8301169050919050565b6000614c8882614c1d565b614c928185614c28565b9350614ca2818560208601614c39565b614cab81614c6c565b840191505092915050565b600060ff82169050919050565b614ccc81614cb6565b82525050565b600061012082019050614ce8600083018c614bf3565b614cf5602083018b614bf3565b614d02604083018a614bf3565b614d0f6060830189614bf3565b8181036080830152614d218188614c7d565b9050614d3060a0830187614bf3565b614d3d60c0830186614bf3565b614d4a60e0830185614bf3565b614d58610100830184614cc3565b9a9950505050505050505050565b60008060408385031215614d7d57614d7c614a3e565b5b6000614d8b85828601614a69565b9250506020614d9c85828601614b31565b9150509250929050565b600080fd5b600080fd5b7f4e487b7100000000000000000000000000000000000000000000000000000000600052604160045260246000fd5b614de882614c6c565b810181811067ffffffffffffffff82111715614e0757614e06614db0565b5b80604052505050565b6000614e1a614a34565b9050614e268282614ddf565b919050565b600067ffffffffffffffff821115614e4657614e45614db0565b5b614e4f82614c6c565b9050602081019050919050565b82818337600083830152505050565b6000614e7e614e7984614e2b565b614e10565b905082815260208101848484011115614e9a57614e99614dab565b5b614ea5848285614e5c565b509392505050565b600082601f830112614ec257614ec1614da6565b5b8135614ed2848260208601614e6b565b91505092915050565b600080600060608486031215614ef457614ef3614a3e565b5b600084013567ffffffffffffffff811115614f1257614f11614a43565b5b614f1e86828701614ead565b9350506020614f2f86828701614a69565b9250506040614f4086828701614a69565b9150509250925092565b600080600060608486031215614f6357614f62614a3e565b5b6000614f7186828701614a69565b9350506020614f8286828701614a69565b9250506040614f9386828701614b31565b9150509250925092565b60008115159050919050565b614fb281614f9d565b82525050565b6000602082019050614fcd6000830184614fa9565b92915050565b6000819050919050565b6000614ff8614ff3614fee84614abe565b614fd3565b614abe565b9050919050565b600061500a82614fdd565b9050919050565b600061501c82614fff565b9050919050565b61502c81615011565b82525050565b60006020820190506150476000830184615023565b92915050565b7f5365746564206f72204e6f74206d616e6167656d656e74210000000000000000600082015250565b6000615083601883614c28565b915061508e8261504d565b602082019050919050565b600060208201905081810360008301526150b281615076565b9050919050565b6000815190506150c881614a52565b92915050565b6000602082840312156150e4576150e3614a3e565b5b60006150f2848285016150b9565b91505092915050565b7f6e6f7420737461727420676f7665726e616e6365210000000000000000000000600082015250565b6000615131601583614c28565b915061513c826150fb565b602082019050919050565b6000602082019050818103600083015261516081615124565b9050919050565b7f4e6f74206d616e6167656d656e74210000000000000000000000000000000000600082015250565b600061519d600f83614c28565b91506151a882615167565b602082019050919050565b600060208201905081810360008301526151cc81615190565b9050919050565b7f737461727420676f7665726e616e636521000000000000000000000000000000600082015250565b6000615209601183614c28565b9150615214826151d3565b602082019050919050565b60006020820190508181036000830152615238816151fc565b9050919050565b7f5f766f74657250726f706f7274696f6e20697320696c6c6567616c2100000000600082015250565b6000615275601c83614c28565b91506152808261523f565b602082019050919050565b600060208201905081810360008301526152a481615268565b9050919050565b7f4e487b7100000000000000000000000000000000000000000000000000000000600052602260045260246000fd5b600060028204905060018216806152f257607f821691505b60208210811415615306576153056152ab565b5b50919050565b7f5f64616f5465636846656520697320696c6c6567616c21000000000000000000600082015250565b6000615342601783614c28565b915061534d8261530c565b602082019050919050565b6000602082019050818103600083015261537181615335565b9050919050565b7f5f636f6c6c61746f725465636846656520697320696c6c6567616c2100000000600082015250565b60006153ae601c83614c28565b91506153b982615378565b602082019050919050565b600060208201905081810360008301526153dd816153a1565b9050919050565b7f6f776e6572207365746564210000000000000000000000000000000000000000600082015250565b600061541a600c83614c28565b9150615425826153e4565b602082019050919050565b600060208201905081810360008301526154498161540d565b9050919050565b7f706172616d6574657220697320696c6c6567616c210000000000000000000000600082015250565b6000615486601583614c28565b915061549182615450565b602082019050919050565b600060208201905081810360008301526154b581615479565b9050919050565b7f4e487b7100000000000000000000000000000000000000000000000000000000600052601160045260246000fd5b60006154f682614a48565b915061550183614a48565b9250817fffffffffffffffffffffffffffffffffffffffffffffffffffffffffffffffff048311821515161561553a576155396154bc565b5b828202905092915050565b7f5f6e756d62657220697320696c6c6567616c2100000000000000000000000000600082015250565b600061557b601383614c28565b915061558682615545565b602082019050919050565b600060208201905081810360008301526155aa8161556e565b9050919050565b7f5f737461746520697320696c6c6567616c210000000000000000000000000000600082015250565b60006155e7601283614c28565b91506155f2826155b1565b602082019050919050565b60006020820190508181036000830152615616816155da565b9050919050565b7f476f7665726e616365206973206e6f742073746172746564206f7220656e646560008201527f6421000000000000000000000000000000000000000000000000000000000000602082015250565b6000615679602283614c28565b91506156848261561d565b604082019050919050565b600060208201905081810360008301526156a88161566c565b9050919050565b7f676f7665726e5479706520697320696c6c6567616c2100000000000000000000600082015250565b60006156e5601683614c28565b91506156f0826156af565b602082019050919050565b60006020820190508181036000830152615714816156d8565b9050919050565b7f746f74616c566f74657220697320696c6c6567616c2100000000000000000000600082015250565b6000615751601683614c28565b915061575c8261571b565b602082019050919050565b6000602082019050818103600083015261578081615744565b9050919050565b7f566f746564210000000000000000000000000000000000000000000000000000600082015250565b60006157bd600683614c28565b91506157c882615787565b602082019050919050565b600060208201905081810360008301526157ec816157b0565b9050919050565b7f42616c616e6365206973207a65726f2100000000000000000000000000000000600082015250565b6000615829601083614c28565b9150615834826157f3565b602082019050919050565b600060208201905081810360008301526158588161581c565b9050919050565b7f7374616b6554696d65206e6f7420656e6f756768742100000000000000000000600082015250565b6000615895601683614c28565b91506158a08261585f565b602082019050919050565b600060208201905081810360008301526158c481615888565b9050919050565b7f7374616b6554696d65206c657373207468616e2063616c54696d652100000000600082015250565b6000615901601c83614c28565b915061590c826158cb565b602082019050919050565b60006020820190508181036000830152615930816158f4565b9050919050565b600061594282614a48565b915061594d83614a48565b9250828210156159605761595f6154bc565b5b828203905092915050565b60006080820190506159806000830187614bf3565b61598d6020830186614bf3565b61599a6040830185614bf3565b6159a76060830184614bf3565b95945050505050565b7f4461746520697320696c6c6567616c2100000000000000000000000000000000600082015250565b60006159e6601083614c28565b91506159f1826159b0565b602082019050919050565b60006020820190508181036000830152615a15816159d9565b9050919050565b7f476f7665726e696e672100000000000000000000000000000000000000000000600082015250565b6000615a52600a83614c28565b9150615a5d82615a1c565b602082019050919050565b60006020820190508181036000830152615a8181615a45565b9050919050565b7f42616c616e6365206c657373207468616e2070726f706f73616c446f776e4c6960008201527f6d69742100000000000000000000000000000000000000000000000000000000602082015250565b6000615ae4602483614c28565b9150615aef82615a88565b604082019050919050565b60006020820190508181036000830152615b1381615ad7565b9050919050565b600060e082019050615b2f600083018a614bf3565b615b3c6020830189614bf3565b615b496040830188614bf3565b615b566060830187614bf3565b615b636080830186614bf3565b81810360a0830152615b758185614c7d565b9050615b8460c0830184614bf3565b98975050505050505050565b7f4e487b7100000000000000000000000000000000000000000000000000000000600052601260045260246000fd5b6000615bca82614a48565b9150615bd583614a48565b925082615be557615be4615b90565b5b828204905092915050565b6000615bfb82614a48565b9150615c0683614a48565b9250827fffffffffffffffffffffffffffffffffffffffffffffffffffffffffffffffff03821115615c3b57615c3a6154bc565b5b82820190509291505056fea2646970667358221220cca257e0da6b3ef099432da5645ef39bb4c0b6883697d96f9fa604a314d278a164736f6c634300080c0033",
  "immutableReferences": {},
  "source": "// SPDX-License-Identifier: GPL-3.0-only\npragma solidity ^0.8.0;\nimport \"@openzeppelin/contracts/utils/math/SafeMath.sol\";\n\ninterface IPool{\n    function totalSupply() external view returns (uint256);\n    function balanceOf(address _account) external view returns (uint256);\n    function memberTimes(address _account) external view returns (uint256);\n}\n\ncontract Governance{\n    using SafeMath for uint256;\n    //\n    struct DAOConfig{\n        uint daoTechFee;//2%\n        uint collatorTechFee;//12%\n        uint fundsDownLimit;//1000\n        uint fundsUpLimit;//5000000\n        uint perInvestDownLimit;//1\n        uint voterProportion;//51%\n        uint rewardDownLimit;//10\n        uint calTime ;//2\n        uint redeemTimeLimit;//Pool2\n        uint zeroTimeLimit;//3\n        uint marginProportion;//retToken5/10\n        uint proposalDownLimit;//10000\n    }\n    DAOConfig private daoConfig;\n\n    //stkToken\n    address public stkTokenAddr;\n    //retToken\n    address public retTokenAddr;\n    //\n    address public rewardAddr;\n    //\n    address public searchAddr;\n\n    //NimbusId\n    uint256 public authorAmount;\n    //\n    uint public blockHeight;\n\n    //\n    uint public constant daoTechLimit = 1;\n    //\n    uint public constant collatorTechLimit = 10;\n    //\n    uint public constant voterDownLimit = 51;\n    //retToken\n    uint public constant dropProportion = 20;\n    //peroid\n    uint public constant dayLen = 3;//10\n    //\n    bool public constant rewardType = true; //truestkToken falsToken\n\n    //,\n    uint public currentNumber = 0;\n    //\n    struct GovernanceInfo{\n        uint governType; //:\n        uint256 startDate;//\n        uint256 endDate;//\n        uint uintValue;//\n        string strValue;//url,\n        uint256 totalVoter;//\n        uint approveVoter;//\n        uint opposeVoter;//\n        uint8 governState; // 0 1 2 3 4\n    }\n    //,governanceInfos[number]=info,number,info\n    mapping(uint => GovernanceInfo) private governanceInfos;\n    //governanceVotes[number][adr]=state,number,adr,state0 1 2\n    mapping(uint => mapping (address => uint)) private governanceVotes;\n    //governEndDate[type]=date,type,date\n    mapping(uint => uint256) private governEndDate;\n    //sudo\n    address public owner;\n    //\n    IPool public Ipool;\n    //ether\n    uint256 public constant etherBase = 1000000000000000000;\n\n    event StartGovern(\n        address indexed creator,\n        uint number,\n        uint governType,\n        uint256 startDate,\n        uint256 endDate,\n        uint uintValue,\n        string strValue,\n        uint256 totalVoter);\n\n    event VoteByNumber(\n        address indexed votor,\n        uint number,\n        uint governType,\n        uint state,\n        uint voters);\n\n    constructor(){\n    }\n\n    //,_authorAmountWei\n    function initialize(\n        uint256 _authorAmount,\n        uint _blockHeight,\n        address _owner\n    ) external {\n        require(owner == address(0),'owner seted!');\n        require(_authorAmount > 0 && _blockHeight > 0,'parameter is illegal!');\n        authorAmount = _authorAmount;\n        blockHeight = _blockHeight;\n        owner = _owner;\n\n        daoConfig.daoTechFee = 2;\n        daoConfig.collatorTechFee = 12;\n        daoConfig.fundsDownLimit =  1 * etherBase;//500-5000\n        daoConfig.fundsUpLimit =  5000000 * etherBase;\n        daoConfig.perInvestDownLimit =  1 * etherBase;\n        daoConfig.voterProportion =  51;\n        daoConfig.rewardDownLimit = 1 * etherBase;//10\n        daoConfig.calTime =  1;//2\n        daoConfig.redeemTimeLimit =  1;//2\n        daoConfig.zeroTimeLimit =  1;//3\n        daoConfig.marginProportion = 1;//5\n        daoConfig.proposalDownLimit = 1 * etherBase;//10000\n    }\n\n    modifier isGovernance() {\n        //pool\n        require(Ipool.totalSupply() >= daoConfig.fundsDownLimit,'not start governance!');\n        _;\n    }\n\n    modifier isGovernOwner() {\n        require(msg.sender == owner,'Not management!');\n        //pool\n        require(Ipool.totalSupply() < daoConfig.fundsDownLimit,'start governance!');\n        _;\n    }\n\n    function setStkTokenAddr(address _stkTokenAddr) public{\n        require(stkTokenAddr == address(0) || msg.sender == owner,'Seted or Not management!');\n        stkTokenAddr = _stkTokenAddr;\n        Ipool = IPool(_stkTokenAddr);\n    }\n\n    function setRewardAddr(address _rewardAddr) public{\n        require(rewardAddr == address(0) || msg.sender == owner,'Seted or Not management!');\n        rewardAddr = _rewardAddr;\n    }\n\n    function setRetTokenAddr(address _retTokenAddr) public{\n        require(retTokenAddr == address(0) || msg.sender == owner,'Seted or Not management!');\n        retTokenAddr = _retTokenAddr;\n    }\n\n    function setSearchAddr(address _searchAddr) public{\n        require(searchAddr == address(0) || msg.sender == owner,'Seted or Not management!');\n        searchAddr = _searchAddr;\n    }\n\n    function setDaoTechFee(uint _daoTechFee) public isGovernOwner{\n        require(_daoTechFee >= daoTechLimit,'_daoTechFee is illegal!');\n        daoConfig.daoTechFee = _daoTechFee;\n    }\n\n    function setCollatorTechFee(uint _collatorTechFee) public isGovernOwner{\n        require(_collatorTechFee >= collatorTechLimit,'_collatorTechFee is illegal!');\n        daoConfig.collatorTechFee = _collatorTechFee;\n    }\n\n    //_fundsDownLimitWei\n    function setFundsDownLimit(uint _fundsDownLimit) public isGovernOwner{\n        daoConfig.fundsDownLimit = _fundsDownLimit;\n    }\n\n    //_fundsUpLimitWei\n    function setFundsUpLimit(uint _fundsUpLimit) public isGovernOwner{\n        daoConfig.fundsUpLimit =  _fundsUpLimit;\n    }\n\n    //_perInvestDownLimitWei\n    function setPerInvestDownLimit(uint _perInvestDownLimit) public isGovernOwner{\n        daoConfig.perInvestDownLimit =  _perInvestDownLimit;\n    }\n\n    function setVoterProportion(uint _voterProportion) public isGovernOwner{\n        require(_voterProportion >= voterDownLimit,'_voterProportion is illegal!');\n        daoConfig.voterProportion =  _voterProportion;\n    }\n\n    //_rewardDownLimitWei\n    function setRewardDownLimit(uint _rewardDownLimit) public isGovernOwner{\n        daoConfig.rewardDownLimit = _rewardDownLimit;\n    }\n\n    function setCalTime(uint _calTime) public isGovernOwner{\n        daoConfig.calTime =  _calTime;\n    }\n\n    function setRedeemTimeLimit(uint _redeemTimeLimit) public isGovernOwner{\n        daoConfig.redeemTimeLimit =  _redeemTimeLimit;\n    }\n\n    function setZeroTimeLimit(uint _zeroTimeLimit) public isGovernOwner{\n        daoConfig.zeroTimeLimit =  _zeroTimeLimit;\n    }\n\n    function setMarginProportion(uint _marginProportion) public isGovernOwner{\n        daoConfig.marginProportion = _marginProportion;\n    }\n\n    //_proposalDownLimitWei\n    function setProposalDownLimit(uint _proposalDownLimit) public isGovernOwner{\n        daoConfig.proposalDownLimit = _proposalDownLimit;\n    }\n\n    //\n    function _setGovern(uint _uintValue\n    ,string memory _strValue\n    ,uint _governType\n    ,uint256 _startDate\n    ,uint256 _endDate) private {\n        require(_startDate > block.timestamp && _startDate < _endDate,'Date is illegal!');\n        require(governEndDate[_governType] == 0 || governEndDate[_governType] < _startDate,'Governing!');\n        //poolstkToken\n        require(Ipool.balanceOf(msg.sender) >= daoConfig.proposalDownLimit,'Balance less than proposalDownLimit!');\n        uint day = (block.timestamp).sub(Ipool.memberTimes(msg.sender)).div(60 * 60 *24);\n        require(day >= daoConfig.calTime,'stakeTime less than calTime!');\n        uint256 voters = Ipool.totalSupply();\n        GovernanceInfo memory info;\n        currentNumber = currentNumber.add(1);\n        info.governType = _governType;\n        info.startDate = _startDate;\n        info.endDate = _endDate;\n        info.uintValue = _uintValue;\n        info.strValue = _strValue;\n        info.totalVoter = voters;\n        info.approveVoter = 0;\n        info.opposeVoter = 0;\n        info.governState = 0;\n        governanceInfos[currentNumber] = info;\n        governEndDate[_governType] = _endDate;\n        emit StartGovern(msg.sender,currentNumber,_governType,_startDate,_endDate,_uintValue,_strValue,voters);\n    }\n\n    //\n    function startDTGovern(\n        uint _daoTechFee,\n        uint256 _startDate,\n        uint256 _endDate\n    ) public isGovernance{\n        require(_daoTechFee >= daoTechLimit,'_daoTechFee is illegal!');\n        _setGovern(_daoTechFee, '', 0, _startDate, _endDate);\n    }\n\n    //\n    function startCTGovern(\n        uint _collatorTechFee,\n        uint256 _startDate,\n        uint256 _endDate\n    ) public isGovernance{\n        require(_collatorTechFee >= collatorTechLimit,'_collatorTechFee is illegal!');\n        _setGovern(_collatorTechFee, '', 1, _startDate, _endDate);\n    }\n\n    //,_fundsDownLimitWei\n    function startFDLGovern(\n        uint _fundsDownLimit,\n        uint256 _startDate,\n        uint256 _endDate\n    ) public isGovernance{\n        _setGovern(_fundsDownLimit, '', 2, _startDate, _endDate);\n    }\n\n    //,_fundsUpLimitWei\n    function startFULGovern(\n        uint _fundsUpLimit,\n        uint256 _startDate,\n        uint256 _endDate\n    ) public isGovernance{\n        _setGovern(_fundsUpLimit, '', 3, _startDate, _endDate);\n    }\n\n    //,_perInvestDownLimitWei\n    function startPIDLGovern(\n        uint _perInvestDownLimit,\n        uint256 _startDate,\n        uint256 _endDate\n    ) public isGovernance{\n        _setGovern(_perInvestDownLimit, '', 6, _startDate, _endDate);\n    }\n\n    //\n    function startVPGovern(\n        uint _voterProportion,\n        uint256 _startDate,\n        uint256 _endDate\n    ) public isGovernance{\n        require(_voterProportion >= voterDownLimit,'_voterProportion is illegal!');\n        _setGovern(_voterProportion, '', 7, _startDate, _endDate);\n    }\n\n    //,_rewardDownLimitWei\n    function startRDGovern(\n        uint _rewardDownLimit,\n        uint256 _startDate,\n        uint256 _endDate\n    ) public isGovernance{\n        _setGovern(_rewardDownLimit, '', 8, _startDate, _endDate);\n    }\n\n    //\n    function startCATGovern(\n        uint _calTime,\n        uint256 _startDate,\n        uint256 _endDate\n    ) public isGovernance{\n        _setGovern(_calTime, '', 9, _startDate, _endDate);\n    }\n\n    //Pool\n    function startRTLGovern(\n        uint _redeemTimeLimit,\n        uint256 _startDate,\n        uint256 _endDate\n    ) public isGovernance{\n        _setGovern(_redeemTimeLimit, '', 11, _startDate, _endDate);\n    }\n\n    //\n    function startZTLGovern(\n        uint _zeroTimeLimit,\n        uint256 _startDate,\n        uint256 _endDate\n    ) public isGovernance{\n        _setGovern(_zeroTimeLimit, '', 12, _startDate, _endDate);\n    }\n\n    //\n    function startMPGovern(\n        uint _marginProportion,\n        uint256 _startDate,\n        uint256 _endDate\n    ) public isGovernance{\n        _setGovern(_marginProportion, '', 13, _startDate, _endDate);\n    }\n\n    //,_proposalDownLimitWei\n    function startPDLGovern(\n        uint _proposalDownLimit,\n        uint256 _startDate,\n        uint256 _endDate\n    ) public isGovernance{\n        _setGovern(_proposalDownLimit, '', 14, _startDate, _endDate);\n    }\n\n    //\n    function startUrlGovern(\n        string memory _urlPath,\n        uint256 _startDate,\n        uint256 _endDate\n    ) public isGovernance{\n        _setGovern(0, _urlPath, 15, _startDate, _endDate);\n    }\n\n    //\n    function _setVote(\n        uint _governType,\n        uint _number,\n        uint _state\n    ) private returns (bool success,uint uintValue){\n        require(_number > 0,'_number is illegal!');\n        require(_state > 0 && _state < 3,'_state is illegal!');\n        GovernanceInfo memory info = governanceInfos[_number];\n        require(info.startDate <= block.timestamp && info.endDate >= block.timestamp,'Governace is not started or ended!');\n        require(info.governType == _governType ,'governType is illegal!');\n        require(info.totalVoter > 0 ,'totalVoter is illegal!');\n        require(governanceVotes[_number][msg.sender] == 0,'Voted!');\n\n        require(Ipool.balanceOf(msg.sender) > 0,'Balance is zero!');\n        require(Ipool.memberTimes(msg.sender) < info.startDate,'stakeTime not enought!');\n\n        uint day = (info.startDate).sub(Ipool.memberTimes(msg.sender)).div(60 * 60 *24);\n        require(day >= daoConfig.calTime,'stakeTime less than calTime!');\n\n        governanceVotes[_number][msg.sender] = _state;\n        if(_state == 1){\n            info.approveVoter = info.approveVoter.add(Ipool.balanceOf(msg.sender));\n        }else if(_state == 2){\n            info.opposeVoter = info.opposeVoter.add(Ipool.balanceOf(msg.sender));\n        }\n        if(info.approveVoter.mul(100).div(info.totalVoter) >= daoConfig.voterProportion){\n            info.endDate = block.timestamp;\n            governEndDate[_governType] = block.timestamp;\n            info.governState = 2;\n        }else if(info.opposeVoter.mul(100).div(info.totalVoter) > (100 - daoConfig.voterProportion)){\n            info.endDate = block.timestamp;\n            governEndDate[_governType] = block.timestamp;\n            info.governState = 3;\n        }\n        governanceInfos[_number] = info;\n        emit VoteByNumber(msg.sender,_number,_governType,_state,Ipool.balanceOf(msg.sender));\n        return (info.governState == 2,info.uintValue);\n    }\n\n    //\n    function voteTPByNumber(uint _number,uint _state) public {\n        (bool success,uint uintValue) = _setVote(0, _number, _state);\n        if(success){\n            //\n            daoConfig.daoTechFee = uintValue;\n        }\n    }\n\n    //_state1 2\n    function voteCTByNumber(uint _number,uint _state) public {\n        (bool success,uint uintValue) = _setVote(1, _number, _state);\n        if(success){\n            //\n            daoConfig.collatorTechFee = uintValue;\n        }\n    }\n\n    //\n    function voteFDLByNumber(uint _number,uint _state) public {\n        (bool success,uint uintValue) = _setVote(2, _number, _state);\n        if(success){\n            //\n            daoConfig.fundsDownLimit = uintValue;\n        }\n    }\n\n    //\n    function voteFULByNumber(uint _number,uint _state) public {\n        (bool success,uint uintValue) = _setVote(3, _number, _state);\n        if(success){\n            //\n            daoConfig.fundsUpLimit = uintValue;\n        }\n    }\n\n    //\n    function votePIDLByNumber(uint _number,uint _state) public {\n        (bool success,uint uintValue) = _setVote(6, _number, _state);\n        if(success){\n            //\n            daoConfig.perInvestDownLimit = uintValue;\n        }\n    }\n\n    //\n    function voteVPByNumber(uint _number,uint _state) public {\n        (bool success,uint uintValue) = _setVote(7, _number, _state);\n        if(success){\n            //\n            daoConfig.voterProportion = uintValue;\n        }\n    }\n\n    //\n    function voteRDByNumber(uint _number,uint _state) public {\n        (bool success,uint uintValue) = _setVote(8, _number, _state);\n        if(success){\n            //\n            daoConfig.rewardDownLimit = uintValue;\n        }\n    }\n\n    //\n    function voteCATByNumber(uint _number,uint _state) public {\n        (bool success,uint uintValue) = _setVote(9, _number, _state);\n        if(success){\n            //\n            daoConfig.calTime = uintValue;\n        }\n    }\n\n    //Pool\n    function voteRTLByNumber(uint _number,uint _state) public {\n        (bool success,uint uintValue) = _setVote(11, _number, _state);\n        if(success){\n            //\n            daoConfig.redeemTimeLimit = uintValue;\n        }\n    }\n\n    //\n    function voteZTLByNumber(uint _number,uint _state) public {\n        (bool success,uint uintValue) = _setVote(12, _number, _state);\n        if(success){\n            //\n            daoConfig.zeroTimeLimit = uintValue;\n        }\n    }\n\n    //\n    function voteMPByNumber(uint _number,uint _state) public {\n        (bool success,uint uintValue) = _setVote(13, _number, _state);\n        if(success){\n            //\n            daoConfig.marginProportion = uintValue;\n        }\n    }\n\n    //\n    function votePDLByNumber(uint _number,uint _state) public {\n        (bool success,uint uintValue) = _setVote(14, _number, _state);\n        if(success){\n            //\n            daoConfig.proposalDownLimit = uintValue;\n        }\n    }\n\n    //\n    function voteURLByNumber(uint _number,uint _state) public {\n        _setVote(15, _number, _state);\n    }\n\n    //\n    function getDaoTechFee() public  view returns(uint){\n        return daoConfig.daoTechFee;\n    }\n\n    //\n    function getCollatorTechFee() public  view returns(uint){\n        return daoConfig.collatorTechFee;\n    }\n\n    //\n    function getFundsDownLimit() public  view returns(uint){\n        return daoConfig.fundsDownLimit;\n    }\n\n    //\n    function getFundsUpLimit() public  view returns(uint){\n        return daoConfig.fundsUpLimit;\n    }\n\n    //\n    function getPerInvestDownLimit() public  view returns(uint){\n        return daoConfig.perInvestDownLimit;\n    }\n\n    //\n    function getVoterProportion() public  view returns(uint){\n        return daoConfig.voterProportion;\n    }\n\n    //\n    function getRewardDownLimit() public  view returns(uint){\n        return daoConfig.rewardDownLimit;\n    }\n\n    //\n    function getCalTime() public  view returns(uint){\n        return daoConfig.calTime;\n    }\n\n    //Pool\n    function getRedeemTimeLimit() public  view returns(uint){\n        return daoConfig.redeemTimeLimit;\n    }\n\n    //\n    function getZeroTimeLimit() public  view returns(uint){\n        return daoConfig.zeroTimeLimit;\n    }\n\n    //retToken\n    function getMarginProportion() public  view returns(uint){\n        return daoConfig.marginProportion;\n    }\n\n    //\n    function getProposalDownLimit() public  view returns(uint){\n        return daoConfig.proposalDownLimit;\n    }\n\n    //, governState0 1 2 3 4\n    function getGovernanceInfo(uint _number) public view returns(\n        uint governType,\n        uint256 startDate,\n        uint256 endDate,\n        uint uintValue,\n        string memory strValue,\n        uint256 totalVoter,\n        uint approveVoter,\n        uint opposeVoter,\n        uint8 governState\n    ){\n        GovernanceInfo memory info = governanceInfos[_number];\n        if(info.governState == 0){\n            if(info.startDate > block.timestamp){\n                governState = 0;\n            }else if(info.startDate <= block.timestamp && block.timestamp <= block.timestamp){\n                governState = 1;\n            }else{\n                governState = 4;\n            }\n        }else{\n            governState = info.governState;\n        }\n        return (\n        info.governType,\n        info.startDate,\n        info.endDate,\n        info.uintValue,\n        info.strValue,\n        info.totalVoter,\n        info.approveVoter,\n        info.opposeVoter,\n        governState);\n    }\n\n    //,\n    function getGovernEndDate(uint _governType) public view returns(uint256){\n        return governEndDate[_governType];\n    }\n\n    //,\n    function getGovernanceVote(uint _number,address _addr) public view returns(uint){\n        return governanceVotes[_number][_addr];\n    }\n}",
  "sourcePath": "D:\\\\vueDao\\StakeFinance\\truffle-dev\\contracts\\Governance.sol",
  "compiler": {
    "name": "solc",
    "version": "0.8.12+commit.f00d7308.Emscripten.clang"
  },
  "schemaVersion": "3.4.5",
  "updatedAt": "2022-06-20T02:52:10.475Z",
  "devdoc": {
    "kind": "dev",
    "methods": {},
    "version": 1
  },
  "userdoc": {
    "kind": "user",
    "methods": {},
    "version": 1
  }
}