{
  "contractName": "Pool",
  "abi": [
    {
      "inputs": [],
      "stateMutability": "nonpayable",
      "type": "constructor"
    },
    {
      "anonymous": false,
      "inputs": [
        {
          "indexed": false,
          "internalType": "bool",
          "name": "faucetType",
          "type": "bool"
        },
        {
          "indexed": true,
          "internalType": "address",
          "name": "addAddr",
          "type": "address"
        },
        {
          "indexed": true,
          "internalType": "address",
          "name": "faucetAddr",
          "type": "address"
        },
        {
          "indexed": false,
          "internalType": "uint256",
          "name": "period",
          "type": "uint256"
        },
        {
          "indexed": false,
          "internalType": "uint256",
          "name": "amount",
          "type": "uint256"
        }
      ],
      "name": "AddFaucet",
      "type": "event"
    },
    {
      "anonymous": false,
      "inputs": [
        {
          "indexed": true,
          "internalType": "address",
          "name": "owner",
          "type": "address"
        },
        {
          "indexed": true,
          "internalType": "address",
          "name": "spender",
          "type": "address"
        },
        {
          "indexed": false,
          "internalType": "uint256",
          "name": "value",
          "type": "uint256"
        }
      ],
      "name": "Approval",
      "type": "event"
    },
    {
      "anonymous": false,
      "inputs": [
        {
          "indexed": false,
          "internalType": "bool",
          "name": "faucetType",
          "type": "bool"
        },
        {
          "indexed": true,
          "internalType": "address",
          "name": "createAddr",
          "type": "address"
        },
        {
          "indexed": true,
          "internalType": "address",
          "name": "setAddr",
          "type": "address"
        },
        {
          "indexed": true,
          "internalType": "address",
          "name": "faucetAddr",
          "type": "address"
        },
        {
          "indexed": false,
          "internalType": "uint256",
          "name": "period",
          "type": "uint256"
        },
        {
          "indexed": false,
          "internalType": "uint256",
          "name": "amount",
          "type": "uint256"
        }
      ],
      "name": "CreateFaucet",
      "type": "event"
    },
    {
      "anonymous": false,
      "inputs": [
        {
          "indexed": true,
          "internalType": "address",
          "name": "from",
          "type": "address"
        },
        {
          "indexed": true,
          "internalType": "address",
          "name": "to",
          "type": "address"
        },
        {
          "indexed": false,
          "internalType": "uint256",
          "name": "value",
          "type": "uint256"
        }
      ],
      "name": "Transfer",
      "type": "event"
    },
    {
      "stateMutability": "payable",
      "type": "fallback"
    },
    {
      "inputs": [],
      "name": "Iairdrop",
      "outputs": [
        {
          "internalType": "contract IAirdrop",
          "name": "",
          "type": "address"
        }
      ],
      "stateMutability": "view",
      "type": "function"
    },
    {
      "inputs": [],
      "name": "Igovern",
      "outputs": [
        {
          "internalType": "contract IGovernance",
          "name": "",
          "type": "address"
        }
      ],
      "stateMutability": "view",
      "type": "function"
    },
    {
      "inputs": [
        {
          "internalType": "address",
          "name": "owner",
          "type": "address"
        },
        {
          "internalType": "address",
          "name": "spender",
          "type": "address"
        }
      ],
      "name": "allowance",
      "outputs": [
        {
          "internalType": "uint256",
          "name": "",
          "type": "uint256"
        }
      ],
      "stateMutability": "view",
      "type": "function"
    },
    {
      "inputs": [
        {
          "internalType": "address",
          "name": "spender",
          "type": "address"
        },
        {
          "internalType": "uint256",
          "name": "amount",
          "type": "uint256"
        }
      ],
      "name": "approve",
      "outputs": [
        {
          "internalType": "bool",
          "name": "",
          "type": "bool"
        }
      ],
      "stateMutability": "nonpayable",
      "type": "function"
    },
    {
      "inputs": [
        {
          "internalType": "address",
          "name": "account",
          "type": "address"
        }
      ],
      "name": "balanceOf",
      "outputs": [
        {
          "internalType": "uint256",
          "name": "",
          "type": "uint256"
        }
      ],
      "stateMutability": "view",
      "type": "function"
    },
    {
      "inputs": [],
      "name": "decimals",
      "outputs": [
        {
          "internalType": "uint8",
          "name": "",
          "type": "uint8"
        }
      ],
      "stateMutability": "view",
      "type": "function"
    },
    {
      "inputs": [
        {
          "internalType": "address",
          "name": "spender",
          "type": "address"
        },
        {
          "internalType": "uint256",
          "name": "subtractedValue",
          "type": "uint256"
        }
      ],
      "name": "decreaseAllowance",
      "outputs": [
        {
          "internalType": "bool",
          "name": "",
          "type": "bool"
        }
      ],
      "stateMutability": "nonpayable",
      "type": "function"
    },
    {
      "inputs": [],
      "name": "faucetModelAddr",
      "outputs": [
        {
          "internalType": "address",
          "name": "",
          "type": "address"
        }
      ],
      "stateMutability": "view",
      "type": "function"
    },
    {
      "inputs": [
        {
          "internalType": "address",
          "name": "spender",
          "type": "address"
        },
        {
          "internalType": "uint256",
          "name": "addedValue",
          "type": "uint256"
        }
      ],
      "name": "increaseAllowance",
      "outputs": [
        {
          "internalType": "bool",
          "name": "",
          "type": "bool"
        }
      ],
      "stateMutability": "nonpayable",
      "type": "function"
    },
    {
      "inputs": [
        {
          "internalType": "address",
          "name": "",
          "type": "address"
        }
      ],
      "name": "memberTimes",
      "outputs": [
        {
          "internalType": "uint256",
          "name": "",
          "type": "uint256"
        }
      ],
      "stateMutability": "view",
      "type": "function"
    },
    {
      "inputs": [],
      "name": "name",
      "outputs": [
        {
          "internalType": "string",
          "name": "",
          "type": "string"
        }
      ],
      "stateMutability": "view",
      "type": "function"
    },
    {
      "inputs": [],
      "name": "owner",
      "outputs": [
        {
          "internalType": "address",
          "name": "",
          "type": "address"
        }
      ],
      "stateMutability": "view",
      "type": "function"
    },
    {
      "inputs": [],
      "name": "pendingRedeem",
      "outputs": [
        {
          "internalType": "uint256",
          "name": "",
          "type": "uint256"
        }
      ],
      "stateMutability": "view",
      "type": "function"
    },
    {
      "inputs": [
        {
          "internalType": "address",
          "name": "",
          "type": "address"
        }
      ],
      "name": "redeemInfos",
      "outputs": [
        {
          "internalType": "uint256",
          "name": "redeemNumber",
          "type": "uint256"
        },
        {
          "internalType": "uint256",
          "name": "redeemAmount",
          "type": "uint256"
        },
        {
          "internalType": "bool",
          "name": "bflag",
          "type": "bool"
        }
      ],
      "stateMutability": "view",
      "type": "function"
    },
    {
      "inputs": [],
      "name": "symbol",
      "outputs": [
        {
          "internalType": "string",
          "name": "",
          "type": "string"
        }
      ],
      "stateMutability": "view",
      "type": "function"
    },
    {
      "inputs": [],
      "name": "totalSupply",
      "outputs": [
        {
          "internalType": "uint256",
          "name": "",
          "type": "uint256"
        }
      ],
      "stateMutability": "view",
      "type": "function"
    },
    {
      "inputs": [
        {
          "internalType": "address",
          "name": "to",
          "type": "address"
        },
        {
          "internalType": "uint256",
          "name": "amount",
          "type": "uint256"
        }
      ],
      "name": "transfer",
      "outputs": [
        {
          "internalType": "bool",
          "name": "",
          "type": "bool"
        }
      ],
      "stateMutability": "nonpayable",
      "type": "function"
    },
    {
      "inputs": [
        {
          "internalType": "address",
          "name": "from",
          "type": "address"
        },
        {
          "internalType": "address",
          "name": "to",
          "type": "address"
        },
        {
          "internalType": "uint256",
          "name": "amount",
          "type": "uint256"
        }
      ],
      "name": "transferFrom",
      "outputs": [
        {
          "internalType": "bool",
          "name": "",
          "type": "bool"
        }
      ],
      "stateMutability": "nonpayable",
      "type": "function"
    },
    {
      "stateMutability": "payable",
      "type": "receive"
    },
    {
      "inputs": [
        {
          "internalType": "address",
          "name": "_governAddr",
          "type": "address"
        },
        {
          "internalType": "address",
          "name": "_owner",
          "type": "address"
        },
        {
          "internalType": "string",
          "name": "name_",
          "type": "string"
        },
        {
          "internalType": "string",
          "name": "symbol_",
          "type": "string"
        },
        {
          "internalType": "address",
          "name": "_faucetModelAddr",
          "type": "address"
        }
      ],
      "name": "initialize",
      "outputs": [],
      "stateMutability": "nonpayable",
      "type": "function"
    },
    {
      "inputs": [
        {
          "internalType": "address",
          "name": "_governAddr",
          "type": "address"
        }
      ],
      "name": "setGovernAddr",
      "outputs": [],
      "stateMutability": "nonpayable",
      "type": "function"
    },
    {
      "inputs": [
        {
          "internalType": "address",
          "name": "_faucetModelAddr",
          "type": "address"
        }
      ],
      "name": "setFaucetModelAddr",
      "outputs": [],
      "stateMutability": "nonpayable",
      "type": "function"
    },
    {
      "inputs": [],
      "name": "addStake",
      "outputs": [],
      "stateMutability": "payable",
      "type": "function"
    },
    {
      "inputs": [
        {
          "internalType": "address",
          "name": "_account",
          "type": "address"
        },
        {
          "internalType": "uint256",
          "name": "_amount",
          "type": "uint256"
        }
      ],
      "name": "mintReward",
      "outputs": [],
      "stateMutability": "nonpayable",
      "type": "function"
    },
    {
      "inputs": [
        {
          "internalType": "uint256",
          "name": "_amount",
          "type": "uint256"
        }
      ],
      "name": "scheduleRedeemStake",
      "outputs": [],
      "stateMutability": "nonpayable",
      "type": "function"
    },
    {
      "inputs": [],
      "name": "executeRedeemStake",
      "outputs": [],
      "stateMutability": "nonpayable",
      "type": "function"
    },
    {
      "inputs": [
        {
          "internalType": "address",
          "name": "_techAddr",
          "type": "address"
        },
        {
          "internalType": "uint256",
          "name": "_period",
          "type": "uint256"
        },
        {
          "internalType": "uint256",
          "name": "_stkAmount",
          "type": "uint256"
        }
      ],
      "name": "createCollator",
      "outputs": [],
      "stateMutability": "nonpayable",
      "type": "function"
    },
    {
      "inputs": [
        {
          "internalType": "address payable",
          "name": "_collatorAddr",
          "type": "address"
        },
        {
          "internalType": "uint256",
          "name": "_period",
          "type": "uint256"
        },
        {
          "internalType": "uint256",
          "name": "_stkAmount",
          "type": "uint256"
        }
      ],
      "name": "addCollator",
      "outputs": [],
      "stateMutability": "nonpayable",
      "type": "function"
    },
    {
      "inputs": [
        {
          "internalType": "address",
          "name": "_collatorAddr",
          "type": "address"
        },
        {
          "internalType": "uint256",
          "name": "_period",
          "type": "uint256"
        },
        {
          "internalType": "uint256",
          "name": "_stkAmount",
          "type": "uint256"
        }
      ],
      "name": "createDelegator",
      "outputs": [],
      "stateMutability": "nonpayable",
      "type": "function"
    },
    {
      "inputs": [
        {
          "internalType": "address payable",
          "name": "_delegatorAddr",
          "type": "address"
        },
        {
          "internalType": "uint256",
          "name": "_period",
          "type": "uint256"
        },
        {
          "internalType": "uint256",
          "name": "_stkAmount",
          "type": "uint256"
        }
      ],
      "name": "addDelegator",
      "outputs": [],
      "stateMutability": "nonpayable",
      "type": "function"
    },
    {
      "inputs": [
        {
          "internalType": "address",
          "name": "_account",
          "type": "address"
        }
      ],
      "name": "getDelegatorAddrs",
      "outputs": [
        {
          "internalType": "address[]",
          "name": "",
          "type": "address[]"
        }
      ],
      "stateMutability": "view",
      "type": "function"
    },
    {
      "inputs": [
        {
          "internalType": "address",
          "name": "_account",
          "type": "address"
        }
      ],
      "name": "getCollatorAddrs",
      "outputs": [
        {
          "internalType": "address[]",
          "name": "",
          "type": "address[]"
        }
      ],
      "stateMutability": "view",
      "type": "function"
    },
    {
      "inputs": [],
      "name": "getAllCollators",
      "outputs": [
        {
          "internalType": "address[]",
          "name": "",
          "type": "address[]"
        }
      ],
      "stateMutability": "view",
      "type": "function"
    },
    {
      "inputs": [],
      "name": "getAllDelegators",
      "outputs": [
        {
          "internalType": "address[]",
          "name": "",
          "type": "address[]"
        }
      ],
      "stateMutability": "view",
      "type": "function"
    },
    {
      "inputs": [],
      "name": "balance",
      "outputs": [
        {
          "internalType": "uint256",
          "name": "",
          "type": "uint256"
        }
      ],
      "stateMutability": "view",
      "type": "function"
    },
    {
      "inputs": [
        {
          "internalType": "uint256",
          "name": "amount",
          "type": "uint256"
        }
      ],
      "name": "getRetToken",
      "outputs": [
        {
          "internalType": "uint256",
          "name": "",
          "type": "uint256"
        }
      ],
      "stateMutability": "view",
      "type": "function"
    },
    {
      "inputs": [],
      "name": "getDays",
      "outputs": [
        {
          "internalType": "uint256",
          "name": "",
          "type": "uint256"
        }
      ],
      "stateMutability": "view",
      "type": "function"
    },
    {
      "inputs": [],
      "name": "getAllPendingRedeem",
      "outputs": [
        {
          "internalType": "uint256",
          "name": "",
          "type": "uint256"
        }
      ],
      "stateMutability": "view",
      "type": "function"
    },
    {
      "inputs": [],
      "name": "getBlockNumber",
      "outputs": [
        {
          "internalType": "uint256",
          "name": "",
          "type": "uint256"
        }
      ],
      "stateMutability": "view",
      "type": "function"
    },
    {
      "inputs": [],
      "name": "getMemberAddrs",
      "outputs": [
        {
          "internalType": "address[]",
          "name": "",
          "type": "address[]"
        }
      ],
      "stateMutability": "view",
      "type": "function"
    }
  ],
  "bytecode": "0x60806040526001601160006101000a81548160ff0219169083151502179055503480156200002c57600080fd5b506040518060400160405280601781526020017f544849532049532041205354414b494e4720544f4b454e0000000000000000008152506040518060400160405280600781526020017f73746b4d4f5652000000000000000000000000000000000000000000000000008152508160039080519060200190620000b1929190620000d3565b508060049080519060200190620000ca929190620000d3565b505050620001e8565b828054620000e190620001b2565b90600052602060002090601f01602090048101928262000105576000855562000151565b82601f106200012057805160ff191683800117855562000151565b8280016001018555821562000151579182015b828111156200015057825182559160200191906001019062000133565b5b50905062000160919062000164565b5090565b5b808211156200017f57600081600090555060010162000165565b5090565b7f4e487b7100000000000000000000000000000000000000000000000000000000600052602260045260246000fd5b60006002820490506001821680620001cb57607f821691505b60208210811415620001e257620001e162000183565b5b50919050565b615bf580620001f86000396000f3fe6080604052600436106102345760003560e01c806378e5c6891161012e578063a457c2d7116100ab578063cbb750251161006f578063cbb7502514610864578063dd62ed3e1461088f578063dd9abbcd146108cc578063ea8f56b0146108f5578063f92142c4146109325761023b565b8063a457c2d714610769578063a9059cbb146107a6578063b28f3b8e146107e3578063b69ef8a81461080e578063c8786de1146108395761023b565b80639a14679b116100f25780639a14679b146106985780639a49090e146106af5780639f596157146106d85780639fc71fda14610715578063a1545ef51461073e5761023b565b806378e5c689146105b15780637e20c9b0146105da5780638baf96a5146106175780638da5cb5b1461064257806395d89b411461066d5761023b565b8063313ce567116101bc5780635a627dbc116101805780635a627dbc146104ef57806361260f89146104f957806361685e961461052257806367f647251461054b57806370a08231146105745761023b565b8063313ce56714610408578063362925c214610433578063372cf5fe1461045c578063395093511461048757806342cbb15c146104c45761023b565b80630e641155116102035780630e6411551461030f57806318160ddd1461033a5780631986bf6214610365578063217366eb146103a257806323b872dd146103cb5761023b565b806306fdde031461023d578063095ea7b3146102685780630a605c6d146102a55780630aa5f990146102d05761023b565b3661023b57005b005b34801561024957600080fd5b5061025261095d565b60405161025f9190614308565b60405180910390f35b34801561027457600080fd5b5061028f600480360381019061028a91906143d2565b6109ef565b60405161029c919061442d565b60405180910390f35b3480156102b157600080fd5b506102ba610a12565b6040516102c79190614457565b60405180910390f35b3480156102dc57600080fd5b506102f760048036038101906102f29190614472565b610a18565b6040516103069392919061449f565b60405180910390f35b34801561031b57600080fd5b50610324610a4f565b6040516103319190614594565b60405180910390f35b34801561034657600080fd5b5061034f610add565b60405161035c9190614457565b60405180910390f35b34801561037157600080fd5b5061038c600480360381019061038791906145b6565b610ae7565b6040516103999190614457565b60405180910390f35b3480156103ae57600080fd5b506103c960048036038101906103c49190614472565b610bb8565b005b3480156103d757600080fd5b506103f260048036038101906103ed91906145e3565b610c8c565b6040516103ff919061442d565b60405180910390f35b34801561041457600080fd5b5061041d610cbb565b60405161042a9190614652565b60405180910390f35b34801561043f57600080fd5b5061045a600480360381019061045591906147a2565b610cc4565b005b34801561046857600080fd5b50610471610e68565b60405161047e91906148b4565b60405180910390f35b34801561049357600080fd5b506104ae60048036038101906104a991906143d2565b610e8e565b6040516104bb919061442d565b60405180910390f35b3480156104d057600080fd5b506104d9610f38565b6040516104e69190614457565b60405180910390f35b6104f7610f40565b005b34801561050557600080fd5b50610520600480360381019061051b91906148cf565b6110f9565b005b34801561052e57600080fd5b50610549600480360381019061054491906145b6565b611726565b005b34801561055757600080fd5b50610572600480360381019061056d9190614960565b611a98565b005b34801561058057600080fd5b5061059b60048036038101906105969190614472565b611bae565b6040516105a89190614457565b60405180910390f35b3480156105bd57600080fd5b506105d860048036038101906105d391906148cf565b611bf6565b005b3480156105e657600080fd5b5061060160048036038101906105fc9190614472565b6120f2565b60405161060e9190614594565b60405180910390f35b34801561062357600080fd5b5061062c6121bf565b60405161063991906149d4565b60405180910390f35b34801561064e57600080fd5b506106576121e5565b60405161066491906149fe565b60405180910390f35b34801561067957600080fd5b5061068261220b565b60405161068f9190614308565b60405180910390f35b3480156106a457600080fd5b506106ad61229d565b005b3480156106bb57600080fd5b506106d660048036038101906106d191906143d2565b6124dc565b005b3480156106e457600080fd5b506106ff60048036038101906106fa9190614472565b6125e8565b60405161070c9190614594565b60405180910390f35b34801561072157600080fd5b5061073c60048036038101906107379190614960565b6126b5565b005b34801561074a57600080fd5b506107536127cb565b6040516107609190614457565b60405180910390f35b34801561077557600080fd5b50610790600480360381019061078b91906143d2565b6127e8565b60405161079d919061442d565b60405180910390f35b3480156107b257600080fd5b506107cd60048036038101906107c891906143d2565b6128d2565b6040516107da919061442d565b60405180910390f35b3480156107ef57600080fd5b506107f86128f5565b60405161080591906149fe565b60405180910390f35b34801561081a57600080fd5b5061082361291b565b6040516108309190614457565b60405180910390f35b34801561084557600080fd5b5061084e612923565b60405161085b9190614594565b60405180910390f35b34801561087057600080fd5b506108796129b1565b6040516108869190614594565b60405180910390f35b34801561089b57600080fd5b506108b660048036038101906108b19190614a19565b6129c2565b6040516108c39190614457565b60405180910390f35b3480156108d857600080fd5b506108f360048036038101906108ee9190614472565b612a49565b005b34801561090157600080fd5b5061091c60048036038101906109179190614472565b612b1d565b6040516109299190614457565b60405180910390f35b34801561093e57600080fd5b50610947612b35565b6040516109549190614457565b60405180910390f35b60606003805461096c90614a88565b80601f016020809104026020016040519081016040528092919081815260200182805461099890614a88565b80156109e55780601f106109ba576101008083540402835291602001916109e5565b820191906000526020600020905b8154815290600101906020018083116109c857829003601f168201915b5050505050905090565b6000806109fa612d0b565b9050610a07818585612d13565b600191505092915050565b60105481565b600f6020528060005260406000206000915090508060000154908060010154908060020160009054906101000a900460ff16905083565b6060600e805480602002602001604051908101604052809291908181526020018280548015610ad357602002820191906000526020600020905b8160009054906101000a900473ffffffffffffffffffffffffffffffffffffffff1673ffffffffffffffffffffffffffffffffffffffff1681526020019060010190808311610a89575b5050505050905090565b6000600254905090565b6000610bb1610ba2600a610b94600560009054906101000a900473ffffffffffffffffffffffffffffffffffffffff1673ffffffffffffffffffffffffffffffffffffffff166384862faf6040518163ffffffff1660e01b8152600401602060405180830381865afa158015610b61573d6000803e3d6000fd5b505050506040513d601f19601f82011682018060405250810190610b859190614acf565b86612ede90919063ffffffff16565b612ef490919063ffffffff16565b83612f0a90919063ffffffff16565b9050919050565b601160019054906101000a900473ffffffffffffffffffffffffffffffffffffffff1673ffffffffffffffffffffffffffffffffffffffff163373ffffffffffffffffffffffffffffffffffffffff1614610c48576040517f08c379a0000000000000000000000000000000000000000000000000000000008152600401610c3f90614b48565b60405180910390fd5b80600760006101000a81548173ffffffffffffffffffffffffffffffffffffffff021916908373ffffffffffffffffffffffffffffffffffffffff16021790555050565b600080610c97612d0b565b9050610ca4858285612f20565b610caf858585612fac565b60019150509392505050565b60006012905090565b600073ffffffffffffffffffffffffffffffffffffffff16600560009054906101000a900473ffffffffffffffffffffffffffffffffffffffff1673ffffffffffffffffffffffffffffffffffffffff1614610d55576040517f08c379a0000000000000000000000000000000000000000000000000000000008152600401610d4c90614bb4565b60405180910390fd5b84600560006101000a81548173ffffffffffffffffffffffffffffffffffffffff021916908373ffffffffffffffffffffffffffffffffffffffff16021790555083601160016101000a81548173ffffffffffffffffffffffffffffffffffffffff021916908373ffffffffffffffffffffffffffffffffffffffff1602179055508260039080519060200190610ded92919061417a565b508160049080519060200190610e0492919061417a565b5080600760006101000a81548173ffffffffffffffffffffffffffffffffffffffff021916908373ffffffffffffffffffffffffffffffffffffffff1602179055506001601160006101000a81548160ff0219169083151502179055505050505050565b600660009054906101000a900473ffffffffffffffffffffffffffffffffffffffff1681565b600080610e99612d0b565b9050610f2d818585600160008673ffffffffffffffffffffffffffffffffffffffff1673ffffffffffffffffffffffffffffffffffffffff16815260200190815260200160002060008973ffffffffffffffffffffffffffffffffffffffff1673ffffffffffffffffffffffffffffffffffffffff16815260200190815260200160002054610f289190614c03565b612d13565b600191505092915050565b600043905090565b600560009054906101000a900473ffffffffffffffffffffffffffffffffffffffff1673ffffffffffffffffffffffffffffffffffffffff16631eec98f46040518163ffffffff1660e01b8152600401602060405180830381865afa158015610fad573d6000803e3d6000fd5b505050506040513d601f19601f82011682018060405250810190610fd19190614acf565b341015611013576040517f08c379a000000000000000000000000000000000000000000000000000000000815260040161100a90614ca5565b60405180910390fd5b600560009054906101000a900473ffffffffffffffffffffffffffffffffffffffff1673ffffffffffffffffffffffffffffffffffffffff1663ce302ba46040518163ffffffff1660e01b8152600401602060405180830381865afa158015611080573d6000803e3d6000fd5b505050506040513d601f19601f820116820180604052508101906110a49190614acf565b6110ac610add565b11156110ed576040517f08c379a00000000000000000000000000000000000000000000000000000000081526004016110e490614d11565b60405180910390fd5b6110f7333461322d565b565b601160009054906101000a900460ff16611148576040517f08c379a000000000000000000000000000000000000000000000000000000000815260040161113f90614d7d565b60405180910390fd5b6000601160006101000a81548160ff021916908315150217905550600073ffffffffffffffffffffffffffffffffffffffff16600760009054906101000a900473ffffffffffffffffffffffffffffffffffffffff1673ffffffffffffffffffffffffffffffffffffffff1614156111f5576040517f08c379a00000000000000000000000000000000000000000000000000000000081526004016111ec90614de9565b60405180910390fd5b600073ffffffffffffffffffffffffffffffffffffffff16600560009054906101000a900473ffffffffffffffffffffffffffffffffffffffff1673ffffffffffffffffffffffffffffffffffffffff16637015e95e6040518163ffffffff1660e01b8152600401602060405180830381865afa15801561127a573d6000803e3d6000fd5b505050506040513d601f19601f8201168201806040525081019061129e9190614e1e565b73ffffffffffffffffffffffffffffffffffffffff1614156112f5576040517f08c379a00000000000000000000000000000000000000000000000000000000081526004016112ec90614e97565b60405180910390fd5b60006113a261139d600560009054906101000a900473ffffffffffffffffffffffffffffffffffffffff1673ffffffffffffffffffffffffffffffffffffffff1663e88d0eb56040518163ffffffff1660e01b8152600401602060405180830381865afa15801561136a573d6000803e3d6000fd5b505050506040513d601f19601f8201168201806040525081019061138e9190614acf565b84612f0a90919063ffffffff16565b61338d565b905060006113d1600760009054906101000a900473ffffffffffffffffffffffffffffffffffffffff166134a3565b90508073ffffffffffffffffffffffffffffffffffffffff1663d92978b1600560009054906101000a900473ffffffffffffffffffffffffffffffffffffffff16600088336001601160019054906101000a900473ffffffffffffffffffffffffffffffffffffffff166040518763ffffffff1660e01b815260040161145c96959493929190614eb7565b600060405180830381600087803b15801561147657600080fd5b505af115801561148a573d6000803e3d6000fd5b505050506000600b60003373ffffffffffffffffffffffffffffffffffffffff1673ffffffffffffffffffffffffffffffffffffffff168152602001908152602001600020905080829080600181540180825580915050600190039060005260206000200160009091909190916101000a81548173ffffffffffffffffffffffffffffffffffffffff021916908373ffffffffffffffffffffffffffffffffffffffff16021790555080600b60003373ffffffffffffffffffffffffffffffffffffffff1673ffffffffffffffffffffffffffffffffffffffff168152602001908152602001600020908054611581929190614200565b5061161f82868686600560009054906101000a900473ffffffffffffffffffffffffffffffffffffffff1673ffffffffffffffffffffffffffffffffffffffff1663e88d0eb56040518163ffffffff1660e01b8152600401602060405180830381865afa1580156115f6573d6000803e3d6000fd5b505050506040513d601f19601f8201168201806040525081019061161a9190614acf565b61350d565b600c829080600181540180825580915050600190039060005260206000200160009091909190916101000a81548173ffffffffffffffffffffffffffffffffffffffff021916908373ffffffffffffffffffffffffffffffffffffffff1602179055508173ffffffffffffffffffffffffffffffffffffffff168673ffffffffffffffffffffffffffffffffffffffff163373ffffffffffffffffffffffffffffffffffffffff167f990cda1b88e5ee926139ea67a1f1ef2f9edcfafb34d6af3ddb6b6b2febacc8b8600189896040516116fb93929190614f18565b60405180910390a45050506001601160006101000a81548160ff021916908315150217905550505050565b60008111611769576040517f08c379a000000000000000000000000000000000000000000000000000000000815260040161176090614f9b565b60405180910390fd5b8061177333611bae565b10158015611795575080611792601054476139b590919063ffffffff16565b10155b6117d4576040517f08c379a00000000000000000000000000000000000000000000000000000000081526004016117cb90615007565b60405180910390fd5b600061183d6201518061182f600a60003373ffffffffffffffffffffffffffffffffffffffff1673ffffffffffffffffffffffffffffffffffffffff16815260200190815260200160002054426139b590919063ffffffff16565b612ef490919063ffffffff16565b9050600560009054906101000a900473ffffffffffffffffffffffffffffffffffffffff1673ffffffffffffffffffffffffffffffffffffffff1663989a63586040518163ffffffff1660e01b8152600401602060405180830381865afa1580156118ac573d6000803e3d6000fd5b505050506040513d601f19601f820116820180604052508101906118d09190614acf565b811015611912576040517f08c379a000000000000000000000000000000000000000000000000000000000815260040161190990615073565b60405180910390fd5b6000600f60003373ffffffffffffffffffffffffffffffffffffffff1673ffffffffffffffffffffffffffffffffffffffff16815260200190815260200160002060405180606001604052908160008201548152602001600182015481526020016002820160009054906101000a900460ff16151515158152505090508060400151156119d4576040517f08c379a00000000000000000000000000000000000000000000000000000000081526004016119cb906150df565b60405180910390fd5b4381600001818152505082816020018181525050600181604001901515908115158152505080600f60003373ffffffffffffffffffffffffffffffffffffffff1673ffffffffffffffffffffffffffffffffffffffff168152602001908152602001600020600082015181600001556020820151816001015560408201518160020160006101000a81548160ff0219169083151502179055509050508260106000828254611a829190614c03565b92505081905550611a9333846139cb565b505050565b601160009054906101000a900460ff16611ae7576040517f08c379a0000000000000000000000000000000000000000000000000000000008152600401611ade90614d7d565b60405180910390fd5b6000601160006101000a81548160ff0219169083151502179055506000611b0d8261338d565b90506000849050611b2281858585600061350d565b8473ffffffffffffffffffffffffffffffffffffffff163373ffffffffffffffffffffffffffffffffffffffff167fb1f5d8053116ce4a7fd32401b64bce0536375a52b146417fe72655532c25576760018787604051611b8493929190614f18565b60405180910390a350506001601160006101000a81548160ff021916908315150217905550505050565b60008060008373ffffffffffffffffffffffffffffffffffffffff1673ffffffffffffffffffffffffffffffffffffffff168152602001908152602001600020549050919050565b601160009054906101000a900460ff16611c45576040517f08c379a0000000000000000000000000000000000000000000000000000000008152600401611c3c90614d7d565b60405180910390fd5b6000601160006101000a81548160ff021916908315150217905550600073ffffffffffffffffffffffffffffffffffffffff16600760009054906101000a900473ffffffffffffffffffffffffffffffffffffffff1673ffffffffffffffffffffffffffffffffffffffff161415611cf2576040517f08c379a0000000000000000000000000000000000000000000000000000000008152600401611ce990614de9565b60405180910390fd5b600073ffffffffffffffffffffffffffffffffffffffff16600560009054906101000a900473ffffffffffffffffffffffffffffffffffffffff1673ffffffffffffffffffffffffffffffffffffffff16637015e95e6040518163ffffffff1660e01b8152600401602060405180830381865afa158015611d77573d6000803e3d6000fd5b505050506040513d601f19601f82011682018060405250810190611d9b9190614e1e565b73ffffffffffffffffffffffffffffffffffffffff161415611df2576040517f08c379a0000000000000000000000000000000000000000000000000000000008152600401611de990614e97565b60405180910390fd5b6000611dfd8261338d565b90506000611e2c600760009054906101000a900473ffffffffffffffffffffffffffffffffffffffff166134a3565b90508073ffffffffffffffffffffffffffffffffffffffff1663d92978b1600560009054906101000a900473ffffffffffffffffffffffffffffffffffffffff16876000806000601160019054906101000a900473ffffffffffffffffffffffffffffffffffffffff166040518763ffffffff1660e01b8152600401611eb796959493929190614eb7565b600060405180830381600087803b158015611ed157600080fd5b505af1158015611ee5573d6000803e3d6000fd5b505050506000600d60003373ffffffffffffffffffffffffffffffffffffffff1673ffffffffffffffffffffffffffffffffffffffff168152602001908152602001600020905080829080600181540180825580915050600190039060005260206000200160009091909190916101000a81548173ffffffffffffffffffffffffffffffffffffffff021916908373ffffffffffffffffffffffffffffffffffffffff16021790555080600d60003373ffffffffffffffffffffffffffffffffffffffff1673ffffffffffffffffffffffffffffffffffffffff168152602001908152602001600020908054611fdc929190614200565b50611feb82868686600061350d565b600e829080600181540180825580915050600190039060005260206000200160009091909190916101000a81548173ffffffffffffffffffffffffffffffffffffffff021916908373ffffffffffffffffffffffffffffffffffffffff1602179055508173ffffffffffffffffffffffffffffffffffffffff168673ffffffffffffffffffffffffffffffffffffffff163373ffffffffffffffffffffffffffffffffffffffff167f990cda1b88e5ee926139ea67a1f1ef2f9edcfafb34d6af3ddb6b6b2febacc8b8600089896040516120c793929190614f18565b60405180910390a45050506001601160006101000a81548160ff021916908315150217905550505050565b6060600b60008373ffffffffffffffffffffffffffffffffffffffff1673ffffffffffffffffffffffffffffffffffffffff1681526020019081526020016000208054806020026020016040519081016040528092919081815260200182805480156121b357602002820191906000526020600020905b8160009054906101000a900473ffffffffffffffffffffffffffffffffffffffff1673ffffffffffffffffffffffffffffffffffffffff1681526020019060010190808311612169575b50505050509050919050565b600560009054906101000a900473ffffffffffffffffffffffffffffffffffffffff1681565b601160019054906101000a900473ffffffffffffffffffffffffffffffffffffffff1681565b60606004805461221a90614a88565b80601f016020809104026020016040519081016040528092919081815260200182805461224690614a88565b80156122935780601f1061226857610100808354040283529160200191612293565b820191906000526020600020905b81548152906001019060200180831161227657829003601f168201915b5050505050905090565b6000600f60003373ffffffffffffffffffffffffffffffffffffffff1673ffffffffffffffffffffffffffffffffffffffff16815260200190815260200160002060405180606001604052908160008201548152602001600182015481526020016002820160009054906101000a900460ff1615151515815250509050806040015180156123d15750436123ce600560009054906101000a900473ffffffffffffffffffffffffffffffffffffffff1673ffffffffffffffffffffffffffffffffffffffff1663f44ff7126040518163ffffffff1660e01b8152600401602060405180830381865afa158015612397573d6000803e3d6000fd5b505050506040513d601f19601f820116820180604052508101906123bb9190614acf565b8360000151612f0a90919063ffffffff16565b11155b612410576040517f08c379a00000000000000000000000000000000000000000000000000000000081526004016124079061514b565b60405180910390fd5b6000816040019015159081151581525050806020015160106000828254612437919061516b565b925050819055506000816000018181525050600081602001818152505080600f60003373ffffffffffffffffffffffffffffffffffffffff1673ffffffffffffffffffffffffffffffffffffffff168152602001908152602001600020600082015181600001556020820151816001015560408201518160020160006101000a81548160ff0219169083151502179055509050506124d9338260200151613ba2565b50565b600560009054906101000a900473ffffffffffffffffffffffffffffffffffffffff1673ffffffffffffffffffffffffffffffffffffffff16637015e95e6040518163ffffffff1660e01b8152600401602060405180830381865afa158015612549573d6000803e3d6000fd5b505050506040513d601f19601f8201168201806040525081019061256d9190614e1e565b73ffffffffffffffffffffffffffffffffffffffff163373ffffffffffffffffffffffffffffffffffffffff16146125da576040517f08c379a00000000000000000000000000000000000000000000000000000000081526004016125d1906151eb565b60405180910390fd5b6125e48282613c96565b5050565b6060600d60008373ffffffffffffffffffffffffffffffffffffffff1673ffffffffffffffffffffffffffffffffffffffff1681526020019081526020016000208054806020026020016040519081016040528092919081815260200182805480156126a957602002820191906000526020600020905b8160009054906101000a900473ffffffffffffffffffffffffffffffffffffffff1673ffffffffffffffffffffffffffffffffffffffff168152602001906001019080831161265f575b50505050509050919050565b601160009054906101000a900460ff16612704576040517f08c379a00000000000000000000000000000000000000000000000000000000081526004016126fb90614d7d565b60405180910390fd5b6000601160006101000a81548160ff021916908315150217905550600061272a8261338d565b9050600084905061273f81858585600061350d565b8473ffffffffffffffffffffffffffffffffffffffff163373ffffffffffffffffffffffffffffffffffffffff167fb1f5d8053116ce4a7fd32401b64bce0536375a52b146417fe72655532c255767600087876040516127a193929190614f18565b60405180910390a350506001601160006101000a81548160ff021916908315150217905550505050565b60006127e36201518042612ef490919063ffffffff16565b905090565b6000806127f3612d0b565b90506000600160008373ffffffffffffffffffffffffffffffffffffffff1673ffffffffffffffffffffffffffffffffffffffff16815260200190815260200160002060008673ffffffffffffffffffffffffffffffffffffffff1673ffffffffffffffffffffffffffffffffffffffff168152602001908152602001600020549050838110156128b9576040517f08c379a00000000000000000000000000000000000000000000000000000000081526004016128b09061527d565b60405180910390fd5b6128c68286868403612d13565b60019250505092915050565b6000806128dd612d0b565b90506128ea818585612fac565b600191505092915050565b600760009054906101000a900473ffffffffffffffffffffffffffffffffffffffff1681565b600047905090565b6060600c8054806020026020016040519081016040528092919081815260200182805480156129a757602002820191906000526020600020905b8160009054906101000a900473ffffffffffffffffffffffffffffffffffffffff1673ffffffffffffffffffffffffffffffffffffffff168152602001906001019080831161295d575b5050505050905090565b60606129bd6008613dde565b905090565b6000600160008473ffffffffffffffffffffffffffffffffffffffff1673ffffffffffffffffffffffffffffffffffffffff16815260200190815260200160002060008373ffffffffffffffffffffffffffffffffffffffff1673ffffffffffffffffffffffffffffffffffffffff16815260200190815260200160002054905092915050565b601160019054906101000a900473ffffffffffffffffffffffffffffffffffffffff1673ffffffffffffffffffffffffffffffffffffffff163373ffffffffffffffffffffffffffffffffffffffff1614612ad9576040517f08c379a0000000000000000000000000000000000000000000000000000000008152600401612ad090614b48565b60405180910390fd5b80600560006101000a81548173ffffffffffffffffffffffffffffffffffffffff021916908373ffffffffffffffffffffffffffffffffffffffff16021790555050565b600a6020528060005260406000206000915090505481565b6000806000905060005b600c80549050811015612c1f576000600c8281548110612b6257612b6161529d565b5b9060005260206000200160009054906101000a900473ffffffffffffffffffffffffffffffffffffffff1690508073ffffffffffffffffffffffffffffffffffffffff16637d6c99746040518163ffffffff1660e01b8152600401602060405180830381865afa158015612bda573d6000803e3d6000fd5b505050506040513d601f19601f82011682018060405250810190612bfe9190614acf565b83612c099190614c03565b9250508080612c17906152cc565b915050612b3f565b5060005b600e80549050811015612d03576000600e8281548110612c4657612c4561529d565b5b9060005260206000200160009054906101000a900473ffffffffffffffffffffffffffffffffffffffff1690508073ffffffffffffffffffffffffffffffffffffffff16637d6c99746040518163ffffffff1660e01b8152600401602060405180830381865afa158015612cbe573d6000803e3d6000fd5b505050506040513d601f19601f82011682018060405250810190612ce29190614acf565b83612ced9190614c03565b9250508080612cfb906152cc565b915050612c23565b508091505090565b600033905090565b600073ffffffffffffffffffffffffffffffffffffffff168373ffffffffffffffffffffffffffffffffffffffff161415612d83576040517f08c379a0000000000000000000000000000000000000000000000000000000008152600401612d7a90615387565b60405180910390fd5b600073ffffffffffffffffffffffffffffffffffffffff168273ffffffffffffffffffffffffffffffffffffffff161415612df3576040517f08c379a0000000000000000000000000000000000000000000000000000000008152600401612dea90615419565b60405180910390fd5b80600160008573ffffffffffffffffffffffffffffffffffffffff1673ffffffffffffffffffffffffffffffffffffffff16815260200190815260200160002060008473ffffffffffffffffffffffffffffffffffffffff1673ffffffffffffffffffffffffffffffffffffffff168152602001908152602001600020819055508173ffffffffffffffffffffffffffffffffffffffff168373ffffffffffffffffffffffffffffffffffffffff167f8c5be1e5ebec7d5bd14f71427d1e84f3dd0314c0f7b2291e5b200ac8c7c3b92583604051612ed19190614457565b60405180910390a3505050565b60008183612eec9190615439565b905092915050565b60008183612f0291906154c2565b905092915050565b60008183612f189190614c03565b905092915050565b6000612f2c84846129c2565b90507fffffffffffffffffffffffffffffffffffffffffffffffffffffffffffffffff8114612fa65781811015612f98576040517f08c379a0000000000000000000000000000000000000000000000000000000008152600401612f8f9061553f565b60405180910390fd5b612fa58484848403612d13565b5b50505050565b600073ffffffffffffffffffffffffffffffffffffffff168373ffffffffffffffffffffffffffffffffffffffff16141561301c576040517f08c379a0000000000000000000000000000000000000000000000000000000008152600401613013906155d1565b60405180910390fd5b600073ffffffffffffffffffffffffffffffffffffffff168273ffffffffffffffffffffffffffffffffffffffff16141561308c576040517f08c379a000000000000000000000000000000000000000000000000000000000815260040161308390615663565b60405180910390fd5b613097838383613dff565b60008060008573ffffffffffffffffffffffffffffffffffffffff1673ffffffffffffffffffffffffffffffffffffffff1681526020019081526020016000205490508181101561311d576040517f08c379a0000000000000000000000000000000000000000000000000000000008152600401613114906156f5565b60405180910390fd5b8181036000808673ffffffffffffffffffffffffffffffffffffffff1673ffffffffffffffffffffffffffffffffffffffff16815260200190815260200160002081905550816000808573ffffffffffffffffffffffffffffffffffffffff1673ffffffffffffffffffffffffffffffffffffffff16815260200190815260200160002060008282546131b09190614c03565b925050819055508273ffffffffffffffffffffffffffffffffffffffff168473ffffffffffffffffffffffffffffffffffffffff167fddf252ad1be2c89b69c2b068fc378daa952ba7f163c4a11628f55a4df523b3ef846040516132149190614457565b60405180910390a3613227848484613e9d565b50505050565b600073ffffffffffffffffffffffffffffffffffffffff168273ffffffffffffffffffffffffffffffffffffffff16141561329d576040517f08c379a000000000000000000000000000000000000000000000000000000000815260040161329490615761565b60405180910390fd5b6132a960008383613dff565b80600260008282546132bb9190614c03565b92505081905550806000808473ffffffffffffffffffffffffffffffffffffffff1673ffffffffffffffffffffffffffffffffffffffff16815260200190815260200160002060008282546133109190614c03565b925050819055508173ffffffffffffffffffffffffffffffffffffffff16600073ffffffffffffffffffffffffffffffffffffffff167fddf252ad1be2c89b69c2b068fc378daa952ba7f163c4a11628f55a4df523b3ef836040516133759190614457565b60405180910390a361338960008383613e9d565b5050565b6000816133a5601054476139b590919063ffffffff16565b10156133e6576040517f08c379a00000000000000000000000000000000000000000000000000000000081526004016133dd90615007565b60405180910390fd5b61349c600a61348e600560009054906101000a900473ffffffffffffffffffffffffffffffffffffffff1673ffffffffffffffffffffffffffffffffffffffff166384862faf6040518163ffffffff1660e01b8152600401602060405180830381865afa15801561345b573d6000803e3d6000fd5b505050506040513d601f19601f8201168201806040525081019061347f9190614acf565b85612ede90919063ffffffff16565b612ef490919063ffffffff16565b9050919050565b6000808260601b90506040517f3d602d80600a3d3981f3363d3d373d3d3d363d7300000000000000000000000081528160148201527f5af43d82803e903d91602b57fd5bf3000000000000000000000000000000000060288201526037816000f092505050919050565b600073ffffffffffffffffffffffffffffffffffffffff16600560009054906101000a900473ffffffffffffffffffffffffffffffffffffffff1673ffffffffffffffffffffffffffffffffffffffff1663d1d25fab6040518163ffffffff1660e01b8152600401602060405180830381865afa158015613592573d6000803e3d6000fd5b505050506040513d601f19601f820116820180604052508101906135b69190614e1e565b73ffffffffffffffffffffffffffffffffffffffff16141561360d576040517f08c379a0000000000000000000000000000000000000000000000000000000008152600401613604906157cd565b60405180910390fd5b600560009054906101000a900473ffffffffffffffffffffffffffffffffffffffff1673ffffffffffffffffffffffffffffffffffffffff1663d1d25fab6040518163ffffffff1660e01b8152600401602060405180830381865afa15801561367a573d6000803e3d6000fd5b505050506040513d601f19601f8201168201806040525081019061369e9190614e1e565b600660006101000a81548173ffffffffffffffffffffffffffffffffffffffff021916908373ffffffffffffffffffffffffffffffffffffffff1602179055506136f18284612f0a90919063ffffffff16565b600660009054906101000a900473ffffffffffffffffffffffffffffffffffffffff1673ffffffffffffffffffffffffffffffffffffffff166370a08231336040518263ffffffff1660e01b815260040161374c91906149fe565b602060405180830381865afa158015613769573d6000803e3d6000fd5b505050506040513d601f19601f8201168201806040525081019061378d9190614acf565b10156137ce576040517f08c379a00000000000000000000000000000000000000000000000000000000081526004016137c590615839565b60405180910390fd5b60006137e66201518042612ef490919063ffffffff16565b90508573ffffffffffffffffffffffffffffffffffffffff1663a8add12333838888886040518663ffffffff1660e01b8152600401613829959493929190615859565b600060405180830381600087803b15801561384357600080fd5b505af1158015613857573d6000803e3d6000fd5b50505050600660009054906101000a900473ffffffffffffffffffffffffffffffffffffffff1673ffffffffffffffffffffffffffffffffffffffff1663cd2d07ca33888489886040518663ffffffff1660e01b81526004016138be9594939291906158ac565b600060405180830381600087803b1580156138d857600080fd5b505af11580156138ec573d6000803e3d6000fd5b50505050600660009054906101000a900473ffffffffffffffffffffffffffffffffffffffff1673ffffffffffffffffffffffffffffffffffffffff16639dc29fac336139428588612f0a90919063ffffffff16565b6040518363ffffffff1660e01b815260040161395f9291906158ff565b600060405180830381600087803b15801561397957600080fd5b505af115801561398d573d6000803e3d6000fd5b505050506139ad866139a88487612f0a90919063ffffffff16565b613ba2565b505050505050565b600081836139c3919061516b565b905092915050565b600073ffffffffffffffffffffffffffffffffffffffff168273ffffffffffffffffffffffffffffffffffffffff161415613a3b576040517f08c379a0000000000000000000000000000000000000000000000000000000008152600401613a329061599a565b60405180910390fd5b613a4782600083613dff565b60008060008473ffffffffffffffffffffffffffffffffffffffff1673ffffffffffffffffffffffffffffffffffffffff16815260200190815260200160002054905081811015613acd576040517f08c379a0000000000000000000000000000000000000000000000000000000008152600401613ac490615a2c565b60405180910390fd5b8181036000808573ffffffffffffffffffffffffffffffffffffffff1673ffffffffffffffffffffffffffffffffffffffff168152602001908152602001600020819055508160026000828254613b24919061516b565b92505081905550600073ffffffffffffffffffffffffffffffffffffffff168373ffffffffffffffffffffffffffffffffffffffff167fddf252ad1be2c89b69c2b068fc378daa952ba7f163c4a11628f55a4df523b3ef84604051613b899190614457565b60405180910390a3613b9d83600084613e9d565b505050565b80471015613be5576040517f08c379a0000000000000000000000000000000000000000000000000000000008152600401613bdc90615a98565b60405180910390fd5b60008273ffffffffffffffffffffffffffffffffffffffff1682604051613c0b90615ae9565b60006040518083038185875af1925050503d8060008114613c48576040519150601f19603f3d011682016040523d82523d6000602084013e613c4d565b606091505b5050905080613c91576040517f08c379a0000000000000000000000000000000000000000000000000000000008152600401613c8890615b70565b60405180910390fd5b505050565b600073ffffffffffffffffffffffffffffffffffffffff168273ffffffffffffffffffffffffffffffffffffffff161415613d06576040517f08c379a0000000000000000000000000000000000000000000000000000000008152600401613cfd90615761565b60405180910390fd5b8060026000828254613d189190614c03565b92505081905550806000808473ffffffffffffffffffffffffffffffffffffffff1673ffffffffffffffffffffffffffffffffffffffff1681526020019081526020016000206000828254613d6d9190614c03565b925050819055508173ffffffffffffffffffffffffffffffffffffffff16600073ffffffffffffffffffffffffffffffffffffffff167fddf252ad1be2c89b69c2b068fc378daa952ba7f163c4a11628f55a4df523b3ef83604051613dd29190614457565b60405180910390a35050565b60606000613dee83600001613f0d565b905060608190508092505050919050565b613e0a838383613f69565b600073ffffffffffffffffffffffffffffffffffffffff168273ffffffffffffffffffffffffffffffffffffffff1614613e9857613e52826008613f6e90919063ffffffff16565b5042600a60008473ffffffffffffffffffffffffffffffffffffffff1673ffffffffffffffffffffffffffffffffffffffff168152602001908152602001600020819055505b505050565b613ea8838383613f9e565b600073ffffffffffffffffffffffffffffffffffffffff168373ffffffffffffffffffffffffffffffffffffffff1614158015613eed57506000613eeb84611bae565b145b15613f0857613f06836008613fa390919063ffffffff16565b505b505050565b606081600001805480602002602001604051908101604052809291908181526020018280548015613f5d57602002820191906000526020600020905b815481526020019060010190808311613f49575b50505050509050919050565b505050565b6000613f96836000018373ffffffffffffffffffffffffffffffffffffffff1660001b613fd3565b905092915050565b505050565b6000613fcb836000018373ffffffffffffffffffffffffffffffffffffffff1660001b614043565b905092915050565b6000613fdf8383614157565b61403857826000018290806001815401808255809150506001900390600052602060002001600090919091909150558260000180549050836001016000848152602001908152602001600020819055506001905061403d565b600090505b92915050565b6000808360010160008481526020019081526020016000205490506000811461414b576000600182614075919061516b565b905060006001866000018054905061408d919061516b565b90508181146140fc5760008660000182815481106140ae576140ad61529d565b5b90600052602060002001549050808760000184815481106140d2576140d161529d565b5b90600052602060002001819055508387600101600083815260200190815260200160002081905550505b856000018054806141105761410f615b90565b5b600190038181906000526020600020016000905590558560010160008681526020019081526020016000206000905560019350505050614151565b60009150505b92915050565b600080836001016000848152602001908152602001600020541415905092915050565b82805461418690614a88565b90600052602060002090601f0160209004810192826141a857600085556141ef565b82601f106141c157805160ff19168380011785556141ef565b828001600101855582156141ef579182015b828111156141ee5782518255916020019190600101906141d3565b5b5090506141fc9190614252565b5090565b8280548282559060005260206000209081019282156142415760005260206000209182015b82811115614240578254825591600101919060010190614225565b5b50905061424e9190614252565b5090565b5b8082111561426b576000816000905550600101614253565b5090565b600081519050919050565b600082825260208201905092915050565b60005b838110156142a957808201518184015260208101905061428e565b838111156142b8576000848401525b50505050565b6000601f19601f8301169050919050565b60006142da8261426f565b6142e4818561427a565b93506142f481856020860161428b565b6142fd816142be565b840191505092915050565b6000602082019050818103600083015261432281846142cf565b905092915050565b6000604051905090565b600080fd5b600080fd5b600073ffffffffffffffffffffffffffffffffffffffff82169050919050565b60006143698261433e565b9050919050565b6143798161435e565b811461438457600080fd5b50565b60008135905061439681614370565b92915050565b6000819050919050565b6143af8161439c565b81146143ba57600080fd5b50565b6000813590506143cc816143a6565b92915050565b600080604083850312156143e9576143e8614334565b5b60006143f785828601614387565b9250506020614408858286016143bd565b9150509250929050565b60008115159050919050565b61442781614412565b82525050565b6000602082019050614442600083018461441e565b92915050565b6144518161439c565b82525050565b600060208201905061446c6000830184614448565b92915050565b60006020828403121561448857614487614334565b5b600061449684828501614387565b91505092915050565b60006060820190506144b46000830186614448565b6144c16020830185614448565b6144ce604083018461441e565b949350505050565b600081519050919050565b600082825260208201905092915050565b6000819050602082019050919050565b61450b8161435e565b82525050565b600061451d8383614502565b60208301905092915050565b6000602082019050919050565b6000614541826144d6565b61454b81856144e1565b9350614556836144f2565b8060005b8381101561458757815161456e8882614511565b975061457983614529565b92505060018101905061455a565b5085935050505092915050565b600060208201905081810360008301526145ae8184614536565b905092915050565b6000602082840312156145cc576145cb614334565b5b60006145da848285016143bd565b91505092915050565b6000806000606084860312156145fc576145fb614334565b5b600061460a86828701614387565b935050602061461b86828701614387565b925050604061462c868287016143bd565b9150509250925092565b600060ff82169050919050565b61464c81614636565b82525050565b60006020820190506146676000830184614643565b92915050565b600080fd5b600080fd5b7f4e487b7100000000000000000000000000000000000000000000000000000000600052604160045260246000fd5b6146af826142be565b810181811067ffffffffffffffff821117156146ce576146cd614677565b5b80604052505050565b60006146e161432a565b90506146ed82826146a6565b919050565b600067ffffffffffffffff82111561470d5761470c614677565b5b614716826142be565b9050602081019050919050565b82818337600083830152505050565b6000614745614740846146f2565b6146d7565b90508281526020810184848401111561476157614760614672565b5b61476c848285614723565b509392505050565b600082601f8301126147895761478861466d565b5b8135614799848260208601614732565b91505092915050565b600080600080600060a086880312156147be576147bd614334565b5b60006147cc88828901614387565b95505060206147dd88828901614387565b945050604086013567ffffffffffffffff8111156147fe576147fd614339565b5b61480a88828901614774565b935050606086013567ffffffffffffffff81111561482b5761482a614339565b5b61483788828901614774565b925050608061484888828901614387565b9150509295509295909350565b6000819050919050565b600061487a6148756148708461433e565b614855565b61433e565b9050919050565b600061488c8261485f565b9050919050565b600061489e82614881565b9050919050565b6148ae81614893565b82525050565b60006020820190506148c960008301846148a5565b92915050565b6000806000606084860312156148e8576148e7614334565b5b60006148f686828701614387565b9350506020614907868287016143bd565b9250506040614918868287016143bd565b9150509250925092565b600061492d8261433e565b9050919050565b61493d81614922565b811461494857600080fd5b50565b60008135905061495a81614934565b92915050565b60008060006060848603121561497957614978614334565b5b60006149878682870161494b565b9350506020614998868287016143bd565b92505060406149a9868287016143bd565b9150509250925092565b60006149be82614881565b9050919050565b6149ce816149b3565b82525050565b60006020820190506149e960008301846149c5565b92915050565b6149f88161435e565b82525050565b6000602082019050614a1360008301846149ef565b92915050565b60008060408385031215614a3057614a2f614334565b5b6000614a3e85828601614387565b9250506020614a4f85828601614387565b9150509250929050565b7f4e487b7100000000000000000000000000000000000000000000000000000000600052602260045260246000fd5b60006002820490506001821680614aa057607f821691505b60208210811415614ab457614ab3614a59565b5b50919050565b600081519050614ac9816143a6565b92915050565b600060208284031215614ae557614ae4614334565b5b6000614af384828501614aba565b91505092915050565b7f4e6f74206d616e6167656d656e74210000000000000000000000000000000000600082015250565b6000614b32600f8361427a565b9150614b3d82614afc565b602082019050919050565b60006020820190508181036000830152614b6181614b25565b9050919050565b7f49676f7665726e20736574656421000000000000000000000000000000000000600082015250565b6000614b9e600e8361427a565b9150614ba982614b68565b602082019050919050565b60006020820190508181036000830152614bcd81614b91565b9050919050565b7f4e487b7100000000000000000000000000000000000000000000000000000000600052601160045260246000fd5b6000614c0e8261439c565b9150614c198361439c565b9250827fffffffffffffffffffffffffffffffffffffffffffffffffffffffffffffffff03821115614c4e57614c4d614bd4565b5b828201905092915050565b7f4c657373207468616e20706572496e76657374446f776e4c696d697421000000600082015250565b6000614c8f601d8361427a565b9150614c9a82614c59565b602082019050919050565b60006020820190508181036000830152614cbe81614c82565b9050919050565b7f4d6f7265207468616e2067657446756e647355704c696d697421000000000000600082015250565b6000614cfb601a8361427a565b9150614d0682614cc5565b602082019050919050565b60006020820190508181036000830152614d2a81614cee565b9050919050565b7f506f6f6c3a204c4f434b45442100000000000000000000000000000000000000600082015250565b6000614d67600d8361427a565b9150614d7282614d31565b602082019050919050565b60006020820190508181036000830152614d9681614d5a565b9050919050565b7f6661756365744d6f64656c41646472206973206e6f7420736574210000000000600082015250565b6000614dd3601b8361427a565b9150614dde82614d9d565b602082019050919050565b60006020820190508181036000830152614e0281614dc6565b9050919050565b600081519050614e1881614370565b92915050565b600060208284031215614e3457614e33614334565b5b6000614e4284828501614e09565b91505092915050565b7f72657761726441646472206973206e6f74207365742100000000000000000000600082015250565b6000614e8160168361427a565b9150614e8c82614e4b565b602082019050919050565b60006020820190508181036000830152614eb081614e74565b9050919050565b600060c082019050614ecc60008301896149ef565b614ed960208301886149ef565b614ee660408301876149ef565b614ef360608301866149ef565b614f00608083018561441e565b614f0d60a08301846149ef565b979650505050505050565b6000606082019050614f2d600083018661441e565b614f3a6020830185614448565b614f476040830184614448565b949350505050565b7f416d6f756e74206973207a65726f210000000000000000000000000000000000600082015250565b6000614f85600f8361427a565b9150614f9082614f4f565b602082019050919050565b60006020820190508181036000830152614fb481614f78565b9050919050565b7f42616c616e6365206973206e6f7420656e6f7567682100000000000000000000600082015250565b6000614ff160168361427a565b9150614ffc82614fbb565b602082019050919050565b6000602082019050818103600083015261502081614fe4565b9050919050565b7f52656465656d54696d654c696d6974206973206e6f7420796574000000000000600082015250565b600061505d601a8361427a565b915061506882615027565b602082019050919050565b6000602082019050818103600083015261508c81615050565b9050919050565b7f72656465656d696e672100000000000000000000000000000000000000000000600082015250565b60006150c9600a8361427a565b91506150d482615093565b602082019050919050565b600060208201905081810360008301526150f8816150bc565b9050919050565b7f72656465656d206e6f7420657869737473000000000000000000000000000000600082015250565b600061513560118361427a565b9150615140826150ff565b602082019050919050565b6000602082019050818103600083015261516481615128565b9050919050565b60006151768261439c565b91506151818361439c565b92508282101561519457615193614bd4565b5b828203905092915050565b7f6d73672e73656e64657220697320696c6c6567616c2100000000000000000000600082015250565b60006151d560168361427a565b91506151e08261519f565b602082019050919050565b60006020820190508181036000830152615204816151c8565b9050919050565b7f45524332303a2064656372656173656420616c6c6f77616e63652062656c6f7760008201527f207a65726f000000000000000000000000000000000000000000000000000000602082015250565b600061526760258361427a565b91506152728261520b565b604082019050919050565b600060208201905081810360008301526152968161525a565b9050919050565b7f4e487b7100000000000000000000000000000000000000000000000000000000600052603260045260246000fd5b60006152d78261439c565b91507fffffffffffffffffffffffffffffffffffffffffffffffffffffffffffffffff82141561530a57615309614bd4565b5b600182019050919050565b7f45524332303a20617070726f76652066726f6d20746865207a65726f2061646460008201527f7265737300000000000000000000000000000000000000000000000000000000602082015250565b600061537160248361427a565b915061537c82615315565b604082019050919050565b600060208201905081810360008301526153a081615364565b9050919050565b7f45524332303a20617070726f766520746f20746865207a65726f20616464726560008201527f7373000000000000000000000000000000000000000000000000000000000000602082015250565b600061540360228361427a565b915061540e826153a7565b604082019050919050565b60006020820190508181036000830152615432816153f6565b9050919050565b60006154448261439c565b915061544f8361439c565b9250817fffffffffffffffffffffffffffffffffffffffffffffffffffffffffffffffff048311821515161561548857615487614bd4565b5b828202905092915050565b7f4e487b7100000000000000000000000000000000000000000000000000000000600052601260045260246000fd5b60006154cd8261439c565b91506154d88361439c565b9250826154e8576154e7615493565b5b828204905092915050565b7f45524332303a20696e73756666696369656e7420616c6c6f77616e6365000000600082015250565b6000615529601d8361427a565b9150615534826154f3565b602082019050919050565b600060208201905081810360008301526155588161551c565b9050919050565b7f45524332303a207472616e736665722066726f6d20746865207a65726f20616460008201527f6472657373000000000000000000000000000000000000000000000000000000602082015250565b60006155bb60258361427a565b91506155c68261555f565b604082019050919050565b600060208201905081810360008301526155ea816155ae565b9050919050565b7f45524332303a207472616e7366657220746f20746865207a65726f206164647260008201527f6573730000000000000000000000000000000000000000000000000000000000602082015250565b600061564d60238361427a565b9150615658826155f1565b604082019050919050565b6000602082019050818103600083015261567c81615640565b9050919050565b7f45524332303a207472616e7366657220616d6f756e742065786365656473206260008201527f616c616e63650000000000000000000000000000000000000000000000000000602082015250565b60006156df60268361427a565b91506156ea82615683565b604082019050919050565b6000602082019050818103600083015261570e816156d2565b9050919050565b7f45524332303a206d696e7420746f20746865207a65726f206164647265737300600082015250565b600061574b601f8361427a565b915061575682615715565b602082019050919050565b6000602082019050818103600083015261577a8161573e565b9050919050565b7f726574546f6b656e41646472206973206e6f7420736574210000000000000000600082015250565b60006157b760188361427a565b91506157c282615781565b602082019050919050565b600060208201905081810360008301526157e6816157aa565b9050919050565b7f726574546f6b656e206973206e6f7420656e6f75676821000000000000000000600082015250565b600061582360178361427a565b915061582e826157ed565b602082019050919050565b6000602082019050818103600083015261585281615816565b9050919050565b600060a08201905061586e60008301886149ef565b61587b6020830187614448565b6158886040830186614448565b6158956060830185614448565b6158a26080830184614448565b9695505050505050565b600060a0820190506158c160008301886149ef565b6158ce60208301876149ef565b6158db6040830186614448565b6158e86060830185614448565b6158f56080830184614448565b9695505050505050565b600060408201905061591460008301856149ef565b6159216020830184614448565b9392505050565b7f45524332303a206275726e2066726f6d20746865207a65726f2061646472657360008201527f7300000000000000000000000000000000000000000000000000000000000000602082015250565b600061598460218361427a565b915061598f82615928565b604082019050919050565b600060208201905081810360008301526159b381615977565b9050919050565b7f45524332303a206275726e20616d6f756e7420657863656564732062616c616e60008201527f6365000000000000000000000000000000000000000000000000000000000000602082015250565b6000615a1660228361427a565b9150615a21826159ba565b604082019050919050565b60006020820190508181036000830152615a4581615a09565b9050919050565b7f416464726573733a20696e73756666696369656e742062616c616e6365000000600082015250565b6000615a82601d8361427a565b9150615a8d82615a4c565b602082019050919050565b60006020820190508181036000830152615ab181615a75565b9050919050565b600081905092915050565b50565b6000615ad3600083615ab8565b9150615ade82615ac3565b600082019050919050565b6000615af482615ac6565b9150819050919050565b7f416464726573733a20756e61626c6520746f2073656e642076616c75652c207260008201527f6563697069656e74206d61792068617665207265766572746564000000000000602082015250565b6000615b5a603a8361427a565b9150615b6582615afe565b604082019050919050565b60006020820190508181036000830152615b8981615b4d565b9050919050565b7f4e487b7100000000000000000000000000000000000000000000000000000000600052603160045260246000fdfea26469706673582212201f5dd421849e8818ae1ffe3faceb803ec8b0711525a7652cd97a5d318ffbcfd364736f6c634300080c0033",
  "immutableReferences": {},
  "source": "// SPDX-License-Identifier: GPL-3.0-only\npragma solidity ^0.8.0;\nimport \"./ERC20.sol\";\nimport \"@openzeppelin/contracts/utils/math/SafeMath.sol\";\nimport \"@openzeppelin/contracts/utils/Address.sol\";\nimport \"@openzeppelin/contracts/utils/structs/EnumerableSet.sol\";\n\ninterface IFaucet {\n    function initialize(\n        address _governAddr,\n        address _collatorAddr,\n        address _techAddr,\n        address _faucetOwner,\n        bool _faucetType,\n        address _owner\n    ) external;\n\n    function setLeaseInfo(\n        address _redeemAddr,\n        uint256 _leaseDate,\n        uint256 _period,\n        uint256 _amount,\n        uint256 _marginAmount\n    ) external;\n\n    function getPendingRedeemAmount() external view returns (uint256);\n}\n\ninterface IGovernance {\n    function getPerInvestDownLimit() external view returns (uint256);\n\n    function getFundsUpLimit() external view returns (uint256);\n\n    function getRedeemTimeLimit() external view returns (uint256);\n\n    function retTokenAddr() external view returns (address);\n\n    function rewardAddr() external view returns (address);\n\n    function getMarginProportion() external view returns (uint256);\n\n    function authorAmount() external view returns (uint256);\n\n    function blockHeight() external view returns (uint256);\n}\n\ninterface IAirdrop {\n    function burn(address _account, uint256 _amount) external;\n\n    function balanceOf(address _account) external view returns (uint256);\n\n    function lockLeaseMargin(\n        address _from,\n        address _leaseAddr,\n        uint256 _leaseDate,\n        uint256 _period,\n        uint256 _amount\n    ) external;\n}\n\ncontract Pool is ERC20 {\n    using SafeMath for uint256;\n    using EnumerableSet for EnumerableSet.AddressSet;\n\n    IGovernance public Igovern;\n    IAirdrop public Iairdrop;\n\n    //faucet\n    address public faucetModelAddr;\n\n    //\n    EnumerableSet.AddressSet private memberAddrs;\n\n    //\n    mapping(address => uint256) public memberTimes;\n\n    //\n    mapping(address => address[]) private collatorAddrs;\n    address[] private allCollators;\n    //\n    mapping(address => address[]) private delegatorAddrs;\n    address[] private allDelegators;\n    //\n    struct RedeemInfo {\n        uint256 redeemNumber; //\n        uint256 redeemAmount; //\n        bool bflag; //\n    }\n    mapping(address => RedeemInfo) public redeemInfos;\n    // address[] public redeemAddrs;\n    //\n    uint256 public pendingRedeem;\n    //lock\n    bool private unlocked = true;\n    //sudo\n    address public owner;\n\n    event CreateFaucet(\n        bool faucetType,\n        address indexed createAddr,\n        address indexed setAddr,\n        address indexed faucetAddr,\n        uint256 period,\n        uint256 amount\n    );\n\n    event AddFaucet(\n        bool faucetType,\n        address indexed addAddr,\n        address indexed faucetAddr,\n        uint256 period,\n        uint256 amount\n    );\n\n    constructor() ERC20(\"THIS IS A STAKING TOKEN\", \"stkMOVR\") {}\n\n    //\n    function initialize(\n        address _governAddr,\n        address _owner,\n        string memory name_,\n        string memory symbol_,\n        address _faucetModelAddr\n    ) external {\n        require(address(Igovern) == address(0), \"Igovern seted!\");\n        Igovern = IGovernance(_governAddr);\n        owner = _owner;\n        _name = name_;\n        _symbol = symbol_;\n        faucetModelAddr = _faucetModelAddr;\n        //constant\n        unlocked = true;\n    }\n\n    fallback() external payable {}\n\n    receive() external payable {}\n\n    modifier lock() {\n        require(unlocked, \"Pool: LOCKED!\");\n        unlocked = false;\n        _;\n        unlocked = true;\n    }\n\n    //\n    function createClone(address target) internal returns (address result) {\n        bytes20 targetBytes = bytes20(target);\n        assembly {\n            let clone := mload(0x40)\n            mstore(\n                clone,\n                0x3d602d80600a3d3981f3363d3d373d3d3d363d73000000000000000000000000\n            )\n            mstore(add(clone, 0x14), targetBytes)\n            mstore(\n                add(clone, 0x28),\n                0x5af43d82803e903d91602b57fd5bf30000000000000000000000000000000000\n            )\n            result := create(0, clone, 0x37)\n        }\n    }\n\n    modifier isOwner() {\n        require(msg.sender == owner, \"Not management!\");\n        _;\n    }\n\n    function setGovernAddr(address _governAddr) public isOwner {\n        Igovern = IGovernance(_governAddr);\n    }\n\n    function setFaucetModelAddr(address _faucetModelAddr) public isOwner {\n        faucetModelAddr = _faucetModelAddr;\n    }\n\n    //_beforeTokenTransfer,memberAddrsmemberTimes\n    function _beforeTokenTransfer(\n        address from,\n        address to,\n        uint256 amount\n    ) internal virtual override {\n        super._beforeTokenTransfer(from, to, amount);\n        if (to != address(0)) {\n            memberAddrs.add(to);\n            memberTimes[to] = block.timestamp;\n        }\n    }\n\n    //_afterTokenTransfer,memberAddrs\n    function _afterTokenTransfer(\n        address from,\n        address to,\n        uint256 amount\n    ) internal virtual override {\n        super._afterTokenTransfer(from, to, amount);\n        if (from != address(0) && balanceOf(from) == 0) {\n            memberAddrs.remove(from);\n        }\n    }\n\n    //,_stkAmountWei\n    function getMarginCount(uint256 _stkAmount) private view returns (uint256) {\n        require(\n            address(this).balance.sub(pendingRedeem) >= _stkAmount,\n            \"Balance is not enough!\"\n        );\n        return _stkAmount.mul(Igovern.getMarginProportion()).div(10);\n    }\n\n    //faucet,_stkAmount_marginAmount_authorAmountWei\n    function setFaucetInfo(\n        IFaucet _faucet,\n        uint256 _period,\n        uint256 _stkAmount,\n        uint256 _marginAmount,\n        uint256 _authorAmount\n    ) private {\n        require(\n            Igovern.retTokenAddr() != address(0),\n            \"retTokenAddr is not set!\"\n        );\n        Iairdrop = IAirdrop(Igovern.retTokenAddr());\n        require(\n            Iairdrop.balanceOf(msg.sender) >= _stkAmount.add(_marginAmount),\n            \"retToken is not enough!\"\n        );\n        uint256 leaseDate = block.timestamp.div(24 * 60 * 60);\n        //delegator\n        _faucet.setLeaseInfo(\n            msg.sender,\n            leaseDate,\n            _period,\n            _stkAmount,\n            _marginAmount\n        );\n        //marginAmountairdrop\n        Iairdrop.lockLeaseMargin(\n            msg.sender,\n            address(_faucet),\n            leaseDate,\n            _period,\n            _marginAmount\n        );\n        Iairdrop.burn(msg.sender, _stkAmount.add(_authorAmount));\n        Address.sendValue(\n            payable(address(_faucet)),\n            _stkAmount.add(_authorAmount)\n        );\n    }\n\n    //DAO\n    function addStake() public payable {\n        require(\n            msg.value >= Igovern.getPerInvestDownLimit(),\n            \"Less than perInvestDownLimit!\"\n        );\n        require(\n            totalSupply() <= Igovern.getFundsUpLimit(),\n            \"More than getFundsUpLimit!\"\n        );\n        _mint(msg.sender, msg.value);\n    }\n\n    //_beforeTokenTransfer\n    function mintReward(address _account, uint256 _amount) public {\n        require(msg.sender == Igovern.rewardAddr(), \"msg.sender is illegal!\"); //\n        _mint2(_account, _amount);\n    }\n\n    //,_amountWei\n    function scheduleRedeemStake(uint256 _amount) public {\n        require(_amount > 0, \"Amount is zero!\");\n        require(\n            balanceOf(msg.sender) >= _amount &&\n                address(this).balance.sub(pendingRedeem) >= _amount,\n            \"Balance is not enough!\"\n        );\n        uint256 day = (block.timestamp).sub(memberTimes[msg.sender]).div(\n            60 * 60 * 24\n        );\n        require(\n            day >= Igovern.getRedeemTimeLimit(),\n            \"RedeemTimeLimit is not yet\"\n        );\n        RedeemInfo memory redeemInfo = redeemInfos[msg.sender];\n        require(!redeemInfo.bflag, \"redeeming!\");\n        redeemInfo.redeemNumber = block.number;\n        redeemInfo.redeemAmount = _amount;\n        redeemInfo.bflag = true;\n        redeemInfos[msg.sender] = redeemInfo;\n        pendingRedeem += _amount;\n        // redeemAddrs.push(msg.sender);\n        _burn(msg.sender, _amount);\n    }\n\n    //\n    function executeRedeemStake() public {\n        // for(uint i = redeemAddrs.length;i > 0; i--){\n        //     address redeemAddr = redeemAddrs[i - 1];\n        //     RedeemInfo memory redeemInfo = redeemInfos[redeemAddr];\n        //     if(redeemInfo.bflag\n        //         && redeemInfo.redeemNumber.add(Igovern.blockHeight()) <= block.number){\n        //         uint256 amount = redeemInfo.redeemAmount;\n        //         pendingRedeem -= amount;\n        //         redeemInfo.bflag = false;\n        //         redeemInfo.redeemNumber = 0;\n        //         redeemInfo.redeemAmount = 0;\n        //         redeemInfos[redeemAddr] = redeemInfo;\n        //         if(i - 1 != redeemAddrs.length - 1){\n        //             address addr = redeemAddrs[redeemAddrs.length - 1];\n        //             redeemAddrs[i - 1] = addr;\n        //         }\n        //         redeemAddrs.pop();\n        //         Address.sendValue(payable(redeemAddr), amount);\n        //     }\n        // }\n        RedeemInfo memory redeemInfo = redeemInfos[msg.sender];\n        require(\n            redeemInfo.bflag &&\n                redeemInfo.redeemNumber.add(Igovern.blockHeight()) <=\n                block.number,\n            \"redeem not exists\"\n        );\n        redeemInfo.bflag = false;\n        pendingRedeem -= redeemInfo.redeemAmount;\n        redeemInfo.redeemNumber = 0;\n        redeemInfo.redeemAmount = 0;\n        redeemInfos[msg.sender] = redeemInfo;\n        Address.sendValue(payable(msg.sender), redeemInfo.redeemAmount);\n    }\n\n    //,_stkAmountWei\n    function createCollator(\n        address _techAddr,\n        uint256 _period,\n        uint256 _stkAmount\n    ) public lock {\n        require(faucetModelAddr != address(0), \"faucetModelAddr is not set!\");\n        require(Igovern.rewardAddr() != address(0), \"rewardAddr is not set!\");\n        uint256 marginAmount = getMarginCount(\n            _stkAmount.add(Igovern.authorAmount())\n        );\n        //\n        IFaucet collator = IFaucet(createClone(faucetModelAddr));\n        collator.initialize(\n            address(Igovern),\n            address(0),\n            _techAddr,\n            msg.sender,\n            true,\n            owner\n        );\n        address[] storage addrs = collatorAddrs[msg.sender];\n        addrs.push(address(collator));\n        collatorAddrs[msg.sender] = addrs;\n        setFaucetInfo(\n            collator,\n            _period,\n            _stkAmount,\n            marginAmount,\n            Igovern.authorAmount()\n        );\n        allCollators.push(address(collator));\n        emit CreateFaucet(\n            true,\n            msg.sender,\n            _techAddr,\n            address(collator),\n            _period,\n            _stkAmount\n        );\n    }\n\n    //,_stkAmountWei\n    function addCollator(\n        address payable _collatorAddr,\n        uint256 _period,\n        uint256 _stkAmount\n    ) public lock {\n        uint256 marginAmount = getMarginCount(_stkAmount);\n        IFaucet collator = IFaucet(_collatorAddr);\n        setFaucetInfo(collator, _period, _stkAmount, marginAmount, 0);\n        emit AddFaucet(true, msg.sender, _collatorAddr, _period, _stkAmount);\n    }\n\n    //,_stkAmountWei\n    function createDelegator(\n        address _collatorAddr,\n        uint256 _period,\n        uint256 _stkAmount\n    ) public lock {\n        require(faucetModelAddr != address(0), \"faucetModelAddr is not set!\");\n        require(Igovern.rewardAddr() != address(0), \"rewardAddr is not set!\");\n        //retToken,\n        uint256 marginAmount = getMarginCount(_stkAmount);\n        //\n        IFaucet delegator = IFaucet(createClone(faucetModelAddr));\n        delegator.initialize(\n            address(Igovern),\n            _collatorAddr,\n            address(0),\n            address(0),\n            false,\n            owner\n        );\n        address[] storage addrs = delegatorAddrs[msg.sender];\n        addrs.push(address(delegator));\n        delegatorAddrs[msg.sender] = addrs;\n\n        setFaucetInfo(delegator, _period, _stkAmount, marginAmount, 0);\n        allDelegators.push(address(delegator));\n        emit CreateFaucet(\n            false,\n            msg.sender,\n            _collatorAddr,\n            address(delegator),\n            _period,\n            _stkAmount\n        );\n    }\n\n    //,_stkAmountWei\n    function addDelegator(\n        address payable _delegatorAddr,\n        uint256 _period,\n        uint256 _stkAmount\n    ) public lock {\n        uint256 marginAmount = getMarginCount(_stkAmount);\n        IFaucet delegator = IFaucet(_delegatorAddr);\n        setFaucetInfo(delegator, _period, _stkAmount, marginAmount, 0);\n        emit AddFaucet(false, msg.sender, _delegatorAddr, _period, _stkAmount);\n    }\n\n    //\n    function getDelegatorAddrs(address _account)\n        public\n        view\n        returns (address[] memory)\n    {\n        return delegatorAddrs[_account];\n    }\n\n    //\n    function getCollatorAddrs(address _account)\n        public\n        view\n        returns (address[] memory)\n    {\n        return collatorAddrs[_account];\n    }\n\n    //\n    function getAllCollators() public view returns (address[] memory) {\n        return allCollators;\n    }\n\n    //\n    function getAllDelegators() public view returns (address[] memory) {\n        return allDelegators;\n    }\n\n    //token\n    function balance() public view returns (uint256) {\n        return address(this).balance;\n    }\n\n    //faucettokenrettoken\n    function getRetToken(uint256 amount) public view returns (uint256) {\n        return amount.add(amount.mul(Igovern.getMarginProportion()).div(10));\n    }\n\n    function getDays() public view returns (uint256) {\n        return block.timestamp.div(24 * 60 * 60);\n    }\n\n    //\n    function getAllPendingRedeem() public view returns (uint256) {\n        uint256 pendingRedeemAmount = 0;\n        for (uint256 i = 0; i < allCollators.length; i++) {\n            IFaucet collator = IFaucet(allCollators[i]);\n            pendingRedeemAmount += collator.getPendingRedeemAmount();\n        }\n        for (uint256 i = 0; i < allDelegators.length; i++) {\n            IFaucet delegator = IFaucet(allDelegators[i]);\n            pendingRedeemAmount += delegator.getPendingRedeemAmount();\n        }\n        return pendingRedeemAmount;\n    }\n\n    function getBlockNumber() public view returns (uint256) {\n        return block.number;\n    }\n\n    function getMemberAddrs() public view returns (address[] memory) {\n        return memberAddrs.values();\n    }\n}\n",
  "sourcePath": "D:\\\\vueDao\\StakeFinance\\truffle-dev\\contracts\\Pool.sol",
  "compiler": {
    "name": "solc",
    "version": "0.8.12+commit.f00d7308.Emscripten.clang"
  },
  "schemaVersion": "3.4.5",
  "updatedAt": "2022-06-20T02:52:10.515Z",
  "devdoc": {
    "kind": "dev",
    "methods": {
      "allowance(address,address)": {
        "details": "See {IERC20-allowance}."
      },
      "approve(address,uint256)": {
        "details": "See {IERC20-approve}. NOTE: If `amount` is the maximum `uint256`, the allowance is not updated on `transferFrom`. This is semantically equivalent to an infinite approval. Requirements: - `spender` cannot be the zero address."
      },
      "balanceOf(address)": {
        "details": "See {IERC20-balanceOf}."
      },
      "decimals()": {
        "details": "Returns the number of decimals used to get its user representation. For example, if `decimals` equals `2`, a balance of `505` tokens should be displayed to a user as `5.05` (`505 / 10 ** 2`). Tokens usually opt for a value of 18, imitating the relationship between Ether and Wei. This is the value {ERC20} uses, unless this function is overridden; NOTE: This information is only used for _display_ purposes: it in no way affects any of the arithmetic of the contract, including {IERC20-balanceOf} and {IERC20-transfer}."
      },
      "decreaseAllowance(address,uint256)": {
        "details": "Atomically decreases the allowance granted to `spender` by the caller. This is an alternative to {approve} that can be used as a mitigation for problems described in {IERC20-approve}. Emits an {Approval} event indicating the updated allowance. Requirements: - `spender` cannot be the zero address. - `spender` must have allowance for the caller of at least `subtractedValue`."
      },
      "increaseAllowance(address,uint256)": {
        "details": "Atomically increases the allowance granted to `spender` by the caller. This is an alternative to {approve} that can be used as a mitigation for problems described in {IERC20-approve}. Emits an {Approval} event indicating the updated allowance. Requirements: - `spender` cannot be the zero address."
      },
      "name()": {
        "details": "Returns the name of the token."
      },
      "symbol()": {
        "details": "Returns the symbol of the token, usually a shorter version of the name."
      },
      "totalSupply()": {
        "details": "See {IERC20-totalSupply}."
      },
      "transfer(address,uint256)": {
        "details": "See {IERC20-transfer}. Requirements: - `to` cannot be the zero address. - the caller must have a balance of at least `amount`."
      },
      "transferFrom(address,address,uint256)": {
        "details": "See {IERC20-transferFrom}. Emits an {Approval} event indicating the updated allowance. This is not required by the EIP. See the note at the beginning of {ERC20}. NOTE: Does not update the allowance if the current allowance is the maximum `uint256`. Requirements: - `from` and `to` cannot be the zero address. - `from` must have a balance of at least `amount`. - the caller must have allowance for ``from``'s tokens of at least `amount`."
      }
    },
    "version": 1
  },
  "userdoc": {
    "kind": "user",
    "methods": {},
    "version": 1
  }
}