{
  "contractName": "Reward",
  "abi": [
    {
      "inputs": [],
      "stateMutability": "nonpayable",
      "type": "constructor"
    },
    {
      "anonymous": false,
      "inputs": [
        {
          "indexed": true,
          "internalType": "address",
          "name": "recipient",
          "type": "address"
        },
        {
          "indexed": false,
          "internalType": "uint256",
          "name": "amount",
          "type": "uint256"
        }
      ],
      "name": "SendValue",
      "type": "event"
    },
    {
      "stateMutability": "payable",
      "type": "fallback"
    },
    {
      "inputs": [],
      "name": "Igovern",
      "outputs": [
        {
          "internalType": "contract IGovernance",
          "name": "",
          "type": "address"
        }
      ],
      "stateMutability": "view",
      "type": "function"
    },
    {
      "inputs": [],
      "name": "Ipool",
      "outputs": [
        {
          "internalType": "contract IPool",
          "name": "",
          "type": "address"
        }
      ],
      "stateMutability": "view",
      "type": "function"
    },
    {
      "inputs": [
        {
          "internalType": "address",
          "name": "",
          "type": "address"
        }
      ],
      "name": "daoRewards",
      "outputs": [
        {
          "internalType": "uint256",
          "name": "",
          "type": "uint256"
        }
      ],
      "stateMutability": "view",
      "type": "function"
    },
    {
      "inputs": [
        {
          "internalType": "uint256",
          "name": "",
          "type": "uint256"
        }
      ],
      "name": "lastRewardAddrs",
      "outputs": [
        {
          "internalType": "address",
          "name": "",
          "type": "address"
        }
      ],
      "stateMutability": "view",
      "type": "function"
    },
    {
      "inputs": [],
      "name": "owner",
      "outputs": [
        {
          "internalType": "address",
          "name": "",
          "type": "address"
        }
      ],
      "stateMutability": "view",
      "type": "function"
    },
    {
      "stateMutability": "payable",
      "type": "receive"
    },
    {
      "inputs": [
        {
          "internalType": "address",
          "name": "_governAddr",
          "type": "address"
        },
        {
          "internalType": "address",
          "name": "_owner",
          "type": "address"
        }
      ],
      "name": "initialize",
      "outputs": [],
      "stateMutability": "nonpayable",
      "type": "function"
    },
    {
      "inputs": [
        {
          "internalType": "address",
          "name": "_governAddr",
          "type": "address"
        }
      ],
      "name": "setGovernAddr",
      "outputs": [],
      "stateMutability": "nonpayable",
      "type": "function"
    },
    {
      "inputs": [],
      "name": "assignReward",
      "outputs": [],
      "stateMutability": "nonpayable",
      "type": "function"
    },
    {
      "inputs": [],
      "name": "balance",
      "outputs": [
        {
          "internalType": "uint256",
          "name": "",
          "type": "uint256"
        }
      ],
      "stateMutability": "view",
      "type": "function"
    }
  ],
  "bytecode": "0x608060405260018060146101000a81548160ff02191690831515021790555034801561002a57600080fd5b50611e978061003a6000396000f3fe60806040526004361061008a5760003560e01c80638da5cb5b116100595780638da5cb5b14610143578063b69ef8a81461016e578063c74759ba14610199578063dd9abbcd146101d6578063f2a19592146101ff57610099565b8063485cc9551461009b57806388166180146100c45780638a681c03146100db5780638baf96a51461011857610099565b366100995761009761022a565b005b005b3480156100a757600080fd5b506100c260048036038101906100bd9190611346565b610dee565b005b3480156100d057600080fd5b506100d961022a565b005b3480156100e757600080fd5b5061010260048036038101906100fd91906113bc565b610f1c565b60405161010f91906113f8565b60405180910390f35b34801561012457600080fd5b5061012d610f5b565b60405161013a9190611472565b60405180910390f35b34801561014f57600080fd5b50610158610f7f565b60405161016591906113f8565b60405180910390f35b34801561017a57600080fd5b50610183610fa5565b604051610190919061149c565b60405180910390f35b3480156101a557600080fd5b506101c060048036038101906101bb91906114b7565b610fad565b6040516101cd919061149c565b60405180910390f35b3480156101e257600080fd5b506101fd60048036038101906101f891906114b7565b610fc5565b005b34801561020b57600080fd5b50610214611098565b6040516102219190611505565b60405180910390f35b600160149054906101000a900460ff16610279576040517f08c379a00000000000000000000000000000000000000000000000000000000081526004016102709061157d565b60405180910390fd5b6000600160146101000a81548160ff021916908315150217905550600073ffffffffffffffffffffffffffffffffffffffff1660008054906101000a900473ffffffffffffffffffffffffffffffffffffffff1673ffffffffffffffffffffffffffffffffffffffff166308c17a4a6040518163ffffffff1660e01b8152600401602060405180830381865afa158015610317573d6000803e3d6000fd5b505050506040513d601f19601f8201168201806040525081019061033b91906115b2565b73ffffffffffffffffffffffffffffffffffffffff161415610392576040517f08c379a00000000000000000000000000000000000000000000000000000000081526004016103899061162b565b60405180910390fd5b60008060009054906101000a900473ffffffffffffffffffffffffffffffffffffffff1673ffffffffffffffffffffffffffffffffffffffff16639054031d6040518163ffffffff1660e01b8152600401602060405180830381865afa158015610400573d6000803e3d6000fd5b505050506040513d601f19601f820116820180604052508101906104249190611660565b905060008111610469576040517f08c379a0000000000000000000000000000000000000000000000000000000008152600401610460906116d9565b60405180910390fd5b600047116104ac576040517f08c379a00000000000000000000000000000000000000000000000000000000081526004016104a390611745565b60405180910390fd5b60008054906101000a900473ffffffffffffffffffffffffffffffffffffffff1673ffffffffffffffffffffffffffffffffffffffff166308c17a4a6040518163ffffffff1660e01b8152600401602060405180830381865afa158015610517573d6000803e3d6000fd5b505050506040513d601f19601f8201168201806040525081019061053b91906115b2565b600160006101000a81548173ffffffffffffffffffffffffffffffffffffffff021916908373ffffffffffffffffffffffffffffffffffffffff1602179055506000600160009054906101000a900473ffffffffffffffffffffffffffffffffffffffff1673ffffffffffffffffffffffffffffffffffffffff166318160ddd6040518163ffffffff1660e01b8152600401602060405180830381865afa1580156105ea573d6000803e3d6000fd5b505050506040513d601f19601f8201168201806040525081019061060e9190611660565b9050600047905060008060009054906101000a900473ffffffffffffffffffffffffffffffffffffffff1673ffffffffffffffffffffffffffffffffffffffff1663d38d0a926040518163ffffffff1660e01b8152600401602060405180830381865afa158015610683573d6000803e3d6000fd5b505050506040513d601f19601f820116820180604052508101906106a7919061179d565b9050600160009054906101000a900473ffffffffffffffffffffffffffffffffffffffff1673ffffffffffffffffffffffffffffffffffffffff1663cbb750256040518163ffffffff1660e01b8152600401600060405180830381865afa158015610716573d6000803e3d6000fd5b505050506040513d6000823e3d601f19601f8201168201806040525081019061073f9190611923565b6004908051906020019061075492919061122d565b50600060048054905090505b6000811115610a91576000600460018361077a919061199b565b8154811061078b5761078a6119cf565b5b9060005260206000200160009054906101000a900473ffffffffffffffffffffffffffffffffffffffff1690506000600160009054906101000a900473ffffffffffffffffffffffffffffffffffffffff1673ffffffffffffffffffffffffffffffffffffffff1663ea8f56b0836040518263ffffffff1660e01b815260040161081591906113f8565b602060405180830381865afa158015610832573d6000803e3d6000fd5b505050506040513d601f19601f820116820180604052508101906108569190611660565b905060006108826201518061087484426110be90919063ffffffff16565b6110d490919063ffffffff16565b905061088d836110ea565b806108985750600082145b806108a257508781105b15610a7b5760016004805490506108b9919061199b565b6001856108c6919061199b565b1461098a576000600460016004805490506108e1919061199b565b815481106108f2576108f16119cf565b5b9060005260206000200160009054906101000a900473ffffffffffffffffffffffffffffffffffffffff16905080600460018761092f919061199b565b815481106109405761093f6119cf565b5b9060005260206000200160006101000a81548173ffffffffffffffffffffffffffffffffffffffff021916908373ffffffffffffffffffffffffffffffffffffffff160217905550505b600480548061099c5761099b6119fe565b5b6001900381819060005260206000200160006101000a81549073ffffffffffffffffffffffffffffffffffffffff02191690559055600160009054906101000a900473ffffffffffffffffffffffffffffffffffffffff1673ffffffffffffffffffffffffffffffffffffffff166370a08231846040518263ffffffff1660e01b8152600401610a2c91906113f8565b602060405180830381865afa158015610a49573d6000803e3d6000fd5b505050506040513d601f19601f82011682018060405250810190610a6d9190611660565b87610a78919061199b565b96505b5050508080610a8990611a2d565b915050610760565b506000600480549050118015610aa75750600083115b610ae6576040517f08c379a0000000000000000000000000000000000000000000000000000000008152600401610add90611aa3565b60405180910390fd5b60005b600480549050811015610d9a57600060048281548110610b0c57610b0b6119cf565b5b9060005260206000200160009054906101000a900473ffffffffffffffffffffffffffffffffffffffff1690506000610bfb86610bed600160009054906101000a900473ffffffffffffffffffffffffffffffffffffffff1673ffffffffffffffffffffffffffffffffffffffff166370a08231866040518263ffffffff1660e01b8152600401610b9d91906113f8565b602060405180830381865afa158015610bba573d6000803e3d6000fd5b505050506040513d601f19601f82011682018060405250810190610bde9190611660565b8861110d90919063ffffffff16565b6110d490919063ffffffff16565b9050610c4f81600260008573ffffffffffffffffffffffffffffffffffffffff1673ffffffffffffffffffffffffffffffffffffffff1681526020019081526020016000205461112390919063ffffffff16565b600260008473ffffffffffffffffffffffffffffffffffffffff1673ffffffffffffffffffffffffffffffffffffffff168152602001908152602001600020819055508315610d2c57600160009054906101000a900473ffffffffffffffffffffffffffffffffffffffff1673ffffffffffffffffffffffffffffffffffffffff16639a49090e83836040518363ffffffff1660e01b8152600401610cf5929190611ac3565b600060405180830381600087803b158015610d0f57600080fd5b505af1158015610d23573d6000803e3d6000fd5b50505050610d37565b610d368282611139565b5b8173ffffffffffffffffffffffffffffffffffffffff167fd88d14434dd4c47d8cd227a931f475ddfaa46a219994f6c5094bd04d940c3c1b82604051610d7d919061149c565b60405180910390a250508080610d9290611aec565b915050610ae9565b508015610dce57610dcd600160009054906101000a900473ffffffffffffffffffffffffffffffffffffffff1683611139565b5b5050505060018060146101000a81548160ff021916908315150217905550565b600073ffffffffffffffffffffffffffffffffffffffff1660008054906101000a900473ffffffffffffffffffffffffffffffffffffffff1673ffffffffffffffffffffffffffffffffffffffff1614610e7d576040517f08c379a0000000000000000000000000000000000000000000000000000000008152600401610e7490611b81565b60405180910390fd5b816000806101000a81548173ffffffffffffffffffffffffffffffffffffffff021916908373ffffffffffffffffffffffffffffffffffffffff16021790555080600360006101000a81548173ffffffffffffffffffffffffffffffffffffffff021916908373ffffffffffffffffffffffffffffffffffffffff16021790555060018060146101000a81548160ff0219169083151502179055505050565b60048181548110610f2c57600080fd5b906000526020600020016000915054906101000a900473ffffffffffffffffffffffffffffffffffffffff1681565b60008054906101000a900473ffffffffffffffffffffffffffffffffffffffff1681565b600360009054906101000a900473ffffffffffffffffffffffffffffffffffffffff1681565b600047905090565b60026020528060005260406000206000915090505481565b600360009054906101000a900473ffffffffffffffffffffffffffffffffffffffff1673ffffffffffffffffffffffffffffffffffffffff163373ffffffffffffffffffffffffffffffffffffffff1614611055576040517f08c379a000000000000000000000000000000000000000000000000000000000815260040161104c90611bed565b60405180910390fd5b806000806101000a81548173ffffffffffffffffffffffffffffffffffffffff021916908373ffffffffffffffffffffffffffffffffffffffff16021790555050565b600160009054906101000a900473ffffffffffffffffffffffffffffffffffffffff1681565b600081836110cc919061199b565b905092915050565b600081836110e29190611c3c565b905092915050565b6000808273ffffffffffffffffffffffffffffffffffffffff163b119050919050565b6000818361111b9190611c6d565b905092915050565b600081836111319190611cc7565b905092915050565b8047101561117c576040517f08c379a000000000000000000000000000000000000000000000000000000000815260040161117390611d69565b60405180910390fd5b60008273ffffffffffffffffffffffffffffffffffffffff16826040516111a290611dba565b60006040518083038185875af1925050503d80600081146111df576040519150601f19603f3d011682016040523d82523d6000602084013e6111e4565b606091505b5050905080611228576040517f08c379a000000000000000000000000000000000000000000000000000000000815260040161121f90611e41565b60405180910390fd5b505050565b8280548282559060005260206000209081019282156112a6579160200282015b828111156112a55782518260006101000a81548173ffffffffffffffffffffffffffffffffffffffff021916908373ffffffffffffffffffffffffffffffffffffffff1602179055509160200191906001019061124d565b5b5090506112b391906112b7565b5090565b5b808211156112d05760008160009055506001016112b8565b5090565b6000604051905090565b600080fd5b600080fd5b600073ffffffffffffffffffffffffffffffffffffffff82169050919050565b6000611313826112e8565b9050919050565b61132381611308565b811461132e57600080fd5b50565b6000813590506113408161131a565b92915050565b6000806040838503121561135d5761135c6112de565b5b600061136b85828601611331565b925050602061137c85828601611331565b9150509250929050565b6000819050919050565b61139981611386565b81146113a457600080fd5b50565b6000813590506113b681611390565b92915050565b6000602082840312156113d2576113d16112de565b5b60006113e0848285016113a7565b91505092915050565b6113f281611308565b82525050565b600060208201905061140d60008301846113e9565b92915050565b6000819050919050565b600061143861143361142e846112e8565b611413565b6112e8565b9050919050565b600061144a8261141d565b9050919050565b600061145c8261143f565b9050919050565b61146c81611451565b82525050565b60006020820190506114876000830184611463565b92915050565b61149681611386565b82525050565b60006020820190506114b1600083018461148d565b92915050565b6000602082840312156114cd576114cc6112de565b5b60006114db84828501611331565b91505092915050565b60006114ef8261143f565b9050919050565b6114ff816114e4565b82525050565b600060208201905061151a60008301846114f6565b92915050565b600082825260208201905092915050565b7f5265776172643a204c4f434b4544210000000000000000000000000000000000600082015250565b6000611567600f83611520565b915061157282611531565b602082019050919050565b600060208201905081810360008301526115968161155a565b9050919050565b6000815190506115ac8161131a565b92915050565b6000602082840312156115c8576115c76112de565b5b60006115d68482850161159d565b91505092915050565b7f73746b546f6b656e41646472206e6f7420736574656421000000000000000000600082015250565b6000611615601783611520565b9150611620826115df565b602082019050919050565b6000602082019050818103600083015261164481611608565b9050919050565b60008151905061165a81611390565b92915050565b600060208284031215611676576116756112de565b5b60006116848482850161164b565b91505092915050565b7f61737369676e5265776172643a63616c54696d65206973207a65726f21000000600082015250565b60006116c3601d83611520565b91506116ce8261168d565b602082019050919050565b600060208201905081810360008301526116f2816116b6565b9050919050565b7f4c657373207468656e20726577617264446f776e4c696d697400000000000000600082015250565b600061172f601983611520565b915061173a826116f9565b602082019050919050565b6000602082019050818103600083015261175e81611722565b9050919050565b60008115159050919050565b61177a81611765565b811461178557600080fd5b50565b60008151905061179781611771565b92915050565b6000602082840312156117b3576117b26112de565b5b60006117c184828501611788565b91505092915050565b600080fd5b6000601f19601f8301169050919050565b7f4e487b7100000000000000000000000000000000000000000000000000000000600052604160045260246000fd5b611818826117cf565b810181811067ffffffffffffffff82111715611837576118366117e0565b5b80604052505050565b600061184a6112d4565b9050611856828261180f565b919050565b600067ffffffffffffffff821115611876576118756117e0565b5b602082029050602081019050919050565b600080fd5b600061189f61189a8461185b565b611840565b905080838252602082019050602084028301858111156118c2576118c1611887565b5b835b818110156118eb57806118d7888261159d565b8452602084019350506020810190506118c4565b5050509392505050565b600082601f83011261190a576119096117ca565b5b815161191a84826020860161188c565b91505092915050565b600060208284031215611939576119386112de565b5b600082015167ffffffffffffffff811115611957576119566112e3565b5b611963848285016118f5565b91505092915050565b7f4e487b7100000000000000000000000000000000000000000000000000000000600052601160045260246000fd5b60006119a682611386565b91506119b183611386565b9250828210156119c4576119c361196c565b5b828203905092915050565b7f4e487b7100000000000000000000000000000000000000000000000000000000600052603260045260246000fd5b7f4e487b7100000000000000000000000000000000000000000000000000000000600052603160045260246000fd5b6000611a3882611386565b91506000821415611a4c57611a4b61196c565b5b600182039050919050565b7f72657761726420696c6c6567616c000000000000000000000000000000000000600082015250565b6000611a8d600e83611520565b9150611a9882611a57565b602082019050919050565b60006020820190508181036000830152611abc81611a80565b9050919050565b6000604082019050611ad860008301856113e9565b611ae5602083018461148d565b9392505050565b6000611af782611386565b91507fffffffffffffffffffffffffffffffffffffffffffffffffffffffffffffffff821415611b2a57611b2961196c565b5b600182019050919050565b7f49676f7665726e20736574656421000000000000000000000000000000000000600082015250565b6000611b6b600e83611520565b9150611b7682611b35565b602082019050919050565b60006020820190508181036000830152611b9a81611b5e565b9050919050565b7f4e6f74206d616e6167656d656e74210000000000000000000000000000000000600082015250565b6000611bd7600f83611520565b9150611be282611ba1565b602082019050919050565b60006020820190508181036000830152611c0681611bca565b9050919050565b7f4e487b7100000000000000000000000000000000000000000000000000000000600052601260045260246000fd5b6000611c4782611386565b9150611c5283611386565b925082611c6257611c61611c0d565b5b828204905092915050565b6000611c7882611386565b9150611c8383611386565b9250817fffffffffffffffffffffffffffffffffffffffffffffffffffffffffffffffff0483118215151615611cbc57611cbb61196c565b5b828202905092915050565b6000611cd282611386565b9150611cdd83611386565b9250827fffffffffffffffffffffffffffffffffffffffffffffffffffffffffffffffff03821115611d1257611d1161196c565b5b828201905092915050565b7f416464726573733a20696e73756666696369656e742062616c616e6365000000600082015250565b6000611d53601d83611520565b9150611d5e82611d1d565b602082019050919050565b60006020820190508181036000830152611d8281611d46565b9050919050565b600081905092915050565b50565b6000611da4600083611d89565b9150611daf82611d94565b600082019050919050565b6000611dc582611d97565b9150819050919050565b7f416464726573733a20756e61626c6520746f2073656e642076616c75652c207260008201527f6563697069656e74206d61792068617665207265766572746564000000000000602082015250565b6000611e2b603a83611520565b9150611e3682611dcf565b604082019050919050565b60006020820190508181036000830152611e5a81611e1e565b905091905056fea264697066735822122064d0731ea9b28c04becbb4d4ee4474a3f50fbb9b9bd9230364b3b545b0fbf5e764736f6c634300080c0033",
  "immutableReferences": {},
  "source": "// SPDX-License-Identifier: GPL-3.0-only\npragma solidity ^0.8.0;\nimport \"@openzeppelin/contracts/utils/math/SafeMath.sol\";\nimport \"@openzeppelin/contracts/utils/Address.sol\";\n\ninterface IGovernance{\n    function stkTokenAddr() external view returns (address);\n    function getCalTime() external view returns(uint);\n    function rewardType() external  view returns(bool);\n\n}\n\ninterface IPool{\n    function getMemberAddrs() external view returns (address[] memory);\n    function memberTimes(address _account) external view returns (uint256);\n    function balanceOf(address _account) external view returns (uint256);\n    function totalSupply() external view returns (uint256);\n    function mintReward(address _account,uint256 _amount) external;\n}\n\ncontract Reward{\n    using SafeMath for uint256;\n\n    IGovernance public Igovern;\n    IPool public Ipool;\n    //lock\n    bool private unlocked = true;\n    //DAO\n    mapping(address => uint256) public daoRewards;\n    //sudo\n    address public owner;\n    //\n    address[] public lastRewardAddrs;\n\n    event SendValue(\n        address indexed recipient,\n        uint256 amount);\n\n    constructor (){\n    }\n\n    //\n    function initialize (address _governAddr,address _owner) external{\n        require(address(Igovern) == address(0),'Igovern seted!');\n        Igovern = IGovernance(_governAddr);\n        owner = _owner;\n        //constant\n        unlocked = true;\n    }\n\n    modifier isOwner() {\n        require(msg.sender == owner,'Not management!');\n        _;\n    }\n\n    function setGovernAddr(address _governAddr) public isOwner{\n        Igovern = IGovernance(_governAddr);\n    }\n\n    modifier lock() {\n        require(unlocked, 'Reward: LOCKED!');\n        unlocked = false;\n        _;\n        unlocked = true;\n    }\n\n    fallback () external payable{}\n\n    receive () external payable{\n        assignReward();\n    }\n\n    //stkToken\n    function assignReward() public lock{\n        require(Igovern.stkTokenAddr() != address(0),'stkTokenAddr not seted!');\n        uint calTime = Igovern.getCalTime();\n        require(calTime > 0,'assignReward:calTime is zero!');\n        require(address(this).balance > 0,'Less then rewardDownLimit');\n        Ipool = IPool(Igovern.stkTokenAddr());\n        uint totalSupply = Ipool.totalSupply();\n\n        uint256 newReward = address(this).balance;\n        //\n        bool rewardType = Igovern.rewardType();\n        lastRewardAddrs = Ipool.getMemberAddrs();\n        for(uint i = lastRewardAddrs.length;i > 0 ;i--){\n            address account = lastRewardAddrs[i - 1];\n            uint256 memberTime = Ipool.memberTimes(account);\n            uint256 day = (block.timestamp).sub(memberTime).div(60 * 60 *24);\n            if(Address.isContract(account)//\n            || memberTime == 0\n                || day < calTime){\n                if(i - 1 != lastRewardAddrs.length - 1){\n                    address addr = lastRewardAddrs[lastRewardAddrs.length - 1];\n                    lastRewardAddrs[i - 1] = addr;\n                }\n                lastRewardAddrs.pop();\n                totalSupply -= Ipool.balanceOf(account);\n            }\n        }\n        require(lastRewardAddrs.length > 0  && totalSupply > 0,'reward illegal');\n        for(uint i = 0;i < lastRewardAddrs.length;i++){\n            address account = lastRewardAddrs[i];\n            uint256 reward = newReward.mul(Ipool.balanceOf(account)).div(totalSupply);\n            daoRewards[account] = daoRewards[account].add(reward);\n            if(rewardType){\n                //stkToken\n                Ipool.mintReward(account,reward);\n            }else{\n                Address.sendValue(payable(account),reward);\n            }\n            emit SendValue(account,reward);\n        }\n        if(rewardType){\n            Address.sendValue(payable(address(Ipool)),newReward);\n        }\n    }\n\n    //token\n    function balance() public view returns(uint256){\n        return address(this).balance;\n    }\n}",
  "sourcePath": "D:\\\\vueDao\\StakeFinance\\truffle-dev\\contracts\\Reward.sol",
  "compiler": {
    "name": "solc",
    "version": "0.8.12+commit.f00d7308.Emscripten.clang"
  },
  "schemaVersion": "3.4.5",
  "updatedAt": "2022-06-20T02:52:10.537Z",
  "devdoc": {
    "kind": "dev",
    "methods": {},
    "version": 1
  },
  "userdoc": {
    "kind": "user",
    "methods": {},
    "version": 1
  }
}