{
  "contractName": "Search",
  "abi": [
    {
      "inputs": [],
      "stateMutability": "nonpayable",
      "type": "constructor"
    },
    {
      "inputs": [],
      "name": "Iairdrop",
      "outputs": [
        {
          "internalType": "contract IAirdrop",
          "name": "",
          "type": "address"
        }
      ],
      "stateMutability": "view",
      "type": "function"
    },
    {
      "inputs": [],
      "name": "Igovern",
      "outputs": [
        {
          "internalType": "contract IGovernance",
          "name": "",
          "type": "address"
        }
      ],
      "stateMutability": "view",
      "type": "function"
    },
    {
      "inputs": [],
      "name": "Ipool",
      "outputs": [
        {
          "internalType": "contract IPool",
          "name": "",
          "type": "address"
        }
      ],
      "stateMutability": "view",
      "type": "function"
    },
    {
      "inputs": [],
      "name": "Ireward",
      "outputs": [
        {
          "internalType": "contract IReward",
          "name": "",
          "type": "address"
        }
      ],
      "stateMutability": "view",
      "type": "function"
    },
    {
      "inputs": [
        {
          "internalType": "address",
          "name": "_governAddr",
          "type": "address"
        },
        {
          "internalType": "address",
          "name": "_poolAddr",
          "type": "address"
        },
        {
          "internalType": "address",
          "name": "_rewardAddr",
          "type": "address"
        },
        {
          "internalType": "address",
          "name": "_airdropAddr",
          "type": "address"
        }
      ],
      "name": "initialize",
      "outputs": [],
      "stateMutability": "nonpayable",
      "type": "function"
    },
    {
      "inputs": [],
      "name": "getAllDelegators",
      "outputs": [
        {
          "internalType": "address[]",
          "name": "",
          "type": "address[]"
        }
      ],
      "stateMutability": "view",
      "type": "function"
    },
    {
      "inputs": [],
      "name": "getAllCollators",
      "outputs": [
        {
          "internalType": "address[]",
          "name": "",
          "type": "address[]"
        }
      ],
      "stateMutability": "view",
      "type": "function"
    },
    {
      "inputs": [
        {
          "internalType": "address",
          "name": "_faucetAddr",
          "type": "address"
        }
      ],
      "name": "isScheduleRedeemStake",
      "outputs": [
        {
          "internalType": "bool",
          "name": "",
          "type": "bool"
        }
      ],
      "stateMutability": "view",
      "type": "function"
    },
    {
      "inputs": [
        {
          "internalType": "address",
          "name": "_faucetAddr",
          "type": "address"
        }
      ],
      "name": "isExecuteRedeemStake",
      "outputs": [
        {
          "internalType": "bool",
          "name": "",
          "type": "bool"
        }
      ],
      "stateMutability": "view",
      "type": "function"
    },
    {
      "inputs": [
        {
          "internalType": "address",
          "name": "_faucetAddr",
          "type": "address"
        }
      ],
      "name": "isZeroIncomePunish",
      "outputs": [
        {
          "internalType": "bool",
          "name": "",
          "type": "bool"
        }
      ],
      "stateMutability": "view",
      "type": "function"
    },
    {
      "inputs": [
        {
          "internalType": "address",
          "name": "_faucetAddr",
          "type": "address"
        }
      ],
      "name": "isRecordRewardInfo",
      "outputs": [
        {
          "internalType": "bool",
          "name": "",
          "type": "bool"
        }
      ],
      "stateMutability": "view",
      "type": "function"
    },
    {
      "inputs": [
        {
          "internalType": "address",
          "name": "_faucetAddr",
          "type": "address"
        }
      ],
      "name": "isSendReward",
      "outputs": [
        {
          "internalType": "bool",
          "name": "",
          "type": "bool"
        }
      ],
      "stateMutability": "view",
      "type": "function"
    },
    {
      "inputs": [],
      "name": "isAssignReward",
      "outputs": [
        {
          "internalType": "bool",
          "name": "",
          "type": "bool"
        }
      ],
      "stateMutability": "view",
      "type": "function"
    },
    {
      "inputs": [],
      "name": "startDrop",
      "outputs": [
        {
          "internalType": "bool",
          "name": "",
          "type": "bool"
        }
      ],
      "stateMutability": "view",
      "type": "function"
    }
  ],
  "bytecode": "0x608060405234801561001057600080fd5b50611bd1806100206000396000f3fe608060405234801561001057600080fd5b50600436106100e95760003560e01c806357fc6adb1161008c578063ad2b562211610066578063ad2b562214610274578063c8786de114610292578063f2a19592146102b0578063f8c8765e146102ce576100e9565b806357fc6adb146101f65780638274ab95146102265780638baf96a514610256576100e9565b806334d84c7b116100c857806334d84c7b1461016c578063372cf5fe1461018a5780633d676b76146101a857806354972570146101d8576100e9565b806229a20a146100ee5780630e6411551461011e578063266851f61461013c575b600080fd5b6101086004803603810190610103919061148d565b6102ea565b60405161011591906114d5565b60405180910390f35b6101266104e4565b60405161013391906115ae565b60405180910390f35b6101566004803603810190610151919061148d565b610581565b60405161016391906114d5565b60405180910390f35b6101746106ed565b60405161018191906114d5565b60405180910390f35b610192610ace565b60405161019f919061162f565b60405180910390f35b6101c260048036038101906101bd919061148d565b610af4565b6040516101cf91906114d5565b60405180910390f35b6101e0610cee565b6040516101ed91906114d5565b60405180910390f35b610210600480360381019061020b919061148d565b610eea565b60405161021d91906114d5565b60405180910390f35b610240600480360381019061023b919061148d565b611077565b60405161024d91906114d5565b60405180910390f35b61025e611176565b60405161026b919061166b565b60405180910390f35b61027c61119a565b60405161028991906116a7565b60405180910390f35b61029a6111c0565b6040516102a791906115ae565b60405180910390f35b6102b861125d565b6040516102c591906116e3565b60405180910390f35b6102e860048036038101906102e391906116fe565b611283565b005b60008173ffffffffffffffffffffffffffffffffffffffff16633d512be66040518163ffffffff1660e01b8152600401602060405180830381865afa158015610337573d6000803e3d6000fd5b505050506040513d601f19601f8201168201806040525081019061035b9190611791565b80156103d5575060008273ffffffffffffffffffffffffffffffffffffffff1663ee3b4a3f6040518163ffffffff1660e01b8152600401602060405180830381865afa1580156103af573d6000803e3d6000fd5b505050506040513d601f19601f820116820180604052508101906103d391906117f4565b145b80156104dd575060008054906101000a900473ffffffffffffffffffffffffffffffffffffffff1673ffffffffffffffffffffffffffffffffffffffff1663b97fb3ae6040518163ffffffff1660e01b8152600401602060405180830381865afa158015610447573d6000803e3d6000fd5b505050506040513d601f19601f8201168201806040525081019061046b91906117f4565b8273ffffffffffffffffffffffffffffffffffffffff1663bb780eb46040518163ffffffff1660e01b8152600401602060405180830381865afa1580156104b6573d6000803e3d6000fd5b505050506040513d601f19601f820116820180604052508101906104da91906117f4565b10155b9050919050565b6060600160009054906101000a900473ffffffffffffffffffffffffffffffffffffffff1673ffffffffffffffffffffffffffffffffffffffff16630e6411556040518163ffffffff1660e01b8152600401600060405180830381865afa158015610553573d6000803e3d6000fd5b505050506040513d6000823e3d601f19601f8201168201806040525081019061057c919061198f565b905090565b60008173ffffffffffffffffffffffffffffffffffffffff16633d512be66040518163ffffffff1660e01b8152600401602060405180830381865afa1580156105ce573d6000803e3d6000fd5b505050506040513d601f19601f820116820180604052508101906105f29190611791565b801561066c575060008273ffffffffffffffffffffffffffffffffffffffff1663ee3b4a3f6040518163ffffffff1660e01b8152600401602060405180830381865afa158015610646573d6000803e3d6000fd5b505050506040513d601f19601f8201168201806040525081019061066a91906117f4565b145b80156106e6575060008273ffffffffffffffffffffffffffffffffffffffff1663433cc97f6040518163ffffffff1660e01b8152600401602060405180830381865afa1580156106c0573d6000803e3d6000fd5b505050506040513d601f19601f820116820180604052508101906106e491906117f4565b115b9050919050565b60008073ffffffffffffffffffffffffffffffffffffffff1660008054906101000a900473ffffffffffffffffffffffffffffffffffffffff1673ffffffffffffffffffffffffffffffffffffffff166308c17a4a6040518163ffffffff1660e01b8152600401602060405180830381865afa158015610771573d6000803e3d6000fd5b505050506040513d601f19601f8201168201806040525081019061079591906119d8565b73ffffffffffffffffffffffffffffffffffffffff16141580156108625750600062015180600360009054906101000a900473ffffffffffffffffffffffffffffffffffffffff1673ffffffffffffffffffffffffffffffffffffffff16636c2cb65f6040518163ffffffff1660e01b8152600401602060405180830381865afa158015610827573d6000803e3d6000fd5b505050506040513d601f19601f8201168201806040525081019061084b91906117f4565b426108569190611a34565b6108609190611a97565b115b80156108fd575060008060009054906101000a900473ffffffffffffffffffffffffffffffffffffffff1673ffffffffffffffffffffffffffffffffffffffff16639054031d6040518163ffffffff1660e01b8152600401602060405180830381865afa1580156108d7573d6000803e3d6000fd5b505050506040513d601f19601f820116820180604052508101906108fb91906117f4565b115b8015610a27575060008054906101000a900473ffffffffffffffffffffffffffffffffffffffff1673ffffffffffffffffffffffffffffffffffffffff166321cec6af6040518163ffffffff1660e01b8152600401602060405180830381865afa15801561096f573d6000803e3d6000fd5b505050506040513d601f19601f8201168201806040525081019061099391906117f4565b600160009054906101000a900473ffffffffffffffffffffffffffffffffffffffff1673ffffffffffffffffffffffffffffffffffffffff166318160ddd6040518163ffffffff1660e01b8152600401602060405180830381865afa158015610a00573d6000803e3d6000fd5b505050506040513d601f19601f82011682018060405250810190610a2491906117f4565b10155b8015610ac957506000600160009054906101000a900473ffffffffffffffffffffffffffffffffffffffff1673ffffffffffffffffffffffffffffffffffffffff1663cbb750256040518163ffffffff1660e01b8152600401600060405180830381865afa158015610a9d573d6000803e3d6000fd5b505050506040513d6000823e3d601f19601f82011682018060405250810190610ac6919061198f565b51115b905090565b600360009054906101000a900473ffffffffffffffffffffffffffffffffffffffff1681565b60008173ffffffffffffffffffffffffffffffffffffffff16633d512be66040518163ffffffff1660e01b8152600401602060405180830381865afa158015610b41573d6000803e3d6000fd5b505050506040513d601f19601f82011682018060405250810190610b659190611791565b8015610bdf575060008273ffffffffffffffffffffffffffffffffffffffff1663ee3b4a3f6040518163ffffffff1660e01b8152600401602060405180830381865afa158015610bb9573d6000803e3d6000fd5b505050506040513d601f19601f82011682018060405250810190610bdd91906117f4565b145b8015610ce7575060008054906101000a900473ffffffffffffffffffffffffffffffffffffffff1673ffffffffffffffffffffffffffffffffffffffff1663e6164bfb6040518163ffffffff1660e01b8152600401602060405180830381865afa158015610c51573d6000803e3d6000fd5b505050506040513d601f19601f82011682018060405250810190610c7591906117f4565b8273ffffffffffffffffffffffffffffffffffffffff1663b69ef8a86040518163ffffffff1660e01b8152600401602060405180830381865afa158015610cc0573d6000803e3d6000fd5b505050506040513d601f19601f82011682018060405250810190610ce491906117f4565b10155b9050919050565b60008073ffffffffffffffffffffffffffffffffffffffff1660008054906101000a900473ffffffffffffffffffffffffffffffffffffffff1673ffffffffffffffffffffffffffffffffffffffff166308c17a4a6040518163ffffffff1660e01b8152600401602060405180830381865afa158015610d72573d6000803e3d6000fd5b505050506040513d601f19601f82011682018060405250810190610d9691906119d8565b73ffffffffffffffffffffffffffffffffffffffff1614158015610e49575060008060009054906101000a900473ffffffffffffffffffffffffffffffffffffffff1673ffffffffffffffffffffffffffffffffffffffff16639054031d6040518163ffffffff1660e01b8152600401602060405180830381865afa158015610e23573d6000803e3d6000fd5b505050506040513d601f19601f82011682018060405250810190610e4791906117f4565b115b8015610ee557506000600260009054906101000a900473ffffffffffffffffffffffffffffffffffffffff1673ffffffffffffffffffffffffffffffffffffffff1663b69ef8a86040518163ffffffff1660e01b8152600401602060405180830381865afa158015610ebf573d6000803e3d6000fd5b505050506040513d601f19601f82011682018060405250810190610ee391906117f4565b115b905090565b6000808273ffffffffffffffffffffffffffffffffffffffff1663ee3b4a3f6040518163ffffffff1660e01b8152600401602060405180830381865afa158015610f38573d6000803e3d6000fd5b505050506040513d601f19601f82011682018060405250810190610f5c91906117f4565b11801561107057504360008054906101000a900473ffffffffffffffffffffffffffffffffffffffff1673ffffffffffffffffffffffffffffffffffffffff1663f44ff7126040518163ffffffff1660e01b8152600401602060405180830381865afa158015610fd0573d6000803e3d6000fd5b505050506040513d601f19601f82011682018060405250810190610ff491906117f4565b8373ffffffffffffffffffffffffffffffffffffffff1663ee3b4a3f6040518163ffffffff1660e01b8152600401602060405180830381865afa15801561103f573d6000803e3d6000fd5b505050506040513d601f19601f8201168201806040525081019061106391906117f4565b61106d9190611ac8565b11155b9050919050565b60008173ffffffffffffffffffffffffffffffffffffffff16633d512be66040518163ffffffff1660e01b8152600401602060405180830381865afa1580156110c4573d6000803e3d6000fd5b505050506040513d601f19601f820116820180604052508101906110e89190611791565b801561116f575062015180426110fe9190611a97565b8273ffffffffffffffffffffffffffffffffffffffff166355ad23336040518163ffffffff1660e01b8152600401602060405180830381865afa158015611149573d6000803e3d6000fd5b505050506040513d601f19601f8201168201806040525081019061116d91906117f4565b105b9050919050565b60008054906101000a900473ffffffffffffffffffffffffffffffffffffffff1681565b600260009054906101000a900473ffffffffffffffffffffffffffffffffffffffff1681565b6060600160009054906101000a900473ffffffffffffffffffffffffffffffffffffffff1673ffffffffffffffffffffffffffffffffffffffff1663c8786de16040518163ffffffff1660e01b8152600401600060405180830381865afa15801561122f573d6000803e3d6000fd5b505050506040513d6000823e3d601f19601f82011682018060405250810190611258919061198f565b905090565b600160009054906101000a900473ffffffffffffffffffffffffffffffffffffffff1681565b600073ffffffffffffffffffffffffffffffffffffffff1660008054906101000a900473ffffffffffffffffffffffffffffffffffffffff1673ffffffffffffffffffffffffffffffffffffffff1614611312576040517f08c379a000000000000000000000000000000000000000000000000000000000815260040161130990611b7b565b60405180910390fd5b836000806101000a81548173ffffffffffffffffffffffffffffffffffffffff021916908373ffffffffffffffffffffffffffffffffffffffff16021790555082600160006101000a81548173ffffffffffffffffffffffffffffffffffffffff021916908373ffffffffffffffffffffffffffffffffffffffff16021790555081600260006101000a81548173ffffffffffffffffffffffffffffffffffffffff021916908373ffffffffffffffffffffffffffffffffffffffff16021790555080600360006101000a81548173ffffffffffffffffffffffffffffffffffffffff021916908373ffffffffffffffffffffffffffffffffffffffff16021790555050505050565b6000604051905090565b600080fd5b600080fd5b600073ffffffffffffffffffffffffffffffffffffffff82169050919050565b600061145a8261142f565b9050919050565b61146a8161144f565b811461147557600080fd5b50565b60008135905061148781611461565b92915050565b6000602082840312156114a3576114a2611425565b5b60006114b184828501611478565b91505092915050565b60008115159050919050565b6114cf816114ba565b82525050565b60006020820190506114ea60008301846114c6565b92915050565b600081519050919050565b600082825260208201905092915050565b6000819050602082019050919050565b6115258161144f565b82525050565b6000611537838361151c565b60208301905092915050565b6000602082019050919050565b600061155b826114f0565b61156581856114fb565b93506115708361150c565b8060005b838110156115a1578151611588888261152b565b975061159383611543565b925050600181019050611574565b5085935050505092915050565b600060208201905081810360008301526115c88184611550565b905092915050565b6000819050919050565b60006115f56115f06115eb8461142f565b6115d0565b61142f565b9050919050565b6000611607826115da565b9050919050565b6000611619826115fc565b9050919050565b6116298161160e565b82525050565b60006020820190506116446000830184611620565b92915050565b6000611655826115fc565b9050919050565b6116658161164a565b82525050565b6000602082019050611680600083018461165c565b92915050565b6000611691826115fc565b9050919050565b6116a181611686565b82525050565b60006020820190506116bc6000830184611698565b92915050565b60006116cd826115fc565b9050919050565b6116dd816116c2565b82525050565b60006020820190506116f860008301846116d4565b92915050565b6000806000806080858703121561171857611717611425565b5b600061172687828801611478565b945050602061173787828801611478565b935050604061174887828801611478565b925050606061175987828801611478565b91505092959194509250565b61176e816114ba565b811461177957600080fd5b50565b60008151905061178b81611765565b92915050565b6000602082840312156117a7576117a6611425565b5b60006117b58482850161177c565b91505092915050565b6000819050919050565b6117d1816117be565b81146117dc57600080fd5b50565b6000815190506117ee816117c8565b92915050565b60006020828403121561180a57611809611425565b5b6000611818848285016117df565b91505092915050565b600080fd5b6000601f19601f8301169050919050565b7f4e487b7100000000000000000000000000000000000000000000000000000000600052604160045260246000fd5b61186f82611826565b810181811067ffffffffffffffff8211171561188e5761188d611837565b5b80604052505050565b60006118a161141b565b90506118ad8282611866565b919050565b600067ffffffffffffffff8211156118cd576118cc611837565b5b602082029050602081019050919050565b600080fd5b6000815190506118f281611461565b92915050565b600061190b611906846118b2565b611897565b9050808382526020820190506020840283018581111561192e5761192d6118de565b5b835b81811015611957578061194388826118e3565b845260208401935050602081019050611930565b5050509392505050565b600082601f83011261197657611975611821565b5b81516119868482602086016118f8565b91505092915050565b6000602082840312156119a5576119a4611425565b5b600082015167ffffffffffffffff8111156119c3576119c261142a565b5b6119cf84828501611961565b91505092915050565b6000602082840312156119ee576119ed611425565b5b60006119fc848285016118e3565b91505092915050565b7f4e487b7100000000000000000000000000000000000000000000000000000000600052601160045260246000fd5b6000611a3f826117be565b9150611a4a836117be565b925082821015611a5d57611a5c611a05565b5b828203905092915050565b7f4e487b7100000000000000000000000000000000000000000000000000000000600052601260045260246000fd5b6000611aa2826117be565b9150611aad836117be565b925082611abd57611abc611a68565b5b828204905092915050565b6000611ad3826117be565b9150611ade836117be565b9250827fffffffffffffffffffffffffffffffffffffffffffffffffffffffffffffffff03821115611b1357611b12611a05565b5b828201905092915050565b600082825260208201905092915050565b7f49676f7665726e20736574656421000000000000000000000000000000000000600082015250565b6000611b65600e83611b1e565b9150611b7082611b2f565b602082019050919050565b60006020820190508181036000830152611b9481611b58565b905091905056fea264697066735822122059d599d52ab37a64a2c5e26a8523d6b71c2b9f9ce12ca3bc57422eb818e1f53664736f6c634300080c0033",
  "immutableReferences": {},
  "source": "pragma solidity ^0.8.0;\n\ninterface IPool {\n    function getMemberAddrs() external view returns (address[] memory);\n\n    function getAllDelegators() external view returns (address[] memory);\n\n    function getAllCollators() external view returns (address[] memory);\n\n    function totalSupply() external view returns (uint256);\n}\n\ninterface IFaucet {\n    function leaveNumber() external view returns (uint256);\n\n    function bstate() external view returns (bool);\n\n    function balance() external view returns (uint256);\n\n    function punishCount() external view returns (uint256);\n\n    function getRecordRewardDate() external view returns (uint256);\n\n    function getPendingRedeemDate() external view returns (uint256);\n}\n\ninterface IGovernance {\n    function blockHeight() external view returns (uint256);\n\n    function getZeroTimeLimit() external view returns (uint256);\n\n    function getRewardDownLimit() external view returns (uint256);\n\n    function stkTokenAddr() external view returns (address);\n\n    function getCalTime() external view returns (uint256);\n\n    function getFundsDownLimit() external view returns (uint256);\n}\n\ninterface IReward {\n    function balance() external view returns (uint256);\n}\n\ninterface IAirdrop {\n    function dropLastTime() external view returns (uint256);\n}\n\ncontract Search {\n    IGovernance public Igovern;\n    IPool public Ipool;\n    IReward public Ireward;\n    IAirdrop public Iairdrop;\n\n    constructor() public {}\n\n    //\n    function initialize(\n        address _governAddr,\n        address _poolAddr,\n        address _rewardAddr,\n        address _airdropAddr\n    ) external {\n        require(address(Igovern) == address(0), \"Igovern seted!\");\n        Igovern = IGovernance(_governAddr);\n        Ipool = IPool(_poolAddr);\n        Ireward = IReward(_rewardAddr);\n        Iairdrop = IAirdrop(_airdropAddr);\n    }\n\n    function getAllDelegators() public view returns (address[] memory) {\n        return Ipool.getAllDelegators();\n    }\n\n    function getAllCollators() public view returns (address[] memory) {\n        return Ipool.getAllCollators();\n    }\n\n    function isScheduleRedeemStake(address _faucetAddr)\n        public\n        view\n        returns (bool)\n    {\n        return\n            IFaucet(_faucetAddr).bstate() &&\n            IFaucet(_faucetAddr).leaveNumber() == 0 &&\n            IFaucet(_faucetAddr).getPendingRedeemDate() > 0;\n    }\n\n    function isExecuteRedeemStake(address _faucetAddr)\n        public\n        view\n        returns (bool)\n    {\n        return\n            IFaucet(_faucetAddr).leaveNumber() > 0 &&\n            IFaucet(_faucetAddr).leaveNumber() + Igovern.blockHeight() <=\n            block.number;\n    }\n\n    function isZeroIncomePunish(address _faucetAddr)\n        public\n        view\n        returns (bool)\n    {\n        return\n            IFaucet(_faucetAddr).bstate() &&\n            IFaucet(_faucetAddr).leaveNumber() == 0 &&\n            IFaucet(_faucetAddr).punishCount() >= Igovern.getZeroTimeLimit();\n    }\n\n    function isRecordRewardInfo(address _faucetAddr)\n        public\n        view\n        returns (bool)\n    {\n        return\n            IFaucet(_faucetAddr).bstate() &&\n            IFaucet(_faucetAddr).getRecordRewardDate() <\n            block.timestamp / (24 * 60 * 60);\n    }\n\n    function isSendReward(address _faucetAddr) public view returns (bool) {\n        return\n            IFaucet(_faucetAddr).bstate() &&\n            IFaucet(_faucetAddr).leaveNumber() == 0 &&\n            IFaucet(_faucetAddr).balance() >= Igovern.getRewardDownLimit();\n    }\n\n    function isAssignReward() public view returns (bool) {\n        return\n            Igovern.stkTokenAddr() != address(0) &&\n            Igovern.getCalTime() > 0 &&\n            Ireward.balance() > 0;\n    }\n\n    function startDrop() public view returns (bool) {\n        return\n            Igovern.stkTokenAddr() != address(0) &&\n            (block.timestamp - Iairdrop.dropLastTime()) / (60 * 60 * 24) > 0 &&\n            Igovern.getCalTime() > 0 &&\n            Ipool.totalSupply() >= Igovern.getFundsDownLimit() &&\n            Ipool.getMemberAddrs().length > 0;\n    }\n}\n",
  "sourcePath": "D:\\\\vueDao\\StakeFinance\\truffle-dev\\contracts\\Search.sol",
  "compiler": {
    "name": "solc",
    "version": "0.8.12+commit.f00d7308.Emscripten.clang"
  },
  "schemaVersion": "3.4.5",
  "updatedAt": "2022-06-20T02:52:10.545Z",
  "devdoc": {
    "kind": "dev",
    "methods": {},
    "version": 1
  },
  "userdoc": {
    "kind": "user",
    "methods": {},
    "version": 1
  }
}